{
	"cont.sol": {
		"Quiz": {
			"abi": [
				{
					"inputs": [],
					"name": "updateX",
					"outputs": [],
					"stateMutability": "nonpayable",
					"type": "function"
				},
				{
					"inputs": [],
					"name": "x",
					"outputs": [
						{
							"internalType": "uint256",
							"name": "",
							"type": "uint256"
						}
					],
					"stateMutability": "view",
					"type": "function"
				},
				{
					"inputs": [],
					"name": "y",
					"outputs": [
						{
							"internalType": "uint256",
							"name": "",
							"type": "uint256"
						}
					],
					"stateMutability": "view",
					"type": "function"
				}
			],
			"devdoc": {
				"kind": "dev",
				"methods": {},
				"version": 1
			},
			"evm": {
				"assembly": "    /* \"cont.sol\":57:283  contract Quiz {... */\n  mstore(0x40, 0x80)\n    /* \"cont.sol\":96:98  10 */\n  0x0a\n    /* \"cont.sol\":77:98  uint256 public x = 10 */\n  0x00\n  sstore\n    /* \"cont.sol\":123:125  10 */\n  0x0a\n    /* \"cont.sol\":104:125  uint256 public y = 10 */\n  0x01\n  sstore\n    /* \"cont.sol\":153:165  block.number */\n  number\n    /* \"cont.sol\":131:165  uint256 blockNumber = block.number */\n  0x02\n  sstore\n    /* \"cont.sol\":57:283  contract Quiz {... */\n  callvalue\n  dup1\n  iszero\n  tag_1\n  jumpi\n  0x00\n  dup1\n  revert\ntag_1:\n  pop\n  dataSize(sub_0)\n  dup1\n  dataOffset(sub_0)\n  0x00\n  codecopy\n  0x00\n  return\nstop\n\nsub_0: assembly {\n        /* \"cont.sol\":57:283  contract Quiz {... */\n      mstore(0x40, 0x80)\n      callvalue\n      dup1\n      iszero\n      tag_1\n      jumpi\n      0x00\n      dup1\n      revert\n    tag_1:\n      pop\n      jumpi(tag_2, lt(calldatasize, 0x04))\n      shr(0xe0, calldataload(0x00))\n      dup1\n      0x0c55699c\n      eq\n      tag_3\n      jumpi\n      dup1\n      0xa56dfe4a\n      eq\n      tag_4\n      jumpi\n      dup1\n      0xaa00d8d0\n      eq\n      tag_5\n      jumpi\n    tag_2:\n      0x00\n      dup1\n      revert\n        /* \"cont.sol\":77:98  uint256 public x = 10 */\n    tag_3:\n      tag_6\n      tag_7\n      jump\t// in\n    tag_6:\n      mload(0x40)\n      tag_8\n      swap2\n      swap1\n      tag_9\n      jump\t// in\n    tag_8:\n      mload(0x40)\n      dup1\n      swap2\n      sub\n      swap1\n      return\n        /* \"cont.sol\":104:125  uint256 public y = 10 */\n    tag_4:\n      tag_10\n      tag_11\n      jump\t// in\n    tag_10:\n      mload(0x40)\n      tag_12\n      swap2\n      swap1\n      tag_9\n      jump\t// in\n    tag_12:\n      mload(0x40)\n      dup1\n      swap2\n      sub\n      swap1\n      return\n        /* \"cont.sol\":173:281  function updateX() public {... */\n    tag_5:\n      tag_13\n      tag_14\n      jump\t// in\n    tag_13:\n      stop\n        /* \"cont.sol\":77:98  uint256 public x = 10 */\n    tag_7:\n      sload(0x00)\n      dup2\n      jump\t// out\n        /* \"cont.sol\":104:125  uint256 public y = 10 */\n    tag_11:\n      sload(0x01)\n      dup2\n      jump\t// out\n        /* \"cont.sol\":173:281  function updateX() public {... */\n    tag_14:\n        /* \"cont.sol\":209:218  uint256 x */\n      0x00\n        /* \"cont.sol\":221:223  20 */\n      0x14\n        /* \"cont.sol\":209:223  uint256 x = 20 */\n      swap1\n      pop\n        /* \"cont.sol\":237:238  x */\n      dup1\n        /* \"cont.sol\":233:234  y */\n      0x01\n        /* \"cont.sol\":233:238  y = x */\n      dup2\n      swap1\n      sstore\n      pop\n        /* \"cont.sol\":262:274  block.number */\n      number\n        /* \"cont.sol\":248:259  blockNumber */\n      0x02\n        /* \"cont.sol\":248:274  blockNumber = block.number */\n      dup2\n      swap1\n      sstore\n      pop\n        /* \"cont.sol\":199:281  {... */\n      pop\n        /* \"cont.sol\":173:281  function updateX() public {... */\n      jump\t// out\n        /* \"#utility.yul\":7:84   */\n    tag_16:\n        /* \"#utility.yul\":44:51   */\n      0x00\n        /* \"#utility.yul\":73:78   */\n      dup2\n        /* \"#utility.yul\":62:78   */\n      swap1\n      pop\n        /* \"#utility.yul\":7:84   */\n      swap2\n      swap1\n      pop\n      jump\t// out\n        /* \"#utility.yul\":90:208   */\n    tag_17:\n        /* \"#utility.yul\":177:201   */\n      tag_21\n        /* \"#utility.yul\":195:200   */\n      dup2\n        /* \"#utility.yul\":177:201   */\n      tag_16\n      jump\t// in\n    tag_21:\n        /* \"#utility.yul\":172:175   */\n      dup3\n        /* \"#utility.yul\":165:202   */\n      mstore\n        /* \"#utility.yul\":90:208   */\n      pop\n      pop\n      jump\t// out\n        /* \"#utility.yul\":214:436   */\n    tag_9:\n        /* \"#utility.yul\":307:311   */\n      0x00\n        /* \"#utility.yul\":345:347   */\n      0x20\n        /* \"#utility.yul\":334:343   */\n      dup3\n        /* \"#utility.yul\":330:348   */\n      add\n        /* \"#utility.yul\":322:348   */\n      swap1\n      pop\n        /* \"#utility.yul\":358:429   */\n      tag_23\n        /* \"#utility.yul\":426:427   */\n      0x00\n        /* \"#utility.yul\":415:424   */\n      dup4\n        /* \"#utility.yul\":411:428   */\n      add\n        /* \"#utility.yul\":402:408   */\n      dup5\n        /* \"#utility.yul\":358:429   */\n      tag_17\n      jump\t// in\n    tag_23:\n        /* \"#utility.yul\":214:436   */\n      swap3\n      swap2\n      pop\n      pop\n      jump\t// out\n\n    auxdata: 0xa2646970667358221220cb3698e85326b9830a7054b39d5b6328679de42982c87bad78fca82d643fffd664736f6c63430008140033\n}\n",
				"bytecode": {
					"linkReferences": {},
					"object": "6080604052600a5f55600a6001554360025534801561001c575f80fd5b5060fe806100295f395ff3fe6080604052348015600e575f80fd5b5060043610603a575f3560e01c80630c55699c14603e578063a56dfe4a146058578063aa00d8d0146072575b5f80fd5b6044607a565b604051604f919060b1565b60405180910390f35b605e607f565b6040516069919060b1565b60405180910390f35b60786085565b005b5f5481565b60015481565b5f60149050806001819055504360028190555050565b5f819050919050565b60ab81609b565b82525050565b5f60208201905060c25f83018460a4565b9291505056fea2646970667358221220cb3698e85326b9830a7054b39d5b6328679de42982c87bad78fca82d643fffd664736f6c63430008140033",
					"opcodes": "PUSH1 0x80 PUSH1 0x40 MSTORE PUSH1 0xA PUSH0 SSTORE PUSH1 0xA PUSH1 0x1 SSTORE NUMBER PUSH1 0x2 SSTORE CALLVALUE DUP1 ISZERO PUSH2 0x1C JUMPI PUSH0 DUP1 REVERT JUMPDEST POP PUSH1 0xFE DUP1 PUSH2 0x29 PUSH0 CODECOPY PUSH0 RETURN INVALID PUSH1 0x80 PUSH1 0x40 MSTORE CALLVALUE DUP1 ISZERO PUSH1 0xE JUMPI PUSH0 DUP1 REVERT JUMPDEST POP PUSH1 0x4 CALLDATASIZE LT PUSH1 0x3A JUMPI PUSH0 CALLDATALOAD PUSH1 0xE0 SHR DUP1 PUSH4 0xC55699C EQ PUSH1 0x3E JUMPI DUP1 PUSH4 0xA56DFE4A EQ PUSH1 0x58 JUMPI DUP1 PUSH4 0xAA00D8D0 EQ PUSH1 0x72 JUMPI JUMPDEST PUSH0 DUP1 REVERT JUMPDEST PUSH1 0x44 PUSH1 0x7A JUMP JUMPDEST PUSH1 0x40 MLOAD PUSH1 0x4F SWAP2 SWAP1 PUSH1 0xB1 JUMP JUMPDEST PUSH1 0x40 MLOAD DUP1 SWAP2 SUB SWAP1 RETURN JUMPDEST PUSH1 0x5E PUSH1 0x7F JUMP JUMPDEST PUSH1 0x40 MLOAD PUSH1 0x69 SWAP2 SWAP1 PUSH1 0xB1 JUMP JUMPDEST PUSH1 0x40 MLOAD DUP1 SWAP2 SUB SWAP1 RETURN JUMPDEST PUSH1 0x78 PUSH1 0x85 JUMP JUMPDEST STOP JUMPDEST PUSH0 SLOAD DUP2 JUMP JUMPDEST PUSH1 0x1 SLOAD DUP2 JUMP JUMPDEST PUSH0 PUSH1 0x14 SWAP1 POP DUP1 PUSH1 0x1 DUP2 SWAP1 SSTORE POP NUMBER PUSH1 0x2 DUP2 SWAP1 SSTORE POP POP JUMP JUMPDEST PUSH0 DUP2 SWAP1 POP SWAP2 SWAP1 POP JUMP JUMPDEST PUSH1 0xAB DUP2 PUSH1 0x9B JUMP JUMPDEST DUP3 MSTORE POP POP JUMP JUMPDEST PUSH0 PUSH1 0x20 DUP3 ADD SWAP1 POP PUSH1 0xC2 PUSH0 DUP4 ADD DUP5 PUSH1 0xA4 JUMP JUMPDEST SWAP3 SWAP2 POP POP JUMP INVALID LOG2 PUSH5 0x6970667358 0x22 SLT KECCAK256 0xCB CALLDATASIZE SWAP9 0xE8 MSTORE8 0x26 0xB9 DUP4 EXP PUSH17 0x54B39D5B6328679DE42982C87BAD78FCA8 0x2D PUSH5 0x3FFFD66473 PUSH16 0x6C634300081400330000000000000000 "
				},
				"gasEstimates": {
					"creation": {
						"codeDepositCost": "50800",
						"executionCost": "66413",
						"totalCost": "117213"
					},
					"external": {
						"updateX()": "44404",
						"x()": "2402",
						"y()": "2425"
					}
				},
				"methodIdentifiers": {
					"updateX()": "aa00d8d0",
					"x()": "0c55699c",
					"y()": "a56dfe4a"
				}
			},
			"storageLayout": {
				"storage": [
					{
						"astId": 4,
						"contract": "cont.sol:Quiz",
						"label": "x",
						"offset": 0,
						"slot": "0",
						"type": "t_uint256"
					},
					{
						"astId": 7,
						"contract": "cont.sol:Quiz",
						"label": "y",
						"offset": 0,
						"slot": "1",
						"type": "t_uint256"
					},
					{
						"astId": 11,
						"contract": "cont.sol:Quiz",
						"label": "blockNumber",
						"offset": 0,
						"slot": "2",
						"type": "t_uint256"
					}
				],
				"types": {
					"t_uint256": {
						"encoding": "inplace",
						"label": "uint256",
						"numberOfBytes": "32"
					}
				}
			},
			"userdoc": {
				"kind": "user",
				"methods": {},
				"version": 1
			}
		}
	}
}