{
	"6_Day/5_Inheritance/5_calling_parent_fun.sol": {
		"F": {
			"abi": [
				{
					"anonymous": false,
					"inputs": [
						{
							"indexed": false,
							"internalType": "string",
							"name": "message",
							"type": "string"
						}
					],
					"name": "Log",
					"type": "event"
				},
				{
					"inputs": [],
					"name": "bar",
					"outputs": [],
					"stateMutability": "nonpayable",
					"type": "function"
				},
				{
					"inputs": [],
					"name": "foo",
					"outputs": [],
					"stateMutability": "nonpayable",
					"type": "function"
				}
			],
			"devdoc": {
				"kind": "dev",
				"methods": {},
				"version": 1
			},
			"evm": {
				"assembly": "    /* \"6_Day/5_Inheritance/5_calling_parent_fun.sol\":247:486  contract F is E {... */\n  mstore(0x40, 0x80)\n  callvalue\n  dup1\n  iszero\n  tag_1\n  jumpi\n  0x00\n  dup1\n  revert\ntag_1:\n  pop\n  dataSize(sub_0)\n  dup1\n  dataOffset(sub_0)\n  0x00\n  codecopy\n  0x00\n  return\nstop\n\nsub_0: assembly {\n        /* \"6_Day/5_Inheritance/5_calling_parent_fun.sol\":247:486  contract F is E {... */\n      mstore(0x40, 0x80)\n      callvalue\n      dup1\n      iszero\n      tag_1\n      jumpi\n      0x00\n      dup1\n      revert\n    tag_1:\n      pop\n      jumpi(tag_2, lt(calldatasize, 0x04))\n      shr(0xe0, calldataload(0x00))\n      dup1\n      0xc2985578\n      eq\n      tag_3\n      jumpi\n      dup1\n      0xfebb0f7e\n      eq\n      tag_4\n      jumpi\n    tag_2:\n      0x00\n      dup1\n      revert\n        /* \"6_Day/5_Inheritance/5_calling_parent_fun.sol\":269:373  function foo() public virtual override {... */\n    tag_3:\n      tag_5\n      tag_6\n      jump\t// in\n    tag_5:\n      stop\n        /* \"6_Day/5_Inheritance/5_calling_parent_fun.sol\":378:484  function bar() public virtual override {... */\n    tag_4:\n      tag_7\n      tag_8\n      jump\t// in\n    tag_7:\n      stop\n        /* \"6_Day/5_Inheritance/5_calling_parent_fun.sol\":269:373  function foo() public virtual override {... */\n    tag_6:\n        /* \"6_Day/5_Inheritance/5_calling_parent_fun.sol\":323:337  Log (\"F. foo\") */\n      0xcf34ef537ac33ee1ac626ca1587a0a7e8e51561e5514f8cb36afa1c5102b3bab\n      mload(0x40)\n      tag_10\n      swap1\n      tag_11\n      jump\t// in\n    tag_10:\n      mload(0x40)\n      dup1\n      swap2\n      sub\n      swap1\n      log1\n        /* \"6_Day/5_Inheritance/5_calling_parent_fun.sol\":347:354  E.foo() */\n      tag_12\n        /* \"6_Day/5_Inheritance/5_calling_parent_fun.sol\":347:352  E.foo */\n      tag_13\n        /* \"6_Day/5_Inheritance/5_calling_parent_fun.sol\":347:354  E.foo() */\n      jump\t// in\n    tag_12:\n        /* \"6_Day/5_Inheritance/5_calling_parent_fun.sol\":269:373  function foo() public virtual override {... */\n      jump\t// out\n        /* \"6_Day/5_Inheritance/5_calling_parent_fun.sol\":378:484  function bar() public virtual override {... */\n    tag_8:\n        /* \"6_Day/5_Inheritance/5_calling_parent_fun.sol\":432:445  Log (\"F.bar\") */\n      0xcf34ef537ac33ee1ac626ca1587a0a7e8e51561e5514f8cb36afa1c5102b3bab\n      mload(0x40)\n      tag_15\n      swap1\n      tag_16\n      jump\t// in\n    tag_15:\n      mload(0x40)\n      dup1\n      swap2\n      sub\n      swap1\n      log1\n        /* \"6_Day/5_Inheritance/5_calling_parent_fun.sol\":455:466  super.bar() */\n      tag_17\n        /* \"6_Day/5_Inheritance/5_calling_parent_fun.sol\":455:464  super.bar */\n      tag_18\n        /* \"6_Day/5_Inheritance/5_calling_parent_fun.sol\":455:466  super.bar() */\n      jump\t// in\n    tag_17:\n        /* \"6_Day/5_Inheritance/5_calling_parent_fun.sol\":378:484  function bar() public virtual override {... */\n      jump\t// out\n        /* \"6_Day/5_Inheritance/5_calling_parent_fun.sol\":107:174  function foo () public virtual {... */\n    tag_13:\n        /* \"6_Day/5_Inheritance/5_calling_parent_fun.sol\":153:167  Log (\"E. foo\") */\n      0xcf34ef537ac33ee1ac626ca1587a0a7e8e51561e5514f8cb36afa1c5102b3bab\n      mload(0x40)\n      tag_20\n      swap1\n      tag_21\n      jump\t// in\n    tag_20:\n      mload(0x40)\n      dup1\n      swap2\n      sub\n      swap1\n      log1\n        /* \"6_Day/5_Inheritance/5_calling_parent_fun.sol\":107:174  function foo () public virtual {... */\n      jump\t// out\n        /* \"6_Day/5_Inheritance/5_calling_parent_fun.sol\":179:244  function bar() public virtual {... */\n    tag_18:\n        /* \"6_Day/5_Inheritance/5_calling_parent_fun.sol\":224:237  Log (\"E.bar\") */\n      0xcf34ef537ac33ee1ac626ca1587a0a7e8e51561e5514f8cb36afa1c5102b3bab\n      mload(0x40)\n      tag_23\n      swap1\n      tag_24\n      jump\t// in\n    tag_23:\n      mload(0x40)\n      dup1\n      swap2\n      sub\n      swap1\n      log1\n        /* \"6_Day/5_Inheritance/5_calling_parent_fun.sol\":179:244  function bar() public virtual {... */\n      jump\t// out\n        /* \"#utility.yul\":7:176   */\n    tag_25:\n        /* \"#utility.yul\":91:102   */\n      0x00\n        /* \"#utility.yul\":125:131   */\n      dup3\n        /* \"#utility.yul\":120:123   */\n      dup3\n        /* \"#utility.yul\":113:132   */\n      mstore\n        /* \"#utility.yul\":165:169   */\n      0x20\n        /* \"#utility.yul\":160:163   */\n      dup3\n        /* \"#utility.yul\":156:170   */\n      add\n        /* \"#utility.yul\":141:170   */\n      swap1\n      pop\n        /* \"#utility.yul\":7:176   */\n      swap3\n      swap2\n      pop\n      pop\n      jump\t// out\n        /* \"#utility.yul\":182:338   */\n    tag_26:\n        /* \"#utility.yul\":322:330   */\n      0x462e20666f6f0000000000000000000000000000000000000000000000000000\n        /* \"#utility.yul\":318:319   */\n      0x00\n        /* \"#utility.yul\":310:316   */\n      dup3\n        /* \"#utility.yul\":306:320   */\n      add\n        /* \"#utility.yul\":299:331   */\n      mstore\n        /* \"#utility.yul\":182:338   */\n      pop\n      jump\t// out\n        /* \"#utility.yul\":344:709   */\n    tag_27:\n        /* \"#utility.yul\":486:489   */\n      0x00\n        /* \"#utility.yul\":507:573   */\n      tag_38\n        /* \"#utility.yul\":571:572   */\n      0x06\n        /* \"#utility.yul\":566:569   */\n      dup4\n        /* \"#utility.yul\":507:573   */\n      tag_25\n      jump\t// in\n    tag_38:\n        /* \"#utility.yul\":500:573   */\n      swap2\n      pop\n        /* \"#utility.yul\":582:675   */\n      tag_39\n        /* \"#utility.yul\":671:674   */\n      dup3\n        /* \"#utility.yul\":582:675   */\n      tag_26\n      jump\t// in\n    tag_39:\n        /* \"#utility.yul\":700:702   */\n      0x20\n        /* \"#utility.yul\":695:698   */\n      dup3\n        /* \"#utility.yul\":691:703   */\n      add\n        /* \"#utility.yul\":684:703   */\n      swap1\n      pop\n        /* \"#utility.yul\":344:709   */\n      swap2\n      swap1\n      pop\n      jump\t// out\n        /* \"#utility.yul\":715:1134   */\n    tag_11:\n        /* \"#utility.yul\":881:885   */\n      0x00\n        /* \"#utility.yul\":919:921   */\n      0x20\n        /* \"#utility.yul\":908:917   */\n      dup3\n        /* \"#utility.yul\":904:922   */\n      add\n        /* \"#utility.yul\":896:922   */\n      swap1\n      pop\n        /* \"#utility.yul\":968:977   */\n      dup2\n        /* \"#utility.yul\":962:966   */\n      dup2\n        /* \"#utility.yul\":958:978   */\n      sub\n        /* \"#utility.yul\":954:955   */\n      0x00\n        /* \"#utility.yul\":943:952   */\n      dup4\n        /* \"#utility.yul\":939:956   */\n      add\n        /* \"#utility.yul\":932:979   */\n      mstore\n        /* \"#utility.yul\":996:1127   */\n      tag_41\n        /* \"#utility.yul\":1122:1126   */\n      dup2\n        /* \"#utility.yul\":996:1127   */\n      tag_27\n      jump\t// in\n    tag_41:\n        /* \"#utility.yul\":988:1127   */\n      swap1\n      pop\n        /* \"#utility.yul\":715:1134   */\n      swap2\n      swap1\n      pop\n      jump\t// out\n        /* \"#utility.yul\":1140:1295   */\n    tag_28:\n        /* \"#utility.yul\":1280:1287   */\n      0x462e626172000000000000000000000000000000000000000000000000000000\n        /* \"#utility.yul\":1276:1277   */\n      0x00\n        /* \"#utility.yul\":1268:1274   */\n      dup3\n        /* \"#utility.yul\":1264:1278   */\n      add\n        /* \"#utility.yul\":1257:1288   */\n      mstore\n        /* \"#utility.yul\":1140:1295   */\n      pop\n      jump\t// out\n        /* \"#utility.yul\":1301:1666   */\n    tag_29:\n        /* \"#utility.yul\":1443:1446   */\n      0x00\n        /* \"#utility.yul\":1464:1530   */\n      tag_44\n        /* \"#utility.yul\":1528:1529   */\n      0x05\n        /* \"#utility.yul\":1523:1526   */\n      dup4\n        /* \"#utility.yul\":1464:1530   */\n      tag_25\n      jump\t// in\n    tag_44:\n        /* \"#utility.yul\":1457:1530   */\n      swap2\n      pop\n        /* \"#utility.yul\":1539:1632   */\n      tag_45\n        /* \"#utility.yul\":1628:1631   */\n      dup3\n        /* \"#utility.yul\":1539:1632   */\n      tag_28\n      jump\t// in\n    tag_45:\n        /* \"#utility.yul\":1657:1659   */\n      0x20\n        /* \"#utility.yul\":1652:1655   */\n      dup3\n        /* \"#utility.yul\":1648:1660   */\n      add\n        /* \"#utility.yul\":1641:1660   */\n      swap1\n      pop\n        /* \"#utility.yul\":1301:1666   */\n      swap2\n      swap1\n      pop\n      jump\t// out\n        /* \"#utility.yul\":1672:2091   */\n    tag_16:\n        /* \"#utility.yul\":1838:1842   */\n      0x00\n        /* \"#utility.yul\":1876:1878   */\n      0x20\n        /* \"#utility.yul\":1865:1874   */\n      dup3\n        /* \"#utility.yul\":1861:1879   */\n      add\n        /* \"#utility.yul\":1853:1879   */\n      swap1\n      pop\n        /* \"#utility.yul\":1925:1934   */\n      dup2\n        /* \"#utility.yul\":1919:1923   */\n      dup2\n        /* \"#utility.yul\":1915:1935   */\n      sub\n        /* \"#utility.yul\":1911:1912   */\n      0x00\n        /* \"#utility.yul\":1900:1909   */\n      dup4\n        /* \"#utility.yul\":1896:1913   */\n      add\n        /* \"#utility.yul\":1889:1936   */\n      mstore\n        /* \"#utility.yul\":1953:2084   */\n      tag_47\n        /* \"#utility.yul\":2079:2083   */\n      dup2\n        /* \"#utility.yul\":1953:2084   */\n      tag_29\n      jump\t// in\n    tag_47:\n        /* \"#utility.yul\":1945:2084   */\n      swap1\n      pop\n        /* \"#utility.yul\":1672:2091   */\n      swap2\n      swap1\n      pop\n      jump\t// out\n        /* \"#utility.yul\":2097:2253   */\n    tag_30:\n        /* \"#utility.yul\":2237:2245   */\n      0x452e20666f6f0000000000000000000000000000000000000000000000000000\n        /* \"#utility.yul\":2233:2234   */\n      0x00\n        /* \"#utility.yul\":2225:2231   */\n      dup3\n        /* \"#utility.yul\":2221:2235   */\n      add\n        /* \"#utility.yul\":2214:2246   */\n      mstore\n        /* \"#utility.yul\":2097:2253   */\n      pop\n      jump\t// out\n        /* \"#utility.yul\":2259:2624   */\n    tag_31:\n        /* \"#utility.yul\":2401:2404   */\n      0x00\n        /* \"#utility.yul\":2422:2488   */\n      tag_50\n        /* \"#utility.yul\":2486:2487   */\n      0x06\n        /* \"#utility.yul\":2481:2484   */\n      dup4\n        /* \"#utility.yul\":2422:2488   */\n      tag_25\n      jump\t// in\n    tag_50:\n        /* \"#utility.yul\":2415:2488   */\n      swap2\n      pop\n        /* \"#utility.yul\":2497:2590   */\n      tag_51\n        /* \"#utility.yul\":2586:2589   */\n      dup3\n        /* \"#utility.yul\":2497:2590   */\n      tag_30\n      jump\t// in\n    tag_51:\n        /* \"#utility.yul\":2615:2617   */\n      0x20\n        /* \"#utility.yul\":2610:2613   */\n      dup3\n        /* \"#utility.yul\":2606:2618   */\n      add\n        /* \"#utility.yul\":2599:2618   */\n      swap1\n      pop\n        /* \"#utility.yul\":2259:2624   */\n      swap2\n      swap1\n      pop\n      jump\t// out\n        /* \"#utility.yul\":2630:3049   */\n    tag_21:\n        /* \"#utility.yul\":2796:2800   */\n      0x00\n        /* \"#utility.yul\":2834:2836   */\n      0x20\n        /* \"#utility.yul\":2823:2832   */\n      dup3\n        /* \"#utility.yul\":2819:2837   */\n      add\n        /* \"#utility.yul\":2811:2837   */\n      swap1\n      pop\n        /* \"#utility.yul\":2883:2892   */\n      dup2\n        /* \"#utility.yul\":2877:2881   */\n      dup2\n        /* \"#utility.yul\":2873:2893   */\n      sub\n        /* \"#utility.yul\":2869:2870   */\n      0x00\n        /* \"#utility.yul\":2858:2867   */\n      dup4\n        /* \"#utility.yul\":2854:2871   */\n      add\n        /* \"#utility.yul\":2847:2894   */\n      mstore\n        /* \"#utility.yul\":2911:3042   */\n      tag_53\n        /* \"#utility.yul\":3037:3041   */\n      dup2\n        /* \"#utility.yul\":2911:3042   */\n      tag_31\n      jump\t// in\n    tag_53:\n        /* \"#utility.yul\":2903:3042   */\n      swap1\n      pop\n        /* \"#utility.yul\":2630:3049   */\n      swap2\n      swap1\n      pop\n      jump\t// out\n        /* \"#utility.yul\":3055:3210   */\n    tag_32:\n        /* \"#utility.yul\":3195:3202   */\n      0x452e626172000000000000000000000000000000000000000000000000000000\n        /* \"#utility.yul\":3191:3192   */\n      0x00\n        /* \"#utility.yul\":3183:3189   */\n      dup3\n        /* \"#utility.yul\":3179:3193   */\n      add\n        /* \"#utility.yul\":3172:3203   */\n      mstore\n        /* \"#utility.yul\":3055:3210   */\n      pop\n      jump\t// out\n        /* \"#utility.yul\":3216:3581   */\n    tag_33:\n        /* \"#utility.yul\":3358:3361   */\n      0x00\n        /* \"#utility.yul\":3379:3445   */\n      tag_56\n        /* \"#utility.yul\":3443:3444   */\n      0x05\n        /* \"#utility.yul\":3438:3441   */\n      dup4\n        /* \"#utility.yul\":3379:3445   */\n      tag_25\n      jump\t// in\n    tag_56:\n        /* \"#utility.yul\":3372:3445   */\n      swap2\n      pop\n        /* \"#utility.yul\":3454:3547   */\n      tag_57\n        /* \"#utility.yul\":3543:3546   */\n      dup3\n        /* \"#utility.yul\":3454:3547   */\n      tag_32\n      jump\t// in\n    tag_57:\n        /* \"#utility.yul\":3572:3574   */\n      0x20\n        /* \"#utility.yul\":3567:3570   */\n      dup3\n        /* \"#utility.yul\":3563:3575   */\n      add\n        /* \"#utility.yul\":3556:3575   */\n      swap1\n      pop\n        /* \"#utility.yul\":3216:3581   */\n      swap2\n      swap1\n      pop\n      jump\t// out\n        /* \"#utility.yul\":3587:4006   */\n    tag_24:\n        /* \"#utility.yul\":3753:3757   */\n      0x00\n        /* \"#utility.yul\":3791:3793   */\n      0x20\n        /* \"#utility.yul\":3780:3789   */\n      dup3\n        /* \"#utility.yul\":3776:3794   */\n      add\n        /* \"#utility.yul\":3768:3794   */\n      swap1\n      pop\n        /* \"#utility.yul\":3840:3849   */\n      dup2\n        /* \"#utility.yul\":3834:3838   */\n      dup2\n        /* \"#utility.yul\":3830:3850   */\n      sub\n        /* \"#utility.yul\":3826:3827   */\n      0x00\n        /* \"#utility.yul\":3815:3824   */\n      dup4\n        /* \"#utility.yul\":3811:3828   */\n      add\n        /* \"#utility.yul\":3804:3851   */\n      mstore\n        /* \"#utility.yul\":3868:3999   */\n      tag_59\n        /* \"#utility.yul\":3994:3998   */\n      dup2\n        /* \"#utility.yul\":3868:3999   */\n      tag_33\n      jump\t// in\n    tag_59:\n        /* \"#utility.yul\":3860:3999   */\n      swap1\n      pop\n        /* \"#utility.yul\":3587:4006   */\n      swap2\n      swap1\n      pop\n      jump\t// out\n\n    auxdata: 0xa26469706673582212203ae369783490e35c8848618c00509db51afe34247f0375bb75cf576bd38531ee64736f6c63430008120033\n}\n",
				"bytecode": {
					"linkReferences": {},
					"object": "608060405234801561001057600080fd5b50610332806100206000396000f3fe608060405234801561001057600080fd5b50600436106100365760003560e01c8063c29855781461003b578063febb0f7e14610045575b600080fd5b61004361004f565b005b61004d61008e565b005b7fcf34ef537ac33ee1ac626ca1587a0a7e8e51561e5514f8cb36afa1c5102b3bab60405161007c90610198565b60405180910390a161008c6100cd565b565b7fcf34ef537ac33ee1ac626ca1587a0a7e8e51561e5514f8cb36afa1c5102b3bab6040516100bb90610204565b60405180910390a16100cb610104565b565b7fcf34ef537ac33ee1ac626ca1587a0a7e8e51561e5514f8cb36afa1c5102b3bab6040516100fa90610270565b60405180910390a1565b7fcf34ef537ac33ee1ac626ca1587a0a7e8e51561e5514f8cb36afa1c5102b3bab604051610131906102dc565b60405180910390a1565b600082825260208201905092915050565b7f462e20666f6f0000000000000000000000000000000000000000000000000000600082015250565b600061018260068361013b565b915061018d8261014c565b602082019050919050565b600060208201905081810360008301526101b181610175565b9050919050565b7f462e626172000000000000000000000000000000000000000000000000000000600082015250565b60006101ee60058361013b565b91506101f9826101b8565b602082019050919050565b6000602082019050818103600083015261021d816101e1565b9050919050565b7f452e20666f6f0000000000000000000000000000000000000000000000000000600082015250565b600061025a60068361013b565b915061026582610224565b602082019050919050565b600060208201905081810360008301526102898161024d565b9050919050565b7f452e626172000000000000000000000000000000000000000000000000000000600082015250565b60006102c660058361013b565b91506102d182610290565b602082019050919050565b600060208201905081810360008301526102f5816102b9565b905091905056fea26469706673582212203ae369783490e35c8848618c00509db51afe34247f0375bb75cf576bd38531ee64736f6c63430008120033",
					"opcodes": "PUSH1 0x80 PUSH1 0x40 MSTORE CALLVALUE DUP1 ISZERO PUSH2 0x10 JUMPI PUSH1 0x0 DUP1 REVERT JUMPDEST POP PUSH2 0x332 DUP1 PUSH2 0x20 PUSH1 0x0 CODECOPY PUSH1 0x0 RETURN INVALID PUSH1 0x80 PUSH1 0x40 MSTORE CALLVALUE DUP1 ISZERO PUSH2 0x10 JUMPI PUSH1 0x0 DUP1 REVERT JUMPDEST POP PUSH1 0x4 CALLDATASIZE LT PUSH2 0x36 JUMPI PUSH1 0x0 CALLDATALOAD PUSH1 0xE0 SHR DUP1 PUSH4 0xC2985578 EQ PUSH2 0x3B JUMPI DUP1 PUSH4 0xFEBB0F7E EQ PUSH2 0x45 JUMPI JUMPDEST PUSH1 0x0 DUP1 REVERT JUMPDEST PUSH2 0x43 PUSH2 0x4F JUMP JUMPDEST STOP JUMPDEST PUSH2 0x4D PUSH2 0x8E JUMP JUMPDEST STOP JUMPDEST PUSH32 0xCF34EF537AC33EE1AC626CA1587A0A7E8E51561E5514F8CB36AFA1C5102B3BAB PUSH1 0x40 MLOAD PUSH2 0x7C SWAP1 PUSH2 0x198 JUMP JUMPDEST PUSH1 0x40 MLOAD DUP1 SWAP2 SUB SWAP1 LOG1 PUSH2 0x8C PUSH2 0xCD JUMP JUMPDEST JUMP JUMPDEST PUSH32 0xCF34EF537AC33EE1AC626CA1587A0A7E8E51561E5514F8CB36AFA1C5102B3BAB PUSH1 0x40 MLOAD PUSH2 0xBB SWAP1 PUSH2 0x204 JUMP JUMPDEST PUSH1 0x40 MLOAD DUP1 SWAP2 SUB SWAP1 LOG1 PUSH2 0xCB PUSH2 0x104 JUMP JUMPDEST JUMP JUMPDEST PUSH32 0xCF34EF537AC33EE1AC626CA1587A0A7E8E51561E5514F8CB36AFA1C5102B3BAB PUSH1 0x40 MLOAD PUSH2 0xFA SWAP1 PUSH2 0x270 JUMP JUMPDEST PUSH1 0x40 MLOAD DUP1 SWAP2 SUB SWAP1 LOG1 JUMP JUMPDEST PUSH32 0xCF34EF537AC33EE1AC626CA1587A0A7E8E51561E5514F8CB36AFA1C5102B3BAB PUSH1 0x40 MLOAD PUSH2 0x131 SWAP1 PUSH2 0x2DC JUMP JUMPDEST PUSH1 0x40 MLOAD DUP1 SWAP2 SUB SWAP1 LOG1 JUMP JUMPDEST PUSH1 0x0 DUP3 DUP3 MSTORE PUSH1 0x20 DUP3 ADD SWAP1 POP SWAP3 SWAP2 POP POP JUMP JUMPDEST PUSH32 0x462E20666F6F0000000000000000000000000000000000000000000000000000 PUSH1 0x0 DUP3 ADD MSTORE POP JUMP JUMPDEST PUSH1 0x0 PUSH2 0x182 PUSH1 0x6 DUP4 PUSH2 0x13B JUMP JUMPDEST SWAP2 POP PUSH2 0x18D DUP3 PUSH2 0x14C JUMP JUMPDEST PUSH1 0x20 DUP3 ADD SWAP1 POP SWAP2 SWAP1 POP JUMP JUMPDEST PUSH1 0x0 PUSH1 0x20 DUP3 ADD SWAP1 POP DUP2 DUP2 SUB PUSH1 0x0 DUP4 ADD MSTORE PUSH2 0x1B1 DUP2 PUSH2 0x175 JUMP JUMPDEST SWAP1 POP SWAP2 SWAP1 POP JUMP JUMPDEST PUSH32 0x462E626172000000000000000000000000000000000000000000000000000000 PUSH1 0x0 DUP3 ADD MSTORE POP JUMP JUMPDEST PUSH1 0x0 PUSH2 0x1EE PUSH1 0x5 DUP4 PUSH2 0x13B JUMP JUMPDEST SWAP2 POP PUSH2 0x1F9 DUP3 PUSH2 0x1B8 JUMP JUMPDEST PUSH1 0x20 DUP3 ADD SWAP1 POP SWAP2 SWAP1 POP JUMP JUMPDEST PUSH1 0x0 PUSH1 0x20 DUP3 ADD SWAP1 POP DUP2 DUP2 SUB PUSH1 0x0 DUP4 ADD MSTORE PUSH2 0x21D DUP2 PUSH2 0x1E1 JUMP JUMPDEST SWAP1 POP SWAP2 SWAP1 POP JUMP JUMPDEST PUSH32 0x452E20666F6F0000000000000000000000000000000000000000000000000000 PUSH1 0x0 DUP3 ADD MSTORE POP JUMP JUMPDEST PUSH1 0x0 PUSH2 0x25A PUSH1 0x6 DUP4 PUSH2 0x13B JUMP JUMPDEST SWAP2 POP PUSH2 0x265 DUP3 PUSH2 0x224 JUMP JUMPDEST PUSH1 0x20 DUP3 ADD SWAP1 POP SWAP2 SWAP1 POP JUMP JUMPDEST PUSH1 0x0 PUSH1 0x20 DUP3 ADD SWAP1 POP DUP2 DUP2 SUB PUSH1 0x0 DUP4 ADD MSTORE PUSH2 0x289 DUP2 PUSH2 0x24D JUMP JUMPDEST SWAP1 POP SWAP2 SWAP1 POP JUMP JUMPDEST PUSH32 0x452E626172000000000000000000000000000000000000000000000000000000 PUSH1 0x0 DUP3 ADD MSTORE POP JUMP JUMPDEST PUSH1 0x0 PUSH2 0x2C6 PUSH1 0x5 DUP4 PUSH2 0x13B JUMP JUMPDEST SWAP2 POP PUSH2 0x2D1 DUP3 PUSH2 0x290 JUMP JUMPDEST PUSH1 0x20 DUP3 ADD SWAP1 POP SWAP2 SWAP1 POP JUMP JUMPDEST PUSH1 0x0 PUSH1 0x20 DUP3 ADD SWAP1 POP DUP2 DUP2 SUB PUSH1 0x0 DUP4 ADD MSTORE PUSH2 0x2F5 DUP2 PUSH2 0x2B9 JUMP JUMPDEST SWAP1 POP SWAP2 SWAP1 POP JUMP INVALID LOG2 PUSH5 0x6970667358 0x22 SLT KECCAK256 GASPRICE 0xE3 PUSH10 0x783490E35C8848618C00 POP SWAP14 0xB5 BYTE INVALID CALLVALUE 0x24 PUSH32 0x375BB75CF576BD38531EE64736F6C6343000812003300000000000000000000 "
				},
				"gasEstimates": {
					"creation": {
						"codeDepositCost": "163600",
						"executionCost": "208",
						"totalCost": "163808"
					},
					"external": {
						"bar()": "infinite",
						"foo()": "infinite"
					}
				},
				"methodIdentifiers": {
					"bar()": "febb0f7e",
					"foo()": "c2985578"
				}
			},
			"storageLayout": {
				"storage": [],
				"types": null
			},
			"userdoc": {
				"kind": "user",
				"methods": {},
				"version": 1
			}
		}
	}
}