{
	"Day03/3_global_variables.sol": {
		"Variables": {
			"abi": [
				{
					"inputs": [],
					"stateMutability": "nonpayable",
					"type": "constructor"
				},
				{
					"inputs": [],
					"name": "duration",
					"outputs": [
						{
							"internalType": "uint256",
							"name": "",
							"type": "uint256"
						}
					],
					"stateMutability": "view",
					"type": "function"
				},
				{
					"inputs": [],
					"name": "last_claimed",
					"outputs": [
						{
							"internalType": "uint256",
							"name": "",
							"type": "uint256"
						}
					],
					"stateMutability": "view",
					"type": "function"
				},
				{
					"inputs": [],
					"name": "send_ether_from_faucet",
					"outputs": [],
					"stateMutability": "nonpayable",
					"type": "function"
				},
				{
					"inputs": [],
					"name": "time_left",
					"outputs": [
						{
							"internalType": "uint256",
							"name": "",
							"type": "uint256"
						}
					],
					"stateMutability": "view",
					"type": "function"
				}
			],
			"devdoc": {
				"kind": "dev",
				"methods": {},
				"version": 1
			},
			"evm": {
				"assembly": "    /* \"Day03/3_global_variables.sol\":58:625  contract Variables {... */\n  mstore(0x40, 0x80)\n    /* \"Day03/3_global_variables.sol\":136:138  60 */\n  0x3c\n    /* \"Day03/3_global_variables.sol\":113:138  uint public duration = 60 */\n  0x01\n  sstore\n    /* \"Day03/3_global_variables.sol\":145:205  constructor(){... */\n  callvalue\n  dup1\n  iszero\n  tag_1\n  jumpi\n  0x00\n  dup1\n  revert\ntag_1:\n  pop\n    /* \"Day03/3_global_variables.sol\":183:198  block.timestamp */\n  timestamp\n    /* \"Day03/3_global_variables.sol\":168:180  last_claimed */\n  0x00\n    /* \"Day03/3_global_variables.sol\":168:198  last_claimed = block.timestamp */\n  dup2\n  swap1\n  sstore\n  pop\n    /* \"Day03/3_global_variables.sol\":58:625  contract Variables {... */\n  dataSize(sub_0)\n  dup1\n  dataOffset(sub_0)\n  0x00\n  codecopy\n  0x00\n  return\nstop\n\nsub_0: assembly {\n        /* \"Day03/3_global_variables.sol\":58:625  contract Variables {... */\n      mstore(0x40, 0x80)\n      callvalue\n      dup1\n      iszero\n      tag_1\n      jumpi\n      0x00\n      dup1\n      revert\n    tag_1:\n      pop\n      jumpi(tag_2, lt(calldatasize, 0x04))\n      shr(0xe0, calldataload(0x00))\n      dup1\n      0x0fb5a6b4\n      eq\n      tag_3\n      jumpi\n      dup1\n      0x2ec39eed\n      eq\n      tag_4\n      jumpi\n      dup1\n      0x9c04c988\n      eq\n      tag_5\n      jumpi\n      dup1\n      0xa3d56943\n      eq\n      tag_6\n      jumpi\n    tag_2:\n      0x00\n      dup1\n      revert\n        /* \"Day03/3_global_variables.sol\":113:138  uint public duration = 60 */\n    tag_3:\n      tag_7\n      tag_8\n      jump\t// in\n    tag_7:\n      mload(0x40)\n      tag_9\n      swap2\n      swap1\n      tag_10\n      jump\t// in\n    tag_9:\n      mload(0x40)\n      dup1\n      swap2\n      sub\n      swap1\n      return\n        /* \"Day03/3_global_variables.sol\":212:409  function  send_ether_from_faucet() public {... */\n    tag_4:\n      tag_11\n      tag_12\n      jump\t// in\n    tag_11:\n      stop\n        /* \"Day03/3_global_variables.sol\":83:107  uint public last_claimed */\n    tag_5:\n      tag_13\n      tag_14\n      jump\t// in\n    tag_13:\n      mload(0x40)\n      tag_15\n      swap2\n      swap1\n      tag_10\n      jump\t// in\n    tag_15:\n      mload(0x40)\n      dup1\n      swap2\n      sub\n      swap1\n      return\n        /* \"Day03/3_global_variables.sol\":419:621  function  time_left() public view returns (uint){... */\n    tag_6:\n      tag_16\n      tag_17\n      jump\t// in\n    tag_16:\n      mload(0x40)\n      tag_18\n      swap2\n      swap1\n      tag_10\n      jump\t// in\n    tag_18:\n      mload(0x40)\n      dup1\n      swap2\n      sub\n      swap1\n      return\n        /* \"Day03/3_global_variables.sol\":113:138  uint public duration = 60 */\n    tag_8:\n      sload(0x01)\n      dup2\n      jump\t// out\n        /* \"Day03/3_global_variables.sol\":212:409  function  send_ether_from_faucet() public {... */\n    tag_12:\n        /* \"Day03/3_global_variables.sol\":264:277  uint now_time */\n      0x00\n        /* \"Day03/3_global_variables.sol\":280:295  block.timestamp */\n      timestamp\n        /* \"Day03/3_global_variables.sol\":264:295  uint now_time = block.timestamp */\n      swap1\n      pop\n        /* \"Day03/3_global_variables.sol\":337:345  duration */\n      sload(0x01)\n        /* \"Day03/3_global_variables.sol\":324:336  last_claimed */\n      sload(0x00)\n        /* \"Day03/3_global_variables.sol\":324:345  last_claimed+duration */\n      tag_20\n      swap2\n      swap1\n      tag_21\n      jump\t// in\n    tag_20:\n        /* \"Day03/3_global_variables.sol\":313:321  now_time */\n      dup2\n        /* \"Day03/3_global_variables.sol\":313:345  now_time > last_claimed+duration */\n      gt\n        /* \"Day03/3_global_variables.sol\":305:346  require(now_time > last_claimed+duration) */\n      tag_22\n      jumpi\n      0x00\n      dup1\n      revert\n    tag_22:\n        /* \"Day03/3_global_variables.sol\":371:379  now_time */\n      dup1\n        /* \"Day03/3_global_variables.sol\":356:368  last_claimed */\n      0x00\n        /* \"Day03/3_global_variables.sol\":356:379  last_claimed = now_time */\n      dup2\n      swap1\n      sstore\n      pop\n        /* \"Day03/3_global_variables.sol\":254:409  {... */\n      pop\n        /* \"Day03/3_global_variables.sol\":212:409  function  send_ether_from_faucet() public {... */\n      jump\t// out\n        /* \"Day03/3_global_variables.sol\":83:107  uint public last_claimed */\n    tag_14:\n      sload(0x00)\n      dup2\n      jump\t// out\n        /* \"Day03/3_global_variables.sol\":419:621  function  time_left() public view returns (uint){... */\n    tag_17:\n        /* \"Day03/3_global_variables.sol\":462:466  uint */\n      0x00\n        /* \"Day03/3_global_variables.sol\":477:490  uint now_time */\n      dup1\n        /* \"Day03/3_global_variables.sol\":493:508  block.timestamp */\n      timestamp\n        /* \"Day03/3_global_variables.sol\":477:508  uint now_time = block.timestamp */\n      swap1\n      pop\n        /* \"Day03/3_global_variables.sol\":518:529  uint t_left */\n      0x00\n        /* \"Day03/3_global_variables.sol\":543:555  last_claimed */\n      dup1\n      sload\n        /* \"Day03/3_global_variables.sol\":532:540  now_time */\n      dup3\n        /* \"Day03/3_global_variables.sol\":532:555  now_time - last_claimed */\n      tag_24\n      swap2\n      swap1\n      tag_25\n      jump\t// in\n    tag_24:\n        /* \"Day03/3_global_variables.sol\":518:555  uint t_left = now_time - last_claimed */\n      swap1\n      pop\n        /* \"Day03/3_global_variables.sol\":607:613  t_left */\n      dup1\n        /* \"Day03/3_global_variables.sol\":596:604  duration */\n      sload(0x01)\n        /* \"Day03/3_global_variables.sol\":596:613  duration - t_left */\n      tag_26\n      swap2\n      swap1\n      tag_25\n      jump\t// in\n    tag_26:\n        /* \"Day03/3_global_variables.sol\":589:613  return duration - t_left */\n      swap3\n      pop\n      pop\n      pop\n        /* \"Day03/3_global_variables.sol\":419:621  function  time_left() public view returns (uint){... */\n      swap1\n      jump\t// out\n        /* \"#utility.yul\":7:84   */\n    tag_27:\n        /* \"#utility.yul\":44:51   */\n      0x00\n        /* \"#utility.yul\":73:78   */\n      dup2\n        /* \"#utility.yul\":62:78   */\n      swap1\n      pop\n        /* \"#utility.yul\":7:84   */\n      swap2\n      swap1\n      pop\n      jump\t// out\n        /* \"#utility.yul\":90:208   */\n    tag_28:\n        /* \"#utility.yul\":177:201   */\n      tag_33\n        /* \"#utility.yul\":195:200   */\n      dup2\n        /* \"#utility.yul\":177:201   */\n      tag_27\n      jump\t// in\n    tag_33:\n        /* \"#utility.yul\":172:175   */\n      dup3\n        /* \"#utility.yul\":165:202   */\n      mstore\n        /* \"#utility.yul\":90:208   */\n      pop\n      pop\n      jump\t// out\n        /* \"#utility.yul\":214:436   */\n    tag_10:\n        /* \"#utility.yul\":307:311   */\n      0x00\n        /* \"#utility.yul\":345:347   */\n      0x20\n        /* \"#utility.yul\":334:343   */\n      dup3\n        /* \"#utility.yul\":330:348   */\n      add\n        /* \"#utility.yul\":322:348   */\n      swap1\n      pop\n        /* \"#utility.yul\":358:429   */\n      tag_35\n        /* \"#utility.yul\":426:427   */\n      0x00\n        /* \"#utility.yul\":415:424   */\n      dup4\n        /* \"#utility.yul\":411:428   */\n      add\n        /* \"#utility.yul\":402:408   */\n      dup5\n        /* \"#utility.yul\":358:429   */\n      tag_28\n      jump\t// in\n    tag_35:\n        /* \"#utility.yul\":214:436   */\n      swap3\n      swap2\n      pop\n      pop\n      jump\t// out\n        /* \"#utility.yul\":442:622   */\n    tag_29:\n        /* \"#utility.yul\":490:567   */\n      0x4e487b7100000000000000000000000000000000000000000000000000000000\n        /* \"#utility.yul\":487:488   */\n      0x00\n        /* \"#utility.yul\":480:568   */\n      mstore\n        /* \"#utility.yul\":587:591   */\n      0x11\n        /* \"#utility.yul\":584:585   */\n      0x04\n        /* \"#utility.yul\":577:592   */\n      mstore\n        /* \"#utility.yul\":611:615   */\n      0x24\n        /* \"#utility.yul\":608:609   */\n      0x00\n        /* \"#utility.yul\":601:616   */\n      revert\n        /* \"#utility.yul\":628:819   */\n    tag_21:\n        /* \"#utility.yul\":668:671   */\n      0x00\n        /* \"#utility.yul\":687:707   */\n      tag_38\n        /* \"#utility.yul\":705:706   */\n      dup3\n        /* \"#utility.yul\":687:707   */\n      tag_27\n      jump\t// in\n    tag_38:\n        /* \"#utility.yul\":682:707   */\n      swap2\n      pop\n        /* \"#utility.yul\":721:741   */\n      tag_39\n        /* \"#utility.yul\":739:740   */\n      dup4\n        /* \"#utility.yul\":721:741   */\n      tag_27\n      jump\t// in\n    tag_39:\n        /* \"#utility.yul\":716:741   */\n      swap3\n      pop\n        /* \"#utility.yul\":764:765   */\n      dup3\n        /* \"#utility.yul\":761:762   */\n      dup3\n        /* \"#utility.yul\":757:766   */\n      add\n        /* \"#utility.yul\":750:766   */\n      swap1\n      pop\n        /* \"#utility.yul\":785:788   */\n      dup1\n        /* \"#utility.yul\":782:783   */\n      dup3\n        /* \"#utility.yul\":779:789   */\n      gt\n        /* \"#utility.yul\":776:812   */\n      iszero\n      tag_40\n      jumpi\n        /* \"#utility.yul\":792:810   */\n      tag_41\n      tag_29\n      jump\t// in\n    tag_41:\n        /* \"#utility.yul\":776:812   */\n    tag_40:\n        /* \"#utility.yul\":628:819   */\n      swap3\n      swap2\n      pop\n      pop\n      jump\t// out\n        /* \"#utility.yul\":825:1019   */\n    tag_25:\n        /* \"#utility.yul\":865:869   */\n      0x00\n        /* \"#utility.yul\":885:905   */\n      tag_43\n        /* \"#utility.yul\":903:904   */\n      dup3\n        /* \"#utility.yul\":885:905   */\n      tag_27\n      jump\t// in\n    tag_43:\n        /* \"#utility.yul\":880:905   */\n      swap2\n      pop\n        /* \"#utility.yul\":919:939   */\n      tag_44\n        /* \"#utility.yul\":937:938   */\n      dup4\n        /* \"#utility.yul\":919:939   */\n      tag_27\n      jump\t// in\n    tag_44:\n        /* \"#utility.yul\":914:939   */\n      swap3\n      pop\n        /* \"#utility.yul\":963:964   */\n      dup3\n        /* \"#utility.yul\":960:961   */\n      dup3\n        /* \"#utility.yul\":956:965   */\n      sub\n        /* \"#utility.yul\":948:965   */\n      swap1\n      pop\n        /* \"#utility.yul\":987:988   */\n      dup2\n        /* \"#utility.yul\":981:985   */\n      dup2\n        /* \"#utility.yul\":978:989   */\n      gt\n        /* \"#utility.yul\":975:1012   */\n      iszero\n      tag_45\n      jumpi\n        /* \"#utility.yul\":992:1010   */\n      tag_46\n      tag_29\n      jump\t// in\n    tag_46:\n        /* \"#utility.yul\":975:1012   */\n    tag_45:\n        /* \"#utility.yul\":825:1019   */\n      swap3\n      swap2\n      pop\n      pop\n      jump\t// out\n\n    auxdata: 0xa2646970667358221220a472cbbafc7f62a5024cf260c84179dc30bcd4ea2cbce2b1f1f2d12378ac4f2964736f6c63430008120033\n}\n",
				"bytecode": {
					"linkReferences": {},
					"object": "6080604052603c60015534801561001557600080fd5b50426000819055506102188061002c6000396000f3fe608060405234801561001057600080fd5b506004361061004c5760003560e01c80630fb5a6b4146100515780632ec39eed1461006f5780639c04c98814610079578063a3d5694314610097575b600080fd5b6100596100b5565b6040516100669190610130565b60405180910390f35b6100776100bb565b005b6100816100e5565b60405161008e9190610130565b60405180910390f35b61009f6100eb565b6040516100ac9190610130565b60405180910390f35b60015481565b60004290506001546000546100d0919061017a565b81116100db57600080fd5b8060008190555050565b60005481565b600080429050600080548261010091906101ae565b90508060015461011091906101ae565b9250505090565b6000819050919050565b61012a81610117565b82525050565b60006020820190506101456000830184610121565b92915050565b7f4e487b7100000000000000000000000000000000000000000000000000000000600052601160045260246000fd5b600061018582610117565b915061019083610117565b92508282019050808211156101a8576101a761014b565b5b92915050565b60006101b982610117565b91506101c483610117565b92508282039050818111156101dc576101db61014b565b5b9291505056fea2646970667358221220a472cbbafc7f62a5024cf260c84179dc30bcd4ea2cbce2b1f1f2d12378ac4f2964736f6c63430008120033",
					"opcodes": "PUSH1 0x80 PUSH1 0x40 MSTORE PUSH1 0x3C PUSH1 0x1 SSTORE CALLVALUE DUP1 ISZERO PUSH2 0x15 JUMPI PUSH1 0x0 DUP1 REVERT JUMPDEST POP TIMESTAMP PUSH1 0x0 DUP2 SWAP1 SSTORE POP PUSH2 0x218 DUP1 PUSH2 0x2C PUSH1 0x0 CODECOPY PUSH1 0x0 RETURN INVALID PUSH1 0x80 PUSH1 0x40 MSTORE CALLVALUE DUP1 ISZERO PUSH2 0x10 JUMPI PUSH1 0x0 DUP1 REVERT JUMPDEST POP PUSH1 0x4 CALLDATASIZE LT PUSH2 0x4C JUMPI PUSH1 0x0 CALLDATALOAD PUSH1 0xE0 SHR DUP1 PUSH4 0xFB5A6B4 EQ PUSH2 0x51 JUMPI DUP1 PUSH4 0x2EC39EED EQ PUSH2 0x6F JUMPI DUP1 PUSH4 0x9C04C988 EQ PUSH2 0x79 JUMPI DUP1 PUSH4 0xA3D56943 EQ PUSH2 0x97 JUMPI JUMPDEST PUSH1 0x0 DUP1 REVERT JUMPDEST PUSH2 0x59 PUSH2 0xB5 JUMP JUMPDEST PUSH1 0x40 MLOAD PUSH2 0x66 SWAP2 SWAP1 PUSH2 0x130 JUMP JUMPDEST PUSH1 0x40 MLOAD DUP1 SWAP2 SUB SWAP1 RETURN JUMPDEST PUSH2 0x77 PUSH2 0xBB JUMP JUMPDEST STOP JUMPDEST PUSH2 0x81 PUSH2 0xE5 JUMP JUMPDEST PUSH1 0x40 MLOAD PUSH2 0x8E SWAP2 SWAP1 PUSH2 0x130 JUMP JUMPDEST PUSH1 0x40 MLOAD DUP1 SWAP2 SUB SWAP1 RETURN JUMPDEST PUSH2 0x9F PUSH2 0xEB JUMP JUMPDEST PUSH1 0x40 MLOAD PUSH2 0xAC SWAP2 SWAP1 PUSH2 0x130 JUMP JUMPDEST PUSH1 0x40 MLOAD DUP1 SWAP2 SUB SWAP1 RETURN JUMPDEST PUSH1 0x1 SLOAD DUP2 JUMP JUMPDEST PUSH1 0x0 TIMESTAMP SWAP1 POP PUSH1 0x1 SLOAD PUSH1 0x0 SLOAD PUSH2 0xD0 SWAP2 SWAP1 PUSH2 0x17A JUMP JUMPDEST DUP2 GT PUSH2 0xDB JUMPI PUSH1 0x0 DUP1 REVERT JUMPDEST DUP1 PUSH1 0x0 DUP2 SWAP1 SSTORE POP POP JUMP JUMPDEST PUSH1 0x0 SLOAD DUP2 JUMP JUMPDEST PUSH1 0x0 DUP1 TIMESTAMP SWAP1 POP PUSH1 0x0 DUP1 SLOAD DUP3 PUSH2 0x100 SWAP2 SWAP1 PUSH2 0x1AE JUMP JUMPDEST SWAP1 POP DUP1 PUSH1 0x1 SLOAD PUSH2 0x110 SWAP2 SWAP1 PUSH2 0x1AE JUMP JUMPDEST SWAP3 POP POP POP SWAP1 JUMP JUMPDEST PUSH1 0x0 DUP2 SWAP1 POP SWAP2 SWAP1 POP JUMP JUMPDEST PUSH2 0x12A DUP2 PUSH2 0x117 JUMP JUMPDEST DUP3 MSTORE POP POP JUMP JUMPDEST PUSH1 0x0 PUSH1 0x20 DUP3 ADD SWAP1 POP PUSH2 0x145 PUSH1 0x0 DUP4 ADD DUP5 PUSH2 0x121 JUMP JUMPDEST SWAP3 SWAP2 POP POP JUMP JUMPDEST PUSH32 0x4E487B7100000000000000000000000000000000000000000000000000000000 PUSH1 0x0 MSTORE PUSH1 0x11 PUSH1 0x4 MSTORE PUSH1 0x24 PUSH1 0x0 REVERT JUMPDEST PUSH1 0x0 PUSH2 0x185 DUP3 PUSH2 0x117 JUMP JUMPDEST SWAP2 POP PUSH2 0x190 DUP4 PUSH2 0x117 JUMP JUMPDEST SWAP3 POP DUP3 DUP3 ADD SWAP1 POP DUP1 DUP3 GT ISZERO PUSH2 0x1A8 JUMPI PUSH2 0x1A7 PUSH2 0x14B JUMP JUMPDEST JUMPDEST SWAP3 SWAP2 POP POP JUMP JUMPDEST PUSH1 0x0 PUSH2 0x1B9 DUP3 PUSH2 0x117 JUMP JUMPDEST SWAP2 POP PUSH2 0x1C4 DUP4 PUSH2 0x117 JUMP JUMPDEST SWAP3 POP DUP3 DUP3 SUB SWAP1 POP DUP2 DUP2 GT ISZERO PUSH2 0x1DC JUMPI PUSH2 0x1DB PUSH2 0x14B JUMP JUMPDEST JUMPDEST SWAP3 SWAP2 POP POP JUMP INVALID LOG2 PUSH5 0x6970667358 0x22 SLT KECCAK256 LOG4 PUSH19 0xCBBAFC7F62A5024CF260C84179DC30BCD4EA2C 0xBC 0xE2 0xB1 CALL CALLCODE 0xD1 0x23 PUSH25 0xAC4F2964736F6C634300081200330000000000000000000000 "
				},
				"gasEstimates": {
					"creation": {
						"codeDepositCost": "107200",
						"executionCost": "44372",
						"totalCost": "151572"
					},
					"external": {
						"duration()": "2407",
						"last_claimed()": "2451",
						"send_ether_from_faucet()": "infinite",
						"time_left()": "infinite"
					}
				},
				"methodIdentifiers": {
					"duration()": "0fb5a6b4",
					"last_claimed()": "9c04c988",
					"send_ether_from_faucet()": "2ec39eed",
					"time_left()": "a3d56943"
				}
			},
			"storageLayout": {
				"storage": [
					{
						"astId": 3,
						"contract": "Day03/3_global_variables.sol:Variables",
						"label": "last_claimed",
						"offset": 0,
						"slot": "0",
						"type": "t_uint256"
					},
					{
						"astId": 6,
						"contract": "Day03/3_global_variables.sol:Variables",
						"label": "duration",
						"offset": 0,
						"slot": "1",
						"type": "t_uint256"
					}
				],
				"types": {
					"t_uint256": {
						"encoding": "inplace",
						"label": "uint256",
						"numberOfBytes": "32"
					}
				}
			},
			"userdoc": {
				"kind": "user",
				"methods": {},
				"version": 1
			}
		}
	}
}