{
	"Day03/1_extra.sol": {
		"Variables": {
			"abi": [
				{
					"inputs": [],
					"name": "doSomething",
					"outputs": [
						{
							"internalType": "uint256",
							"name": "",
							"type": "uint256"
						}
					],
					"stateMutability": "view",
					"type": "function"
				},
				{
					"inputs": [],
					"name": "num",
					"outputs": [
						{
							"internalType": "uint8",
							"name": "",
							"type": "uint8"
						}
					],
					"stateMutability": "view",
					"type": "function"
				},
				{
					"inputs": [],
					"name": "num2",
					"outputs": [
						{
							"internalType": "uint8",
							"name": "",
							"type": "uint8"
						}
					],
					"stateMutability": "view",
					"type": "function"
				},
				{
					"inputs": [],
					"name": "num3",
					"outputs": [
						{
							"internalType": "uint8",
							"name": "",
							"type": "uint8"
						}
					],
					"stateMutability": "view",
					"type": "function"
				}
			],
			"devdoc": {
				"kind": "dev",
				"methods": {},
				"version": 1
			},
			"evm": {
				"assembly": "    /* \"Day03/1_extra.sol\":58:283  contract Variables {... */\n  mstore(0x40, 0x80)\n    /* \"Day03/1_extra.sol\":102:105  255 */\n  0xff\n    /* \"Day03/1_extra.sol\":83:105  uint8 public num = 255 */\n  0x00\n  dup1\n  0x0100\n  exp\n  dup2\n  sload\n  dup2\n  0xff\n  mul\n  not\n  and\n  swap1\n  dup4\n  0xff\n  and\n  mul\n  or\n  swap1\n  sstore\n  pop\n    /* \"Day03/1_extra.sol\":131:134  255 */\n  0xff\n    /* \"Day03/1_extra.sol\":111:134  uint8 public num2 = 255 */\n  0x00\n  exp(0x0100, 0x01)\n  dup2\n  sload\n  dup2\n  0xff\n  mul\n  not\n  and\n  swap1\n  dup4\n  0xff\n  and\n  mul\n  or\n  swap1\n  sstore\n  pop\n    /* \"Day03/1_extra.sol\":166:170  num2 */\n  0x00\n  0x01\n  swap1\n  sload\n  swap1\n  0x0100\n  exp\n  swap1\n  div\n  0xff\n  and\n    /* \"Day03/1_extra.sol\":160:163  num */\n  0x00\n  dup1\n  sload\n  swap1\n  0x0100\n  exp\n  swap1\n  div\n  0xff\n  and\n    /* \"Day03/1_extra.sol\":160:170  num + num2 */\n  tag_1\n  swap2\n  swap1\n  tag_2\n  jump\t// in\ntag_1:\n    /* \"Day03/1_extra.sol\":140:170  uint8 public num3 = num + num2 */\n  0x00\n  exp(0x0100, 0x02)\n  dup2\n  sload\n  dup2\n  0xff\n  mul\n  not\n  and\n  swap1\n  dup4\n  0xff\n  and\n  mul\n  or\n  swap1\n  sstore\n  pop\n    /* \"Day03/1_extra.sol\":58:283  contract Variables {... */\n  callvalue\n  dup1\n  iszero\n  tag_3\n  jumpi\n  0x00\n  dup1\n  revert\ntag_3:\n  pop\n  jump(tag_4)\n    /* \"#utility.yul\":7:93   */\ntag_5:\n    /* \"#utility.yul\":42:49   */\n  0x00\n    /* \"#utility.yul\":82:86   */\n  0xff\n    /* \"#utility.yul\":75:80   */\n  dup3\n    /* \"#utility.yul\":71:87   */\n  and\n    /* \"#utility.yul\":60:87   */\n  swap1\n  pop\n    /* \"#utility.yul\":7:93   */\n  swap2\n  swap1\n  pop\n  jump\t// out\n    /* \"#utility.yul\":99:279   */\ntag_6:\n    /* \"#utility.yul\":147:224   */\n  0x4e487b7100000000000000000000000000000000000000000000000000000000\n    /* \"#utility.yul\":144:145   */\n  0x00\n    /* \"#utility.yul\":137:225   */\n  mstore\n    /* \"#utility.yul\":244:248   */\n  0x11\n    /* \"#utility.yul\":241:242   */\n  0x04\n    /* \"#utility.yul\":234:249   */\n  mstore\n    /* \"#utility.yul\":268:272   */\n  0x24\n    /* \"#utility.yul\":265:266   */\n  0x00\n    /* \"#utility.yul\":258:273   */\n  revert\n    /* \"#utility.yul\":285:473   */\ntag_2:\n    /* \"#utility.yul\":323:326   */\n  0x00\n    /* \"#utility.yul\":342:360   */\n  tag_11\n    /* \"#utility.yul\":358:359   */\n  dup3\n    /* \"#utility.yul\":342:360   */\n  tag_5\n  jump\t// in\ntag_11:\n    /* \"#utility.yul\":337:360   */\n  swap2\n  pop\n    /* \"#utility.yul\":374:392   */\n  tag_12\n    /* \"#utility.yul\":390:391   */\n  dup4\n    /* \"#utility.yul\":374:392   */\n  tag_5\n  jump\t// in\ntag_12:\n    /* \"#utility.yul\":369:392   */\n  swap3\n  pop\n    /* \"#utility.yul\":415:416   */\n  dup3\n    /* \"#utility.yul\":412:413   */\n  dup3\n    /* \"#utility.yul\":408:417   */\n  add\n    /* \"#utility.yul\":401:417   */\n  swap1\n  pop\n    /* \"#utility.yul\":438:442   */\n  0xff\n    /* \"#utility.yul\":433:436   */\n  dup2\n    /* \"#utility.yul\":430:443   */\n  gt\n    /* \"#utility.yul\":427:466   */\n  iszero\n  tag_13\n  jumpi\n    /* \"#utility.yul\":446:464   */\n  tag_14\n  tag_6\n  jump\t// in\ntag_14:\n    /* \"#utility.yul\":427:466   */\ntag_13:\n    /* \"#utility.yul\":285:473   */\n  swap3\n  swap2\n  pop\n  pop\n  jump\t// out\n    /* \"Day03/1_extra.sol\":58:283  contract Variables {... */\ntag_4:\n  dataSize(sub_0)\n  dup1\n  dataOffset(sub_0)\n  0x00\n  codecopy\n  0x00\n  return\nstop\n\nsub_0: assembly {\n        /* \"Day03/1_extra.sol\":58:283  contract Variables {... */\n      mstore(0x40, 0x80)\n      callvalue\n      dup1\n      iszero\n      tag_1\n      jumpi\n      0x00\n      dup1\n      revert\n    tag_1:\n      pop\n      jumpi(tag_2, lt(calldatasize, 0x04))\n      shr(0xe0, calldataload(0x00))\n      dup1\n      0x15d4266c\n      eq\n      tag_3\n      jumpi\n      dup1\n      0x4e70b1dc\n      eq\n      tag_4\n      jumpi\n      dup1\n      0x82692679\n      eq\n      tag_5\n      jumpi\n      dup1\n      0xa531f36a\n      eq\n      tag_6\n      jumpi\n    tag_2:\n      0x00\n      dup1\n      revert\n        /* \"Day03/1_extra.sol\":111:134  uint8 public num2 = 255 */\n    tag_3:\n      tag_7\n      tag_8\n      jump\t// in\n    tag_7:\n      mload(0x40)\n      tag_9\n      swap2\n      swap1\n      tag_10\n      jump\t// in\n    tag_9:\n      mload(0x40)\n      dup1\n      swap2\n      sub\n      swap1\n      return\n        /* \"Day03/1_extra.sol\":83:105  uint8 public num = 255 */\n    tag_4:\n      tag_11\n      tag_12\n      jump\t// in\n    tag_11:\n      mload(0x40)\n      tag_13\n      swap2\n      swap1\n      tag_10\n      jump\t// in\n    tag_13:\n      mload(0x40)\n      dup1\n      swap2\n      sub\n      swap1\n      return\n        /* \"Day03/1_extra.sol\":179:281  function doSomething() public view returns(uint) {... */\n    tag_5:\n      tag_14\n      tag_15\n      jump\t// in\n    tag_14:\n      mload(0x40)\n      tag_16\n      swap2\n      swap1\n      tag_17\n      jump\t// in\n    tag_16:\n      mload(0x40)\n      dup1\n      swap2\n      sub\n      swap1\n      return\n        /* \"Day03/1_extra.sol\":140:170  uint8 public num3 = num + num2 */\n    tag_6:\n      tag_18\n      tag_19\n      jump\t// in\n    tag_18:\n      mload(0x40)\n      tag_20\n      swap2\n      swap1\n      tag_10\n      jump\t// in\n    tag_20:\n      mload(0x40)\n      dup1\n      swap2\n      sub\n      swap1\n      return\n        /* \"Day03/1_extra.sol\":111:134  uint8 public num2 = 255 */\n    tag_8:\n      0x00\n      0x01\n      swap1\n      sload\n      swap1\n      0x0100\n      exp\n      swap1\n      div\n      0xff\n      and\n      dup2\n      jump\t// out\n        /* \"Day03/1_extra.sol\":83:105  uint8 public num = 255 */\n    tag_12:\n      0x00\n      dup1\n      sload\n      swap1\n      0x0100\n      exp\n      swap1\n      div\n      0xff\n      and\n      dup2\n      jump\t// out\n        /* \"Day03/1_extra.sol\":179:281  function doSomething() public view returns(uint) {... */\n    tag_15:\n        /* \"Day03/1_extra.sol\":222:226  uint */\n      0x00\n        /* \"Day03/1_extra.sol\":234:244  uint8 num3 */\n      dup1\n        /* \"Day03/1_extra.sol\":253:257  num2 */\n      0x00\n      0x01\n      swap1\n      sload\n      swap1\n      0x0100\n      exp\n      swap1\n      div\n      0xff\n      and\n        /* \"Day03/1_extra.sol\":247:250  num */\n      0x00\n      dup1\n      sload\n      swap1\n      0x0100\n      exp\n      swap1\n      div\n      0xff\n      and\n        /* \"Day03/1_extra.sol\":247:257  num + num2 */\n      tag_22\n      swap2\n      swap1\n      tag_23\n      jump\t// in\n    tag_22:\n        /* \"Day03/1_extra.sol\":234:257  uint8 num3 = num + num2 */\n      swap1\n      pop\n        /* \"Day03/1_extra.sol\":270:274  num3 */\n      dup1\n        /* \"Day03/1_extra.sol\":263:274  return num3 */\n      0xff\n      and\n      swap2\n      pop\n      pop\n        /* \"Day03/1_extra.sol\":179:281  function doSomething() public view returns(uint) {... */\n      swap1\n      jump\t// out\n        /* \"Day03/1_extra.sol\":140:170  uint8 public num3 = num + num2 */\n    tag_19:\n      0x00\n      0x02\n      swap1\n      sload\n      swap1\n      0x0100\n      exp\n      swap1\n      div\n      0xff\n      and\n      dup2\n      jump\t// out\n        /* \"#utility.yul\":7:93   */\n    tag_24:\n        /* \"#utility.yul\":42:49   */\n      0x00\n        /* \"#utility.yul\":82:86   */\n      0xff\n        /* \"#utility.yul\":75:80   */\n      dup3\n        /* \"#utility.yul\":71:87   */\n      and\n        /* \"#utility.yul\":60:87   */\n      swap1\n      pop\n        /* \"#utility.yul\":7:93   */\n      swap2\n      swap1\n      pop\n      jump\t// out\n        /* \"#utility.yul\":99:211   */\n    tag_25:\n        /* \"#utility.yul\":182:204   */\n      tag_32\n        /* \"#utility.yul\":198:203   */\n      dup2\n        /* \"#utility.yul\":182:204   */\n      tag_24\n      jump\t// in\n    tag_32:\n        /* \"#utility.yul\":177:180   */\n      dup3\n        /* \"#utility.yul\":170:205   */\n      mstore\n        /* \"#utility.yul\":99:211   */\n      pop\n      pop\n      jump\t// out\n        /* \"#utility.yul\":217:431   */\n    tag_10:\n        /* \"#utility.yul\":306:310   */\n      0x00\n        /* \"#utility.yul\":344:346   */\n      0x20\n        /* \"#utility.yul\":333:342   */\n      dup3\n        /* \"#utility.yul\":329:347   */\n      add\n        /* \"#utility.yul\":321:347   */\n      swap1\n      pop\n        /* \"#utility.yul\":357:424   */\n      tag_34\n        /* \"#utility.yul\":421:422   */\n      0x00\n        /* \"#utility.yul\":410:419   */\n      dup4\n        /* \"#utility.yul\":406:423   */\n      add\n        /* \"#utility.yul\":397:403   */\n      dup5\n        /* \"#utility.yul\":357:424   */\n      tag_25\n      jump\t// in\n    tag_34:\n        /* \"#utility.yul\":217:431   */\n      swap3\n      swap2\n      pop\n      pop\n      jump\t// out\n        /* \"#utility.yul\":437:514   */\n    tag_26:\n        /* \"#utility.yul\":474:481   */\n      0x00\n        /* \"#utility.yul\":503:508   */\n      dup2\n        /* \"#utility.yul\":492:508   */\n      swap1\n      pop\n        /* \"#utility.yul\":437:514   */\n      swap2\n      swap1\n      pop\n      jump\t// out\n        /* \"#utility.yul\":520:638   */\n    tag_27:\n        /* \"#utility.yul\":607:631   */\n      tag_37\n        /* \"#utility.yul\":625:630   */\n      dup2\n        /* \"#utility.yul\":607:631   */\n      tag_26\n      jump\t// in\n    tag_37:\n        /* \"#utility.yul\":602:605   */\n      dup3\n        /* \"#utility.yul\":595:632   */\n      mstore\n        /* \"#utility.yul\":520:638   */\n      pop\n      pop\n      jump\t// out\n        /* \"#utility.yul\":644:866   */\n    tag_17:\n        /* \"#utility.yul\":737:741   */\n      0x00\n        /* \"#utility.yul\":775:777   */\n      0x20\n        /* \"#utility.yul\":764:773   */\n      dup3\n        /* \"#utility.yul\":760:778   */\n      add\n        /* \"#utility.yul\":752:778   */\n      swap1\n      pop\n        /* \"#utility.yul\":788:859   */\n      tag_39\n        /* \"#utility.yul\":856:857   */\n      0x00\n        /* \"#utility.yul\":845:854   */\n      dup4\n        /* \"#utility.yul\":841:858   */\n      add\n        /* \"#utility.yul\":832:838   */\n      dup5\n        /* \"#utility.yul\":788:859   */\n      tag_27\n      jump\t// in\n    tag_39:\n        /* \"#utility.yul\":644:866   */\n      swap3\n      swap2\n      pop\n      pop\n      jump\t// out\n        /* \"#utility.yul\":872:1052   */\n    tag_28:\n        /* \"#utility.yul\":920:997   */\n      0x4e487b7100000000000000000000000000000000000000000000000000000000\n        /* \"#utility.yul\":917:918   */\n      0x00\n        /* \"#utility.yul\":910:998   */\n      mstore\n        /* \"#utility.yul\":1017:1021   */\n      0x11\n        /* \"#utility.yul\":1014:1015   */\n      0x04\n        /* \"#utility.yul\":1007:1022   */\n      mstore\n        /* \"#utility.yul\":1041:1045   */\n      0x24\n        /* \"#utility.yul\":1038:1039   */\n      0x00\n        /* \"#utility.yul\":1031:1046   */\n      revert\n        /* \"#utility.yul\":1058:1246   */\n    tag_23:\n        /* \"#utility.yul\":1096:1099   */\n      0x00\n        /* \"#utility.yul\":1115:1133   */\n      tag_42\n        /* \"#utility.yul\":1131:1132   */\n      dup3\n        /* \"#utility.yul\":1115:1133   */\n      tag_24\n      jump\t// in\n    tag_42:\n        /* \"#utility.yul\":1110:1133   */\n      swap2\n      pop\n        /* \"#utility.yul\":1147:1165   */\n      tag_43\n        /* \"#utility.yul\":1163:1164   */\n      dup4\n        /* \"#utility.yul\":1147:1165   */\n      tag_24\n      jump\t// in\n    tag_43:\n        /* \"#utility.yul\":1142:1165   */\n      swap3\n      pop\n        /* \"#utility.yul\":1188:1189   */\n      dup3\n        /* \"#utility.yul\":1185:1186   */\n      dup3\n        /* \"#utility.yul\":1181:1190   */\n      add\n        /* \"#utility.yul\":1174:1190   */\n      swap1\n      pop\n        /* \"#utility.yul\":1211:1215   */\n      0xff\n        /* \"#utility.yul\":1206:1209   */\n      dup2\n        /* \"#utility.yul\":1203:1216   */\n      gt\n        /* \"#utility.yul\":1200:1239   */\n      iszero\n      tag_44\n      jumpi\n        /* \"#utility.yul\":1219:1237   */\n      tag_45\n      tag_28\n      jump\t// in\n    tag_45:\n        /* \"#utility.yul\":1200:1239   */\n    tag_44:\n        /* \"#utility.yul\":1058:1246   */\n      swap3\n      swap2\n      pop\n      pop\n      jump\t// out\n\n    auxdata: 0xa2646970667358221220849f50385842e576ca13cebe0b3fcfb514e0726389e5ea52b38f17efca64058a64736f6c63430008120033\n}\n",
				"bytecode": {
					"linkReferences": {},
					"object": "608060405260ff6000806101000a81548160ff021916908360ff16021790555060ff600060016101000a81548160ff021916908360ff160217905550600060019054906101000a900460ff1660008054906101000a900460ff1661006391906100cb565b600060026101000a81548160ff021916908360ff16021790555034801561008957600080fd5b50610100565b600060ff82169050919050565b7f4e487b7100000000000000000000000000000000000000000000000000000000600052601160045260246000fd5b60006100d68261008f565b91506100e18361008f565b9250828201905060ff8111156100fa576100f961009c565b5b92915050565b61023c8061010f6000396000f3fe608060405234801561001057600080fd5b506004361061004c5760003560e01c806315d4266c146100515780634e70b1dc1461006f578063826926791461008d578063a531f36a146100ab575b600080fd5b6100596100c9565b6040516100669190610153565b60405180910390f35b6100776100dc565b6040516100849190610153565b60405180910390f35b6100956100ed565b6040516100a29190610187565b60405180910390f35b6100b3610124565b6040516100c09190610153565b60405180910390f35b600060019054906101000a900460ff1681565b60008054906101000a900460ff1681565b600080600060019054906101000a900460ff1660008054906101000a900460ff1661011891906101d1565b90508060ff1691505090565b600060029054906101000a900460ff1681565b600060ff82169050919050565b61014d81610137565b82525050565b60006020820190506101686000830184610144565b92915050565b6000819050919050565b6101818161016e565b82525050565b600060208201905061019c6000830184610178565b92915050565b7f4e487b7100000000000000000000000000000000000000000000000000000000600052601160045260246000fd5b60006101dc82610137565b91506101e783610137565b9250828201905060ff811115610200576101ff6101a2565b5b9291505056fea2646970667358221220849f50385842e576ca13cebe0b3fcfb514e0726389e5ea52b38f17efca64058a64736f6c63430008120033",
					"opcodes": "PUSH1 0x80 PUSH1 0x40 MSTORE PUSH1 0xFF PUSH1 0x0 DUP1 PUSH2 0x100 EXP DUP2 SLOAD DUP2 PUSH1 0xFF MUL NOT AND SWAP1 DUP4 PUSH1 0xFF AND MUL OR SWAP1 SSTORE POP PUSH1 0xFF PUSH1 0x0 PUSH1 0x1 PUSH2 0x100 EXP DUP2 SLOAD DUP2 PUSH1 0xFF MUL NOT AND SWAP1 DUP4 PUSH1 0xFF AND MUL OR SWAP1 SSTORE POP PUSH1 0x0 PUSH1 0x1 SWAP1 SLOAD SWAP1 PUSH2 0x100 EXP SWAP1 DIV PUSH1 0xFF AND PUSH1 0x0 DUP1 SLOAD SWAP1 PUSH2 0x100 EXP SWAP1 DIV PUSH1 0xFF AND PUSH2 0x63 SWAP2 SWAP1 PUSH2 0xCB JUMP JUMPDEST PUSH1 0x0 PUSH1 0x2 PUSH2 0x100 EXP DUP2 SLOAD DUP2 PUSH1 0xFF MUL NOT AND SWAP1 DUP4 PUSH1 0xFF AND MUL OR SWAP1 SSTORE POP CALLVALUE DUP1 ISZERO PUSH2 0x89 JUMPI PUSH1 0x0 DUP1 REVERT JUMPDEST POP PUSH2 0x100 JUMP JUMPDEST PUSH1 0x0 PUSH1 0xFF DUP3 AND SWAP1 POP SWAP2 SWAP1 POP JUMP JUMPDEST PUSH32 0x4E487B7100000000000000000000000000000000000000000000000000000000 PUSH1 0x0 MSTORE PUSH1 0x11 PUSH1 0x4 MSTORE PUSH1 0x24 PUSH1 0x0 REVERT JUMPDEST PUSH1 0x0 PUSH2 0xD6 DUP3 PUSH2 0x8F JUMP JUMPDEST SWAP2 POP PUSH2 0xE1 DUP4 PUSH2 0x8F JUMP JUMPDEST SWAP3 POP DUP3 DUP3 ADD SWAP1 POP PUSH1 0xFF DUP2 GT ISZERO PUSH2 0xFA JUMPI PUSH2 0xF9 PUSH2 0x9C JUMP JUMPDEST JUMPDEST SWAP3 SWAP2 POP POP JUMP JUMPDEST PUSH2 0x23C DUP1 PUSH2 0x10F PUSH1 0x0 CODECOPY PUSH1 0x0 RETURN INVALID PUSH1 0x80 PUSH1 0x40 MSTORE CALLVALUE DUP1 ISZERO PUSH2 0x10 JUMPI PUSH1 0x0 DUP1 REVERT JUMPDEST POP PUSH1 0x4 CALLDATASIZE LT PUSH2 0x4C JUMPI PUSH1 0x0 CALLDATALOAD PUSH1 0xE0 SHR DUP1 PUSH4 0x15D4266C EQ PUSH2 0x51 JUMPI DUP1 PUSH4 0x4E70B1DC EQ PUSH2 0x6F JUMPI DUP1 PUSH4 0x82692679 EQ PUSH2 0x8D JUMPI DUP1 PUSH4 0xA531F36A EQ PUSH2 0xAB JUMPI JUMPDEST PUSH1 0x0 DUP1 REVERT JUMPDEST PUSH2 0x59 PUSH2 0xC9 JUMP JUMPDEST PUSH1 0x40 MLOAD PUSH2 0x66 SWAP2 SWAP1 PUSH2 0x153 JUMP JUMPDEST PUSH1 0x40 MLOAD DUP1 SWAP2 SUB SWAP1 RETURN JUMPDEST PUSH2 0x77 PUSH2 0xDC JUMP JUMPDEST PUSH1 0x40 MLOAD PUSH2 0x84 SWAP2 SWAP1 PUSH2 0x153 JUMP JUMPDEST PUSH1 0x40 MLOAD DUP1 SWAP2 SUB SWAP1 RETURN JUMPDEST PUSH2 0x95 PUSH2 0xED JUMP JUMPDEST PUSH1 0x40 MLOAD PUSH2 0xA2 SWAP2 SWAP1 PUSH2 0x187 JUMP JUMPDEST PUSH1 0x40 MLOAD DUP1 SWAP2 SUB SWAP1 RETURN JUMPDEST PUSH2 0xB3 PUSH2 0x124 JUMP JUMPDEST PUSH1 0x40 MLOAD PUSH2 0xC0 SWAP2 SWAP1 PUSH2 0x153 JUMP JUMPDEST PUSH1 0x40 MLOAD DUP1 SWAP2 SUB SWAP1 RETURN JUMPDEST PUSH1 0x0 PUSH1 0x1 SWAP1 SLOAD SWAP1 PUSH2 0x100 EXP SWAP1 DIV PUSH1 0xFF AND DUP2 JUMP JUMPDEST PUSH1 0x0 DUP1 SLOAD SWAP1 PUSH2 0x100 EXP SWAP1 DIV PUSH1 0xFF AND DUP2 JUMP JUMPDEST PUSH1 0x0 DUP1 PUSH1 0x0 PUSH1 0x1 SWAP1 SLOAD SWAP1 PUSH2 0x100 EXP SWAP1 DIV PUSH1 0xFF AND PUSH1 0x0 DUP1 SLOAD SWAP1 PUSH2 0x100 EXP SWAP1 DIV PUSH1 0xFF AND PUSH2 0x118 SWAP2 SWAP1 PUSH2 0x1D1 JUMP JUMPDEST SWAP1 POP DUP1 PUSH1 0xFF AND SWAP2 POP POP SWAP1 JUMP JUMPDEST PUSH1 0x0 PUSH1 0x2 SWAP1 SLOAD SWAP1 PUSH2 0x100 EXP SWAP1 DIV PUSH1 0xFF AND DUP2 JUMP JUMPDEST PUSH1 0x0 PUSH1 0xFF DUP3 AND SWAP1 POP SWAP2 SWAP1 POP JUMP JUMPDEST PUSH2 0x14D DUP2 PUSH2 0x137 JUMP JUMPDEST DUP3 MSTORE POP POP JUMP JUMPDEST PUSH1 0x0 PUSH1 0x20 DUP3 ADD SWAP1 POP PUSH2 0x168 PUSH1 0x0 DUP4 ADD DUP5 PUSH2 0x144 JUMP JUMPDEST SWAP3 SWAP2 POP POP JUMP JUMPDEST PUSH1 0x0 DUP2 SWAP1 POP SWAP2 SWAP1 POP JUMP JUMPDEST PUSH2 0x181 DUP2 PUSH2 0x16E JUMP JUMPDEST DUP3 MSTORE POP POP JUMP JUMPDEST PUSH1 0x0 PUSH1 0x20 DUP3 ADD SWAP1 POP PUSH2 0x19C PUSH1 0x0 DUP4 ADD DUP5 PUSH2 0x178 JUMP JUMPDEST SWAP3 SWAP2 POP POP JUMP JUMPDEST PUSH32 0x4E487B7100000000000000000000000000000000000000000000000000000000 PUSH1 0x0 MSTORE PUSH1 0x11 PUSH1 0x4 MSTORE PUSH1 0x24 PUSH1 0x0 REVERT JUMPDEST PUSH1 0x0 PUSH2 0x1DC DUP3 PUSH2 0x137 JUMP JUMPDEST SWAP2 POP PUSH2 0x1E7 DUP4 PUSH2 0x137 JUMP JUMPDEST SWAP3 POP DUP3 DUP3 ADD SWAP1 POP PUSH1 0xFF DUP2 GT ISZERO PUSH2 0x200 JUMPI PUSH2 0x1FF PUSH2 0x1A2 JUMP JUMPDEST JUMPDEST SWAP3 SWAP2 POP POP JUMP INVALID LOG2 PUSH5 0x6970667358 0x22 SLT KECCAK256 DUP5 SWAP16 POP CODESIZE PC TIMESTAMP 0xE5 PUSH23 0xCA13CEBE0B3FCFB514E0726389E5EA52B38F17EFCA6405 DUP11 PUSH5 0x736F6C6343 STOP ADDMOD SLT STOP CALLER "
				},
				"gasEstimates": {
					"creation": {
						"codeDepositCost": "114400",
						"executionCost": "infinite",
						"totalCost": "infinite"
					},
					"external": {
						"doSomething()": "infinite",
						"num()": "2468",
						"num2()": "2499",
						"num3()": "2565"
					}
				},
				"methodIdentifiers": {
					"doSomething()": "82692679",
					"num()": "4e70b1dc",
					"num2()": "15d4266c",
					"num3()": "a531f36a"
				}
			},
			"storageLayout": {
				"storage": [
					{
						"astId": 4,
						"contract": "Day03/1_extra.sol:Variables",
						"label": "num",
						"offset": 0,
						"slot": "0",
						"type": "t_uint8"
					},
					{
						"astId": 7,
						"contract": "Day03/1_extra.sol:Variables",
						"label": "num2",
						"offset": 1,
						"slot": "0",
						"type": "t_uint8"
					},
					{
						"astId": 12,
						"contract": "Day03/1_extra.sol:Variables",
						"label": "num3",
						"offset": 2,
						"slot": "0",
						"type": "t_uint8"
					}
				],
				"types": {
					"t_uint8": {
						"encoding": "inplace",
						"label": "uint8",
						"numberOfBytes": "1"
					}
				}
			},
			"userdoc": {
				"kind": "user",
				"methods": {},
				"version": 1
			}
		}
	}
}