{
	"Day01/bytes.sol": {
		"BytesDatatype": {
			"abi": [
				{
					"inputs": [],
					"name": "InitBytes",
					"outputs": [
						{
							"internalType": "bytes",
							"name": "",
							"type": "bytes"
						}
					],
					"stateMutability": "view",
					"type": "function"
				},
				{
					"inputs": [],
					"name": "addressBytes",
					"outputs": [
						{
							"internalType": "bytes",
							"name": "",
							"type": "bytes"
						}
					],
					"stateMutability": "view",
					"type": "function"
				},
				{
					"inputs": [],
					"name": "emptyBytes",
					"outputs": [
						{
							"internalType": "bytes",
							"name": "",
							"type": "bytes"
						}
					],
					"stateMutability": "view",
					"type": "function"
				},
				{
					"inputs": [
						{
							"internalType": "uint256",
							"name": "i",
							"type": "uint256"
						}
					],
					"name": "getByte",
					"outputs": [
						{
							"internalType": "bytes1",
							"name": "",
							"type": "bytes1"
						}
					],
					"stateMutability": "view",
					"type": "function"
				},
				{
					"inputs": [],
					"name": "hexBytes",
					"outputs": [
						{
							"internalType": "bytes",
							"name": "",
							"type": "bytes"
						}
					],
					"stateMutability": "view",
					"type": "function"
				},
				{
					"inputs": [],
					"name": "intBytes",
					"outputs": [
						{
							"internalType": "bytes",
							"name": "",
							"type": "bytes"
						}
					],
					"stateMutability": "view",
					"type": "function"
				},
				{
					"inputs": [],
					"name": "stringBytes",
					"outputs": [
						{
							"internalType": "bytes",
							"name": "",
							"type": "bytes"
						}
					],
					"stateMutability": "view",
					"type": "function"
				},
				{
					"inputs": [],
					"name": "xyz",
					"outputs": [
						{
							"internalType": "bytes2",
							"name": "",
							"type": "bytes2"
						}
					],
					"stateMutability": "view",
					"type": "function"
				}
			],
			"devdoc": {
				"kind": "dev",
				"methods": {},
				"version": 1
			},
			"evm": {
				"assembly": "    /* \"Day01/bytes.sol\":57:556  contract BytesDatatype{... */\n  mstore(0x40, 0x80)\n    /* \"Day01/bytes.sol\":85:113  bytes public emptyBytes = \"\" */\n  mload(0x40)\n  dup1\n  0x20\n  add\n  0x40\n  mstore\n  dup1\n  0x00\n  dup2\n  mstore\n  pop\n  0x00\n  swap1\n  dup2\n  tag_1\n  swap2\n  swap1\n  tag_2\n  jump\t// in\ntag_1:\n  pop\n    /* \"Day01/bytes.sol\":119:174  bytes public stringBytes = \"Hello, World!Hello, World!\" */\n  mload(0x40)\n  dup1\n  0x40\n  add\n  0x40\n  mstore\n  dup1\n  0x1a\n  dup2\n  mstore\n  0x20\n  add\n  0x48656c6c6f2c20576f726c642148656c6c6f2c20576f726c6421000000000000\n  dup2\n  mstore\n  pop\n  0x01\n  swap1\n  dup2\n  tag_3\n  swap2\n  swap1\n  tag_2\n  jump\t// in\ntag_3:\n  pop\n    /* \"Day01/bytes.sol\":215:217  16 */\n  0x10\n    /* \"Day01/bytes.sol\":205:218  new bytes(16) */\n  0xffffffffffffffff\n  dup2\n  gt\n  iszero\n  tag_4\n  jumpi\n  tag_5\n  tag_6\n  jump\t// in\ntag_5:\ntag_4:\n  mload(0x40)\n  swap1\n  dup1\n  dup3\n  mstore\n  dup1\n  0x1f\n  add\n  not(0x1f)\n  and\n  0x20\n  add\n  dup3\n  add\n  0x40\n  mstore\n  dup1\n  iszero\n  tag_7\n  jumpi\n  dup2\n  0x20\n  add\n  0x01\n  dup3\n  mul\n  dup1\n  calldatasize\n  dup4\n  calldatacopy\n  dup1\n  dup3\n  add\n  swap2\n  pop\n  pop\n  swap1\n  pop\ntag_7:\n  pop\n    /* \"Day01/bytes.sol\":180:218  bytes public InitBytes = new bytes(16) */\n  0x02\n  swap1\n  dup2\n  tag_8\n  swap2\n  swap1\n  tag_9\n  jump\t// in\ntag_8:\n  pop\n    /* \"Day01/bytes.sol\":224:279  bytes public hexBytes = hex\"48656c6c6f2c20576f726c6421\" */\n  mload(0x40)\n  dup1\n  0x40\n  add\n  0x40\n  mstore\n  dup1\n  0x0d\n  dup2\n  mstore\n  0x20\n  add\n  0x48656c6c6f2c20576f726c642100000000000000000000000000000000000000\n  dup2\n  mstore\n  pop\n  0x03\n  swap1\n  dup2\n  tag_10\n  swap2\n  swap1\n  tag_2\n  jump\t// in\ntag_10:\n  pop\n    /* \"Day01/bytes.sol\":334:337  255 */\n  0xff\n    /* \"Day01/bytes.sol\":309:339  abi.encodePacked(uint256(255)) */\n  add(0x20, mload(0x40))\n  tag_11\n  swap2\n  swap1\n  tag_12\n  jump\t// in\ntag_11:\n  mload(0x40)\n  0x20\n  dup2\n  dup4\n  sub\n  sub\n  dup2\n  mstore\n  swap1\n  0x40\n  mstore\n    /* \"Day01/bytes.sol\":285:339  bytes public intBytes = abi.encodePacked(uint256(255)) */\n  0x04\n  swap1\n  dup2\n  tag_13\n  swap2\n  swap1\n  tag_9\n  jump\t// in\ntag_13:\n  pop\n    /* \"Day01/bytes.sol\":398:408  msg.sender */\n  caller\n    /* \"Day01/bytes.sol\":373:410  abi.encodePacked(address(msg.sender)) */\n  add(0x20, mload(0x40))\n  tag_14\n  swap2\n  swap1\n  tag_15\n  jump\t// in\ntag_14:\n  mload(0x40)\n  0x20\n  dup2\n  dup4\n  sub\n  sub\n  dup2\n  mstore\n  swap1\n  0x40\n  mstore\n    /* \"Day01/bytes.sol\":345:410  bytes public addressBytes = abi.encodePacked(address(msg.sender)) */\n  0x05\n  swap1\n  dup2\n  tag_16\n  swap2\n  swap1\n  tag_9\n  jump\t// in\ntag_16:\n  pop\n    /* \"Day01/bytes.sol\":424:453  bytes2 public xyz = hex\"ffff\" */\n  0xffff000000000000000000000000000000000000000000000000000000000000\n  0x06\n  exp(0x0100, 0x00)\n  dup2\n  sload\n  dup2\n  0xffff\n  mul\n  not\n  and\n  swap1\n  dup4\n  0xf0\n  shr\n  mul\n  or\n  swap1\n  sstore\n  pop\n    /* \"Day01/bytes.sol\":57:556  contract BytesDatatype{... */\n  callvalue\n  dup1\n  iszero\n  tag_17\n  jumpi\n  0x00\n  dup1\n  revert\ntag_17:\n  pop\n  jump(tag_18)\n    /* \"#utility.yul\":7:106   */\ntag_19:\n    /* \"#utility.yul\":59:65   */\n  0x00\n    /* \"#utility.yul\":93:98   */\n  dup2\n    /* \"#utility.yul\":87:99   */\n  mload\n    /* \"#utility.yul\":77:99   */\n  swap1\n  pop\n    /* \"#utility.yul\":7:106   */\n  swap2\n  swap1\n  pop\n  jump\t// out\n    /* \"#utility.yul\":112:292   */\ntag_6:\n    /* \"#utility.yul\":160:237   */\n  0x4e487b7100000000000000000000000000000000000000000000000000000000\n    /* \"#utility.yul\":157:158   */\n  0x00\n    /* \"#utility.yul\":150:238   */\n  mstore\n    /* \"#utility.yul\":257:261   */\n  0x41\n    /* \"#utility.yul\":254:255   */\n  0x04\n    /* \"#utility.yul\":247:262   */\n  mstore\n    /* \"#utility.yul\":281:285   */\n  0x24\n    /* \"#utility.yul\":278:279   */\n  0x00\n    /* \"#utility.yul\":271:286   */\n  revert\n    /* \"#utility.yul\":298:478   */\ntag_20:\n    /* \"#utility.yul\":346:423   */\n  0x4e487b7100000000000000000000000000000000000000000000000000000000\n    /* \"#utility.yul\":343:344   */\n  0x00\n    /* \"#utility.yul\":336:424   */\n  mstore\n    /* \"#utility.yul\":443:447   */\n  0x22\n    /* \"#utility.yul\":440:441   */\n  0x04\n    /* \"#utility.yul\":433:448   */\n  mstore\n    /* \"#utility.yul\":467:471   */\n  0x24\n    /* \"#utility.yul\":464:465   */\n  0x00\n    /* \"#utility.yul\":457:472   */\n  revert\n    /* \"#utility.yul\":484:804   */\ntag_21:\n    /* \"#utility.yul\":528:534   */\n  0x00\n    /* \"#utility.yul\":565:566   */\n  0x02\n    /* \"#utility.yul\":559:563   */\n  dup3\n    /* \"#utility.yul\":555:567   */\n  div\n    /* \"#utility.yul\":545:567   */\n  swap1\n  pop\n    /* \"#utility.yul\":612:613   */\n  0x01\n    /* \"#utility.yul\":606:610   */\n  dup3\n    /* \"#utility.yul\":602:614   */\n  and\n    /* \"#utility.yul\":633:651   */\n  dup1\n    /* \"#utility.yul\":623:704   */\n  tag_52\n  jumpi\n    /* \"#utility.yul\":689:693   */\n  0x7f\n    /* \"#utility.yul\":681:687   */\n  dup3\n    /* \"#utility.yul\":677:694   */\n  and\n    /* \"#utility.yul\":667:694   */\n  swap2\n  pop\n    /* \"#utility.yul\":623:704   */\ntag_52:\n    /* \"#utility.yul\":751:753   */\n  0x20\n    /* \"#utility.yul\":743:749   */\n  dup3\n    /* \"#utility.yul\":740:754   */\n  lt\n    /* \"#utility.yul\":720:738   */\n  dup2\n    /* \"#utility.yul\":717:755   */\n  sub\n    /* \"#utility.yul\":714:798   */\n  tag_53\n  jumpi\n    /* \"#utility.yul\":770:788   */\n  tag_54\n  tag_20\n  jump\t// in\ntag_54:\n    /* \"#utility.yul\":714:798   */\ntag_53:\n    /* \"#utility.yul\":535:804   */\n  pop\n    /* \"#utility.yul\":484:804   */\n  swap2\n  swap1\n  pop\n  jump\t// out\n    /* \"#utility.yul\":810:950   */\ntag_22:\n    /* \"#utility.yul\":858:862   */\n  0x00\n    /* \"#utility.yul\":881:884   */\n  dup2\n    /* \"#utility.yul\":873:884   */\n  swap1\n  pop\n    /* \"#utility.yul\":904:907   */\n  dup2\n    /* \"#utility.yul\":901:902   */\n  0x00\n    /* \"#utility.yul\":894:908   */\n  mstore\n    /* \"#utility.yul\":938:942   */\n  0x20\n    /* \"#utility.yul\":935:936   */\n  0x00\n    /* \"#utility.yul\":925:943   */\n  keccak256\n    /* \"#utility.yul\":917:943   */\n  swap1\n  pop\n    /* \"#utility.yul\":810:950   */\n  swap2\n  swap1\n  pop\n  jump\t// out\n    /* \"#utility.yul\":956:1049   */\ntag_23:\n    /* \"#utility.yul\":993:999   */\n  0x00\n    /* \"#utility.yul\":1040:1042   */\n  0x20\n    /* \"#utility.yul\":1035:1037   */\n  0x1f\n    /* \"#utility.yul\":1028:1033   */\n  dup4\n    /* \"#utility.yul\":1024:1038   */\n  add\n    /* \"#utility.yul\":1020:1043   */\n  div\n    /* \"#utility.yul\":1010:1043   */\n  swap1\n  pop\n    /* \"#utility.yul\":956:1049   */\n  swap2\n  swap1\n  pop\n  jump\t// out\n    /* \"#utility.yul\":1055:1162   */\ntag_24:\n    /* \"#utility.yul\":1099:1107   */\n  0x00\n    /* \"#utility.yul\":1149:1154   */\n  dup3\n    /* \"#utility.yul\":1143:1147   */\n  dup3\n    /* \"#utility.yul\":1139:1155   */\n  shl\n    /* \"#utility.yul\":1118:1155   */\n  swap1\n  pop\n    /* \"#utility.yul\":1055:1162   */\n  swap3\n  swap2\n  pop\n  pop\n  jump\t// out\n    /* \"#utility.yul\":1168:1561   */\ntag_25:\n    /* \"#utility.yul\":1237:1243   */\n  0x00\n    /* \"#utility.yul\":1287:1288   */\n  0x08\n    /* \"#utility.yul\":1275:1285   */\n  dup4\n    /* \"#utility.yul\":1271:1289   */\n  mul\n    /* \"#utility.yul\":1310:1407   */\n  tag_59\n    /* \"#utility.yul\":1340:1406   */\n  0xffffffffffffffffffffffffffffffffffffffffffffffffffffffffffffffff\n    /* \"#utility.yul\":1329:1338   */\n  dup3\n    /* \"#utility.yul\":1310:1407   */\n  tag_24\n  jump\t// in\ntag_59:\n    /* \"#utility.yul\":1428:1467   */\n  tag_60\n    /* \"#utility.yul\":1458:1466   */\n  dup7\n    /* \"#utility.yul\":1447:1456   */\n  dup4\n    /* \"#utility.yul\":1428:1467   */\n  tag_24\n  jump\t// in\ntag_60:\n    /* \"#utility.yul\":1416:1467   */\n  swap6\n  pop\n    /* \"#utility.yul\":1500:1504   */\n  dup1\n    /* \"#utility.yul\":1496:1505   */\n  not\n    /* \"#utility.yul\":1489:1494   */\n  dup5\n    /* \"#utility.yul\":1485:1506   */\n  and\n    /* \"#utility.yul\":1476:1506   */\n  swap4\n  pop\n    /* \"#utility.yul\":1549:1553   */\n  dup1\n    /* \"#utility.yul\":1539:1547   */\n  dup7\n    /* \"#utility.yul\":1535:1554   */\n  and\n    /* \"#utility.yul\":1528:1533   */\n  dup5\n    /* \"#utility.yul\":1525:1555   */\n  or\n    /* \"#utility.yul\":1515:1555   */\n  swap3\n  pop\n    /* \"#utility.yul\":1244:1561   */\n  pop\n  pop\n    /* \"#utility.yul\":1168:1561   */\n  swap4\n  swap3\n  pop\n  pop\n  pop\n  jump\t// out\n    /* \"#utility.yul\":1567:1644   */\ntag_26:\n    /* \"#utility.yul\":1604:1611   */\n  0x00\n    /* \"#utility.yul\":1633:1638   */\n  dup2\n    /* \"#utility.yul\":1622:1638   */\n  swap1\n  pop\n    /* \"#utility.yul\":1567:1644   */\n  swap2\n  swap1\n  pop\n  jump\t// out\n    /* \"#utility.yul\":1650:1710   */\ntag_27:\n    /* \"#utility.yul\":1678:1681   */\n  0x00\n    /* \"#utility.yul\":1699:1704   */\n  dup2\n    /* \"#utility.yul\":1692:1704   */\n  swap1\n  pop\n    /* \"#utility.yul\":1650:1710   */\n  swap2\n  swap1\n  pop\n  jump\t// out\n    /* \"#utility.yul\":1716:1858   */\ntag_28:\n    /* \"#utility.yul\":1766:1775   */\n  0x00\n    /* \"#utility.yul\":1799:1852   */\n  tag_64\n    /* \"#utility.yul\":1817:1851   */\n  tag_65\n    /* \"#utility.yul\":1826:1850   */\n  tag_66\n    /* \"#utility.yul\":1844:1849   */\n  dup5\n    /* \"#utility.yul\":1826:1850   */\n  tag_26\n  jump\t// in\ntag_66:\n    /* \"#utility.yul\":1817:1851   */\n  tag_27\n  jump\t// in\ntag_65:\n    /* \"#utility.yul\":1799:1852   */\n  tag_26\n  jump\t// in\ntag_64:\n    /* \"#utility.yul\":1786:1852   */\n  swap1\n  pop\n    /* \"#utility.yul\":1716:1858   */\n  swap2\n  swap1\n  pop\n  jump\t// out\n    /* \"#utility.yul\":1864:1939   */\ntag_29:\n    /* \"#utility.yul\":1907:1910   */\n  0x00\n    /* \"#utility.yul\":1928:1933   */\n  dup2\n    /* \"#utility.yul\":1921:1933   */\n  swap1\n  pop\n    /* \"#utility.yul\":1864:1939   */\n  swap2\n  swap1\n  pop\n  jump\t// out\n    /* \"#utility.yul\":1945:2214   */\ntag_30:\n    /* \"#utility.yul\":2055:2094   */\n  tag_69\n    /* \"#utility.yul\":2086:2093   */\n  dup4\n    /* \"#utility.yul\":2055:2094   */\n  tag_28\n  jump\t// in\ntag_69:\n    /* \"#utility.yul\":2116:2207   */\n  tag_70\n    /* \"#utility.yul\":2165:2206   */\n  tag_71\n    /* \"#utility.yul\":2189:2205   */\n  dup3\n    /* \"#utility.yul\":2165:2206   */\n  tag_29\n  jump\t// in\ntag_71:\n    /* \"#utility.yul\":2157:2163   */\n  dup5\n    /* \"#utility.yul\":2150:2154   */\n  dup5\n    /* \"#utility.yul\":2144:2155   */\n  sload\n    /* \"#utility.yul\":2116:2207   */\n  tag_25\n  jump\t// in\ntag_70:\n    /* \"#utility.yul\":2110:2114   */\n  dup3\n    /* \"#utility.yul\":2103:2208   */\n  sstore\n    /* \"#utility.yul\":2021:2214   */\n  pop\n    /* \"#utility.yul\":1945:2214   */\n  pop\n  pop\n  pop\n  jump\t// out\n    /* \"#utility.yul\":2220:2293   */\ntag_31:\n    /* \"#utility.yul\":2265:2268   */\n  0x00\n    /* \"#utility.yul\":2220:2293   */\n  swap1\n  jump\t// out\n    /* \"#utility.yul\":2299:2488   */\ntag_32:\n    /* \"#utility.yul\":2376:2408   */\n  tag_74\n  tag_31\n  jump\t// in\ntag_74:\n    /* \"#utility.yul\":2417:2482   */\n  tag_75\n    /* \"#utility.yul\":2475:2481   */\n  dup2\n    /* \"#utility.yul\":2467:2473   */\n  dup5\n    /* \"#utility.yul\":2461:2465   */\n  dup5\n    /* \"#utility.yul\":2417:2482   */\n  tag_30\n  jump\t// in\ntag_75:\n    /* \"#utility.yul\":2352:2488   */\n  pop\n    /* \"#utility.yul\":2299:2488   */\n  pop\n  pop\n  jump\t// out\n    /* \"#utility.yul\":2494:2680   */\ntag_33:\n    /* \"#utility.yul\":2554:2674   */\ntag_77:\n    /* \"#utility.yul\":2571:2574   */\n  dup2\n    /* \"#utility.yul\":2564:2569   */\n  dup2\n    /* \"#utility.yul\":2561:2575   */\n  lt\n    /* \"#utility.yul\":2554:2674   */\n  iszero\n  tag_79\n  jumpi\n    /* \"#utility.yul\":2625:2664   */\n  tag_80\n    /* \"#utility.yul\":2662:2663   */\n  0x00\n    /* \"#utility.yul\":2655:2660   */\n  dup3\n    /* \"#utility.yul\":2625:2664   */\n  tag_32\n  jump\t// in\ntag_80:\n    /* \"#utility.yul\":2598:2599   */\n  0x01\n    /* \"#utility.yul\":2591:2596   */\n  dup2\n    /* \"#utility.yul\":2587:2600   */\n  add\n    /* \"#utility.yul\":2578:2600   */\n  swap1\n  pop\n    /* \"#utility.yul\":2554:2674   */\n  jump(tag_77)\ntag_79:\n    /* \"#utility.yul\":2494:2680   */\n  pop\n  pop\n  jump\t// out\n    /* \"#utility.yul\":2686:3227   */\ntag_34:\n    /* \"#utility.yul\":2786:2788   */\n  0x1f\n    /* \"#utility.yul\":2781:2784   */\n  dup3\n    /* \"#utility.yul\":2778:2789   */\n  gt\n    /* \"#utility.yul\":2775:3220   */\n  iszero\n  tag_82\n  jumpi\n    /* \"#utility.yul\":2820:2857   */\n  tag_83\n    /* \"#utility.yul\":2851:2856   */\n  dup2\n    /* \"#utility.yul\":2820:2857   */\n  tag_22\n  jump\t// in\ntag_83:\n    /* \"#utility.yul\":2903:2932   */\n  tag_84\n    /* \"#utility.yul\":2921:2931   */\n  dup5\n    /* \"#utility.yul\":2903:2932   */\n  tag_23\n  jump\t// in\ntag_84:\n    /* \"#utility.yul\":2893:2901   */\n  dup2\n    /* \"#utility.yul\":2889:2933   */\n  add\n    /* \"#utility.yul\":3086:3088   */\n  0x20\n    /* \"#utility.yul\":3074:3084   */\n  dup6\n    /* \"#utility.yul\":3071:3089   */\n  lt\n    /* \"#utility.yul\":3068:3117   */\n  iszero\n  tag_85\n  jumpi\n    /* \"#utility.yul\":3107:3115   */\n  dup2\n    /* \"#utility.yul\":3092:3115   */\n  swap1\n  pop\n    /* \"#utility.yul\":3068:3117   */\ntag_85:\n    /* \"#utility.yul\":3130:3210   */\n  tag_86\n    /* \"#utility.yul\":3186:3208   */\n  tag_87\n    /* \"#utility.yul\":3204:3207   */\n  dup6\n    /* \"#utility.yul\":3186:3208   */\n  tag_23\n  jump\t// in\ntag_87:\n    /* \"#utility.yul\":3176:3184   */\n  dup4\n    /* \"#utility.yul\":3172:3209   */\n  add\n    /* \"#utility.yul\":3159:3170   */\n  dup3\n    /* \"#utility.yul\":3130:3210   */\n  tag_33\n  jump\t// in\ntag_86:\n    /* \"#utility.yul\":2790:3220   */\n  pop\n  pop\n    /* \"#utility.yul\":2775:3220   */\ntag_82:\n    /* \"#utility.yul\":2686:3227   */\n  pop\n  pop\n  pop\n  jump\t// out\n    /* \"#utility.yul\":3233:3350   */\ntag_35:\n    /* \"#utility.yul\":3287:3295   */\n  0x00\n    /* \"#utility.yul\":3337:3342   */\n  dup3\n    /* \"#utility.yul\":3331:3335   */\n  dup3\n    /* \"#utility.yul\":3327:3343   */\n  shr\n    /* \"#utility.yul\":3306:3343   */\n  swap1\n  pop\n    /* \"#utility.yul\":3233:3350   */\n  swap3\n  swap2\n  pop\n  pop\n  jump\t// out\n    /* \"#utility.yul\":3356:3525   */\ntag_36:\n    /* \"#utility.yul\":3400:3406   */\n  0x00\n    /* \"#utility.yul\":3433:3484   */\n  tag_90\n    /* \"#utility.yul\":3481:3482   */\n  0x00\n    /* \"#utility.yul\":3477:3483   */\n  not\n    /* \"#utility.yul\":3469:3474   */\n  dup5\n    /* \"#utility.yul\":3466:3467   */\n  0x08\n    /* \"#utility.yul\":3462:3475   */\n  mul\n    /* \"#utility.yul\":3433:3484   */\n  tag_35\n  jump\t// in\ntag_90:\n    /* \"#utility.yul\":3429:3485   */\n  not\n    /* \"#utility.yul\":3514:3518   */\n  dup1\n    /* \"#utility.yul\":3508:3512   */\n  dup4\n    /* \"#utility.yul\":3504:3519   */\n  and\n    /* \"#utility.yul\":3494:3519   */\n  swap2\n  pop\n    /* \"#utility.yul\":3407:3525   */\n  pop\n    /* \"#utility.yul\":3356:3525   */\n  swap3\n  swap2\n  pop\n  pop\n  jump\t// out\n    /* \"#utility.yul\":3530:3825   */\ntag_37:\n    /* \"#utility.yul\":3606:3610   */\n  0x00\n    /* \"#utility.yul\":3752:3781   */\n  tag_92\n    /* \"#utility.yul\":3777:3780   */\n  dup4\n    /* \"#utility.yul\":3771:3775   */\n  dup4\n    /* \"#utility.yul\":3752:3781   */\n  tag_36\n  jump\t// in\ntag_92:\n    /* \"#utility.yul\":3744:3781   */\n  swap2\n  pop\n    /* \"#utility.yul\":3814:3817   */\n  dup3\n    /* \"#utility.yul\":3811:3812   */\n  0x02\n    /* \"#utility.yul\":3807:3818   */\n  mul\n    /* \"#utility.yul\":3801:3805   */\n  dup3\n    /* \"#utility.yul\":3798:3819   */\n  or\n    /* \"#utility.yul\":3790:3819   */\n  swap1\n  pop\n    /* \"#utility.yul\":3530:3825   */\n  swap3\n  swap2\n  pop\n  pop\n  jump\t// out\n    /* \"#utility.yul\":3830:5222   */\ntag_2:\n    /* \"#utility.yul\":3946:3983   */\n  tag_94\n    /* \"#utility.yul\":3979:3982   */\n  dup3\n    /* \"#utility.yul\":3946:3983   */\n  tag_19\n  jump\t// in\ntag_94:\n    /* \"#utility.yul\":4048:4066   */\n  0xffffffffffffffff\n    /* \"#utility.yul\":4040:4046   */\n  dup2\n    /* \"#utility.yul\":4037:4067   */\n  gt\n    /* \"#utility.yul\":4034:4090   */\n  iszero\n  tag_95\n  jumpi\n    /* \"#utility.yul\":4070:4088   */\n  tag_96\n  tag_6\n  jump\t// in\ntag_96:\n    /* \"#utility.yul\":4034:4090   */\ntag_95:\n    /* \"#utility.yul\":4114:4152   */\n  tag_97\n    /* \"#utility.yul\":4146:4150   */\n  dup3\n    /* \"#utility.yul\":4140:4151   */\n  sload\n    /* \"#utility.yul\":4114:4152   */\n  tag_21\n  jump\t// in\ntag_97:\n    /* \"#utility.yul\":4199:4265   */\n  tag_98\n    /* \"#utility.yul\":4258:4264   */\n  dup3\n    /* \"#utility.yul\":4250:4256   */\n  dup3\n    /* \"#utility.yul\":4244:4248   */\n  dup6\n    /* \"#utility.yul\":4199:4265   */\n  tag_34\n  jump\t// in\ntag_98:\n    /* \"#utility.yul\":4292:4293   */\n  0x00\n    /* \"#utility.yul\":4316:4320   */\n  0x20\n    /* \"#utility.yul\":4303:4320   */\n  swap1\n  pop\n    /* \"#utility.yul\":4348:4350   */\n  0x1f\n    /* \"#utility.yul\":4340:4346   */\n  dup4\n    /* \"#utility.yul\":4337:4351   */\n  gt\n    /* \"#utility.yul\":4365:4366   */\n  0x01\n    /* \"#utility.yul\":4360:4977   */\n  dup2\n  eq\n  tag_100\n  jumpi\n    /* \"#utility.yul\":5021:5022   */\n  0x00\n    /* \"#utility.yul\":5038:5044   */\n  dup5\n    /* \"#utility.yul\":5035:5112   */\n  iszero\n  tag_101\n  jumpi\n    /* \"#utility.yul\":5087:5096   */\n  dup3\n    /* \"#utility.yul\":5082:5085   */\n  dup8\n    /* \"#utility.yul\":5078:5097   */\n  add\n    /* \"#utility.yul\":5072:5098   */\n  mload\n    /* \"#utility.yul\":5063:5098   */\n  swap1\n  pop\n    /* \"#utility.yul\":5035:5112   */\ntag_101:\n    /* \"#utility.yul\":5138:5205   */\n  tag_102\n    /* \"#utility.yul\":5198:5204   */\n  dup6\n    /* \"#utility.yul\":5191:5196   */\n  dup3\n    /* \"#utility.yul\":5138:5205   */\n  tag_37\n  jump\t// in\ntag_102:\n    /* \"#utility.yul\":5132:5136   */\n  dup7\n    /* \"#utility.yul\":5125:5206   */\n  sstore\n    /* \"#utility.yul\":4994:5216   */\n  pop\n    /* \"#utility.yul\":4330:5216   */\n  jump(tag_99)\n    /* \"#utility.yul\":4360:4977   */\ntag_100:\n    /* \"#utility.yul\":4412:4416   */\n  0x1f\n    /* \"#utility.yul\":4408:4417   */\n  not\n    /* \"#utility.yul\":4400:4406   */\n  dup5\n    /* \"#utility.yul\":4396:4418   */\n  and\n    /* \"#utility.yul\":4446:4482   */\n  tag_103\n    /* \"#utility.yul\":4477:4481   */\n  dup7\n    /* \"#utility.yul\":4446:4482   */\n  tag_22\n  jump\t// in\ntag_103:\n    /* \"#utility.yul\":4504:4505   */\n  0x00\n    /* \"#utility.yul\":4518:4726   */\ntag_104:\n    /* \"#utility.yul\":4532:4539   */\n  dup3\n    /* \"#utility.yul\":4529:4530   */\n  dup2\n    /* \"#utility.yul\":4526:4540   */\n  lt\n    /* \"#utility.yul\":4518:4726   */\n  iszero\n  tag_106\n  jumpi\n    /* \"#utility.yul\":4611:4620   */\n  dup5\n    /* \"#utility.yul\":4606:4609   */\n  dup10\n    /* \"#utility.yul\":4602:4621   */\n  add\n    /* \"#utility.yul\":4596:4622   */\n  mload\n    /* \"#utility.yul\":4588:4594   */\n  dup3\n    /* \"#utility.yul\":4581:4623   */\n  sstore\n    /* \"#utility.yul\":4662:4663   */\n  0x01\n    /* \"#utility.yul\":4654:4660   */\n  dup3\n    /* \"#utility.yul\":4650:4664   */\n  add\n    /* \"#utility.yul\":4640:4664   */\n  swap2\n  pop\n    /* \"#utility.yul\":4709:4711   */\n  0x20\n    /* \"#utility.yul\":4698:4707   */\n  dup6\n    /* \"#utility.yul\":4694:4712   */\n  add\n    /* \"#utility.yul\":4681:4712   */\n  swap5\n  pop\n    /* \"#utility.yul\":4555:4559   */\n  0x20\n    /* \"#utility.yul\":4552:4553   */\n  dup2\n    /* \"#utility.yul\":4548:4560   */\n  add\n    /* \"#utility.yul\":4543:4560   */\n  swap1\n  pop\n    /* \"#utility.yul\":4518:4726   */\n  jump(tag_104)\ntag_106:\n    /* \"#utility.yul\":4754:4760   */\n  dup7\n    /* \"#utility.yul\":4745:4752   */\n  dup4\n    /* \"#utility.yul\":4742:4761   */\n  lt\n    /* \"#utility.yul\":4739:4918   */\n  iszero\n  tag_107\n  jumpi\n    /* \"#utility.yul\":4812:4821   */\n  dup5\n    /* \"#utility.yul\":4807:4810   */\n  dup10\n    /* \"#utility.yul\":4803:4822   */\n  add\n    /* \"#utility.yul\":4797:4823   */\n  mload\n    /* \"#utility.yul\":4855:4903   */\n  tag_108\n    /* \"#utility.yul\":4897:4901   */\n  0x1f\n    /* \"#utility.yul\":4889:4895   */\n  dup10\n    /* \"#utility.yul\":4885:4902   */\n  and\n    /* \"#utility.yul\":4874:4883   */\n  dup3\n    /* \"#utility.yul\":4855:4903   */\n  tag_36\n  jump\t// in\ntag_108:\n    /* \"#utility.yul\":4847:4853   */\n  dup4\n    /* \"#utility.yul\":4840:4904   */\n  sstore\n    /* \"#utility.yul\":4762:4918   */\n  pop\n    /* \"#utility.yul\":4739:4918   */\ntag_107:\n    /* \"#utility.yul\":4964:4965   */\n  0x01\n    /* \"#utility.yul\":4960:4961   */\n  0x02\n    /* \"#utility.yul\":4952:4958   */\n  dup9\n    /* \"#utility.yul\":4948:4962   */\n  mul\n    /* \"#utility.yul\":4944:4966   */\n  add\n    /* \"#utility.yul\":4938:4942   */\n  dup9\n    /* \"#utility.yul\":4931:4967   */\n  sstore\n    /* \"#utility.yul\":4367:4977   */\n  pop\n  pop\n  pop\n    /* \"#utility.yul\":4330:5216   */\ntag_99:\n  pop\n    /* \"#utility.yul\":3921:5222   */\n  pop\n  pop\n  pop\n    /* \"#utility.yul\":3830:5222   */\n  pop\n  pop\n  jump\t// out\n    /* \"#utility.yul\":5228:5326   */\ntag_38:\n    /* \"#utility.yul\":5279:5285   */\n  0x00\n    /* \"#utility.yul\":5313:5318   */\n  dup2\n    /* \"#utility.yul\":5307:5319   */\n  mload\n    /* \"#utility.yul\":5297:5319   */\n  swap1\n  pop\n    /* \"#utility.yul\":5228:5326   */\n  swap2\n  swap1\n  pop\n  jump\t// out\n    /* \"#utility.yul\":5332:6722   */\ntag_9:\n    /* \"#utility.yul\":5447:5483   */\n  tag_111\n    /* \"#utility.yul\":5479:5482   */\n  dup3\n    /* \"#utility.yul\":5447:5483   */\n  tag_38\n  jump\t// in\ntag_111:\n    /* \"#utility.yul\":5548:5566   */\n  0xffffffffffffffff\n    /* \"#utility.yul\":5540:5546   */\n  dup2\n    /* \"#utility.yul\":5537:5567   */\n  gt\n    /* \"#utility.yul\":5534:5590   */\n  iszero\n  tag_112\n  jumpi\n    /* \"#utility.yul\":5570:5588   */\n  tag_113\n  tag_6\n  jump\t// in\ntag_113:\n    /* \"#utility.yul\":5534:5590   */\ntag_112:\n    /* \"#utility.yul\":5614:5652   */\n  tag_114\n    /* \"#utility.yul\":5646:5650   */\n  dup3\n    /* \"#utility.yul\":5640:5651   */\n  sload\n    /* \"#utility.yul\":5614:5652   */\n  tag_21\n  jump\t// in\ntag_114:\n    /* \"#utility.yul\":5699:5765   */\n  tag_115\n    /* \"#utility.yul\":5758:5764   */\n  dup3\n    /* \"#utility.yul\":5750:5756   */\n  dup3\n    /* \"#utility.yul\":5744:5748   */\n  dup6\n    /* \"#utility.yul\":5699:5765   */\n  tag_34\n  jump\t// in\ntag_115:\n    /* \"#utility.yul\":5792:5793   */\n  0x00\n    /* \"#utility.yul\":5816:5820   */\n  0x20\n    /* \"#utility.yul\":5803:5820   */\n  swap1\n  pop\n    /* \"#utility.yul\":5848:5850   */\n  0x1f\n    /* \"#utility.yul\":5840:5846   */\n  dup4\n    /* \"#utility.yul\":5837:5851   */\n  gt\n    /* \"#utility.yul\":5865:5866   */\n  0x01\n    /* \"#utility.yul\":5860:6477   */\n  dup2\n  eq\n  tag_117\n  jumpi\n    /* \"#utility.yul\":6521:6522   */\n  0x00\n    /* \"#utility.yul\":6538:6544   */\n  dup5\n    /* \"#utility.yul\":6535:6612   */\n  iszero\n  tag_118\n  jumpi\n    /* \"#utility.yul\":6587:6596   */\n  dup3\n    /* \"#utility.yul\":6582:6585   */\n  dup8\n    /* \"#utility.yul\":6578:6597   */\n  add\n    /* \"#utility.yul\":6572:6598   */\n  mload\n    /* \"#utility.yul\":6563:6598   */\n  swap1\n  pop\n    /* \"#utility.yul\":6535:6612   */\ntag_118:\n    /* \"#utility.yul\":6638:6705   */\n  tag_119\n    /* \"#utility.yul\":6698:6704   */\n  dup6\n    /* \"#utility.yul\":6691:6696   */\n  dup3\n    /* \"#utility.yul\":6638:6705   */\n  tag_37\n  jump\t// in\ntag_119:\n    /* \"#utility.yul\":6632:6636   */\n  dup7\n    /* \"#utility.yul\":6625:6706   */\n  sstore\n    /* \"#utility.yul\":6494:6716   */\n  pop\n    /* \"#utility.yul\":5830:6716   */\n  jump(tag_116)\n    /* \"#utility.yul\":5860:6477   */\ntag_117:\n    /* \"#utility.yul\":5912:5916   */\n  0x1f\n    /* \"#utility.yul\":5908:5917   */\n  not\n    /* \"#utility.yul\":5900:5906   */\n  dup5\n    /* \"#utility.yul\":5896:5918   */\n  and\n    /* \"#utility.yul\":5946:5982   */\n  tag_120\n    /* \"#utility.yul\":5977:5981   */\n  dup7\n    /* \"#utility.yul\":5946:5982   */\n  tag_22\n  jump\t// in\ntag_120:\n    /* \"#utility.yul\":6004:6005   */\n  0x00\n    /* \"#utility.yul\":6018:6226   */\ntag_121:\n    /* \"#utility.yul\":6032:6039   */\n  dup3\n    /* \"#utility.yul\":6029:6030   */\n  dup2\n    /* \"#utility.yul\":6026:6040   */\n  lt\n    /* \"#utility.yul\":6018:6226   */\n  iszero\n  tag_123\n  jumpi\n    /* \"#utility.yul\":6111:6120   */\n  dup5\n    /* \"#utility.yul\":6106:6109   */\n  dup10\n    /* \"#utility.yul\":6102:6121   */\n  add\n    /* \"#utility.yul\":6096:6122   */\n  mload\n    /* \"#utility.yul\":6088:6094   */\n  dup3\n    /* \"#utility.yul\":6081:6123   */\n  sstore\n    /* \"#utility.yul\":6162:6163   */\n  0x01\n    /* \"#utility.yul\":6154:6160   */\n  dup3\n    /* \"#utility.yul\":6150:6164   */\n  add\n    /* \"#utility.yul\":6140:6164   */\n  swap2\n  pop\n    /* \"#utility.yul\":6209:6211   */\n  0x20\n    /* \"#utility.yul\":6198:6207   */\n  dup6\n    /* \"#utility.yul\":6194:6212   */\n  add\n    /* \"#utility.yul\":6181:6212   */\n  swap5\n  pop\n    /* \"#utility.yul\":6055:6059   */\n  0x20\n    /* \"#utility.yul\":6052:6053   */\n  dup2\n    /* \"#utility.yul\":6048:6060   */\n  add\n    /* \"#utility.yul\":6043:6060   */\n  swap1\n  pop\n    /* \"#utility.yul\":6018:6226   */\n  jump(tag_121)\ntag_123:\n    /* \"#utility.yul\":6254:6260   */\n  dup7\n    /* \"#utility.yul\":6245:6252   */\n  dup4\n    /* \"#utility.yul\":6242:6261   */\n  lt\n    /* \"#utility.yul\":6239:6418   */\n  iszero\n  tag_124\n  jumpi\n    /* \"#utility.yul\":6312:6321   */\n  dup5\n    /* \"#utility.yul\":6307:6310   */\n  dup10\n    /* \"#utility.yul\":6303:6322   */\n  add\n    /* \"#utility.yul\":6297:6323   */\n  mload\n    /* \"#utility.yul\":6355:6403   */\n  tag_125\n    /* \"#utility.yul\":6397:6401   */\n  0x1f\n    /* \"#utility.yul\":6389:6395   */\n  dup10\n    /* \"#utility.yul\":6385:6402   */\n  and\n    /* \"#utility.yul\":6374:6383   */\n  dup3\n    /* \"#utility.yul\":6355:6403   */\n  tag_36\n  jump\t// in\ntag_125:\n    /* \"#utility.yul\":6347:6353   */\n  dup4\n    /* \"#utility.yul\":6340:6404   */\n  sstore\n    /* \"#utility.yul\":6262:6418   */\n  pop\n    /* \"#utility.yul\":6239:6418   */\ntag_124:\n    /* \"#utility.yul\":6464:6465   */\n  0x01\n    /* \"#utility.yul\":6460:6461   */\n  0x02\n    /* \"#utility.yul\":6452:6458   */\n  dup9\n    /* \"#utility.yul\":6448:6462   */\n  mul\n    /* \"#utility.yul\":6444:6466   */\n  add\n    /* \"#utility.yul\":6438:6442   */\n  dup9\n    /* \"#utility.yul\":6431:6467   */\n  sstore\n    /* \"#utility.yul\":5867:6477   */\n  pop\n  pop\n  pop\n    /* \"#utility.yul\":5830:6716   */\ntag_116:\n  pop\n    /* \"#utility.yul\":5422:6722   */\n  pop\n  pop\n  pop\n    /* \"#utility.yul\":5332:6722   */\n  pop\n  pop\n  jump\t// out\n    /* \"#utility.yul\":6728:6807   */\ntag_39:\n    /* \"#utility.yul\":6767:6774   */\n  0x00\n    /* \"#utility.yul\":6796:6801   */\n  dup2\n    /* \"#utility.yul\":6785:6801   */\n  swap1\n  pop\n    /* \"#utility.yul\":6728:6807   */\n  swap2\n  swap1\n  pop\n  jump\t// out\n    /* \"#utility.yul\":6813:6970   */\ntag_40:\n    /* \"#utility.yul\":6918:6963   */\n  tag_128\n    /* \"#utility.yul\":6938:6962   */\n  tag_129\n    /* \"#utility.yul\":6956:6961   */\n  dup3\n    /* \"#utility.yul\":6938:6962   */\n  tag_26\n  jump\t// in\ntag_129:\n    /* \"#utility.yul\":6918:6963   */\n  tag_39\n  jump\t// in\ntag_128:\n    /* \"#utility.yul\":6913:6916   */\n  dup3\n    /* \"#utility.yul\":6906:6964   */\n  mstore\n    /* \"#utility.yul\":6813:6970   */\n  pop\n  pop\n  jump\t// out\n    /* \"#utility.yul\":6976:7232   */\ntag_12:\n    /* \"#utility.yul\":7088:7091   */\n  0x00\n    /* \"#utility.yul\":7103:7178   */\n  tag_131\n    /* \"#utility.yul\":7174:7177   */\n  dup3\n    /* \"#utility.yul\":7165:7171   */\n  dup5\n    /* \"#utility.yul\":7103:7178   */\n  tag_40\n  jump\t// in\ntag_131:\n    /* \"#utility.yul\":7203:7205   */\n  0x20\n    /* \"#utility.yul\":7198:7201   */\n  dup3\n    /* \"#utility.yul\":7194:7206   */\n  add\n    /* \"#utility.yul\":7187:7206   */\n  swap2\n  pop\n    /* \"#utility.yul\":7223:7226   */\n  dup2\n    /* \"#utility.yul\":7216:7226   */\n  swap1\n  pop\n    /* \"#utility.yul\":6976:7232   */\n  swap3\n  swap2\n  pop\n  pop\n  jump\t// out\n    /* \"#utility.yul\":7238:7364   */\ntag_41:\n    /* \"#utility.yul\":7275:7282   */\n  0x00\n    /* \"#utility.yul\":7315:7357   */\n  0xffffffffffffffffffffffffffffffffffffffff\n    /* \"#utility.yul\":7308:7313   */\n  dup3\n    /* \"#utility.yul\":7304:7358   */\n  and\n    /* \"#utility.yul\":7293:7358   */\n  swap1\n  pop\n    /* \"#utility.yul\":7238:7364   */\n  swap2\n  swap1\n  pop\n  jump\t// out\n    /* \"#utility.yul\":7370:7466   */\ntag_42:\n    /* \"#utility.yul\":7407:7414   */\n  0x00\n    /* \"#utility.yul\":7436:7460   */\n  tag_134\n    /* \"#utility.yul\":7454:7459   */\n  dup3\n    /* \"#utility.yul\":7436:7460   */\n  tag_41\n  jump\t// in\ntag_134:\n    /* \"#utility.yul\":7425:7460   */\n  swap1\n  pop\n    /* \"#utility.yul\":7370:7466   */\n  swap2\n  swap1\n  pop\n  jump\t// out\n    /* \"#utility.yul\":7472:7566   */\ntag_43:\n    /* \"#utility.yul\":7505:7513   */\n  0x00\n    /* \"#utility.yul\":7553:7558   */\n  dup2\n    /* \"#utility.yul\":7549:7551   */\n  0x60\n    /* \"#utility.yul\":7545:7559   */\n  shl\n    /* \"#utility.yul\":7524:7559   */\n  swap1\n  pop\n    /* \"#utility.yul\":7472:7566   */\n  swap2\n  swap1\n  pop\n  jump\t// out\n    /* \"#utility.yul\":7572:7666   */\ntag_44:\n    /* \"#utility.yul\":7611:7618   */\n  0x00\n    /* \"#utility.yul\":7640:7660   */\n  tag_137\n    /* \"#utility.yul\":7654:7659   */\n  dup3\n    /* \"#utility.yul\":7640:7660   */\n  tag_43\n  jump\t// in\ntag_137:\n    /* \"#utility.yul\":7629:7660   */\n  swap1\n  pop\n    /* \"#utility.yul\":7572:7666   */\n  swap2\n  swap1\n  pop\n  jump\t// out\n    /* \"#utility.yul\":7672:7772   */\ntag_45:\n    /* \"#utility.yul\":7711:7718   */\n  0x00\n    /* \"#utility.yul\":7740:7766   */\n  tag_139\n    /* \"#utility.yul\":7760:7765   */\n  dup3\n    /* \"#utility.yul\":7740:7766   */\n  tag_44\n  jump\t// in\ntag_139:\n    /* \"#utility.yul\":7729:7766   */\n  swap1\n  pop\n    /* \"#utility.yul\":7672:7772   */\n  swap2\n  swap1\n  pop\n  jump\t// out\n    /* \"#utility.yul\":7778:7935   */\ntag_46:\n    /* \"#utility.yul\":7883:7928   */\n  tag_141\n    /* \"#utility.yul\":7903:7927   */\n  tag_142\n    /* \"#utility.yul\":7921:7926   */\n  dup3\n    /* \"#utility.yul\":7903:7927   */\n  tag_42\n  jump\t// in\ntag_142:\n    /* \"#utility.yul\":7883:7928   */\n  tag_45\n  jump\t// in\ntag_141:\n    /* \"#utility.yul\":7878:7881   */\n  dup3\n    /* \"#utility.yul\":7871:7929   */\n  mstore\n    /* \"#utility.yul\":7778:7935   */\n  pop\n  pop\n  jump\t// out\n    /* \"#utility.yul\":7941:8197   */\ntag_15:\n    /* \"#utility.yul\":8053:8056   */\n  0x00\n    /* \"#utility.yul\":8068:8143   */\n  tag_144\n    /* \"#utility.yul\":8139:8142   */\n  dup3\n    /* \"#utility.yul\":8130:8136   */\n  dup5\n    /* \"#utility.yul\":8068:8143   */\n  tag_46\n  jump\t// in\ntag_144:\n    /* \"#utility.yul\":8168:8170   */\n  0x14\n    /* \"#utility.yul\":8163:8166   */\n  dup3\n    /* \"#utility.yul\":8159:8171   */\n  add\n    /* \"#utility.yul\":8152:8171   */\n  swap2\n  pop\n    /* \"#utility.yul\":8188:8191   */\n  dup2\n    /* \"#utility.yul\":8181:8191   */\n  swap1\n  pop\n    /* \"#utility.yul\":7941:8197   */\n  swap3\n  swap2\n  pop\n  pop\n  jump\t// out\n    /* \"Day01/bytes.sol\":57:556  contract BytesDatatype{... */\ntag_18:\n  dataSize(sub_0)\n  dup1\n  dataOffset(sub_0)\n  0x00\n  codecopy\n  0x00\n  return\nstop\n\nsub_0: assembly {\n        /* \"Day01/bytes.sol\":57:556  contract BytesDatatype{... */\n      mstore(0x40, 0x80)\n      callvalue\n      dup1\n      iszero\n      tag_1\n      jumpi\n      0x00\n      dup1\n      revert\n    tag_1:\n      pop\n      jumpi(tag_2, lt(calldatasize, 0x04))\n      shr(0xe0, calldataload(0x00))\n      dup1\n      0xca08a77f\n      gt\n      tag_11\n      jumpi\n      dup1\n      0xca08a77f\n      eq\n      tag_7\n      jumpi\n      dup1\n      0xcbe9cfd7\n      eq\n      tag_8\n      jumpi\n      dup1\n      0xd8778f93\n      eq\n      tag_9\n      jumpi\n      dup1\n      0xf3fc3275\n      eq\n      tag_10\n      jumpi\n      jump(tag_2)\n    tag_11:\n      dup1\n      0x2a1fd42c\n      eq\n      tag_3\n      jumpi\n      dup1\n      0x356bc81e\n      eq\n      tag_4\n      jumpi\n      dup1\n      0x55c4baff\n      eq\n      tag_5\n      jumpi\n      dup1\n      0x97e3bca5\n      eq\n      tag_6\n      jumpi\n    tag_2:\n      0x00\n      dup1\n      revert\n        /* \"Day01/bytes.sol\":461:554  function getByte(uint i) public view returns ( bytes1) {... */\n    tag_3:\n      tag_12\n      0x04\n      dup1\n      calldatasize\n      sub\n      dup2\n      add\n      swap1\n      tag_13\n      swap2\n      swap1\n      tag_14\n      jump\t// in\n    tag_13:\n      tag_15\n      jump\t// in\n    tag_12:\n      mload(0x40)\n      tag_16\n      swap2\n      swap1\n      tag_17\n      jump\t// in\n    tag_16:\n      mload(0x40)\n      dup1\n      swap2\n      sub\n      swap1\n      return\n        /* \"Day01/bytes.sol\":424:453  bytes2 public xyz = hex\"ffff\" */\n    tag_4:\n      tag_18\n      tag_19\n      jump\t// in\n    tag_18:\n      mload(0x40)\n      tag_20\n      swap2\n      swap1\n      tag_21\n      jump\t// in\n    tag_20:\n      mload(0x40)\n      dup1\n      swap2\n      sub\n      swap1\n      return\n        /* \"Day01/bytes.sol\":85:113  bytes public emptyBytes = \"\" */\n    tag_5:\n      tag_22\n      tag_23\n      jump\t// in\n    tag_22:\n      mload(0x40)\n      tag_24\n      swap2\n      swap1\n      tag_25\n      jump\t// in\n    tag_24:\n      mload(0x40)\n      dup1\n      swap2\n      sub\n      swap1\n      return\n        /* \"Day01/bytes.sol\":285:339  bytes public intBytes = abi.encodePacked(uint256(255)) */\n    tag_6:\n      tag_26\n      tag_27\n      jump\t// in\n    tag_26:\n      mload(0x40)\n      tag_28\n      swap2\n      swap1\n      tag_25\n      jump\t// in\n    tag_28:\n      mload(0x40)\n      dup1\n      swap2\n      sub\n      swap1\n      return\n        /* \"Day01/bytes.sol\":180:218  bytes public InitBytes = new bytes(16) */\n    tag_7:\n      tag_29\n      tag_30\n      jump\t// in\n    tag_29:\n      mload(0x40)\n      tag_31\n      swap2\n      swap1\n      tag_25\n      jump\t// in\n    tag_31:\n      mload(0x40)\n      dup1\n      swap2\n      sub\n      swap1\n      return\n        /* \"Day01/bytes.sol\":224:279  bytes public hexBytes = hex\"48656c6c6f2c20576f726c6421\" */\n    tag_8:\n      tag_32\n      tag_33\n      jump\t// in\n    tag_32:\n      mload(0x40)\n      tag_34\n      swap2\n      swap1\n      tag_25\n      jump\t// in\n    tag_34:\n      mload(0x40)\n      dup1\n      swap2\n      sub\n      swap1\n      return\n        /* \"Day01/bytes.sol\":345:410  bytes public addressBytes = abi.encodePacked(address(msg.sender)) */\n    tag_9:\n      tag_35\n      tag_36\n      jump\t// in\n    tag_35:\n      mload(0x40)\n      tag_37\n      swap2\n      swap1\n      tag_25\n      jump\t// in\n    tag_37:\n      mload(0x40)\n      dup1\n      swap2\n      sub\n      swap1\n      return\n        /* \"Day01/bytes.sol\":119:174  bytes public stringBytes = \"Hello, World!Hello, World!\" */\n    tag_10:\n      tag_38\n      tag_39\n      jump\t// in\n    tag_38:\n      mload(0x40)\n      tag_40\n      swap2\n      swap1\n      tag_25\n      jump\t// in\n    tag_40:\n      mload(0x40)\n      dup1\n      swap2\n      sub\n      swap1\n      return\n        /* \"Day01/bytes.sol\":461:554  function getByte(uint i) public view returns ( bytes1) {... */\n    tag_15:\n        /* \"Day01/bytes.sol\":508:514  bytes1 */\n      0x00\n        /* \"Day01/bytes.sol\":533:544  stringBytes */\n      0x01\n        /* \"Day01/bytes.sol\":545:546  i */\n      dup3\n        /* \"Day01/bytes.sol\":533:547  stringBytes[i] */\n      dup2\n      sload\n      tag_42\n      swap1\n      tag_43\n      jump\t// in\n    tag_42:\n      dup2\n      lt\n      tag_44\n      jumpi\n      tag_45\n      tag_46\n      jump\t// in\n    tag_45:\n    tag_44:\n      dup2\n      sload\n      0x01\n      and\n      iszero\n      tag_47\n      jumpi\n      swap1\n      0x00\n      mstore\n      keccak256(0x00, 0x20)\n      swap1\n      0x20\n      swap2\n      dup3\n      dup3\n      div\n      add\n      swap2\n      swap1\n      mod\n    tag_47:\n      swap1\n      sload\n      swap1\n      byte\n      0x0100000000000000000000000000000000000000000000000000000000000000\n      mul\n        /* \"Day01/bytes.sol\":526:547  return stringBytes[i] */\n      swap1\n      pop\n        /* \"Day01/bytes.sol\":461:554  function getByte(uint i) public view returns ( bytes1) {... */\n      swap2\n      swap1\n      pop\n      jump\t// out\n        /* \"Day01/bytes.sol\":424:453  bytes2 public xyz = hex\"ffff\" */\n    tag_19:\n      0x06\n      0x00\n      swap1\n      sload\n      swap1\n      0x0100\n      exp\n      swap1\n      div\n      0xf0\n      shl\n      dup2\n      jump\t// out\n        /* \"Day01/bytes.sol\":85:113  bytes public emptyBytes = \"\" */\n    tag_23:\n      0x00\n      dup1\n      sload\n      tag_48\n      swap1\n      tag_43\n      jump\t// in\n    tag_48:\n      dup1\n      0x1f\n      add\n      0x20\n      dup1\n      swap2\n      div\n      mul\n      0x20\n      add\n      mload(0x40)\n      swap1\n      dup2\n      add\n      0x40\n      mstore\n      dup1\n      swap3\n      swap2\n      swap1\n      dup2\n      dup2\n      mstore\n      0x20\n      add\n      dup3\n      dup1\n      sload\n      tag_49\n      swap1\n      tag_43\n      jump\t// in\n    tag_49:\n      dup1\n      iszero\n      tag_50\n      jumpi\n      dup1\n      0x1f\n      lt\n      tag_51\n      jumpi\n      0x0100\n      dup1\n      dup4\n      sload\n      div\n      mul\n      dup4\n      mstore\n      swap2\n      0x20\n      add\n      swap2\n      jump(tag_50)\n    tag_51:\n      dup3\n      add\n      swap2\n      swap1\n      0x00\n      mstore\n      keccak256(0x00, 0x20)\n      swap1\n    tag_52:\n      dup2\n      sload\n      dup2\n      mstore\n      swap1\n      0x01\n      add\n      swap1\n      0x20\n      add\n      dup1\n      dup4\n      gt\n      tag_52\n      jumpi\n      dup3\n      swap1\n      sub\n      0x1f\n      and\n      dup3\n      add\n      swap2\n    tag_50:\n      pop\n      pop\n      pop\n      pop\n      pop\n      dup2\n      jump\t// out\n        /* \"Day01/bytes.sol\":285:339  bytes public intBytes = abi.encodePacked(uint256(255)) */\n    tag_27:\n      0x04\n      dup1\n      sload\n      tag_53\n      swap1\n      tag_43\n      jump\t// in\n    tag_53:\n      dup1\n      0x1f\n      add\n      0x20\n      dup1\n      swap2\n      div\n      mul\n      0x20\n      add\n      mload(0x40)\n      swap1\n      dup2\n      add\n      0x40\n      mstore\n      dup1\n      swap3\n      swap2\n      swap1\n      dup2\n      dup2\n      mstore\n      0x20\n      add\n      dup3\n      dup1\n      sload\n      tag_54\n      swap1\n      tag_43\n      jump\t// in\n    tag_54:\n      dup1\n      iszero\n      tag_55\n      jumpi\n      dup1\n      0x1f\n      lt\n      tag_56\n      jumpi\n      0x0100\n      dup1\n      dup4\n      sload\n      div\n      mul\n      dup4\n      mstore\n      swap2\n      0x20\n      add\n      swap2\n      jump(tag_55)\n    tag_56:\n      dup3\n      add\n      swap2\n      swap1\n      0x00\n      mstore\n      keccak256(0x00, 0x20)\n      swap1\n    tag_57:\n      dup2\n      sload\n      dup2\n      mstore\n      swap1\n      0x01\n      add\n      swap1\n      0x20\n      add\n      dup1\n      dup4\n      gt\n      tag_57\n      jumpi\n      dup3\n      swap1\n      sub\n      0x1f\n      and\n      dup3\n      add\n      swap2\n    tag_55:\n      pop\n      pop\n      pop\n      pop\n      pop\n      dup2\n      jump\t// out\n        /* \"Day01/bytes.sol\":180:218  bytes public InitBytes = new bytes(16) */\n    tag_30:\n      0x02\n      dup1\n      sload\n      tag_58\n      swap1\n      tag_43\n      jump\t// in\n    tag_58:\n      dup1\n      0x1f\n      add\n      0x20\n      dup1\n      swap2\n      div\n      mul\n      0x20\n      add\n      mload(0x40)\n      swap1\n      dup2\n      add\n      0x40\n      mstore\n      dup1\n      swap3\n      swap2\n      swap1\n      dup2\n      dup2\n      mstore\n      0x20\n      add\n      dup3\n      dup1\n      sload\n      tag_59\n      swap1\n      tag_43\n      jump\t// in\n    tag_59:\n      dup1\n      iszero\n      tag_60\n      jumpi\n      dup1\n      0x1f\n      lt\n      tag_61\n      jumpi\n      0x0100\n      dup1\n      dup4\n      sload\n      div\n      mul\n      dup4\n      mstore\n      swap2\n      0x20\n      add\n      swap2\n      jump(tag_60)\n    tag_61:\n      dup3\n      add\n      swap2\n      swap1\n      0x00\n      mstore\n      keccak256(0x00, 0x20)\n      swap1\n    tag_62:\n      dup2\n      sload\n      dup2\n      mstore\n      swap1\n      0x01\n      add\n      swap1\n      0x20\n      add\n      dup1\n      dup4\n      gt\n      tag_62\n      jumpi\n      dup3\n      swap1\n      sub\n      0x1f\n      and\n      dup3\n      add\n      swap2\n    tag_60:\n      pop\n      pop\n      pop\n      pop\n      pop\n      dup2\n      jump\t// out\n        /* \"Day01/bytes.sol\":224:279  bytes public hexBytes = hex\"48656c6c6f2c20576f726c6421\" */\n    tag_33:\n      0x03\n      dup1\n      sload\n      tag_63\n      swap1\n      tag_43\n      jump\t// in\n    tag_63:\n      dup1\n      0x1f\n      add\n      0x20\n      dup1\n      swap2\n      div\n      mul\n      0x20\n      add\n      mload(0x40)\n      swap1\n      dup2\n      add\n      0x40\n      mstore\n      dup1\n      swap3\n      swap2\n      swap1\n      dup2\n      dup2\n      mstore\n      0x20\n      add\n      dup3\n      dup1\n      sload\n      tag_64\n      swap1\n      tag_43\n      jump\t// in\n    tag_64:\n      dup1\n      iszero\n      tag_65\n      jumpi\n      dup1\n      0x1f\n      lt\n      tag_66\n      jumpi\n      0x0100\n      dup1\n      dup4\n      sload\n      div\n      mul\n      dup4\n      mstore\n      swap2\n      0x20\n      add\n      swap2\n      jump(tag_65)\n    tag_66:\n      dup3\n      add\n      swap2\n      swap1\n      0x00\n      mstore\n      keccak256(0x00, 0x20)\n      swap1\n    tag_67:\n      dup2\n      sload\n      dup2\n      mstore\n      swap1\n      0x01\n      add\n      swap1\n      0x20\n      add\n      dup1\n      dup4\n      gt\n      tag_67\n      jumpi\n      dup3\n      swap1\n      sub\n      0x1f\n      and\n      dup3\n      add\n      swap2\n    tag_65:\n      pop\n      pop\n      pop\n      pop\n      pop\n      dup2\n      jump\t// out\n        /* \"Day01/bytes.sol\":345:410  bytes public addressBytes = abi.encodePacked(address(msg.sender)) */\n    tag_36:\n      0x05\n      dup1\n      sload\n      tag_68\n      swap1\n      tag_43\n      jump\t// in\n    tag_68:\n      dup1\n      0x1f\n      add\n      0x20\n      dup1\n      swap2\n      div\n      mul\n      0x20\n      add\n      mload(0x40)\n      swap1\n      dup2\n      add\n      0x40\n      mstore\n      dup1\n      swap3\n      swap2\n      swap1\n      dup2\n      dup2\n      mstore\n      0x20\n      add\n      dup3\n      dup1\n      sload\n      tag_69\n      swap1\n      tag_43\n      jump\t// in\n    tag_69:\n      dup1\n      iszero\n      tag_70\n      jumpi\n      dup1\n      0x1f\n      lt\n      tag_71\n      jumpi\n      0x0100\n      dup1\n      dup4\n      sload\n      div\n      mul\n      dup4\n      mstore\n      swap2\n      0x20\n      add\n      swap2\n      jump(tag_70)\n    tag_71:\n      dup3\n      add\n      swap2\n      swap1\n      0x00\n      mstore\n      keccak256(0x00, 0x20)\n      swap1\n    tag_72:\n      dup2\n      sload\n      dup2\n      mstore\n      swap1\n      0x01\n      add\n      swap1\n      0x20\n      add\n      dup1\n      dup4\n      gt\n      tag_72\n      jumpi\n      dup3\n      swap1\n      sub\n      0x1f\n      and\n      dup3\n      add\n      swap2\n    tag_70:\n      pop\n      pop\n      pop\n      pop\n      pop\n      dup2\n      jump\t// out\n        /* \"Day01/bytes.sol\":119:174  bytes public stringBytes = \"Hello, World!Hello, World!\" */\n    tag_39:\n      0x01\n      dup1\n      sload\n      tag_73\n      swap1\n      tag_43\n      jump\t// in\n    tag_73:\n      dup1\n      0x1f\n      add\n      0x20\n      dup1\n      swap2\n      div\n      mul\n      0x20\n      add\n      mload(0x40)\n      swap1\n      dup2\n      add\n      0x40\n      mstore\n      dup1\n      swap3\n      swap2\n      swap1\n      dup2\n      dup2\n      mstore\n      0x20\n      add\n      dup3\n      dup1\n      sload\n      tag_74\n      swap1\n      tag_43\n      jump\t// in\n    tag_74:\n      dup1\n      iszero\n      tag_75\n      jumpi\n      dup1\n      0x1f\n      lt\n      tag_76\n      jumpi\n      0x0100\n      dup1\n      dup4\n      sload\n      div\n      mul\n      dup4\n      mstore\n      swap2\n      0x20\n      add\n      swap2\n      jump(tag_75)\n    tag_76:\n      dup3\n      add\n      swap2\n      swap1\n      0x00\n      mstore\n      keccak256(0x00, 0x20)\n      swap1\n    tag_77:\n      dup2\n      sload\n      dup2\n      mstore\n      swap1\n      0x01\n      add\n      swap1\n      0x20\n      add\n      dup1\n      dup4\n      gt\n      tag_77\n      jumpi\n      dup3\n      swap1\n      sub\n      0x1f\n      and\n      dup3\n      add\n      swap2\n    tag_75:\n      pop\n      pop\n      pop\n      pop\n      pop\n      dup2\n      jump\t// out\n        /* \"#utility.yul\":88:205   */\n    tag_79:\n        /* \"#utility.yul\":197:198   */\n      0x00\n        /* \"#utility.yul\":194:195   */\n      dup1\n        /* \"#utility.yul\":187:199   */\n      revert\n        /* \"#utility.yul\":334:411   */\n    tag_81:\n        /* \"#utility.yul\":371:378   */\n      0x00\n        /* \"#utility.yul\":400:405   */\n      dup2\n        /* \"#utility.yul\":389:405   */\n      swap1\n      pop\n        /* \"#utility.yul\":334:411   */\n      swap2\n      swap1\n      pop\n      jump\t// out\n        /* \"#utility.yul\":417:539   */\n    tag_82:\n        /* \"#utility.yul\":490:514   */\n      tag_100\n        /* \"#utility.yul\":508:513   */\n      dup2\n        /* \"#utility.yul\":490:514   */\n      tag_81\n      jump\t// in\n    tag_100:\n        /* \"#utility.yul\":483:488   */\n      dup2\n        /* \"#utility.yul\":480:515   */\n      eq\n        /* \"#utility.yul\":470:533   */\n      tag_101\n      jumpi\n        /* \"#utility.yul\":529:530   */\n      0x00\n        /* \"#utility.yul\":526:527   */\n      dup1\n        /* \"#utility.yul\":519:531   */\n      revert\n        /* \"#utility.yul\":470:533   */\n    tag_101:\n        /* \"#utility.yul\":417:539   */\n      pop\n      jump\t// out\n        /* \"#utility.yul\":545:684   */\n    tag_83:\n        /* \"#utility.yul\":591:596   */\n      0x00\n        /* \"#utility.yul\":629:635   */\n      dup2\n        /* \"#utility.yul\":616:636   */\n      calldataload\n        /* \"#utility.yul\":607:636   */\n      swap1\n      pop\n        /* \"#utility.yul\":645:678   */\n      tag_103\n        /* \"#utility.yul\":672:677   */\n      dup2\n        /* \"#utility.yul\":645:678   */\n      tag_82\n      jump\t// in\n    tag_103:\n        /* \"#utility.yul\":545:684   */\n      swap3\n      swap2\n      pop\n      pop\n      jump\t// out\n        /* \"#utility.yul\":690:1019   */\n    tag_14:\n        /* \"#utility.yul\":749:755   */\n      0x00\n        /* \"#utility.yul\":798:800   */\n      0x20\n        /* \"#utility.yul\":786:795   */\n      dup3\n        /* \"#utility.yul\":777:784   */\n      dup5\n        /* \"#utility.yul\":773:796   */\n      sub\n        /* \"#utility.yul\":769:801   */\n      slt\n        /* \"#utility.yul\":766:885   */\n      iszero\n      tag_105\n      jumpi\n        /* \"#utility.yul\":804:883   */\n      tag_106\n      tag_79\n      jump\t// in\n    tag_106:\n        /* \"#utility.yul\":766:885   */\n    tag_105:\n        /* \"#utility.yul\":924:925   */\n      0x00\n        /* \"#utility.yul\":949:1002   */\n      tag_107\n        /* \"#utility.yul\":994:1001   */\n      dup5\n        /* \"#utility.yul\":985:991   */\n      dup3\n        /* \"#utility.yul\":974:983   */\n      dup6\n        /* \"#utility.yul\":970:992   */\n      add\n        /* \"#utility.yul\":949:1002   */\n      tag_83\n      jump\t// in\n    tag_107:\n        /* \"#utility.yul\":939:1002   */\n      swap2\n      pop\n        /* \"#utility.yul\":895:1012   */\n      pop\n        /* \"#utility.yul\":690:1019   */\n      swap3\n      swap2\n      pop\n      pop\n      jump\t// out\n        /* \"#utility.yul\":1025:1174   */\n    tag_84:\n        /* \"#utility.yul\":1061:1068   */\n      0x00\n        /* \"#utility.yul\":1101:1167   */\n      0xff00000000000000000000000000000000000000000000000000000000000000\n        /* \"#utility.yul\":1094:1099   */\n      dup3\n        /* \"#utility.yul\":1090:1168   */\n      and\n        /* \"#utility.yul\":1079:1168   */\n      swap1\n      pop\n        /* \"#utility.yul\":1025:1174   */\n      swap2\n      swap1\n      pop\n      jump\t// out\n        /* \"#utility.yul\":1180:1295   */\n    tag_85:\n        /* \"#utility.yul\":1265:1288   */\n      tag_110\n        /* \"#utility.yul\":1282:1287   */\n      dup2\n        /* \"#utility.yul\":1265:1288   */\n      tag_84\n      jump\t// in\n    tag_110:\n        /* \"#utility.yul\":1260:1263   */\n      dup3\n        /* \"#utility.yul\":1253:1289   */\n      mstore\n        /* \"#utility.yul\":1180:1295   */\n      pop\n      pop\n      jump\t// out\n        /* \"#utility.yul\":1301:1519   */\n    tag_17:\n        /* \"#utility.yul\":1392:1396   */\n      0x00\n        /* \"#utility.yul\":1430:1432   */\n      0x20\n        /* \"#utility.yul\":1419:1428   */\n      dup3\n        /* \"#utility.yul\":1415:1433   */\n      add\n        /* \"#utility.yul\":1407:1433   */\n      swap1\n      pop\n        /* \"#utility.yul\":1443:1512   */\n      tag_112\n        /* \"#utility.yul\":1509:1510   */\n      0x00\n        /* \"#utility.yul\":1498:1507   */\n      dup4\n        /* \"#utility.yul\":1494:1511   */\n      add\n        /* \"#utility.yul\":1485:1491   */\n      dup5\n        /* \"#utility.yul\":1443:1512   */\n      tag_85\n      jump\t// in\n    tag_112:\n        /* \"#utility.yul\":1301:1519   */\n      swap3\n      swap2\n      pop\n      pop\n      jump\t// out\n        /* \"#utility.yul\":1525:1674   */\n    tag_86:\n        /* \"#utility.yul\":1561:1568   */\n      0x00\n        /* \"#utility.yul\":1601:1667   */\n      0xffff000000000000000000000000000000000000000000000000000000000000\n        /* \"#utility.yul\":1594:1599   */\n      dup3\n        /* \"#utility.yul\":1590:1668   */\n      and\n        /* \"#utility.yul\":1579:1668   */\n      swap1\n      pop\n        /* \"#utility.yul\":1525:1674   */\n      swap2\n      swap1\n      pop\n      jump\t// out\n        /* \"#utility.yul\":1680:1795   */\n    tag_87:\n        /* \"#utility.yul\":1765:1788   */\n      tag_115\n        /* \"#utility.yul\":1782:1787   */\n      dup2\n        /* \"#utility.yul\":1765:1788   */\n      tag_86\n      jump\t// in\n    tag_115:\n        /* \"#utility.yul\":1760:1763   */\n      dup3\n        /* \"#utility.yul\":1753:1789   */\n      mstore\n        /* \"#utility.yul\":1680:1795   */\n      pop\n      pop\n      jump\t// out\n        /* \"#utility.yul\":1801:2019   */\n    tag_21:\n        /* \"#utility.yul\":1892:1896   */\n      0x00\n        /* \"#utility.yul\":1930:1932   */\n      0x20\n        /* \"#utility.yul\":1919:1928   */\n      dup3\n        /* \"#utility.yul\":1915:1933   */\n      add\n        /* \"#utility.yul\":1907:1933   */\n      swap1\n      pop\n        /* \"#utility.yul\":1943:2012   */\n      tag_117\n        /* \"#utility.yul\":2009:2010   */\n      0x00\n        /* \"#utility.yul\":1998:2007   */\n      dup4\n        /* \"#utility.yul\":1994:2011   */\n      add\n        /* \"#utility.yul\":1985:1991   */\n      dup5\n        /* \"#utility.yul\":1943:2012   */\n      tag_87\n      jump\t// in\n    tag_117:\n        /* \"#utility.yul\":1801:2019   */\n      swap3\n      swap2\n      pop\n      pop\n      jump\t// out\n        /* \"#utility.yul\":2025:2123   */\n    tag_88:\n        /* \"#utility.yul\":2076:2082   */\n      0x00\n        /* \"#utility.yul\":2110:2115   */\n      dup2\n        /* \"#utility.yul\":2104:2116   */\n      mload\n        /* \"#utility.yul\":2094:2116   */\n      swap1\n      pop\n        /* \"#utility.yul\":2025:2123   */\n      swap2\n      swap1\n      pop\n      jump\t// out\n        /* \"#utility.yul\":2129:2297   */\n    tag_89:\n        /* \"#utility.yul\":2212:2223   */\n      0x00\n        /* \"#utility.yul\":2246:2252   */\n      dup3\n        /* \"#utility.yul\":2241:2244   */\n      dup3\n        /* \"#utility.yul\":2234:2253   */\n      mstore\n        /* \"#utility.yul\":2286:2290   */\n      0x20\n        /* \"#utility.yul\":2281:2284   */\n      dup3\n        /* \"#utility.yul\":2277:2291   */\n      add\n        /* \"#utility.yul\":2262:2291   */\n      swap1\n      pop\n        /* \"#utility.yul\":2129:2297   */\n      swap3\n      swap2\n      pop\n      pop\n      jump\t// out\n        /* \"#utility.yul\":2303:2549   */\n    tag_90:\n        /* \"#utility.yul\":2384:2385   */\n      0x00\n        /* \"#utility.yul\":2394:2507   */\n    tag_121:\n        /* \"#utility.yul\":2408:2414   */\n      dup4\n        /* \"#utility.yul\":2405:2406   */\n      dup2\n        /* \"#utility.yul\":2402:2415   */\n      lt\n        /* \"#utility.yul\":2394:2507   */\n      iszero\n      tag_123\n      jumpi\n        /* \"#utility.yul\":2493:2494   */\n      dup1\n        /* \"#utility.yul\":2488:2491   */\n      dup3\n        /* \"#utility.yul\":2484:2495   */\n      add\n        /* \"#utility.yul\":2478:2496   */\n      mload\n        /* \"#utility.yul\":2474:2475   */\n      dup2\n        /* \"#utility.yul\":2469:2472   */\n      dup5\n        /* \"#utility.yul\":2465:2476   */\n      add\n        /* \"#utility.yul\":2458:2497   */\n      mstore\n        /* \"#utility.yul\":2430:2432   */\n      0x20\n        /* \"#utility.yul\":2427:2428   */\n      dup2\n        /* \"#utility.yul\":2423:2433   */\n      add\n        /* \"#utility.yul\":2418:2433   */\n      swap1\n      pop\n        /* \"#utility.yul\":2394:2507   */\n      jump(tag_121)\n    tag_123:\n        /* \"#utility.yul\":2541:2542   */\n      0x00\n        /* \"#utility.yul\":2532:2538   */\n      dup5\n        /* \"#utility.yul\":2527:2530   */\n      dup5\n        /* \"#utility.yul\":2523:2539   */\n      add\n        /* \"#utility.yul\":2516:2543   */\n      mstore\n        /* \"#utility.yul\":2365:2549   */\n      pop\n        /* \"#utility.yul\":2303:2549   */\n      pop\n      pop\n      pop\n      jump\t// out\n        /* \"#utility.yul\":2555:2657   */\n    tag_91:\n        /* \"#utility.yul\":2596:2602   */\n      0x00\n        /* \"#utility.yul\":2647:2649   */\n      0x1f\n        /* \"#utility.yul\":2643:2650   */\n      not\n        /* \"#utility.yul\":2638:2640   */\n      0x1f\n        /* \"#utility.yul\":2631:2636   */\n      dup4\n        /* \"#utility.yul\":2627:2641   */\n      add\n        /* \"#utility.yul\":2623:2651   */\n      and\n        /* \"#utility.yul\":2613:2651   */\n      swap1\n      pop\n        /* \"#utility.yul\":2555:2657   */\n      swap2\n      swap1\n      pop\n      jump\t// out\n        /* \"#utility.yul\":2663:3036   */\n    tag_92:\n        /* \"#utility.yul\":2749:2752   */\n      0x00\n        /* \"#utility.yul\":2777:2815   */\n      tag_126\n        /* \"#utility.yul\":2809:2814   */\n      dup3\n        /* \"#utility.yul\":2777:2815   */\n      tag_88\n      jump\t// in\n    tag_126:\n        /* \"#utility.yul\":2831:2901   */\n      tag_127\n        /* \"#utility.yul\":2894:2900   */\n      dup2\n        /* \"#utility.yul\":2889:2892   */\n      dup6\n        /* \"#utility.yul\":2831:2901   */\n      tag_89\n      jump\t// in\n    tag_127:\n        /* \"#utility.yul\":2824:2901   */\n      swap4\n      pop\n        /* \"#utility.yul\":2910:2975   */\n      tag_128\n        /* \"#utility.yul\":2968:2974   */\n      dup2\n        /* \"#utility.yul\":2963:2966   */\n      dup6\n        /* \"#utility.yul\":2956:2960   */\n      0x20\n        /* \"#utility.yul\":2949:2954   */\n      dup7\n        /* \"#utility.yul\":2945:2961   */\n      add\n        /* \"#utility.yul\":2910:2975   */\n      tag_90\n      jump\t// in\n    tag_128:\n        /* \"#utility.yul\":3000:3029   */\n      tag_129\n        /* \"#utility.yul\":3022:3028   */\n      dup2\n        /* \"#utility.yul\":3000:3029   */\n      tag_91\n      jump\t// in\n    tag_129:\n        /* \"#utility.yul\":2995:2998   */\n      dup5\n        /* \"#utility.yul\":2991:3030   */\n      add\n        /* \"#utility.yul\":2984:3030   */\n      swap2\n      pop\n        /* \"#utility.yul\":2753:3036   */\n      pop\n        /* \"#utility.yul\":2663:3036   */\n      swap3\n      swap2\n      pop\n      pop\n      jump\t// out\n        /* \"#utility.yul\":3042:3351   */\n    tag_25:\n        /* \"#utility.yul\":3153:3157   */\n      0x00\n        /* \"#utility.yul\":3191:3193   */\n      0x20\n        /* \"#utility.yul\":3180:3189   */\n      dup3\n        /* \"#utility.yul\":3176:3194   */\n      add\n        /* \"#utility.yul\":3168:3194   */\n      swap1\n      pop\n        /* \"#utility.yul\":3240:3249   */\n      dup2\n        /* \"#utility.yul\":3234:3238   */\n      dup2\n        /* \"#utility.yul\":3230:3250   */\n      sub\n        /* \"#utility.yul\":3226:3227   */\n      0x00\n        /* \"#utility.yul\":3215:3224   */\n      dup4\n        /* \"#utility.yul\":3211:3228   */\n      add\n        /* \"#utility.yul\":3204:3251   */\n      mstore\n        /* \"#utility.yul\":3268:3344   */\n      tag_131\n        /* \"#utility.yul\":3339:3343   */\n      dup2\n        /* \"#utility.yul\":3330:3336   */\n      dup5\n        /* \"#utility.yul\":3268:3344   */\n      tag_92\n      jump\t// in\n    tag_131:\n        /* \"#utility.yul\":3260:3344   */\n      swap1\n      pop\n        /* \"#utility.yul\":3042:3351   */\n      swap3\n      swap2\n      pop\n      pop\n      jump\t// out\n        /* \"#utility.yul\":3357:3537   */\n    tag_93:\n        /* \"#utility.yul\":3405:3482   */\n      0x4e487b7100000000000000000000000000000000000000000000000000000000\n        /* \"#utility.yul\":3402:3403   */\n      0x00\n        /* \"#utility.yul\":3395:3483   */\n      mstore\n        /* \"#utility.yul\":3502:3506   */\n      0x22\n        /* \"#utility.yul\":3499:3500   */\n      0x04\n        /* \"#utility.yul\":3492:3507   */\n      mstore\n        /* \"#utility.yul\":3526:3530   */\n      0x24\n        /* \"#utility.yul\":3523:3524   */\n      0x00\n        /* \"#utility.yul\":3516:3531   */\n      revert\n        /* \"#utility.yul\":3543:3863   */\n    tag_43:\n        /* \"#utility.yul\":3587:3593   */\n      0x00\n        /* \"#utility.yul\":3624:3625   */\n      0x02\n        /* \"#utility.yul\":3618:3622   */\n      dup3\n        /* \"#utility.yul\":3614:3626   */\n      div\n        /* \"#utility.yul\":3604:3626   */\n      swap1\n      pop\n        /* \"#utility.yul\":3671:3672   */\n      0x01\n        /* \"#utility.yul\":3665:3669   */\n      dup3\n        /* \"#utility.yul\":3661:3673   */\n      and\n        /* \"#utility.yul\":3692:3710   */\n      dup1\n        /* \"#utility.yul\":3682:3763   */\n      tag_134\n      jumpi\n        /* \"#utility.yul\":3748:3752   */\n      0x7f\n        /* \"#utility.yul\":3740:3746   */\n      dup3\n        /* \"#utility.yul\":3736:3753   */\n      and\n        /* \"#utility.yul\":3726:3753   */\n      swap2\n      pop\n        /* \"#utility.yul\":3682:3763   */\n    tag_134:\n        /* \"#utility.yul\":3810:3812   */\n      0x20\n        /* \"#utility.yul\":3802:3808   */\n      dup3\n        /* \"#utility.yul\":3799:3813   */\n      lt\n        /* \"#utility.yul\":3779:3797   */\n      dup2\n        /* \"#utility.yul\":3776:3814   */\n      sub\n        /* \"#utility.yul\":3773:3857   */\n      tag_135\n      jumpi\n        /* \"#utility.yul\":3829:3847   */\n      tag_136\n      tag_93\n      jump\t// in\n    tag_136:\n        /* \"#utility.yul\":3773:3857   */\n    tag_135:\n        /* \"#utility.yul\":3594:3863   */\n      pop\n        /* \"#utility.yul\":3543:3863   */\n      swap2\n      swap1\n      pop\n      jump\t// out\n        /* \"#utility.yul\":3869:4049   */\n    tag_46:\n        /* \"#utility.yul\":3917:3994   */\n      0x4e487b7100000000000000000000000000000000000000000000000000000000\n        /* \"#utility.yul\":3914:3915   */\n      0x00\n        /* \"#utility.yul\":3907:3995   */\n      mstore\n        /* \"#utility.yul\":4014:4018   */\n      0x32\n        /* \"#utility.yul\":4011:4012   */\n      0x04\n        /* \"#utility.yul\":4004:4019   */\n      mstore\n        /* \"#utility.yul\":4038:4042   */\n      0x24\n        /* \"#utility.yul\":4035:4036   */\n      0x00\n        /* \"#utility.yul\":4028:4043   */\n      revert\n\n    auxdata: 0xa26469706673582212200b12d170beccebf17f62a3e16575db6adee4a9f79adef25312e497615190129464736f6c63430008120033\n}\n",
				"bytecode": {
					"linkReferences": {},
					"object": "6080604052604051806020016040528060008152506000908162000024919062000447565b506040518060400160405280601a81526020017f48656c6c6f2c20576f726c642148656c6c6f2c20576f726c6421000000000000815250600190816200006b919062000447565b50601067ffffffffffffffff8111156200008a5762000089620001d8565b5b6040519080825280601f01601f191660200182016040528015620000bd5781602001600182028036833780820191505090505b5060029081620000ce919062000539565b506040518060400160405280600d81526020017f48656c6c6f2c20576f726c6421000000000000000000000000000000000000008152506003908162000115919062000447565b5060ff6040516020016200012a919062000645565b6040516020818303038152906040526004908162000149919062000539565b50336040516020016200015d9190620006e6565b604051602081830303815290604052600590816200017c919062000539565b507fffff000000000000000000000000000000000000000000000000000000000000600660006101000a81548161ffff021916908360f01c0217905550348015620001c657600080fd5b5062000703565b600081519050919050565b7f4e487b7100000000000000000000000000000000000000000000000000000000600052604160045260246000fd5b7f4e487b7100000000000000000000000000000000000000000000000000000000600052602260045260246000fd5b600060028204905060018216806200024f57607f821691505b60208210810362000265576200026462000207565b5b50919050565b60008190508160005260206000209050919050565b60006020601f8301049050919050565b600082821b905092915050565b600060088302620002cf7fffffffffffffffffffffffffffffffffffffffffffffffffffffffffffffffff8262000290565b620002db868362000290565b95508019841693508086168417925050509392505050565b6000819050919050565b6000819050919050565b600062000328620003226200031c84620002f3565b620002fd565b620002f3565b9050919050565b6000819050919050565b620003448362000307565b6200035c62000353826200032f565b8484546200029d565b825550505050565b600090565b6200037362000364565b6200038081848462000339565b505050565b5b81811015620003a8576200039c60008262000369565b60018101905062000386565b5050565b601f821115620003f757620003c1816200026b565b620003cc8462000280565b81016020851015620003dc578190505b620003f4620003eb8562000280565b83018262000385565b50505b505050565b600082821c905092915050565b60006200041c60001984600802620003fc565b1980831691505092915050565b600062000437838362000409565b9150826002028217905092915050565b6200045282620001cd565b67ffffffffffffffff8111156200046e576200046d620001d8565b5b6200047a825462000236565b62000487828285620003ac565b600060209050601f831160018114620004bf5760008415620004aa578287015190505b620004b6858262000429565b86555062000526565b601f198416620004cf866200026b565b60005b82811015620004f957848901518255600182019150602085019450602081019050620004d2565b8683101562000519578489015162000515601f89168262000409565b8355505b6001600288020188555050505b505050505050565b600081519050919050565b62000544826200052e565b67ffffffffffffffff81111562000560576200055f620001d8565b5b6200056c825462000236565b62000579828285620003ac565b600060209050601f831160018114620005b157600084156200059c578287015190505b620005a8858262000429565b86555062000618565b601f198416620005c1866200026b565b60005b82811015620005eb57848901518255600182019150602085019450602081019050620005c4565b868310156200060b578489015162000607601f89168262000409565b8355505b6001600288020188555050505b505050505050565b6000819050919050565b6200063f6200063982620002f3565b62000620565b82525050565b60006200065382846200062a565b60208201915081905092915050565b600073ffffffffffffffffffffffffffffffffffffffff82169050919050565b60006200068f8262000662565b9050919050565b60008160601b9050919050565b6000620006b08262000696565b9050919050565b6000620006c482620006a3565b9050919050565b620006e0620006da8262000682565b620006b7565b82525050565b6000620006f48284620006cb565b60148201915081905092915050565b6107ec80620007136000396000f3fe608060405234801561001057600080fd5b50600436106100885760003560e01c8063ca08a77f1161005b578063ca08a77f14610117578063cbe9cfd714610135578063d8778f9314610153578063f3fc32751461017157610088565b80632a1fd42c1461008d578063356bc81e146100bd57806355c4baff146100db57806397e3bca5146100f9575b600080fd5b6100a760048036038101906100a2919061059c565b61018f565b6040516100b49190610604565b60405180910390f35b6100c56101fa565b6040516100d2919061065a565b60405180910390f35b6100e361020d565b6040516100f09190610705565b60405180910390f35b61010161029b565b60405161010e9190610705565b60405180910390f35b61011f610329565b60405161012c9190610705565b60405180910390f35b61013d6103b7565b60405161014a9190610705565b60405180910390f35b61015b610445565b6040516101689190610705565b60405180910390f35b6101796104d3565b6040516101869190610705565b60405180910390f35b6000600182815461019f90610756565b81106101ae576101ad610787565b5b8154600116156101cd5790600052602060002090602091828204019190065b9054901a7f0100000000000000000000000000000000000000000000000000000000000000029050919050565b600660009054906101000a900460f01b81565b6000805461021a90610756565b80601f016020809104026020016040519081016040528092919081815260200182805461024690610756565b80156102935780601f1061026857610100808354040283529160200191610293565b820191906000526020600020905b81548152906001019060200180831161027657829003601f168201915b505050505081565b600480546102a890610756565b80601f01602080910402602001604051908101604052809291908181526020018280546102d490610756565b80156103215780601f106102f657610100808354040283529160200191610321565b820191906000526020600020905b81548152906001019060200180831161030457829003601f168201915b505050505081565b6002805461033690610756565b80601f016020809104026020016040519081016040528092919081815260200182805461036290610756565b80156103af5780601f10610384576101008083540402835291602001916103af565b820191906000526020600020905b81548152906001019060200180831161039257829003601f168201915b505050505081565b600380546103c490610756565b80601f01602080910402602001604051908101604052809291908181526020018280546103f090610756565b801561043d5780601f106104125761010080835404028352916020019161043d565b820191906000526020600020905b81548152906001019060200180831161042057829003601f168201915b505050505081565b6005805461045290610756565b80601f016020809104026020016040519081016040528092919081815260200182805461047e90610756565b80156104cb5780601f106104a0576101008083540402835291602001916104cb565b820191906000526020600020905b8154815290600101906020018083116104ae57829003601f168201915b505050505081565b600180546104e090610756565b80601f016020809104026020016040519081016040528092919081815260200182805461050c90610756565b80156105595780601f1061052e57610100808354040283529160200191610559565b820191906000526020600020905b81548152906001019060200180831161053c57829003601f168201915b505050505081565b600080fd5b6000819050919050565b61057981610566565b811461058457600080fd5b50565b60008135905061059681610570565b92915050565b6000602082840312156105b2576105b1610561565b5b60006105c084828501610587565b91505092915050565b60007fff0000000000000000000000000000000000000000000000000000000000000082169050919050565b6105fe816105c9565b82525050565b600060208201905061061960008301846105f5565b92915050565b60007fffff00000000000000000000000000000000000000000000000000000000000082169050919050565b6106548161061f565b82525050565b600060208201905061066f600083018461064b565b92915050565b600081519050919050565b600082825260208201905092915050565b60005b838110156106af578082015181840152602081019050610694565b60008484015250505050565b6000601f19601f8301169050919050565b60006106d782610675565b6106e18185610680565b93506106f1818560208601610691565b6106fa816106bb565b840191505092915050565b6000602082019050818103600083015261071f81846106cc565b905092915050565b7f4e487b7100000000000000000000000000000000000000000000000000000000600052602260045260246000fd5b6000600282049050600182168061076e57607f821691505b60208210810361078157610780610727565b5b50919050565b7f4e487b7100000000000000000000000000000000000000000000000000000000600052603260045260246000fdfea26469706673582212200b12d170beccebf17f62a3e16575db6adee4a9f79adef25312e497615190129464736f6c63430008120033",
					"opcodes": "PUSH1 0x80 PUSH1 0x40 MSTORE PUSH1 0x40 MLOAD DUP1 PUSH1 0x20 ADD PUSH1 0x40 MSTORE DUP1 PUSH1 0x0 DUP2 MSTORE POP PUSH1 0x0 SWAP1 DUP2 PUSH3 0x24 SWAP2 SWAP1 PUSH3 0x447 JUMP JUMPDEST POP PUSH1 0x40 MLOAD DUP1 PUSH1 0x40 ADD PUSH1 0x40 MSTORE DUP1 PUSH1 0x1A DUP2 MSTORE PUSH1 0x20 ADD PUSH32 0x48656C6C6F2C20576F726C642148656C6C6F2C20576F726C6421000000000000 DUP2 MSTORE POP PUSH1 0x1 SWAP1 DUP2 PUSH3 0x6B SWAP2 SWAP1 PUSH3 0x447 JUMP JUMPDEST POP PUSH1 0x10 PUSH8 0xFFFFFFFFFFFFFFFF DUP2 GT ISZERO PUSH3 0x8A JUMPI PUSH3 0x89 PUSH3 0x1D8 JUMP JUMPDEST JUMPDEST PUSH1 0x40 MLOAD SWAP1 DUP1 DUP3 MSTORE DUP1 PUSH1 0x1F ADD PUSH1 0x1F NOT AND PUSH1 0x20 ADD DUP3 ADD PUSH1 0x40 MSTORE DUP1 ISZERO PUSH3 0xBD JUMPI DUP2 PUSH1 0x20 ADD PUSH1 0x1 DUP3 MUL DUP1 CALLDATASIZE DUP4 CALLDATACOPY DUP1 DUP3 ADD SWAP2 POP POP SWAP1 POP JUMPDEST POP PUSH1 0x2 SWAP1 DUP2 PUSH3 0xCE SWAP2 SWAP1 PUSH3 0x539 JUMP JUMPDEST POP PUSH1 0x40 MLOAD DUP1 PUSH1 0x40 ADD PUSH1 0x40 MSTORE DUP1 PUSH1 0xD DUP2 MSTORE PUSH1 0x20 ADD PUSH32 0x48656C6C6F2C20576F726C642100000000000000000000000000000000000000 DUP2 MSTORE POP PUSH1 0x3 SWAP1 DUP2 PUSH3 0x115 SWAP2 SWAP1 PUSH3 0x447 JUMP JUMPDEST POP PUSH1 0xFF PUSH1 0x40 MLOAD PUSH1 0x20 ADD PUSH3 0x12A SWAP2 SWAP1 PUSH3 0x645 JUMP JUMPDEST PUSH1 0x40 MLOAD PUSH1 0x20 DUP2 DUP4 SUB SUB DUP2 MSTORE SWAP1 PUSH1 0x40 MSTORE PUSH1 0x4 SWAP1 DUP2 PUSH3 0x149 SWAP2 SWAP1 PUSH3 0x539 JUMP JUMPDEST POP CALLER PUSH1 0x40 MLOAD PUSH1 0x20 ADD PUSH3 0x15D SWAP2 SWAP1 PUSH3 0x6E6 JUMP JUMPDEST PUSH1 0x40 MLOAD PUSH1 0x20 DUP2 DUP4 SUB SUB DUP2 MSTORE SWAP1 PUSH1 0x40 MSTORE PUSH1 0x5 SWAP1 DUP2 PUSH3 0x17C SWAP2 SWAP1 PUSH3 0x539 JUMP JUMPDEST POP PUSH32 0xFFFF000000000000000000000000000000000000000000000000000000000000 PUSH1 0x6 PUSH1 0x0 PUSH2 0x100 EXP DUP2 SLOAD DUP2 PUSH2 0xFFFF MUL NOT AND SWAP1 DUP4 PUSH1 0xF0 SHR MUL OR SWAP1 SSTORE POP CALLVALUE DUP1 ISZERO PUSH3 0x1C6 JUMPI PUSH1 0x0 DUP1 REVERT JUMPDEST POP PUSH3 0x703 JUMP JUMPDEST PUSH1 0x0 DUP2 MLOAD SWAP1 POP SWAP2 SWAP1 POP JUMP JUMPDEST PUSH32 0x4E487B7100000000000000000000000000000000000000000000000000000000 PUSH1 0x0 MSTORE PUSH1 0x41 PUSH1 0x4 MSTORE PUSH1 0x24 PUSH1 0x0 REVERT JUMPDEST PUSH32 0x4E487B7100000000000000000000000000000000000000000000000000000000 PUSH1 0x0 MSTORE PUSH1 0x22 PUSH1 0x4 MSTORE PUSH1 0x24 PUSH1 0x0 REVERT JUMPDEST PUSH1 0x0 PUSH1 0x2 DUP3 DIV SWAP1 POP PUSH1 0x1 DUP3 AND DUP1 PUSH3 0x24F JUMPI PUSH1 0x7F DUP3 AND SWAP2 POP JUMPDEST PUSH1 0x20 DUP3 LT DUP2 SUB PUSH3 0x265 JUMPI PUSH3 0x264 PUSH3 0x207 JUMP JUMPDEST JUMPDEST POP SWAP2 SWAP1 POP JUMP JUMPDEST PUSH1 0x0 DUP2 SWAP1 POP DUP2 PUSH1 0x0 MSTORE PUSH1 0x20 PUSH1 0x0 KECCAK256 SWAP1 POP SWAP2 SWAP1 POP JUMP JUMPDEST PUSH1 0x0 PUSH1 0x20 PUSH1 0x1F DUP4 ADD DIV SWAP1 POP SWAP2 SWAP1 POP JUMP JUMPDEST PUSH1 0x0 DUP3 DUP3 SHL SWAP1 POP SWAP3 SWAP2 POP POP JUMP JUMPDEST PUSH1 0x0 PUSH1 0x8 DUP4 MUL PUSH3 0x2CF PUSH32 0xFFFFFFFFFFFFFFFFFFFFFFFFFFFFFFFFFFFFFFFFFFFFFFFFFFFFFFFFFFFFFFFF DUP3 PUSH3 0x290 JUMP JUMPDEST PUSH3 0x2DB DUP7 DUP4 PUSH3 0x290 JUMP JUMPDEST SWAP6 POP DUP1 NOT DUP5 AND SWAP4 POP DUP1 DUP7 AND DUP5 OR SWAP3 POP POP POP SWAP4 SWAP3 POP POP POP JUMP JUMPDEST PUSH1 0x0 DUP2 SWAP1 POP SWAP2 SWAP1 POP JUMP JUMPDEST PUSH1 0x0 DUP2 SWAP1 POP SWAP2 SWAP1 POP JUMP JUMPDEST PUSH1 0x0 PUSH3 0x328 PUSH3 0x322 PUSH3 0x31C DUP5 PUSH3 0x2F3 JUMP JUMPDEST PUSH3 0x2FD JUMP JUMPDEST PUSH3 0x2F3 JUMP JUMPDEST SWAP1 POP SWAP2 SWAP1 POP JUMP JUMPDEST PUSH1 0x0 DUP2 SWAP1 POP SWAP2 SWAP1 POP JUMP JUMPDEST PUSH3 0x344 DUP4 PUSH3 0x307 JUMP JUMPDEST PUSH3 0x35C PUSH3 0x353 DUP3 PUSH3 0x32F JUMP JUMPDEST DUP5 DUP5 SLOAD PUSH3 0x29D JUMP JUMPDEST DUP3 SSTORE POP POP POP POP JUMP JUMPDEST PUSH1 0x0 SWAP1 JUMP JUMPDEST PUSH3 0x373 PUSH3 0x364 JUMP JUMPDEST PUSH3 0x380 DUP2 DUP5 DUP5 PUSH3 0x339 JUMP JUMPDEST POP POP POP JUMP JUMPDEST JUMPDEST DUP2 DUP2 LT ISZERO PUSH3 0x3A8 JUMPI PUSH3 0x39C PUSH1 0x0 DUP3 PUSH3 0x369 JUMP JUMPDEST PUSH1 0x1 DUP2 ADD SWAP1 POP PUSH3 0x386 JUMP JUMPDEST POP POP JUMP JUMPDEST PUSH1 0x1F DUP3 GT ISZERO PUSH3 0x3F7 JUMPI PUSH3 0x3C1 DUP2 PUSH3 0x26B JUMP JUMPDEST PUSH3 0x3CC DUP5 PUSH3 0x280 JUMP JUMPDEST DUP2 ADD PUSH1 0x20 DUP6 LT ISZERO PUSH3 0x3DC JUMPI DUP2 SWAP1 POP JUMPDEST PUSH3 0x3F4 PUSH3 0x3EB DUP6 PUSH3 0x280 JUMP JUMPDEST DUP4 ADD DUP3 PUSH3 0x385 JUMP JUMPDEST POP POP JUMPDEST POP POP POP JUMP JUMPDEST PUSH1 0x0 DUP3 DUP3 SHR SWAP1 POP SWAP3 SWAP2 POP POP JUMP JUMPDEST PUSH1 0x0 PUSH3 0x41C PUSH1 0x0 NOT DUP5 PUSH1 0x8 MUL PUSH3 0x3FC JUMP JUMPDEST NOT DUP1 DUP4 AND SWAP2 POP POP SWAP3 SWAP2 POP POP JUMP JUMPDEST PUSH1 0x0 PUSH3 0x437 DUP4 DUP4 PUSH3 0x409 JUMP JUMPDEST SWAP2 POP DUP3 PUSH1 0x2 MUL DUP3 OR SWAP1 POP SWAP3 SWAP2 POP POP JUMP JUMPDEST PUSH3 0x452 DUP3 PUSH3 0x1CD JUMP JUMPDEST PUSH8 0xFFFFFFFFFFFFFFFF DUP2 GT ISZERO PUSH3 0x46E JUMPI PUSH3 0x46D PUSH3 0x1D8 JUMP JUMPDEST JUMPDEST PUSH3 0x47A DUP3 SLOAD PUSH3 0x236 JUMP JUMPDEST PUSH3 0x487 DUP3 DUP3 DUP6 PUSH3 0x3AC JUMP JUMPDEST PUSH1 0x0 PUSH1 0x20 SWAP1 POP PUSH1 0x1F DUP4 GT PUSH1 0x1 DUP2 EQ PUSH3 0x4BF JUMPI PUSH1 0x0 DUP5 ISZERO PUSH3 0x4AA JUMPI DUP3 DUP8 ADD MLOAD SWAP1 POP JUMPDEST PUSH3 0x4B6 DUP6 DUP3 PUSH3 0x429 JUMP JUMPDEST DUP7 SSTORE POP PUSH3 0x526 JUMP JUMPDEST PUSH1 0x1F NOT DUP5 AND PUSH3 0x4CF DUP7 PUSH3 0x26B JUMP JUMPDEST PUSH1 0x0 JUMPDEST DUP3 DUP2 LT ISZERO PUSH3 0x4F9 JUMPI DUP5 DUP10 ADD MLOAD DUP3 SSTORE PUSH1 0x1 DUP3 ADD SWAP2 POP PUSH1 0x20 DUP6 ADD SWAP5 POP PUSH1 0x20 DUP2 ADD SWAP1 POP PUSH3 0x4D2 JUMP JUMPDEST DUP7 DUP4 LT ISZERO PUSH3 0x519 JUMPI DUP5 DUP10 ADD MLOAD PUSH3 0x515 PUSH1 0x1F DUP10 AND DUP3 PUSH3 0x409 JUMP JUMPDEST DUP4 SSTORE POP JUMPDEST PUSH1 0x1 PUSH1 0x2 DUP9 MUL ADD DUP9 SSTORE POP POP POP JUMPDEST POP POP POP POP POP POP JUMP JUMPDEST PUSH1 0x0 DUP2 MLOAD SWAP1 POP SWAP2 SWAP1 POP JUMP JUMPDEST PUSH3 0x544 DUP3 PUSH3 0x52E JUMP JUMPDEST PUSH8 0xFFFFFFFFFFFFFFFF DUP2 GT ISZERO PUSH3 0x560 JUMPI PUSH3 0x55F PUSH3 0x1D8 JUMP JUMPDEST JUMPDEST PUSH3 0x56C DUP3 SLOAD PUSH3 0x236 JUMP JUMPDEST PUSH3 0x579 DUP3 DUP3 DUP6 PUSH3 0x3AC JUMP JUMPDEST PUSH1 0x0 PUSH1 0x20 SWAP1 POP PUSH1 0x1F DUP4 GT PUSH1 0x1 DUP2 EQ PUSH3 0x5B1 JUMPI PUSH1 0x0 DUP5 ISZERO PUSH3 0x59C JUMPI DUP3 DUP8 ADD MLOAD SWAP1 POP JUMPDEST PUSH3 0x5A8 DUP6 DUP3 PUSH3 0x429 JUMP JUMPDEST DUP7 SSTORE POP PUSH3 0x618 JUMP JUMPDEST PUSH1 0x1F NOT DUP5 AND PUSH3 0x5C1 DUP7 PUSH3 0x26B JUMP JUMPDEST PUSH1 0x0 JUMPDEST DUP3 DUP2 LT ISZERO PUSH3 0x5EB JUMPI DUP5 DUP10 ADD MLOAD DUP3 SSTORE PUSH1 0x1 DUP3 ADD SWAP2 POP PUSH1 0x20 DUP6 ADD SWAP5 POP PUSH1 0x20 DUP2 ADD SWAP1 POP PUSH3 0x5C4 JUMP JUMPDEST DUP7 DUP4 LT ISZERO PUSH3 0x60B JUMPI DUP5 DUP10 ADD MLOAD PUSH3 0x607 PUSH1 0x1F DUP10 AND DUP3 PUSH3 0x409 JUMP JUMPDEST DUP4 SSTORE POP JUMPDEST PUSH1 0x1 PUSH1 0x2 DUP9 MUL ADD DUP9 SSTORE POP POP POP JUMPDEST POP POP POP POP POP POP JUMP JUMPDEST PUSH1 0x0 DUP2 SWAP1 POP SWAP2 SWAP1 POP JUMP JUMPDEST PUSH3 0x63F PUSH3 0x639 DUP3 PUSH3 0x2F3 JUMP JUMPDEST PUSH3 0x620 JUMP JUMPDEST DUP3 MSTORE POP POP JUMP JUMPDEST PUSH1 0x0 PUSH3 0x653 DUP3 DUP5 PUSH3 0x62A JUMP JUMPDEST PUSH1 0x20 DUP3 ADD SWAP2 POP DUP2 SWAP1 POP SWAP3 SWAP2 POP POP JUMP JUMPDEST PUSH1 0x0 PUSH20 0xFFFFFFFFFFFFFFFFFFFFFFFFFFFFFFFFFFFFFFFF DUP3 AND SWAP1 POP SWAP2 SWAP1 POP JUMP JUMPDEST PUSH1 0x0 PUSH3 0x68F DUP3 PUSH3 0x662 JUMP JUMPDEST SWAP1 POP SWAP2 SWAP1 POP JUMP JUMPDEST PUSH1 0x0 DUP2 PUSH1 0x60 SHL SWAP1 POP SWAP2 SWAP1 POP JUMP JUMPDEST PUSH1 0x0 PUSH3 0x6B0 DUP3 PUSH3 0x696 JUMP JUMPDEST SWAP1 POP SWAP2 SWAP1 POP JUMP JUMPDEST PUSH1 0x0 PUSH3 0x6C4 DUP3 PUSH3 0x6A3 JUMP JUMPDEST SWAP1 POP SWAP2 SWAP1 POP JUMP JUMPDEST PUSH3 0x6E0 PUSH3 0x6DA DUP3 PUSH3 0x682 JUMP JUMPDEST PUSH3 0x6B7 JUMP JUMPDEST DUP3 MSTORE POP POP JUMP JUMPDEST PUSH1 0x0 PUSH3 0x6F4 DUP3 DUP5 PUSH3 0x6CB JUMP JUMPDEST PUSH1 0x14 DUP3 ADD SWAP2 POP DUP2 SWAP1 POP SWAP3 SWAP2 POP POP JUMP JUMPDEST PUSH2 0x7EC DUP1 PUSH3 0x713 PUSH1 0x0 CODECOPY PUSH1 0x0 RETURN INVALID PUSH1 0x80 PUSH1 0x40 MSTORE CALLVALUE DUP1 ISZERO PUSH2 0x10 JUMPI PUSH1 0x0 DUP1 REVERT JUMPDEST POP PUSH1 0x4 CALLDATASIZE LT PUSH2 0x88 JUMPI PUSH1 0x0 CALLDATALOAD PUSH1 0xE0 SHR DUP1 PUSH4 0xCA08A77F GT PUSH2 0x5B JUMPI DUP1 PUSH4 0xCA08A77F EQ PUSH2 0x117 JUMPI DUP1 PUSH4 0xCBE9CFD7 EQ PUSH2 0x135 JUMPI DUP1 PUSH4 0xD8778F93 EQ PUSH2 0x153 JUMPI DUP1 PUSH4 0xF3FC3275 EQ PUSH2 0x171 JUMPI PUSH2 0x88 JUMP JUMPDEST DUP1 PUSH4 0x2A1FD42C EQ PUSH2 0x8D JUMPI DUP1 PUSH4 0x356BC81E EQ PUSH2 0xBD JUMPI DUP1 PUSH4 0x55C4BAFF EQ PUSH2 0xDB JUMPI DUP1 PUSH4 0x97E3BCA5 EQ PUSH2 0xF9 JUMPI JUMPDEST PUSH1 0x0 DUP1 REVERT JUMPDEST PUSH2 0xA7 PUSH1 0x4 DUP1 CALLDATASIZE SUB DUP2 ADD SWAP1 PUSH2 0xA2 SWAP2 SWAP1 PUSH2 0x59C JUMP JUMPDEST PUSH2 0x18F JUMP JUMPDEST PUSH1 0x40 MLOAD PUSH2 0xB4 SWAP2 SWAP1 PUSH2 0x604 JUMP JUMPDEST PUSH1 0x40 MLOAD DUP1 SWAP2 SUB SWAP1 RETURN JUMPDEST PUSH2 0xC5 PUSH2 0x1FA JUMP JUMPDEST PUSH1 0x40 MLOAD PUSH2 0xD2 SWAP2 SWAP1 PUSH2 0x65A JUMP JUMPDEST PUSH1 0x40 MLOAD DUP1 SWAP2 SUB SWAP1 RETURN JUMPDEST PUSH2 0xE3 PUSH2 0x20D JUMP JUMPDEST PUSH1 0x40 MLOAD PUSH2 0xF0 SWAP2 SWAP1 PUSH2 0x705 JUMP JUMPDEST PUSH1 0x40 MLOAD DUP1 SWAP2 SUB SWAP1 RETURN JUMPDEST PUSH2 0x101 PUSH2 0x29B JUMP JUMPDEST PUSH1 0x40 MLOAD PUSH2 0x10E SWAP2 SWAP1 PUSH2 0x705 JUMP JUMPDEST PUSH1 0x40 MLOAD DUP1 SWAP2 SUB SWAP1 RETURN JUMPDEST PUSH2 0x11F PUSH2 0x329 JUMP JUMPDEST PUSH1 0x40 MLOAD PUSH2 0x12C SWAP2 SWAP1 PUSH2 0x705 JUMP JUMPDEST PUSH1 0x40 MLOAD DUP1 SWAP2 SUB SWAP1 RETURN JUMPDEST PUSH2 0x13D PUSH2 0x3B7 JUMP JUMPDEST PUSH1 0x40 MLOAD PUSH2 0x14A SWAP2 SWAP1 PUSH2 0x705 JUMP JUMPDEST PUSH1 0x40 MLOAD DUP1 SWAP2 SUB SWAP1 RETURN JUMPDEST PUSH2 0x15B PUSH2 0x445 JUMP JUMPDEST PUSH1 0x40 MLOAD PUSH2 0x168 SWAP2 SWAP1 PUSH2 0x705 JUMP JUMPDEST PUSH1 0x40 MLOAD DUP1 SWAP2 SUB SWAP1 RETURN JUMPDEST PUSH2 0x179 PUSH2 0x4D3 JUMP JUMPDEST PUSH1 0x40 MLOAD PUSH2 0x186 SWAP2 SWAP1 PUSH2 0x705 JUMP JUMPDEST PUSH1 0x40 MLOAD DUP1 SWAP2 SUB SWAP1 RETURN JUMPDEST PUSH1 0x0 PUSH1 0x1 DUP3 DUP2 SLOAD PUSH2 0x19F SWAP1 PUSH2 0x756 JUMP JUMPDEST DUP2 LT PUSH2 0x1AE JUMPI PUSH2 0x1AD PUSH2 0x787 JUMP JUMPDEST JUMPDEST DUP2 SLOAD PUSH1 0x1 AND ISZERO PUSH2 0x1CD JUMPI SWAP1 PUSH1 0x0 MSTORE PUSH1 0x20 PUSH1 0x0 KECCAK256 SWAP1 PUSH1 0x20 SWAP2 DUP3 DUP3 DIV ADD SWAP2 SWAP1 MOD JUMPDEST SWAP1 SLOAD SWAP1 BYTE PUSH32 0x100000000000000000000000000000000000000000000000000000000000000 MUL SWAP1 POP SWAP2 SWAP1 POP JUMP JUMPDEST PUSH1 0x6 PUSH1 0x0 SWAP1 SLOAD SWAP1 PUSH2 0x100 EXP SWAP1 DIV PUSH1 0xF0 SHL DUP2 JUMP JUMPDEST PUSH1 0x0 DUP1 SLOAD PUSH2 0x21A SWAP1 PUSH2 0x756 JUMP JUMPDEST DUP1 PUSH1 0x1F ADD PUSH1 0x20 DUP1 SWAP2 DIV MUL PUSH1 0x20 ADD PUSH1 0x40 MLOAD SWAP1 DUP2 ADD PUSH1 0x40 MSTORE DUP1 SWAP3 SWAP2 SWAP1 DUP2 DUP2 MSTORE PUSH1 0x20 ADD DUP3 DUP1 SLOAD PUSH2 0x246 SWAP1 PUSH2 0x756 JUMP JUMPDEST DUP1 ISZERO PUSH2 0x293 JUMPI DUP1 PUSH1 0x1F LT PUSH2 0x268 JUMPI PUSH2 0x100 DUP1 DUP4 SLOAD DIV MUL DUP4 MSTORE SWAP2 PUSH1 0x20 ADD SWAP2 PUSH2 0x293 JUMP JUMPDEST DUP3 ADD SWAP2 SWAP1 PUSH1 0x0 MSTORE PUSH1 0x20 PUSH1 0x0 KECCAK256 SWAP1 JUMPDEST DUP2 SLOAD DUP2 MSTORE SWAP1 PUSH1 0x1 ADD SWAP1 PUSH1 0x20 ADD DUP1 DUP4 GT PUSH2 0x276 JUMPI DUP3 SWAP1 SUB PUSH1 0x1F AND DUP3 ADD SWAP2 JUMPDEST POP POP POP POP POP DUP2 JUMP JUMPDEST PUSH1 0x4 DUP1 SLOAD PUSH2 0x2A8 SWAP1 PUSH2 0x756 JUMP JUMPDEST DUP1 PUSH1 0x1F ADD PUSH1 0x20 DUP1 SWAP2 DIV MUL PUSH1 0x20 ADD PUSH1 0x40 MLOAD SWAP1 DUP2 ADD PUSH1 0x40 MSTORE DUP1 SWAP3 SWAP2 SWAP1 DUP2 DUP2 MSTORE PUSH1 0x20 ADD DUP3 DUP1 SLOAD PUSH2 0x2D4 SWAP1 PUSH2 0x756 JUMP JUMPDEST DUP1 ISZERO PUSH2 0x321 JUMPI DUP1 PUSH1 0x1F LT PUSH2 0x2F6 JUMPI PUSH2 0x100 DUP1 DUP4 SLOAD DIV MUL DUP4 MSTORE SWAP2 PUSH1 0x20 ADD SWAP2 PUSH2 0x321 JUMP JUMPDEST DUP3 ADD SWAP2 SWAP1 PUSH1 0x0 MSTORE PUSH1 0x20 PUSH1 0x0 KECCAK256 SWAP1 JUMPDEST DUP2 SLOAD DUP2 MSTORE SWAP1 PUSH1 0x1 ADD SWAP1 PUSH1 0x20 ADD DUP1 DUP4 GT PUSH2 0x304 JUMPI DUP3 SWAP1 SUB PUSH1 0x1F AND DUP3 ADD SWAP2 JUMPDEST POP POP POP POP POP DUP2 JUMP JUMPDEST PUSH1 0x2 DUP1 SLOAD PUSH2 0x336 SWAP1 PUSH2 0x756 JUMP JUMPDEST DUP1 PUSH1 0x1F ADD PUSH1 0x20 DUP1 SWAP2 DIV MUL PUSH1 0x20 ADD PUSH1 0x40 MLOAD SWAP1 DUP2 ADD PUSH1 0x40 MSTORE DUP1 SWAP3 SWAP2 SWAP1 DUP2 DUP2 MSTORE PUSH1 0x20 ADD DUP3 DUP1 SLOAD PUSH2 0x362 SWAP1 PUSH2 0x756 JUMP JUMPDEST DUP1 ISZERO PUSH2 0x3AF JUMPI DUP1 PUSH1 0x1F LT PUSH2 0x384 JUMPI PUSH2 0x100 DUP1 DUP4 SLOAD DIV MUL DUP4 MSTORE SWAP2 PUSH1 0x20 ADD SWAP2 PUSH2 0x3AF JUMP JUMPDEST DUP3 ADD SWAP2 SWAP1 PUSH1 0x0 MSTORE PUSH1 0x20 PUSH1 0x0 KECCAK256 SWAP1 JUMPDEST DUP2 SLOAD DUP2 MSTORE SWAP1 PUSH1 0x1 ADD SWAP1 PUSH1 0x20 ADD DUP1 DUP4 GT PUSH2 0x392 JUMPI DUP3 SWAP1 SUB PUSH1 0x1F AND DUP3 ADD SWAP2 JUMPDEST POP POP POP POP POP DUP2 JUMP JUMPDEST PUSH1 0x3 DUP1 SLOAD PUSH2 0x3C4 SWAP1 PUSH2 0x756 JUMP JUMPDEST DUP1 PUSH1 0x1F ADD PUSH1 0x20 DUP1 SWAP2 DIV MUL PUSH1 0x20 ADD PUSH1 0x40 MLOAD SWAP1 DUP2 ADD PUSH1 0x40 MSTORE DUP1 SWAP3 SWAP2 SWAP1 DUP2 DUP2 MSTORE PUSH1 0x20 ADD DUP3 DUP1 SLOAD PUSH2 0x3F0 SWAP1 PUSH2 0x756 JUMP JUMPDEST DUP1 ISZERO PUSH2 0x43D JUMPI DUP1 PUSH1 0x1F LT PUSH2 0x412 JUMPI PUSH2 0x100 DUP1 DUP4 SLOAD DIV MUL DUP4 MSTORE SWAP2 PUSH1 0x20 ADD SWAP2 PUSH2 0x43D JUMP JUMPDEST DUP3 ADD SWAP2 SWAP1 PUSH1 0x0 MSTORE PUSH1 0x20 PUSH1 0x0 KECCAK256 SWAP1 JUMPDEST DUP2 SLOAD DUP2 MSTORE SWAP1 PUSH1 0x1 ADD SWAP1 PUSH1 0x20 ADD DUP1 DUP4 GT PUSH2 0x420 JUMPI DUP3 SWAP1 SUB PUSH1 0x1F AND DUP3 ADD SWAP2 JUMPDEST POP POP POP POP POP DUP2 JUMP JUMPDEST PUSH1 0x5 DUP1 SLOAD PUSH2 0x452 SWAP1 PUSH2 0x756 JUMP JUMPDEST DUP1 PUSH1 0x1F ADD PUSH1 0x20 DUP1 SWAP2 DIV MUL PUSH1 0x20 ADD PUSH1 0x40 MLOAD SWAP1 DUP2 ADD PUSH1 0x40 MSTORE DUP1 SWAP3 SWAP2 SWAP1 DUP2 DUP2 MSTORE PUSH1 0x20 ADD DUP3 DUP1 SLOAD PUSH2 0x47E SWAP1 PUSH2 0x756 JUMP JUMPDEST DUP1 ISZERO PUSH2 0x4CB JUMPI DUP1 PUSH1 0x1F LT PUSH2 0x4A0 JUMPI PUSH2 0x100 DUP1 DUP4 SLOAD DIV MUL DUP4 MSTORE SWAP2 PUSH1 0x20 ADD SWAP2 PUSH2 0x4CB JUMP JUMPDEST DUP3 ADD SWAP2 SWAP1 PUSH1 0x0 MSTORE PUSH1 0x20 PUSH1 0x0 KECCAK256 SWAP1 JUMPDEST DUP2 SLOAD DUP2 MSTORE SWAP1 PUSH1 0x1 ADD SWAP1 PUSH1 0x20 ADD DUP1 DUP4 GT PUSH2 0x4AE JUMPI DUP3 SWAP1 SUB PUSH1 0x1F AND DUP3 ADD SWAP2 JUMPDEST POP POP POP POP POP DUP2 JUMP JUMPDEST PUSH1 0x1 DUP1 SLOAD PUSH2 0x4E0 SWAP1 PUSH2 0x756 JUMP JUMPDEST DUP1 PUSH1 0x1F ADD PUSH1 0x20 DUP1 SWAP2 DIV MUL PUSH1 0x20 ADD PUSH1 0x40 MLOAD SWAP1 DUP2 ADD PUSH1 0x40 MSTORE DUP1 SWAP3 SWAP2 SWAP1 DUP2 DUP2 MSTORE PUSH1 0x20 ADD DUP3 DUP1 SLOAD PUSH2 0x50C SWAP1 PUSH2 0x756 JUMP JUMPDEST DUP1 ISZERO PUSH2 0x559 JUMPI DUP1 PUSH1 0x1F LT PUSH2 0x52E JUMPI PUSH2 0x100 DUP1 DUP4 SLOAD DIV MUL DUP4 MSTORE SWAP2 PUSH1 0x20 ADD SWAP2 PUSH2 0x559 JUMP JUMPDEST DUP3 ADD SWAP2 SWAP1 PUSH1 0x0 MSTORE PUSH1 0x20 PUSH1 0x0 KECCAK256 SWAP1 JUMPDEST DUP2 SLOAD DUP2 MSTORE SWAP1 PUSH1 0x1 ADD SWAP1 PUSH1 0x20 ADD DUP1 DUP4 GT PUSH2 0x53C JUMPI DUP3 SWAP1 SUB PUSH1 0x1F AND DUP3 ADD SWAP2 JUMPDEST POP POP POP POP POP DUP2 JUMP JUMPDEST PUSH1 0x0 DUP1 REVERT JUMPDEST PUSH1 0x0 DUP2 SWAP1 POP SWAP2 SWAP1 POP JUMP JUMPDEST PUSH2 0x579 DUP2 PUSH2 0x566 JUMP JUMPDEST DUP2 EQ PUSH2 0x584 JUMPI PUSH1 0x0 DUP1 REVERT JUMPDEST POP JUMP JUMPDEST PUSH1 0x0 DUP2 CALLDATALOAD SWAP1 POP PUSH2 0x596 DUP2 PUSH2 0x570 JUMP JUMPDEST SWAP3 SWAP2 POP POP JUMP JUMPDEST PUSH1 0x0 PUSH1 0x20 DUP3 DUP5 SUB SLT ISZERO PUSH2 0x5B2 JUMPI PUSH2 0x5B1 PUSH2 0x561 JUMP JUMPDEST JUMPDEST PUSH1 0x0 PUSH2 0x5C0 DUP5 DUP3 DUP6 ADD PUSH2 0x587 JUMP JUMPDEST SWAP2 POP POP SWAP3 SWAP2 POP POP JUMP JUMPDEST PUSH1 0x0 PUSH32 0xFF00000000000000000000000000000000000000000000000000000000000000 DUP3 AND SWAP1 POP SWAP2 SWAP1 POP JUMP JUMPDEST PUSH2 0x5FE DUP2 PUSH2 0x5C9 JUMP JUMPDEST DUP3 MSTORE POP POP JUMP JUMPDEST PUSH1 0x0 PUSH1 0x20 DUP3 ADD SWAP1 POP PUSH2 0x619 PUSH1 0x0 DUP4 ADD DUP5 PUSH2 0x5F5 JUMP JUMPDEST SWAP3 SWAP2 POP POP JUMP JUMPDEST PUSH1 0x0 PUSH32 0xFFFF000000000000000000000000000000000000000000000000000000000000 DUP3 AND SWAP1 POP SWAP2 SWAP1 POP JUMP JUMPDEST PUSH2 0x654 DUP2 PUSH2 0x61F JUMP JUMPDEST DUP3 MSTORE POP POP JUMP JUMPDEST PUSH1 0x0 PUSH1 0x20 DUP3 ADD SWAP1 POP PUSH2 0x66F PUSH1 0x0 DUP4 ADD DUP5 PUSH2 0x64B JUMP JUMPDEST SWAP3 SWAP2 POP POP JUMP JUMPDEST PUSH1 0x0 DUP2 MLOAD SWAP1 POP SWAP2 SWAP1 POP JUMP JUMPDEST PUSH1 0x0 DUP3 DUP3 MSTORE PUSH1 0x20 DUP3 ADD SWAP1 POP SWAP3 SWAP2 POP POP JUMP JUMPDEST PUSH1 0x0 JUMPDEST DUP4 DUP2 LT ISZERO PUSH2 0x6AF JUMPI DUP1 DUP3 ADD MLOAD DUP2 DUP5 ADD MSTORE PUSH1 0x20 DUP2 ADD SWAP1 POP PUSH2 0x694 JUMP JUMPDEST PUSH1 0x0 DUP5 DUP5 ADD MSTORE POP POP POP POP JUMP JUMPDEST PUSH1 0x0 PUSH1 0x1F NOT PUSH1 0x1F DUP4 ADD AND SWAP1 POP SWAP2 SWAP1 POP JUMP JUMPDEST PUSH1 0x0 PUSH2 0x6D7 DUP3 PUSH2 0x675 JUMP JUMPDEST PUSH2 0x6E1 DUP2 DUP6 PUSH2 0x680 JUMP JUMPDEST SWAP4 POP PUSH2 0x6F1 DUP2 DUP6 PUSH1 0x20 DUP7 ADD PUSH2 0x691 JUMP JUMPDEST PUSH2 0x6FA DUP2 PUSH2 0x6BB JUMP JUMPDEST DUP5 ADD SWAP2 POP POP SWAP3 SWAP2 POP POP JUMP JUMPDEST PUSH1 0x0 PUSH1 0x20 DUP3 ADD SWAP1 POP DUP2 DUP2 SUB PUSH1 0x0 DUP4 ADD MSTORE PUSH2 0x71F DUP2 DUP5 PUSH2 0x6CC JUMP JUMPDEST SWAP1 POP SWAP3 SWAP2 POP POP JUMP JUMPDEST PUSH32 0x4E487B7100000000000000000000000000000000000000000000000000000000 PUSH1 0x0 MSTORE PUSH1 0x22 PUSH1 0x4 MSTORE PUSH1 0x24 PUSH1 0x0 REVERT JUMPDEST PUSH1 0x0 PUSH1 0x2 DUP3 DIV SWAP1 POP PUSH1 0x1 DUP3 AND DUP1 PUSH2 0x76E JUMPI PUSH1 0x7F DUP3 AND SWAP2 POP JUMPDEST PUSH1 0x20 DUP3 LT DUP2 SUB PUSH2 0x781 JUMPI PUSH2 0x780 PUSH2 0x727 JUMP JUMPDEST JUMPDEST POP SWAP2 SWAP1 POP JUMP JUMPDEST PUSH32 0x4E487B7100000000000000000000000000000000000000000000000000000000 PUSH1 0x0 MSTORE PUSH1 0x32 PUSH1 0x4 MSTORE PUSH1 0x24 PUSH1 0x0 REVERT INVALID LOG2 PUSH5 0x6970667358 0x22 SLT KECCAK256 SIGNEXTEND SLT 0xD1 PUSH17 0xBECCEBF17F62A3E16575DB6ADEE4A9F79A 0xDE CALLCODE MSTORE8 SLT 0xE4 SWAP8 PUSH2 0x5190 SLT SWAP5 PUSH5 0x736F6C6343 STOP ADDMOD SLT STOP CALLER "
				},
				"gasEstimates": {
					"creation": {
						"codeDepositCost": "405600",
						"executionCost": "infinite",
						"totalCost": "infinite"
					},
					"external": {
						"InitBytes()": "infinite",
						"addressBytes()": "infinite",
						"emptyBytes()": "infinite",
						"getByte(uint256)": "7188",
						"hexBytes()": "infinite",
						"intBytes()": "infinite",
						"stringBytes()": "infinite",
						"xyz()": "2494"
					}
				},
				"methodIdentifiers": {
					"InitBytes()": "ca08a77f",
					"addressBytes()": "d8778f93",
					"emptyBytes()": "55c4baff",
					"getByte(uint256)": "2a1fd42c",
					"hexBytes()": "cbe9cfd7",
					"intBytes()": "97e3bca5",
					"stringBytes()": "f3fc3275",
					"xyz()": "356bc81e"
				}
			},
			"storageLayout": {
				"storage": [
					{
						"astId": 4,
						"contract": "Day01/bytes.sol:BytesDatatype",
						"label": "emptyBytes",
						"offset": 0,
						"slot": "0",
						"type": "t_bytes_storage"
					},
					{
						"astId": 7,
						"contract": "Day01/bytes.sol:BytesDatatype",
						"label": "stringBytes",
						"offset": 0,
						"slot": "1",
						"type": "t_bytes_storage"
					},
					{
						"astId": 13,
						"contract": "Day01/bytes.sol:BytesDatatype",
						"label": "InitBytes",
						"offset": 0,
						"slot": "2",
						"type": "t_bytes_storage"
					},
					{
						"astId": 16,
						"contract": "Day01/bytes.sol:BytesDatatype",
						"label": "hexBytes",
						"offset": 0,
						"slot": "3",
						"type": "t_bytes_storage"
					},
					{
						"astId": 25,
						"contract": "Day01/bytes.sol:BytesDatatype",
						"label": "intBytes",
						"offset": 0,
						"slot": "4",
						"type": "t_bytes_storage"
					},
					{
						"astId": 35,
						"contract": "Day01/bytes.sol:BytesDatatype",
						"label": "addressBytes",
						"offset": 0,
						"slot": "5",
						"type": "t_bytes_storage"
					},
					{
						"astId": 38,
						"contract": "Day01/bytes.sol:BytesDatatype",
						"label": "xyz",
						"offset": 0,
						"slot": "6",
						"type": "t_bytes2"
					}
				],
				"types": {
					"t_bytes2": {
						"encoding": "inplace",
						"label": "bytes2",
						"numberOfBytes": "2"
					},
					"t_bytes_storage": {
						"encoding": "bytes",
						"label": "bytes",
						"numberOfBytes": "32"
					}
				}
			},
			"userdoc": {
				"kind": "user",
				"methods": {},
				"version": 1
			}
		}
	}
}