{
	"Day01/unsignedInteger.sol": {
		"UnSignedIntDatatype": {
			"abi": [
				{
					"inputs": [],
					"name": "i_max",
					"outputs": [
						{
							"internalType": "int32",
							"name": "",
							"type": "int32"
						}
					],
					"stateMutability": "view",
					"type": "function"
				},
				{
					"inputs": [],
					"name": "i_min",
					"outputs": [
						{
							"internalType": "int32",
							"name": "",
							"type": "int32"
						}
					],
					"stateMutability": "view",
					"type": "function"
				},
				{
					"inputs": [],
					"name": "iny8",
					"outputs": [
						{
							"internalType": "int16",
							"name": "",
							"type": "int16"
						}
					],
					"stateMutability": "view",
					"type": "function"
				},
				{
					"inputs": [],
					"name": "u_max",
					"outputs": [
						{
							"internalType": "uint32",
							"name": "",
							"type": "uint32"
						}
					],
					"stateMutability": "view",
					"type": "function"
				},
				{
					"inputs": [],
					"name": "u_min",
					"outputs": [
						{
							"internalType": "uint32",
							"name": "",
							"type": "uint32"
						}
					],
					"stateMutability": "view",
					"type": "function"
				}
			],
			"devdoc": {
				"kind": "dev",
				"methods": {},
				"version": 1
			},
			"evm": {
				"assembly": "    /* \"Day01/unsignedInteger.sol\":57:296  contract UnSignedIntDatatype{... */\n  mstore(0x40, 0x80)\n    /* \"Day01/unsignedInteger.sol\":112:116  -129 */\n  0xffffffffffffffffffffffffffffffffffffffffffffffffffffffffffffff7f\n    /* \"Day01/unsignedInteger.sol\":92:116  int16 public iny8 = -129 */\n  0x00\n  dup1\n  0x0100\n  exp\n  dup2\n  sload\n  dup2\n  0xffff\n  mul\n  not\n  and\n  swap1\n  dup4\n  0x01\n  signextend\n  0xffff\n  and\n  mul\n  or\n  swap1\n  sstore\n  pop\n    /* \"Day01/unsignedInteger.sol\":145:161  type(uint32).max */\n  0xffffffff\n    /* \"Day01/unsignedInteger.sol\":123:161  uint32 public u_max = type(uint32).max */\n  0x00\n  exp(0x0100, 0x02)\n  dup2\n  sload\n  dup2\n  0xffffffff\n  mul\n  not\n  and\n  swap1\n  dup4\n  0xffffffff\n  and\n  mul\n  or\n  swap1\n  sstore\n  pop\n    /* \"Day01/unsignedInteger.sol\":189:205  type(uint32).min */\n  0x00\n    /* \"Day01/unsignedInteger.sol\":167:205  uint32 public u_min = type(uint32).min */\n  dup1\n  exp(0x0100, 0x06)\n  dup2\n  sload\n  dup2\n  0xffffffff\n  mul\n  not\n  and\n  swap1\n  dup4\n  0xffffffff\n  and\n  mul\n  or\n  swap1\n  sstore\n  pop\n    /* \"Day01/unsignedInteger.sol\":234:249  type(int32).max */\n  0x7fffffff\n    /* \"Day01/unsignedInteger.sol\":213:249  int32 public i_max = type(int32).max */\n  0x00\n  exp(0x0100, 0x0a)\n  dup2\n  sload\n  dup2\n  0xffffffff\n  mul\n  not\n  and\n  swap1\n  dup4\n  0x03\n  signextend\n  0xffffffff\n  and\n  mul\n  or\n  swap1\n  sstore\n  pop\n    /* \"Day01/unsignedInteger.sol\":276:291  type(int32).min */\n  0xffffffffffffffffffffffffffffffffffffffffffffffffffffffff80000000\n    /* \"Day01/unsignedInteger.sol\":255:291  int32 public i_min = type(int32).min */\n  0x00\n  exp(0x0100, 0x0e)\n  dup2\n  sload\n  dup2\n  0xffffffff\n  mul\n  not\n  and\n  swap1\n  dup4\n  0x03\n  signextend\n  0xffffffff\n  and\n  mul\n  or\n  swap1\n  sstore\n  pop\n    /* \"Day01/unsignedInteger.sol\":57:296  contract UnSignedIntDatatype{... */\n  callvalue\n  dup1\n  iszero\n  tag_1\n  jumpi\n  0x00\n  dup1\n  revert\ntag_1:\n  pop\n  dataSize(sub_0)\n  dup1\n  dataOffset(sub_0)\n  0x00\n  codecopy\n  0x00\n  return\nstop\n\nsub_0: assembly {\n        /* \"Day01/unsignedInteger.sol\":57:296  contract UnSignedIntDatatype{... */\n      mstore(0x40, 0x80)\n      callvalue\n      dup1\n      iszero\n      tag_1\n      jumpi\n      0x00\n      dup1\n      revert\n    tag_1:\n      pop\n      jumpi(tag_2, lt(calldatasize, 0x04))\n      shr(0xe0, calldataload(0x00))\n      dup1\n      0x39772aea\n      eq\n      tag_3\n      jumpi\n      dup1\n      0x39d8e5e6\n      eq\n      tag_4\n      jumpi\n      dup1\n      0x8d379397\n      eq\n      tag_5\n      jumpi\n      dup1\n      0x9d423261\n      eq\n      tag_6\n      jumpi\n      dup1\n      0xb65b3a65\n      eq\n      tag_7\n      jumpi\n    tag_2:\n      0x00\n      dup1\n      revert\n        /* \"Day01/unsignedInteger.sol\":213:249  int32 public i_max = type(int32).max */\n    tag_3:\n      tag_8\n      tag_9\n      jump\t// in\n    tag_8:\n      mload(0x40)\n      tag_10\n      swap2\n      swap1\n      tag_11\n      jump\t// in\n    tag_10:\n      mload(0x40)\n      dup1\n      swap2\n      sub\n      swap1\n      return\n        /* \"Day01/unsignedInteger.sol\":167:205  uint32 public u_min = type(uint32).min */\n    tag_4:\n      tag_12\n      tag_13\n      jump\t// in\n    tag_12:\n      mload(0x40)\n      tag_14\n      swap2\n      swap1\n      tag_15\n      jump\t// in\n    tag_14:\n      mload(0x40)\n      dup1\n      swap2\n      sub\n      swap1\n      return\n        /* \"Day01/unsignedInteger.sol\":255:291  int32 public i_min = type(int32).min */\n    tag_5:\n      tag_16\n      tag_17\n      jump\t// in\n    tag_16:\n      mload(0x40)\n      tag_18\n      swap2\n      swap1\n      tag_11\n      jump\t// in\n    tag_18:\n      mload(0x40)\n      dup1\n      swap2\n      sub\n      swap1\n      return\n        /* \"Day01/unsignedInteger.sol\":92:116  int16 public iny8 = -129 */\n    tag_6:\n      tag_19\n      tag_20\n      jump\t// in\n    tag_19:\n      mload(0x40)\n      tag_21\n      swap2\n      swap1\n      tag_22\n      jump\t// in\n    tag_21:\n      mload(0x40)\n      dup1\n      swap2\n      sub\n      swap1\n      return\n        /* \"Day01/unsignedInteger.sol\":123:161  uint32 public u_max = type(uint32).max */\n    tag_7:\n      tag_23\n      tag_24\n      jump\t// in\n    tag_23:\n      mload(0x40)\n      tag_25\n      swap2\n      swap1\n      tag_15\n      jump\t// in\n    tag_25:\n      mload(0x40)\n      dup1\n      swap2\n      sub\n      swap1\n      return\n        /* \"Day01/unsignedInteger.sol\":213:249  int32 public i_max = type(int32).max */\n    tag_9:\n      0x00\n      0x0a\n      swap1\n      sload\n      swap1\n      0x0100\n      exp\n      swap1\n      div\n      0x03\n      signextend\n      dup2\n      jump\t// out\n        /* \"Day01/unsignedInteger.sol\":167:205  uint32 public u_min = type(uint32).min */\n    tag_13:\n      0x00\n      0x06\n      swap1\n      sload\n      swap1\n      0x0100\n      exp\n      swap1\n      div\n      0xffffffff\n      and\n      dup2\n      jump\t// out\n        /* \"Day01/unsignedInteger.sol\":255:291  int32 public i_min = type(int32).min */\n    tag_17:\n      0x00\n      0x0e\n      swap1\n      sload\n      swap1\n      0x0100\n      exp\n      swap1\n      div\n      0x03\n      signextend\n      dup2\n      jump\t// out\n        /* \"Day01/unsignedInteger.sol\":92:116  int16 public iny8 = -129 */\n    tag_20:\n      0x00\n      dup1\n      sload\n      swap1\n      0x0100\n      exp\n      swap1\n      div\n      0x01\n      signextend\n      dup2\n      jump\t// out\n        /* \"Day01/unsignedInteger.sol\":123:161  uint32 public u_max = type(uint32).max */\n    tag_24:\n      0x00\n      0x02\n      swap1\n      sload\n      swap1\n      0x0100\n      exp\n      swap1\n      div\n      0xffffffff\n      and\n      dup2\n      jump\t// out\n        /* \"#utility.yul\":7:97   */\n    tag_26:\n        /* \"#utility.yul\":42:49   */\n      0x00\n        /* \"#utility.yul\":85:90   */\n      dup2\n        /* \"#utility.yul\":82:83   */\n      0x03\n        /* \"#utility.yul\":71:91   */\n      signextend\n        /* \"#utility.yul\":60:91   */\n      swap1\n      pop\n        /* \"#utility.yul\":7:97   */\n      swap2\n      swap1\n      pop\n      jump\t// out\n        /* \"#utility.yul\":103:215   */\n    tag_27:\n        /* \"#utility.yul\":186:208   */\n      tag_35\n        /* \"#utility.yul\":202:207   */\n      dup2\n        /* \"#utility.yul\":186:208   */\n      tag_26\n      jump\t// in\n    tag_35:\n        /* \"#utility.yul\":181:184   */\n      dup3\n        /* \"#utility.yul\":174:209   */\n      mstore\n        /* \"#utility.yul\":103:215   */\n      pop\n      pop\n      jump\t// out\n        /* \"#utility.yul\":221:435   */\n    tag_11:\n        /* \"#utility.yul\":310:314   */\n      0x00\n        /* \"#utility.yul\":348:350   */\n      0x20\n        /* \"#utility.yul\":337:346   */\n      dup3\n        /* \"#utility.yul\":333:351   */\n      add\n        /* \"#utility.yul\":325:351   */\n      swap1\n      pop\n        /* \"#utility.yul\":361:428   */\n      tag_37\n        /* \"#utility.yul\":425:426   */\n      0x00\n        /* \"#utility.yul\":414:423   */\n      dup4\n        /* \"#utility.yul\":410:427   */\n      add\n        /* \"#utility.yul\":401:407   */\n      dup5\n        /* \"#utility.yul\":361:428   */\n      tag_27\n      jump\t// in\n    tag_37:\n        /* \"#utility.yul\":221:435   */\n      swap3\n      swap2\n      pop\n      pop\n      jump\t// out\n        /* \"#utility.yul\":441:534   */\n    tag_28:\n        /* \"#utility.yul\":477:484   */\n      0x00\n        /* \"#utility.yul\":517:527   */\n      0xffffffff\n        /* \"#utility.yul\":510:515   */\n      dup3\n        /* \"#utility.yul\":506:528   */\n      and\n        /* \"#utility.yul\":495:528   */\n      swap1\n      pop\n        /* \"#utility.yul\":441:534   */\n      swap2\n      swap1\n      pop\n      jump\t// out\n        /* \"#utility.yul\":540:655   */\n    tag_29:\n        /* \"#utility.yul\":625:648   */\n      tag_40\n        /* \"#utility.yul\":642:647   */\n      dup2\n        /* \"#utility.yul\":625:648   */\n      tag_28\n      jump\t// in\n    tag_40:\n        /* \"#utility.yul\":620:623   */\n      dup3\n        /* \"#utility.yul\":613:649   */\n      mstore\n        /* \"#utility.yul\":540:655   */\n      pop\n      pop\n      jump\t// out\n        /* \"#utility.yul\":661:879   */\n    tag_15:\n        /* \"#utility.yul\":752:756   */\n      0x00\n        /* \"#utility.yul\":790:792   */\n      0x20\n        /* \"#utility.yul\":779:788   */\n      dup3\n        /* \"#utility.yul\":775:793   */\n      add\n        /* \"#utility.yul\":767:793   */\n      swap1\n      pop\n        /* \"#utility.yul\":803:872   */\n      tag_42\n        /* \"#utility.yul\":869:870   */\n      0x00\n        /* \"#utility.yul\":858:867   */\n      dup4\n        /* \"#utility.yul\":854:871   */\n      add\n        /* \"#utility.yul\":845:851   */\n      dup5\n        /* \"#utility.yul\":803:872   */\n      tag_29\n      jump\t// in\n    tag_42:\n        /* \"#utility.yul\":661:879   */\n      swap3\n      swap2\n      pop\n      pop\n      jump\t// out\n        /* \"#utility.yul\":885:975   */\n    tag_30:\n        /* \"#utility.yul\":920:927   */\n      0x00\n        /* \"#utility.yul\":963:968   */\n      dup2\n        /* \"#utility.yul\":960:961   */\n      0x01\n        /* \"#utility.yul\":949:969   */\n      signextend\n        /* \"#utility.yul\":938:969   */\n      swap1\n      pop\n        /* \"#utility.yul\":885:975   */\n      swap2\n      swap1\n      pop\n      jump\t// out\n        /* \"#utility.yul\":981:1093   */\n    tag_31:\n        /* \"#utility.yul\":1064:1086   */\n      tag_45\n        /* \"#utility.yul\":1080:1085   */\n      dup2\n        /* \"#utility.yul\":1064:1086   */\n      tag_30\n      jump\t// in\n    tag_45:\n        /* \"#utility.yul\":1059:1062   */\n      dup3\n        /* \"#utility.yul\":1052:1087   */\n      mstore\n        /* \"#utility.yul\":981:1093   */\n      pop\n      pop\n      jump\t// out\n        /* \"#utility.yul\":1099:1313   */\n    tag_22:\n        /* \"#utility.yul\":1188:1192   */\n      0x00\n        /* \"#utility.yul\":1226:1228   */\n      0x20\n        /* \"#utility.yul\":1215:1224   */\n      dup3\n        /* \"#utility.yul\":1211:1229   */\n      add\n        /* \"#utility.yul\":1203:1229   */\n      swap1\n      pop\n        /* \"#utility.yul\":1239:1306   */\n      tag_47\n        /* \"#utility.yul\":1303:1304   */\n      0x00\n        /* \"#utility.yul\":1292:1301   */\n      dup4\n        /* \"#utility.yul\":1288:1305   */\n      add\n        /* \"#utility.yul\":1279:1285   */\n      dup5\n        /* \"#utility.yul\":1239:1306   */\n      tag_31\n      jump\t// in\n    tag_47:\n        /* \"#utility.yul\":1099:1313   */\n      swap3\n      swap2\n      pop\n      pop\n      jump\t// out\n\n    auxdata: 0xa26469706673582212203a6807edcf4b1e17f312ca56349c64d18d0c527e93a7f866242d505e821c16a764736f6c63430008120033\n}\n",
				"bytecode": {
					"linkReferences": {},
					"object": "60806040527fffffffffffffffffffffffffffffffffffffffffffffffffffffffffffffff7f6000806101000a81548161ffff021916908360010b61ffff16021790555063ffffffff600060026101000a81548163ffffffff021916908363ffffffff16021790555060008060066101000a81548163ffffffff021916908363ffffffff160217905550637fffffff6000600a6101000a81548163ffffffff021916908360030b63ffffffff1602179055507fffffffffffffffffffffffffffffffffffffffffffffffffffffffff800000006000600e6101000a81548163ffffffff021916908360030b63ffffffff16021790555034801561010157600080fd5b50610233806101116000396000f3fe608060405234801561001057600080fd5b50600436106100575760003560e01c806339772aea1461005c57806339d8e5e61461007a5780638d379397146100985780639d423261146100b6578063b65b3a65146100d4575b600080fd5b6100646100f2565b6040516100719190610171565b60405180910390f35b610082610105565b60405161008f91906101ab565b60405180910390f35b6100a061011b565b6040516100ad9190610171565b60405180910390f35b6100be61012e565b6040516100cb91906101e2565b60405180910390f35b6100dc61013f565b6040516100e991906101ab565b60405180910390f35b6000600a9054906101000a900460030b81565b600060069054906101000a900463ffffffff1681565b6000600e9054906101000a900460030b81565b60008054906101000a900460010b81565b600060029054906101000a900463ffffffff1681565b60008160030b9050919050565b61016b81610155565b82525050565b60006020820190506101866000830184610162565b92915050565b600063ffffffff82169050919050565b6101a58161018c565b82525050565b60006020820190506101c0600083018461019c565b92915050565b60008160010b9050919050565b6101dc816101c6565b82525050565b60006020820190506101f760008301846101d3565b9291505056fea26469706673582212203a6807edcf4b1e17f312ca56349c64d18d0c527e93a7f866242d505e821c16a764736f6c63430008120033",
					"opcodes": "PUSH1 0x80 PUSH1 0x40 MSTORE PUSH32 0xFFFFFFFFFFFFFFFFFFFFFFFFFFFFFFFFFFFFFFFFFFFFFFFFFFFFFFFFFFFFFF7F PUSH1 0x0 DUP1 PUSH2 0x100 EXP DUP2 SLOAD DUP2 PUSH2 0xFFFF MUL NOT AND SWAP1 DUP4 PUSH1 0x1 SIGNEXTEND PUSH2 0xFFFF AND MUL OR SWAP1 SSTORE POP PUSH4 0xFFFFFFFF PUSH1 0x0 PUSH1 0x2 PUSH2 0x100 EXP DUP2 SLOAD DUP2 PUSH4 0xFFFFFFFF MUL NOT AND SWAP1 DUP4 PUSH4 0xFFFFFFFF AND MUL OR SWAP1 SSTORE POP PUSH1 0x0 DUP1 PUSH1 0x6 PUSH2 0x100 EXP DUP2 SLOAD DUP2 PUSH4 0xFFFFFFFF MUL NOT AND SWAP1 DUP4 PUSH4 0xFFFFFFFF AND MUL OR SWAP1 SSTORE POP PUSH4 0x7FFFFFFF PUSH1 0x0 PUSH1 0xA PUSH2 0x100 EXP DUP2 SLOAD DUP2 PUSH4 0xFFFFFFFF MUL NOT AND SWAP1 DUP4 PUSH1 0x3 SIGNEXTEND PUSH4 0xFFFFFFFF AND MUL OR SWAP1 SSTORE POP PUSH32 0xFFFFFFFFFFFFFFFFFFFFFFFFFFFFFFFFFFFFFFFFFFFFFFFFFFFFFFFF80000000 PUSH1 0x0 PUSH1 0xE PUSH2 0x100 EXP DUP2 SLOAD DUP2 PUSH4 0xFFFFFFFF MUL NOT AND SWAP1 DUP4 PUSH1 0x3 SIGNEXTEND PUSH4 0xFFFFFFFF AND MUL OR SWAP1 SSTORE POP CALLVALUE DUP1 ISZERO PUSH2 0x101 JUMPI PUSH1 0x0 DUP1 REVERT JUMPDEST POP PUSH2 0x233 DUP1 PUSH2 0x111 PUSH1 0x0 CODECOPY PUSH1 0x0 RETURN INVALID PUSH1 0x80 PUSH1 0x40 MSTORE CALLVALUE DUP1 ISZERO PUSH2 0x10 JUMPI PUSH1 0x0 DUP1 REVERT JUMPDEST POP PUSH1 0x4 CALLDATASIZE LT PUSH2 0x57 JUMPI PUSH1 0x0 CALLDATALOAD PUSH1 0xE0 SHR DUP1 PUSH4 0x39772AEA EQ PUSH2 0x5C JUMPI DUP1 PUSH4 0x39D8E5E6 EQ PUSH2 0x7A JUMPI DUP1 PUSH4 0x8D379397 EQ PUSH2 0x98 JUMPI DUP1 PUSH4 0x9D423261 EQ PUSH2 0xB6 JUMPI DUP1 PUSH4 0xB65B3A65 EQ PUSH2 0xD4 JUMPI JUMPDEST PUSH1 0x0 DUP1 REVERT JUMPDEST PUSH2 0x64 PUSH2 0xF2 JUMP JUMPDEST PUSH1 0x40 MLOAD PUSH2 0x71 SWAP2 SWAP1 PUSH2 0x171 JUMP JUMPDEST PUSH1 0x40 MLOAD DUP1 SWAP2 SUB SWAP1 RETURN JUMPDEST PUSH2 0x82 PUSH2 0x105 JUMP JUMPDEST PUSH1 0x40 MLOAD PUSH2 0x8F SWAP2 SWAP1 PUSH2 0x1AB JUMP JUMPDEST PUSH1 0x40 MLOAD DUP1 SWAP2 SUB SWAP1 RETURN JUMPDEST PUSH2 0xA0 PUSH2 0x11B JUMP JUMPDEST PUSH1 0x40 MLOAD PUSH2 0xAD SWAP2 SWAP1 PUSH2 0x171 JUMP JUMPDEST PUSH1 0x40 MLOAD DUP1 SWAP2 SUB SWAP1 RETURN JUMPDEST PUSH2 0xBE PUSH2 0x12E JUMP JUMPDEST PUSH1 0x40 MLOAD PUSH2 0xCB SWAP2 SWAP1 PUSH2 0x1E2 JUMP JUMPDEST PUSH1 0x40 MLOAD DUP1 SWAP2 SUB SWAP1 RETURN JUMPDEST PUSH2 0xDC PUSH2 0x13F JUMP JUMPDEST PUSH1 0x40 MLOAD PUSH2 0xE9 SWAP2 SWAP1 PUSH2 0x1AB JUMP JUMPDEST PUSH1 0x40 MLOAD DUP1 SWAP2 SUB SWAP1 RETURN JUMPDEST PUSH1 0x0 PUSH1 0xA SWAP1 SLOAD SWAP1 PUSH2 0x100 EXP SWAP1 DIV PUSH1 0x3 SIGNEXTEND DUP2 JUMP JUMPDEST PUSH1 0x0 PUSH1 0x6 SWAP1 SLOAD SWAP1 PUSH2 0x100 EXP SWAP1 DIV PUSH4 0xFFFFFFFF AND DUP2 JUMP JUMPDEST PUSH1 0x0 PUSH1 0xE SWAP1 SLOAD SWAP1 PUSH2 0x100 EXP SWAP1 DIV PUSH1 0x3 SIGNEXTEND DUP2 JUMP JUMPDEST PUSH1 0x0 DUP1 SLOAD SWAP1 PUSH2 0x100 EXP SWAP1 DIV PUSH1 0x1 SIGNEXTEND DUP2 JUMP JUMPDEST PUSH1 0x0 PUSH1 0x2 SWAP1 SLOAD SWAP1 PUSH2 0x100 EXP SWAP1 DIV PUSH4 0xFFFFFFFF AND DUP2 JUMP JUMPDEST PUSH1 0x0 DUP2 PUSH1 0x3 SIGNEXTEND SWAP1 POP SWAP2 SWAP1 POP JUMP JUMPDEST PUSH2 0x16B DUP2 PUSH2 0x155 JUMP JUMPDEST DUP3 MSTORE POP POP JUMP JUMPDEST PUSH1 0x0 PUSH1 0x20 DUP3 ADD SWAP1 POP PUSH2 0x186 PUSH1 0x0 DUP4 ADD DUP5 PUSH2 0x162 JUMP JUMPDEST SWAP3 SWAP2 POP POP JUMP JUMPDEST PUSH1 0x0 PUSH4 0xFFFFFFFF DUP3 AND SWAP1 POP SWAP2 SWAP1 POP JUMP JUMPDEST PUSH2 0x1A5 DUP2 PUSH2 0x18C JUMP JUMPDEST DUP3 MSTORE POP POP JUMP JUMPDEST PUSH1 0x0 PUSH1 0x20 DUP3 ADD SWAP1 POP PUSH2 0x1C0 PUSH1 0x0 DUP4 ADD DUP5 PUSH2 0x19C JUMP JUMPDEST SWAP3 SWAP2 POP POP JUMP JUMPDEST PUSH1 0x0 DUP2 PUSH1 0x1 SIGNEXTEND SWAP1 POP SWAP2 SWAP1 POP JUMP JUMPDEST PUSH2 0x1DC DUP2 PUSH2 0x1C6 JUMP JUMPDEST DUP3 MSTORE POP POP JUMP JUMPDEST PUSH1 0x0 PUSH1 0x20 DUP3 ADD SWAP1 POP PUSH2 0x1F7 PUSH1 0x0 DUP4 ADD DUP5 PUSH2 0x1D3 JUMP JUMPDEST SWAP3 SWAP2 POP POP JUMP INVALID LOG2 PUSH5 0x6970667358 0x22 SLT KECCAK256 GASPRICE PUSH9 0x7EDCF4B1E17F312CA JUMP CALLVALUE SWAP13 PUSH5 0xD18D0C527E SWAP4 0xA7 0xF8 PUSH7 0x242D505E821C16 0xA7 PUSH5 0x736F6C6343 STOP ADDMOD SLT STOP CALLER "
				},
				"gasEstimates": {
					"creation": {
						"codeDepositCost": "112600",
						"executionCost": "121718",
						"totalCost": "234318"
					},
					"external": {
						"i_max()": "2503",
						"i_min()": "2547",
						"iny8()": "2516",
						"u_max()": "2587",
						"u_min()": "2521"
					}
				},
				"methodIdentifiers": {
					"i_max()": "39772aea",
					"i_min()": "8d379397",
					"iny8()": "9d423261",
					"u_max()": "b65b3a65",
					"u_min()": "39d8e5e6"
				}
			},
			"storageLayout": {
				"storage": [
					{
						"astId": 5,
						"contract": "Day01/unsignedInteger.sol:UnSignedIntDatatype",
						"label": "iny8",
						"offset": 0,
						"slot": "0",
						"type": "t_int16"
					},
					{
						"astId": 12,
						"contract": "Day01/unsignedInteger.sol:UnSignedIntDatatype",
						"label": "u_max",
						"offset": 2,
						"slot": "0",
						"type": "t_uint32"
					},
					{
						"astId": 19,
						"contract": "Day01/unsignedInteger.sol:UnSignedIntDatatype",
						"label": "u_min",
						"offset": 6,
						"slot": "0",
						"type": "t_uint32"
					},
					{
						"astId": 26,
						"contract": "Day01/unsignedInteger.sol:UnSignedIntDatatype",
						"label": "i_max",
						"offset": 10,
						"slot": "0",
						"type": "t_int32"
					},
					{
						"astId": 33,
						"contract": "Day01/unsignedInteger.sol:UnSignedIntDatatype",
						"label": "i_min",
						"offset": 14,
						"slot": "0",
						"type": "t_int32"
					}
				],
				"types": {
					"t_int16": {
						"encoding": "inplace",
						"label": "int16",
						"numberOfBytes": "2"
					},
					"t_int32": {
						"encoding": "inplace",
						"label": "int32",
						"numberOfBytes": "4"
					},
					"t_uint32": {
						"encoding": "inplace",
						"label": "uint32",
						"numberOfBytes": "4"
					}
				}
			},
			"userdoc": {
				"kind": "user",
				"methods": {},
				"version": 1
			}
		}
	}
}