{
	"4_Day/12_dynamic_arrat_practice.sol": {
		"Array": {
			"abi": [
				{
					"inputs": [],
					"name": "getArr",
					"outputs": [
						{
							"internalType": "int256[]",
							"name": "",
							"type": "int256[]"
						}
					],
					"stateMutability": "view",
					"type": "function"
				},
				{
					"inputs": [
						{
							"internalType": "uint256",
							"name": "index",
							"type": "uint256"
						}
					],
					"name": "remove",
					"outputs": [],
					"stateMutability": "nonpayable",
					"type": "function"
				},
				{
					"inputs": [
						{
							"internalType": "uint256",
							"name": "i",
							"type": "uint256"
						},
						{
							"internalType": "int8",
							"name": "_num1",
							"type": "int8"
						}
					],
					"name": "setInt1",
					"outputs": [],
					"stateMutability": "nonpayable",
					"type": "function"
				},
				{
					"inputs": [],
					"name": "uninitLen",
					"outputs": [
						{
							"internalType": "uint256",
							"name": "",
							"type": "uint256"
						}
					],
					"stateMutability": "view",
					"type": "function"
				},
				{
					"inputs": [],
					"name": "uninitPop",
					"outputs": [],
					"stateMutability": "nonpayable",
					"type": "function"
				},
				{
					"inputs": [
						{
							"internalType": "int256",
							"name": "i",
							"type": "int256"
						}
					],
					"name": "uninitPush",
					"outputs": [],
					"stateMutability": "nonpayable",
					"type": "function"
				},
				{
					"inputs": [
						{
							"internalType": "uint256",
							"name": "",
							"type": "uint256"
						}
					],
					"name": "uninit_arr",
					"outputs": [
						{
							"internalType": "int256",
							"name": "",
							"type": "int256"
						}
					],
					"stateMutability": "view",
					"type": "function"
				}
			],
			"devdoc": {
				"kind": "dev",
				"methods": {},
				"version": 1
			},
			"evm": {
				"assembly": "    /* \"4_Day/12_dynamic_arrat_practice.sol\":137:740  contract Array {... */\n  mstore(0x40, 0x80)\n  callvalue\n  dup1\n  iszero\n  tag_1\n  jumpi\n  0x00\n  dup1\n  revert\ntag_1:\n  pop\n  dataSize(sub_0)\n  dup1\n  dataOffset(sub_0)\n  0x00\n  codecopy\n  0x00\n  return\nstop\n\nsub_0: assembly {\n        /* \"4_Day/12_dynamic_arrat_practice.sol\":137:740  contract Array {... */\n      mstore(0x40, 0x80)\n      callvalue\n      dup1\n      iszero\n      tag_1\n      jumpi\n      0x00\n      dup1\n      revert\n    tag_1:\n      pop\n      jumpi(tag_2, lt(calldatasize, 0x04))\n      shr(0xe0, calldataload(0x00))\n      dup1\n      0x6d2a773e\n      gt\n      tag_10\n      jumpi\n      dup1\n      0x6d2a773e\n      eq\n      tag_6\n      jumpi\n      dup1\n      0xd8209d8c\n      eq\n      tag_7\n      jumpi\n      dup1\n      0xd9c3dd88\n      eq\n      tag_8\n      jumpi\n      dup1\n      0xfb8cbced\n      eq\n      tag_9\n      jumpi\n      jump(tag_2)\n    tag_10:\n      dup1\n      0x11006248\n      eq\n      tag_3\n      jumpi\n      dup1\n      0x4cc82215\n      eq\n      tag_4\n      jumpi\n      dup1\n      0x623d7e43\n      eq\n      tag_5\n      jumpi\n    tag_2:\n      0x00\n      dup1\n      revert\n        /* \"4_Day/12_dynamic_arrat_practice.sol\":650:733  function setInt1(uint i , int8 _num1) public {... */\n    tag_3:\n      tag_11\n      0x04\n      dup1\n      calldatasize\n      sub\n      dup2\n      add\n      swap1\n      tag_12\n      swap2\n      swap1\n      tag_13\n      jump\t// in\n    tag_12:\n      tag_14\n      jump\t// in\n    tag_11:\n      stop\n        /* \"4_Day/12_dynamic_arrat_practice.sol\":568:644  function remove(uint index) public {... */\n    tag_4:\n      tag_15\n      0x04\n      dup1\n      calldatasize\n      sub\n      dup2\n      add\n      swap1\n      tag_16\n      swap2\n      swap1\n      tag_17\n      jump\t// in\n    tag_16:\n      tag_18\n      jump\t// in\n    tag_15:\n      stop\n        /* \"4_Day/12_dynamic_arrat_practice.sol\":407:467  function uninitPop() public{... */\n    tag_5:\n      tag_19\n      tag_20\n      jump\t// in\n    tag_19:\n      stop\n        /* \"4_Day/12_dynamic_arrat_practice.sol\":473:562  function uninitLen() public view returns(uint)  {... */\n    tag_6:\n      tag_21\n      tag_22\n      jump\t// in\n    tag_21:\n      mload(0x40)\n      tag_23\n      swap2\n      swap1\n      tag_24\n      jump\t// in\n    tag_23:\n      mload(0x40)\n      dup1\n      swap2\n      sub\n      swap1\n      return\n        /* \"4_Day/12_dynamic_arrat_practice.sol\":231:299  function uninitPush(int i) public{... */\n    tag_7:\n      tag_25\n      0x04\n      dup1\n      calldatasize\n      sub\n      dup2\n      add\n      swap1\n      tag_26\n      swap2\n      swap1\n      tag_27\n      jump\t// in\n    tag_26:\n      tag_28\n      jump\t// in\n    tag_25:\n      stop\n        /* \"4_Day/12_dynamic_arrat_practice.sol\":201:224  int[] public uninit_arr */\n    tag_8:\n      tag_29\n      0x04\n      dup1\n      calldatasize\n      sub\n      dup2\n      add\n      swap1\n      tag_30\n      swap2\n      swap1\n      tag_17\n      jump\t// in\n    tag_30:\n      tag_31\n      jump\t// in\n    tag_29:\n      mload(0x40)\n      tag_32\n      swap2\n      swap1\n      tag_33\n      jump\t// in\n    tag_32:\n      mload(0x40)\n      dup1\n      swap2\n      sub\n      swap1\n      return\n        /* \"4_Day/12_dynamic_arrat_practice.sol\":309:396  function getArr() public view returns (int[] memory) {... */\n    tag_9:\n      tag_34\n      tag_35\n      jump\t// in\n    tag_34:\n      mload(0x40)\n      tag_36\n      swap2\n      swap1\n      tag_37\n      jump\t// in\n    tag_36:\n      mload(0x40)\n      dup1\n      swap2\n      sub\n      swap1\n      return\n        /* \"4_Day/12_dynamic_arrat_practice.sol\":650:733  function setInt1(uint i , int8 _num1) public {... */\n    tag_14:\n        /* \"4_Day/12_dynamic_arrat_practice.sol\":721:726  _num1 */\n      dup1\n        /* \"4_Day/12_dynamic_arrat_practice.sol\":705:726  uninit_arr[i] = _num1 */\n      0x00\n      signextend\n        /* \"4_Day/12_dynamic_arrat_practice.sol\":705:715  uninit_arr */\n      0x00\n        /* \"4_Day/12_dynamic_arrat_practice.sol\":716:717  i */\n      dup4\n        /* \"4_Day/12_dynamic_arrat_practice.sol\":705:718  uninit_arr[i] */\n      dup2\n      sload\n      dup2\n      lt\n      tag_39\n      jumpi\n      tag_40\n      tag_41\n      jump\t// in\n    tag_40:\n    tag_39:\n      swap1\n      0x00\n      mstore\n      keccak256(0x00, 0x20)\n      add\n        /* \"4_Day/12_dynamic_arrat_practice.sol\":705:726  uninit_arr[i] = _num1 */\n      dup2\n      swap1\n      sstore\n      pop\n        /* \"4_Day/12_dynamic_arrat_practice.sol\":650:733  function setInt1(uint i , int8 _num1) public {... */\n      pop\n      pop\n      jump\t// out\n        /* \"4_Day/12_dynamic_arrat_practice.sol\":568:644  function remove(uint index) public {... */\n    tag_18:\n        /* \"4_Day/12_dynamic_arrat_practice.sol\":620:630  uninit_arr */\n      0x00\n        /* \"4_Day/12_dynamic_arrat_practice.sol\":631:636  index */\n      dup2\n        /* \"4_Day/12_dynamic_arrat_practice.sol\":620:637  uninit_arr[index] */\n      dup2\n      sload\n      dup2\n      lt\n      tag_44\n      jumpi\n      tag_45\n      tag_41\n      jump\t// in\n    tag_45:\n    tag_44:\n      swap1\n      0x00\n      mstore\n      keccak256(0x00, 0x20)\n      add\n        /* \"4_Day/12_dynamic_arrat_practice.sol\":613:637  delete uninit_arr[index] */\n      0x00\n      swap1\n      sstore\n        /* \"4_Day/12_dynamic_arrat_practice.sol\":568:644  function remove(uint index) public {... */\n      pop\n      jump\t// out\n        /* \"4_Day/12_dynamic_arrat_practice.sol\":407:467  function uninitPop() public{... */\n    tag_20:\n        /* \"4_Day/12_dynamic_arrat_practice.sol\":444:454  uninit_arr */\n      0x00\n        /* \"4_Day/12_dynamic_arrat_practice.sol\":444:460  uninit_arr.pop() */\n      dup1\n      sload\n      dup1\n      tag_48\n      jumpi\n      tag_49\n      tag_50\n      jump\t// in\n    tag_49:\n    tag_48:\n      0x01\n      swap1\n      sub\n      dup2\n      dup2\n      swap1\n      0x00\n      mstore\n      keccak256(0x00, 0x20)\n      add\n      0x00\n      swap1\n      sstore\n      swap1\n      sstore\n        /* \"4_Day/12_dynamic_arrat_practice.sol\":407:467  function uninitPop() public{... */\n      jump\t// out\n        /* \"4_Day/12_dynamic_arrat_practice.sol\":473:562  function uninitLen() public view returns(uint)  {... */\n    tag_22:\n        /* \"4_Day/12_dynamic_arrat_practice.sol\":514:518  uint */\n      0x00\n        /* \"4_Day/12_dynamic_arrat_practice.sol\":538:548  uninit_arr */\n      dup1\n        /* \"4_Day/12_dynamic_arrat_practice.sol\":538:555  uninit_arr.length */\n      dup1\n      sload\n      swap1\n      pop\n        /* \"4_Day/12_dynamic_arrat_practice.sol\":531:555  return uninit_arr.length */\n      swap1\n      pop\n        /* \"4_Day/12_dynamic_arrat_practice.sol\":473:562  function uninitLen() public view returns(uint)  {... */\n      swap1\n      jump\t// out\n        /* \"4_Day/12_dynamic_arrat_practice.sol\":231:299  function uninitPush(int i) public{... */\n    tag_28:\n        /* \"4_Day/12_dynamic_arrat_practice.sol\":274:284  uninit_arr */\n      0x00\n        /* \"4_Day/12_dynamic_arrat_practice.sol\":290:291  i */\n      dup2\n        /* \"4_Day/12_dynamic_arrat_practice.sol\":274:292  uninit_arr.push(i) */\n      swap1\n      dup1\n      0x01\n      dup2\n      sload\n      add\n      dup1\n      dup3\n      sstore\n      dup1\n      swap2\n      pop\n      pop\n      0x01\n      swap1\n      sub\n      swap1\n      0x00\n      mstore\n      keccak256(0x00, 0x20)\n      add\n      0x00\n      swap1\n      swap2\n      swap1\n      swap2\n      swap1\n      swap2\n      pop\n      sstore\n        /* \"4_Day/12_dynamic_arrat_practice.sol\":231:299  function uninitPush(int i) public{... */\n      pop\n      jump\t// out\n        /* \"4_Day/12_dynamic_arrat_practice.sol\":201:224  int[] public uninit_arr */\n    tag_31:\n      0x00\n      dup2\n      dup2\n      sload\n      dup2\n      lt\n      tag_55\n      jumpi\n      0x00\n      dup1\n      revert\n    tag_55:\n      swap1\n      0x00\n      mstore\n      keccak256(0x00, 0x20)\n      add\n      0x00\n      swap2\n      pop\n      swap1\n      pop\n      sload\n      dup2\n      jump\t// out\n        /* \"4_Day/12_dynamic_arrat_practice.sol\":309:396  function getArr() public view returns (int[] memory) {... */\n    tag_35:\n        /* \"4_Day/12_dynamic_arrat_practice.sol\":348:360  int[] memory */\n      0x60\n        /* \"4_Day/12_dynamic_arrat_practice.sol\":379:389  uninit_arr */\n      0x00\n        /* \"4_Day/12_dynamic_arrat_practice.sol\":372:389  return uninit_arr */\n      dup1\n      sload\n      dup1\n      0x20\n      mul\n      0x20\n      add\n      mload(0x40)\n      swap1\n      dup2\n      add\n      0x40\n      mstore\n      dup1\n      swap3\n      swap2\n      swap1\n      dup2\n      dup2\n      mstore\n      0x20\n      add\n      dup3\n      dup1\n      sload\n      dup1\n      iszero\n      tag_58\n      jumpi\n      0x20\n      mul\n      dup3\n      add\n      swap2\n      swap1\n      0x00\n      mstore\n      keccak256(0x00, 0x20)\n      swap1\n    tag_59:\n      dup2\n      sload\n      dup2\n      mstore\n      0x20\n      add\n      swap1\n      0x01\n      add\n      swap1\n      dup1\n      dup4\n      gt\n      tag_59\n      jumpi\n    tag_58:\n      pop\n      pop\n      pop\n      pop\n      pop\n      swap1\n      pop\n        /* \"4_Day/12_dynamic_arrat_practice.sol\":309:396  function getArr() public view returns (int[] memory) {... */\n      swap1\n      jump\t// out\n        /* \"#utility.yul\":88:205   */\n    tag_61:\n        /* \"#utility.yul\":197:198   */\n      0x00\n        /* \"#utility.yul\":194:195   */\n      dup1\n        /* \"#utility.yul\":187:199   */\n      revert\n        /* \"#utility.yul\":334:411   */\n    tag_63:\n        /* \"#utility.yul\":371:378   */\n      0x00\n        /* \"#utility.yul\":400:405   */\n      dup2\n        /* \"#utility.yul\":389:405   */\n      swap1\n      pop\n        /* \"#utility.yul\":334:411   */\n      swap2\n      swap1\n      pop\n      jump\t// out\n        /* \"#utility.yul\":417:539   */\n    tag_64:\n        /* \"#utility.yul\":490:514   */\n      tag_87\n        /* \"#utility.yul\":508:513   */\n      dup2\n        /* \"#utility.yul\":490:514   */\n      tag_63\n      jump\t// in\n    tag_87:\n        /* \"#utility.yul\":483:488   */\n      dup2\n        /* \"#utility.yul\":480:515   */\n      eq\n        /* \"#utility.yul\":470:533   */\n      tag_88\n      jumpi\n        /* \"#utility.yul\":529:530   */\n      0x00\n        /* \"#utility.yul\":526:527   */\n      dup1\n        /* \"#utility.yul\":519:531   */\n      revert\n        /* \"#utility.yul\":470:533   */\n    tag_88:\n        /* \"#utility.yul\":417:539   */\n      pop\n      jump\t// out\n        /* \"#utility.yul\":545:684   */\n    tag_65:\n        /* \"#utility.yul\":591:596   */\n      0x00\n        /* \"#utility.yul\":629:635   */\n      dup2\n        /* \"#utility.yul\":616:636   */\n      calldataload\n        /* \"#utility.yul\":607:636   */\n      swap1\n      pop\n        /* \"#utility.yul\":645:678   */\n      tag_90\n        /* \"#utility.yul\":672:677   */\n      dup2\n        /* \"#utility.yul\":645:678   */\n      tag_64\n      jump\t// in\n    tag_90:\n        /* \"#utility.yul\":545:684   */\n      swap3\n      swap2\n      pop\n      pop\n      jump\t// out\n        /* \"#utility.yul\":690:779   */\n    tag_66:\n        /* \"#utility.yul\":724:731   */\n      0x00\n        /* \"#utility.yul\":767:772   */\n      dup2\n        /* \"#utility.yul\":764:765   */\n      0x00\n        /* \"#utility.yul\":753:773   */\n      signextend\n        /* \"#utility.yul\":742:773   */\n      swap1\n      pop\n        /* \"#utility.yul\":690:779   */\n      swap2\n      swap1\n      pop\n      jump\t// out\n        /* \"#utility.yul\":785:901   */\n    tag_67:\n        /* \"#utility.yul\":855:876   */\n      tag_93\n        /* \"#utility.yul\":870:875   */\n      dup2\n        /* \"#utility.yul\":855:876   */\n      tag_66\n      jump\t// in\n    tag_93:\n        /* \"#utility.yul\":848:853   */\n      dup2\n        /* \"#utility.yul\":845:877   */\n      eq\n        /* \"#utility.yul\":835:895   */\n      tag_94\n      jumpi\n        /* \"#utility.yul\":891:892   */\n      0x00\n        /* \"#utility.yul\":888:889   */\n      dup1\n        /* \"#utility.yul\":881:893   */\n      revert\n        /* \"#utility.yul\":835:895   */\n    tag_94:\n        /* \"#utility.yul\":785:901   */\n      pop\n      jump\t// out\n        /* \"#utility.yul\":907:1040   */\n    tag_68:\n        /* \"#utility.yul\":950:955   */\n      0x00\n        /* \"#utility.yul\":988:994   */\n      dup2\n        /* \"#utility.yul\":975:995   */\n      calldataload\n        /* \"#utility.yul\":966:995   */\n      swap1\n      pop\n        /* \"#utility.yul\":1004:1034   */\n      tag_96\n        /* \"#utility.yul\":1028:1033   */\n      dup2\n        /* \"#utility.yul\":1004:1034   */\n      tag_67\n      jump\t// in\n    tag_96:\n        /* \"#utility.yul\":907:1040   */\n      swap3\n      swap2\n      pop\n      pop\n      jump\t// out\n        /* \"#utility.yul\":1046:1514   */\n    tag_13:\n        /* \"#utility.yul\":1111:1117   */\n      0x00\n        /* \"#utility.yul\":1119:1125   */\n      dup1\n        /* \"#utility.yul\":1168:1170   */\n      0x40\n        /* \"#utility.yul\":1156:1165   */\n      dup4\n        /* \"#utility.yul\":1147:1154   */\n      dup6\n        /* \"#utility.yul\":1143:1166   */\n      sub\n        /* \"#utility.yul\":1139:1171   */\n      slt\n        /* \"#utility.yul\":1136:1255   */\n      iszero\n      tag_98\n      jumpi\n        /* \"#utility.yul\":1174:1253   */\n      tag_99\n      tag_61\n      jump\t// in\n    tag_99:\n        /* \"#utility.yul\":1136:1255   */\n    tag_98:\n        /* \"#utility.yul\":1294:1295   */\n      0x00\n        /* \"#utility.yul\":1319:1372   */\n      tag_100\n        /* \"#utility.yul\":1364:1371   */\n      dup6\n        /* \"#utility.yul\":1355:1361   */\n      dup3\n        /* \"#utility.yul\":1344:1353   */\n      dup7\n        /* \"#utility.yul\":1340:1362   */\n      add\n        /* \"#utility.yul\":1319:1372   */\n      tag_65\n      jump\t// in\n    tag_100:\n        /* \"#utility.yul\":1309:1372   */\n      swap3\n      pop\n        /* \"#utility.yul\":1265:1382   */\n      pop\n        /* \"#utility.yul\":1421:1423   */\n      0x20\n        /* \"#utility.yul\":1447:1497   */\n      tag_101\n        /* \"#utility.yul\":1489:1496   */\n      dup6\n        /* \"#utility.yul\":1480:1486   */\n      dup3\n        /* \"#utility.yul\":1469:1478   */\n      dup7\n        /* \"#utility.yul\":1465:1487   */\n      add\n        /* \"#utility.yul\":1447:1497   */\n      tag_68\n      jump\t// in\n    tag_101:\n        /* \"#utility.yul\":1437:1497   */\n      swap2\n      pop\n        /* \"#utility.yul\":1392:1507   */\n      pop\n        /* \"#utility.yul\":1046:1514   */\n      swap3\n      pop\n      swap3\n      swap1\n      pop\n      jump\t// out\n        /* \"#utility.yul\":1520:1849   */\n    tag_17:\n        /* \"#utility.yul\":1579:1585   */\n      0x00\n        /* \"#utility.yul\":1628:1630   */\n      0x20\n        /* \"#utility.yul\":1616:1625   */\n      dup3\n        /* \"#utility.yul\":1607:1614   */\n      dup5\n        /* \"#utility.yul\":1603:1626   */\n      sub\n        /* \"#utility.yul\":1599:1631   */\n      slt\n        /* \"#utility.yul\":1596:1715   */\n      iszero\n      tag_103\n      jumpi\n        /* \"#utility.yul\":1634:1713   */\n      tag_104\n      tag_61\n      jump\t// in\n    tag_104:\n        /* \"#utility.yul\":1596:1715   */\n    tag_103:\n        /* \"#utility.yul\":1754:1755   */\n      0x00\n        /* \"#utility.yul\":1779:1832   */\n      tag_105\n        /* \"#utility.yul\":1824:1831   */\n      dup5\n        /* \"#utility.yul\":1815:1821   */\n      dup3\n        /* \"#utility.yul\":1804:1813   */\n      dup6\n        /* \"#utility.yul\":1800:1822   */\n      add\n        /* \"#utility.yul\":1779:1832   */\n      tag_65\n      jump\t// in\n    tag_105:\n        /* \"#utility.yul\":1769:1832   */\n      swap2\n      pop\n        /* \"#utility.yul\":1725:1842   */\n      pop\n        /* \"#utility.yul\":1520:1849   */\n      swap3\n      swap2\n      pop\n      pop\n      jump\t// out\n        /* \"#utility.yul\":1855:1973   */\n    tag_69:\n        /* \"#utility.yul\":1942:1966   */\n      tag_107\n        /* \"#utility.yul\":1960:1965   */\n      dup2\n        /* \"#utility.yul\":1942:1966   */\n      tag_63\n      jump\t// in\n    tag_107:\n        /* \"#utility.yul\":1937:1940   */\n      dup3\n        /* \"#utility.yul\":1930:1967   */\n      mstore\n        /* \"#utility.yul\":1855:1973   */\n      pop\n      pop\n      jump\t// out\n        /* \"#utility.yul\":1979:2201   */\n    tag_24:\n        /* \"#utility.yul\":2072:2076   */\n      0x00\n        /* \"#utility.yul\":2110:2112   */\n      0x20\n        /* \"#utility.yul\":2099:2108   */\n      dup3\n        /* \"#utility.yul\":2095:2113   */\n      add\n        /* \"#utility.yul\":2087:2113   */\n      swap1\n      pop\n        /* \"#utility.yul\":2123:2194   */\n      tag_109\n        /* \"#utility.yul\":2191:2192   */\n      0x00\n        /* \"#utility.yul\":2180:2189   */\n      dup4\n        /* \"#utility.yul\":2176:2193   */\n      add\n        /* \"#utility.yul\":2167:2173   */\n      dup5\n        /* \"#utility.yul\":2123:2194   */\n      tag_69\n      jump\t// in\n    tag_109:\n        /* \"#utility.yul\":1979:2201   */\n      swap3\n      swap2\n      pop\n      pop\n      jump\t// out\n        /* \"#utility.yul\":2207:2283   */\n    tag_70:\n        /* \"#utility.yul\":2243:2250   */\n      0x00\n        /* \"#utility.yul\":2272:2277   */\n      dup2\n        /* \"#utility.yul\":2261:2277   */\n      swap1\n      pop\n        /* \"#utility.yul\":2207:2283   */\n      swap2\n      swap1\n      pop\n      jump\t// out\n        /* \"#utility.yul\":2289:2409   */\n    tag_71:\n        /* \"#utility.yul\":2361:2384   */\n      tag_112\n        /* \"#utility.yul\":2378:2383   */\n      dup2\n        /* \"#utility.yul\":2361:2384   */\n      tag_70\n      jump\t// in\n    tag_112:\n        /* \"#utility.yul\":2354:2359   */\n      dup2\n        /* \"#utility.yul\":2351:2385   */\n      eq\n        /* \"#utility.yul\":2341:2403   */\n      tag_113\n      jumpi\n        /* \"#utility.yul\":2399:2400   */\n      0x00\n        /* \"#utility.yul\":2396:2397   */\n      dup1\n        /* \"#utility.yul\":2389:2401   */\n      revert\n        /* \"#utility.yul\":2341:2403   */\n    tag_113:\n        /* \"#utility.yul\":2289:2409   */\n      pop\n      jump\t// out\n        /* \"#utility.yul\":2415:2552   */\n    tag_72:\n        /* \"#utility.yul\":2460:2465   */\n      0x00\n        /* \"#utility.yul\":2498:2504   */\n      dup2\n        /* \"#utility.yul\":2485:2505   */\n      calldataload\n        /* \"#utility.yul\":2476:2505   */\n      swap1\n      pop\n        /* \"#utility.yul\":2514:2546   */\n      tag_115\n        /* \"#utility.yul\":2540:2545   */\n      dup2\n        /* \"#utility.yul\":2514:2546   */\n      tag_71\n      jump\t// in\n    tag_115:\n        /* \"#utility.yul\":2415:2552   */\n      swap3\n      swap2\n      pop\n      pop\n      jump\t// out\n        /* \"#utility.yul\":2558:2885   */\n    tag_27:\n        /* \"#utility.yul\":2616:2622   */\n      0x00\n        /* \"#utility.yul\":2665:2667   */\n      0x20\n        /* \"#utility.yul\":2653:2662   */\n      dup3\n        /* \"#utility.yul\":2644:2651   */\n      dup5\n        /* \"#utility.yul\":2640:2663   */\n      sub\n        /* \"#utility.yul\":2636:2668   */\n      slt\n        /* \"#utility.yul\":2633:2752   */\n      iszero\n      tag_117\n      jumpi\n        /* \"#utility.yul\":2671:2750   */\n      tag_118\n      tag_61\n      jump\t// in\n    tag_118:\n        /* \"#utility.yul\":2633:2752   */\n    tag_117:\n        /* \"#utility.yul\":2791:2792   */\n      0x00\n        /* \"#utility.yul\":2816:2868   */\n      tag_119\n        /* \"#utility.yul\":2860:2867   */\n      dup5\n        /* \"#utility.yul\":2851:2857   */\n      dup3\n        /* \"#utility.yul\":2840:2849   */\n      dup6\n        /* \"#utility.yul\":2836:2858   */\n      add\n        /* \"#utility.yul\":2816:2868   */\n      tag_72\n      jump\t// in\n    tag_119:\n        /* \"#utility.yul\":2806:2868   */\n      swap2\n      pop\n        /* \"#utility.yul\":2762:2878   */\n      pop\n        /* \"#utility.yul\":2558:2885   */\n      swap3\n      swap2\n      pop\n      pop\n      jump\t// out\n        /* \"#utility.yul\":2891:3006   */\n    tag_73:\n        /* \"#utility.yul\":2976:2999   */\n      tag_121\n        /* \"#utility.yul\":2993:2998   */\n      dup2\n        /* \"#utility.yul\":2976:2999   */\n      tag_70\n      jump\t// in\n    tag_121:\n        /* \"#utility.yul\":2971:2974   */\n      dup3\n        /* \"#utility.yul\":2964:3000   */\n      mstore\n        /* \"#utility.yul\":2891:3006   */\n      pop\n      pop\n      jump\t// out\n        /* \"#utility.yul\":3012:3230   */\n    tag_33:\n        /* \"#utility.yul\":3103:3107   */\n      0x00\n        /* \"#utility.yul\":3141:3143   */\n      0x20\n        /* \"#utility.yul\":3130:3139   */\n      dup3\n        /* \"#utility.yul\":3126:3144   */\n      add\n        /* \"#utility.yul\":3118:3144   */\n      swap1\n      pop\n        /* \"#utility.yul\":3154:3223   */\n      tag_123\n        /* \"#utility.yul\":3220:3221   */\n      0x00\n        /* \"#utility.yul\":3209:3218   */\n      dup4\n        /* \"#utility.yul\":3205:3222   */\n      add\n        /* \"#utility.yul\":3196:3202   */\n      dup5\n        /* \"#utility.yul\":3154:3223   */\n      tag_73\n      jump\t// in\n    tag_123:\n        /* \"#utility.yul\":3012:3230   */\n      swap3\n      swap2\n      pop\n      pop\n      jump\t// out\n        /* \"#utility.yul\":3236:3349   */\n    tag_74:\n        /* \"#utility.yul\":3302:3308   */\n      0x00\n        /* \"#utility.yul\":3336:3341   */\n      dup2\n        /* \"#utility.yul\":3330:3342   */\n      mload\n        /* \"#utility.yul\":3320:3342   */\n      swap1\n      pop\n        /* \"#utility.yul\":3236:3349   */\n      swap2\n      swap1\n      pop\n      jump\t// out\n        /* \"#utility.yul\":3355:3538   */\n    tag_75:\n        /* \"#utility.yul\":3453:3464   */\n      0x00\n        /* \"#utility.yul\":3487:3493   */\n      dup3\n        /* \"#utility.yul\":3482:3485   */\n      dup3\n        /* \"#utility.yul\":3475:3494   */\n      mstore\n        /* \"#utility.yul\":3527:3531   */\n      0x20\n        /* \"#utility.yul\":3522:3525   */\n      dup3\n        /* \"#utility.yul\":3518:3532   */\n      add\n        /* \"#utility.yul\":3503:3532   */\n      swap1\n      pop\n        /* \"#utility.yul\":3355:3538   */\n      swap3\n      swap2\n      pop\n      pop\n      jump\t// out\n        /* \"#utility.yul\":3544:3675   */\n    tag_76:\n        /* \"#utility.yul\":3610:3614   */\n      0x00\n        /* \"#utility.yul\":3633:3636   */\n      dup2\n        /* \"#utility.yul\":3625:3636   */\n      swap1\n      pop\n        /* \"#utility.yul\":3663:3667   */\n      0x20\n        /* \"#utility.yul\":3658:3661   */\n      dup3\n        /* \"#utility.yul\":3654:3668   */\n      add\n        /* \"#utility.yul\":3646:3668   */\n      swap1\n      pop\n        /* \"#utility.yul\":3544:3675   */\n      swap2\n      swap1\n      pop\n      jump\t// out\n        /* \"#utility.yul\":3681:3786   */\n    tag_77:\n        /* \"#utility.yul\":3756:3779   */\n      tag_128\n        /* \"#utility.yul\":3773:3778   */\n      dup2\n        /* \"#utility.yul\":3756:3779   */\n      tag_70\n      jump\t// in\n    tag_128:\n        /* \"#utility.yul\":3751:3754   */\n      dup3\n        /* \"#utility.yul\":3744:3780   */\n      mstore\n        /* \"#utility.yul\":3681:3786   */\n      pop\n      pop\n      jump\t// out\n        /* \"#utility.yul\":3792:3967   */\n    tag_78:\n        /* \"#utility.yul\":3859:3869   */\n      0x00\n        /* \"#utility.yul\":3880:3924   */\n      tag_130\n        /* \"#utility.yul\":3920:3923   */\n      dup4\n        /* \"#utility.yul\":3912:3918   */\n      dup4\n        /* \"#utility.yul\":3880:3924   */\n      tag_77\n      jump\t// in\n    tag_130:\n        /* \"#utility.yul\":3956:3960   */\n      0x20\n        /* \"#utility.yul\":3951:3954   */\n      dup4\n        /* \"#utility.yul\":3947:3961   */\n      add\n        /* \"#utility.yul\":3933:3961   */\n      swap1\n      pop\n        /* \"#utility.yul\":3792:3967   */\n      swap3\n      swap2\n      pop\n      pop\n      jump\t// out\n        /* \"#utility.yul\":3973:4085   */\n    tag_79:\n        /* \"#utility.yul\":4042:4046   */\n      0x00\n        /* \"#utility.yul\":4074:4078   */\n      0x20\n        /* \"#utility.yul\":4069:4072   */\n      dup3\n        /* \"#utility.yul\":4065:4079   */\n      add\n        /* \"#utility.yul\":4057:4079   */\n      swap1\n      pop\n        /* \"#utility.yul\":3973:4085   */\n      swap2\n      swap1\n      pop\n      jump\t// out\n        /* \"#utility.yul\":4119:4843   */\n    tag_80:\n        /* \"#utility.yul\":4236:4239   */\n      0x00\n        /* \"#utility.yul\":4265:4318   */\n      tag_133\n        /* \"#utility.yul\":4312:4317   */\n      dup3\n        /* \"#utility.yul\":4265:4318   */\n      tag_74\n      jump\t// in\n    tag_133:\n        /* \"#utility.yul\":4334:4419   */\n      tag_134\n        /* \"#utility.yul\":4412:4418   */\n      dup2\n        /* \"#utility.yul\":4407:4410   */\n      dup6\n        /* \"#utility.yul\":4334:4419   */\n      tag_75\n      jump\t// in\n    tag_134:\n        /* \"#utility.yul\":4327:4419   */\n      swap4\n      pop\n        /* \"#utility.yul\":4443:4498   */\n      tag_135\n        /* \"#utility.yul\":4492:4497   */\n      dup4\n        /* \"#utility.yul\":4443:4498   */\n      tag_76\n      jump\t// in\n    tag_135:\n        /* \"#utility.yul\":4521:4528   */\n      dup1\n        /* \"#utility.yul\":4552:4553   */\n      0x00\n        /* \"#utility.yul\":4537:4818   */\n    tag_136:\n        /* \"#utility.yul\":4562:4568   */\n      dup4\n        /* \"#utility.yul\":4559:4560   */\n      dup2\n        /* \"#utility.yul\":4556:4569   */\n      lt\n        /* \"#utility.yul\":4537:4818   */\n      iszero\n      tag_138\n      jumpi\n        /* \"#utility.yul\":4638:4644   */\n      dup2\n        /* \"#utility.yul\":4632:4645   */\n      mload\n        /* \"#utility.yul\":4665:4726   */\n      tag_139\n        /* \"#utility.yul\":4722:4725   */\n      dup9\n        /* \"#utility.yul\":4707:4720   */\n      dup3\n        /* \"#utility.yul\":4665:4726   */\n      tag_78\n      jump\t// in\n    tag_139:\n        /* \"#utility.yul\":4658:4726   */\n      swap8\n      pop\n        /* \"#utility.yul\":4749:4808   */\n      tag_140\n        /* \"#utility.yul\":4801:4807   */\n      dup4\n        /* \"#utility.yul\":4749:4808   */\n      tag_79\n      jump\t// in\n    tag_140:\n        /* \"#utility.yul\":4739:4808   */\n      swap3\n      pop\n        /* \"#utility.yul\":4597:4818   */\n      pop\n        /* \"#utility.yul\":4584:4585   */\n      0x01\n        /* \"#utility.yul\":4581:4582   */\n      dup2\n        /* \"#utility.yul\":4577:4586   */\n      add\n        /* \"#utility.yul\":4572:4586   */\n      swap1\n      pop\n        /* \"#utility.yul\":4537:4818   */\n      jump(tag_136)\n    tag_138:\n        /* \"#utility.yul\":4541:4555   */\n      pop\n        /* \"#utility.yul\":4834:4837   */\n      dup6\n        /* \"#utility.yul\":4827:4837   */\n      swap4\n      pop\n        /* \"#utility.yul\":4241:4843   */\n      pop\n      pop\n      pop\n        /* \"#utility.yul\":4119:4843   */\n      swap3\n      swap2\n      pop\n      pop\n      jump\t// out\n        /* \"#utility.yul\":4849:5218   */\n    tag_37:\n        /* \"#utility.yul\":4990:4994   */\n      0x00\n        /* \"#utility.yul\":5028:5030   */\n      0x20\n        /* \"#utility.yul\":5017:5026   */\n      dup3\n        /* \"#utility.yul\":5013:5031   */\n      add\n        /* \"#utility.yul\":5005:5031   */\n      swap1\n      pop\n        /* \"#utility.yul\":5077:5086   */\n      dup2\n        /* \"#utility.yul\":5071:5075   */\n      dup2\n        /* \"#utility.yul\":5067:5087   */\n      sub\n        /* \"#utility.yul\":5063:5064   */\n      0x00\n        /* \"#utility.yul\":5052:5061   */\n      dup4\n        /* \"#utility.yul\":5048:5065   */\n      add\n        /* \"#utility.yul\":5041:5088   */\n      mstore\n        /* \"#utility.yul\":5105:5211   */\n      tag_142\n        /* \"#utility.yul\":5206:5210   */\n      dup2\n        /* \"#utility.yul\":5197:5203   */\n      dup5\n        /* \"#utility.yul\":5105:5211   */\n      tag_80\n      jump\t// in\n    tag_142:\n        /* \"#utility.yul\":5097:5211   */\n      swap1\n      pop\n        /* \"#utility.yul\":4849:5218   */\n      swap3\n      swap2\n      pop\n      pop\n      jump\t// out\n        /* \"#utility.yul\":5224:5404   */\n    tag_41:\n        /* \"#utility.yul\":5272:5349   */\n      0x4e487b7100000000000000000000000000000000000000000000000000000000\n        /* \"#utility.yul\":5269:5270   */\n      0x00\n        /* \"#utility.yul\":5262:5350   */\n      mstore\n        /* \"#utility.yul\":5369:5373   */\n      0x32\n        /* \"#utility.yul\":5366:5367   */\n      0x04\n        /* \"#utility.yul\":5359:5374   */\n      mstore\n        /* \"#utility.yul\":5393:5397   */\n      0x24\n        /* \"#utility.yul\":5390:5391   */\n      0x00\n        /* \"#utility.yul\":5383:5398   */\n      revert\n        /* \"#utility.yul\":5410:5590   */\n    tag_50:\n        /* \"#utility.yul\":5458:5535   */\n      0x4e487b7100000000000000000000000000000000000000000000000000000000\n        /* \"#utility.yul\":5455:5456   */\n      0x00\n        /* \"#utility.yul\":5448:5536   */\n      mstore\n        /* \"#utility.yul\":5555:5559   */\n      0x31\n        /* \"#utility.yul\":5552:5553   */\n      0x04\n        /* \"#utility.yul\":5545:5560   */\n      mstore\n        /* \"#utility.yul\":5579:5583   */\n      0x24\n        /* \"#utility.yul\":5576:5577   */\n      0x00\n        /* \"#utility.yul\":5569:5584   */\n      revert\n\n    auxdata: 0xa2646970667358221220f99d533a6ea71b3f1770693c9dab7f2b0aa79fac2229235caeed047c498b074764736f6c63430008110033\n}\n",
				"bytecode": {
					"linkReferences": {},
					"object": "608060405234801561001057600080fd5b50610585806100206000396000f3fe608060405234801561001057600080fd5b506004361061007d5760003560e01c80636d2a773e1161005b5780636d2a773e146100c4578063d8209d8c146100e2578063d9c3dd88146100fe578063fb8cbced1461012e5761007d565b806311006248146100825780634cc822151461009e578063623d7e43146100ba575b600080fd5b61009c600480360381019061009791906102ed565b61014c565b005b6100b860048036038101906100b3919061032d565b610176565b005b6100c261019b565b005b6100cc6101c5565b6040516100d99190610369565b60405180910390f35b6100fc60048036038101906100f791906103ba565b6101d1565b005b6101186004803603810190610113919061032d565b6101fd565b60405161012591906103f6565b60405180910390f35b610136610221565b60405161014391906104cf565b60405180910390f35b8060000b60008381548110610164576101636104f1565b5b90600052602060002001819055505050565b6000818154811061018a576101896104f1565b5b906000526020600020016000905550565b60008054806101ad576101ac610520565b5b60019003818190600052602060002001600090559055565b60008080549050905090565b600081908060018154018082558091505060019003906000526020600020016000909190919091505550565b6000818154811061020d57600080fd5b906000526020600020016000915090505481565b6060600080548060200260200160405190810160405280929190818152602001828054801561026f57602002820191906000526020600020905b81548152602001906001019080831161025b575b5050505050905090565b600080fd5b6000819050919050565b6102918161027e565b811461029c57600080fd5b50565b6000813590506102ae81610288565b92915050565b60008160000b9050919050565b6102ca816102b4565b81146102d557600080fd5b50565b6000813590506102e7816102c1565b92915050565b6000806040838503121561030457610303610279565b5b60006103128582860161029f565b9250506020610323858286016102d8565b9150509250929050565b60006020828403121561034357610342610279565b5b60006103518482850161029f565b91505092915050565b6103638161027e565b82525050565b600060208201905061037e600083018461035a565b92915050565b6000819050919050565b61039781610384565b81146103a257600080fd5b50565b6000813590506103b48161038e565b92915050565b6000602082840312156103d0576103cf610279565b5b60006103de848285016103a5565b91505092915050565b6103f081610384565b82525050565b600060208201905061040b60008301846103e7565b92915050565b600081519050919050565b600082825260208201905092915050565b6000819050602082019050919050565b61044681610384565b82525050565b6000610458838361043d565b60208301905092915050565b6000602082019050919050565b600061047c82610411565b610486818561041c565b93506104918361042d565b8060005b838110156104c25781516104a9888261044c565b97506104b483610464565b925050600181019050610495565b5085935050505092915050565b600060208201905081810360008301526104e98184610471565b905092915050565b7f4e487b7100000000000000000000000000000000000000000000000000000000600052603260045260246000fd5b7f4e487b7100000000000000000000000000000000000000000000000000000000600052603160045260246000fdfea2646970667358221220f99d533a6ea71b3f1770693c9dab7f2b0aa79fac2229235caeed047c498b074764736f6c63430008110033",
					"opcodes": "PUSH1 0x80 PUSH1 0x40 MSTORE CALLVALUE DUP1 ISZERO PUSH2 0x10 JUMPI PUSH1 0x0 DUP1 REVERT JUMPDEST POP PUSH2 0x585 DUP1 PUSH2 0x20 PUSH1 0x0 CODECOPY PUSH1 0x0 RETURN INVALID PUSH1 0x80 PUSH1 0x40 MSTORE CALLVALUE DUP1 ISZERO PUSH2 0x10 JUMPI PUSH1 0x0 DUP1 REVERT JUMPDEST POP PUSH1 0x4 CALLDATASIZE LT PUSH2 0x7D JUMPI PUSH1 0x0 CALLDATALOAD PUSH1 0xE0 SHR DUP1 PUSH4 0x6D2A773E GT PUSH2 0x5B JUMPI DUP1 PUSH4 0x6D2A773E EQ PUSH2 0xC4 JUMPI DUP1 PUSH4 0xD8209D8C EQ PUSH2 0xE2 JUMPI DUP1 PUSH4 0xD9C3DD88 EQ PUSH2 0xFE JUMPI DUP1 PUSH4 0xFB8CBCED EQ PUSH2 0x12E JUMPI PUSH2 0x7D JUMP JUMPDEST DUP1 PUSH4 0x11006248 EQ PUSH2 0x82 JUMPI DUP1 PUSH4 0x4CC82215 EQ PUSH2 0x9E JUMPI DUP1 PUSH4 0x623D7E43 EQ PUSH2 0xBA JUMPI JUMPDEST PUSH1 0x0 DUP1 REVERT JUMPDEST PUSH2 0x9C PUSH1 0x4 DUP1 CALLDATASIZE SUB DUP2 ADD SWAP1 PUSH2 0x97 SWAP2 SWAP1 PUSH2 0x2ED JUMP JUMPDEST PUSH2 0x14C JUMP JUMPDEST STOP JUMPDEST PUSH2 0xB8 PUSH1 0x4 DUP1 CALLDATASIZE SUB DUP2 ADD SWAP1 PUSH2 0xB3 SWAP2 SWAP1 PUSH2 0x32D JUMP JUMPDEST PUSH2 0x176 JUMP JUMPDEST STOP JUMPDEST PUSH2 0xC2 PUSH2 0x19B JUMP JUMPDEST STOP JUMPDEST PUSH2 0xCC PUSH2 0x1C5 JUMP JUMPDEST PUSH1 0x40 MLOAD PUSH2 0xD9 SWAP2 SWAP1 PUSH2 0x369 JUMP JUMPDEST PUSH1 0x40 MLOAD DUP1 SWAP2 SUB SWAP1 RETURN JUMPDEST PUSH2 0xFC PUSH1 0x4 DUP1 CALLDATASIZE SUB DUP2 ADD SWAP1 PUSH2 0xF7 SWAP2 SWAP1 PUSH2 0x3BA JUMP JUMPDEST PUSH2 0x1D1 JUMP JUMPDEST STOP JUMPDEST PUSH2 0x118 PUSH1 0x4 DUP1 CALLDATASIZE SUB DUP2 ADD SWAP1 PUSH2 0x113 SWAP2 SWAP1 PUSH2 0x32D JUMP JUMPDEST PUSH2 0x1FD JUMP JUMPDEST PUSH1 0x40 MLOAD PUSH2 0x125 SWAP2 SWAP1 PUSH2 0x3F6 JUMP JUMPDEST PUSH1 0x40 MLOAD DUP1 SWAP2 SUB SWAP1 RETURN JUMPDEST PUSH2 0x136 PUSH2 0x221 JUMP JUMPDEST PUSH1 0x40 MLOAD PUSH2 0x143 SWAP2 SWAP1 PUSH2 0x4CF JUMP JUMPDEST PUSH1 0x40 MLOAD DUP1 SWAP2 SUB SWAP1 RETURN JUMPDEST DUP1 PUSH1 0x0 SIGNEXTEND PUSH1 0x0 DUP4 DUP2 SLOAD DUP2 LT PUSH2 0x164 JUMPI PUSH2 0x163 PUSH2 0x4F1 JUMP JUMPDEST JUMPDEST SWAP1 PUSH1 0x0 MSTORE PUSH1 0x20 PUSH1 0x0 KECCAK256 ADD DUP2 SWAP1 SSTORE POP POP POP JUMP JUMPDEST PUSH1 0x0 DUP2 DUP2 SLOAD DUP2 LT PUSH2 0x18A JUMPI PUSH2 0x189 PUSH2 0x4F1 JUMP JUMPDEST JUMPDEST SWAP1 PUSH1 0x0 MSTORE PUSH1 0x20 PUSH1 0x0 KECCAK256 ADD PUSH1 0x0 SWAP1 SSTORE POP JUMP JUMPDEST PUSH1 0x0 DUP1 SLOAD DUP1 PUSH2 0x1AD JUMPI PUSH2 0x1AC PUSH2 0x520 JUMP JUMPDEST JUMPDEST PUSH1 0x1 SWAP1 SUB DUP2 DUP2 SWAP1 PUSH1 0x0 MSTORE PUSH1 0x20 PUSH1 0x0 KECCAK256 ADD PUSH1 0x0 SWAP1 SSTORE SWAP1 SSTORE JUMP JUMPDEST PUSH1 0x0 DUP1 DUP1 SLOAD SWAP1 POP SWAP1 POP SWAP1 JUMP JUMPDEST PUSH1 0x0 DUP2 SWAP1 DUP1 PUSH1 0x1 DUP2 SLOAD ADD DUP1 DUP3 SSTORE DUP1 SWAP2 POP POP PUSH1 0x1 SWAP1 SUB SWAP1 PUSH1 0x0 MSTORE PUSH1 0x20 PUSH1 0x0 KECCAK256 ADD PUSH1 0x0 SWAP1 SWAP2 SWAP1 SWAP2 SWAP1 SWAP2 POP SSTORE POP JUMP JUMPDEST PUSH1 0x0 DUP2 DUP2 SLOAD DUP2 LT PUSH2 0x20D JUMPI PUSH1 0x0 DUP1 REVERT JUMPDEST SWAP1 PUSH1 0x0 MSTORE PUSH1 0x20 PUSH1 0x0 KECCAK256 ADD PUSH1 0x0 SWAP2 POP SWAP1 POP SLOAD DUP2 JUMP JUMPDEST PUSH1 0x60 PUSH1 0x0 DUP1 SLOAD DUP1 PUSH1 0x20 MUL PUSH1 0x20 ADD PUSH1 0x40 MLOAD SWAP1 DUP2 ADD PUSH1 0x40 MSTORE DUP1 SWAP3 SWAP2 SWAP1 DUP2 DUP2 MSTORE PUSH1 0x20 ADD DUP3 DUP1 SLOAD DUP1 ISZERO PUSH2 0x26F JUMPI PUSH1 0x20 MUL DUP3 ADD SWAP2 SWAP1 PUSH1 0x0 MSTORE PUSH1 0x20 PUSH1 0x0 KECCAK256 SWAP1 JUMPDEST DUP2 SLOAD DUP2 MSTORE PUSH1 0x20 ADD SWAP1 PUSH1 0x1 ADD SWAP1 DUP1 DUP4 GT PUSH2 0x25B JUMPI JUMPDEST POP POP POP POP POP SWAP1 POP SWAP1 JUMP JUMPDEST PUSH1 0x0 DUP1 REVERT JUMPDEST PUSH1 0x0 DUP2 SWAP1 POP SWAP2 SWAP1 POP JUMP JUMPDEST PUSH2 0x291 DUP2 PUSH2 0x27E JUMP JUMPDEST DUP2 EQ PUSH2 0x29C JUMPI PUSH1 0x0 DUP1 REVERT JUMPDEST POP JUMP JUMPDEST PUSH1 0x0 DUP2 CALLDATALOAD SWAP1 POP PUSH2 0x2AE DUP2 PUSH2 0x288 JUMP JUMPDEST SWAP3 SWAP2 POP POP JUMP JUMPDEST PUSH1 0x0 DUP2 PUSH1 0x0 SIGNEXTEND SWAP1 POP SWAP2 SWAP1 POP JUMP JUMPDEST PUSH2 0x2CA DUP2 PUSH2 0x2B4 JUMP JUMPDEST DUP2 EQ PUSH2 0x2D5 JUMPI PUSH1 0x0 DUP1 REVERT JUMPDEST POP JUMP JUMPDEST PUSH1 0x0 DUP2 CALLDATALOAD SWAP1 POP PUSH2 0x2E7 DUP2 PUSH2 0x2C1 JUMP JUMPDEST SWAP3 SWAP2 POP POP JUMP JUMPDEST PUSH1 0x0 DUP1 PUSH1 0x40 DUP4 DUP6 SUB SLT ISZERO PUSH2 0x304 JUMPI PUSH2 0x303 PUSH2 0x279 JUMP JUMPDEST JUMPDEST PUSH1 0x0 PUSH2 0x312 DUP6 DUP3 DUP7 ADD PUSH2 0x29F JUMP JUMPDEST SWAP3 POP POP PUSH1 0x20 PUSH2 0x323 DUP6 DUP3 DUP7 ADD PUSH2 0x2D8 JUMP JUMPDEST SWAP2 POP POP SWAP3 POP SWAP3 SWAP1 POP JUMP JUMPDEST PUSH1 0x0 PUSH1 0x20 DUP3 DUP5 SUB SLT ISZERO PUSH2 0x343 JUMPI PUSH2 0x342 PUSH2 0x279 JUMP JUMPDEST JUMPDEST PUSH1 0x0 PUSH2 0x351 DUP5 DUP3 DUP6 ADD PUSH2 0x29F JUMP JUMPDEST SWAP2 POP POP SWAP3 SWAP2 POP POP JUMP JUMPDEST PUSH2 0x363 DUP2 PUSH2 0x27E JUMP JUMPDEST DUP3 MSTORE POP POP JUMP JUMPDEST PUSH1 0x0 PUSH1 0x20 DUP3 ADD SWAP1 POP PUSH2 0x37E PUSH1 0x0 DUP4 ADD DUP5 PUSH2 0x35A JUMP JUMPDEST SWAP3 SWAP2 POP POP JUMP JUMPDEST PUSH1 0x0 DUP2 SWAP1 POP SWAP2 SWAP1 POP JUMP JUMPDEST PUSH2 0x397 DUP2 PUSH2 0x384 JUMP JUMPDEST DUP2 EQ PUSH2 0x3A2 JUMPI PUSH1 0x0 DUP1 REVERT JUMPDEST POP JUMP JUMPDEST PUSH1 0x0 DUP2 CALLDATALOAD SWAP1 POP PUSH2 0x3B4 DUP2 PUSH2 0x38E JUMP JUMPDEST SWAP3 SWAP2 POP POP JUMP JUMPDEST PUSH1 0x0 PUSH1 0x20 DUP3 DUP5 SUB SLT ISZERO PUSH2 0x3D0 JUMPI PUSH2 0x3CF PUSH2 0x279 JUMP JUMPDEST JUMPDEST PUSH1 0x0 PUSH2 0x3DE DUP5 DUP3 DUP6 ADD PUSH2 0x3A5 JUMP JUMPDEST SWAP2 POP POP SWAP3 SWAP2 POP POP JUMP JUMPDEST PUSH2 0x3F0 DUP2 PUSH2 0x384 JUMP JUMPDEST DUP3 MSTORE POP POP JUMP JUMPDEST PUSH1 0x0 PUSH1 0x20 DUP3 ADD SWAP1 POP PUSH2 0x40B PUSH1 0x0 DUP4 ADD DUP5 PUSH2 0x3E7 JUMP JUMPDEST SWAP3 SWAP2 POP POP JUMP JUMPDEST PUSH1 0x0 DUP2 MLOAD SWAP1 POP SWAP2 SWAP1 POP JUMP JUMPDEST PUSH1 0x0 DUP3 DUP3 MSTORE PUSH1 0x20 DUP3 ADD SWAP1 POP SWAP3 SWAP2 POP POP JUMP JUMPDEST PUSH1 0x0 DUP2 SWAP1 POP PUSH1 0x20 DUP3 ADD SWAP1 POP SWAP2 SWAP1 POP JUMP JUMPDEST PUSH2 0x446 DUP2 PUSH2 0x384 JUMP JUMPDEST DUP3 MSTORE POP POP JUMP JUMPDEST PUSH1 0x0 PUSH2 0x458 DUP4 DUP4 PUSH2 0x43D JUMP JUMPDEST PUSH1 0x20 DUP4 ADD SWAP1 POP SWAP3 SWAP2 POP POP JUMP JUMPDEST PUSH1 0x0 PUSH1 0x20 DUP3 ADD SWAP1 POP SWAP2 SWAP1 POP JUMP JUMPDEST PUSH1 0x0 PUSH2 0x47C DUP3 PUSH2 0x411 JUMP JUMPDEST PUSH2 0x486 DUP2 DUP6 PUSH2 0x41C JUMP JUMPDEST SWAP4 POP PUSH2 0x491 DUP4 PUSH2 0x42D JUMP JUMPDEST DUP1 PUSH1 0x0 JUMPDEST DUP4 DUP2 LT ISZERO PUSH2 0x4C2 JUMPI DUP2 MLOAD PUSH2 0x4A9 DUP9 DUP3 PUSH2 0x44C JUMP JUMPDEST SWAP8 POP PUSH2 0x4B4 DUP4 PUSH2 0x464 JUMP JUMPDEST SWAP3 POP POP PUSH1 0x1 DUP2 ADD SWAP1 POP PUSH2 0x495 JUMP JUMPDEST POP DUP6 SWAP4 POP POP POP POP SWAP3 SWAP2 POP POP JUMP JUMPDEST PUSH1 0x0 PUSH1 0x20 DUP3 ADD SWAP1 POP DUP2 DUP2 SUB PUSH1 0x0 DUP4 ADD MSTORE PUSH2 0x4E9 DUP2 DUP5 PUSH2 0x471 JUMP JUMPDEST SWAP1 POP SWAP3 SWAP2 POP POP JUMP JUMPDEST PUSH32 0x4E487B7100000000000000000000000000000000000000000000000000000000 PUSH1 0x0 MSTORE PUSH1 0x32 PUSH1 0x4 MSTORE PUSH1 0x24 PUSH1 0x0 REVERT JUMPDEST PUSH32 0x4E487B7100000000000000000000000000000000000000000000000000000000 PUSH1 0x0 MSTORE PUSH1 0x31 PUSH1 0x4 MSTORE PUSH1 0x24 PUSH1 0x0 REVERT INVALID LOG2 PUSH5 0x6970667358 0x22 SLT KECCAK256 0xF9 SWAP14 MSTORE8 GASPRICE PUSH15 0xA71B3F1770693C9DAB7F2B0AA79FAC 0x22 0x29 0x23 0x5C 0xAE 0xED DIV PUSH29 0x498B074764736F6C634300081100330000000000000000000000000000 "
				},
				"gasEstimates": {
					"creation": {
						"codeDepositCost": "282600",
						"executionCost": "324",
						"totalCost": "282924"
					},
					"external": {
						"getArr()": "infinite",
						"remove(uint256)": "7618",
						"setInt1(uint256,int8)": "24890",
						"uninitLen()": "2445",
						"uninitPop()": "29490",
						"uninitPush(int256)": "46851",
						"uninit_arr(uint256)": "4926"
					}
				},
				"methodIdentifiers": {
					"getArr()": "fb8cbced",
					"remove(uint256)": "4cc82215",
					"setInt1(uint256,int8)": "11006248",
					"uninitLen()": "6d2a773e",
					"uninitPop()": "623d7e43",
					"uninitPush(int256)": "d8209d8c",
					"uninit_arr(uint256)": "d9c3dd88"
				}
			},
			"storageLayout": {
				"storage": [
					{
						"astId": 4,
						"contract": "4_Day/12_dynamic_arrat_practice.sol:Array",
						"label": "uninit_arr",
						"offset": 0,
						"slot": "0",
						"type": "t_array(t_int256)dyn_storage"
					}
				],
				"types": {
					"t_array(t_int256)dyn_storage": {
						"base": "t_int256",
						"encoding": "dynamic_array",
						"label": "int256[]",
						"numberOfBytes": "32"
					},
					"t_int256": {
						"encoding": "inplace",
						"label": "int256",
						"numberOfBytes": "32"
					}
				}
			},
			"userdoc": {
				"kind": "user",
				"methods": {},
				"version": 1
			}
		}
	}
}