{
	"4_Day/11_dynamic_array.sol": {
		"Array": {
			"abi": [
				{
					"inputs": [
						{
							"internalType": "uint256",
							"name": "",
							"type": "uint256"
						}
					],
					"name": "arr",
					"outputs": [
						{
							"internalType": "uint256",
							"name": "",
							"type": "uint256"
						}
					],
					"stateMutability": "view",
					"type": "function"
				},
				{
					"inputs": [
						{
							"internalType": "uint256",
							"name": "",
							"type": "uint256"
						}
					],
					"name": "arr2",
					"outputs": [
						{
							"internalType": "uint256",
							"name": "",
							"type": "uint256"
						}
					],
					"stateMutability": "view",
					"type": "function"
				},
				{
					"inputs": [],
					"name": "examples",
					"outputs": [
						{
							"internalType": "uint8[5]",
							"name": "",
							"type": "uint8[5]"
						}
					],
					"stateMutability": "pure",
					"type": "function"
				},
				{
					"inputs": [
						{
							"internalType": "uint256",
							"name": "i",
							"type": "uint256"
						}
					],
					"name": "get",
					"outputs": [
						{
							"internalType": "uint256",
							"name": "",
							"type": "uint256"
						}
					],
					"stateMutability": "view",
					"type": "function"
				},
				{
					"inputs": [],
					"name": "getArr",
					"outputs": [
						{
							"internalType": "uint256[]",
							"name": "",
							"type": "uint256[]"
						}
					],
					"stateMutability": "view",
					"type": "function"
				},
				{
					"inputs": [],
					"name": "getLength",
					"outputs": [
						{
							"internalType": "uint256",
							"name": "",
							"type": "uint256"
						}
					],
					"stateMutability": "view",
					"type": "function"
				},
				{
					"inputs": [],
					"name": "pop",
					"outputs": [],
					"stateMutability": "nonpayable",
					"type": "function"
				},
				{
					"inputs": [
						{
							"internalType": "uint256",
							"name": "i",
							"type": "uint256"
						}
					],
					"name": "push",
					"outputs": [],
					"stateMutability": "nonpayable",
					"type": "function"
				},
				{
					"inputs": [
						{
							"internalType": "uint256",
							"name": "index",
							"type": "uint256"
						}
					],
					"name": "remove",
					"outputs": [],
					"stateMutability": "nonpayable",
					"type": "function"
				}
			],
			"devdoc": {
				"kind": "dev",
				"methods": {},
				"version": 1
			},
			"evm": {
				"assembly": "    /* \"4_Day/11_dynamic_array.sol\":137:901  contract Array {... */\n  mstore(0x40, 0x80)\n    /* \"4_Day/11_dynamic_array.sol\":224:254  uint[] public arr2 = [1, 2, 3] */\n  mload(0x40)\n  dup1\n  0x60\n  add\n  0x40\n  mstore\n  dup1\n    /* \"4_Day/11_dynamic_array.sol\":246:247  1 */\n  0x01\n    /* \"4_Day/11_dynamic_array.sol\":224:254  uint[] public arr2 = [1, 2, 3] */\n  0xff\n  and\n  dup2\n  mstore\n  0x20\n  add\n    /* \"4_Day/11_dynamic_array.sol\":249:250  2 */\n  0x02\n    /* \"4_Day/11_dynamic_array.sol\":224:254  uint[] public arr2 = [1, 2, 3] */\n  0xff\n  and\n  dup2\n  mstore\n  0x20\n  add\n    /* \"4_Day/11_dynamic_array.sol\":252:253  3 */\n  0x03\n    /* \"4_Day/11_dynamic_array.sol\":224:254  uint[] public arr2 = [1, 2, 3] */\n  0xff\n  and\n  dup2\n  mstore\n  pop\n  0x01\n  swap1\n  0x03\n  tag_1\n  swap3\n  swap2\n  swap1\n  tag_2\n  jump\t// in\ntag_1:\n  pop\n    /* \"4_Day/11_dynamic_array.sol\":137:901  contract Array {... */\n  callvalue\n  dup1\n  iszero\n  tag_3\n  jumpi\n  0x00\n  dup1\n  revert\ntag_3:\n  pop\n  jump(tag_4)\ntag_2:\n  dup3\n  dup1\n  sload\n  dup3\n  dup3\n  sstore\n  swap1\n  0x00\n  mstore\n  keccak256(0x00, 0x20)\n  swap1\n  dup2\n  add\n  swap3\n  dup3\n  iszero\n  tag_5\n  jumpi\n  swap2\n  0x20\n  mul\n  dup3\n  add\ntag_6:\n  dup3\n  dup2\n  gt\n  iszero\n  tag_7\n  jumpi\n  dup3\n  mload\n  dup3\n  swap1\n  0xff\n  and\n  swap1\n  sstore\n  swap2\n  0x20\n  add\n  swap2\n  swap1\n  0x01\n  add\n  swap1\n  jump(tag_6)\ntag_7:\ntag_5:\n  pop\n  swap1\n  pop\n  tag_8\n  swap2\n  swap1\n  tag_9\n  jump\t// in\ntag_8:\n  pop\n  swap1\n  jump\t// out\ntag_9:\ntag_10:\n  dup1\n  dup3\n  gt\n  iszero\n  tag_11\n  jumpi\n  0x00\n  dup2\n  0x00\n  swap1\n  sstore\n  pop\n  0x01\n  add\n  jump(tag_10)\ntag_11:\n  pop\n  swap1\n  jump\t// out\ntag_4:\n  dataSize(sub_0)\n  dup1\n  dataOffset(sub_0)\n  0x00\n  codecopy\n  0x00\n  return\nstop\n\nsub_0: assembly {\n        /* \"4_Day/11_dynamic_array.sol\":137:901  contract Array {... */\n      mstore(0x40, 0x80)\n      callvalue\n      dup1\n      iszero\n      tag_1\n      jumpi\n      0x00\n      dup1\n      revert\n    tag_1:\n      pop\n      jumpi(tag_2, lt(calldatasize, 0x04))\n      shr(0xe0, calldataload(0x00))\n      dup1\n      0x959ac484\n      gt\n      tag_12\n      jumpi\n      dup1\n      0x959ac484\n      eq\n      tag_7\n      jumpi\n      dup1\n      0xa4ece52c\n      eq\n      tag_8\n      jumpi\n      dup1\n      0xbe1c766b\n      eq\n      tag_9\n      jumpi\n      dup1\n      0xedf0099b\n      eq\n      tag_10\n      jumpi\n      dup1\n      0xfb8cbced\n      eq\n      tag_11\n      jumpi\n      jump(tag_2)\n    tag_12:\n      dup1\n      0x335d00c2\n      eq\n      tag_3\n      jumpi\n      dup1\n      0x4cc82215\n      eq\n      tag_4\n      jumpi\n      dup1\n      0x71e5ee5f\n      eq\n      tag_5\n      jumpi\n      dup1\n      0x9507d39a\n      eq\n      tag_6\n      jumpi\n    tag_2:\n      0x00\n      dup1\n      revert\n        /* \"4_Day/11_dynamic_array.sol\":712:897  function examples() public pure returns (uint8[5] memory) {... */\n    tag_3:\n      tag_13\n      tag_14\n      jump\t// in\n    tag_13:\n      mload(0x40)\n      tag_15\n      swap2\n      swap1\n      tag_16\n      jump\t// in\n    tag_15:\n      mload(0x40)\n      dup1\n      swap2\n      sub\n      swap1\n      return\n        /* \"4_Day/11_dynamic_array.sol\":637:706  function remove(uint index) public {... */\n    tag_4:\n      tag_17\n      0x04\n      dup1\n      calldatasize\n      sub\n      dup2\n      add\n      swap1\n      tag_18\n      swap2\n      swap1\n      tag_19\n      jump\t// in\n    tag_18:\n      tag_20\n      jump\t// in\n    tag_17:\n      stop\n        /* \"4_Day/11_dynamic_array.sol\":201:218  uint[] public arr */\n    tag_5:\n      tag_21\n      0x04\n      dup1\n      calldatasize\n      sub\n      dup2\n      add\n      swap1\n      tag_22\n      swap2\n      swap1\n      tag_19\n      jump\t// in\n    tag_22:\n      tag_23\n      jump\t// in\n    tag_21:\n      mload(0x40)\n      tag_24\n      swap2\n      swap1\n      tag_25\n      jump\t// in\n    tag_24:\n      mload(0x40)\n      dup1\n      swap2\n      sub\n      swap1\n      return\n        /* \"4_Day/11_dynamic_array.sol\":261:339  function get(uint i) public view returns (uint) {... */\n    tag_6:\n      tag_26\n      0x04\n      dup1\n      calldatasize\n      sub\n      dup2\n      add\n      swap1\n      tag_27\n      swap2\n      swap1\n      tag_19\n      jump\t// in\n    tag_27:\n      tag_28\n      jump\t// in\n    tag_26:\n      mload(0x40)\n      tag_29\n      swap2\n      swap1\n      tag_25\n      jump\t// in\n    tag_29:\n      mload(0x40)\n      dup1\n      swap2\n      sub\n      swap1\n      return\n        /* \"4_Day/11_dynamic_array.sol\":432:489  function push(uint i) public {... */\n    tag_7:\n      tag_30\n      0x04\n      dup1\n      calldatasize\n      sub\n      dup2\n      add\n      swap1\n      tag_31\n      swap2\n      swap1\n      tag_19\n      jump\t// in\n    tag_31:\n      tag_32\n      jump\t// in\n    tag_30:\n      stop\n        /* \"4_Day/11_dynamic_array.sol\":495:543  function pop() public {... */\n    tag_8:\n      tag_33\n      tag_34\n      jump\t// in\n    tag_33:\n      stop\n        /* \"4_Day/11_dynamic_array.sol\":549:631  function getLength() public view returns (uint) {... */\n    tag_9:\n      tag_35\n      tag_36\n      jump\t// in\n    tag_35:\n      mload(0x40)\n      tag_37\n      swap2\n      swap1\n      tag_25\n      jump\t// in\n    tag_37:\n      mload(0x40)\n      dup1\n      swap2\n      sub\n      swap1\n      return\n        /* \"4_Day/11_dynamic_array.sol\":224:254  uint[] public arr2 = [1, 2, 3] */\n    tag_10:\n      tag_38\n      0x04\n      dup1\n      calldatasize\n      sub\n      dup2\n      add\n      swap1\n      tag_39\n      swap2\n      swap1\n      tag_19\n      jump\t// in\n    tag_39:\n      tag_40\n      jump\t// in\n    tag_38:\n      mload(0x40)\n      tag_41\n      swap2\n      swap1\n      tag_25\n      jump\t// in\n    tag_41:\n      mload(0x40)\n      dup1\n      swap2\n      sub\n      swap1\n      return\n        /* \"4_Day/11_dynamic_array.sol\":345:426  function getArr() public view returns (uint[] memory) {... */\n    tag_11:\n      tag_42\n      tag_43\n      jump\t// in\n    tag_42:\n      mload(0x40)\n      tag_44\n      swap2\n      swap1\n      tag_45\n      jump\t// in\n    tag_44:\n      mload(0x40)\n      dup1\n      swap2\n      sub\n      swap1\n      return\n        /* \"4_Day/11_dynamic_array.sol\":712:897  function examples() public pure returns (uint8[5] memory) {... */\n    tag_14:\n        /* \"4_Day/11_dynamic_array.sol\":753:768  uint8[5] memory */\n      tag_46\n      tag_47\n      jump\t// in\n    tag_46:\n        /* \"4_Day/11_dynamic_array.sol\":838:855  uint8[5] memory a */\n      0x00\n        /* \"4_Day/11_dynamic_array.sol\":838:876  uint8[5] memory a = [0, 5, 10, 15, 20] */\n      mload(0x40)\n      dup1\n      0xa0\n      add\n      0x40\n      mstore\n      dup1\n        /* \"4_Day/11_dynamic_array.sol\":859:860  0 */\n      0x00\n        /* \"4_Day/11_dynamic_array.sol\":838:876  uint8[5] memory a = [0, 5, 10, 15, 20] */\n      0xff\n      and\n      dup2\n      mstore\n      0x20\n      add\n        /* \"4_Day/11_dynamic_array.sol\":862:863  5 */\n      0x05\n        /* \"4_Day/11_dynamic_array.sol\":838:876  uint8[5] memory a = [0, 5, 10, 15, 20] */\n      0xff\n      and\n      dup2\n      mstore\n      0x20\n      add\n        /* \"4_Day/11_dynamic_array.sol\":865:867  10 */\n      0x0a\n        /* \"4_Day/11_dynamic_array.sol\":838:876  uint8[5] memory a = [0, 5, 10, 15, 20] */\n      0xff\n      and\n      dup2\n      mstore\n      0x20\n      add\n        /* \"4_Day/11_dynamic_array.sol\":869:871  15 */\n      0x0f\n        /* \"4_Day/11_dynamic_array.sol\":838:876  uint8[5] memory a = [0, 5, 10, 15, 20] */\n      0xff\n      and\n      dup2\n      mstore\n      0x20\n      add\n        /* \"4_Day/11_dynamic_array.sol\":873:875  20 */\n      0x14\n        /* \"4_Day/11_dynamic_array.sol\":838:876  uint8[5] memory a = [0, 5, 10, 15, 20] */\n      0xff\n      and\n      dup2\n      mstore\n      pop\n      swap1\n      pop\n        /* \"4_Day/11_dynamic_array.sol\":889:890  a */\n      dup1\n        /* \"4_Day/11_dynamic_array.sol\":882:890  return a */\n      swap2\n      pop\n      pop\n        /* \"4_Day/11_dynamic_array.sol\":712:897  function examples() public pure returns (uint8[5] memory) {... */\n      swap1\n      jump\t// out\n        /* \"4_Day/11_dynamic_array.sol\":637:706  function remove(uint index) public {... */\n    tag_20:\n        /* \"4_Day/11_dynamic_array.sol\":689:692  arr */\n      0x00\n        /* \"4_Day/11_dynamic_array.sol\":693:698  index */\n      dup2\n        /* \"4_Day/11_dynamic_array.sol\":689:699  arr[index] */\n      dup2\n      sload\n      dup2\n      lt\n      tag_50\n      jumpi\n      tag_51\n      tag_52\n      jump\t// in\n    tag_51:\n    tag_50:\n      swap1\n      0x00\n      mstore\n      keccak256(0x00, 0x20)\n      add\n        /* \"4_Day/11_dynamic_array.sol\":682:699  delete arr[index] */\n      0x00\n      swap1\n      sstore\n        /* \"4_Day/11_dynamic_array.sol\":637:706  function remove(uint index) public {... */\n      pop\n      jump\t// out\n        /* \"4_Day/11_dynamic_array.sol\":201:218  uint[] public arr */\n    tag_23:\n      0x00\n      dup2\n      dup2\n      sload\n      dup2\n      lt\n      tag_54\n      jumpi\n      0x00\n      dup1\n      revert\n    tag_54:\n      swap1\n      0x00\n      mstore\n      keccak256(0x00, 0x20)\n      add\n      0x00\n      swap2\n      pop\n      swap1\n      pop\n      sload\n      dup2\n      jump\t// out\n        /* \"4_Day/11_dynamic_array.sol\":261:339  function get(uint i) public view returns (uint) {... */\n    tag_28:\n        /* \"4_Day/11_dynamic_array.sol\":303:307  uint */\n      0x00\n        /* \"4_Day/11_dynamic_array.sol\":326:329  arr */\n      dup1\n        /* \"4_Day/11_dynamic_array.sol\":330:331  i */\n      dup3\n        /* \"4_Day/11_dynamic_array.sol\":326:332  arr[i] */\n      dup2\n      sload\n      dup2\n      lt\n      tag_57\n      jumpi\n      tag_58\n      tag_52\n      jump\t// in\n    tag_58:\n    tag_57:\n      swap1\n      0x00\n      mstore\n      keccak256(0x00, 0x20)\n      add\n      sload\n        /* \"4_Day/11_dynamic_array.sol\":319:332  return arr[i] */\n      swap1\n      pop\n        /* \"4_Day/11_dynamic_array.sol\":261:339  function get(uint i) public view returns (uint) {... */\n      swap2\n      swap1\n      pop\n      jump\t// out\n        /* \"4_Day/11_dynamic_array.sol\":432:489  function push(uint i) public {... */\n    tag_32:\n        /* \"4_Day/11_dynamic_array.sol\":471:474  arr */\n      0x00\n        /* \"4_Day/11_dynamic_array.sol\":480:481  i */\n      dup2\n        /* \"4_Day/11_dynamic_array.sol\":471:482  arr.push(i) */\n      swap1\n      dup1\n      0x01\n      dup2\n      sload\n      add\n      dup1\n      dup3\n      sstore\n      dup1\n      swap2\n      pop\n      pop\n      0x01\n      swap1\n      sub\n      swap1\n      0x00\n      mstore\n      keccak256(0x00, 0x20)\n      add\n      0x00\n      swap1\n      swap2\n      swap1\n      swap2\n      swap1\n      swap2\n      pop\n      sstore\n        /* \"4_Day/11_dynamic_array.sol\":432:489  function push(uint i) public {... */\n      pop\n      jump\t// out\n        /* \"4_Day/11_dynamic_array.sol\":495:543  function pop() public {... */\n    tag_34:\n        /* \"4_Day/11_dynamic_array.sol\":527:530  arr */\n      0x00\n        /* \"4_Day/11_dynamic_array.sol\":527:536  arr.pop() */\n      dup1\n      sload\n      dup1\n      tag_63\n      jumpi\n      tag_64\n      tag_65\n      jump\t// in\n    tag_64:\n    tag_63:\n      0x01\n      swap1\n      sub\n      dup2\n      dup2\n      swap1\n      0x00\n      mstore\n      keccak256(0x00, 0x20)\n      add\n      0x00\n      swap1\n      sstore\n      swap1\n      sstore\n        /* \"4_Day/11_dynamic_array.sol\":495:543  function pop() public {... */\n      jump\t// out\n        /* \"4_Day/11_dynamic_array.sol\":549:631  function getLength() public view returns (uint) {... */\n    tag_36:\n        /* \"4_Day/11_dynamic_array.sol\":591:595  uint */\n      0x00\n        /* \"4_Day/11_dynamic_array.sol\":614:617  arr */\n      dup1\n        /* \"4_Day/11_dynamic_array.sol\":614:624  arr.length */\n      dup1\n      sload\n      swap1\n      pop\n        /* \"4_Day/11_dynamic_array.sol\":607:624  return arr.length */\n      swap1\n      pop\n        /* \"4_Day/11_dynamic_array.sol\":549:631  function getLength() public view returns (uint) {... */\n      swap1\n      jump\t// out\n        /* \"4_Day/11_dynamic_array.sol\":224:254  uint[] public arr2 = [1, 2, 3] */\n    tag_40:\n      0x01\n      dup2\n      dup2\n      sload\n      dup2\n      lt\n      tag_68\n      jumpi\n      0x00\n      dup1\n      revert\n    tag_68:\n      swap1\n      0x00\n      mstore\n      keccak256(0x00, 0x20)\n      add\n      0x00\n      swap2\n      pop\n      swap1\n      pop\n      sload\n      dup2\n      jump\t// out\n        /* \"4_Day/11_dynamic_array.sol\":345:426  function getArr() public view returns (uint[] memory) {... */\n    tag_43:\n        /* \"4_Day/11_dynamic_array.sol\":384:397  uint[] memory */\n      0x60\n        /* \"4_Day/11_dynamic_array.sol\":416:419  arr */\n      0x00\n        /* \"4_Day/11_dynamic_array.sol\":409:419  return arr */\n      dup1\n      sload\n      dup1\n      0x20\n      mul\n      0x20\n      add\n      mload(0x40)\n      swap1\n      dup2\n      add\n      0x40\n      mstore\n      dup1\n      swap3\n      swap2\n      swap1\n      dup2\n      dup2\n      mstore\n      0x20\n      add\n      dup3\n      dup1\n      sload\n      dup1\n      iszero\n      tag_71\n      jumpi\n      0x20\n      mul\n      dup3\n      add\n      swap2\n      swap1\n      0x00\n      mstore\n      keccak256(0x00, 0x20)\n      swap1\n    tag_72:\n      dup2\n      sload\n      dup2\n      mstore\n      0x20\n      add\n      swap1\n      0x01\n      add\n      swap1\n      dup1\n      dup4\n      gt\n      tag_72\n      jumpi\n    tag_71:\n      pop\n      pop\n      pop\n      pop\n      pop\n      swap1\n      pop\n        /* \"4_Day/11_dynamic_array.sol\":345:426  function getArr() public view returns (uint[] memory) {... */\n      swap1\n      jump\t// out\n    tag_47:\n      mload(0x40)\n      dup1\n      0xa0\n      add\n      0x40\n      mstore\n      dup1\n      0x05\n      swap1\n      0x20\n      dup3\n      mul\n      dup1\n      calldatasize\n      dup4\n      calldatacopy\n      dup1\n      dup3\n      add\n      swap2\n      pop\n      pop\n      swap1\n      pop\n      pop\n      swap1\n      jump\t// out\n        /* \"#utility.yul\":7:109   */\n    tag_73:\n        /* \"#utility.yul\":70:76   */\n      0x00\n        /* \"#utility.yul\":98:102   */\n      0x05\n        /* \"#utility.yul\":88:102   */\n      swap1\n      pop\n        /* \"#utility.yul\":7:109   */\n      swap2\n      swap1\n      pop\n      jump\t// out\n        /* \"#utility.yul\":115:256   */\n    tag_74:\n        /* \"#utility.yul\":210:221   */\n      0x00\n        /* \"#utility.yul\":247:250   */\n      dup2\n        /* \"#utility.yul\":232:250   */\n      swap1\n      pop\n        /* \"#utility.yul\":115:256   */\n      swap3\n      swap2\n      pop\n      pop\n      jump\t// out\n        /* \"#utility.yul\":262:358   */\n    tag_75:\n        /* \"#utility.yul\":325:329   */\n      0x00\n        /* \"#utility.yul\":348:351   */\n      dup2\n        /* \"#utility.yul\":340:351   */\n      swap1\n      pop\n        /* \"#utility.yul\":262:358   */\n      swap2\n      swap1\n      pop\n      jump\t// out\n        /* \"#utility.yul\":364:450   */\n    tag_76:\n        /* \"#utility.yul\":399:406   */\n      0x00\n        /* \"#utility.yul\":439:443   */\n      0xff\n        /* \"#utility.yul\":432:437   */\n      dup3\n        /* \"#utility.yul\":428:444   */\n      and\n        /* \"#utility.yul\":417:444   */\n      swap1\n      pop\n        /* \"#utility.yul\":364:450   */\n      swap2\n      swap1\n      pop\n      jump\t// out\n        /* \"#utility.yul\":456:558   */\n    tag_77:\n        /* \"#utility.yul\":529:551   */\n      tag_101\n        /* \"#utility.yul\":545:550   */\n      dup2\n        /* \"#utility.yul\":529:551   */\n      tag_76\n      jump\t// in\n    tag_101:\n        /* \"#utility.yul\":524:527   */\n      dup3\n        /* \"#utility.yul\":517:552   */\n      mstore\n        /* \"#utility.yul\":456:558   */\n      pop\n      pop\n      jump\t// out\n        /* \"#utility.yul\":564:735   */\n    tag_78:\n        /* \"#utility.yul\":629:639   */\n      0x00\n        /* \"#utility.yul\":650:692   */\n      tag_103\n        /* \"#utility.yul\":688:691   */\n      dup4\n        /* \"#utility.yul\":680:686   */\n      dup4\n        /* \"#utility.yul\":650:692   */\n      tag_77\n      jump\t// in\n    tag_103:\n        /* \"#utility.yul\":724:728   */\n      0x20\n        /* \"#utility.yul\":719:722   */\n      dup4\n        /* \"#utility.yul\":715:729   */\n      add\n        /* \"#utility.yul\":701:729   */\n      swap1\n      pop\n        /* \"#utility.yul\":564:735   */\n      swap3\n      swap2\n      pop\n      pop\n      jump\t// out\n        /* \"#utility.yul\":741:850   */\n    tag_79:\n        /* \"#utility.yul\":807:811   */\n      0x00\n        /* \"#utility.yul\":839:843   */\n      0x20\n        /* \"#utility.yul\":834:837   */\n      dup3\n        /* \"#utility.yul\":830:844   */\n      add\n        /* \"#utility.yul\":822:844   */\n      swap1\n      pop\n        /* \"#utility.yul\":741:850   */\n      swap2\n      swap1\n      pop\n      jump\t// out\n        /* \"#utility.yul\":884:1562   */\n    tag_80:\n        /* \"#utility.yul\":1016:1066   */\n      tag_106\n        /* \"#utility.yul\":1060:1065   */\n      dup2\n        /* \"#utility.yul\":1016:1066   */\n      tag_73\n      jump\t// in\n    tag_106:\n        /* \"#utility.yul\":1082:1164   */\n      tag_107\n        /* \"#utility.yul\":1157:1163   */\n      dup2\n        /* \"#utility.yul\":1152:1155   */\n      dup5\n        /* \"#utility.yul\":1082:1164   */\n      tag_74\n      jump\t// in\n    tag_107:\n        /* \"#utility.yul\":1075:1164   */\n      swap3\n      pop\n        /* \"#utility.yul\":1188:1240   */\n      tag_108\n        /* \"#utility.yul\":1234:1239   */\n      dup3\n        /* \"#utility.yul\":1188:1240   */\n      tag_75\n      jump\t// in\n    tag_108:\n        /* \"#utility.yul\":1263:1270   */\n      dup1\n        /* \"#utility.yul\":1294:1295   */\n      0x00\n        /* \"#utility.yul\":1279:1555   */\n    tag_109:\n        /* \"#utility.yul\":1304:1310   */\n      dup4\n        /* \"#utility.yul\":1301:1302   */\n      dup2\n        /* \"#utility.yul\":1298:1311   */\n      lt\n        /* \"#utility.yul\":1279:1555   */\n      iszero\n      tag_111\n      jumpi\n        /* \"#utility.yul\":1380:1386   */\n      dup2\n        /* \"#utility.yul\":1374:1387   */\n      mload\n        /* \"#utility.yul\":1407:1466   */\n      tag_112\n        /* \"#utility.yul\":1462:1465   */\n      dup8\n        /* \"#utility.yul\":1447:1460   */\n      dup3\n        /* \"#utility.yul\":1407:1466   */\n      tag_78\n      jump\t// in\n    tag_112:\n        /* \"#utility.yul\":1400:1466   */\n      swap7\n      pop\n        /* \"#utility.yul\":1489:1545   */\n      tag_113\n        /* \"#utility.yul\":1538:1544   */\n      dup4\n        /* \"#utility.yul\":1489:1545   */\n      tag_79\n      jump\t// in\n    tag_113:\n        /* \"#utility.yul\":1479:1545   */\n      swap3\n      pop\n        /* \"#utility.yul\":1339:1555   */\n      pop\n        /* \"#utility.yul\":1326:1327   */\n      0x01\n        /* \"#utility.yul\":1323:1324   */\n      dup2\n        /* \"#utility.yul\":1319:1328   */\n      add\n        /* \"#utility.yul\":1314:1328   */\n      swap1\n      pop\n        /* \"#utility.yul\":1279:1555   */\n      jump(tag_109)\n    tag_111:\n        /* \"#utility.yul\":1283:1297   */\n      pop\n        /* \"#utility.yul\":992:1562   */\n      pop\n      pop\n      pop\n        /* \"#utility.yul\":884:1562   */\n      pop\n      pop\n      jump\t// out\n        /* \"#utility.yul\":1568:1875   */\n    tag_16:\n        /* \"#utility.yul\":1703:1707   */\n      0x00\n        /* \"#utility.yul\":1741:1744   */\n      0xa0\n        /* \"#utility.yul\":1730:1739   */\n      dup3\n        /* \"#utility.yul\":1726:1745   */\n      add\n        /* \"#utility.yul\":1718:1745   */\n      swap1\n      pop\n        /* \"#utility.yul\":1755:1868   */\n      tag_115\n        /* \"#utility.yul\":1865:1866   */\n      0x00\n        /* \"#utility.yul\":1854:1863   */\n      dup4\n        /* \"#utility.yul\":1850:1867   */\n      add\n        /* \"#utility.yul\":1841:1847   */\n      dup5\n        /* \"#utility.yul\":1755:1868   */\n      tag_80\n      jump\t// in\n    tag_115:\n        /* \"#utility.yul\":1568:1875   */\n      swap3\n      swap2\n      pop\n      pop\n      jump\t// out\n        /* \"#utility.yul\":1962:2079   */\n    tag_82:\n        /* \"#utility.yul\":2071:2072   */\n      0x00\n        /* \"#utility.yul\":2068:2069   */\n      dup1\n        /* \"#utility.yul\":2061:2073   */\n      revert\n        /* \"#utility.yul\":2208:2285   */\n    tag_84:\n        /* \"#utility.yul\":2245:2252   */\n      0x00\n        /* \"#utility.yul\":2274:2279   */\n      dup2\n        /* \"#utility.yul\":2263:2279   */\n      swap1\n      pop\n        /* \"#utility.yul\":2208:2285   */\n      swap2\n      swap1\n      pop\n      jump\t// out\n        /* \"#utility.yul\":2291:2413   */\n    tag_85:\n        /* \"#utility.yul\":2364:2388   */\n      tag_121\n        /* \"#utility.yul\":2382:2387   */\n      dup2\n        /* \"#utility.yul\":2364:2388   */\n      tag_84\n      jump\t// in\n    tag_121:\n        /* \"#utility.yul\":2357:2362   */\n      dup2\n        /* \"#utility.yul\":2354:2389   */\n      eq\n        /* \"#utility.yul\":2344:2407   */\n      tag_122\n      jumpi\n        /* \"#utility.yul\":2403:2404   */\n      0x00\n        /* \"#utility.yul\":2400:2401   */\n      dup1\n        /* \"#utility.yul\":2393:2405   */\n      revert\n        /* \"#utility.yul\":2344:2407   */\n    tag_122:\n        /* \"#utility.yul\":2291:2413   */\n      pop\n      jump\t// out\n        /* \"#utility.yul\":2419:2558   */\n    tag_86:\n        /* \"#utility.yul\":2465:2470   */\n      0x00\n        /* \"#utility.yul\":2503:2509   */\n      dup2\n        /* \"#utility.yul\":2490:2510   */\n      calldataload\n        /* \"#utility.yul\":2481:2510   */\n      swap1\n      pop\n        /* \"#utility.yul\":2519:2552   */\n      tag_124\n        /* \"#utility.yul\":2546:2551   */\n      dup2\n        /* \"#utility.yul\":2519:2552   */\n      tag_85\n      jump\t// in\n    tag_124:\n        /* \"#utility.yul\":2419:2558   */\n      swap3\n      swap2\n      pop\n      pop\n      jump\t// out\n        /* \"#utility.yul\":2564:2893   */\n    tag_19:\n        /* \"#utility.yul\":2623:2629   */\n      0x00\n        /* \"#utility.yul\":2672:2674   */\n      0x20\n        /* \"#utility.yul\":2660:2669   */\n      dup3\n        /* \"#utility.yul\":2651:2658   */\n      dup5\n        /* \"#utility.yul\":2647:2670   */\n      sub\n        /* \"#utility.yul\":2643:2675   */\n      slt\n        /* \"#utility.yul\":2640:2759   */\n      iszero\n      tag_126\n      jumpi\n        /* \"#utility.yul\":2678:2757   */\n      tag_127\n      tag_82\n      jump\t// in\n    tag_127:\n        /* \"#utility.yul\":2640:2759   */\n    tag_126:\n        /* \"#utility.yul\":2798:2799   */\n      0x00\n        /* \"#utility.yul\":2823:2876   */\n      tag_128\n        /* \"#utility.yul\":2868:2875   */\n      dup5\n        /* \"#utility.yul\":2859:2865   */\n      dup3\n        /* \"#utility.yul\":2848:2857   */\n      dup6\n        /* \"#utility.yul\":2844:2866   */\n      add\n        /* \"#utility.yul\":2823:2876   */\n      tag_86\n      jump\t// in\n    tag_128:\n        /* \"#utility.yul\":2813:2876   */\n      swap2\n      pop\n        /* \"#utility.yul\":2769:2886   */\n      pop\n        /* \"#utility.yul\":2564:2893   */\n      swap3\n      swap2\n      pop\n      pop\n      jump\t// out\n        /* \"#utility.yul\":2899:3017   */\n    tag_87:\n        /* \"#utility.yul\":2986:3010   */\n      tag_130\n        /* \"#utility.yul\":3004:3009   */\n      dup2\n        /* \"#utility.yul\":2986:3010   */\n      tag_84\n      jump\t// in\n    tag_130:\n        /* \"#utility.yul\":2981:2984   */\n      dup3\n        /* \"#utility.yul\":2974:3011   */\n      mstore\n        /* \"#utility.yul\":2899:3017   */\n      pop\n      pop\n      jump\t// out\n        /* \"#utility.yul\":3023:3245   */\n    tag_25:\n        /* \"#utility.yul\":3116:3120   */\n      0x00\n        /* \"#utility.yul\":3154:3156   */\n      0x20\n        /* \"#utility.yul\":3143:3152   */\n      dup3\n        /* \"#utility.yul\":3139:3157   */\n      add\n        /* \"#utility.yul\":3131:3157   */\n      swap1\n      pop\n        /* \"#utility.yul\":3167:3238   */\n      tag_132\n        /* \"#utility.yul\":3235:3236   */\n      0x00\n        /* \"#utility.yul\":3224:3233   */\n      dup4\n        /* \"#utility.yul\":3220:3237   */\n      add\n        /* \"#utility.yul\":3211:3217   */\n      dup5\n        /* \"#utility.yul\":3167:3238   */\n      tag_87\n      jump\t// in\n    tag_132:\n        /* \"#utility.yul\":3023:3245   */\n      swap3\n      swap2\n      pop\n      pop\n      jump\t// out\n        /* \"#utility.yul\":3251:3365   */\n    tag_88:\n        /* \"#utility.yul\":3318:3324   */\n      0x00\n        /* \"#utility.yul\":3352:3357   */\n      dup2\n        /* \"#utility.yul\":3346:3358   */\n      mload\n        /* \"#utility.yul\":3336:3358   */\n      swap1\n      pop\n        /* \"#utility.yul\":3251:3365   */\n      swap2\n      swap1\n      pop\n      jump\t// out\n        /* \"#utility.yul\":3371:3555   */\n    tag_89:\n        /* \"#utility.yul\":3470:3481   */\n      0x00\n        /* \"#utility.yul\":3504:3510   */\n      dup3\n        /* \"#utility.yul\":3499:3502   */\n      dup3\n        /* \"#utility.yul\":3492:3511   */\n      mstore\n        /* \"#utility.yul\":3544:3548   */\n      0x20\n        /* \"#utility.yul\":3539:3542   */\n      dup3\n        /* \"#utility.yul\":3535:3549   */\n      add\n        /* \"#utility.yul\":3520:3549   */\n      swap1\n      pop\n        /* \"#utility.yul\":3371:3555   */\n      swap3\n      swap2\n      pop\n      pop\n      jump\t// out\n        /* \"#utility.yul\":3561:3693   */\n    tag_90:\n        /* \"#utility.yul\":3628:3632   */\n      0x00\n        /* \"#utility.yul\":3651:3654   */\n      dup2\n        /* \"#utility.yul\":3643:3654   */\n      swap1\n      pop\n        /* \"#utility.yul\":3681:3685   */\n      0x20\n        /* \"#utility.yul\":3676:3679   */\n      dup3\n        /* \"#utility.yul\":3672:3686   */\n      add\n        /* \"#utility.yul\":3664:3686   */\n      swap1\n      pop\n        /* \"#utility.yul\":3561:3693   */\n      swap2\n      swap1\n      pop\n      jump\t// out\n        /* \"#utility.yul\":3699:3807   */\n    tag_91:\n        /* \"#utility.yul\":3776:3800   */\n      tag_137\n        /* \"#utility.yul\":3794:3799   */\n      dup2\n        /* \"#utility.yul\":3776:3800   */\n      tag_84\n      jump\t// in\n    tag_137:\n        /* \"#utility.yul\":3771:3774   */\n      dup3\n        /* \"#utility.yul\":3764:3801   */\n      mstore\n        /* \"#utility.yul\":3699:3807   */\n      pop\n      pop\n      jump\t// out\n        /* \"#utility.yul\":3813:3992   */\n    tag_92:\n        /* \"#utility.yul\":3882:3892   */\n      0x00\n        /* \"#utility.yul\":3903:3949   */\n      tag_139\n        /* \"#utility.yul\":3945:3948   */\n      dup4\n        /* \"#utility.yul\":3937:3943   */\n      dup4\n        /* \"#utility.yul\":3903:3949   */\n      tag_91\n      jump\t// in\n    tag_139:\n        /* \"#utility.yul\":3981:3985   */\n      0x20\n        /* \"#utility.yul\":3976:3979   */\n      dup4\n        /* \"#utility.yul\":3972:3986   */\n      add\n        /* \"#utility.yul\":3958:3986   */\n      swap1\n      pop\n        /* \"#utility.yul\":3813:3992   */\n      swap3\n      swap2\n      pop\n      pop\n      jump\t// out\n        /* \"#utility.yul\":3998:4111   */\n    tag_93:\n        /* \"#utility.yul\":4068:4072   */\n      0x00\n        /* \"#utility.yul\":4100:4104   */\n      0x20\n        /* \"#utility.yul\":4095:4098   */\n      dup3\n        /* \"#utility.yul\":4091:4105   */\n      add\n        /* \"#utility.yul\":4083:4105   */\n      swap1\n      pop\n        /* \"#utility.yul\":3998:4111   */\n      swap2\n      swap1\n      pop\n      jump\t// out\n        /* \"#utility.yul\":4147:4879   */\n    tag_94:\n        /* \"#utility.yul\":4266:4269   */\n      0x00\n        /* \"#utility.yul\":4295:4349   */\n      tag_142\n        /* \"#utility.yul\":4343:4348   */\n      dup3\n        /* \"#utility.yul\":4295:4349   */\n      tag_88\n      jump\t// in\n    tag_142:\n        /* \"#utility.yul\":4365:4451   */\n      tag_143\n        /* \"#utility.yul\":4444:4450   */\n      dup2\n        /* \"#utility.yul\":4439:4442   */\n      dup6\n        /* \"#utility.yul\":4365:4451   */\n      tag_89\n      jump\t// in\n    tag_143:\n        /* \"#utility.yul\":4358:4451   */\n      swap4\n      pop\n        /* \"#utility.yul\":4475:4531   */\n      tag_144\n        /* \"#utility.yul\":4525:4530   */\n      dup4\n        /* \"#utility.yul\":4475:4531   */\n      tag_90\n      jump\t// in\n    tag_144:\n        /* \"#utility.yul\":4554:4561   */\n      dup1\n        /* \"#utility.yul\":4585:4586   */\n      0x00\n        /* \"#utility.yul\":4570:4854   */\n    tag_145:\n        /* \"#utility.yul\":4595:4601   */\n      dup4\n        /* \"#utility.yul\":4592:4593   */\n      dup2\n        /* \"#utility.yul\":4589:4602   */\n      lt\n        /* \"#utility.yul\":4570:4854   */\n      iszero\n      tag_147\n      jumpi\n        /* \"#utility.yul\":4671:4677   */\n      dup2\n        /* \"#utility.yul\":4665:4678   */\n      mload\n        /* \"#utility.yul\":4698:4761   */\n      tag_148\n        /* \"#utility.yul\":4757:4760   */\n      dup9\n        /* \"#utility.yul\":4742:4755   */\n      dup3\n        /* \"#utility.yul\":4698:4761   */\n      tag_92\n      jump\t// in\n    tag_148:\n        /* \"#utility.yul\":4691:4761   */\n      swap8\n      pop\n        /* \"#utility.yul\":4784:4844   */\n      tag_149\n        /* \"#utility.yul\":4837:4843   */\n      dup4\n        /* \"#utility.yul\":4784:4844   */\n      tag_93\n      jump\t// in\n    tag_149:\n        /* \"#utility.yul\":4774:4844   */\n      swap3\n      pop\n        /* \"#utility.yul\":4630:4854   */\n      pop\n        /* \"#utility.yul\":4617:4618   */\n      0x01\n        /* \"#utility.yul\":4614:4615   */\n      dup2\n        /* \"#utility.yul\":4610:4619   */\n      add\n        /* \"#utility.yul\":4605:4619   */\n      swap1\n      pop\n        /* \"#utility.yul\":4570:4854   */\n      jump(tag_145)\n    tag_147:\n        /* \"#utility.yul\":4574:4588   */\n      pop\n        /* \"#utility.yul\":4870:4873   */\n      dup6\n        /* \"#utility.yul\":4863:4873   */\n      swap4\n      pop\n        /* \"#utility.yul\":4271:4879   */\n      pop\n      pop\n      pop\n        /* \"#utility.yul\":4147:4879   */\n      swap3\n      swap2\n      pop\n      pop\n      jump\t// out\n        /* \"#utility.yul\":4885:5258   */\n    tag_45:\n        /* \"#utility.yul\":5028:5032   */\n      0x00\n        /* \"#utility.yul\":5066:5068   */\n      0x20\n        /* \"#utility.yul\":5055:5064   */\n      dup3\n        /* \"#utility.yul\":5051:5069   */\n      add\n        /* \"#utility.yul\":5043:5069   */\n      swap1\n      pop\n        /* \"#utility.yul\":5115:5124   */\n      dup2\n        /* \"#utility.yul\":5109:5113   */\n      dup2\n        /* \"#utility.yul\":5105:5125   */\n      sub\n        /* \"#utility.yul\":5101:5102   */\n      0x00\n        /* \"#utility.yul\":5090:5099   */\n      dup4\n        /* \"#utility.yul\":5086:5103   */\n      add\n        /* \"#utility.yul\":5079:5126   */\n      mstore\n        /* \"#utility.yul\":5143:5251   */\n      tag_151\n        /* \"#utility.yul\":5246:5250   */\n      dup2\n        /* \"#utility.yul\":5237:5243   */\n      dup5\n        /* \"#utility.yul\":5143:5251   */\n      tag_94\n      jump\t// in\n    tag_151:\n        /* \"#utility.yul\":5135:5251   */\n      swap1\n      pop\n        /* \"#utility.yul\":4885:5258   */\n      swap3\n      swap2\n      pop\n      pop\n      jump\t// out\n        /* \"#utility.yul\":5264:5444   */\n    tag_52:\n        /* \"#utility.yul\":5312:5389   */\n      0x4e487b7100000000000000000000000000000000000000000000000000000000\n        /* \"#utility.yul\":5309:5310   */\n      0x00\n        /* \"#utility.yul\":5302:5390   */\n      mstore\n        /* \"#utility.yul\":5409:5413   */\n      0x32\n        /* \"#utility.yul\":5406:5407   */\n      0x04\n        /* \"#utility.yul\":5399:5414   */\n      mstore\n        /* \"#utility.yul\":5433:5437   */\n      0x24\n        /* \"#utility.yul\":5430:5431   */\n      0x00\n        /* \"#utility.yul\":5423:5438   */\n      revert\n        /* \"#utility.yul\":5450:5630   */\n    tag_65:\n        /* \"#utility.yul\":5498:5575   */\n      0x4e487b7100000000000000000000000000000000000000000000000000000000\n        /* \"#utility.yul\":5495:5496   */\n      0x00\n        /* \"#utility.yul\":5488:5576   */\n      mstore\n        /* \"#utility.yul\":5595:5599   */\n      0x31\n        /* \"#utility.yul\":5592:5593   */\n      0x04\n        /* \"#utility.yul\":5585:5600   */\n      mstore\n        /* \"#utility.yul\":5619:5623   */\n      0x24\n        /* \"#utility.yul\":5616:5617   */\n      0x00\n        /* \"#utility.yul\":5609:5624   */\n      revert\n\n    auxdata: 0xa2646970667358221220585529d8269485357acc3c1953461af7859a6a3f54b57fedda58dad8c166c32364736f6c63430008110033\n}\n",
				"bytecode": {
					"linkReferences": {},
					"object": "60806040526040518060600160405280600160ff168152602001600260ff168152602001600360ff16815250600190600361003b92919061004e565b5034801561004857600080fd5b506100bd565b82805482825590600052602060002090810192821561008f579160200282015b8281111561008e578251829060ff1690559160200191906001019061006e565b5b50905061009c91906100a0565b5090565b5b808211156100b95760008160009055506001016100a1565b5090565b61065b806100cc6000396000f3fe608060405234801561001057600080fd5b50600436106100935760003560e01c8063959ac48411610066578063959ac48414610132578063a4ece52c1461014e578063be1c766b14610158578063edf0099b14610176578063fb8cbced146101a657610093565b8063335d00c2146100985780634cc82215146100b657806371e5ee5f146100d25780639507d39a14610102575b600080fd5b6100a06101c4565b6040516100ad919061043a565b60405180910390f35b6100d060048036038101906100cb9190610490565b610212565b005b6100ec60048036038101906100e79190610490565b610237565b6040516100f991906104cc565b60405180910390f35b61011c60048036038101906101179190610490565b61025b565b60405161012991906104cc565b60405180910390f35b61014c60048036038101906101479190610490565b610282565b005b6101566102ae565b005b6101606102d8565b60405161016d91906104cc565b60405180910390f35b610190600480360381019061018b9190610490565b6102e4565b60405161019d91906104cc565b60405180910390f35b6101ae610308565b6040516101bb91906105a5565b60405180910390f35b6101cc610360565b60006040518060a00160405280600060ff168152602001600560ff168152602001600a60ff168152602001600f60ff168152602001601460ff1681525090508091505090565b60008181548110610226576102256105c7565b5b906000526020600020016000905550565b6000818154811061024757600080fd5b906000526020600020016000915090505481565b60008082815481106102705761026f6105c7565b5b90600052602060002001549050919050565b600081908060018154018082558091505060019003906000526020600020016000909190919091505550565b60008054806102c0576102bf6105f6565b5b60019003818190600052602060002001600090559055565b60008080549050905090565b600181815481106102f457600080fd5b906000526020600020016000915090505481565b6060600080548060200260200160405190810160405280929190818152602001828054801561035657602002820191906000526020600020905b815481526020019060010190808311610342575b5050505050905090565b6040518060a00160405280600590602082028036833780820191505090505090565b600060059050919050565b600081905092915050565b6000819050919050565b600060ff82169050919050565b6103b8816103a2565b82525050565b60006103ca83836103af565b60208301905092915050565b6000602082019050919050565b6103ec81610382565b6103f6818461038d565b925061040182610398565b8060005b8381101561043257815161041987826103be565b9650610424836103d6565b925050600181019050610405565b505050505050565b600060a08201905061044f60008301846103e3565b92915050565b600080fd5b6000819050919050565b61046d8161045a565b811461047857600080fd5b50565b60008135905061048a81610464565b92915050565b6000602082840312156104a6576104a5610455565b5b60006104b48482850161047b565b91505092915050565b6104c68161045a565b82525050565b60006020820190506104e160008301846104bd565b92915050565b600081519050919050565b600082825260208201905092915050565b6000819050602082019050919050565b61051c8161045a565b82525050565b600061052e8383610513565b60208301905092915050565b6000602082019050919050565b6000610552826104e7565b61055c81856104f2565b935061056783610503565b8060005b8381101561059857815161057f8882610522565b975061058a8361053a565b92505060018101905061056b565b5085935050505092915050565b600060208201905081810360008301526105bf8184610547565b905092915050565b7f4e487b7100000000000000000000000000000000000000000000000000000000600052603260045260246000fd5b7f4e487b7100000000000000000000000000000000000000000000000000000000600052603160045260246000fdfea2646970667358221220585529d8269485357acc3c1953461af7859a6a3f54b57fedda58dad8c166c32364736f6c63430008110033",
					"opcodes": "PUSH1 0x80 PUSH1 0x40 MSTORE PUSH1 0x40 MLOAD DUP1 PUSH1 0x60 ADD PUSH1 0x40 MSTORE DUP1 PUSH1 0x1 PUSH1 0xFF AND DUP2 MSTORE PUSH1 0x20 ADD PUSH1 0x2 PUSH1 0xFF AND DUP2 MSTORE PUSH1 0x20 ADD PUSH1 0x3 PUSH1 0xFF AND DUP2 MSTORE POP PUSH1 0x1 SWAP1 PUSH1 0x3 PUSH2 0x3B SWAP3 SWAP2 SWAP1 PUSH2 0x4E JUMP JUMPDEST POP CALLVALUE DUP1 ISZERO PUSH2 0x48 JUMPI PUSH1 0x0 DUP1 REVERT JUMPDEST POP PUSH2 0xBD JUMP JUMPDEST DUP3 DUP1 SLOAD DUP3 DUP3 SSTORE SWAP1 PUSH1 0x0 MSTORE PUSH1 0x20 PUSH1 0x0 KECCAK256 SWAP1 DUP2 ADD SWAP3 DUP3 ISZERO PUSH2 0x8F JUMPI SWAP2 PUSH1 0x20 MUL DUP3 ADD JUMPDEST DUP3 DUP2 GT ISZERO PUSH2 0x8E JUMPI DUP3 MLOAD DUP3 SWAP1 PUSH1 0xFF AND SWAP1 SSTORE SWAP2 PUSH1 0x20 ADD SWAP2 SWAP1 PUSH1 0x1 ADD SWAP1 PUSH2 0x6E JUMP JUMPDEST JUMPDEST POP SWAP1 POP PUSH2 0x9C SWAP2 SWAP1 PUSH2 0xA0 JUMP JUMPDEST POP SWAP1 JUMP JUMPDEST JUMPDEST DUP1 DUP3 GT ISZERO PUSH2 0xB9 JUMPI PUSH1 0x0 DUP2 PUSH1 0x0 SWAP1 SSTORE POP PUSH1 0x1 ADD PUSH2 0xA1 JUMP JUMPDEST POP SWAP1 JUMP JUMPDEST PUSH2 0x65B DUP1 PUSH2 0xCC PUSH1 0x0 CODECOPY PUSH1 0x0 RETURN INVALID PUSH1 0x80 PUSH1 0x40 MSTORE CALLVALUE DUP1 ISZERO PUSH2 0x10 JUMPI PUSH1 0x0 DUP1 REVERT JUMPDEST POP PUSH1 0x4 CALLDATASIZE LT PUSH2 0x93 JUMPI PUSH1 0x0 CALLDATALOAD PUSH1 0xE0 SHR DUP1 PUSH4 0x959AC484 GT PUSH2 0x66 JUMPI DUP1 PUSH4 0x959AC484 EQ PUSH2 0x132 JUMPI DUP1 PUSH4 0xA4ECE52C EQ PUSH2 0x14E JUMPI DUP1 PUSH4 0xBE1C766B EQ PUSH2 0x158 JUMPI DUP1 PUSH4 0xEDF0099B EQ PUSH2 0x176 JUMPI DUP1 PUSH4 0xFB8CBCED EQ PUSH2 0x1A6 JUMPI PUSH2 0x93 JUMP JUMPDEST DUP1 PUSH4 0x335D00C2 EQ PUSH2 0x98 JUMPI DUP1 PUSH4 0x4CC82215 EQ PUSH2 0xB6 JUMPI DUP1 PUSH4 0x71E5EE5F EQ PUSH2 0xD2 JUMPI DUP1 PUSH4 0x9507D39A EQ PUSH2 0x102 JUMPI JUMPDEST PUSH1 0x0 DUP1 REVERT JUMPDEST PUSH2 0xA0 PUSH2 0x1C4 JUMP JUMPDEST PUSH1 0x40 MLOAD PUSH2 0xAD SWAP2 SWAP1 PUSH2 0x43A JUMP JUMPDEST PUSH1 0x40 MLOAD DUP1 SWAP2 SUB SWAP1 RETURN JUMPDEST PUSH2 0xD0 PUSH1 0x4 DUP1 CALLDATASIZE SUB DUP2 ADD SWAP1 PUSH2 0xCB SWAP2 SWAP1 PUSH2 0x490 JUMP JUMPDEST PUSH2 0x212 JUMP JUMPDEST STOP JUMPDEST PUSH2 0xEC PUSH1 0x4 DUP1 CALLDATASIZE SUB DUP2 ADD SWAP1 PUSH2 0xE7 SWAP2 SWAP1 PUSH2 0x490 JUMP JUMPDEST PUSH2 0x237 JUMP JUMPDEST PUSH1 0x40 MLOAD PUSH2 0xF9 SWAP2 SWAP1 PUSH2 0x4CC JUMP JUMPDEST PUSH1 0x40 MLOAD DUP1 SWAP2 SUB SWAP1 RETURN JUMPDEST PUSH2 0x11C PUSH1 0x4 DUP1 CALLDATASIZE SUB DUP2 ADD SWAP1 PUSH2 0x117 SWAP2 SWAP1 PUSH2 0x490 JUMP JUMPDEST PUSH2 0x25B JUMP JUMPDEST PUSH1 0x40 MLOAD PUSH2 0x129 SWAP2 SWAP1 PUSH2 0x4CC JUMP JUMPDEST PUSH1 0x40 MLOAD DUP1 SWAP2 SUB SWAP1 RETURN JUMPDEST PUSH2 0x14C PUSH1 0x4 DUP1 CALLDATASIZE SUB DUP2 ADD SWAP1 PUSH2 0x147 SWAP2 SWAP1 PUSH2 0x490 JUMP JUMPDEST PUSH2 0x282 JUMP JUMPDEST STOP JUMPDEST PUSH2 0x156 PUSH2 0x2AE JUMP JUMPDEST STOP JUMPDEST PUSH2 0x160 PUSH2 0x2D8 JUMP JUMPDEST PUSH1 0x40 MLOAD PUSH2 0x16D SWAP2 SWAP1 PUSH2 0x4CC JUMP JUMPDEST PUSH1 0x40 MLOAD DUP1 SWAP2 SUB SWAP1 RETURN JUMPDEST PUSH2 0x190 PUSH1 0x4 DUP1 CALLDATASIZE SUB DUP2 ADD SWAP1 PUSH2 0x18B SWAP2 SWAP1 PUSH2 0x490 JUMP JUMPDEST PUSH2 0x2E4 JUMP JUMPDEST PUSH1 0x40 MLOAD PUSH2 0x19D SWAP2 SWAP1 PUSH2 0x4CC JUMP JUMPDEST PUSH1 0x40 MLOAD DUP1 SWAP2 SUB SWAP1 RETURN JUMPDEST PUSH2 0x1AE PUSH2 0x308 JUMP JUMPDEST PUSH1 0x40 MLOAD PUSH2 0x1BB SWAP2 SWAP1 PUSH2 0x5A5 JUMP JUMPDEST PUSH1 0x40 MLOAD DUP1 SWAP2 SUB SWAP1 RETURN JUMPDEST PUSH2 0x1CC PUSH2 0x360 JUMP JUMPDEST PUSH1 0x0 PUSH1 0x40 MLOAD DUP1 PUSH1 0xA0 ADD PUSH1 0x40 MSTORE DUP1 PUSH1 0x0 PUSH1 0xFF AND DUP2 MSTORE PUSH1 0x20 ADD PUSH1 0x5 PUSH1 0xFF AND DUP2 MSTORE PUSH1 0x20 ADD PUSH1 0xA PUSH1 0xFF AND DUP2 MSTORE PUSH1 0x20 ADD PUSH1 0xF PUSH1 0xFF AND DUP2 MSTORE PUSH1 0x20 ADD PUSH1 0x14 PUSH1 0xFF AND DUP2 MSTORE POP SWAP1 POP DUP1 SWAP2 POP POP SWAP1 JUMP JUMPDEST PUSH1 0x0 DUP2 DUP2 SLOAD DUP2 LT PUSH2 0x226 JUMPI PUSH2 0x225 PUSH2 0x5C7 JUMP JUMPDEST JUMPDEST SWAP1 PUSH1 0x0 MSTORE PUSH1 0x20 PUSH1 0x0 KECCAK256 ADD PUSH1 0x0 SWAP1 SSTORE POP JUMP JUMPDEST PUSH1 0x0 DUP2 DUP2 SLOAD DUP2 LT PUSH2 0x247 JUMPI PUSH1 0x0 DUP1 REVERT JUMPDEST SWAP1 PUSH1 0x0 MSTORE PUSH1 0x20 PUSH1 0x0 KECCAK256 ADD PUSH1 0x0 SWAP2 POP SWAP1 POP SLOAD DUP2 JUMP JUMPDEST PUSH1 0x0 DUP1 DUP3 DUP2 SLOAD DUP2 LT PUSH2 0x270 JUMPI PUSH2 0x26F PUSH2 0x5C7 JUMP JUMPDEST JUMPDEST SWAP1 PUSH1 0x0 MSTORE PUSH1 0x20 PUSH1 0x0 KECCAK256 ADD SLOAD SWAP1 POP SWAP2 SWAP1 POP JUMP JUMPDEST PUSH1 0x0 DUP2 SWAP1 DUP1 PUSH1 0x1 DUP2 SLOAD ADD DUP1 DUP3 SSTORE DUP1 SWAP2 POP POP PUSH1 0x1 SWAP1 SUB SWAP1 PUSH1 0x0 MSTORE PUSH1 0x20 PUSH1 0x0 KECCAK256 ADD PUSH1 0x0 SWAP1 SWAP2 SWAP1 SWAP2 SWAP1 SWAP2 POP SSTORE POP JUMP JUMPDEST PUSH1 0x0 DUP1 SLOAD DUP1 PUSH2 0x2C0 JUMPI PUSH2 0x2BF PUSH2 0x5F6 JUMP JUMPDEST JUMPDEST PUSH1 0x1 SWAP1 SUB DUP2 DUP2 SWAP1 PUSH1 0x0 MSTORE PUSH1 0x20 PUSH1 0x0 KECCAK256 ADD PUSH1 0x0 SWAP1 SSTORE SWAP1 SSTORE JUMP JUMPDEST PUSH1 0x0 DUP1 DUP1 SLOAD SWAP1 POP SWAP1 POP SWAP1 JUMP JUMPDEST PUSH1 0x1 DUP2 DUP2 SLOAD DUP2 LT PUSH2 0x2F4 JUMPI PUSH1 0x0 DUP1 REVERT JUMPDEST SWAP1 PUSH1 0x0 MSTORE PUSH1 0x20 PUSH1 0x0 KECCAK256 ADD PUSH1 0x0 SWAP2 POP SWAP1 POP SLOAD DUP2 JUMP JUMPDEST PUSH1 0x60 PUSH1 0x0 DUP1 SLOAD DUP1 PUSH1 0x20 MUL PUSH1 0x20 ADD PUSH1 0x40 MLOAD SWAP1 DUP2 ADD PUSH1 0x40 MSTORE DUP1 SWAP3 SWAP2 SWAP1 DUP2 DUP2 MSTORE PUSH1 0x20 ADD DUP3 DUP1 SLOAD DUP1 ISZERO PUSH2 0x356 JUMPI PUSH1 0x20 MUL DUP3 ADD SWAP2 SWAP1 PUSH1 0x0 MSTORE PUSH1 0x20 PUSH1 0x0 KECCAK256 SWAP1 JUMPDEST DUP2 SLOAD DUP2 MSTORE PUSH1 0x20 ADD SWAP1 PUSH1 0x1 ADD SWAP1 DUP1 DUP4 GT PUSH2 0x342 JUMPI JUMPDEST POP POP POP POP POP SWAP1 POP SWAP1 JUMP JUMPDEST PUSH1 0x40 MLOAD DUP1 PUSH1 0xA0 ADD PUSH1 0x40 MSTORE DUP1 PUSH1 0x5 SWAP1 PUSH1 0x20 DUP3 MUL DUP1 CALLDATASIZE DUP4 CALLDATACOPY DUP1 DUP3 ADD SWAP2 POP POP SWAP1 POP POP SWAP1 JUMP JUMPDEST PUSH1 0x0 PUSH1 0x5 SWAP1 POP SWAP2 SWAP1 POP JUMP JUMPDEST PUSH1 0x0 DUP2 SWAP1 POP SWAP3 SWAP2 POP POP JUMP JUMPDEST PUSH1 0x0 DUP2 SWAP1 POP SWAP2 SWAP1 POP JUMP JUMPDEST PUSH1 0x0 PUSH1 0xFF DUP3 AND SWAP1 POP SWAP2 SWAP1 POP JUMP JUMPDEST PUSH2 0x3B8 DUP2 PUSH2 0x3A2 JUMP JUMPDEST DUP3 MSTORE POP POP JUMP JUMPDEST PUSH1 0x0 PUSH2 0x3CA DUP4 DUP4 PUSH2 0x3AF JUMP JUMPDEST PUSH1 0x20 DUP4 ADD SWAP1 POP SWAP3 SWAP2 POP POP JUMP JUMPDEST PUSH1 0x0 PUSH1 0x20 DUP3 ADD SWAP1 POP SWAP2 SWAP1 POP JUMP JUMPDEST PUSH2 0x3EC DUP2 PUSH2 0x382 JUMP JUMPDEST PUSH2 0x3F6 DUP2 DUP5 PUSH2 0x38D JUMP JUMPDEST SWAP3 POP PUSH2 0x401 DUP3 PUSH2 0x398 JUMP JUMPDEST DUP1 PUSH1 0x0 JUMPDEST DUP4 DUP2 LT ISZERO PUSH2 0x432 JUMPI DUP2 MLOAD PUSH2 0x419 DUP8 DUP3 PUSH2 0x3BE JUMP JUMPDEST SWAP7 POP PUSH2 0x424 DUP4 PUSH2 0x3D6 JUMP JUMPDEST SWAP3 POP POP PUSH1 0x1 DUP2 ADD SWAP1 POP PUSH2 0x405 JUMP JUMPDEST POP POP POP POP POP POP JUMP JUMPDEST PUSH1 0x0 PUSH1 0xA0 DUP3 ADD SWAP1 POP PUSH2 0x44F PUSH1 0x0 DUP4 ADD DUP5 PUSH2 0x3E3 JUMP JUMPDEST SWAP3 SWAP2 POP POP JUMP JUMPDEST PUSH1 0x0 DUP1 REVERT JUMPDEST PUSH1 0x0 DUP2 SWAP1 POP SWAP2 SWAP1 POP JUMP JUMPDEST PUSH2 0x46D DUP2 PUSH2 0x45A JUMP JUMPDEST DUP2 EQ PUSH2 0x478 JUMPI PUSH1 0x0 DUP1 REVERT JUMPDEST POP JUMP JUMPDEST PUSH1 0x0 DUP2 CALLDATALOAD SWAP1 POP PUSH2 0x48A DUP2 PUSH2 0x464 JUMP JUMPDEST SWAP3 SWAP2 POP POP JUMP JUMPDEST PUSH1 0x0 PUSH1 0x20 DUP3 DUP5 SUB SLT ISZERO PUSH2 0x4A6 JUMPI PUSH2 0x4A5 PUSH2 0x455 JUMP JUMPDEST JUMPDEST PUSH1 0x0 PUSH2 0x4B4 DUP5 DUP3 DUP6 ADD PUSH2 0x47B JUMP JUMPDEST SWAP2 POP POP SWAP3 SWAP2 POP POP JUMP JUMPDEST PUSH2 0x4C6 DUP2 PUSH2 0x45A JUMP JUMPDEST DUP3 MSTORE POP POP JUMP JUMPDEST PUSH1 0x0 PUSH1 0x20 DUP3 ADD SWAP1 POP PUSH2 0x4E1 PUSH1 0x0 DUP4 ADD DUP5 PUSH2 0x4BD JUMP JUMPDEST SWAP3 SWAP2 POP POP JUMP JUMPDEST PUSH1 0x0 DUP2 MLOAD SWAP1 POP SWAP2 SWAP1 POP JUMP JUMPDEST PUSH1 0x0 DUP3 DUP3 MSTORE PUSH1 0x20 DUP3 ADD SWAP1 POP SWAP3 SWAP2 POP POP JUMP JUMPDEST PUSH1 0x0 DUP2 SWAP1 POP PUSH1 0x20 DUP3 ADD SWAP1 POP SWAP2 SWAP1 POP JUMP JUMPDEST PUSH2 0x51C DUP2 PUSH2 0x45A JUMP JUMPDEST DUP3 MSTORE POP POP JUMP JUMPDEST PUSH1 0x0 PUSH2 0x52E DUP4 DUP4 PUSH2 0x513 JUMP JUMPDEST PUSH1 0x20 DUP4 ADD SWAP1 POP SWAP3 SWAP2 POP POP JUMP JUMPDEST PUSH1 0x0 PUSH1 0x20 DUP3 ADD SWAP1 POP SWAP2 SWAP1 POP JUMP JUMPDEST PUSH1 0x0 PUSH2 0x552 DUP3 PUSH2 0x4E7 JUMP JUMPDEST PUSH2 0x55C DUP2 DUP6 PUSH2 0x4F2 JUMP JUMPDEST SWAP4 POP PUSH2 0x567 DUP4 PUSH2 0x503 JUMP JUMPDEST DUP1 PUSH1 0x0 JUMPDEST DUP4 DUP2 LT ISZERO PUSH2 0x598 JUMPI DUP2 MLOAD PUSH2 0x57F DUP9 DUP3 PUSH2 0x522 JUMP JUMPDEST SWAP8 POP PUSH2 0x58A DUP4 PUSH2 0x53A JUMP JUMPDEST SWAP3 POP POP PUSH1 0x1 DUP2 ADD SWAP1 POP PUSH2 0x56B JUMP JUMPDEST POP DUP6 SWAP4 POP POP POP POP SWAP3 SWAP2 POP POP JUMP JUMPDEST PUSH1 0x0 PUSH1 0x20 DUP3 ADD SWAP1 POP DUP2 DUP2 SUB PUSH1 0x0 DUP4 ADD MSTORE PUSH2 0x5BF DUP2 DUP5 PUSH2 0x547 JUMP JUMPDEST SWAP1 POP SWAP3 SWAP2 POP POP JUMP JUMPDEST PUSH32 0x4E487B7100000000000000000000000000000000000000000000000000000000 PUSH1 0x0 MSTORE PUSH1 0x32 PUSH1 0x4 MSTORE PUSH1 0x24 PUSH1 0x0 REVERT JUMPDEST PUSH32 0x4E487B7100000000000000000000000000000000000000000000000000000000 PUSH1 0x0 MSTORE PUSH1 0x31 PUSH1 0x4 MSTORE PUSH1 0x24 PUSH1 0x0 REVERT INVALID LOG2 PUSH5 0x6970667358 0x22 SLT KECCAK256 PC SSTORE 0x29 0xD8 0x26 SWAP5 DUP6 CALLDATALOAD PUSH27 0xCC3C1953461AF7859A6A3F54B57FEDDA58DAD8C166C32364736F6C PUSH4 0x43000811 STOP CALLER "
				},
				"gasEstimates": {
					"creation": {
						"codeDepositCost": "325400",
						"executionCost": "infinite",
						"totalCost": "infinite"
					},
					"external": {
						"arr(uint256)": "infinite",
						"arr2(uint256)": "infinite",
						"examples()": "infinite",
						"get(uint256)": "infinite",
						"getArr()": "infinite",
						"getLength()": "2489",
						"pop()": "29467",
						"push(uint256)": "46829",
						"remove(uint256)": "7618"
					}
				},
				"methodIdentifiers": {
					"arr(uint256)": "71e5ee5f",
					"arr2(uint256)": "edf0099b",
					"examples()": "335d00c2",
					"get(uint256)": "9507d39a",
					"getArr()": "fb8cbced",
					"getLength()": "be1c766b",
					"pop()": "a4ece52c",
					"push(uint256)": "959ac484",
					"remove(uint256)": "4cc82215"
				}
			},
			"storageLayout": {
				"storage": [
					{
						"astId": 4,
						"contract": "4_Day/11_dynamic_array.sol:Array",
						"label": "arr",
						"offset": 0,
						"slot": "0",
						"type": "t_array(t_uint256)dyn_storage"
					},
					{
						"astId": 11,
						"contract": "4_Day/11_dynamic_array.sol:Array",
						"label": "arr2",
						"offset": 0,
						"slot": "1",
						"type": "t_array(t_uint256)dyn_storage"
					}
				],
				"types": {
					"t_array(t_uint256)dyn_storage": {
						"base": "t_uint256",
						"encoding": "dynamic_array",
						"label": "uint256[]",
						"numberOfBytes": "32"
					},
					"t_uint256": {
						"encoding": "inplace",
						"label": "uint256",
						"numberOfBytes": "32"
					}
				}
			},
			"userdoc": {
				"kind": "user",
				"methods": {},
				"version": 1
			}
		}
	}
}