{
	"4_Day/9_bytes_fixed_array.sol": {
		"Array": {
			"abi": [
				{
					"inputs": [
						{
							"internalType": "uint256",
							"name": "i",
							"type": "uint256"
						}
					],
					"name": "getBytes",
					"outputs": [
						{
							"internalType": "bytes1",
							"name": "",
							"type": "bytes1"
						}
					],
					"stateMutability": "view",
					"type": "function"
				},
				{
					"inputs": [],
					"name": "getBytesLength",
					"outputs": [
						{
							"internalType": "uint256",
							"name": "",
							"type": "uint256"
						}
					],
					"stateMutability": "view",
					"type": "function"
				},
				{
					"inputs": [],
					"name": "var1",
					"outputs": [
						{
							"internalType": "bytes1",
							"name": "",
							"type": "bytes1"
						}
					],
					"stateMutability": "view",
					"type": "function"
				},
				{
					"inputs": [],
					"name": "var2",
					"outputs": [
						{
							"internalType": "bytes2",
							"name": "",
							"type": "bytes2"
						}
					],
					"stateMutability": "view",
					"type": "function"
				},
				{
					"inputs": [],
					"name": "var3",
					"outputs": [
						{
							"internalType": "bytes3",
							"name": "",
							"type": "bytes3"
						}
					],
					"stateMutability": "view",
					"type": "function"
				},
				{
					"inputs": [],
					"name": "var4",
					"outputs": [
						{
							"internalType": "bytes4",
							"name": "",
							"type": "bytes4"
						}
					],
					"stateMutability": "view",
					"type": "function"
				}
			],
			"devdoc": {
				"kind": "dev",
				"methods": {},
				"version": 1
			},
			"evm": {
				"assembly": "    /* \"4_Day/9_bytes_fixed_array.sol\":116:592  contract Array {... */\n  mstore(0x40, 0x80)\n    /* \"4_Day/9_bytes_fixed_array.sol\":138:161  bytes1 public var1 ='a' */\n  0x6100000000000000000000000000000000000000000000000000000000000000\n  0x00\n  dup1\n  0x0100\n  exp\n  dup2\n  sload\n  dup2\n  0xff\n  mul\n  not\n  and\n  swap1\n  dup4\n  0xf8\n  shr\n  mul\n  or\n  swap1\n  sstore\n  pop\n    /* \"4_Day/9_bytes_fixed_array.sol\":183:208  bytes2 public var2 = 'ab' */\n  0x6162000000000000000000000000000000000000000000000000000000000000\n  0x00\n  exp(0x0100, 0x01)\n  dup2\n  sload\n  dup2\n  0xffff\n  mul\n  not\n  and\n  swap1\n  dup4\n  0xf0\n  shr\n  mul\n  or\n  swap1\n  sstore\n  pop\n    /* \"4_Day/9_bytes_fixed_array.sol\":230:256  bytes3 public var3 = 'abc' */\n  0x6162630000000000000000000000000000000000000000000000000000000000\n  0x00\n  exp(0x0100, 0x03)\n  dup2\n  sload\n  dup2\n  0xffffff\n  mul\n  not\n  and\n  swap1\n  dup4\n  0xe8\n  shr\n  mul\n  or\n  swap1\n  sstore\n  pop\n    /* \"4_Day/9_bytes_fixed_array.sol\":300:310  0x12345678 */\n  0x12345678\n    /* \"4_Day/9_bytes_fixed_array.sol\":279:310  bytes4 public var4 = 0x12345678 */\n  0xe0\n  shl\n  0x00\n  exp(0x0100, 0x06)\n  dup2\n  sload\n  dup2\n  0xffffffff\n  mul\n  not\n  and\n  swap1\n  dup4\n  0xe0\n  shr\n  mul\n  or\n  swap1\n  sstore\n  pop\n    /* \"4_Day/9_bytes_fixed_array.sol\":116:592  contract Array {... */\n  callvalue\n  dup1\n  iszero\n  tag_1\n  jumpi\n  0x00\n  dup1\n  revert\ntag_1:\n  pop\n  dataSize(sub_0)\n  dup1\n  dataOffset(sub_0)\n  0x00\n  codecopy\n  0x00\n  return\nstop\n\nsub_0: assembly {\n        /* \"4_Day/9_bytes_fixed_array.sol\":116:592  contract Array {... */\n      mstore(0x40, 0x80)\n      callvalue\n      dup1\n      iszero\n      tag_1\n      jumpi\n      0x00\n      dup1\n      revert\n    tag_1:\n      pop\n      jumpi(tag_2, lt(calldatasize, 0x04))\n      shr(0xe0, calldataload(0x00))\n      dup1\n      0x07da3eae\n      eq\n      tag_3\n      jumpi\n      dup1\n      0x507aff57\n      eq\n      tag_4\n      jumpi\n      dup1\n      0x57bc2ef3\n      eq\n      tag_5\n      jumpi\n      dup1\n      0x5a412551\n      eq\n      tag_6\n      jumpi\n      dup1\n      0x67e919b6\n      eq\n      tag_7\n      jumpi\n      dup1\n      0xda96012e\n      eq\n      tag_8\n      jumpi\n    tag_2:\n      0x00\n      dup1\n      revert\n        /* \"4_Day/9_bytes_fixed_array.sol\":501:588  function getBytesLength() public view returns (uint){... */\n    tag_3:\n      tag_9\n      tag_10\n      jump\t// in\n    tag_9:\n      mload(0x40)\n      tag_11\n      swap2\n      swap1\n      tag_12\n      jump\t// in\n    tag_11:\n      mload(0x40)\n      dup1\n      swap2\n      sub\n      swap1\n      return\n        /* \"4_Day/9_bytes_fixed_array.sol\":183:208  bytes2 public var2 = 'ab' */\n    tag_4:\n      tag_13\n      tag_14\n      jump\t// in\n    tag_13:\n      mload(0x40)\n      tag_15\n      swap2\n      swap1\n      tag_16\n      jump\t// in\n    tag_15:\n      mload(0x40)\n      dup1\n      swap2\n      sub\n      swap1\n      return\n        /* \"4_Day/9_bytes_fixed_array.sol\":376:460  function getBytes(uint i) public view returns(bytes1){... */\n    tag_5:\n      tag_17\n      0x04\n      dup1\n      calldatasize\n      sub\n      dup2\n      add\n      swap1\n      tag_18\n      swap2\n      swap1\n      tag_19\n      jump\t// in\n    tag_18:\n      tag_20\n      jump\t// in\n    tag_17:\n      mload(0x40)\n      tag_21\n      swap2\n      swap1\n      tag_22\n      jump\t// in\n    tag_21:\n      mload(0x40)\n      dup1\n      swap2\n      sub\n      swap1\n      return\n        /* \"4_Day/9_bytes_fixed_array.sol\":279:310  bytes4 public var4 = 0x12345678 */\n    tag_6:\n      tag_23\n      tag_24\n      jump\t// in\n    tag_23:\n      mload(0x40)\n      tag_25\n      swap2\n      swap1\n      tag_26\n      jump\t// in\n    tag_25:\n      mload(0x40)\n      dup1\n      swap2\n      sub\n      swap1\n      return\n        /* \"4_Day/9_bytes_fixed_array.sol\":138:161  bytes1 public var1 ='a' */\n    tag_7:\n      tag_27\n      tag_28\n      jump\t// in\n    tag_27:\n      mload(0x40)\n      tag_29\n      swap2\n      swap1\n      tag_22\n      jump\t// in\n    tag_29:\n      mload(0x40)\n      dup1\n      swap2\n      sub\n      swap1\n      return\n        /* \"4_Day/9_bytes_fixed_array.sol\":230:256  bytes3 public var3 = 'abc' */\n    tag_8:\n      tag_30\n      tag_31\n      jump\t// in\n    tag_30:\n      mload(0x40)\n      tag_32\n      swap2\n      swap1\n      tag_33\n      jump\t// in\n    tag_32:\n      mload(0x40)\n      dup1\n      swap2\n      sub\n      swap1\n      return\n        /* \"4_Day/9_bytes_fixed_array.sol\":501:588  function getBytesLength() public view returns (uint){... */\n    tag_10:\n        /* \"4_Day/9_bytes_fixed_array.sol\":548:552  uint */\n      0x00\n        /* \"4_Day/9_bytes_fixed_array.sol\":570:574  var4 */\n      dup1\n      0x06\n      swap1\n      sload\n      swap1\n      0x0100\n      exp\n      swap1\n      pop\n      pop\n        /* \"4_Day/9_bytes_fixed_array.sol\":570:581  var4.length */\n      0x04\n        /* \"4_Day/9_bytes_fixed_array.sol\":563:581  return var4.length */\n      0xff\n      and\n      swap1\n      pop\n        /* \"4_Day/9_bytes_fixed_array.sol\":501:588  function getBytesLength() public view returns (uint){... */\n      swap1\n      jump\t// out\n        /* \"4_Day/9_bytes_fixed_array.sol\":183:208  bytes2 public var2 = 'ab' */\n    tag_14:\n      0x00\n      0x01\n      swap1\n      sload\n      swap1\n      0x0100\n      exp\n      swap1\n      div\n      0xf0\n      shl\n      dup2\n      jump\t// out\n        /* \"4_Day/9_bytes_fixed_array.sol\":376:460  function getBytes(uint i) public view returns(bytes1){... */\n    tag_20:\n        /* \"4_Day/9_bytes_fixed_array.sol\":422:428  bytes1 */\n      0x00\n        /* \"4_Day/9_bytes_fixed_array.sol\":446:450  var3 */\n      dup1\n      0x03\n      swap1\n      sload\n      swap1\n      0x0100\n      exp\n      swap1\n      div\n      0xe8\n      shl\n        /* \"4_Day/9_bytes_fixed_array.sol\":451:452  i */\n      dup3\n        /* \"4_Day/9_bytes_fixed_array.sol\":446:453  var3[i] */\n      0x03\n      dup2\n      lt\n      tag_36\n      jumpi\n      tag_37\n      tag_38\n      jump\t// in\n    tag_37:\n    tag_36:\n      byte\n      0xf8\n      shl\n        /* \"4_Day/9_bytes_fixed_array.sol\":439:453  return var3[i] */\n      swap1\n      pop\n        /* \"4_Day/9_bytes_fixed_array.sol\":376:460  function getBytes(uint i) public view returns(bytes1){... */\n      swap2\n      swap1\n      pop\n      jump\t// out\n        /* \"4_Day/9_bytes_fixed_array.sol\":279:310  bytes4 public var4 = 0x12345678 */\n    tag_24:\n      0x00\n      0x06\n      swap1\n      sload\n      swap1\n      0x0100\n      exp\n      swap1\n      div\n      0xe0\n      shl\n      dup2\n      jump\t// out\n        /* \"4_Day/9_bytes_fixed_array.sol\":138:161  bytes1 public var1 ='a' */\n    tag_28:\n      0x00\n      dup1\n      sload\n      swap1\n      0x0100\n      exp\n      swap1\n      div\n      0xf8\n      shl\n      dup2\n      jump\t// out\n        /* \"4_Day/9_bytes_fixed_array.sol\":230:256  bytes3 public var3 = 'abc' */\n    tag_31:\n      0x00\n      0x03\n      swap1\n      sload\n      swap1\n      0x0100\n      exp\n      swap1\n      div\n      0xe8\n      shl\n      dup2\n      jump\t// out\n        /* \"#utility.yul\":7:84   */\n    tag_39:\n        /* \"#utility.yul\":44:51   */\n      0x00\n        /* \"#utility.yul\":73:78   */\n      dup2\n        /* \"#utility.yul\":62:78   */\n      swap1\n      pop\n        /* \"#utility.yul\":7:84   */\n      swap2\n      swap1\n      pop\n      jump\t// out\n        /* \"#utility.yul\":90:208   */\n    tag_40:\n        /* \"#utility.yul\":177:201   */\n      tag_57\n        /* \"#utility.yul\":195:200   */\n      dup2\n        /* \"#utility.yul\":177:201   */\n      tag_39\n      jump\t// in\n    tag_57:\n        /* \"#utility.yul\":172:175   */\n      dup3\n        /* \"#utility.yul\":165:202   */\n      mstore\n        /* \"#utility.yul\":90:208   */\n      pop\n      pop\n      jump\t// out\n        /* \"#utility.yul\":214:436   */\n    tag_12:\n        /* \"#utility.yul\":307:311   */\n      0x00\n        /* \"#utility.yul\":345:347   */\n      0x20\n        /* \"#utility.yul\":334:343   */\n      dup3\n        /* \"#utility.yul\":330:348   */\n      add\n        /* \"#utility.yul\":322:348   */\n      swap1\n      pop\n        /* \"#utility.yul\":358:429   */\n      tag_59\n        /* \"#utility.yul\":426:427   */\n      0x00\n        /* \"#utility.yul\":415:424   */\n      dup4\n        /* \"#utility.yul\":411:428   */\n      add\n        /* \"#utility.yul\":402:408   */\n      dup5\n        /* \"#utility.yul\":358:429   */\n      tag_40\n      jump\t// in\n    tag_59:\n        /* \"#utility.yul\":214:436   */\n      swap3\n      swap2\n      pop\n      pop\n      jump\t// out\n        /* \"#utility.yul\":442:591   */\n    tag_41:\n        /* \"#utility.yul\":478:485   */\n      0x00\n        /* \"#utility.yul\":518:584   */\n      0xffff000000000000000000000000000000000000000000000000000000000000\n        /* \"#utility.yul\":511:516   */\n      dup3\n        /* \"#utility.yul\":507:585   */\n      and\n        /* \"#utility.yul\":496:585   */\n      swap1\n      pop\n        /* \"#utility.yul\":442:591   */\n      swap2\n      swap1\n      pop\n      jump\t// out\n        /* \"#utility.yul\":597:712   */\n    tag_42:\n        /* \"#utility.yul\":682:705   */\n      tag_62\n        /* \"#utility.yul\":699:704   */\n      dup2\n        /* \"#utility.yul\":682:705   */\n      tag_41\n      jump\t// in\n    tag_62:\n        /* \"#utility.yul\":677:680   */\n      dup3\n        /* \"#utility.yul\":670:706   */\n      mstore\n        /* \"#utility.yul\":597:712   */\n      pop\n      pop\n      jump\t// out\n        /* \"#utility.yul\":718:936   */\n    tag_16:\n        /* \"#utility.yul\":809:813   */\n      0x00\n        /* \"#utility.yul\":847:849   */\n      0x20\n        /* \"#utility.yul\":836:845   */\n      dup3\n        /* \"#utility.yul\":832:850   */\n      add\n        /* \"#utility.yul\":824:850   */\n      swap1\n      pop\n        /* \"#utility.yul\":860:929   */\n      tag_64\n        /* \"#utility.yul\":926:927   */\n      0x00\n        /* \"#utility.yul\":915:924   */\n      dup4\n        /* \"#utility.yul\":911:928   */\n      add\n        /* \"#utility.yul\":902:908   */\n      dup5\n        /* \"#utility.yul\":860:929   */\n      tag_42\n      jump\t// in\n    tag_64:\n        /* \"#utility.yul\":718:936   */\n      swap3\n      swap2\n      pop\n      pop\n      jump\t// out\n        /* \"#utility.yul\":1023:1140   */\n    tag_44:\n        /* \"#utility.yul\":1132:1133   */\n      0x00\n        /* \"#utility.yul\":1129:1130   */\n      dup1\n        /* \"#utility.yul\":1122:1134   */\n      revert\n        /* \"#utility.yul\":1269:1391   */\n    tag_46:\n        /* \"#utility.yul\":1342:1366   */\n      tag_69\n        /* \"#utility.yul\":1360:1365   */\n      dup2\n        /* \"#utility.yul\":1342:1366   */\n      tag_39\n      jump\t// in\n    tag_69:\n        /* \"#utility.yul\":1335:1340   */\n      dup2\n        /* \"#utility.yul\":1332:1367   */\n      eq\n        /* \"#utility.yul\":1322:1385   */\n      tag_70\n      jumpi\n        /* \"#utility.yul\":1381:1382   */\n      0x00\n        /* \"#utility.yul\":1378:1379   */\n      dup1\n        /* \"#utility.yul\":1371:1383   */\n      revert\n        /* \"#utility.yul\":1322:1385   */\n    tag_70:\n        /* \"#utility.yul\":1269:1391   */\n      pop\n      jump\t// out\n        /* \"#utility.yul\":1397:1536   */\n    tag_47:\n        /* \"#utility.yul\":1443:1448   */\n      0x00\n        /* \"#utility.yul\":1481:1487   */\n      dup2\n        /* \"#utility.yul\":1468:1488   */\n      calldataload\n        /* \"#utility.yul\":1459:1488   */\n      swap1\n      pop\n        /* \"#utility.yul\":1497:1530   */\n      tag_72\n        /* \"#utility.yul\":1524:1529   */\n      dup2\n        /* \"#utility.yul\":1497:1530   */\n      tag_46\n      jump\t// in\n    tag_72:\n        /* \"#utility.yul\":1397:1536   */\n      swap3\n      swap2\n      pop\n      pop\n      jump\t// out\n        /* \"#utility.yul\":1542:1871   */\n    tag_19:\n        /* \"#utility.yul\":1601:1607   */\n      0x00\n        /* \"#utility.yul\":1650:1652   */\n      0x20\n        /* \"#utility.yul\":1638:1647   */\n      dup3\n        /* \"#utility.yul\":1629:1636   */\n      dup5\n        /* \"#utility.yul\":1625:1648   */\n      sub\n        /* \"#utility.yul\":1621:1653   */\n      slt\n        /* \"#utility.yul\":1618:1737   */\n      iszero\n      tag_74\n      jumpi\n        /* \"#utility.yul\":1656:1735   */\n      tag_75\n      tag_44\n      jump\t// in\n    tag_75:\n        /* \"#utility.yul\":1618:1737   */\n    tag_74:\n        /* \"#utility.yul\":1776:1777   */\n      0x00\n        /* \"#utility.yul\":1801:1854   */\n      tag_76\n        /* \"#utility.yul\":1846:1853   */\n      dup5\n        /* \"#utility.yul\":1837:1843   */\n      dup3\n        /* \"#utility.yul\":1826:1835   */\n      dup6\n        /* \"#utility.yul\":1822:1844   */\n      add\n        /* \"#utility.yul\":1801:1854   */\n      tag_47\n      jump\t// in\n    tag_76:\n        /* \"#utility.yul\":1791:1854   */\n      swap2\n      pop\n        /* \"#utility.yul\":1747:1864   */\n      pop\n        /* \"#utility.yul\":1542:1871   */\n      swap3\n      swap2\n      pop\n      pop\n      jump\t// out\n        /* \"#utility.yul\":1877:2026   */\n    tag_48:\n        /* \"#utility.yul\":1913:1920   */\n      0x00\n        /* \"#utility.yul\":1953:2019   */\n      0xff00000000000000000000000000000000000000000000000000000000000000\n        /* \"#utility.yul\":1946:1951   */\n      dup3\n        /* \"#utility.yul\":1942:2020   */\n      and\n        /* \"#utility.yul\":1931:2020   */\n      swap1\n      pop\n        /* \"#utility.yul\":1877:2026   */\n      swap2\n      swap1\n      pop\n      jump\t// out\n        /* \"#utility.yul\":2032:2147   */\n    tag_49:\n        /* \"#utility.yul\":2117:2140   */\n      tag_79\n        /* \"#utility.yul\":2134:2139   */\n      dup2\n        /* \"#utility.yul\":2117:2140   */\n      tag_48\n      jump\t// in\n    tag_79:\n        /* \"#utility.yul\":2112:2115   */\n      dup3\n        /* \"#utility.yul\":2105:2141   */\n      mstore\n        /* \"#utility.yul\":2032:2147   */\n      pop\n      pop\n      jump\t// out\n        /* \"#utility.yul\":2153:2371   */\n    tag_22:\n        /* \"#utility.yul\":2244:2248   */\n      0x00\n        /* \"#utility.yul\":2282:2284   */\n      0x20\n        /* \"#utility.yul\":2271:2280   */\n      dup3\n        /* \"#utility.yul\":2267:2285   */\n      add\n        /* \"#utility.yul\":2259:2285   */\n      swap1\n      pop\n        /* \"#utility.yul\":2295:2364   */\n      tag_81\n        /* \"#utility.yul\":2361:2362   */\n      0x00\n        /* \"#utility.yul\":2350:2359   */\n      dup4\n        /* \"#utility.yul\":2346:2363   */\n      add\n        /* \"#utility.yul\":2337:2343   */\n      dup5\n        /* \"#utility.yul\":2295:2364   */\n      tag_49\n      jump\t// in\n    tag_81:\n        /* \"#utility.yul\":2153:2371   */\n      swap3\n      swap2\n      pop\n      pop\n      jump\t// out\n        /* \"#utility.yul\":2377:2526   */\n    tag_50:\n        /* \"#utility.yul\":2413:2420   */\n      0x00\n        /* \"#utility.yul\":2453:2519   */\n      0xffffffff00000000000000000000000000000000000000000000000000000000\n        /* \"#utility.yul\":2446:2451   */\n      dup3\n        /* \"#utility.yul\":2442:2520   */\n      and\n        /* \"#utility.yul\":2431:2520   */\n      swap1\n      pop\n        /* \"#utility.yul\":2377:2526   */\n      swap2\n      swap1\n      pop\n      jump\t// out\n        /* \"#utility.yul\":2532:2647   */\n    tag_51:\n        /* \"#utility.yul\":2617:2640   */\n      tag_84\n        /* \"#utility.yul\":2634:2639   */\n      dup2\n        /* \"#utility.yul\":2617:2640   */\n      tag_50\n      jump\t// in\n    tag_84:\n        /* \"#utility.yul\":2612:2615   */\n      dup3\n        /* \"#utility.yul\":2605:2641   */\n      mstore\n        /* \"#utility.yul\":2532:2647   */\n      pop\n      pop\n      jump\t// out\n        /* \"#utility.yul\":2653:2871   */\n    tag_26:\n        /* \"#utility.yul\":2744:2748   */\n      0x00\n        /* \"#utility.yul\":2782:2784   */\n      0x20\n        /* \"#utility.yul\":2771:2780   */\n      dup3\n        /* \"#utility.yul\":2767:2785   */\n      add\n        /* \"#utility.yul\":2759:2785   */\n      swap1\n      pop\n        /* \"#utility.yul\":2795:2864   */\n      tag_86\n        /* \"#utility.yul\":2861:2862   */\n      0x00\n        /* \"#utility.yul\":2850:2859   */\n      dup4\n        /* \"#utility.yul\":2846:2863   */\n      add\n        /* \"#utility.yul\":2837:2843   */\n      dup5\n        /* \"#utility.yul\":2795:2864   */\n      tag_51\n      jump\t// in\n    tag_86:\n        /* \"#utility.yul\":2653:2871   */\n      swap3\n      swap2\n      pop\n      pop\n      jump\t// out\n        /* \"#utility.yul\":2877:3026   */\n    tag_52:\n        /* \"#utility.yul\":2913:2920   */\n      0x00\n        /* \"#utility.yul\":2953:3019   */\n      0xffffff0000000000000000000000000000000000000000000000000000000000\n        /* \"#utility.yul\":2946:2951   */\n      dup3\n        /* \"#utility.yul\":2942:3020   */\n      and\n        /* \"#utility.yul\":2931:3020   */\n      swap1\n      pop\n        /* \"#utility.yul\":2877:3026   */\n      swap2\n      swap1\n      pop\n      jump\t// out\n        /* \"#utility.yul\":3032:3147   */\n    tag_53:\n        /* \"#utility.yul\":3117:3140   */\n      tag_89\n        /* \"#utility.yul\":3134:3139   */\n      dup2\n        /* \"#utility.yul\":3117:3140   */\n      tag_52\n      jump\t// in\n    tag_89:\n        /* \"#utility.yul\":3112:3115   */\n      dup3\n        /* \"#utility.yul\":3105:3141   */\n      mstore\n        /* \"#utility.yul\":3032:3147   */\n      pop\n      pop\n      jump\t// out\n        /* \"#utility.yul\":3153:3371   */\n    tag_33:\n        /* \"#utility.yul\":3244:3248   */\n      0x00\n        /* \"#utility.yul\":3282:3284   */\n      0x20\n        /* \"#utility.yul\":3271:3280   */\n      dup3\n        /* \"#utility.yul\":3267:3285   */\n      add\n        /* \"#utility.yul\":3259:3285   */\n      swap1\n      pop\n        /* \"#utility.yul\":3295:3364   */\n      tag_91\n        /* \"#utility.yul\":3361:3362   */\n      0x00\n        /* \"#utility.yul\":3350:3359   */\n      dup4\n        /* \"#utility.yul\":3346:3363   */\n      add\n        /* \"#utility.yul\":3337:3343   */\n      dup5\n        /* \"#utility.yul\":3295:3364   */\n      tag_53\n      jump\t// in\n    tag_91:\n        /* \"#utility.yul\":3153:3371   */\n      swap3\n      swap2\n      pop\n      pop\n      jump\t// out\n        /* \"#utility.yul\":3377:3557   */\n    tag_38:\n        /* \"#utility.yul\":3425:3502   */\n      0x4e487b7100000000000000000000000000000000000000000000000000000000\n        /* \"#utility.yul\":3422:3423   */\n      0x00\n        /* \"#utility.yul\":3415:3503   */\n      mstore\n        /* \"#utility.yul\":3522:3526   */\n      0x32\n        /* \"#utility.yul\":3519:3520   */\n      0x04\n        /* \"#utility.yul\":3512:3527   */\n      mstore\n        /* \"#utility.yul\":3546:3550   */\n      0x24\n        /* \"#utility.yul\":3543:3544   */\n      0x00\n        /* \"#utility.yul\":3536:3551   */\n      revert\n\n    auxdata: 0xa2646970667358221220fc00cb156496129a883cb68ce00611ce8d14f68bfe6cb5edda942fbafd96197964736f6c63430008110033\n}\n",
				"bytecode": {
					"linkReferences": {},
					"object": "60806040527f61000000000000000000000000000000000000000000000000000000000000006000806101000a81548160ff021916908360f81c02179055507f6162000000000000000000000000000000000000000000000000000000000000600060016101000a81548161ffff021916908360f01c02179055507f6162630000000000000000000000000000000000000000000000000000000000600060036101000a81548162ffffff021916908360e81c0217905550631234567860e01b600060066101000a81548163ffffffff021916908360e01c02179055503480156100e857600080fd5b5061040d806100f86000396000f3fe608060405234801561001057600080fd5b50600436106100625760003560e01c806307da3eae14610067578063507aff571461008557806357bc2ef3146100a35780635a412551146100d357806367e919b6146100f1578063da96012e1461010f575b600080fd5b61006f61012d565b60405161007c91906101d7565b60405180910390f35b61008d610146565b60405161009a919061022d565b60405180910390f35b6100bd60048036038101906100b89190610279565b610159565b6040516100ca91906102e1565b60405180910390f35b6100db610187565b6040516100e89190610337565b60405180910390f35b6100f961019a565b60405161010691906102e1565b60405180910390f35b6101176101ab565b604051610124919061038d565b60405180910390f35b60008060069054906101000a905050600460ff16905090565b600060019054906101000a900460f01b81565b60008060039054906101000a900460e81b826003811061017c5761017b6103a8565b5b1a60f81b9050919050565b600060069054906101000a900460e01b81565b60008054906101000a900460f81b81565b600060039054906101000a900460e81b81565b6000819050919050565b6101d1816101be565b82525050565b60006020820190506101ec60008301846101c8565b92915050565b60007fffff00000000000000000000000000000000000000000000000000000000000082169050919050565b610227816101f2565b82525050565b6000602082019050610242600083018461021e565b92915050565b600080fd5b610256816101be565b811461026157600080fd5b50565b6000813590506102738161024d565b92915050565b60006020828403121561028f5761028e610248565b5b600061029d84828501610264565b91505092915050565b60007fff0000000000000000000000000000000000000000000000000000000000000082169050919050565b6102db816102a6565b82525050565b60006020820190506102f660008301846102d2565b92915050565b60007fffffffff0000000000000000000000000000000000000000000000000000000082169050919050565b610331816102fc565b82525050565b600060208201905061034c6000830184610328565b92915050565b60007fffffff000000000000000000000000000000000000000000000000000000000082169050919050565b61038781610352565b82525050565b60006020820190506103a2600083018461037e565b92915050565b7f4e487b7100000000000000000000000000000000000000000000000000000000600052603260045260246000fdfea2646970667358221220fc00cb156496129a883cb68ce00611ce8d14f68bfe6cb5edda942fbafd96197964736f6c63430008110033",
					"opcodes": "PUSH1 0x80 PUSH1 0x40 MSTORE PUSH32 0x6100000000000000000000000000000000000000000000000000000000000000 PUSH1 0x0 DUP1 PUSH2 0x100 EXP DUP2 SLOAD DUP2 PUSH1 0xFF MUL NOT AND SWAP1 DUP4 PUSH1 0xF8 SHR MUL OR SWAP1 SSTORE POP PUSH32 0x6162000000000000000000000000000000000000000000000000000000000000 PUSH1 0x0 PUSH1 0x1 PUSH2 0x100 EXP DUP2 SLOAD DUP2 PUSH2 0xFFFF MUL NOT AND SWAP1 DUP4 PUSH1 0xF0 SHR MUL OR SWAP1 SSTORE POP PUSH32 0x6162630000000000000000000000000000000000000000000000000000000000 PUSH1 0x0 PUSH1 0x3 PUSH2 0x100 EXP DUP2 SLOAD DUP2 PUSH3 0xFFFFFF MUL NOT AND SWAP1 DUP4 PUSH1 0xE8 SHR MUL OR SWAP1 SSTORE POP PUSH4 0x12345678 PUSH1 0xE0 SHL PUSH1 0x0 PUSH1 0x6 PUSH2 0x100 EXP DUP2 SLOAD DUP2 PUSH4 0xFFFFFFFF MUL NOT AND SWAP1 DUP4 PUSH1 0xE0 SHR MUL OR SWAP1 SSTORE POP CALLVALUE DUP1 ISZERO PUSH2 0xE8 JUMPI PUSH1 0x0 DUP1 REVERT JUMPDEST POP PUSH2 0x40D DUP1 PUSH2 0xF8 PUSH1 0x0 CODECOPY PUSH1 0x0 RETURN INVALID PUSH1 0x80 PUSH1 0x40 MSTORE CALLVALUE DUP1 ISZERO PUSH2 0x10 JUMPI PUSH1 0x0 DUP1 REVERT JUMPDEST POP PUSH1 0x4 CALLDATASIZE LT PUSH2 0x62 JUMPI PUSH1 0x0 CALLDATALOAD PUSH1 0xE0 SHR DUP1 PUSH4 0x7DA3EAE EQ PUSH2 0x67 JUMPI DUP1 PUSH4 0x507AFF57 EQ PUSH2 0x85 JUMPI DUP1 PUSH4 0x57BC2EF3 EQ PUSH2 0xA3 JUMPI DUP1 PUSH4 0x5A412551 EQ PUSH2 0xD3 JUMPI DUP1 PUSH4 0x67E919B6 EQ PUSH2 0xF1 JUMPI DUP1 PUSH4 0xDA96012E EQ PUSH2 0x10F JUMPI JUMPDEST PUSH1 0x0 DUP1 REVERT JUMPDEST PUSH2 0x6F PUSH2 0x12D JUMP JUMPDEST PUSH1 0x40 MLOAD PUSH2 0x7C SWAP2 SWAP1 PUSH2 0x1D7 JUMP JUMPDEST PUSH1 0x40 MLOAD DUP1 SWAP2 SUB SWAP1 RETURN JUMPDEST PUSH2 0x8D PUSH2 0x146 JUMP JUMPDEST PUSH1 0x40 MLOAD PUSH2 0x9A SWAP2 SWAP1 PUSH2 0x22D JUMP JUMPDEST PUSH1 0x40 MLOAD DUP1 SWAP2 SUB SWAP1 RETURN JUMPDEST PUSH2 0xBD PUSH1 0x4 DUP1 CALLDATASIZE SUB DUP2 ADD SWAP1 PUSH2 0xB8 SWAP2 SWAP1 PUSH2 0x279 JUMP JUMPDEST PUSH2 0x159 JUMP JUMPDEST PUSH1 0x40 MLOAD PUSH2 0xCA SWAP2 SWAP1 PUSH2 0x2E1 JUMP JUMPDEST PUSH1 0x40 MLOAD DUP1 SWAP2 SUB SWAP1 RETURN JUMPDEST PUSH2 0xDB PUSH2 0x187 JUMP JUMPDEST PUSH1 0x40 MLOAD PUSH2 0xE8 SWAP2 SWAP1 PUSH2 0x337 JUMP JUMPDEST PUSH1 0x40 MLOAD DUP1 SWAP2 SUB SWAP1 RETURN JUMPDEST PUSH2 0xF9 PUSH2 0x19A JUMP JUMPDEST PUSH1 0x40 MLOAD PUSH2 0x106 SWAP2 SWAP1 PUSH2 0x2E1 JUMP JUMPDEST PUSH1 0x40 MLOAD DUP1 SWAP2 SUB SWAP1 RETURN JUMPDEST PUSH2 0x117 PUSH2 0x1AB JUMP JUMPDEST PUSH1 0x40 MLOAD PUSH2 0x124 SWAP2 SWAP1 PUSH2 0x38D JUMP JUMPDEST PUSH1 0x40 MLOAD DUP1 SWAP2 SUB SWAP1 RETURN JUMPDEST PUSH1 0x0 DUP1 PUSH1 0x6 SWAP1 SLOAD SWAP1 PUSH2 0x100 EXP SWAP1 POP POP PUSH1 0x4 PUSH1 0xFF AND SWAP1 POP SWAP1 JUMP JUMPDEST PUSH1 0x0 PUSH1 0x1 SWAP1 SLOAD SWAP1 PUSH2 0x100 EXP SWAP1 DIV PUSH1 0xF0 SHL DUP2 JUMP JUMPDEST PUSH1 0x0 DUP1 PUSH1 0x3 SWAP1 SLOAD SWAP1 PUSH2 0x100 EXP SWAP1 DIV PUSH1 0xE8 SHL DUP3 PUSH1 0x3 DUP2 LT PUSH2 0x17C JUMPI PUSH2 0x17B PUSH2 0x3A8 JUMP JUMPDEST JUMPDEST BYTE PUSH1 0xF8 SHL SWAP1 POP SWAP2 SWAP1 POP JUMP JUMPDEST PUSH1 0x0 PUSH1 0x6 SWAP1 SLOAD SWAP1 PUSH2 0x100 EXP SWAP1 DIV PUSH1 0xE0 SHL DUP2 JUMP JUMPDEST PUSH1 0x0 DUP1 SLOAD SWAP1 PUSH2 0x100 EXP SWAP1 DIV PUSH1 0xF8 SHL DUP2 JUMP JUMPDEST PUSH1 0x0 PUSH1 0x3 SWAP1 SLOAD SWAP1 PUSH2 0x100 EXP SWAP1 DIV PUSH1 0xE8 SHL DUP2 JUMP JUMPDEST PUSH1 0x0 DUP2 SWAP1 POP SWAP2 SWAP1 POP JUMP JUMPDEST PUSH2 0x1D1 DUP2 PUSH2 0x1BE JUMP JUMPDEST DUP3 MSTORE POP POP JUMP JUMPDEST PUSH1 0x0 PUSH1 0x20 DUP3 ADD SWAP1 POP PUSH2 0x1EC PUSH1 0x0 DUP4 ADD DUP5 PUSH2 0x1C8 JUMP JUMPDEST SWAP3 SWAP2 POP POP JUMP JUMPDEST PUSH1 0x0 PUSH32 0xFFFF000000000000000000000000000000000000000000000000000000000000 DUP3 AND SWAP1 POP SWAP2 SWAP1 POP JUMP JUMPDEST PUSH2 0x227 DUP2 PUSH2 0x1F2 JUMP JUMPDEST DUP3 MSTORE POP POP JUMP JUMPDEST PUSH1 0x0 PUSH1 0x20 DUP3 ADD SWAP1 POP PUSH2 0x242 PUSH1 0x0 DUP4 ADD DUP5 PUSH2 0x21E JUMP JUMPDEST SWAP3 SWAP2 POP POP JUMP JUMPDEST PUSH1 0x0 DUP1 REVERT JUMPDEST PUSH2 0x256 DUP2 PUSH2 0x1BE JUMP JUMPDEST DUP2 EQ PUSH2 0x261 JUMPI PUSH1 0x0 DUP1 REVERT JUMPDEST POP JUMP JUMPDEST PUSH1 0x0 DUP2 CALLDATALOAD SWAP1 POP PUSH2 0x273 DUP2 PUSH2 0x24D JUMP JUMPDEST SWAP3 SWAP2 POP POP JUMP JUMPDEST PUSH1 0x0 PUSH1 0x20 DUP3 DUP5 SUB SLT ISZERO PUSH2 0x28F JUMPI PUSH2 0x28E PUSH2 0x248 JUMP JUMPDEST JUMPDEST PUSH1 0x0 PUSH2 0x29D DUP5 DUP3 DUP6 ADD PUSH2 0x264 JUMP JUMPDEST SWAP2 POP POP SWAP3 SWAP2 POP POP JUMP JUMPDEST PUSH1 0x0 PUSH32 0xFF00000000000000000000000000000000000000000000000000000000000000 DUP3 AND SWAP1 POP SWAP2 SWAP1 POP JUMP JUMPDEST PUSH2 0x2DB DUP2 PUSH2 0x2A6 JUMP JUMPDEST DUP3 MSTORE POP POP JUMP JUMPDEST PUSH1 0x0 PUSH1 0x20 DUP3 ADD SWAP1 POP PUSH2 0x2F6 PUSH1 0x0 DUP4 ADD DUP5 PUSH2 0x2D2 JUMP JUMPDEST SWAP3 SWAP2 POP POP JUMP JUMPDEST PUSH1 0x0 PUSH32 0xFFFFFFFF00000000000000000000000000000000000000000000000000000000 DUP3 AND SWAP1 POP SWAP2 SWAP1 POP JUMP JUMPDEST PUSH2 0x331 DUP2 PUSH2 0x2FC JUMP JUMPDEST DUP3 MSTORE POP POP JUMP JUMPDEST PUSH1 0x0 PUSH1 0x20 DUP3 ADD SWAP1 POP PUSH2 0x34C PUSH1 0x0 DUP4 ADD DUP5 PUSH2 0x328 JUMP JUMPDEST SWAP3 SWAP2 POP POP JUMP JUMPDEST PUSH1 0x0 PUSH32 0xFFFFFF0000000000000000000000000000000000000000000000000000000000 DUP3 AND SWAP1 POP SWAP2 SWAP1 POP JUMP JUMPDEST PUSH2 0x387 DUP2 PUSH2 0x352 JUMP JUMPDEST DUP3 MSTORE POP POP JUMP JUMPDEST PUSH1 0x0 PUSH1 0x20 DUP3 ADD SWAP1 POP PUSH2 0x3A2 PUSH1 0x0 DUP4 ADD DUP5 PUSH2 0x37E JUMP JUMPDEST SWAP3 SWAP2 POP POP JUMP JUMPDEST PUSH32 0x4E487B7100000000000000000000000000000000000000000000000000000000 PUSH1 0x0 MSTORE PUSH1 0x32 PUSH1 0x4 MSTORE PUSH1 0x24 PUSH1 0x0 REVERT INVALID LOG2 PUSH5 0x6970667358 0x22 SLT KECCAK256 0xFC STOP 0xCB ISZERO PUSH5 0x96129A883C 0xB6 DUP13 0xE0 MOD GT 0xCE DUP14 EQ 0xF6 DUP12 INVALID PUSH13 0xB5EDDA942FBAFD96197964736F PUSH13 0x63430008110033000000000000 "
				},
				"gasEstimates": {
					"creation": {
						"codeDepositCost": "207400",
						"executionCost": "97475",
						"totalCost": "304875"
					},
					"external": {
						"getBytes(uint256)": "2851",
						"getBytesLength()": "2503",
						"var1()": "2534",
						"var2()": "2521",
						"var3()": "2609",
						"var4()": "2565"
					}
				},
				"methodIdentifiers": {
					"getBytes(uint256)": "57bc2ef3",
					"getBytesLength()": "07da3eae",
					"var1()": "67e919b6",
					"var2()": "507aff57",
					"var3()": "da96012e",
					"var4()": "5a412551"
				}
			},
			"storageLayout": {
				"storage": [
					{
						"astId": 4,
						"contract": "4_Day/9_bytes_fixed_array.sol:Array",
						"label": "var1",
						"offset": 0,
						"slot": "0",
						"type": "t_bytes1"
					},
					{
						"astId": 7,
						"contract": "4_Day/9_bytes_fixed_array.sol:Array",
						"label": "var2",
						"offset": 1,
						"slot": "0",
						"type": "t_bytes2"
					},
					{
						"astId": 10,
						"contract": "4_Day/9_bytes_fixed_array.sol:Array",
						"label": "var3",
						"offset": 3,
						"slot": "0",
						"type": "t_bytes3"
					},
					{
						"astId": 13,
						"contract": "4_Day/9_bytes_fixed_array.sol:Array",
						"label": "var4",
						"offset": 6,
						"slot": "0",
						"type": "t_bytes4"
					}
				],
				"types": {
					"t_bytes1": {
						"encoding": "inplace",
						"label": "bytes1",
						"numberOfBytes": "1"
					},
					"t_bytes2": {
						"encoding": "inplace",
						"label": "bytes2",
						"numberOfBytes": "2"
					},
					"t_bytes3": {
						"encoding": "inplace",
						"label": "bytes3",
						"numberOfBytes": "3"
					},
					"t_bytes4": {
						"encoding": "inplace",
						"label": "bytes4",
						"numberOfBytes": "4"
					}
				}
			},
			"userdoc": {
				"kind": "user",
				"methods": {},
				"version": 1
			}
		}
	}
}