{
	"4_Day/1_if-else-basic.sol": {
		"IfElseParkEdition": {
			"abi": [
				{
					"inputs": [],
					"name": "adult_fee",
					"outputs": [
						{
							"internalType": "uint256",
							"name": "",
							"type": "uint256"
						}
					],
					"stateMutability": "view",
					"type": "function"
				},
				{
					"inputs": [],
					"name": "child_fee",
					"outputs": [
						{
							"internalType": "uint256",
							"name": "",
							"type": "uint256"
						}
					],
					"stateMutability": "view",
					"type": "function"
				},
				{
					"inputs": [],
					"name": "cut_off_age",
					"outputs": [
						{
							"internalType": "uint256",
							"name": "",
							"type": "uint256"
						}
					],
					"stateMutability": "view",
					"type": "function"
				},
				{
					"inputs": [
						{
							"internalType": "uint256",
							"name": "age",
							"type": "uint256"
						}
					],
					"name": "fee",
					"outputs": [
						{
							"internalType": "uint256",
							"name": "",
							"type": "uint256"
						}
					],
					"stateMutability": "pure",
					"type": "function"
				},
				{
					"inputs": [
						{
							"internalType": "uint256",
							"name": "age",
							"type": "uint256"
						},
						{
							"internalType": "bool",
							"name": "isGirl",
							"type": "bool"
						}
					],
					"name": "fee_2",
					"outputs": [
						{
							"internalType": "uint256",
							"name": "",
							"type": "uint256"
						},
						{
							"internalType": "string",
							"name": "",
							"type": "string"
						}
					],
					"stateMutability": "pure",
					"type": "function"
				},
				{
					"inputs": [
						{
							"internalType": "uint256",
							"name": "age",
							"type": "uint256"
						},
						{
							"internalType": "bool",
							"name": "isGirl",
							"type": "bool"
						}
					],
					"name": "fee_2_ternary",
					"outputs": [
						{
							"internalType": "uint256",
							"name": "",
							"type": "uint256"
						},
						{
							"internalType": "string",
							"name": "",
							"type": "string"
						}
					],
					"stateMutability": "pure",
					"type": "function"
				},
				{
					"inputs": [
						{
							"internalType": "uint256",
							"name": "age",
							"type": "uint256"
						},
						{
							"internalType": "bool",
							"name": "isGirl",
							"type": "bool"
						}
					],
					"name": "fee_3",
					"outputs": [
						{
							"internalType": "uint256",
							"name": "",
							"type": "uint256"
						},
						{
							"internalType": "string",
							"name": "",
							"type": "string"
						}
					],
					"stateMutability": "pure",
					"type": "function"
				},
				{
					"inputs": [
						{
							"internalType": "uint256",
							"name": "age",
							"type": "uint256"
						}
					],
					"name": "fee_ternary",
					"outputs": [
						{
							"internalType": "uint256",
							"name": "",
							"type": "uint256"
						}
					],
					"stateMutability": "pure",
					"type": "function"
				},
				{
					"inputs": [],
					"name": "old_age_cut_off_age",
					"outputs": [
						{
							"internalType": "uint256",
							"name": "",
							"type": "uint256"
						}
					],
					"stateMutability": "view",
					"type": "function"
				},
				{
					"inputs": [],
					"name": "old_age_fee",
					"outputs": [
						{
							"internalType": "uint256",
							"name": "",
							"type": "uint256"
						}
					],
					"stateMutability": "view",
					"type": "function"
				}
			],
			"devdoc": {
				"kind": "dev",
				"methods": {},
				"version": 1
			},
			"evm": {
				"assembly": "    /* \"4_Day/1_if-else-basic.sol\":57:2312  contract IfElseParkEdition {... */\n  mstore(0x40, 0x80)\n  callvalue\n  dup1\n  iszero\n  tag_1\n  jumpi\n  0x00\n  dup1\n  revert\ntag_1:\n  pop\n  dataSize(sub_0)\n  dup1\n  dataOffset(sub_0)\n  0x00\n  codecopy\n  0x00\n  return\nstop\n\nsub_0: assembly {\n        /* \"4_Day/1_if-else-basic.sol\":57:2312  contract IfElseParkEdition {... */\n      mstore(0x40, 0x80)\n      callvalue\n      dup1\n      iszero\n      tag_1\n      jumpi\n      0x00\n      dup1\n      revert\n    tag_1:\n      pop\n      jumpi(tag_2, lt(calldatasize, 0x04))\n      shr(0xe0, calldataload(0x00))\n      dup1\n      0x4106d7f8\n      gt\n      tag_13\n      jumpi\n      dup1\n      0x4106d7f8\n      eq\n      tag_8\n      jumpi\n      dup1\n      0x8a9f7f93\n      eq\n      tag_9\n      jumpi\n      dup1\n      0x9db5a37b\n      eq\n      tag_10\n      jumpi\n      dup1\n      0xa39414a2\n      eq\n      tag_11\n      jumpi\n      dup1\n      0xd4e541e3\n      eq\n      tag_12\n      jumpi\n      jump(tag_2)\n    tag_13:\n      dup1\n      0x0f7bb123\n      eq\n      tag_3\n      jumpi\n      dup1\n      0x149411d2\n      eq\n      tag_4\n      jumpi\n      dup1\n      0x161294ce\n      eq\n      tag_5\n      jumpi\n      dup1\n      0x251ff164\n      eq\n      tag_6\n      jumpi\n      dup1\n      0x39b37ab0\n      eq\n      tag_7\n      jumpi\n    tag_2:\n      0x00\n      dup1\n      revert\n        /* \"4_Day/1_if-else-basic.sol\":509:623  function fee_ternary(uint age) public pure returns (uint){... */\n    tag_3:\n      tag_14\n      0x04\n      dup1\n      calldatasize\n      sub\n      dup2\n      add\n      swap1\n      tag_15\n      swap2\n      swap1\n      tag_16\n      jump\t// in\n    tag_15:\n      tag_17\n      jump\t// in\n    tag_14:\n      mload(0x40)\n      tag_18\n      swap2\n      swap1\n      tag_19\n      jump\t// in\n    tag_18:\n      mload(0x40)\n      dup1\n      swap2\n      sub\n      swap1\n      return\n        /* \"4_Day/1_if-else-basic.sol\":752:1097  function fee_2(uint age, bool isGirl) public pure returns (uint,string memory) {... */\n    tag_4:\n      tag_20\n      0x04\n      dup1\n      calldatasize\n      sub\n      dup2\n      add\n      swap1\n      tag_21\n      swap2\n      swap1\n      tag_22\n      jump\t// in\n    tag_21:\n      tag_23\n      jump\t// in\n    tag_20:\n      mload(0x40)\n      tag_24\n      swap3\n      swap2\n      swap1\n      tag_25\n      jump\t// in\n    tag_24:\n      mload(0x40)\n      dup1\n      swap2\n      sub\n      swap1\n      return\n        /* \"4_Day/1_if-else-basic.sol\":175:209  uint public constant child_fee = 0 */\n    tag_5:\n      tag_26\n      tag_27\n      jump\t// in\n    tag_26:\n      mload(0x40)\n      tag_28\n      swap2\n      swap1\n      tag_19\n      jump\t// in\n    tag_28:\n      mload(0x40)\n      dup1\n      swap2\n      sub\n      swap1\n      return\n        /* \"4_Day/1_if-else-basic.sol\":1707:2177  function fee_3(uint age, bool isGirl) public pure returns (uint,string memory) {... */\n    tag_6:\n      tag_29\n      0x04\n      dup1\n      calldatasize\n      sub\n      dup2\n      add\n      swap1\n      tag_30\n      swap2\n      swap1\n      tag_22\n      jump\t// in\n    tag_30:\n      tag_31\n      jump\t// in\n    tag_29:\n      mload(0x40)\n      tag_32\n      swap3\n      swap2\n      swap1\n      tag_25\n      jump\t// in\n    tag_32:\n      mload(0x40)\n      dup1\n      swap2\n      sub\n      swap1\n      return\n        /* \"4_Day/1_if-else-basic.sol\":353:507  function fee(uint age) public pure returns (uint) {... */\n    tag_7:\n      tag_33\n      0x04\n      dup1\n      calldatasize\n      sub\n      dup2\n      add\n      swap1\n      tag_34\n      swap2\n      swap1\n      tag_16\n      jump\t// in\n    tag_34:\n      tag_35\n      jump\t// in\n    tag_33:\n      mload(0x40)\n      tag_36\n      swap2\n      swap1\n      tag_19\n      jump\t// in\n    tag_36:\n      mload(0x40)\n      dup1\n      swap2\n      sub\n      swap1\n      return\n        /* \"4_Day/1_if-else-basic.sol\":132:169  uint public constant old_age_fee = 10 */\n    tag_8:\n      tag_37\n      tag_38\n      jump\t// in\n    tag_37:\n      mload(0x40)\n      tag_39\n      swap2\n      swap1\n      tag_19\n      jump\t// in\n    tag_39:\n      mload(0x40)\n      dup1\n      swap2\n      sub\n      swap1\n      return\n        /* \"4_Day/1_if-else-basic.sol\":1100:1518  function fee_2_ternary(uint age, bool isGirl) public pure returns(uint, string memory){... */\n    tag_9:\n      tag_40\n      0x04\n      dup1\n      calldatasize\n      sub\n      dup2\n      add\n      swap1\n      tag_41\n      swap2\n      swap1\n      tag_22\n      jump\t// in\n    tag_41:\n      tag_42\n      jump\t// in\n    tag_40:\n      mload(0x40)\n      tag_43\n      swap3\n      swap2\n      swap1\n      tag_25\n      jump\t// in\n    tag_43:\n      mload(0x40)\n      dup1\n      swap2\n      sub\n      swap1\n      return\n        /* \"4_Day/1_if-else-basic.sol\":215:252  uint public constant cut_off_age = 10 */\n    tag_10:\n      tag_44\n      tag_45\n      jump\t// in\n    tag_44:\n      mload(0x40)\n      tag_46\n      swap2\n      swap1\n      tag_19\n      jump\t// in\n    tag_46:\n      mload(0x40)\n      dup1\n      swap2\n      sub\n      swap1\n      return\n        /* \"4_Day/1_if-else-basic.sol\":91:126  uint public constant adult_fee = 20 */\n    tag_11:\n      tag_47\n      tag_48\n      jump\t// in\n    tag_47:\n      mload(0x40)\n      tag_49\n      swap2\n      swap1\n      tag_19\n      jump\t// in\n    tag_49:\n      mload(0x40)\n      dup1\n      swap2\n      sub\n      swap1\n      return\n        /* \"4_Day/1_if-else-basic.sol\":258:303  uint public constant old_age_cut_off_age = 70 */\n    tag_12:\n      tag_50\n      tag_51\n      jump\t// in\n    tag_50:\n      mload(0x40)\n      tag_52\n      swap2\n      swap1\n      tag_19\n      jump\t// in\n    tag_52:\n      mload(0x40)\n      dup1\n      swap2\n      sub\n      swap1\n      return\n        /* \"4_Day/1_if-else-basic.sol\":509:623  function fee_ternary(uint age) public pure returns (uint){... */\n    tag_17:\n        /* \"4_Day/1_if-else-basic.sol\":561:565  uint */\n      0x00\n        /* \"4_Day/1_if-else-basic.sol\":250:252  10 */\n      0x0a\n        /* \"4_Day/1_if-else-basic.sol\":579:582  age */\n      dup3\n        /* \"4_Day/1_if-else-basic.sol\":579:596  age < cut_off_age */\n      lt\n        /* \"4_Day/1_if-else-basic.sol\":579:619  age < cut_off_age ? child_fee: adult_fee */\n      tag_54\n      jumpi\n        /* \"4_Day/1_if-else-basic.sol\":124:126  20 */\n      0x14\n        /* \"4_Day/1_if-else-basic.sol\":579:619  age < cut_off_age ? child_fee: adult_fee */\n      jump(tag_55)\n    tag_54:\n        /* \"4_Day/1_if-else-basic.sol\":208:209  0 */\n      0x00\n        /* \"4_Day/1_if-else-basic.sol\":579:619  age < cut_off_age ? child_fee: adult_fee */\n    tag_55:\n        /* \"4_Day/1_if-else-basic.sol\":572:619  return age < cut_off_age ? child_fee: adult_fee */\n      swap1\n      pop\n        /* \"4_Day/1_if-else-basic.sol\":509:623  function fee_ternary(uint age) public pure returns (uint){... */\n      swap2\n      swap1\n      pop\n      jump\t// out\n        /* \"4_Day/1_if-else-basic.sol\":752:1097  function fee_2(uint age, bool isGirl) public pure returns (uint,string memory) {... */\n    tag_23:\n        /* \"4_Day/1_if-else-basic.sol\":811:815  uint */\n      0x00\n        /* \"4_Day/1_if-else-basic.sol\":816:829  string memory */\n      0x60\n        /* \"4_Day/1_if-else-basic.sol\":837:855  string memory gift */\n      0x00\n        /* \"4_Day/1_if-else-basic.sol\":837:860  string memory gift = \"\" */\n      mload(0x40)\n      dup1\n      0x20\n      add\n      0x40\n      mstore\n      dup1\n      0x00\n      dup2\n      mstore\n      pop\n      swap1\n      pop\n        /* \"4_Day/1_if-else-basic.sol\":250:252  10 */\n      0x0a\n        /* \"4_Day/1_if-else-basic.sol\":870:873  age */\n      dup6\n        /* \"4_Day/1_if-else-basic.sol\":870:887  age < cut_off_age */\n      lt\n        /* \"4_Day/1_if-else-basic.sol\":867:1095  if(age < cut_off_age){... */\n      iszero\n      tag_57\n      jumpi\n        /* \"4_Day/1_if-else-basic.sol\":901:907  isGirl */\n      dup4\n        /* \"4_Day/1_if-else-basic.sol\":898:1007  if(isGirl){... */\n      iszero\n      tag_58\n      jumpi\n        /* \"4_Day/1_if-else-basic.sol\":922:941  gift =\"barbie doll\" */\n      mload(0x40)\n      dup1\n      0x40\n      add\n      0x40\n      mstore\n      dup1\n      0x0b\n      dup2\n      mstore\n      0x20\n      add\n      0x62617262696520646f6c6c000000000000000000000000000000000000000000\n      dup2\n      mstore\n      pop\n      swap1\n      pop\n        /* \"4_Day/1_if-else-basic.sol\":898:1007  if(isGirl){... */\n      jump(tag_59)\n    tag_58:\n        /* \"4_Day/1_if-else-basic.sol\":979:996  gift = \"bayblade\" */\n      mload(0x40)\n      dup1\n      0x40\n      add\n      0x40\n      mstore\n      dup1\n      0x08\n      dup2\n      mstore\n      0x20\n      add\n      0x626179626c616465000000000000000000000000000000000000000000000000\n      dup2\n      mstore\n      pop\n      swap1\n      pop\n        /* \"4_Day/1_if-else-basic.sol\":898:1007  if(isGirl){... */\n    tag_59:\n        /* \"4_Day/1_if-else-basic.sol\":208:209  0 */\n      0x00\n        /* \"4_Day/1_if-else-basic.sol\":1034:1038  gift */\n      dup2\n        /* \"4_Day/1_if-else-basic.sol\":1016:1039  return (child_fee,gift) */\n      swap3\n      pop\n      swap3\n      pop\n      pop\n      jump(tag_56)\n        /* \"4_Day/1_if-else-basic.sol\":867:1095  if(age < cut_off_age){... */\n    tag_57:\n        /* \"4_Day/1_if-else-basic.sol\":124:126  20 */\n      0x14\n        /* \"4_Day/1_if-else-basic.sol\":1083:1087  gift */\n      dup2\n        /* \"4_Day/1_if-else-basic.sol\":1065:1088  return (adult_fee,gift) */\n      swap3\n      pop\n      swap3\n      pop\n      pop\n        /* \"4_Day/1_if-else-basic.sol\":752:1097  function fee_2(uint age, bool isGirl) public pure returns (uint,string memory) {... */\n    tag_56:\n      swap3\n      pop\n      swap3\n      swap1\n      pop\n      jump\t// out\n        /* \"4_Day/1_if-else-basic.sol\":175:209  uint public constant child_fee = 0 */\n    tag_27:\n        /* \"4_Day/1_if-else-basic.sol\":208:209  0 */\n      0x00\n        /* \"4_Day/1_if-else-basic.sol\":175:209  uint public constant child_fee = 0 */\n      dup2\n      jump\t// out\n        /* \"4_Day/1_if-else-basic.sol\":1707:2177  function fee_3(uint age, bool isGirl) public pure returns (uint,string memory) {... */\n    tag_31:\n        /* \"4_Day/1_if-else-basic.sol\":1766:1770  uint */\n      0x00\n        /* \"4_Day/1_if-else-basic.sol\":1771:1784  string memory */\n      0x60\n        /* \"4_Day/1_if-else-basic.sol\":1800:1818  string memory gift */\n      0x00\n        /* \"4_Day/1_if-else-basic.sol\":1800:1823  string memory gift = \"\" */\n      mload(0x40)\n      dup1\n      0x20\n      add\n      0x40\n      mstore\n      dup1\n      0x00\n      dup2\n      mstore\n      pop\n      swap1\n      pop\n        /* \"4_Day/1_if-else-basic.sol\":250:252  10 */\n      0x0a\n        /* \"4_Day/1_if-else-basic.sol\":1833:1836  age */\n      dup6\n        /* \"4_Day/1_if-else-basic.sol\":1833:1850  age < cut_off_age */\n      lt\n        /* \"4_Day/1_if-else-basic.sol\":1830:2175  if(age < cut_off_age){... */\n      iszero\n      tag_62\n      jumpi\n        /* \"4_Day/1_if-else-basic.sol\":1864:1870  isGirl */\n      dup4\n        /* \"4_Day/1_if-else-basic.sol\":1861:1971  if(isGirl){... */\n      iszero\n      tag_63\n      jumpi\n        /* \"4_Day/1_if-else-basic.sol\":1885:1904  gift =\"barbie doll\" */\n      mload(0x40)\n      dup1\n      0x40\n      add\n      0x40\n      mstore\n      dup1\n      0x0b\n      dup2\n      mstore\n      0x20\n      add\n      0x62617262696520646f6c6c000000000000000000000000000000000000000000\n      dup2\n      mstore\n      pop\n      swap1\n      pop\n        /* \"4_Day/1_if-else-basic.sol\":1861:1971  if(isGirl){... */\n      jump(tag_64)\n    tag_63:\n        /* \"4_Day/1_if-else-basic.sol\":1942:1959  gift = \"bayblade\" */\n      mload(0x40)\n      dup1\n      0x40\n      add\n      0x40\n      mstore\n      dup1\n      0x08\n      dup2\n      mstore\n      0x20\n      add\n      0x626179626c616465000000000000000000000000000000000000000000000000\n      dup2\n      mstore\n      pop\n      swap1\n      pop\n        /* \"4_Day/1_if-else-basic.sol\":1861:1971  if(isGirl){... */\n    tag_64:\n        /* \"4_Day/1_if-else-basic.sol\":208:209  0 */\n      0x00\n        /* \"4_Day/1_if-else-basic.sol\":1998:2002  gift */\n      dup2\n        /* \"4_Day/1_if-else-basic.sol\":1980:2003  return (child_fee,gift) */\n      swap3\n      pop\n      swap3\n      pop\n      pop\n      jump(tag_61)\n        /* \"4_Day/1_if-else-basic.sol\":1830:2175  if(age < cut_off_age){... */\n    tag_62:\n        /* \"4_Day/1_if-else-basic.sol\":301:303  70 */\n      0x46\n        /* \"4_Day/1_if-else-basic.sol\":2023:2026  age */\n      dup6\n        /* \"4_Day/1_if-else-basic.sol\":2023:2048  age > old_age_cut_off_age */\n      gt\n        /* \"4_Day/1_if-else-basic.sol\":2020:2175  if(age > old_age_cut_off_age){... */\n      iszero\n      tag_66\n      jumpi\n        /* \"4_Day/1_if-else-basic.sol\":2059:2084  gift = \"$50 food voucher\" */\n      mload(0x40)\n      dup1\n      0x40\n      add\n      0x40\n      mstore\n      dup1\n      0x10\n      dup2\n      mstore\n      0x20\n      add\n      0x24353020666f6f6420766f756368657200000000000000000000000000000000\n      dup2\n      mstore\n      pop\n      swap1\n      pop\n        /* \"4_Day/1_if-else-basic.sol\":167:169  10 */\n      0x0a\n        /* \"4_Day/1_if-else-basic.sol\":2114:2118  gift */\n      dup2\n        /* \"4_Day/1_if-else-basic.sol\":2094:2119  return (old_age_fee,gift) */\n      swap3\n      pop\n      swap3\n      pop\n      pop\n      jump(tag_61)\n        /* \"4_Day/1_if-else-basic.sol\":2020:2175  if(age > old_age_cut_off_age){... */\n    tag_66:\n        /* \"4_Day/1_if-else-basic.sol\":124:126  20 */\n      0x14\n        /* \"4_Day/1_if-else-basic.sol\":2163:2167  gift */\n      dup2\n        /* \"4_Day/1_if-else-basic.sol\":2145:2168  return (adult_fee,gift) */\n      swap3\n      pop\n      swap3\n      pop\n      pop\n        /* \"4_Day/1_if-else-basic.sol\":1707:2177  function fee_3(uint age, bool isGirl) public pure returns (uint,string memory) {... */\n    tag_61:\n      swap3\n      pop\n      swap3\n      swap1\n      pop\n      jump\t// out\n        /* \"4_Day/1_if-else-basic.sol\":353:507  function fee(uint age) public pure returns (uint) {... */\n    tag_35:\n        /* \"4_Day/1_if-else-basic.sol\":397:401  uint */\n      0x00\n        /* \"4_Day/1_if-else-basic.sol\":250:252  10 */\n      0x0a\n        /* \"4_Day/1_if-else-basic.sol\":412:415  age */\n      dup3\n        /* \"4_Day/1_if-else-basic.sol\":412:429  age < cut_off_age */\n      lt\n        /* \"4_Day/1_if-else-basic.sol\":409:505  if(age < cut_off_age){... */\n      iszero\n      tag_69\n      jumpi\n        /* \"4_Day/1_if-else-basic.sol\":208:209  0 */\n      0x00\n        /* \"4_Day/1_if-else-basic.sol\":440:456  return child_fee */\n      swap1\n      pop\n      jump(tag_68)\n        /* \"4_Day/1_if-else-basic.sol\":409:505  if(age < cut_off_age){... */\n    tag_69:\n        /* \"4_Day/1_if-else-basic.sol\":124:126  20 */\n      0x14\n        /* \"4_Day/1_if-else-basic.sol\":482:498  return adult_fee */\n      swap1\n      pop\n        /* \"4_Day/1_if-else-basic.sol\":353:507  function fee(uint age) public pure returns (uint) {... */\n    tag_68:\n      swap2\n      swap1\n      pop\n      jump\t// out\n        /* \"4_Day/1_if-else-basic.sol\":132:169  uint public constant old_age_fee = 10 */\n    tag_38:\n        /* \"4_Day/1_if-else-basic.sol\":167:169  10 */\n      0x0a\n        /* \"4_Day/1_if-else-basic.sol\":132:169  uint public constant old_age_fee = 10 */\n      dup2\n      jump\t// out\n        /* \"4_Day/1_if-else-basic.sol\":1100:1518  function fee_2_ternary(uint age, bool isGirl) public pure returns(uint, string memory){... */\n    tag_42:\n        /* \"4_Day/1_if-else-basic.sol\":1166:1170  uint */\n      0x00\n        /* \"4_Day/1_if-else-basic.sol\":1172:1185  string memory */\n      0x60\n        /* \"4_Day/1_if-else-basic.sol\":250:252  10 */\n      0x0a\n        /* \"4_Day/1_if-else-basic.sol\":1314:1317  age */\n      dup5\n        /* \"4_Day/1_if-else-basic.sol\":1314:1331  age < cut_off_age */\n      lt\n        /* \"4_Day/1_if-else-basic.sol\":1313:1409  (age < cut_off_age) ? (child_fee,(isGirl) ?  \"barbie doll\" : \"bayblade\") : (adult_fee,\"No gift\") */\n      tag_72\n      jumpi\n        /* \"4_Day/1_if-else-basic.sol\":124:126  20 */\n      0x14\n        /* \"4_Day/1_if-else-basic.sol\":1313:1409  (age < cut_off_age) ? (child_fee,(isGirl) ?  \"barbie doll\" : \"bayblade\") : (adult_fee,\"No gift\") */\n      mload(0x40)\n      dup1\n      0x40\n      add\n      0x40\n      mstore\n      dup1\n      0x07\n      dup2\n      mstore\n      0x20\n      add\n      0x4e6f206769667400000000000000000000000000000000000000000000000000\n      dup2\n      mstore\n      pop\n      jump(tag_73)\n    tag_72:\n        /* \"4_Day/1_if-else-basic.sol\":208:209  0 */\n      0x00\n        /* \"4_Day/1_if-else-basic.sol\":1347:1353  isGirl */\n      dup4\n        /* \"4_Day/1_if-else-basic.sol\":1346:1384  (isGirl) ?  \"barbie doll\" : \"bayblade\" */\n      tag_74\n      jumpi\n      mload(0x40)\n      dup1\n      0x40\n      add\n      0x40\n      mstore\n      dup1\n      0x08\n      dup2\n      mstore\n      0x20\n      add\n      0x626179626c616465000000000000000000000000000000000000000000000000\n      dup2\n      mstore\n      pop\n      jump(tag_75)\n    tag_74:\n      mload(0x40)\n      dup1\n      0x40\n      add\n      0x40\n      mstore\n      dup1\n      0x0b\n      dup2\n      mstore\n      0x20\n      add\n      0x62617262696520646f6c6c000000000000000000000000000000000000000000\n      dup2\n      mstore\n      pop\n    tag_75:\n        /* \"4_Day/1_if-else-basic.sol\":1313:1409  (age < cut_off_age) ? (child_fee,(isGirl) ?  \"barbie doll\" : \"bayblade\") : (adult_fee,\"No gift\") */\n    tag_73:\n        /* \"4_Day/1_if-else-basic.sol\":1306:1409  return (age < cut_off_age) ? (child_fee,(isGirl) ?  \"barbie doll\" : \"bayblade\") : (adult_fee,\"No gift\") */\n      swap2\n      pop\n      swap2\n      pop\n        /* \"4_Day/1_if-else-basic.sol\":1100:1518  function fee_2_ternary(uint age, bool isGirl) public pure returns(uint, string memory){... */\n      swap3\n      pop\n      swap3\n      swap1\n      pop\n      jump\t// out\n        /* \"4_Day/1_if-else-basic.sol\":215:252  uint public constant cut_off_age = 10 */\n    tag_45:\n        /* \"4_Day/1_if-else-basic.sol\":250:252  10 */\n      0x0a\n        /* \"4_Day/1_if-else-basic.sol\":215:252  uint public constant cut_off_age = 10 */\n      dup2\n      jump\t// out\n        /* \"4_Day/1_if-else-basic.sol\":91:126  uint public constant adult_fee = 20 */\n    tag_48:\n        /* \"4_Day/1_if-else-basic.sol\":124:126  20 */\n      0x14\n        /* \"4_Day/1_if-else-basic.sol\":91:126  uint public constant adult_fee = 20 */\n      dup2\n      jump\t// out\n        /* \"4_Day/1_if-else-basic.sol\":258:303  uint public constant old_age_cut_off_age = 70 */\n    tag_51:\n        /* \"4_Day/1_if-else-basic.sol\":301:303  70 */\n      0x46\n        /* \"4_Day/1_if-else-basic.sol\":258:303  uint public constant old_age_cut_off_age = 70 */\n      dup2\n      jump\t// out\n        /* \"#utility.yul\":88:205   */\n    tag_81:\n        /* \"#utility.yul\":197:198   */\n      0x00\n        /* \"#utility.yul\":194:195   */\n      dup1\n        /* \"#utility.yul\":187:199   */\n      revert\n        /* \"#utility.yul\":334:411   */\n    tag_83:\n        /* \"#utility.yul\":371:378   */\n      0x00\n        /* \"#utility.yul\":400:405   */\n      dup2\n        /* \"#utility.yul\":389:405   */\n      swap1\n      pop\n        /* \"#utility.yul\":334:411   */\n      swap2\n      swap1\n      pop\n      jump\t// out\n        /* \"#utility.yul\":417:539   */\n    tag_84:\n        /* \"#utility.yul\":490:514   */\n      tag_101\n        /* \"#utility.yul\":508:513   */\n      dup2\n        /* \"#utility.yul\":490:514   */\n      tag_83\n      jump\t// in\n    tag_101:\n        /* \"#utility.yul\":483:488   */\n      dup2\n        /* \"#utility.yul\":480:515   */\n      eq\n        /* \"#utility.yul\":470:533   */\n      tag_102\n      jumpi\n        /* \"#utility.yul\":529:530   */\n      0x00\n        /* \"#utility.yul\":526:527   */\n      dup1\n        /* \"#utility.yul\":519:531   */\n      revert\n        /* \"#utility.yul\":470:533   */\n    tag_102:\n        /* \"#utility.yul\":417:539   */\n      pop\n      jump\t// out\n        /* \"#utility.yul\":545:684   */\n    tag_85:\n        /* \"#utility.yul\":591:596   */\n      0x00\n        /* \"#utility.yul\":629:635   */\n      dup2\n        /* \"#utility.yul\":616:636   */\n      calldataload\n        /* \"#utility.yul\":607:636   */\n      swap1\n      pop\n        /* \"#utility.yul\":645:678   */\n      tag_104\n        /* \"#utility.yul\":672:677   */\n      dup2\n        /* \"#utility.yul\":645:678   */\n      tag_84\n      jump\t// in\n    tag_104:\n        /* \"#utility.yul\":545:684   */\n      swap3\n      swap2\n      pop\n      pop\n      jump\t// out\n        /* \"#utility.yul\":690:1019   */\n    tag_16:\n        /* \"#utility.yul\":749:755   */\n      0x00\n        /* \"#utility.yul\":798:800   */\n      0x20\n        /* \"#utility.yul\":786:795   */\n      dup3\n        /* \"#utility.yul\":777:784   */\n      dup5\n        /* \"#utility.yul\":773:796   */\n      sub\n        /* \"#utility.yul\":769:801   */\n      slt\n        /* \"#utility.yul\":766:885   */\n      iszero\n      tag_106\n      jumpi\n        /* \"#utility.yul\":804:883   */\n      tag_107\n      tag_81\n      jump\t// in\n    tag_107:\n        /* \"#utility.yul\":766:885   */\n    tag_106:\n        /* \"#utility.yul\":924:925   */\n      0x00\n        /* \"#utility.yul\":949:1002   */\n      tag_108\n        /* \"#utility.yul\":994:1001   */\n      dup5\n        /* \"#utility.yul\":985:991   */\n      dup3\n        /* \"#utility.yul\":974:983   */\n      dup6\n        /* \"#utility.yul\":970:992   */\n      add\n        /* \"#utility.yul\":949:1002   */\n      tag_85\n      jump\t// in\n    tag_108:\n        /* \"#utility.yul\":939:1002   */\n      swap2\n      pop\n        /* \"#utility.yul\":895:1012   */\n      pop\n        /* \"#utility.yul\":690:1019   */\n      swap3\n      swap2\n      pop\n      pop\n      jump\t// out\n        /* \"#utility.yul\":1025:1143   */\n    tag_86:\n        /* \"#utility.yul\":1112:1136   */\n      tag_110\n        /* \"#utility.yul\":1130:1135   */\n      dup2\n        /* \"#utility.yul\":1112:1136   */\n      tag_83\n      jump\t// in\n    tag_110:\n        /* \"#utility.yul\":1107:1110   */\n      dup3\n        /* \"#utility.yul\":1100:1137   */\n      mstore\n        /* \"#utility.yul\":1025:1143   */\n      pop\n      pop\n      jump\t// out\n        /* \"#utility.yul\":1149:1371   */\n    tag_19:\n        /* \"#utility.yul\":1242:1246   */\n      0x00\n        /* \"#utility.yul\":1280:1282   */\n      0x20\n        /* \"#utility.yul\":1269:1278   */\n      dup3\n        /* \"#utility.yul\":1265:1283   */\n      add\n        /* \"#utility.yul\":1257:1283   */\n      swap1\n      pop\n        /* \"#utility.yul\":1293:1364   */\n      tag_112\n        /* \"#utility.yul\":1361:1362   */\n      0x00\n        /* \"#utility.yul\":1350:1359   */\n      dup4\n        /* \"#utility.yul\":1346:1363   */\n      add\n        /* \"#utility.yul\":1337:1343   */\n      dup5\n        /* \"#utility.yul\":1293:1364   */\n      tag_86\n      jump\t// in\n    tag_112:\n        /* \"#utility.yul\":1149:1371   */\n      swap3\n      swap2\n      pop\n      pop\n      jump\t// out\n        /* \"#utility.yul\":1377:1467   */\n    tag_87:\n        /* \"#utility.yul\":1411:1418   */\n      0x00\n        /* \"#utility.yul\":1454:1459   */\n      dup2\n        /* \"#utility.yul\":1447:1460   */\n      iszero\n        /* \"#utility.yul\":1440:1461   */\n      iszero\n        /* \"#utility.yul\":1429:1461   */\n      swap1\n      pop\n        /* \"#utility.yul\":1377:1467   */\n      swap2\n      swap1\n      pop\n      jump\t// out\n        /* \"#utility.yul\":1473:1589   */\n    tag_88:\n        /* \"#utility.yul\":1543:1564   */\n      tag_115\n        /* \"#utility.yul\":1558:1563   */\n      dup2\n        /* \"#utility.yul\":1543:1564   */\n      tag_87\n      jump\t// in\n    tag_115:\n        /* \"#utility.yul\":1536:1541   */\n      dup2\n        /* \"#utility.yul\":1533:1565   */\n      eq\n        /* \"#utility.yul\":1523:1583   */\n      tag_116\n      jumpi\n        /* \"#utility.yul\":1579:1580   */\n      0x00\n        /* \"#utility.yul\":1576:1577   */\n      dup1\n        /* \"#utility.yul\":1569:1581   */\n      revert\n        /* \"#utility.yul\":1523:1583   */\n    tag_116:\n        /* \"#utility.yul\":1473:1589   */\n      pop\n      jump\t// out\n        /* \"#utility.yul\":1595:1728   */\n    tag_89:\n        /* \"#utility.yul\":1638:1643   */\n      0x00\n        /* \"#utility.yul\":1676:1682   */\n      dup2\n        /* \"#utility.yul\":1663:1683   */\n      calldataload\n        /* \"#utility.yul\":1654:1683   */\n      swap1\n      pop\n        /* \"#utility.yul\":1692:1722   */\n      tag_118\n        /* \"#utility.yul\":1716:1721   */\n      dup2\n        /* \"#utility.yul\":1692:1722   */\n      tag_88\n      jump\t// in\n    tag_118:\n        /* \"#utility.yul\":1595:1728   */\n      swap3\n      swap2\n      pop\n      pop\n      jump\t// out\n        /* \"#utility.yul\":1734:2202   */\n    tag_22:\n        /* \"#utility.yul\":1799:1805   */\n      0x00\n        /* \"#utility.yul\":1807:1813   */\n      dup1\n        /* \"#utility.yul\":1856:1858   */\n      0x40\n        /* \"#utility.yul\":1844:1853   */\n      dup4\n        /* \"#utility.yul\":1835:1842   */\n      dup6\n        /* \"#utility.yul\":1831:1854   */\n      sub\n        /* \"#utility.yul\":1827:1859   */\n      slt\n        /* \"#utility.yul\":1824:1943   */\n      iszero\n      tag_120\n      jumpi\n        /* \"#utility.yul\":1862:1941   */\n      tag_121\n      tag_81\n      jump\t// in\n    tag_121:\n        /* \"#utility.yul\":1824:1943   */\n    tag_120:\n        /* \"#utility.yul\":1982:1983   */\n      0x00\n        /* \"#utility.yul\":2007:2060   */\n      tag_122\n        /* \"#utility.yul\":2052:2059   */\n      dup6\n        /* \"#utility.yul\":2043:2049   */\n      dup3\n        /* \"#utility.yul\":2032:2041   */\n      dup7\n        /* \"#utility.yul\":2028:2050   */\n      add\n        /* \"#utility.yul\":2007:2060   */\n      tag_85\n      jump\t// in\n    tag_122:\n        /* \"#utility.yul\":1997:2060   */\n      swap3\n      pop\n        /* \"#utility.yul\":1953:2070   */\n      pop\n        /* \"#utility.yul\":2109:2111   */\n      0x20\n        /* \"#utility.yul\":2135:2185   */\n      tag_123\n        /* \"#utility.yul\":2177:2184   */\n      dup6\n        /* \"#utility.yul\":2168:2174   */\n      dup3\n        /* \"#utility.yul\":2157:2166   */\n      dup7\n        /* \"#utility.yul\":2153:2175   */\n      add\n        /* \"#utility.yul\":2135:2185   */\n      tag_89\n      jump\t// in\n    tag_123:\n        /* \"#utility.yul\":2125:2185   */\n      swap2\n      pop\n        /* \"#utility.yul\":2080:2195   */\n      pop\n        /* \"#utility.yul\":1734:2202   */\n      swap3\n      pop\n      swap3\n      swap1\n      pop\n      jump\t// out\n        /* \"#utility.yul\":2208:2307   */\n    tag_90:\n        /* \"#utility.yul\":2260:2266   */\n      0x00\n        /* \"#utility.yul\":2294:2299   */\n      dup2\n        /* \"#utility.yul\":2288:2300   */\n      mload\n        /* \"#utility.yul\":2278:2300   */\n      swap1\n      pop\n        /* \"#utility.yul\":2208:2307   */\n      swap2\n      swap1\n      pop\n      jump\t// out\n        /* \"#utility.yul\":2313:2482   */\n    tag_91:\n        /* \"#utility.yul\":2397:2408   */\n      0x00\n        /* \"#utility.yul\":2431:2437   */\n      dup3\n        /* \"#utility.yul\":2426:2429   */\n      dup3\n        /* \"#utility.yul\":2419:2438   */\n      mstore\n        /* \"#utility.yul\":2471:2475   */\n      0x20\n        /* \"#utility.yul\":2466:2469   */\n      dup3\n        /* \"#utility.yul\":2462:2476   */\n      add\n        /* \"#utility.yul\":2447:2476   */\n      swap1\n      pop\n        /* \"#utility.yul\":2313:2482   */\n      swap3\n      swap2\n      pop\n      pop\n      jump\t// out\n        /* \"#utility.yul\":2488:2734   */\n    tag_92:\n        /* \"#utility.yul\":2569:2570   */\n      0x00\n        /* \"#utility.yul\":2579:2692   */\n    tag_127:\n        /* \"#utility.yul\":2593:2599   */\n      dup4\n        /* \"#utility.yul\":2590:2591   */\n      dup2\n        /* \"#utility.yul\":2587:2600   */\n      lt\n        /* \"#utility.yul\":2579:2692   */\n      iszero\n      tag_129\n      jumpi\n        /* \"#utility.yul\":2678:2679   */\n      dup1\n        /* \"#utility.yul\":2673:2676   */\n      dup3\n        /* \"#utility.yul\":2669:2680   */\n      add\n        /* \"#utility.yul\":2663:2681   */\n      mload\n        /* \"#utility.yul\":2659:2660   */\n      dup2\n        /* \"#utility.yul\":2654:2657   */\n      dup5\n        /* \"#utility.yul\":2650:2661   */\n      add\n        /* \"#utility.yul\":2643:2682   */\n      mstore\n        /* \"#utility.yul\":2615:2617   */\n      0x20\n        /* \"#utility.yul\":2612:2613   */\n      dup2\n        /* \"#utility.yul\":2608:2618   */\n      add\n        /* \"#utility.yul\":2603:2618   */\n      swap1\n      pop\n        /* \"#utility.yul\":2579:2692   */\n      jump(tag_127)\n    tag_129:\n        /* \"#utility.yul\":2726:2727   */\n      0x00\n        /* \"#utility.yul\":2717:2723   */\n      dup5\n        /* \"#utility.yul\":2712:2715   */\n      dup5\n        /* \"#utility.yul\":2708:2724   */\n      add\n        /* \"#utility.yul\":2701:2728   */\n      mstore\n        /* \"#utility.yul\":2550:2734   */\n      pop\n        /* \"#utility.yul\":2488:2734   */\n      pop\n      pop\n      pop\n      jump\t// out\n        /* \"#utility.yul\":2740:2842   */\n    tag_93:\n        /* \"#utility.yul\":2781:2787   */\n      0x00\n        /* \"#utility.yul\":2832:2834   */\n      0x1f\n        /* \"#utility.yul\":2828:2835   */\n      not\n        /* \"#utility.yul\":2823:2825   */\n      0x1f\n        /* \"#utility.yul\":2816:2821   */\n      dup4\n        /* \"#utility.yul\":2812:2826   */\n      add\n        /* \"#utility.yul\":2808:2836   */\n      and\n        /* \"#utility.yul\":2798:2836   */\n      swap1\n      pop\n        /* \"#utility.yul\":2740:2842   */\n      swap2\n      swap1\n      pop\n      jump\t// out\n        /* \"#utility.yul\":2848:3225   */\n    tag_94:\n        /* \"#utility.yul\":2936:2939   */\n      0x00\n        /* \"#utility.yul\":2964:3003   */\n      tag_132\n        /* \"#utility.yul\":2997:3002   */\n      dup3\n        /* \"#utility.yul\":2964:3003   */\n      tag_90\n      jump\t// in\n    tag_132:\n        /* \"#utility.yul\":3019:3090   */\n      tag_133\n        /* \"#utility.yul\":3083:3089   */\n      dup2\n        /* \"#utility.yul\":3078:3081   */\n      dup6\n        /* \"#utility.yul\":3019:3090   */\n      tag_91\n      jump\t// in\n    tag_133:\n        /* \"#utility.yul\":3012:3090   */\n      swap4\n      pop\n        /* \"#utility.yul\":3099:3164   */\n      tag_134\n        /* \"#utility.yul\":3157:3163   */\n      dup2\n        /* \"#utility.yul\":3152:3155   */\n      dup6\n        /* \"#utility.yul\":3145:3149   */\n      0x20\n        /* \"#utility.yul\":3138:3143   */\n      dup7\n        /* \"#utility.yul\":3134:3150   */\n      add\n        /* \"#utility.yul\":3099:3164   */\n      tag_92\n      jump\t// in\n    tag_134:\n        /* \"#utility.yul\":3189:3218   */\n      tag_135\n        /* \"#utility.yul\":3211:3217   */\n      dup2\n        /* \"#utility.yul\":3189:3218   */\n      tag_93\n      jump\t// in\n    tag_135:\n        /* \"#utility.yul\":3184:3187   */\n      dup5\n        /* \"#utility.yul\":3180:3219   */\n      add\n        /* \"#utility.yul\":3173:3219   */\n      swap2\n      pop\n        /* \"#utility.yul\":2940:3225   */\n      pop\n        /* \"#utility.yul\":2848:3225   */\n      swap3\n      swap2\n      pop\n      pop\n      jump\t// out\n        /* \"#utility.yul\":3231:3654   */\n    tag_25:\n        /* \"#utility.yul\":3372:3376   */\n      0x00\n        /* \"#utility.yul\":3410:3412   */\n      0x40\n        /* \"#utility.yul\":3399:3408   */\n      dup3\n        /* \"#utility.yul\":3395:3413   */\n      add\n        /* \"#utility.yul\":3387:3413   */\n      swap1\n      pop\n        /* \"#utility.yul\":3423:3494   */\n      tag_137\n        /* \"#utility.yul\":3491:3492   */\n      0x00\n        /* \"#utility.yul\":3480:3489   */\n      dup4\n        /* \"#utility.yul\":3476:3493   */\n      add\n        /* \"#utility.yul\":3467:3473   */\n      dup6\n        /* \"#utility.yul\":3423:3494   */\n      tag_86\n      jump\t// in\n    tag_137:\n        /* \"#utility.yul\":3541:3550   */\n      dup2\n        /* \"#utility.yul\":3535:3539   */\n      dup2\n        /* \"#utility.yul\":3531:3551   */\n      sub\n        /* \"#utility.yul\":3526:3528   */\n      0x20\n        /* \"#utility.yul\":3515:3524   */\n      dup4\n        /* \"#utility.yul\":3511:3529   */\n      add\n        /* \"#utility.yul\":3504:3552   */\n      mstore\n        /* \"#utility.yul\":3569:3647   */\n      tag_138\n        /* \"#utility.yul\":3642:3646   */\n      dup2\n        /* \"#utility.yul\":3633:3639   */\n      dup5\n        /* \"#utility.yul\":3569:3647   */\n      tag_94\n      jump\t// in\n    tag_138:\n        /* \"#utility.yul\":3561:3647   */\n      swap1\n      pop\n        /* \"#utility.yul\":3231:3654   */\n      swap4\n      swap3\n      pop\n      pop\n      pop\n      jump\t// out\n\n    auxdata: 0xa2646970667358221220094b3c9c08121d1ddfcd76fbdebf64be556a06e41728d52f39b7075568ad03aa64736f6c63430008120033\n}\n",
				"bytecode": {
					"linkReferences": {},
					"object": "608060405234801561001057600080fd5b5061070e806100206000396000f3fe608060405234801561001057600080fd5b506004361061009e5760003560e01c80634106d7f8116100665780634106d7f8146101835780638a9f7f93146101a15780639db5a37b146101d2578063a39414a2146101f0578063d4e541e31461020e5761009e565b80630f7bb123146100a3578063149411d2146100d3578063161294ce14610104578063251ff1641461012257806339b37ab014610153575b600080fd5b6100bd60048036038101906100b89190610549565b61022c565b6040516100ca9190610585565b60405180910390f35b6100ed60048036038101906100e891906105d8565b610247565b6040516100fb9291906106a8565b60405180910390f35b61010c610301565b6040516101199190610585565b60405180910390f35b61013c600480360381019061013791906105d8565b610306565b60405161014a9291906106a8565b60405180910390f35b61016d60048036038101906101689190610549565b61040e565b60405161017a9190610585565b60405180910390f35b61018b61042c565b6040516101989190610585565b60405180910390f35b6101bb60048036038101906101b691906105d8565b610431565b6040516101c99291906106a8565b60405180910390f35b6101da6104ff565b6040516101e79190610585565b60405180910390f35b6101f8610504565b6040516102059190610585565b60405180910390f35b610216610509565b6040516102239190610585565b60405180910390f35b6000600a821061023d576014610240565b60005b9050919050565b600060606000604051806020016040528060008152509050600a8510156102f15783156102ab576040518060400160405280600b81526020017f62617262696520646f6c6c00000000000000000000000000000000000000000081525090506102e4565b6040518060400160405280600881526020017f626179626c61646500000000000000000000000000000000000000000000000081525090505b60008192509250506102fa565b60148192509250505b9250929050565b600081565b600060606000604051806020016040528060008152509050600a8510156103b057831561036a576040518060400160405280600b81526020017f62617262696520646f6c6c00000000000000000000000000000000000000000081525090506103a3565b6040518060400160405280600881526020017f626179626c61646500000000000000000000000000000000000000000000000081525090505b6000819250925050610407565b60468511156103fe576040518060400160405280601081526020017f24353020666f6f6420766f7563686572000000000000000000000000000000008152509050600a819250925050610407565b60148192509250505b9250929050565b6000600a8210156104225760009050610427565b601490505b919050565b600a81565b60006060600a841061047a5760146040518060400160405280600781526020017f4e6f2067696674000000000000000000000000000000000000000000000000008152506104f4565b6000836104bc576040518060400160405280600881526020017f626179626c6164650000000000000000000000000000000000000000000000008152506104f3565b6040518060400160405280600b81526020017f62617262696520646f6c6c0000000000000000000000000000000000000000008152505b5b915091509250929050565b600a81565b601481565b604681565b600080fd5b6000819050919050565b61052681610513565b811461053157600080fd5b50565b6000813590506105438161051d565b92915050565b60006020828403121561055f5761055e61050e565b5b600061056d84828501610534565b91505092915050565b61057f81610513565b82525050565b600060208201905061059a6000830184610576565b92915050565b60008115159050919050565b6105b5816105a0565b81146105c057600080fd5b50565b6000813590506105d2816105ac565b92915050565b600080604083850312156105ef576105ee61050e565b5b60006105fd85828601610534565b925050602061060e858286016105c3565b9150509250929050565b600081519050919050565b600082825260208201905092915050565b60005b83811015610652578082015181840152602081019050610637565b60008484015250505050565b6000601f19601f8301169050919050565b600061067a82610618565b6106848185610623565b9350610694818560208601610634565b61069d8161065e565b840191505092915050565b60006040820190506106bd6000830185610576565b81810360208301526106cf818461066f565b9050939250505056fea2646970667358221220094b3c9c08121d1ddfcd76fbdebf64be556a06e41728d52f39b7075568ad03aa64736f6c63430008120033",
					"opcodes": "PUSH1 0x80 PUSH1 0x40 MSTORE CALLVALUE DUP1 ISZERO PUSH2 0x10 JUMPI PUSH1 0x0 DUP1 REVERT JUMPDEST POP PUSH2 0x70E DUP1 PUSH2 0x20 PUSH1 0x0 CODECOPY PUSH1 0x0 RETURN INVALID PUSH1 0x80 PUSH1 0x40 MSTORE CALLVALUE DUP1 ISZERO PUSH2 0x10 JUMPI PUSH1 0x0 DUP1 REVERT JUMPDEST POP PUSH1 0x4 CALLDATASIZE LT PUSH2 0x9E JUMPI PUSH1 0x0 CALLDATALOAD PUSH1 0xE0 SHR DUP1 PUSH4 0x4106D7F8 GT PUSH2 0x66 JUMPI DUP1 PUSH4 0x4106D7F8 EQ PUSH2 0x183 JUMPI DUP1 PUSH4 0x8A9F7F93 EQ PUSH2 0x1A1 JUMPI DUP1 PUSH4 0x9DB5A37B EQ PUSH2 0x1D2 JUMPI DUP1 PUSH4 0xA39414A2 EQ PUSH2 0x1F0 JUMPI DUP1 PUSH4 0xD4E541E3 EQ PUSH2 0x20E JUMPI PUSH2 0x9E JUMP JUMPDEST DUP1 PUSH4 0xF7BB123 EQ PUSH2 0xA3 JUMPI DUP1 PUSH4 0x149411D2 EQ PUSH2 0xD3 JUMPI DUP1 PUSH4 0x161294CE EQ PUSH2 0x104 JUMPI DUP1 PUSH4 0x251FF164 EQ PUSH2 0x122 JUMPI DUP1 PUSH4 0x39B37AB0 EQ PUSH2 0x153 JUMPI JUMPDEST PUSH1 0x0 DUP1 REVERT JUMPDEST PUSH2 0xBD PUSH1 0x4 DUP1 CALLDATASIZE SUB DUP2 ADD SWAP1 PUSH2 0xB8 SWAP2 SWAP1 PUSH2 0x549 JUMP JUMPDEST PUSH2 0x22C JUMP JUMPDEST PUSH1 0x40 MLOAD PUSH2 0xCA SWAP2 SWAP1 PUSH2 0x585 JUMP JUMPDEST PUSH1 0x40 MLOAD DUP1 SWAP2 SUB SWAP1 RETURN JUMPDEST PUSH2 0xED PUSH1 0x4 DUP1 CALLDATASIZE SUB DUP2 ADD SWAP1 PUSH2 0xE8 SWAP2 SWAP1 PUSH2 0x5D8 JUMP JUMPDEST PUSH2 0x247 JUMP JUMPDEST PUSH1 0x40 MLOAD PUSH2 0xFB SWAP3 SWAP2 SWAP1 PUSH2 0x6A8 JUMP JUMPDEST PUSH1 0x40 MLOAD DUP1 SWAP2 SUB SWAP1 RETURN JUMPDEST PUSH2 0x10C PUSH2 0x301 JUMP JUMPDEST PUSH1 0x40 MLOAD PUSH2 0x119 SWAP2 SWAP1 PUSH2 0x585 JUMP JUMPDEST PUSH1 0x40 MLOAD DUP1 SWAP2 SUB SWAP1 RETURN JUMPDEST PUSH2 0x13C PUSH1 0x4 DUP1 CALLDATASIZE SUB DUP2 ADD SWAP1 PUSH2 0x137 SWAP2 SWAP1 PUSH2 0x5D8 JUMP JUMPDEST PUSH2 0x306 JUMP JUMPDEST PUSH1 0x40 MLOAD PUSH2 0x14A SWAP3 SWAP2 SWAP1 PUSH2 0x6A8 JUMP JUMPDEST PUSH1 0x40 MLOAD DUP1 SWAP2 SUB SWAP1 RETURN JUMPDEST PUSH2 0x16D PUSH1 0x4 DUP1 CALLDATASIZE SUB DUP2 ADD SWAP1 PUSH2 0x168 SWAP2 SWAP1 PUSH2 0x549 JUMP JUMPDEST PUSH2 0x40E JUMP JUMPDEST PUSH1 0x40 MLOAD PUSH2 0x17A SWAP2 SWAP1 PUSH2 0x585 JUMP JUMPDEST PUSH1 0x40 MLOAD DUP1 SWAP2 SUB SWAP1 RETURN JUMPDEST PUSH2 0x18B PUSH2 0x42C JUMP JUMPDEST PUSH1 0x40 MLOAD PUSH2 0x198 SWAP2 SWAP1 PUSH2 0x585 JUMP JUMPDEST PUSH1 0x40 MLOAD DUP1 SWAP2 SUB SWAP1 RETURN JUMPDEST PUSH2 0x1BB PUSH1 0x4 DUP1 CALLDATASIZE SUB DUP2 ADD SWAP1 PUSH2 0x1B6 SWAP2 SWAP1 PUSH2 0x5D8 JUMP JUMPDEST PUSH2 0x431 JUMP JUMPDEST PUSH1 0x40 MLOAD PUSH2 0x1C9 SWAP3 SWAP2 SWAP1 PUSH2 0x6A8 JUMP JUMPDEST PUSH1 0x40 MLOAD DUP1 SWAP2 SUB SWAP1 RETURN JUMPDEST PUSH2 0x1DA PUSH2 0x4FF JUMP JUMPDEST PUSH1 0x40 MLOAD PUSH2 0x1E7 SWAP2 SWAP1 PUSH2 0x585 JUMP JUMPDEST PUSH1 0x40 MLOAD DUP1 SWAP2 SUB SWAP1 RETURN JUMPDEST PUSH2 0x1F8 PUSH2 0x504 JUMP JUMPDEST PUSH1 0x40 MLOAD PUSH2 0x205 SWAP2 SWAP1 PUSH2 0x585 JUMP JUMPDEST PUSH1 0x40 MLOAD DUP1 SWAP2 SUB SWAP1 RETURN JUMPDEST PUSH2 0x216 PUSH2 0x509 JUMP JUMPDEST PUSH1 0x40 MLOAD PUSH2 0x223 SWAP2 SWAP1 PUSH2 0x585 JUMP JUMPDEST PUSH1 0x40 MLOAD DUP1 SWAP2 SUB SWAP1 RETURN JUMPDEST PUSH1 0x0 PUSH1 0xA DUP3 LT PUSH2 0x23D JUMPI PUSH1 0x14 PUSH2 0x240 JUMP JUMPDEST PUSH1 0x0 JUMPDEST SWAP1 POP SWAP2 SWAP1 POP JUMP JUMPDEST PUSH1 0x0 PUSH1 0x60 PUSH1 0x0 PUSH1 0x40 MLOAD DUP1 PUSH1 0x20 ADD PUSH1 0x40 MSTORE DUP1 PUSH1 0x0 DUP2 MSTORE POP SWAP1 POP PUSH1 0xA DUP6 LT ISZERO PUSH2 0x2F1 JUMPI DUP4 ISZERO PUSH2 0x2AB JUMPI PUSH1 0x40 MLOAD DUP1 PUSH1 0x40 ADD PUSH1 0x40 MSTORE DUP1 PUSH1 0xB DUP2 MSTORE PUSH1 0x20 ADD PUSH32 0x62617262696520646F6C6C000000000000000000000000000000000000000000 DUP2 MSTORE POP SWAP1 POP PUSH2 0x2E4 JUMP JUMPDEST PUSH1 0x40 MLOAD DUP1 PUSH1 0x40 ADD PUSH1 0x40 MSTORE DUP1 PUSH1 0x8 DUP2 MSTORE PUSH1 0x20 ADD PUSH32 0x626179626C616465000000000000000000000000000000000000000000000000 DUP2 MSTORE POP SWAP1 POP JUMPDEST PUSH1 0x0 DUP2 SWAP3 POP SWAP3 POP POP PUSH2 0x2FA JUMP JUMPDEST PUSH1 0x14 DUP2 SWAP3 POP SWAP3 POP POP JUMPDEST SWAP3 POP SWAP3 SWAP1 POP JUMP JUMPDEST PUSH1 0x0 DUP2 JUMP JUMPDEST PUSH1 0x0 PUSH1 0x60 PUSH1 0x0 PUSH1 0x40 MLOAD DUP1 PUSH1 0x20 ADD PUSH1 0x40 MSTORE DUP1 PUSH1 0x0 DUP2 MSTORE POP SWAP1 POP PUSH1 0xA DUP6 LT ISZERO PUSH2 0x3B0 JUMPI DUP4 ISZERO PUSH2 0x36A JUMPI PUSH1 0x40 MLOAD DUP1 PUSH1 0x40 ADD PUSH1 0x40 MSTORE DUP1 PUSH1 0xB DUP2 MSTORE PUSH1 0x20 ADD PUSH32 0x62617262696520646F6C6C000000000000000000000000000000000000000000 DUP2 MSTORE POP SWAP1 POP PUSH2 0x3A3 JUMP JUMPDEST PUSH1 0x40 MLOAD DUP1 PUSH1 0x40 ADD PUSH1 0x40 MSTORE DUP1 PUSH1 0x8 DUP2 MSTORE PUSH1 0x20 ADD PUSH32 0x626179626C616465000000000000000000000000000000000000000000000000 DUP2 MSTORE POP SWAP1 POP JUMPDEST PUSH1 0x0 DUP2 SWAP3 POP SWAP3 POP POP PUSH2 0x407 JUMP JUMPDEST PUSH1 0x46 DUP6 GT ISZERO PUSH2 0x3FE JUMPI PUSH1 0x40 MLOAD DUP1 PUSH1 0x40 ADD PUSH1 0x40 MSTORE DUP1 PUSH1 0x10 DUP2 MSTORE PUSH1 0x20 ADD PUSH32 0x24353020666F6F6420766F756368657200000000000000000000000000000000 DUP2 MSTORE POP SWAP1 POP PUSH1 0xA DUP2 SWAP3 POP SWAP3 POP POP PUSH2 0x407 JUMP JUMPDEST PUSH1 0x14 DUP2 SWAP3 POP SWAP3 POP POP JUMPDEST SWAP3 POP SWAP3 SWAP1 POP JUMP JUMPDEST PUSH1 0x0 PUSH1 0xA DUP3 LT ISZERO PUSH2 0x422 JUMPI PUSH1 0x0 SWAP1 POP PUSH2 0x427 JUMP JUMPDEST PUSH1 0x14 SWAP1 POP JUMPDEST SWAP2 SWAP1 POP JUMP JUMPDEST PUSH1 0xA DUP2 JUMP JUMPDEST PUSH1 0x0 PUSH1 0x60 PUSH1 0xA DUP5 LT PUSH2 0x47A JUMPI PUSH1 0x14 PUSH1 0x40 MLOAD DUP1 PUSH1 0x40 ADD PUSH1 0x40 MSTORE DUP1 PUSH1 0x7 DUP2 MSTORE PUSH1 0x20 ADD PUSH32 0x4E6F206769667400000000000000000000000000000000000000000000000000 DUP2 MSTORE POP PUSH2 0x4F4 JUMP JUMPDEST PUSH1 0x0 DUP4 PUSH2 0x4BC JUMPI PUSH1 0x40 MLOAD DUP1 PUSH1 0x40 ADD PUSH1 0x40 MSTORE DUP1 PUSH1 0x8 DUP2 MSTORE PUSH1 0x20 ADD PUSH32 0x626179626C616465000000000000000000000000000000000000000000000000 DUP2 MSTORE POP PUSH2 0x4F3 JUMP JUMPDEST PUSH1 0x40 MLOAD DUP1 PUSH1 0x40 ADD PUSH1 0x40 MSTORE DUP1 PUSH1 0xB DUP2 MSTORE PUSH1 0x20 ADD PUSH32 0x62617262696520646F6C6C000000000000000000000000000000000000000000 DUP2 MSTORE POP JUMPDEST JUMPDEST SWAP2 POP SWAP2 POP SWAP3 POP SWAP3 SWAP1 POP JUMP JUMPDEST PUSH1 0xA DUP2 JUMP JUMPDEST PUSH1 0x14 DUP2 JUMP JUMPDEST PUSH1 0x46 DUP2 JUMP JUMPDEST PUSH1 0x0 DUP1 REVERT JUMPDEST PUSH1 0x0 DUP2 SWAP1 POP SWAP2 SWAP1 POP JUMP JUMPDEST PUSH2 0x526 DUP2 PUSH2 0x513 JUMP JUMPDEST DUP2 EQ PUSH2 0x531 JUMPI PUSH1 0x0 DUP1 REVERT JUMPDEST POP JUMP JUMPDEST PUSH1 0x0 DUP2 CALLDATALOAD SWAP1 POP PUSH2 0x543 DUP2 PUSH2 0x51D JUMP JUMPDEST SWAP3 SWAP2 POP POP JUMP JUMPDEST PUSH1 0x0 PUSH1 0x20 DUP3 DUP5 SUB SLT ISZERO PUSH2 0x55F JUMPI PUSH2 0x55E PUSH2 0x50E JUMP JUMPDEST JUMPDEST PUSH1 0x0 PUSH2 0x56D DUP5 DUP3 DUP6 ADD PUSH2 0x534 JUMP JUMPDEST SWAP2 POP POP SWAP3 SWAP2 POP POP JUMP JUMPDEST PUSH2 0x57F DUP2 PUSH2 0x513 JUMP JUMPDEST DUP3 MSTORE POP POP JUMP JUMPDEST PUSH1 0x0 PUSH1 0x20 DUP3 ADD SWAP1 POP PUSH2 0x59A PUSH1 0x0 DUP4 ADD DUP5 PUSH2 0x576 JUMP JUMPDEST SWAP3 SWAP2 POP POP JUMP JUMPDEST PUSH1 0x0 DUP2 ISZERO ISZERO SWAP1 POP SWAP2 SWAP1 POP JUMP JUMPDEST PUSH2 0x5B5 DUP2 PUSH2 0x5A0 JUMP JUMPDEST DUP2 EQ PUSH2 0x5C0 JUMPI PUSH1 0x0 DUP1 REVERT JUMPDEST POP JUMP JUMPDEST PUSH1 0x0 DUP2 CALLDATALOAD SWAP1 POP PUSH2 0x5D2 DUP2 PUSH2 0x5AC JUMP JUMPDEST SWAP3 SWAP2 POP POP JUMP JUMPDEST PUSH1 0x0 DUP1 PUSH1 0x40 DUP4 DUP6 SUB SLT ISZERO PUSH2 0x5EF JUMPI PUSH2 0x5EE PUSH2 0x50E JUMP JUMPDEST JUMPDEST PUSH1 0x0 PUSH2 0x5FD DUP6 DUP3 DUP7 ADD PUSH2 0x534 JUMP JUMPDEST SWAP3 POP POP PUSH1 0x20 PUSH2 0x60E DUP6 DUP3 DUP7 ADD PUSH2 0x5C3 JUMP JUMPDEST SWAP2 POP POP SWAP3 POP SWAP3 SWAP1 POP JUMP JUMPDEST PUSH1 0x0 DUP2 MLOAD SWAP1 POP SWAP2 SWAP1 POP JUMP JUMPDEST PUSH1 0x0 DUP3 DUP3 MSTORE PUSH1 0x20 DUP3 ADD SWAP1 POP SWAP3 SWAP2 POP POP JUMP JUMPDEST PUSH1 0x0 JUMPDEST DUP4 DUP2 LT ISZERO PUSH2 0x652 JUMPI DUP1 DUP3 ADD MLOAD DUP2 DUP5 ADD MSTORE PUSH1 0x20 DUP2 ADD SWAP1 POP PUSH2 0x637 JUMP JUMPDEST PUSH1 0x0 DUP5 DUP5 ADD MSTORE POP POP POP POP JUMP JUMPDEST PUSH1 0x0 PUSH1 0x1F NOT PUSH1 0x1F DUP4 ADD AND SWAP1 POP SWAP2 SWAP1 POP JUMP JUMPDEST PUSH1 0x0 PUSH2 0x67A DUP3 PUSH2 0x618 JUMP JUMPDEST PUSH2 0x684 DUP2 DUP6 PUSH2 0x623 JUMP JUMPDEST SWAP4 POP PUSH2 0x694 DUP2 DUP6 PUSH1 0x20 DUP7 ADD PUSH2 0x634 JUMP JUMPDEST PUSH2 0x69D DUP2 PUSH2 0x65E JUMP JUMPDEST DUP5 ADD SWAP2 POP POP SWAP3 SWAP2 POP POP JUMP JUMPDEST PUSH1 0x0 PUSH1 0x40 DUP3 ADD SWAP1 POP PUSH2 0x6BD PUSH1 0x0 DUP4 ADD DUP6 PUSH2 0x576 JUMP JUMPDEST DUP2 DUP2 SUB PUSH1 0x20 DUP4 ADD MSTORE PUSH2 0x6CF DUP2 DUP5 PUSH2 0x66F JUMP JUMPDEST SWAP1 POP SWAP4 SWAP3 POP POP POP JUMP INVALID LOG2 PUSH5 0x6970667358 0x22 SLT KECCAK256 MULMOD 0x4B EXTCODECOPY SWAP13 ADDMOD SLT SAR SAR 0xDF 0xCD PUSH23 0xFBDEBF64BE556A06E41728D52F39B7075568AD03AA6473 PUSH16 0x6C634300081200330000000000000000 "
				},
				"gasEstimates": {
					"creation": {
						"codeDepositCost": "361200",
						"executionCost": "399",
						"totalCost": "361599"
					},
					"external": {
						"adult_fee()": "395",
						"child_fee()": "374",
						"cut_off_age()": "373",
						"fee(uint256)": "infinite",
						"fee_2(uint256,bool)": "infinite",
						"fee_2_ternary(uint256,bool)": "infinite",
						"fee_3(uint256,bool)": "infinite",
						"fee_ternary(uint256)": "infinite",
						"old_age_cut_off_age()": "417",
						"old_age_fee()": "329"
					}
				},
				"methodIdentifiers": {
					"adult_fee()": "a39414a2",
					"child_fee()": "161294ce",
					"cut_off_age()": "9db5a37b",
					"fee(uint256)": "39b37ab0",
					"fee_2(uint256,bool)": "149411d2",
					"fee_2_ternary(uint256,bool)": "8a9f7f93",
					"fee_3(uint256,bool)": "251ff164",
					"fee_ternary(uint256)": "0f7bb123",
					"old_age_cut_off_age()": "d4e541e3",
					"old_age_fee()": "4106d7f8"
				}
			},
			"storageLayout": {
				"storage": [],
				"types": null
			},
			"userdoc": {
				"kind": "user",
				"methods": {},
				"version": 1
			}
		}
	}
}