{
	"Day04/if-else-answers.sol": {
		"IfElse": {
			"abi": [
				{
					"inputs": [
						{
							"internalType": "uint256",
							"name": "age",
							"type": "uint256"
						}
					],
					"name": "check_1",
					"outputs": [
						{
							"internalType": "uint256",
							"name": "",
							"type": "uint256"
						}
					],
					"stateMutability": "pure",
					"type": "function"
				},
				{
					"inputs": [
						{
							"internalType": "uint256",
							"name": "age",
							"type": "uint256"
						},
						{
							"internalType": "bool",
							"name": "isGirl",
							"type": "bool"
						}
					],
					"name": "check_2",
					"outputs": [
						{
							"internalType": "uint256",
							"name": "",
							"type": "uint256"
						},
						{
							"internalType": "string",
							"name": "",
							"type": "string"
						}
					],
					"stateMutability": "pure",
					"type": "function"
				},
				{
					"inputs": [
						{
							"internalType": "uint256",
							"name": "age",
							"type": "uint256"
						},
						{
							"internalType": "bool",
							"name": "isGirl",
							"type": "bool"
						}
					],
					"name": "check_3",
					"outputs": [
						{
							"internalType": "uint256",
							"name": "",
							"type": "uint256"
						},
						{
							"internalType": "string",
							"name": "",
							"type": "string"
						}
					],
					"stateMutability": "pure",
					"type": "function"
				},
				{
					"inputs": [
						{
							"internalType": "uint256",
							"name": "age",
							"type": "uint256"
						}
					],
					"name": "ternary_check_1",
					"outputs": [
						{
							"internalType": "uint256",
							"name": "",
							"type": "uint256"
						}
					],
					"stateMutability": "pure",
					"type": "function"
				},
				{
					"inputs": [
						{
							"internalType": "uint256",
							"name": "age",
							"type": "uint256"
						},
						{
							"internalType": "bool",
							"name": "isGirl",
							"type": "bool"
						}
					],
					"name": "ternary_check_2",
					"outputs": [
						{
							"internalType": "uint256",
							"name": "",
							"type": "uint256"
						},
						{
							"internalType": "string",
							"name": "",
							"type": "string"
						}
					],
					"stateMutability": "pure",
					"type": "function"
				},
				{
					"inputs": [
						{
							"internalType": "uint256",
							"name": "age",
							"type": "uint256"
						},
						{
							"internalType": "bool",
							"name": "isGirl",
							"type": "bool"
						}
					],
					"name": "ternary_check_3",
					"outputs": [
						{
							"internalType": "uint256",
							"name": "",
							"type": "uint256"
						},
						{
							"internalType": "string",
							"name": "",
							"type": "string"
						}
					],
					"stateMutability": "pure",
					"type": "function"
				}
			],
			"devdoc": {
				"kind": "dev",
				"methods": {},
				"version": 1
			},
			"evm": {
				"assembly": "    /* \"Day04/if-else-answers.sol\":57:1720  contract IfElse {... */\n  mstore(0x40, 0x80)\n  callvalue\n  dup1\n  iszero\n  tag_1\n  jumpi\n  0x00\n  dup1\n  revert\ntag_1:\n  pop\n  dataSize(sub_0)\n  dup1\n  dataOffset(sub_0)\n  0x00\n  codecopy\n  0x00\n  return\nstop\n\nsub_0: assembly {\n        /* \"Day04/if-else-answers.sol\":57:1720  contract IfElse {... */\n      mstore(0x40, 0x80)\n      callvalue\n      dup1\n      iszero\n      tag_1\n      jumpi\n      0x00\n      dup1\n      revert\n    tag_1:\n      pop\n      jumpi(tag_2, lt(calldatasize, 0x04))\n      shr(0xe0, calldataload(0x00))\n      dup1\n      0x7864d4f2\n      eq\n      tag_3\n      jumpi\n      dup1\n      0xa4228d68\n      eq\n      tag_4\n      jumpi\n      dup1\n      0xad275638\n      eq\n      tag_5\n      jumpi\n      dup1\n      0xb0349a49\n      eq\n      tag_6\n      jumpi\n      dup1\n      0xf539aca3\n      eq\n      tag_7\n      jumpi\n      dup1\n      0xf54d9580\n      eq\n      tag_8\n      jumpi\n    tag_2:\n      0x00\n      dup1\n      revert\n        /* \"Day04/if-else-answers.sol\":1123:1493  function check_3(uint age, bool isGirl) public pure returns(uint, string memory){... */\n    tag_3:\n      tag_9\n      0x04\n      dup1\n      calldatasize\n      sub\n      dup2\n      add\n      swap1\n      tag_10\n      swap2\n      swap1\n      tag_11\n      jump\t// in\n    tag_10:\n      tag_12\n      jump\t// in\n    tag_9:\n      mload(0x40)\n      tag_13\n      swap3\n      swap2\n      swap1\n      tag_14\n      jump\t// in\n    tag_13:\n      mload(0x40)\n      dup1\n      swap2\n      sub\n      swap1\n      return\n        /* \"Day04/if-else-answers.sol\":121:251  function check_1(uint age) public pure returns(uint){... */\n    tag_4:\n      tag_15\n      0x04\n      dup1\n      calldatasize\n      sub\n      dup2\n      add\n      swap1\n      tag_16\n      swap2\n      swap1\n      tag_17\n      jump\t// in\n    tag_16:\n      tag_18\n      jump\t// in\n    tag_15:\n      mload(0x40)\n      tag_19\n      swap2\n      swap1\n      tag_20\n      jump\t// in\n    tag_19:\n      mload(0x40)\n      dup1\n      swap2\n      sub\n      swap1\n      return\n        /* \"Day04/if-else-answers.sol\":253:342  function ternary_check_1(uint age) public pure returns(uint){... */\n    tag_5:\n      tag_21\n      0x04\n      dup1\n      calldatasize\n      sub\n      dup2\n      add\n      swap1\n      tag_22\n      swap2\n      swap1\n      tag_17\n      jump\t// in\n    tag_22:\n      tag_23\n      jump\t// in\n    tag_21:\n      mload(0x40)\n      tag_24\n      swap2\n      swap1\n      tag_20\n      jump\t// in\n    tag_24:\n      mload(0x40)\n      dup1\n      swap2\n      sub\n      swap1\n      return\n        /* \"Day04/if-else-answers.sol\":467:777  function check_2(uint age, bool isGirl) public pure returns(uint, string memory){... */\n    tag_6:\n      tag_25\n      0x04\n      dup1\n      calldatasize\n      sub\n      dup2\n      add\n      swap1\n      tag_26\n      swap2\n      swap1\n      tag_11\n      jump\t// in\n    tag_26:\n      tag_27\n      jump\t// in\n    tag_25:\n      mload(0x40)\n      tag_28\n      swap3\n      swap2\n      swap1\n      tag_14\n      jump\t// in\n    tag_28:\n      mload(0x40)\n      dup1\n      swap2\n      sub\n      swap1\n      return\n        /* \"Day04/if-else-answers.sol\":780:961  function ternary_check_2(uint age, bool isGirl) public pure returns(uint, string memory){... */\n    tag_7:\n      tag_29\n      0x04\n      dup1\n      calldatasize\n      sub\n      dup2\n      add\n      swap1\n      tag_30\n      swap2\n      swap1\n      tag_11\n      jump\t// in\n    tag_30:\n      tag_31\n      jump\t// in\n    tag_29:\n      mload(0x40)\n      tag_32\n      swap3\n      swap2\n      swap1\n      tag_14\n      jump\t// in\n    tag_32:\n      mload(0x40)\n      dup1\n      swap2\n      sub\n      swap1\n      return\n        /* \"Day04/if-else-answers.sol\":1502:1714  function ternary_check_3(uint age, bool isGirl) public pure returns(uint, string memory){... */\n    tag_8:\n      tag_33\n      0x04\n      dup1\n      calldatasize\n      sub\n      dup2\n      add\n      swap1\n      tag_34\n      swap2\n      swap1\n      tag_11\n      jump\t// in\n    tag_34:\n      tag_35\n      jump\t// in\n    tag_33:\n      mload(0x40)\n      tag_36\n      swap3\n      swap2\n      swap1\n      tag_14\n      jump\t// in\n    tag_36:\n      mload(0x40)\n      dup1\n      swap2\n      sub\n      swap1\n      return\n        /* \"Day04/if-else-answers.sol\":1123:1493  function check_3(uint age, bool isGirl) public pure returns(uint, string memory){... */\n    tag_12:\n        /* \"Day04/if-else-answers.sol\":1183:1187  uint */\n      0x00\n        /* \"Day04/if-else-answers.sol\":1189:1202  string memory */\n      0x60\n        /* \"Day04/if-else-answers.sol\":1209:1227  string memory gift */\n      0x00\n        /* \"Day04/if-else-answers.sol\":1209:1239  string memory gift = \"No gift\" */\n      mload(0x40)\n      dup1\n      0x40\n      add\n      0x40\n      mstore\n      dup1\n      0x07\n      dup2\n      mstore\n      0x20\n      add\n      0x4e6f206769667400000000000000000000000000000000000000000000000000\n      dup2\n      mstore\n      pop\n      swap1\n      pop\n        /* \"Day04/if-else-answers.sol\":1255:1257  10 */\n      0x0a\n        /* \"Day04/if-else-answers.sol\":1249:1252  age */\n      dup6\n        /* \"Day04/if-else-answers.sol\":1249:1257  age < 10 */\n      lt\n        /* \"Day04/if-else-answers.sol\":1245:1491  if (age < 10) {... */\n      iszero\n      tag_38\n      jumpi\n        /* \"Day04/if-else-answers.sol\":1272:1278  isGirl */\n      dup4\n        /* \"Day04/if-else-answers.sol\":1269:1362  if(isGirl){... */\n      iszero\n      tag_39\n      jumpi\n        /* \"Day04/if-else-answers.sol\":1289:1309  gift = \"barbie doll\" */\n      mload(0x40)\n      dup1\n      0x40\n      add\n      0x40\n      mstore\n      dup1\n      0x0b\n      dup2\n      mstore\n      0x20\n      add\n      0x62617262696520646f6c6c000000000000000000000000000000000000000000\n      dup2\n      mstore\n      pop\n      swap1\n      pop\n        /* \"Day04/if-else-answers.sol\":1269:1362  if(isGirl){... */\n      jump(tag_40)\n    tag_39:\n        /* \"Day04/if-else-answers.sol\":1334:1351  gift = \"bayblade\" */\n      mload(0x40)\n      dup1\n      0x40\n      add\n      0x40\n      mstore\n      dup1\n      0x08\n      dup2\n      mstore\n      0x20\n      add\n      0x626179626c616465000000000000000000000000000000000000000000000000\n      dup2\n      mstore\n      pop\n      swap1\n      pop\n        /* \"Day04/if-else-answers.sol\":1269:1362  if(isGirl){... */\n    tag_40:\n        /* \"Day04/if-else-answers.sol\":1379:1380  0 */\n      0x00\n        /* \"Day04/if-else-answers.sol\":1381:1385  gift */\n      dup2\n        /* \"Day04/if-else-answers.sol\":1371:1386  return (0,gift) */\n      swap3\n      pop\n      swap3\n      pop\n      pop\n      jump(tag_37)\n        /* \"Day04/if-else-answers.sol\":1245:1491  if (age < 10) {... */\n    tag_38:\n        /* \"Day04/if-else-answers.sol\":1412:1414  70 */\n      0x46\n        /* \"Day04/if-else-answers.sol\":1406:1409  age */\n      dup6\n        /* \"Day04/if-else-answers.sol\":1406:1414  age > 70 */\n      gt\n        /* \"Day04/if-else-answers.sol\":1403:1491  if(age > 70){... */\n      iszero\n      tag_42\n      jumpi\n        /* \"Day04/if-else-answers.sol\":1433:1435  10 */\n      0x0a\n        /* \"Day04/if-else-answers.sol\":1436:1440  gift */\n      dup2\n        /* \"Day04/if-else-answers.sol\":1425:1441  return (10,gift) */\n      swap3\n      pop\n      swap3\n      pop\n      pop\n      jump(tag_37)\n        /* \"Day04/if-else-answers.sol\":1403:1491  if(age > 70){... */\n    tag_42:\n        /* \"Day04/if-else-answers.sol\":1476:1478  20 */\n      0x14\n        /* \"Day04/if-else-answers.sol\":1479:1483  gift */\n      dup2\n        /* \"Day04/if-else-answers.sol\":1468:1484  return (20,gift) */\n      swap3\n      pop\n      swap3\n      pop\n      pop\n        /* \"Day04/if-else-answers.sol\":1123:1493  function check_3(uint age, bool isGirl) public pure returns(uint, string memory){... */\n    tag_37:\n      swap3\n      pop\n      swap3\n      swap1\n      pop\n      jump\t// out\n        /* \"Day04/if-else-answers.sol\":121:251  function check_1(uint age) public pure returns(uint){... */\n    tag_18:\n        /* \"Day04/if-else-answers.sol\":168:172  uint */\n      0x00\n        /* \"Day04/if-else-answers.sol\":189:191  10 */\n      0x0a\n        /* \"Day04/if-else-answers.sol\":183:186  age */\n      dup3\n        /* \"Day04/if-else-answers.sol\":183:191  age < 10 */\n      lt\n        /* \"Day04/if-else-answers.sol\":179:249  if (age < 10) {... */\n      iszero\n      tag_45\n      jumpi\n        /* \"Day04/if-else-answers.sol\":210:211  0 */\n      0x00\n        /* \"Day04/if-else-answers.sol\":203:211  return 0 */\n      swap1\n      pop\n      jump(tag_44)\n        /* \"Day04/if-else-answers.sol\":179:249  if (age < 10) {... */\n    tag_45:\n        /* \"Day04/if-else-answers.sol\":240:242  20 */\n      0x14\n        /* \"Day04/if-else-answers.sol\":233:242  return 20 */\n      swap1\n      pop\n        /* \"Day04/if-else-answers.sol\":121:251  function check_1(uint age) public pure returns(uint){... */\n    tag_44:\n      swap2\n      swap1\n      pop\n      jump\t// out\n        /* \"Day04/if-else-answers.sol\":253:342  function ternary_check_1(uint age) public pure returns(uint){... */\n    tag_23:\n        /* \"Day04/if-else-answers.sol\":308:312  uint */\n      0x00\n        /* \"Day04/if-else-answers.sol\":328:330  10 */\n      0x0a\n        /* \"Day04/if-else-answers.sol\":322:325  age */\n      dup3\n        /* \"Day04/if-else-answers.sol\":322:330  age < 10 */\n      lt\n        /* \"Day04/if-else-answers.sol\":322:337  age < 10 ? 0:20 */\n      tag_48\n      jumpi\n        /* \"Day04/if-else-answers.sol\":335:337  20 */\n      0x14\n        /* \"Day04/if-else-answers.sol\":322:337  age < 10 ? 0:20 */\n      jump(tag_49)\n    tag_48:\n        /* \"Day04/if-else-answers.sol\":333:334  0 */\n      0x00\n        /* \"Day04/if-else-answers.sol\":322:337  age < 10 ? 0:20 */\n    tag_49:\n        /* \"Day04/if-else-answers.sol\":315:337  return age < 10 ? 0:20 */\n      0xff\n      and\n      swap1\n      pop\n        /* \"Day04/if-else-answers.sol\":253:342  function ternary_check_1(uint age) public pure returns(uint){... */\n      swap2\n      swap1\n      pop\n      jump\t// out\n        /* \"Day04/if-else-answers.sol\":467:777  function check_2(uint age, bool isGirl) public pure returns(uint, string memory){... */\n    tag_27:\n        /* \"Day04/if-else-answers.sol\":527:531  uint */\n      0x00\n        /* \"Day04/if-else-answers.sol\":533:546  string memory */\n      0x60\n        /* \"Day04/if-else-answers.sol\":553:571  string memory gift */\n      0x00\n        /* \"Day04/if-else-answers.sol\":553:583  string memory gift = \"No gift\" */\n      mload(0x40)\n      dup1\n      0x40\n      add\n      0x40\n      mstore\n      dup1\n      0x07\n      dup2\n      mstore\n      0x20\n      add\n      0x4e6f206769667400000000000000000000000000000000000000000000000000\n      dup2\n      mstore\n      pop\n      swap1\n      pop\n        /* \"Day04/if-else-answers.sol\":599:601  10 */\n      0x0a\n        /* \"Day04/if-else-answers.sol\":593:596  age */\n      dup6\n        /* \"Day04/if-else-answers.sol\":593:601  age < 10 */\n      lt\n        /* \"Day04/if-else-answers.sol\":589:775  if (age < 10) {... */\n      iszero\n      tag_51\n      jumpi\n        /* \"Day04/if-else-answers.sol\":616:622  isGirl */\n      dup4\n        /* \"Day04/if-else-answers.sol\":613:706  if(isGirl){... */\n      iszero\n      tag_52\n      jumpi\n        /* \"Day04/if-else-answers.sol\":633:653  gift = \"barbie doll\" */\n      mload(0x40)\n      dup1\n      0x40\n      add\n      0x40\n      mstore\n      dup1\n      0x0b\n      dup2\n      mstore\n      0x20\n      add\n      0x62617262696520646f6c6c000000000000000000000000000000000000000000\n      dup2\n      mstore\n      pop\n      swap1\n      pop\n        /* \"Day04/if-else-answers.sol\":613:706  if(isGirl){... */\n      jump(tag_53)\n    tag_52:\n        /* \"Day04/if-else-answers.sol\":678:695  gift = \"bayblade\" */\n      mload(0x40)\n      dup1\n      0x40\n      add\n      0x40\n      mstore\n      dup1\n      0x08\n      dup2\n      mstore\n      0x20\n      add\n      0x626179626c616465000000000000000000000000000000000000000000000000\n      dup2\n      mstore\n      pop\n      swap1\n      pop\n        /* \"Day04/if-else-answers.sol\":613:706  if(isGirl){... */\n    tag_53:\n        /* \"Day04/if-else-answers.sol\":723:724  0 */\n      0x00\n        /* \"Day04/if-else-answers.sol\":725:729  gift */\n      dup2\n        /* \"Day04/if-else-answers.sol\":715:730  return (0,gift) */\n      swap3\n      pop\n      swap3\n      pop\n      pop\n      jump(tag_50)\n        /* \"Day04/if-else-answers.sol\":589:775  if (age < 10) {... */\n    tag_51:\n        /* \"Day04/if-else-answers.sol\":760:762  20 */\n      0x14\n        /* \"Day04/if-else-answers.sol\":763:767  gift */\n      dup2\n        /* \"Day04/if-else-answers.sol\":752:768  return (20,gift) */\n      swap3\n      pop\n      swap3\n      pop\n      pop\n        /* \"Day04/if-else-answers.sol\":467:777  function check_2(uint age, bool isGirl) public pure returns(uint, string memory){... */\n    tag_50:\n      swap3\n      pop\n      swap3\n      swap1\n      pop\n      jump\t// out\n        /* \"Day04/if-else-answers.sol\":780:961  function ternary_check_2(uint age, bool isGirl) public pure returns(uint, string memory){... */\n    tag_31:\n        /* \"Day04/if-else-answers.sol\":848:852  uint */\n      0x00\n        /* \"Day04/if-else-answers.sol\":854:867  string memory */\n      0x60\n        /* \"Day04/if-else-answers.sol\":891:893  10 */\n      0x0a\n        /* \"Day04/if-else-answers.sol\":885:888  age */\n      dup5\n        /* \"Day04/if-else-answers.sol\":885:893  age < 10 */\n      lt\n        /* \"Day04/if-else-answers.sol\":885:954  age < 10 ? (0, isGirl ? \"barbie doll\" : \"bayblade\") : (20, \"No gift\") */\n      tag_56\n      jumpi\n        /* \"Day04/if-else-answers.sol\":940:942  20 */\n      0x14\n        /* \"Day04/if-else-answers.sol\":885:954  age < 10 ? (0, isGirl ? \"barbie doll\" : \"bayblade\") : (20, \"No gift\") */\n      mload(0x40)\n      dup1\n      0x40\n      add\n      0x40\n      mstore\n      dup1\n      0x07\n      dup2\n      mstore\n      0x20\n      add\n      0x4e6f206769667400000000000000000000000000000000000000000000000000\n      dup2\n      mstore\n      pop\n      jump(tag_57)\n    tag_56:\n        /* \"Day04/if-else-answers.sol\":897:898  0 */\n      0x00\n        /* \"Day04/if-else-answers.sol\":900:906  isGirl */\n      dup4\n        /* \"Day04/if-else-answers.sol\":900:935  isGirl ? \"barbie doll\" : \"bayblade\" */\n      tag_58\n      jumpi\n      mload(0x40)\n      dup1\n      0x40\n      add\n      0x40\n      mstore\n      dup1\n      0x08\n      dup2\n      mstore\n      0x20\n      add\n      0x626179626c616465000000000000000000000000000000000000000000000000\n      dup2\n      mstore\n      pop\n      jump(tag_59)\n    tag_58:\n      mload(0x40)\n      dup1\n      0x40\n      add\n      0x40\n      mstore\n      dup1\n      0x0b\n      dup2\n      mstore\n      0x20\n      add\n      0x62617262696520646f6c6c000000000000000000000000000000000000000000\n      dup2\n      mstore\n      pop\n    tag_59:\n        /* \"Day04/if-else-answers.sol\":885:954  age < 10 ? (0, isGirl ? \"barbie doll\" : \"bayblade\") : (20, \"No gift\") */\n    tag_57:\n        /* \"Day04/if-else-answers.sol\":878:954  return age < 10 ? (0, isGirl ? \"barbie doll\" : \"bayblade\") : (20, \"No gift\") */\n      dup2\n      0xff\n      and\n      swap2\n      pop\n      swap2\n      pop\n      swap2\n      pop\n        /* \"Day04/if-else-answers.sol\":780:961  function ternary_check_2(uint age, bool isGirl) public pure returns(uint, string memory){... */\n      swap3\n      pop\n      swap3\n      swap1\n      pop\n      jump\t// out\n        /* \"Day04/if-else-answers.sol\":1502:1714  function ternary_check_3(uint age, bool isGirl) public pure returns(uint, string memory){... */\n    tag_35:\n        /* \"Day04/if-else-answers.sol\":1570:1574  uint */\n      0x00\n        /* \"Day04/if-else-answers.sol\":1576:1589  string memory */\n      0x60\n        /* \"Day04/if-else-answers.sol\":1613:1615  10 */\n      0x0a\n        /* \"Day04/if-else-answers.sol\":1607:1610  age */\n      dup5\n        /* \"Day04/if-else-answers.sol\":1607:1615  age < 10 */\n      lt\n        /* \"Day04/if-else-answers.sol\":1607:1707  age < 10 ? (0, isGirl ? \"barbie doll\" : \"bayblade\") : (age > 70 ? (10, \"No gift\") : (20, \"No gift\")) */\n      tag_61\n      jumpi\n        /* \"Day04/if-else-answers.sol\":1668:1670  70 */\n      0x46\n        /* \"Day04/if-else-answers.sol\":1662:1665  age */\n      dup5\n        /* \"Day04/if-else-answers.sol\":1662:1670  age > 70 */\n      gt\n        /* \"Day04/if-else-answers.sol\":1662:1706  age > 70 ? (10, \"No gift\") : (20, \"No gift\") */\n      tag_62\n      jumpi\n        /* \"Day04/if-else-answers.sol\":1692:1694  20 */\n      0x14\n        /* \"Day04/if-else-answers.sol\":1662:1706  age > 70 ? (10, \"No gift\") : (20, \"No gift\") */\n      mload(0x40)\n      dup1\n      0x40\n      add\n      0x40\n      mstore\n      dup1\n      0x07\n      dup2\n      mstore\n      0x20\n      add\n      0x4e6f206769667400000000000000000000000000000000000000000000000000\n      dup2\n      mstore\n      pop\n      jump(tag_63)\n    tag_62:\n        /* \"Day04/if-else-answers.sol\":1674:1676  10 */\n      0x0a\n        /* \"Day04/if-else-answers.sol\":1662:1706  age > 70 ? (10, \"No gift\") : (20, \"No gift\") */\n      mload(0x40)\n      dup1\n      0x40\n      add\n      0x40\n      mstore\n      dup1\n      0x07\n      dup2\n      mstore\n      0x20\n      add\n      0x4e6f206769667400000000000000000000000000000000000000000000000000\n      dup2\n      mstore\n      pop\n    tag_63:\n        /* \"Day04/if-else-answers.sol\":1607:1707  age < 10 ? (0, isGirl ? \"barbie doll\" : \"bayblade\") : (age > 70 ? (10, \"No gift\") : (20, \"No gift\")) */\n      jump(tag_64)\n    tag_61:\n        /* \"Day04/if-else-answers.sol\":1619:1620  0 */\n      0x00\n        /* \"Day04/if-else-answers.sol\":1622:1628  isGirl */\n      dup4\n        /* \"Day04/if-else-answers.sol\":1622:1657  isGirl ? \"barbie doll\" : \"bayblade\" */\n      tag_65\n      jumpi\n      mload(0x40)\n      dup1\n      0x40\n      add\n      0x40\n      mstore\n      dup1\n      0x08\n      dup2\n      mstore\n      0x20\n      add\n      0x626179626c616465000000000000000000000000000000000000000000000000\n      dup2\n      mstore\n      pop\n      jump(tag_66)\n    tag_65:\n      mload(0x40)\n      dup1\n      0x40\n      add\n      0x40\n      mstore\n      dup1\n      0x0b\n      dup2\n      mstore\n      0x20\n      add\n      0x62617262696520646f6c6c000000000000000000000000000000000000000000\n      dup2\n      mstore\n      pop\n    tag_66:\n        /* \"Day04/if-else-answers.sol\":1607:1707  age < 10 ? (0, isGirl ? \"barbie doll\" : \"bayblade\") : (age > 70 ? (10, \"No gift\") : (20, \"No gift\")) */\n    tag_64:\n        /* \"Day04/if-else-answers.sol\":1600:1707  return age < 10 ? (0, isGirl ? \"barbie doll\" : \"bayblade\") : (age > 70 ? (10, \"No gift\") : (20, \"No gift\")) */\n      dup2\n      0xff\n      and\n      swap2\n      pop\n      swap2\n      pop\n      swap2\n      pop\n        /* \"Day04/if-else-answers.sol\":1502:1714  function ternary_check_3(uint age, bool isGirl) public pure returns(uint, string memory){... */\n      swap3\n      pop\n      swap3\n      swap1\n      pop\n      jump\t// out\n        /* \"#utility.yul\":88:205   */\n    tag_68:\n        /* \"#utility.yul\":197:198   */\n      0x00\n        /* \"#utility.yul\":194:195   */\n      dup1\n        /* \"#utility.yul\":187:199   */\n      revert\n        /* \"#utility.yul\":334:411   */\n    tag_70:\n        /* \"#utility.yul\":371:378   */\n      0x00\n        /* \"#utility.yul\":400:405   */\n      dup2\n        /* \"#utility.yul\":389:405   */\n      swap1\n      pop\n        /* \"#utility.yul\":334:411   */\n      swap2\n      swap1\n      pop\n      jump\t// out\n        /* \"#utility.yul\":417:539   */\n    tag_71:\n        /* \"#utility.yul\":490:514   */\n      tag_88\n        /* \"#utility.yul\":508:513   */\n      dup2\n        /* \"#utility.yul\":490:514   */\n      tag_70\n      jump\t// in\n    tag_88:\n        /* \"#utility.yul\":483:488   */\n      dup2\n        /* \"#utility.yul\":480:515   */\n      eq\n        /* \"#utility.yul\":470:533   */\n      tag_89\n      jumpi\n        /* \"#utility.yul\":529:530   */\n      0x00\n        /* \"#utility.yul\":526:527   */\n      dup1\n        /* \"#utility.yul\":519:531   */\n      revert\n        /* \"#utility.yul\":470:533   */\n    tag_89:\n        /* \"#utility.yul\":417:539   */\n      pop\n      jump\t// out\n        /* \"#utility.yul\":545:684   */\n    tag_72:\n        /* \"#utility.yul\":591:596   */\n      0x00\n        /* \"#utility.yul\":629:635   */\n      dup2\n        /* \"#utility.yul\":616:636   */\n      calldataload\n        /* \"#utility.yul\":607:636   */\n      swap1\n      pop\n        /* \"#utility.yul\":645:678   */\n      tag_91\n        /* \"#utility.yul\":672:677   */\n      dup2\n        /* \"#utility.yul\":645:678   */\n      tag_71\n      jump\t// in\n    tag_91:\n        /* \"#utility.yul\":545:684   */\n      swap3\n      swap2\n      pop\n      pop\n      jump\t// out\n        /* \"#utility.yul\":690:780   */\n    tag_73:\n        /* \"#utility.yul\":724:731   */\n      0x00\n        /* \"#utility.yul\":767:772   */\n      dup2\n        /* \"#utility.yul\":760:773   */\n      iszero\n        /* \"#utility.yul\":753:774   */\n      iszero\n        /* \"#utility.yul\":742:774   */\n      swap1\n      pop\n        /* \"#utility.yul\":690:780   */\n      swap2\n      swap1\n      pop\n      jump\t// out\n        /* \"#utility.yul\":786:902   */\n    tag_74:\n        /* \"#utility.yul\":856:877   */\n      tag_94\n        /* \"#utility.yul\":871:876   */\n      dup2\n        /* \"#utility.yul\":856:877   */\n      tag_73\n      jump\t// in\n    tag_94:\n        /* \"#utility.yul\":849:854   */\n      dup2\n        /* \"#utility.yul\":846:878   */\n      eq\n        /* \"#utility.yul\":836:896   */\n      tag_95\n      jumpi\n        /* \"#utility.yul\":892:893   */\n      0x00\n        /* \"#utility.yul\":889:890   */\n      dup1\n        /* \"#utility.yul\":882:894   */\n      revert\n        /* \"#utility.yul\":836:896   */\n    tag_95:\n        /* \"#utility.yul\":786:902   */\n      pop\n      jump\t// out\n        /* \"#utility.yul\":908:1041   */\n    tag_75:\n        /* \"#utility.yul\":951:956   */\n      0x00\n        /* \"#utility.yul\":989:995   */\n      dup2\n        /* \"#utility.yul\":976:996   */\n      calldataload\n        /* \"#utility.yul\":967:996   */\n      swap1\n      pop\n        /* \"#utility.yul\":1005:1035   */\n      tag_97\n        /* \"#utility.yul\":1029:1034   */\n      dup2\n        /* \"#utility.yul\":1005:1035   */\n      tag_74\n      jump\t// in\n    tag_97:\n        /* \"#utility.yul\":908:1041   */\n      swap3\n      swap2\n      pop\n      pop\n      jump\t// out\n        /* \"#utility.yul\":1047:1515   */\n    tag_11:\n        /* \"#utility.yul\":1112:1118   */\n      0x00\n        /* \"#utility.yul\":1120:1126   */\n      dup1\n        /* \"#utility.yul\":1169:1171   */\n      0x40\n        /* \"#utility.yul\":1157:1166   */\n      dup4\n        /* \"#utility.yul\":1148:1155   */\n      dup6\n        /* \"#utility.yul\":1144:1167   */\n      sub\n        /* \"#utility.yul\":1140:1172   */\n      slt\n        /* \"#utility.yul\":1137:1256   */\n      iszero\n      tag_99\n      jumpi\n        /* \"#utility.yul\":1175:1254   */\n      tag_100\n      tag_68\n      jump\t// in\n    tag_100:\n        /* \"#utility.yul\":1137:1256   */\n    tag_99:\n        /* \"#utility.yul\":1295:1296   */\n      0x00\n        /* \"#utility.yul\":1320:1373   */\n      tag_101\n        /* \"#utility.yul\":1365:1372   */\n      dup6\n        /* \"#utility.yul\":1356:1362   */\n      dup3\n        /* \"#utility.yul\":1345:1354   */\n      dup7\n        /* \"#utility.yul\":1341:1363   */\n      add\n        /* \"#utility.yul\":1320:1373   */\n      tag_72\n      jump\t// in\n    tag_101:\n        /* \"#utility.yul\":1310:1373   */\n      swap3\n      pop\n        /* \"#utility.yul\":1266:1383   */\n      pop\n        /* \"#utility.yul\":1422:1424   */\n      0x20\n        /* \"#utility.yul\":1448:1498   */\n      tag_102\n        /* \"#utility.yul\":1490:1497   */\n      dup6\n        /* \"#utility.yul\":1481:1487   */\n      dup3\n        /* \"#utility.yul\":1470:1479   */\n      dup7\n        /* \"#utility.yul\":1466:1488   */\n      add\n        /* \"#utility.yul\":1448:1498   */\n      tag_75\n      jump\t// in\n    tag_102:\n        /* \"#utility.yul\":1438:1498   */\n      swap2\n      pop\n        /* \"#utility.yul\":1393:1508   */\n      pop\n        /* \"#utility.yul\":1047:1515   */\n      swap3\n      pop\n      swap3\n      swap1\n      pop\n      jump\t// out\n        /* \"#utility.yul\":1521:1639   */\n    tag_76:\n        /* \"#utility.yul\":1608:1632   */\n      tag_104\n        /* \"#utility.yul\":1626:1631   */\n      dup2\n        /* \"#utility.yul\":1608:1632   */\n      tag_70\n      jump\t// in\n    tag_104:\n        /* \"#utility.yul\":1603:1606   */\n      dup3\n        /* \"#utility.yul\":1596:1633   */\n      mstore\n        /* \"#utility.yul\":1521:1639   */\n      pop\n      pop\n      jump\t// out\n        /* \"#utility.yul\":1645:1744   */\n    tag_77:\n        /* \"#utility.yul\":1697:1703   */\n      0x00\n        /* \"#utility.yul\":1731:1736   */\n      dup2\n        /* \"#utility.yul\":1725:1737   */\n      mload\n        /* \"#utility.yul\":1715:1737   */\n      swap1\n      pop\n        /* \"#utility.yul\":1645:1744   */\n      swap2\n      swap1\n      pop\n      jump\t// out\n        /* \"#utility.yul\":1750:1919   */\n    tag_78:\n        /* \"#utility.yul\":1834:1845   */\n      0x00\n        /* \"#utility.yul\":1868:1874   */\n      dup3\n        /* \"#utility.yul\":1863:1866   */\n      dup3\n        /* \"#utility.yul\":1856:1875   */\n      mstore\n        /* \"#utility.yul\":1908:1912   */\n      0x20\n        /* \"#utility.yul\":1903:1906   */\n      dup3\n        /* \"#utility.yul\":1899:1913   */\n      add\n        /* \"#utility.yul\":1884:1913   */\n      swap1\n      pop\n        /* \"#utility.yul\":1750:1919   */\n      swap3\n      swap2\n      pop\n      pop\n      jump\t// out\n        /* \"#utility.yul\":1925:2171   */\n    tag_79:\n        /* \"#utility.yul\":2006:2007   */\n      0x00\n        /* \"#utility.yul\":2016:2129   */\n    tag_108:\n        /* \"#utility.yul\":2030:2036   */\n      dup4\n        /* \"#utility.yul\":2027:2028   */\n      dup2\n        /* \"#utility.yul\":2024:2037   */\n      lt\n        /* \"#utility.yul\":2016:2129   */\n      iszero\n      tag_110\n      jumpi\n        /* \"#utility.yul\":2115:2116   */\n      dup1\n        /* \"#utility.yul\":2110:2113   */\n      dup3\n        /* \"#utility.yul\":2106:2117   */\n      add\n        /* \"#utility.yul\":2100:2118   */\n      mload\n        /* \"#utility.yul\":2096:2097   */\n      dup2\n        /* \"#utility.yul\":2091:2094   */\n      dup5\n        /* \"#utility.yul\":2087:2098   */\n      add\n        /* \"#utility.yul\":2080:2119   */\n      mstore\n        /* \"#utility.yul\":2052:2054   */\n      0x20\n        /* \"#utility.yul\":2049:2050   */\n      dup2\n        /* \"#utility.yul\":2045:2055   */\n      add\n        /* \"#utility.yul\":2040:2055   */\n      swap1\n      pop\n        /* \"#utility.yul\":2016:2129   */\n      jump(tag_108)\n    tag_110:\n        /* \"#utility.yul\":2163:2164   */\n      0x00\n        /* \"#utility.yul\":2154:2160   */\n      dup5\n        /* \"#utility.yul\":2149:2152   */\n      dup5\n        /* \"#utility.yul\":2145:2161   */\n      add\n        /* \"#utility.yul\":2138:2165   */\n      mstore\n        /* \"#utility.yul\":1987:2171   */\n      pop\n        /* \"#utility.yul\":1925:2171   */\n      pop\n      pop\n      pop\n      jump\t// out\n        /* \"#utility.yul\":2177:2279   */\n    tag_80:\n        /* \"#utility.yul\":2218:2224   */\n      0x00\n        /* \"#utility.yul\":2269:2271   */\n      0x1f\n        /* \"#utility.yul\":2265:2272   */\n      not\n        /* \"#utility.yul\":2260:2262   */\n      0x1f\n        /* \"#utility.yul\":2253:2258   */\n      dup4\n        /* \"#utility.yul\":2249:2263   */\n      add\n        /* \"#utility.yul\":2245:2273   */\n      and\n        /* \"#utility.yul\":2235:2273   */\n      swap1\n      pop\n        /* \"#utility.yul\":2177:2279   */\n      swap2\n      swap1\n      pop\n      jump\t// out\n        /* \"#utility.yul\":2285:2662   */\n    tag_81:\n        /* \"#utility.yul\":2373:2376   */\n      0x00\n        /* \"#utility.yul\":2401:2440   */\n      tag_113\n        /* \"#utility.yul\":2434:2439   */\n      dup3\n        /* \"#utility.yul\":2401:2440   */\n      tag_77\n      jump\t// in\n    tag_113:\n        /* \"#utility.yul\":2456:2527   */\n      tag_114\n        /* \"#utility.yul\":2520:2526   */\n      dup2\n        /* \"#utility.yul\":2515:2518   */\n      dup6\n        /* \"#utility.yul\":2456:2527   */\n      tag_78\n      jump\t// in\n    tag_114:\n        /* \"#utility.yul\":2449:2527   */\n      swap4\n      pop\n        /* \"#utility.yul\":2536:2601   */\n      tag_115\n        /* \"#utility.yul\":2594:2600   */\n      dup2\n        /* \"#utility.yul\":2589:2592   */\n      dup6\n        /* \"#utility.yul\":2582:2586   */\n      0x20\n        /* \"#utility.yul\":2575:2580   */\n      dup7\n        /* \"#utility.yul\":2571:2587   */\n      add\n        /* \"#utility.yul\":2536:2601   */\n      tag_79\n      jump\t// in\n    tag_115:\n        /* \"#utility.yul\":2626:2655   */\n      tag_116\n        /* \"#utility.yul\":2648:2654   */\n      dup2\n        /* \"#utility.yul\":2626:2655   */\n      tag_80\n      jump\t// in\n    tag_116:\n        /* \"#utility.yul\":2621:2624   */\n      dup5\n        /* \"#utility.yul\":2617:2656   */\n      add\n        /* \"#utility.yul\":2610:2656   */\n      swap2\n      pop\n        /* \"#utility.yul\":2377:2662   */\n      pop\n        /* \"#utility.yul\":2285:2662   */\n      swap3\n      swap2\n      pop\n      pop\n      jump\t// out\n        /* \"#utility.yul\":2668:3091   */\n    tag_14:\n        /* \"#utility.yul\":2809:2813   */\n      0x00\n        /* \"#utility.yul\":2847:2849   */\n      0x40\n        /* \"#utility.yul\":2836:2845   */\n      dup3\n        /* \"#utility.yul\":2832:2850   */\n      add\n        /* \"#utility.yul\":2824:2850   */\n      swap1\n      pop\n        /* \"#utility.yul\":2860:2931   */\n      tag_118\n        /* \"#utility.yul\":2928:2929   */\n      0x00\n        /* \"#utility.yul\":2917:2926   */\n      dup4\n        /* \"#utility.yul\":2913:2930   */\n      add\n        /* \"#utility.yul\":2904:2910   */\n      dup6\n        /* \"#utility.yul\":2860:2931   */\n      tag_76\n      jump\t// in\n    tag_118:\n        /* \"#utility.yul\":2978:2987   */\n      dup2\n        /* \"#utility.yul\":2972:2976   */\n      dup2\n        /* \"#utility.yul\":2968:2988   */\n      sub\n        /* \"#utility.yul\":2963:2965   */\n      0x20\n        /* \"#utility.yul\":2952:2961   */\n      dup4\n        /* \"#utility.yul\":2948:2966   */\n      add\n        /* \"#utility.yul\":2941:2989   */\n      mstore\n        /* \"#utility.yul\":3006:3084   */\n      tag_119\n        /* \"#utility.yul\":3079:3083   */\n      dup2\n        /* \"#utility.yul\":3070:3076   */\n      dup5\n        /* \"#utility.yul\":3006:3084   */\n      tag_81\n      jump\t// in\n    tag_119:\n        /* \"#utility.yul\":2998:3084   */\n      swap1\n      pop\n        /* \"#utility.yul\":2668:3091   */\n      swap4\n      swap3\n      pop\n      pop\n      pop\n      jump\t// out\n        /* \"#utility.yul\":3097:3426   */\n    tag_17:\n        /* \"#utility.yul\":3156:3162   */\n      0x00\n        /* \"#utility.yul\":3205:3207   */\n      0x20\n        /* \"#utility.yul\":3193:3202   */\n      dup3\n        /* \"#utility.yul\":3184:3191   */\n      dup5\n        /* \"#utility.yul\":3180:3203   */\n      sub\n        /* \"#utility.yul\":3176:3208   */\n      slt\n        /* \"#utility.yul\":3173:3292   */\n      iszero\n      tag_121\n      jumpi\n        /* \"#utility.yul\":3211:3290   */\n      tag_122\n      tag_68\n      jump\t// in\n    tag_122:\n        /* \"#utility.yul\":3173:3292   */\n    tag_121:\n        /* \"#utility.yul\":3331:3332   */\n      0x00\n        /* \"#utility.yul\":3356:3409   */\n      tag_123\n        /* \"#utility.yul\":3401:3408   */\n      dup5\n        /* \"#utility.yul\":3392:3398   */\n      dup3\n        /* \"#utility.yul\":3381:3390   */\n      dup6\n        /* \"#utility.yul\":3377:3399   */\n      add\n        /* \"#utility.yul\":3356:3409   */\n      tag_72\n      jump\t// in\n    tag_123:\n        /* \"#utility.yul\":3346:3409   */\n      swap2\n      pop\n        /* \"#utility.yul\":3302:3419   */\n      pop\n        /* \"#utility.yul\":3097:3426   */\n      swap3\n      swap2\n      pop\n      pop\n      jump\t// out\n        /* \"#utility.yul\":3432:3654   */\n    tag_20:\n        /* \"#utility.yul\":3525:3529   */\n      0x00\n        /* \"#utility.yul\":3563:3565   */\n      0x20\n        /* \"#utility.yul\":3552:3561   */\n      dup3\n        /* \"#utility.yul\":3548:3566   */\n      add\n        /* \"#utility.yul\":3540:3566   */\n      swap1\n      pop\n        /* \"#utility.yul\":3576:3647   */\n      tag_125\n        /* \"#utility.yul\":3644:3645   */\n      0x00\n        /* \"#utility.yul\":3633:3642   */\n      dup4\n        /* \"#utility.yul\":3629:3646   */\n      add\n        /* \"#utility.yul\":3620:3626   */\n      dup5\n        /* \"#utility.yul\":3576:3647   */\n      tag_76\n      jump\t// in\n    tag_125:\n        /* \"#utility.yul\":3432:3654   */\n      swap3\n      swap2\n      pop\n      pop\n      jump\t// out\n\n    auxdata: 0xa2646970667358221220d4e9ba9033fbb22c132ff5a7881242546e61cd936d3243c85e729a0acd2112bd64736f6c63430008120033\n}\n",
				"bytecode": {
					"linkReferences": {},
					"object": "608060405234801561001057600080fd5b5061078b806100206000396000f3fe608060405234801561001057600080fd5b50600436106100625760003560e01c80637864d4f214610067578063a4228d6814610098578063ad275638146100c8578063b0349a49146100f8578063f539aca314610129578063f54d95801461015a575b600080fd5b610081600480360381019061007c91906105fe565b61018b565b60405161008f9291906106dd565b60405180910390f35b6100b260048036038101906100ad919061070d565b610281565b6040516100bf919061073a565b60405180910390f35b6100e260048036038101906100dd919061070d565b61029f565b6040516100ef919061073a565b60405180910390f35b610112600480360381019061010d91906105fe565b6102bd565b6040516101209291906106dd565b60405180910390f35b610143600480360381019061013e91906105fe565b61039d565b6040516101519291906106dd565b60405180910390f35b610174600480360381019061016f91906105fe565b610471565b6040516101829291906106dd565b60405180910390f35b6000606060006040518060400160405280600781526020017f4e6f2067696674000000000000000000000000000000000000000000000000008152509050600a85101561025b578315610215576040518060400160405280600b81526020017f62617262696520646f6c6c000000000000000000000000000000000000000000815250905061024e565b6040518060400160405280600881526020017f626179626c61646500000000000000000000000000000000000000000000000081525090505b600081925092505061027a565b604685111561027157600a81925092505061027a565b60148192509250505b9250929050565b6000600a821015610295576000905061029a565b601490505b919050565b6000600a82106102b05760146102b3565b60005b60ff169050919050565b6000606060006040518060400160405280600781526020017f4e6f2067696674000000000000000000000000000000000000000000000000008152509050600a85101561038d578315610347576040518060400160405280600b81526020017f62617262696520646f6c6c0000000000000000000000000000000000000000008152509050610380565b6040518060400160405280600881526020017f626179626c61646500000000000000000000000000000000000000000000000081525090505b6000819250925050610396565b60148192509250505b9250929050565b60006060600a84106103e65760146040518060400160405280600781526020017f4e6f206769667400000000000000000000000000000000000000000000000000815250610460565b600083610428576040518060400160405280600881526020017f626179626c61646500000000000000000000000000000000000000000000000081525061045f565b6040518060400160405280600b81526020017f62617262696520646f6c6c0000000000000000000000000000000000000000008152505b5b8160ff169150915091509250929050565b60006060600a841061050057604684116104c25760146040518060400160405280600781526020017f4e6f2067696674000000000000000000000000000000000000000000000000008152506104fb565b600a6040518060400160405280600781526020017f4e6f2067696674000000000000000000000000000000000000000000000000008152505b61057a565b600083610542576040518060400160405280600881526020017f626179626c616465000000000000000000000000000000000000000000000000815250610579565b6040518060400160405280600b81526020017f62617262696520646f6c6c0000000000000000000000000000000000000000008152505b5b8160ff169150915091509250929050565b600080fd5b6000819050919050565b6105a381610590565b81146105ae57600080fd5b50565b6000813590506105c08161059a565b92915050565b60008115159050919050565b6105db816105c6565b81146105e657600080fd5b50565b6000813590506105f8816105d2565b92915050565b600080604083850312156106155761061461058b565b5b6000610623858286016105b1565b9250506020610634858286016105e9565b9150509250929050565b61064781610590565b82525050565b600081519050919050565b600082825260208201905092915050565b60005b8381101561068757808201518184015260208101905061066c565b60008484015250505050565b6000601f19601f8301169050919050565b60006106af8261064d565b6106b98185610658565b93506106c9818560208601610669565b6106d281610693565b840191505092915050565b60006040820190506106f2600083018561063e565b818103602083015261070481846106a4565b90509392505050565b6000602082840312156107235761072261058b565b5b6000610731848285016105b1565b91505092915050565b600060208201905061074f600083018461063e565b9291505056fea2646970667358221220d4e9ba9033fbb22c132ff5a7881242546e61cd936d3243c85e729a0acd2112bd64736f6c63430008120033",
					"opcodes": "PUSH1 0x80 PUSH1 0x40 MSTORE CALLVALUE DUP1 ISZERO PUSH2 0x10 JUMPI PUSH1 0x0 DUP1 REVERT JUMPDEST POP PUSH2 0x78B DUP1 PUSH2 0x20 PUSH1 0x0 CODECOPY PUSH1 0x0 RETURN INVALID PUSH1 0x80 PUSH1 0x40 MSTORE CALLVALUE DUP1 ISZERO PUSH2 0x10 JUMPI PUSH1 0x0 DUP1 REVERT JUMPDEST POP PUSH1 0x4 CALLDATASIZE LT PUSH2 0x62 JUMPI PUSH1 0x0 CALLDATALOAD PUSH1 0xE0 SHR DUP1 PUSH4 0x7864D4F2 EQ PUSH2 0x67 JUMPI DUP1 PUSH4 0xA4228D68 EQ PUSH2 0x98 JUMPI DUP1 PUSH4 0xAD275638 EQ PUSH2 0xC8 JUMPI DUP1 PUSH4 0xB0349A49 EQ PUSH2 0xF8 JUMPI DUP1 PUSH4 0xF539ACA3 EQ PUSH2 0x129 JUMPI DUP1 PUSH4 0xF54D9580 EQ PUSH2 0x15A JUMPI JUMPDEST PUSH1 0x0 DUP1 REVERT JUMPDEST PUSH2 0x81 PUSH1 0x4 DUP1 CALLDATASIZE SUB DUP2 ADD SWAP1 PUSH2 0x7C SWAP2 SWAP1 PUSH2 0x5FE JUMP JUMPDEST PUSH2 0x18B JUMP JUMPDEST PUSH1 0x40 MLOAD PUSH2 0x8F SWAP3 SWAP2 SWAP1 PUSH2 0x6DD JUMP JUMPDEST PUSH1 0x40 MLOAD DUP1 SWAP2 SUB SWAP1 RETURN JUMPDEST PUSH2 0xB2 PUSH1 0x4 DUP1 CALLDATASIZE SUB DUP2 ADD SWAP1 PUSH2 0xAD SWAP2 SWAP1 PUSH2 0x70D JUMP JUMPDEST PUSH2 0x281 JUMP JUMPDEST PUSH1 0x40 MLOAD PUSH2 0xBF SWAP2 SWAP1 PUSH2 0x73A JUMP JUMPDEST PUSH1 0x40 MLOAD DUP1 SWAP2 SUB SWAP1 RETURN JUMPDEST PUSH2 0xE2 PUSH1 0x4 DUP1 CALLDATASIZE SUB DUP2 ADD SWAP1 PUSH2 0xDD SWAP2 SWAP1 PUSH2 0x70D JUMP JUMPDEST PUSH2 0x29F JUMP JUMPDEST PUSH1 0x40 MLOAD PUSH2 0xEF SWAP2 SWAP1 PUSH2 0x73A JUMP JUMPDEST PUSH1 0x40 MLOAD DUP1 SWAP2 SUB SWAP1 RETURN JUMPDEST PUSH2 0x112 PUSH1 0x4 DUP1 CALLDATASIZE SUB DUP2 ADD SWAP1 PUSH2 0x10D SWAP2 SWAP1 PUSH2 0x5FE JUMP JUMPDEST PUSH2 0x2BD JUMP JUMPDEST PUSH1 0x40 MLOAD PUSH2 0x120 SWAP3 SWAP2 SWAP1 PUSH2 0x6DD JUMP JUMPDEST PUSH1 0x40 MLOAD DUP1 SWAP2 SUB SWAP1 RETURN JUMPDEST PUSH2 0x143 PUSH1 0x4 DUP1 CALLDATASIZE SUB DUP2 ADD SWAP1 PUSH2 0x13E SWAP2 SWAP1 PUSH2 0x5FE JUMP JUMPDEST PUSH2 0x39D JUMP JUMPDEST PUSH1 0x40 MLOAD PUSH2 0x151 SWAP3 SWAP2 SWAP1 PUSH2 0x6DD JUMP JUMPDEST PUSH1 0x40 MLOAD DUP1 SWAP2 SUB SWAP1 RETURN JUMPDEST PUSH2 0x174 PUSH1 0x4 DUP1 CALLDATASIZE SUB DUP2 ADD SWAP1 PUSH2 0x16F SWAP2 SWAP1 PUSH2 0x5FE JUMP JUMPDEST PUSH2 0x471 JUMP JUMPDEST PUSH1 0x40 MLOAD PUSH2 0x182 SWAP3 SWAP2 SWAP1 PUSH2 0x6DD JUMP JUMPDEST PUSH1 0x40 MLOAD DUP1 SWAP2 SUB SWAP1 RETURN JUMPDEST PUSH1 0x0 PUSH1 0x60 PUSH1 0x0 PUSH1 0x40 MLOAD DUP1 PUSH1 0x40 ADD PUSH1 0x40 MSTORE DUP1 PUSH1 0x7 DUP2 MSTORE PUSH1 0x20 ADD PUSH32 0x4E6F206769667400000000000000000000000000000000000000000000000000 DUP2 MSTORE POP SWAP1 POP PUSH1 0xA DUP6 LT ISZERO PUSH2 0x25B JUMPI DUP4 ISZERO PUSH2 0x215 JUMPI PUSH1 0x40 MLOAD DUP1 PUSH1 0x40 ADD PUSH1 0x40 MSTORE DUP1 PUSH1 0xB DUP2 MSTORE PUSH1 0x20 ADD PUSH32 0x62617262696520646F6C6C000000000000000000000000000000000000000000 DUP2 MSTORE POP SWAP1 POP PUSH2 0x24E JUMP JUMPDEST PUSH1 0x40 MLOAD DUP1 PUSH1 0x40 ADD PUSH1 0x40 MSTORE DUP1 PUSH1 0x8 DUP2 MSTORE PUSH1 0x20 ADD PUSH32 0x626179626C616465000000000000000000000000000000000000000000000000 DUP2 MSTORE POP SWAP1 POP JUMPDEST PUSH1 0x0 DUP2 SWAP3 POP SWAP3 POP POP PUSH2 0x27A JUMP JUMPDEST PUSH1 0x46 DUP6 GT ISZERO PUSH2 0x271 JUMPI PUSH1 0xA DUP2 SWAP3 POP SWAP3 POP POP PUSH2 0x27A JUMP JUMPDEST PUSH1 0x14 DUP2 SWAP3 POP SWAP3 POP POP JUMPDEST SWAP3 POP SWAP3 SWAP1 POP JUMP JUMPDEST PUSH1 0x0 PUSH1 0xA DUP3 LT ISZERO PUSH2 0x295 JUMPI PUSH1 0x0 SWAP1 POP PUSH2 0x29A JUMP JUMPDEST PUSH1 0x14 SWAP1 POP JUMPDEST SWAP2 SWAP1 POP JUMP JUMPDEST PUSH1 0x0 PUSH1 0xA DUP3 LT PUSH2 0x2B0 JUMPI PUSH1 0x14 PUSH2 0x2B3 JUMP JUMPDEST PUSH1 0x0 JUMPDEST PUSH1 0xFF AND SWAP1 POP SWAP2 SWAP1 POP JUMP JUMPDEST PUSH1 0x0 PUSH1 0x60 PUSH1 0x0 PUSH1 0x40 MLOAD DUP1 PUSH1 0x40 ADD PUSH1 0x40 MSTORE DUP1 PUSH1 0x7 DUP2 MSTORE PUSH1 0x20 ADD PUSH32 0x4E6F206769667400000000000000000000000000000000000000000000000000 DUP2 MSTORE POP SWAP1 POP PUSH1 0xA DUP6 LT ISZERO PUSH2 0x38D JUMPI DUP4 ISZERO PUSH2 0x347 JUMPI PUSH1 0x40 MLOAD DUP1 PUSH1 0x40 ADD PUSH1 0x40 MSTORE DUP1 PUSH1 0xB DUP2 MSTORE PUSH1 0x20 ADD PUSH32 0x62617262696520646F6C6C000000000000000000000000000000000000000000 DUP2 MSTORE POP SWAP1 POP PUSH2 0x380 JUMP JUMPDEST PUSH1 0x40 MLOAD DUP1 PUSH1 0x40 ADD PUSH1 0x40 MSTORE DUP1 PUSH1 0x8 DUP2 MSTORE PUSH1 0x20 ADD PUSH32 0x626179626C616465000000000000000000000000000000000000000000000000 DUP2 MSTORE POP SWAP1 POP JUMPDEST PUSH1 0x0 DUP2 SWAP3 POP SWAP3 POP POP PUSH2 0x396 JUMP JUMPDEST PUSH1 0x14 DUP2 SWAP3 POP SWAP3 POP POP JUMPDEST SWAP3 POP SWAP3 SWAP1 POP JUMP JUMPDEST PUSH1 0x0 PUSH1 0x60 PUSH1 0xA DUP5 LT PUSH2 0x3E6 JUMPI PUSH1 0x14 PUSH1 0x40 MLOAD DUP1 PUSH1 0x40 ADD PUSH1 0x40 MSTORE DUP1 PUSH1 0x7 DUP2 MSTORE PUSH1 0x20 ADD PUSH32 0x4E6F206769667400000000000000000000000000000000000000000000000000 DUP2 MSTORE POP PUSH2 0x460 JUMP JUMPDEST PUSH1 0x0 DUP4 PUSH2 0x428 JUMPI PUSH1 0x40 MLOAD DUP1 PUSH1 0x40 ADD PUSH1 0x40 MSTORE DUP1 PUSH1 0x8 DUP2 MSTORE PUSH1 0x20 ADD PUSH32 0x626179626C616465000000000000000000000000000000000000000000000000 DUP2 MSTORE POP PUSH2 0x45F JUMP JUMPDEST PUSH1 0x40 MLOAD DUP1 PUSH1 0x40 ADD PUSH1 0x40 MSTORE DUP1 PUSH1 0xB DUP2 MSTORE PUSH1 0x20 ADD PUSH32 0x62617262696520646F6C6C000000000000000000000000000000000000000000 DUP2 MSTORE POP JUMPDEST JUMPDEST DUP2 PUSH1 0xFF AND SWAP2 POP SWAP2 POP SWAP2 POP SWAP3 POP SWAP3 SWAP1 POP JUMP JUMPDEST PUSH1 0x0 PUSH1 0x60 PUSH1 0xA DUP5 LT PUSH2 0x500 JUMPI PUSH1 0x46 DUP5 GT PUSH2 0x4C2 JUMPI PUSH1 0x14 PUSH1 0x40 MLOAD DUP1 PUSH1 0x40 ADD PUSH1 0x40 MSTORE DUP1 PUSH1 0x7 DUP2 MSTORE PUSH1 0x20 ADD PUSH32 0x4E6F206769667400000000000000000000000000000000000000000000000000 DUP2 MSTORE POP PUSH2 0x4FB JUMP JUMPDEST PUSH1 0xA PUSH1 0x40 MLOAD DUP1 PUSH1 0x40 ADD PUSH1 0x40 MSTORE DUP1 PUSH1 0x7 DUP2 MSTORE PUSH1 0x20 ADD PUSH32 0x4E6F206769667400000000000000000000000000000000000000000000000000 DUP2 MSTORE POP JUMPDEST PUSH2 0x57A JUMP JUMPDEST PUSH1 0x0 DUP4 PUSH2 0x542 JUMPI PUSH1 0x40 MLOAD DUP1 PUSH1 0x40 ADD PUSH1 0x40 MSTORE DUP1 PUSH1 0x8 DUP2 MSTORE PUSH1 0x20 ADD PUSH32 0x626179626C616465000000000000000000000000000000000000000000000000 DUP2 MSTORE POP PUSH2 0x579 JUMP JUMPDEST PUSH1 0x40 MLOAD DUP1 PUSH1 0x40 ADD PUSH1 0x40 MSTORE DUP1 PUSH1 0xB DUP2 MSTORE PUSH1 0x20 ADD PUSH32 0x62617262696520646F6C6C000000000000000000000000000000000000000000 DUP2 MSTORE POP JUMPDEST JUMPDEST DUP2 PUSH1 0xFF AND SWAP2 POP SWAP2 POP SWAP2 POP SWAP3 POP SWAP3 SWAP1 POP JUMP JUMPDEST PUSH1 0x0 DUP1 REVERT JUMPDEST PUSH1 0x0 DUP2 SWAP1 POP SWAP2 SWAP1 POP JUMP JUMPDEST PUSH2 0x5A3 DUP2 PUSH2 0x590 JUMP JUMPDEST DUP2 EQ PUSH2 0x5AE JUMPI PUSH1 0x0 DUP1 REVERT JUMPDEST POP JUMP JUMPDEST PUSH1 0x0 DUP2 CALLDATALOAD SWAP1 POP PUSH2 0x5C0 DUP2 PUSH2 0x59A JUMP JUMPDEST SWAP3 SWAP2 POP POP JUMP JUMPDEST PUSH1 0x0 DUP2 ISZERO ISZERO SWAP1 POP SWAP2 SWAP1 POP JUMP JUMPDEST PUSH2 0x5DB DUP2 PUSH2 0x5C6 JUMP JUMPDEST DUP2 EQ PUSH2 0x5E6 JUMPI PUSH1 0x0 DUP1 REVERT JUMPDEST POP JUMP JUMPDEST PUSH1 0x0 DUP2 CALLDATALOAD SWAP1 POP PUSH2 0x5F8 DUP2 PUSH2 0x5D2 JUMP JUMPDEST SWAP3 SWAP2 POP POP JUMP JUMPDEST PUSH1 0x0 DUP1 PUSH1 0x40 DUP4 DUP6 SUB SLT ISZERO PUSH2 0x615 JUMPI PUSH2 0x614 PUSH2 0x58B JUMP JUMPDEST JUMPDEST PUSH1 0x0 PUSH2 0x623 DUP6 DUP3 DUP7 ADD PUSH2 0x5B1 JUMP JUMPDEST SWAP3 POP POP PUSH1 0x20 PUSH2 0x634 DUP6 DUP3 DUP7 ADD PUSH2 0x5E9 JUMP JUMPDEST SWAP2 POP POP SWAP3 POP SWAP3 SWAP1 POP JUMP JUMPDEST PUSH2 0x647 DUP2 PUSH2 0x590 JUMP JUMPDEST DUP3 MSTORE POP POP JUMP JUMPDEST PUSH1 0x0 DUP2 MLOAD SWAP1 POP SWAP2 SWAP1 POP JUMP JUMPDEST PUSH1 0x0 DUP3 DUP3 MSTORE PUSH1 0x20 DUP3 ADD SWAP1 POP SWAP3 SWAP2 POP POP JUMP JUMPDEST PUSH1 0x0 JUMPDEST DUP4 DUP2 LT ISZERO PUSH2 0x687 JUMPI DUP1 DUP3 ADD MLOAD DUP2 DUP5 ADD MSTORE PUSH1 0x20 DUP2 ADD SWAP1 POP PUSH2 0x66C JUMP JUMPDEST PUSH1 0x0 DUP5 DUP5 ADD MSTORE POP POP POP POP JUMP JUMPDEST PUSH1 0x0 PUSH1 0x1F NOT PUSH1 0x1F DUP4 ADD AND SWAP1 POP SWAP2 SWAP1 POP JUMP JUMPDEST PUSH1 0x0 PUSH2 0x6AF DUP3 PUSH2 0x64D JUMP JUMPDEST PUSH2 0x6B9 DUP2 DUP6 PUSH2 0x658 JUMP JUMPDEST SWAP4 POP PUSH2 0x6C9 DUP2 DUP6 PUSH1 0x20 DUP7 ADD PUSH2 0x669 JUMP JUMPDEST PUSH2 0x6D2 DUP2 PUSH2 0x693 JUMP JUMPDEST DUP5 ADD SWAP2 POP POP SWAP3 SWAP2 POP POP JUMP JUMPDEST PUSH1 0x0 PUSH1 0x40 DUP3 ADD SWAP1 POP PUSH2 0x6F2 PUSH1 0x0 DUP4 ADD DUP6 PUSH2 0x63E JUMP JUMPDEST DUP2 DUP2 SUB PUSH1 0x20 DUP4 ADD MSTORE PUSH2 0x704 DUP2 DUP5 PUSH2 0x6A4 JUMP JUMPDEST SWAP1 POP SWAP4 SWAP3 POP POP POP JUMP JUMPDEST PUSH1 0x0 PUSH1 0x20 DUP3 DUP5 SUB SLT ISZERO PUSH2 0x723 JUMPI PUSH2 0x722 PUSH2 0x58B JUMP JUMPDEST JUMPDEST PUSH1 0x0 PUSH2 0x731 DUP5 DUP3 DUP6 ADD PUSH2 0x5B1 JUMP JUMPDEST SWAP2 POP POP SWAP3 SWAP2 POP POP JUMP JUMPDEST PUSH1 0x0 PUSH1 0x20 DUP3 ADD SWAP1 POP PUSH2 0x74F PUSH1 0x0 DUP4 ADD DUP5 PUSH2 0x63E JUMP JUMPDEST SWAP3 SWAP2 POP POP JUMP INVALID LOG2 PUSH5 0x6970667358 0x22 SLT KECCAK256 0xD4 0xE9 0xBA SWAP1 CALLER 0xFB 0xB2 0x2C SGT 0x2F CREATE2 0xA7 DUP9 SLT TIMESTAMP SLOAD PUSH15 0x61CD936D3243C85E729A0ACD2112BD PUSH5 0x736F6C6343 STOP ADDMOD SLT STOP CALLER "
				},
				"gasEstimates": {
					"creation": {
						"codeDepositCost": "386200",
						"executionCost": "424",
						"totalCost": "386624"
					},
					"external": {
						"check_1(uint256)": "infinite",
						"check_2(uint256,bool)": "infinite",
						"check_3(uint256,bool)": "infinite",
						"ternary_check_1(uint256)": "infinite",
						"ternary_check_2(uint256,bool)": "infinite",
						"ternary_check_3(uint256,bool)": "infinite"
					}
				},
				"methodIdentifiers": {
					"check_1(uint256)": "a4228d68",
					"check_2(uint256,bool)": "b0349a49",
					"check_3(uint256,bool)": "7864d4f2",
					"ternary_check_1(uint256)": "ad275638",
					"ternary_check_2(uint256,bool)": "f539aca3",
					"ternary_check_3(uint256,bool)": "f54d9580"
				}
			},
			"storageLayout": {
				"storage": [],
				"types": null
			},
			"userdoc": {
				"kind": "user",
				"methods": {},
				"version": 1
			}
		}
	}
}