{
	"4_Day/6_nested_for_loops.sol": {
		"MaxUintCalculator": {
			"abi": [
				{
					"inputs": [
						{
							"internalType": "uint256",
							"name": "digits",
							"type": "uint256"
						}
					],
					"name": "maxUint",
					"outputs": [
						{
							"internalType": "uint256",
							"name": "",
							"type": "uint256"
						}
					],
					"stateMutability": "pure",
					"type": "function"
				}
			],
			"devdoc": {
				"kind": "dev",
				"methods": {},
				"version": 1
			},
			"evm": {
				"assembly": "    /* \"4_Day/6_nested_for_loops.sol\":58:416  contract MaxUintCalculator {// digit = 11... */\n  mstore(0x40, 0x80)\n  callvalue\n  dup1\n  iszero\n  tag_1\n  jumpi\n  0x00\n  dup1\n  revert\ntag_1:\n  pop\n  dataSize(sub_0)\n  dup1\n  dataOffset(sub_0)\n  0x00\n  codecopy\n  0x00\n  return\nstop\n\nsub_0: assembly {\n        /* \"4_Day/6_nested_for_loops.sol\":58:416  contract MaxUintCalculator {// digit = 11... */\n      mstore(0x40, 0x80)\n      callvalue\n      dup1\n      iszero\n      tag_1\n      jumpi\n      0x00\n      dup1\n      revert\n    tag_1:\n      pop\n      jumpi(tag_2, lt(calldatasize, 0x04))\n      shr(0xe0, calldataload(0x00))\n      dup1\n      0x95952c7a\n      eq\n      tag_3\n      jumpi\n    tag_2:\n      0x00\n      dup1\n      revert\n        /* \"4_Day/6_nested_for_loops.sol\":107:414  function maxUint(uint256 digits) public pure returns (uint256) {... */\n    tag_3:\n      tag_4\n      0x04\n      dup1\n      calldatasize\n      sub\n      dup2\n      add\n      swap1\n      tag_5\n      swap2\n      swap1\n      tag_6\n      jump\t// in\n    tag_5:\n      tag_7\n      jump\t// in\n    tag_4:\n      mload(0x40)\n      tag_8\n      swap2\n      swap1\n      tag_9\n      jump\t// in\n    tag_8:\n      mload(0x40)\n      dup1\n      swap2\n      sub\n      swap1\n      return\n    tag_7:\n        /* \"4_Day/6_nested_for_loops.sol\":161:168  uint256 */\n      0x00\n        /* \"4_Day/6_nested_for_loops.sol\":179:187  uint max */\n      dup1\n        /* \"4_Day/6_nested_for_loops.sol\":201:210  uint256 i */\n      0x00\n        /* \"4_Day/6_nested_for_loops.sol\":197:388  for(uint256 i = 0; i < digits; i++) {... */\n    tag_11:\n        /* \"4_Day/6_nested_for_loops.sol\":220:226  digits */\n      dup4\n        /* \"4_Day/6_nested_for_loops.sol\":216:217  i */\n      dup2\n        /* \"4_Day/6_nested_for_loops.sol\":216:226  i < digits */\n      lt\n        /* \"4_Day/6_nested_for_loops.sol\":197:388  for(uint256 i = 0; i < digits; i++) {... */\n      iszero\n      tag_12\n      jumpi\n        /* \"4_Day/6_nested_for_loops.sol\":247:260  uint256 value */\n      0x00\n        /* \"4_Day/6_nested_for_loops.sol\":263:264  1 */\n      0x01\n        /* \"4_Day/6_nested_for_loops.sol\":247:264  uint256 value = 1 */\n      swap1\n      pop\n        /* \"4_Day/6_nested_for_loops.sol\":282:291  uint256 j */\n      0x00\n        /* \"4_Day/6_nested_for_loops.sol\":278:352  for(uint256 j = 0; j < i; j++) {... */\n    tag_14:\n        /* \"4_Day/6_nested_for_loops.sol\":301:302  i */\n      dup3\n        /* \"4_Day/6_nested_for_loops.sol\":297:298  j */\n      dup2\n        /* \"4_Day/6_nested_for_loops.sol\":297:302  j < i */\n      lt\n        /* \"4_Day/6_nested_for_loops.sol\":278:352  for(uint256 j = 0; j < i; j++) {... */\n      iszero\n      tag_15\n      jumpi\n        /* \"4_Day/6_nested_for_loops.sol\":336:337  2 */\n      0x02\n        /* \"4_Day/6_nested_for_loops.sol\":327:337  value *= 2 */\n      dup3\n      tag_17\n      swap2\n      swap1\n      tag_18\n      jump\t// in\n    tag_17:\n      swap2\n      pop\n        /* \"4_Day/6_nested_for_loops.sol\":304:307  j++ */\n      dup1\n      dup1\n      tag_19\n      swap1\n      tag_20\n      jump\t// in\n    tag_19:\n      swap2\n      pop\n      pop\n        /* \"4_Day/6_nested_for_loops.sol\":278:352  for(uint256 j = 0; j < i; j++) {... */\n      jump(tag_14)\n    tag_15:\n      pop\n        /* \"4_Day/6_nested_for_loops.sol\":372:377  value */\n      dup1\n        /* \"4_Day/6_nested_for_loops.sol\":365:377  max += value */\n      dup4\n      tag_21\n      swap2\n      swap1\n      tag_22\n      jump\t// in\n    tag_21:\n      swap3\n      pop\n        /* \"4_Day/6_nested_for_loops.sol\":233:388  {... */\n      pop\n        /* \"4_Day/6_nested_for_loops.sol\":228:231  i++ */\n      dup1\n      dup1\n      tag_23\n      swap1\n      tag_20\n      jump\t// in\n    tag_23:\n      swap2\n      pop\n      pop\n        /* \"4_Day/6_nested_for_loops.sol\":197:388  for(uint256 i = 0; i < digits; i++) {... */\n      jump(tag_11)\n    tag_12:\n      pop\n        /* \"4_Day/6_nested_for_loops.sol\":404:407  max */\n      dup1\n        /* \"4_Day/6_nested_for_loops.sol\":397:407  return max */\n      swap2\n      pop\n      pop\n        /* \"4_Day/6_nested_for_loops.sol\":107:414  function maxUint(uint256 digits) public pure returns (uint256) {... */\n      swap2\n      swap1\n      pop\n      jump\t// out\n        /* \"#utility.yul\":88:205   */\n    tag_25:\n        /* \"#utility.yul\":197:198   */\n      0x00\n        /* \"#utility.yul\":194:195   */\n      dup1\n        /* \"#utility.yul\":187:199   */\n      revert\n        /* \"#utility.yul\":334:411   */\n    tag_27:\n        /* \"#utility.yul\":371:378   */\n      0x00\n        /* \"#utility.yul\":400:405   */\n      dup2\n        /* \"#utility.yul\":389:405   */\n      swap1\n      pop\n        /* \"#utility.yul\":334:411   */\n      swap2\n      swap1\n      pop\n      jump\t// out\n        /* \"#utility.yul\":417:539   */\n    tag_28:\n        /* \"#utility.yul\":490:514   */\n      tag_38\n        /* \"#utility.yul\":508:513   */\n      dup2\n        /* \"#utility.yul\":490:514   */\n      tag_27\n      jump\t// in\n    tag_38:\n        /* \"#utility.yul\":483:488   */\n      dup2\n        /* \"#utility.yul\":480:515   */\n      eq\n        /* \"#utility.yul\":470:533   */\n      tag_39\n      jumpi\n        /* \"#utility.yul\":529:530   */\n      0x00\n        /* \"#utility.yul\":526:527   */\n      dup1\n        /* \"#utility.yul\":519:531   */\n      revert\n        /* \"#utility.yul\":470:533   */\n    tag_39:\n        /* \"#utility.yul\":417:539   */\n      pop\n      jump\t// out\n        /* \"#utility.yul\":545:684   */\n    tag_29:\n        /* \"#utility.yul\":591:596   */\n      0x00\n        /* \"#utility.yul\":629:635   */\n      dup2\n        /* \"#utility.yul\":616:636   */\n      calldataload\n        /* \"#utility.yul\":607:636   */\n      swap1\n      pop\n        /* \"#utility.yul\":645:678   */\n      tag_41\n        /* \"#utility.yul\":672:677   */\n      dup2\n        /* \"#utility.yul\":645:678   */\n      tag_28\n      jump\t// in\n    tag_41:\n        /* \"#utility.yul\":545:684   */\n      swap3\n      swap2\n      pop\n      pop\n      jump\t// out\n        /* \"#utility.yul\":690:1019   */\n    tag_6:\n        /* \"#utility.yul\":749:755   */\n      0x00\n        /* \"#utility.yul\":798:800   */\n      0x20\n        /* \"#utility.yul\":786:795   */\n      dup3\n        /* \"#utility.yul\":777:784   */\n      dup5\n        /* \"#utility.yul\":773:796   */\n      sub\n        /* \"#utility.yul\":769:801   */\n      slt\n        /* \"#utility.yul\":766:885   */\n      iszero\n      tag_43\n      jumpi\n        /* \"#utility.yul\":804:883   */\n      tag_44\n      tag_25\n      jump\t// in\n    tag_44:\n        /* \"#utility.yul\":766:885   */\n    tag_43:\n        /* \"#utility.yul\":924:925   */\n      0x00\n        /* \"#utility.yul\":949:1002   */\n      tag_45\n        /* \"#utility.yul\":994:1001   */\n      dup5\n        /* \"#utility.yul\":985:991   */\n      dup3\n        /* \"#utility.yul\":974:983   */\n      dup6\n        /* \"#utility.yul\":970:992   */\n      add\n        /* \"#utility.yul\":949:1002   */\n      tag_29\n      jump\t// in\n    tag_45:\n        /* \"#utility.yul\":939:1002   */\n      swap2\n      pop\n        /* \"#utility.yul\":895:1012   */\n      pop\n        /* \"#utility.yul\":690:1019   */\n      swap3\n      swap2\n      pop\n      pop\n      jump\t// out\n        /* \"#utility.yul\":1025:1143   */\n    tag_30:\n        /* \"#utility.yul\":1112:1136   */\n      tag_47\n        /* \"#utility.yul\":1130:1135   */\n      dup2\n        /* \"#utility.yul\":1112:1136   */\n      tag_27\n      jump\t// in\n    tag_47:\n        /* \"#utility.yul\":1107:1110   */\n      dup3\n        /* \"#utility.yul\":1100:1137   */\n      mstore\n        /* \"#utility.yul\":1025:1143   */\n      pop\n      pop\n      jump\t// out\n        /* \"#utility.yul\":1149:1371   */\n    tag_9:\n        /* \"#utility.yul\":1242:1246   */\n      0x00\n        /* \"#utility.yul\":1280:1282   */\n      0x20\n        /* \"#utility.yul\":1269:1278   */\n      dup3\n        /* \"#utility.yul\":1265:1283   */\n      add\n        /* \"#utility.yul\":1257:1283   */\n      swap1\n      pop\n        /* \"#utility.yul\":1293:1364   */\n      tag_49\n        /* \"#utility.yul\":1361:1362   */\n      0x00\n        /* \"#utility.yul\":1350:1359   */\n      dup4\n        /* \"#utility.yul\":1346:1363   */\n      add\n        /* \"#utility.yul\":1337:1343   */\n      dup5\n        /* \"#utility.yul\":1293:1364   */\n      tag_30\n      jump\t// in\n    tag_49:\n        /* \"#utility.yul\":1149:1371   */\n      swap3\n      swap2\n      pop\n      pop\n      jump\t// out\n        /* \"#utility.yul\":1377:1557   */\n    tag_31:\n        /* \"#utility.yul\":1425:1502   */\n      0x4e487b7100000000000000000000000000000000000000000000000000000000\n        /* \"#utility.yul\":1422:1423   */\n      0x00\n        /* \"#utility.yul\":1415:1503   */\n      mstore\n        /* \"#utility.yul\":1522:1526   */\n      0x11\n        /* \"#utility.yul\":1519:1520   */\n      0x04\n        /* \"#utility.yul\":1512:1527   */\n      mstore\n        /* \"#utility.yul\":1546:1550   */\n      0x24\n        /* \"#utility.yul\":1543:1544   */\n      0x00\n        /* \"#utility.yul\":1536:1551   */\n      revert\n        /* \"#utility.yul\":1563:1973   */\n    tag_18:\n        /* \"#utility.yul\":1603:1610   */\n      0x00\n        /* \"#utility.yul\":1626:1646   */\n      tag_52\n        /* \"#utility.yul\":1644:1645   */\n      dup3\n        /* \"#utility.yul\":1626:1646   */\n      tag_27\n      jump\t// in\n    tag_52:\n        /* \"#utility.yul\":1621:1646   */\n      swap2\n      pop\n        /* \"#utility.yul\":1660:1680   */\n      tag_53\n        /* \"#utility.yul\":1678:1679   */\n      dup4\n        /* \"#utility.yul\":1660:1680   */\n      tag_27\n      jump\t// in\n    tag_53:\n        /* \"#utility.yul\":1655:1680   */\n      swap3\n      pop\n        /* \"#utility.yul\":1715:1716   */\n      dup3\n        /* \"#utility.yul\":1712:1713   */\n      dup3\n        /* \"#utility.yul\":1708:1717   */\n      mul\n        /* \"#utility.yul\":1737:1767   */\n      tag_54\n        /* \"#utility.yul\":1755:1766   */\n      dup2\n        /* \"#utility.yul\":1737:1767   */\n      tag_27\n      jump\t// in\n    tag_54:\n        /* \"#utility.yul\":1726:1767   */\n      swap2\n      pop\n        /* \"#utility.yul\":1916:1917   */\n      dup3\n        /* \"#utility.yul\":1907:1914   */\n      dup3\n        /* \"#utility.yul\":1903:1918   */\n      div\n        /* \"#utility.yul\":1900:1901   */\n      dup5\n        /* \"#utility.yul\":1897:1919   */\n      eq\n        /* \"#utility.yul\":1877:1878   */\n      dup4\n        /* \"#utility.yul\":1870:1879   */\n      iszero\n        /* \"#utility.yul\":1850:1933   */\n      or\n        /* \"#utility.yul\":1827:1966   */\n      tag_55\n      jumpi\n        /* \"#utility.yul\":1946:1964   */\n      tag_56\n      tag_31\n      jump\t// in\n    tag_56:\n        /* \"#utility.yul\":1827:1966   */\n    tag_55:\n        /* \"#utility.yul\":1611:1973   */\n      pop\n        /* \"#utility.yul\":1563:1973   */\n      swap3\n      swap2\n      pop\n      pop\n      jump\t// out\n        /* \"#utility.yul\":1979:2212   */\n    tag_20:\n        /* \"#utility.yul\":2018:2021   */\n      0x00\n        /* \"#utility.yul\":2041:2065   */\n      tag_58\n        /* \"#utility.yul\":2059:2064   */\n      dup3\n        /* \"#utility.yul\":2041:2065   */\n      tag_27\n      jump\t// in\n    tag_58:\n        /* \"#utility.yul\":2032:2065   */\n      swap2\n      pop\n        /* \"#utility.yul\":2087:2153   */\n      0xffffffffffffffffffffffffffffffffffffffffffffffffffffffffffffffff\n        /* \"#utility.yul\":2080:2085   */\n      dup3\n        /* \"#utility.yul\":2077:2154   */\n      sub\n        /* \"#utility.yul\":2074:2177   */\n      tag_59\n      jumpi\n        /* \"#utility.yul\":2157:2175   */\n      tag_60\n      tag_31\n      jump\t// in\n    tag_60:\n        /* \"#utility.yul\":2074:2177   */\n    tag_59:\n        /* \"#utility.yul\":2204:2205   */\n      0x01\n        /* \"#utility.yul\":2197:2202   */\n      dup3\n        /* \"#utility.yul\":2193:2206   */\n      add\n        /* \"#utility.yul\":2186:2206   */\n      swap1\n      pop\n        /* \"#utility.yul\":1979:2212   */\n      swap2\n      swap1\n      pop\n      jump\t// out\n        /* \"#utility.yul\":2218:2409   */\n    tag_22:\n        /* \"#utility.yul\":2258:2261   */\n      0x00\n        /* \"#utility.yul\":2277:2297   */\n      tag_62\n        /* \"#utility.yul\":2295:2296   */\n      dup3\n        /* \"#utility.yul\":2277:2297   */\n      tag_27\n      jump\t// in\n    tag_62:\n        /* \"#utility.yul\":2272:2297   */\n      swap2\n      pop\n        /* \"#utility.yul\":2311:2331   */\n      tag_63\n        /* \"#utility.yul\":2329:2330   */\n      dup4\n        /* \"#utility.yul\":2311:2331   */\n      tag_27\n      jump\t// in\n    tag_63:\n        /* \"#utility.yul\":2306:2331   */\n      swap3\n      pop\n        /* \"#utility.yul\":2354:2355   */\n      dup3\n        /* \"#utility.yul\":2351:2352   */\n      dup3\n        /* \"#utility.yul\":2347:2356   */\n      add\n        /* \"#utility.yul\":2340:2356   */\n      swap1\n      pop\n        /* \"#utility.yul\":2375:2378   */\n      dup1\n        /* \"#utility.yul\":2372:2373   */\n      dup3\n        /* \"#utility.yul\":2369:2379   */\n      gt\n        /* \"#utility.yul\":2366:2402   */\n      iszero\n      tag_64\n      jumpi\n        /* \"#utility.yul\":2382:2400   */\n      tag_65\n      tag_31\n      jump\t// in\n    tag_65:\n        /* \"#utility.yul\":2366:2402   */\n    tag_64:\n        /* \"#utility.yul\":2218:2409   */\n      swap3\n      swap2\n      pop\n      pop\n      jump\t// out\n\n    auxdata: 0xa264697066735822122085fb4d8b1ebce51c5750b3db3b29f8365b51ce38929d85fd2e40c9abccca3e5d64736f6c63430008110033\n}\n",
				"bytecode": {
					"linkReferences": {},
					"object": "608060405234801561001057600080fd5b50610283806100206000396000f3fe608060405234801561001057600080fd5b506004361061002b5760003560e01c806395952c7a14610030575b600080fd5b61004a60048036038101906100459190610109565b610060565b6040516100579190610145565b60405180910390f35b60008060005b838110156100c45760006001905060005b828110156100a15760028261008c919061018f565b91508080610099906101d1565b915050610077565b5080836100ae9190610219565b92505080806100bc906101d1565b915050610066565b5080915050919050565b600080fd5b6000819050919050565b6100e6816100d3565b81146100f157600080fd5b50565b600081359050610103816100dd565b92915050565b60006020828403121561011f5761011e6100ce565b5b600061012d848285016100f4565b91505092915050565b61013f816100d3565b82525050565b600060208201905061015a6000830184610136565b92915050565b7f4e487b7100000000000000000000000000000000000000000000000000000000600052601160045260246000fd5b600061019a826100d3565b91506101a5836100d3565b92508282026101b3816100d3565b915082820484148315176101ca576101c9610160565b5b5092915050565b60006101dc826100d3565b91507fffffffffffffffffffffffffffffffffffffffffffffffffffffffffffffffff820361020e5761020d610160565b5b600182019050919050565b6000610224826100d3565b915061022f836100d3565b925082820190508082111561024757610246610160565b5b9291505056fea264697066735822122085fb4d8b1ebce51c5750b3db3b29f8365b51ce38929d85fd2e40c9abccca3e5d64736f6c63430008110033",
					"opcodes": "PUSH1 0x80 PUSH1 0x40 MSTORE CALLVALUE DUP1 ISZERO PUSH2 0x10 JUMPI PUSH1 0x0 DUP1 REVERT JUMPDEST POP PUSH2 0x283 DUP1 PUSH2 0x20 PUSH1 0x0 CODECOPY PUSH1 0x0 RETURN INVALID PUSH1 0x80 PUSH1 0x40 MSTORE CALLVALUE DUP1 ISZERO PUSH2 0x10 JUMPI PUSH1 0x0 DUP1 REVERT JUMPDEST POP PUSH1 0x4 CALLDATASIZE LT PUSH2 0x2B JUMPI PUSH1 0x0 CALLDATALOAD PUSH1 0xE0 SHR DUP1 PUSH4 0x95952C7A EQ PUSH2 0x30 JUMPI JUMPDEST PUSH1 0x0 DUP1 REVERT JUMPDEST PUSH2 0x4A PUSH1 0x4 DUP1 CALLDATASIZE SUB DUP2 ADD SWAP1 PUSH2 0x45 SWAP2 SWAP1 PUSH2 0x109 JUMP JUMPDEST PUSH2 0x60 JUMP JUMPDEST PUSH1 0x40 MLOAD PUSH2 0x57 SWAP2 SWAP1 PUSH2 0x145 JUMP JUMPDEST PUSH1 0x40 MLOAD DUP1 SWAP2 SUB SWAP1 RETURN JUMPDEST PUSH1 0x0 DUP1 PUSH1 0x0 JUMPDEST DUP4 DUP2 LT ISZERO PUSH2 0xC4 JUMPI PUSH1 0x0 PUSH1 0x1 SWAP1 POP PUSH1 0x0 JUMPDEST DUP3 DUP2 LT ISZERO PUSH2 0xA1 JUMPI PUSH1 0x2 DUP3 PUSH2 0x8C SWAP2 SWAP1 PUSH2 0x18F JUMP JUMPDEST SWAP2 POP DUP1 DUP1 PUSH2 0x99 SWAP1 PUSH2 0x1D1 JUMP JUMPDEST SWAP2 POP POP PUSH2 0x77 JUMP JUMPDEST POP DUP1 DUP4 PUSH2 0xAE SWAP2 SWAP1 PUSH2 0x219 JUMP JUMPDEST SWAP3 POP POP DUP1 DUP1 PUSH2 0xBC SWAP1 PUSH2 0x1D1 JUMP JUMPDEST SWAP2 POP POP PUSH2 0x66 JUMP JUMPDEST POP DUP1 SWAP2 POP POP SWAP2 SWAP1 POP JUMP JUMPDEST PUSH1 0x0 DUP1 REVERT JUMPDEST PUSH1 0x0 DUP2 SWAP1 POP SWAP2 SWAP1 POP JUMP JUMPDEST PUSH2 0xE6 DUP2 PUSH2 0xD3 JUMP JUMPDEST DUP2 EQ PUSH2 0xF1 JUMPI PUSH1 0x0 DUP1 REVERT JUMPDEST POP JUMP JUMPDEST PUSH1 0x0 DUP2 CALLDATALOAD SWAP1 POP PUSH2 0x103 DUP2 PUSH2 0xDD JUMP JUMPDEST SWAP3 SWAP2 POP POP JUMP JUMPDEST PUSH1 0x0 PUSH1 0x20 DUP3 DUP5 SUB SLT ISZERO PUSH2 0x11F JUMPI PUSH2 0x11E PUSH2 0xCE JUMP JUMPDEST JUMPDEST PUSH1 0x0 PUSH2 0x12D DUP5 DUP3 DUP6 ADD PUSH2 0xF4 JUMP JUMPDEST SWAP2 POP POP SWAP3 SWAP2 POP POP JUMP JUMPDEST PUSH2 0x13F DUP2 PUSH2 0xD3 JUMP JUMPDEST DUP3 MSTORE POP POP JUMP JUMPDEST PUSH1 0x0 PUSH1 0x20 DUP3 ADD SWAP1 POP PUSH2 0x15A PUSH1 0x0 DUP4 ADD DUP5 PUSH2 0x136 JUMP JUMPDEST SWAP3 SWAP2 POP POP JUMP JUMPDEST PUSH32 0x4E487B7100000000000000000000000000000000000000000000000000000000 PUSH1 0x0 MSTORE PUSH1 0x11 PUSH1 0x4 MSTORE PUSH1 0x24 PUSH1 0x0 REVERT JUMPDEST PUSH1 0x0 PUSH2 0x19A DUP3 PUSH2 0xD3 JUMP JUMPDEST SWAP2 POP PUSH2 0x1A5 DUP4 PUSH2 0xD3 JUMP JUMPDEST SWAP3 POP DUP3 DUP3 MUL PUSH2 0x1B3 DUP2 PUSH2 0xD3 JUMP JUMPDEST SWAP2 POP DUP3 DUP3 DIV DUP5 EQ DUP4 ISZERO OR PUSH2 0x1CA JUMPI PUSH2 0x1C9 PUSH2 0x160 JUMP JUMPDEST JUMPDEST POP SWAP3 SWAP2 POP POP JUMP JUMPDEST PUSH1 0x0 PUSH2 0x1DC DUP3 PUSH2 0xD3 JUMP JUMPDEST SWAP2 POP PUSH32 0xFFFFFFFFFFFFFFFFFFFFFFFFFFFFFFFFFFFFFFFFFFFFFFFFFFFFFFFFFFFFFFFF DUP3 SUB PUSH2 0x20E JUMPI PUSH2 0x20D PUSH2 0x160 JUMP JUMPDEST JUMPDEST PUSH1 0x1 DUP3 ADD SWAP1 POP SWAP2 SWAP1 POP JUMP JUMPDEST PUSH1 0x0 PUSH2 0x224 DUP3 PUSH2 0xD3 JUMP JUMPDEST SWAP2 POP PUSH2 0x22F DUP4 PUSH2 0xD3 JUMP JUMPDEST SWAP3 POP DUP3 DUP3 ADD SWAP1 POP DUP1 DUP3 GT ISZERO PUSH2 0x247 JUMPI PUSH2 0x246 PUSH2 0x160 JUMP JUMPDEST JUMPDEST SWAP3 SWAP2 POP POP JUMP INVALID LOG2 PUSH5 0x6970667358 0x22 SLT KECCAK256 DUP6 0xFB 0x4D DUP12 0x1E 0xBC 0xE5 SHR JUMPI POP 0xB3 0xDB EXTCODESIZE 0x29 0xF8 CALLDATASIZE JUMPDEST MLOAD 0xCE CODESIZE SWAP3 SWAP14 DUP6 REVERT 0x2E BLOCKHASH 0xC9 0xAB 0xCC 0xCA RETURNDATACOPY 0x5D PUSH5 0x736F6C6343 STOP ADDMOD GT STOP CALLER "
				},
				"gasEstimates": {
					"creation": {
						"codeDepositCost": "128600",
						"executionCost": "177",
						"totalCost": "128777"
					},
					"external": {
						"maxUint(uint256)": "infinite"
					}
				},
				"methodIdentifiers": {
					"maxUint(uint256)": "95952c7a"
				}
			},
			"storageLayout": {
				"storage": [],
				"types": null
			},
			"userdoc": {
				"kind": "user",
				"methods": {},
				"version": 1
			}
		}
	}
}