{
	"4_Day/2_if-else-answers.sol": {
		"IfElse": {
			"abi": [
				{
					"inputs": [
						{
							"internalType": "uint256",
							"name": "age",
							"type": "uint256"
						}
					],
					"name": "check_1",
					"outputs": [
						{
							"internalType": "uint256",
							"name": "",
							"type": "uint256"
						}
					],
					"stateMutability": "pure",
					"type": "function"
				},
				{
					"inputs": [
						{
							"internalType": "uint256",
							"name": "age",
							"type": "uint256"
						},
						{
							"internalType": "bool",
							"name": "isGirl",
							"type": "bool"
						}
					],
					"name": "check_2",
					"outputs": [
						{
							"internalType": "uint256",
							"name": "",
							"type": "uint256"
						},
						{
							"internalType": "string",
							"name": "",
							"type": "string"
						}
					],
					"stateMutability": "pure",
					"type": "function"
				},
				{
					"inputs": [
						{
							"internalType": "uint256",
							"name": "age",
							"type": "uint256"
						},
						{
							"internalType": "bool",
							"name": "isGirl",
							"type": "bool"
						}
					],
					"name": "check_3",
					"outputs": [
						{
							"internalType": "uint256",
							"name": "",
							"type": "uint256"
						},
						{
							"internalType": "string",
							"name": "",
							"type": "string"
						}
					],
					"stateMutability": "pure",
					"type": "function"
				},
				{
					"inputs": [
						{
							"internalType": "uint256",
							"name": "age",
							"type": "uint256"
						}
					],
					"name": "ternary_check_1",
					"outputs": [
						{
							"internalType": "uint256",
							"name": "",
							"type": "uint256"
						}
					],
					"stateMutability": "pure",
					"type": "function"
				},
				{
					"inputs": [
						{
							"internalType": "uint256",
							"name": "age",
							"type": "uint256"
						}
					],
					"name": "ternary_check_1_2",
					"outputs": [
						{
							"internalType": "uint256",
							"name": "",
							"type": "uint256"
						}
					],
					"stateMutability": "pure",
					"type": "function"
				},
				{
					"inputs": [
						{
							"internalType": "uint256",
							"name": "age",
							"type": "uint256"
						},
						{
							"internalType": "bool",
							"name": "isGirl",
							"type": "bool"
						}
					],
					"name": "ternary_check_2",
					"outputs": [
						{
							"internalType": "uint256",
							"name": "",
							"type": "uint256"
						},
						{
							"internalType": "string",
							"name": "",
							"type": "string"
						}
					],
					"stateMutability": "pure",
					"type": "function"
				},
				{
					"inputs": [
						{
							"internalType": "uint256",
							"name": "age",
							"type": "uint256"
						},
						{
							"internalType": "bool",
							"name": "isGirl",
							"type": "bool"
						}
					],
					"name": "ternary_check_3",
					"outputs": [
						{
							"internalType": "uint256",
							"name": "",
							"type": "uint256"
						},
						{
							"internalType": "string",
							"name": "",
							"type": "string"
						}
					],
					"stateMutability": "pure",
					"type": "function"
				}
			],
			"devdoc": {
				"kind": "dev",
				"methods": {},
				"version": 1
			},
			"evm": {
				"assembly": "    /* \"4_Day/2_if-else-answers.sol\":57:1961  contract IfElse {... */\n  mstore(0x40, 0x80)\n  callvalue\n  dup1\n  iszero\n  tag_1\n  jumpi\n  0x00\n  dup1\n  revert\ntag_1:\n  pop\n  dataSize(sub_0)\n  dup1\n  dataOffset(sub_0)\n  0x00\n  codecopy\n  0x00\n  return\nstop\n\nsub_0: assembly {\n        /* \"4_Day/2_if-else-answers.sol\":57:1961  contract IfElse {... */\n      mstore(0x40, 0x80)\n      callvalue\n      dup1\n      iszero\n      tag_1\n      jumpi\n      0x00\n      dup1\n      revert\n    tag_1:\n      pop\n      jumpi(tag_2, lt(calldatasize, 0x04))\n      shr(0xe0, calldataload(0x00))\n      dup1\n      0xb0349a49\n      gt\n      tag_10\n      jumpi\n      dup1\n      0xb0349a49\n      eq\n      tag_6\n      jumpi\n      dup1\n      0xc2678c08\n      eq\n      tag_7\n      jumpi\n      dup1\n      0xf539aca3\n      eq\n      tag_8\n      jumpi\n      dup1\n      0xf54d9580\n      eq\n      tag_9\n      jumpi\n      jump(tag_2)\n    tag_10:\n      dup1\n      0x7864d4f2\n      eq\n      tag_3\n      jumpi\n      dup1\n      0xa4228d68\n      eq\n      tag_4\n      jumpi\n      dup1\n      0xad275638\n      eq\n      tag_5\n      jumpi\n    tag_2:\n      0x00\n      dup1\n      revert\n        /* \"4_Day/2_if-else-answers.sol\":1210:1580  function check_3(uint age, bool isGirl) public pure returns(uint, string memory){... */\n    tag_3:\n      tag_11\n      0x04\n      dup1\n      calldatasize\n      sub\n      dup2\n      add\n      swap1\n      tag_12\n      swap2\n      swap1\n      tag_13\n      jump\t// in\n    tag_12:\n      tag_14\n      jump\t// in\n    tag_11:\n      mload(0x40)\n      tag_15\n      swap3\n      swap2\n      swap1\n      tag_16\n      jump\t// in\n    tag_15:\n      mload(0x40)\n      dup1\n      swap2\n      sub\n      swap1\n      return\n        /* \"4_Day/2_if-else-answers.sol\":121:251  function check_1(uint age) public pure returns(uint){... */\n    tag_4:\n      tag_17\n      0x04\n      dup1\n      calldatasize\n      sub\n      dup2\n      add\n      swap1\n      tag_18\n      swap2\n      swap1\n      tag_19\n      jump\t// in\n    tag_18:\n      tag_20\n      jump\t// in\n    tag_17:\n      mload(0x40)\n      tag_21\n      swap2\n      swap1\n      tag_22\n      jump\t// in\n    tag_21:\n      mload(0x40)\n      dup1\n      swap2\n      sub\n      swap1\n      return\n        /* \"4_Day/2_if-else-answers.sol\":253:342  function ternary_check_1(uint age) public pure returns(uint){... */\n    tag_5:\n      tag_23\n      0x04\n      dup1\n      calldatasize\n      sub\n      dup2\n      add\n      swap1\n      tag_24\n      swap2\n      swap1\n      tag_19\n      jump\t// in\n    tag_24:\n      tag_25\n      jump\t// in\n    tag_23:\n      mload(0x40)\n      tag_26\n      swap2\n      swap1\n      tag_22\n      jump\t// in\n    tag_26:\n      mload(0x40)\n      dup1\n      swap2\n      sub\n      swap1\n      return\n        /* \"4_Day/2_if-else-answers.sol\":554:864  function check_2(uint age, bool isGirl) public pure returns(uint, string memory){... */\n    tag_6:\n      tag_27\n      0x04\n      dup1\n      calldatasize\n      sub\n      dup2\n      add\n      swap1\n      tag_28\n      swap2\n      swap1\n      tag_13\n      jump\t// in\n    tag_28:\n      tag_29\n      jump\t// in\n    tag_27:\n      mload(0x40)\n      tag_30\n      swap3\n      swap2\n      swap1\n      tag_16\n      jump\t// in\n    tag_30:\n      mload(0x40)\n      dup1\n      swap2\n      sub\n      swap1\n      return\n        /* \"4_Day/2_if-else-answers.sol\":344:428  function ternary_check_1_2(uint age) public pure returns(uint){... */\n    tag_7:\n      tag_31\n      0x04\n      dup1\n      calldatasize\n      sub\n      dup2\n      add\n      swap1\n      tag_32\n      swap2\n      swap1\n      tag_19\n      jump\t// in\n    tag_32:\n      tag_33\n      jump\t// in\n    tag_31:\n      mload(0x40)\n      tag_34\n      swap2\n      swap1\n      tag_22\n      jump\t// in\n    tag_34:\n      mload(0x40)\n      dup1\n      swap2\n      sub\n      swap1\n      return\n        /* \"4_Day/2_if-else-answers.sol\":867:1048  function ternary_check_2(uint age, bool isGirl) public pure returns(uint, string memory){... */\n    tag_8:\n      tag_35\n      0x04\n      dup1\n      calldatasize\n      sub\n      dup2\n      add\n      swap1\n      tag_36\n      swap2\n      swap1\n      tag_13\n      jump\t// in\n    tag_36:\n      tag_37\n      jump\t// in\n    tag_35:\n      mload(0x40)\n      tag_38\n      swap3\n      swap2\n      swap1\n      tag_16\n      jump\t// in\n    tag_38:\n      mload(0x40)\n      dup1\n      swap2\n      sub\n      swap1\n      return\n        /* \"4_Day/2_if-else-answers.sol\":1585:1789  function ternary_check_3(uint age, bool isGirl) public pure returns(uint, string memory){... */\n    tag_9:\n      tag_39\n      0x04\n      dup1\n      calldatasize\n      sub\n      dup2\n      add\n      swap1\n      tag_40\n      swap2\n      swap1\n      tag_13\n      jump\t// in\n    tag_40:\n      tag_41\n      jump\t// in\n    tag_39:\n      mload(0x40)\n      tag_42\n      swap3\n      swap2\n      swap1\n      tag_16\n      jump\t// in\n    tag_42:\n      mload(0x40)\n      dup1\n      swap2\n      sub\n      swap1\n      return\n        /* \"4_Day/2_if-else-answers.sol\":1210:1580  function check_3(uint age, bool isGirl) public pure returns(uint, string memory){... */\n    tag_14:\n        /* \"4_Day/2_if-else-answers.sol\":1270:1274  uint */\n      0x00\n        /* \"4_Day/2_if-else-answers.sol\":1276:1289  string memory */\n      0x60\n        /* \"4_Day/2_if-else-answers.sol\":1296:1314  string memory gift */\n      0x00\n        /* \"4_Day/2_if-else-answers.sol\":1296:1326  string memory gift = \"No gift\" */\n      mload(0x40)\n      dup1\n      0x40\n      add\n      0x40\n      mstore\n      dup1\n      0x07\n      dup2\n      mstore\n      0x20\n      add\n      0x4e6f206769667400000000000000000000000000000000000000000000000000\n      dup2\n      mstore\n      pop\n      swap1\n      pop\n        /* \"4_Day/2_if-else-answers.sol\":1342:1344  10 */\n      0x0a\n        /* \"4_Day/2_if-else-answers.sol\":1336:1339  age */\n      dup6\n        /* \"4_Day/2_if-else-answers.sol\":1336:1344  age < 10 */\n      lt\n        /* \"4_Day/2_if-else-answers.sol\":1332:1578  if (age < 10) {... */\n      iszero\n      tag_44\n      jumpi\n        /* \"4_Day/2_if-else-answers.sol\":1359:1365  isGirl */\n      dup4\n        /* \"4_Day/2_if-else-answers.sol\":1356:1449  if(isGirl){... */\n      iszero\n      tag_45\n      jumpi\n        /* \"4_Day/2_if-else-answers.sol\":1376:1396  gift = \"barbie doll\" */\n      mload(0x40)\n      dup1\n      0x40\n      add\n      0x40\n      mstore\n      dup1\n      0x0b\n      dup2\n      mstore\n      0x20\n      add\n      0x62617262696520646f6c6c000000000000000000000000000000000000000000\n      dup2\n      mstore\n      pop\n      swap1\n      pop\n        /* \"4_Day/2_if-else-answers.sol\":1356:1449  if(isGirl){... */\n      jump(tag_46)\n    tag_45:\n        /* \"4_Day/2_if-else-answers.sol\":1421:1438  gift = \"bayblade\" */\n      mload(0x40)\n      dup1\n      0x40\n      add\n      0x40\n      mstore\n      dup1\n      0x08\n      dup2\n      mstore\n      0x20\n      add\n      0x626179626c616465000000000000000000000000000000000000000000000000\n      dup2\n      mstore\n      pop\n      swap1\n      pop\n        /* \"4_Day/2_if-else-answers.sol\":1356:1449  if(isGirl){... */\n    tag_46:\n        /* \"4_Day/2_if-else-answers.sol\":1466:1467  0 */\n      0x00\n        /* \"4_Day/2_if-else-answers.sol\":1468:1472  gift */\n      dup2\n        /* \"4_Day/2_if-else-answers.sol\":1458:1473  return (0,gift) */\n      swap3\n      pop\n      swap3\n      pop\n      pop\n      jump(tag_43)\n        /* \"4_Day/2_if-else-answers.sol\":1332:1578  if (age < 10) {... */\n    tag_44:\n        /* \"4_Day/2_if-else-answers.sol\":1499:1501  70 */\n      0x46\n        /* \"4_Day/2_if-else-answers.sol\":1493:1496  age */\n      dup6\n        /* \"4_Day/2_if-else-answers.sol\":1493:1501  age > 70 */\n      gt\n        /* \"4_Day/2_if-else-answers.sol\":1490:1578  if(age > 70){... */\n      iszero\n      tag_48\n      jumpi\n        /* \"4_Day/2_if-else-answers.sol\":1520:1522  10 */\n      0x0a\n        /* \"4_Day/2_if-else-answers.sol\":1523:1527  gift */\n      dup2\n        /* \"4_Day/2_if-else-answers.sol\":1512:1528  return (10,gift) */\n      swap3\n      pop\n      swap3\n      pop\n      pop\n      jump(tag_43)\n        /* \"4_Day/2_if-else-answers.sol\":1490:1578  if(age > 70){... */\n    tag_48:\n        /* \"4_Day/2_if-else-answers.sol\":1563:1565  20 */\n      0x14\n        /* \"4_Day/2_if-else-answers.sol\":1566:1570  gift */\n      dup2\n        /* \"4_Day/2_if-else-answers.sol\":1555:1571  return (20,gift) */\n      swap3\n      pop\n      swap3\n      pop\n      pop\n        /* \"4_Day/2_if-else-answers.sol\":1210:1580  function check_3(uint age, bool isGirl) public pure returns(uint, string memory){... */\n    tag_43:\n      swap3\n      pop\n      swap3\n      swap1\n      pop\n      jump\t// out\n        /* \"4_Day/2_if-else-answers.sol\":121:251  function check_1(uint age) public pure returns(uint){... */\n    tag_20:\n        /* \"4_Day/2_if-else-answers.sol\":168:172  uint */\n      0x00\n        /* \"4_Day/2_if-else-answers.sol\":189:191  10 */\n      0x0a\n        /* \"4_Day/2_if-else-answers.sol\":183:186  age */\n      dup3\n        /* \"4_Day/2_if-else-answers.sol\":183:191  age < 10 */\n      lt\n        /* \"4_Day/2_if-else-answers.sol\":179:249  if (age < 10) {... */\n      iszero\n      tag_51\n      jumpi\n        /* \"4_Day/2_if-else-answers.sol\":210:211  0 */\n      0x00\n        /* \"4_Day/2_if-else-answers.sol\":203:211  return 0 */\n      swap1\n      pop\n      jump(tag_50)\n        /* \"4_Day/2_if-else-answers.sol\":179:249  if (age < 10) {... */\n    tag_51:\n        /* \"4_Day/2_if-else-answers.sol\":240:242  20 */\n      0x14\n        /* \"4_Day/2_if-else-answers.sol\":233:242  return 20 */\n      swap1\n      pop\n        /* \"4_Day/2_if-else-answers.sol\":121:251  function check_1(uint age) public pure returns(uint){... */\n    tag_50:\n      swap2\n      swap1\n      pop\n      jump\t// out\n        /* \"4_Day/2_if-else-answers.sol\":253:342  function ternary_check_1(uint age) public pure returns(uint){... */\n    tag_25:\n        /* \"4_Day/2_if-else-answers.sol\":308:312  uint */\n      0x00\n        /* \"4_Day/2_if-else-answers.sol\":328:330  10 */\n      0x0a\n        /* \"4_Day/2_if-else-answers.sol\":322:325  age */\n      dup3\n        /* \"4_Day/2_if-else-answers.sol\":322:330  age < 10 */\n      lt\n        /* \"4_Day/2_if-else-answers.sol\":322:337  age < 10 ? 0:20 */\n      tag_54\n      jumpi\n        /* \"4_Day/2_if-else-answers.sol\":335:337  20 */\n      0x14\n        /* \"4_Day/2_if-else-answers.sol\":322:337  age < 10 ? 0:20 */\n      jump(tag_55)\n    tag_54:\n        /* \"4_Day/2_if-else-answers.sol\":333:334  0 */\n      0x00\n        /* \"4_Day/2_if-else-answers.sol\":322:337  age < 10 ? 0:20 */\n    tag_55:\n        /* \"4_Day/2_if-else-answers.sol\":315:337  return age < 10 ? 0:20 */\n      0xff\n      and\n      swap1\n      pop\n        /* \"4_Day/2_if-else-answers.sol\":253:342  function ternary_check_1(uint age) public pure returns(uint){... */\n      swap2\n      swap1\n      pop\n      jump\t// out\n        /* \"4_Day/2_if-else-answers.sol\":554:864  function check_2(uint age, bool isGirl) public pure returns(uint, string memory){... */\n    tag_29:\n        /* \"4_Day/2_if-else-answers.sol\":614:618  uint */\n      0x00\n        /* \"4_Day/2_if-else-answers.sol\":620:633  string memory */\n      0x60\n        /* \"4_Day/2_if-else-answers.sol\":640:658  string memory gift */\n      0x00\n        /* \"4_Day/2_if-else-answers.sol\":640:670  string memory gift = \"No gift\" */\n      mload(0x40)\n      dup1\n      0x40\n      add\n      0x40\n      mstore\n      dup1\n      0x07\n      dup2\n      mstore\n      0x20\n      add\n      0x4e6f206769667400000000000000000000000000000000000000000000000000\n      dup2\n      mstore\n      pop\n      swap1\n      pop\n        /* \"4_Day/2_if-else-answers.sol\":686:688  10 */\n      0x0a\n        /* \"4_Day/2_if-else-answers.sol\":680:683  age */\n      dup6\n        /* \"4_Day/2_if-else-answers.sol\":680:688  age < 10 */\n      lt\n        /* \"4_Day/2_if-else-answers.sol\":676:862  if (age < 10) {... */\n      iszero\n      tag_57\n      jumpi\n        /* \"4_Day/2_if-else-answers.sol\":703:709  isGirl */\n      dup4\n        /* \"4_Day/2_if-else-answers.sol\":700:793  if(isGirl){... */\n      iszero\n      tag_58\n      jumpi\n        /* \"4_Day/2_if-else-answers.sol\":720:740  gift = \"barbie doll\" */\n      mload(0x40)\n      dup1\n      0x40\n      add\n      0x40\n      mstore\n      dup1\n      0x0b\n      dup2\n      mstore\n      0x20\n      add\n      0x62617262696520646f6c6c000000000000000000000000000000000000000000\n      dup2\n      mstore\n      pop\n      swap1\n      pop\n        /* \"4_Day/2_if-else-answers.sol\":700:793  if(isGirl){... */\n      jump(tag_59)\n    tag_58:\n        /* \"4_Day/2_if-else-answers.sol\":765:782  gift = \"bayblade\" */\n      mload(0x40)\n      dup1\n      0x40\n      add\n      0x40\n      mstore\n      dup1\n      0x08\n      dup2\n      mstore\n      0x20\n      add\n      0x626179626c616465000000000000000000000000000000000000000000000000\n      dup2\n      mstore\n      pop\n      swap1\n      pop\n        /* \"4_Day/2_if-else-answers.sol\":700:793  if(isGirl){... */\n    tag_59:\n        /* \"4_Day/2_if-else-answers.sol\":810:811  0 */\n      0x00\n        /* \"4_Day/2_if-else-answers.sol\":812:816  gift */\n      dup2\n        /* \"4_Day/2_if-else-answers.sol\":802:817  return (0,gift) */\n      swap3\n      pop\n      swap3\n      pop\n      pop\n      jump(tag_56)\n        /* \"4_Day/2_if-else-answers.sol\":676:862  if (age < 10) {... */\n    tag_57:\n        /* \"4_Day/2_if-else-answers.sol\":847:849  20 */\n      0x14\n        /* \"4_Day/2_if-else-answers.sol\":850:854  gift */\n      dup2\n        /* \"4_Day/2_if-else-answers.sol\":839:855  return (20,gift) */\n      swap3\n      pop\n      swap3\n      pop\n      pop\n        /* \"4_Day/2_if-else-answers.sol\":554:864  function check_2(uint age, bool isGirl) public pure returns(uint, string memory){... */\n    tag_56:\n      swap3\n      pop\n      swap3\n      swap1\n      pop\n      jump\t// out\n        /* \"4_Day/2_if-else-answers.sol\":344:428  function ternary_check_1_2(uint age) public pure returns(uint){... */\n    tag_33:\n        /* \"4_Day/2_if-else-answers.sol\":401:405  uint */\n      0x00\n        /* \"4_Day/2_if-else-answers.sol\":414:416  10 */\n      0x0a\n        /* \"4_Day/2_if-else-answers.sol\":408:411  age */\n      dup3\n        /* \"4_Day/2_if-else-answers.sol\":408:416  age < 10 */\n      lt\n        /* \"4_Day/2_if-else-answers.sol\":408:423  age < 10 ? 0:20 */\n      tag_62\n      jumpi\n        /* \"4_Day/2_if-else-answers.sol\":421:423  20 */\n      0x14\n        /* \"4_Day/2_if-else-answers.sol\":408:423  age < 10 ? 0:20 */\n      jump(tag_63)\n    tag_62:\n        /* \"4_Day/2_if-else-answers.sol\":419:420  0 */\n      0x00\n        /* \"4_Day/2_if-else-answers.sol\":408:423  age < 10 ? 0:20 */\n    tag_63:\n      pop\n        /* \"4_Day/2_if-else-answers.sol\":344:428  function ternary_check_1_2(uint age) public pure returns(uint){... */\n      swap2\n      swap1\n      pop\n      jump\t// out\n        /* \"4_Day/2_if-else-answers.sol\":867:1048  function ternary_check_2(uint age, bool isGirl) public pure returns(uint, string memory){... */\n    tag_37:\n        /* \"4_Day/2_if-else-answers.sol\":935:939  uint */\n      0x00\n        /* \"4_Day/2_if-else-answers.sol\":941:954  string memory */\n      0x60\n        /* \"4_Day/2_if-else-answers.sol\":978:980  10 */\n      0x0a\n        /* \"4_Day/2_if-else-answers.sol\":972:975  age */\n      dup5\n        /* \"4_Day/2_if-else-answers.sol\":972:980  age < 10 */\n      lt\n        /* \"4_Day/2_if-else-answers.sol\":972:1041  age < 10 ? (0, isGirl ? \"barbie doll\" : \"bayblade\") : (20, \"No gift\") */\n      tag_65\n      jumpi\n        /* \"4_Day/2_if-else-answers.sol\":1027:1029  20 */\n      0x14\n        /* \"4_Day/2_if-else-answers.sol\":972:1041  age < 10 ? (0, isGirl ? \"barbie doll\" : \"bayblade\") : (20, \"No gift\") */\n      mload(0x40)\n      dup1\n      0x40\n      add\n      0x40\n      mstore\n      dup1\n      0x07\n      dup2\n      mstore\n      0x20\n      add\n      0x4e6f206769667400000000000000000000000000000000000000000000000000\n      dup2\n      mstore\n      pop\n      jump(tag_66)\n    tag_65:\n        /* \"4_Day/2_if-else-answers.sol\":984:985  0 */\n      0x00\n        /* \"4_Day/2_if-else-answers.sol\":987:993  isGirl */\n      dup4\n        /* \"4_Day/2_if-else-answers.sol\":987:1022  isGirl ? \"barbie doll\" : \"bayblade\" */\n      tag_67\n      jumpi\n      mload(0x40)\n      dup1\n      0x40\n      add\n      0x40\n      mstore\n      dup1\n      0x08\n      dup2\n      mstore\n      0x20\n      add\n      0x626179626c616465000000000000000000000000000000000000000000000000\n      dup2\n      mstore\n      pop\n      jump(tag_68)\n    tag_67:\n      mload(0x40)\n      dup1\n      0x40\n      add\n      0x40\n      mstore\n      dup1\n      0x0b\n      dup2\n      mstore\n      0x20\n      add\n      0x62617262696520646f6c6c000000000000000000000000000000000000000000\n      dup2\n      mstore\n      pop\n    tag_68:\n        /* \"4_Day/2_if-else-answers.sol\":972:1041  age < 10 ? (0, isGirl ? \"barbie doll\" : \"bayblade\") : (20, \"No gift\") */\n    tag_66:\n        /* \"4_Day/2_if-else-answers.sol\":965:1041  return age < 10 ? (0, isGirl ? \"barbie doll\" : \"bayblade\") : (20, \"No gift\") */\n      dup2\n      0xff\n      and\n      swap2\n      pop\n      swap2\n      pop\n      swap2\n      pop\n        /* \"4_Day/2_if-else-answers.sol\":867:1048  function ternary_check_2(uint age, bool isGirl) public pure returns(uint, string memory){... */\n      swap3\n      pop\n      swap3\n      swap1\n      pop\n      jump\t// out\n        /* \"4_Day/2_if-else-answers.sol\":1585:1789  function ternary_check_3(uint age, bool isGirl) public pure returns(uint, string memory){... */\n    tag_41:\n        /* \"4_Day/2_if-else-answers.sol\":1653:1657  uint */\n      0x00\n        /* \"4_Day/2_if-else-answers.sol\":1659:1672  string memory */\n      0x60\n        /* \"4_Day/2_if-else-answers.sol\":1692:1694  10 */\n      0x0a\n        /* \"4_Day/2_if-else-answers.sol\":1686:1689  age */\n      dup5\n        /* \"4_Day/2_if-else-answers.sol\":1686:1694  age < 10 */\n      lt\n        /* \"4_Day/2_if-else-answers.sol\":1686:1786  age < 10 ? (0, isGirl ? \"barbie doll\" : \"bayblade\") : (age > 70 ? (10, \"No gift\") : (20, \"No gift\")) */\n      tag_70\n      jumpi\n        /* \"4_Day/2_if-else-answers.sol\":1747:1749  70 */\n      0x46\n        /* \"4_Day/2_if-else-answers.sol\":1741:1744  age */\n      dup5\n        /* \"4_Day/2_if-else-answers.sol\":1741:1749  age > 70 */\n      gt\n        /* \"4_Day/2_if-else-answers.sol\":1741:1785  age > 70 ? (10, \"No gift\") : (20, \"No gift\") */\n      tag_71\n      jumpi\n        /* \"4_Day/2_if-else-answers.sol\":1771:1773  20 */\n      0x14\n        /* \"4_Day/2_if-else-answers.sol\":1741:1785  age > 70 ? (10, \"No gift\") : (20, \"No gift\") */\n      mload(0x40)\n      dup1\n      0x40\n      add\n      0x40\n      mstore\n      dup1\n      0x07\n      dup2\n      mstore\n      0x20\n      add\n      0x4e6f206769667400000000000000000000000000000000000000000000000000\n      dup2\n      mstore\n      pop\n      jump(tag_72)\n    tag_71:\n        /* \"4_Day/2_if-else-answers.sol\":1753:1755  10 */\n      0x0a\n        /* \"4_Day/2_if-else-answers.sol\":1741:1785  age > 70 ? (10, \"No gift\") : (20, \"No gift\") */\n      mload(0x40)\n      dup1\n      0x40\n      add\n      0x40\n      mstore\n      dup1\n      0x07\n      dup2\n      mstore\n      0x20\n      add\n      0x4e6f206769667400000000000000000000000000000000000000000000000000\n      dup2\n      mstore\n      pop\n    tag_72:\n        /* \"4_Day/2_if-else-answers.sol\":1686:1786  age < 10 ? (0, isGirl ? \"barbie doll\" : \"bayblade\") : (age > 70 ? (10, \"No gift\") : (20, \"No gift\")) */\n      jump(tag_73)\n    tag_70:\n        /* \"4_Day/2_if-else-answers.sol\":1698:1699  0 */\n      0x00\n        /* \"4_Day/2_if-else-answers.sol\":1701:1707  isGirl */\n      dup4\n        /* \"4_Day/2_if-else-answers.sol\":1701:1736  isGirl ? \"barbie doll\" : \"bayblade\" */\n      tag_74\n      jumpi\n      mload(0x40)\n      dup1\n      0x40\n      add\n      0x40\n      mstore\n      dup1\n      0x08\n      dup2\n      mstore\n      0x20\n      add\n      0x626179626c616465000000000000000000000000000000000000000000000000\n      dup2\n      mstore\n      pop\n      jump(tag_75)\n    tag_74:\n      mload(0x40)\n      dup1\n      0x40\n      add\n      0x40\n      mstore\n      dup1\n      0x0b\n      dup2\n      mstore\n      0x20\n      add\n      0x62617262696520646f6c6c000000000000000000000000000000000000000000\n      dup2\n      mstore\n      pop\n    tag_75:\n        /* \"4_Day/2_if-else-answers.sol\":1686:1786  age < 10 ? (0, isGirl ? \"barbie doll\" : \"bayblade\") : (age > 70 ? (10, \"No gift\") : (20, \"No gift\")) */\n    tag_73:\n        /* \"4_Day/2_if-else-answers.sol\":1679:1786  return age < 10 ? (0, isGirl ? \"barbie doll\" : \"bayblade\") : (age > 70 ? (10, \"No gift\") : (20, \"No gift\")) */\n      dup2\n      0xff\n      and\n      swap2\n      pop\n      swap2\n      pop\n      swap2\n      pop\n        /* \"4_Day/2_if-else-answers.sol\":1585:1789  function ternary_check_3(uint age, bool isGirl) public pure returns(uint, string memory){... */\n      swap3\n      pop\n      swap3\n      swap1\n      pop\n      jump\t// out\n        /* \"#utility.yul\":88:205   */\n    tag_77:\n        /* \"#utility.yul\":197:198   */\n      0x00\n        /* \"#utility.yul\":194:195   */\n      dup1\n        /* \"#utility.yul\":187:199   */\n      revert\n        /* \"#utility.yul\":334:411   */\n    tag_79:\n        /* \"#utility.yul\":371:378   */\n      0x00\n        /* \"#utility.yul\":400:405   */\n      dup2\n        /* \"#utility.yul\":389:405   */\n      swap1\n      pop\n        /* \"#utility.yul\":334:411   */\n      swap2\n      swap1\n      pop\n      jump\t// out\n        /* \"#utility.yul\":417:539   */\n    tag_80:\n        /* \"#utility.yul\":490:514   */\n      tag_97\n        /* \"#utility.yul\":508:513   */\n      dup2\n        /* \"#utility.yul\":490:514   */\n      tag_79\n      jump\t// in\n    tag_97:\n        /* \"#utility.yul\":483:488   */\n      dup2\n        /* \"#utility.yul\":480:515   */\n      eq\n        /* \"#utility.yul\":470:533   */\n      tag_98\n      jumpi\n        /* \"#utility.yul\":529:530   */\n      0x00\n        /* \"#utility.yul\":526:527   */\n      dup1\n        /* \"#utility.yul\":519:531   */\n      revert\n        /* \"#utility.yul\":470:533   */\n    tag_98:\n        /* \"#utility.yul\":417:539   */\n      pop\n      jump\t// out\n        /* \"#utility.yul\":545:684   */\n    tag_81:\n        /* \"#utility.yul\":591:596   */\n      0x00\n        /* \"#utility.yul\":629:635   */\n      dup2\n        /* \"#utility.yul\":616:636   */\n      calldataload\n        /* \"#utility.yul\":607:636   */\n      swap1\n      pop\n        /* \"#utility.yul\":645:678   */\n      tag_100\n        /* \"#utility.yul\":672:677   */\n      dup2\n        /* \"#utility.yul\":645:678   */\n      tag_80\n      jump\t// in\n    tag_100:\n        /* \"#utility.yul\":545:684   */\n      swap3\n      swap2\n      pop\n      pop\n      jump\t// out\n        /* \"#utility.yul\":690:780   */\n    tag_82:\n        /* \"#utility.yul\":724:731   */\n      0x00\n        /* \"#utility.yul\":767:772   */\n      dup2\n        /* \"#utility.yul\":760:773   */\n      iszero\n        /* \"#utility.yul\":753:774   */\n      iszero\n        /* \"#utility.yul\":742:774   */\n      swap1\n      pop\n        /* \"#utility.yul\":690:780   */\n      swap2\n      swap1\n      pop\n      jump\t// out\n        /* \"#utility.yul\":786:902   */\n    tag_83:\n        /* \"#utility.yul\":856:877   */\n      tag_103\n        /* \"#utility.yul\":871:876   */\n      dup2\n        /* \"#utility.yul\":856:877   */\n      tag_82\n      jump\t// in\n    tag_103:\n        /* \"#utility.yul\":849:854   */\n      dup2\n        /* \"#utility.yul\":846:878   */\n      eq\n        /* \"#utility.yul\":836:896   */\n      tag_104\n      jumpi\n        /* \"#utility.yul\":892:893   */\n      0x00\n        /* \"#utility.yul\":889:890   */\n      dup1\n        /* \"#utility.yul\":882:894   */\n      revert\n        /* \"#utility.yul\":836:896   */\n    tag_104:\n        /* \"#utility.yul\":786:902   */\n      pop\n      jump\t// out\n        /* \"#utility.yul\":908:1041   */\n    tag_84:\n        /* \"#utility.yul\":951:956   */\n      0x00\n        /* \"#utility.yul\":989:995   */\n      dup2\n        /* \"#utility.yul\":976:996   */\n      calldataload\n        /* \"#utility.yul\":967:996   */\n      swap1\n      pop\n        /* \"#utility.yul\":1005:1035   */\n      tag_106\n        /* \"#utility.yul\":1029:1034   */\n      dup2\n        /* \"#utility.yul\":1005:1035   */\n      tag_83\n      jump\t// in\n    tag_106:\n        /* \"#utility.yul\":908:1041   */\n      swap3\n      swap2\n      pop\n      pop\n      jump\t// out\n        /* \"#utility.yul\":1047:1515   */\n    tag_13:\n        /* \"#utility.yul\":1112:1118   */\n      0x00\n        /* \"#utility.yul\":1120:1126   */\n      dup1\n        /* \"#utility.yul\":1169:1171   */\n      0x40\n        /* \"#utility.yul\":1157:1166   */\n      dup4\n        /* \"#utility.yul\":1148:1155   */\n      dup6\n        /* \"#utility.yul\":1144:1167   */\n      sub\n        /* \"#utility.yul\":1140:1172   */\n      slt\n        /* \"#utility.yul\":1137:1256   */\n      iszero\n      tag_108\n      jumpi\n        /* \"#utility.yul\":1175:1254   */\n      tag_109\n      tag_77\n      jump\t// in\n    tag_109:\n        /* \"#utility.yul\":1137:1256   */\n    tag_108:\n        /* \"#utility.yul\":1295:1296   */\n      0x00\n        /* \"#utility.yul\":1320:1373   */\n      tag_110\n        /* \"#utility.yul\":1365:1372   */\n      dup6\n        /* \"#utility.yul\":1356:1362   */\n      dup3\n        /* \"#utility.yul\":1345:1354   */\n      dup7\n        /* \"#utility.yul\":1341:1363   */\n      add\n        /* \"#utility.yul\":1320:1373   */\n      tag_81\n      jump\t// in\n    tag_110:\n        /* \"#utility.yul\":1310:1373   */\n      swap3\n      pop\n        /* \"#utility.yul\":1266:1383   */\n      pop\n        /* \"#utility.yul\":1422:1424   */\n      0x20\n        /* \"#utility.yul\":1448:1498   */\n      tag_111\n        /* \"#utility.yul\":1490:1497   */\n      dup6\n        /* \"#utility.yul\":1481:1487   */\n      dup3\n        /* \"#utility.yul\":1470:1479   */\n      dup7\n        /* \"#utility.yul\":1466:1488   */\n      add\n        /* \"#utility.yul\":1448:1498   */\n      tag_84\n      jump\t// in\n    tag_111:\n        /* \"#utility.yul\":1438:1498   */\n      swap2\n      pop\n        /* \"#utility.yul\":1393:1508   */\n      pop\n        /* \"#utility.yul\":1047:1515   */\n      swap3\n      pop\n      swap3\n      swap1\n      pop\n      jump\t// out\n        /* \"#utility.yul\":1521:1639   */\n    tag_85:\n        /* \"#utility.yul\":1608:1632   */\n      tag_113\n        /* \"#utility.yul\":1626:1631   */\n      dup2\n        /* \"#utility.yul\":1608:1632   */\n      tag_79\n      jump\t// in\n    tag_113:\n        /* \"#utility.yul\":1603:1606   */\n      dup3\n        /* \"#utility.yul\":1596:1633   */\n      mstore\n        /* \"#utility.yul\":1521:1639   */\n      pop\n      pop\n      jump\t// out\n        /* \"#utility.yul\":1645:1744   */\n    tag_86:\n        /* \"#utility.yul\":1697:1703   */\n      0x00\n        /* \"#utility.yul\":1731:1736   */\n      dup2\n        /* \"#utility.yul\":1725:1737   */\n      mload\n        /* \"#utility.yul\":1715:1737   */\n      swap1\n      pop\n        /* \"#utility.yul\":1645:1744   */\n      swap2\n      swap1\n      pop\n      jump\t// out\n        /* \"#utility.yul\":1750:1919   */\n    tag_87:\n        /* \"#utility.yul\":1834:1845   */\n      0x00\n        /* \"#utility.yul\":1868:1874   */\n      dup3\n        /* \"#utility.yul\":1863:1866   */\n      dup3\n        /* \"#utility.yul\":1856:1875   */\n      mstore\n        /* \"#utility.yul\":1908:1912   */\n      0x20\n        /* \"#utility.yul\":1903:1906   */\n      dup3\n        /* \"#utility.yul\":1899:1913   */\n      add\n        /* \"#utility.yul\":1884:1913   */\n      swap1\n      pop\n        /* \"#utility.yul\":1750:1919   */\n      swap3\n      swap2\n      pop\n      pop\n      jump\t// out\n        /* \"#utility.yul\":1925:2171   */\n    tag_88:\n        /* \"#utility.yul\":2006:2007   */\n      0x00\n        /* \"#utility.yul\":2016:2129   */\n    tag_117:\n        /* \"#utility.yul\":2030:2036   */\n      dup4\n        /* \"#utility.yul\":2027:2028   */\n      dup2\n        /* \"#utility.yul\":2024:2037   */\n      lt\n        /* \"#utility.yul\":2016:2129   */\n      iszero\n      tag_119\n      jumpi\n        /* \"#utility.yul\":2115:2116   */\n      dup1\n        /* \"#utility.yul\":2110:2113   */\n      dup3\n        /* \"#utility.yul\":2106:2117   */\n      add\n        /* \"#utility.yul\":2100:2118   */\n      mload\n        /* \"#utility.yul\":2096:2097   */\n      dup2\n        /* \"#utility.yul\":2091:2094   */\n      dup5\n        /* \"#utility.yul\":2087:2098   */\n      add\n        /* \"#utility.yul\":2080:2119   */\n      mstore\n        /* \"#utility.yul\":2052:2054   */\n      0x20\n        /* \"#utility.yul\":2049:2050   */\n      dup2\n        /* \"#utility.yul\":2045:2055   */\n      add\n        /* \"#utility.yul\":2040:2055   */\n      swap1\n      pop\n        /* \"#utility.yul\":2016:2129   */\n      jump(tag_117)\n    tag_119:\n        /* \"#utility.yul\":2163:2164   */\n      0x00\n        /* \"#utility.yul\":2154:2160   */\n      dup5\n        /* \"#utility.yul\":2149:2152   */\n      dup5\n        /* \"#utility.yul\":2145:2161   */\n      add\n        /* \"#utility.yul\":2138:2165   */\n      mstore\n        /* \"#utility.yul\":1987:2171   */\n      pop\n        /* \"#utility.yul\":1925:2171   */\n      pop\n      pop\n      pop\n      jump\t// out\n        /* \"#utility.yul\":2177:2279   */\n    tag_89:\n        /* \"#utility.yul\":2218:2224   */\n      0x00\n        /* \"#utility.yul\":2269:2271   */\n      0x1f\n        /* \"#utility.yul\":2265:2272   */\n      not\n        /* \"#utility.yul\":2260:2262   */\n      0x1f\n        /* \"#utility.yul\":2253:2258   */\n      dup4\n        /* \"#utility.yul\":2249:2263   */\n      add\n        /* \"#utility.yul\":2245:2273   */\n      and\n        /* \"#utility.yul\":2235:2273   */\n      swap1\n      pop\n        /* \"#utility.yul\":2177:2279   */\n      swap2\n      swap1\n      pop\n      jump\t// out\n        /* \"#utility.yul\":2285:2662   */\n    tag_90:\n        /* \"#utility.yul\":2373:2376   */\n      0x00\n        /* \"#utility.yul\":2401:2440   */\n      tag_122\n        /* \"#utility.yul\":2434:2439   */\n      dup3\n        /* \"#utility.yul\":2401:2440   */\n      tag_86\n      jump\t// in\n    tag_122:\n        /* \"#utility.yul\":2456:2527   */\n      tag_123\n        /* \"#utility.yul\":2520:2526   */\n      dup2\n        /* \"#utility.yul\":2515:2518   */\n      dup6\n        /* \"#utility.yul\":2456:2527   */\n      tag_87\n      jump\t// in\n    tag_123:\n        /* \"#utility.yul\":2449:2527   */\n      swap4\n      pop\n        /* \"#utility.yul\":2536:2601   */\n      tag_124\n        /* \"#utility.yul\":2594:2600   */\n      dup2\n        /* \"#utility.yul\":2589:2592   */\n      dup6\n        /* \"#utility.yul\":2582:2586   */\n      0x20\n        /* \"#utility.yul\":2575:2580   */\n      dup7\n        /* \"#utility.yul\":2571:2587   */\n      add\n        /* \"#utility.yul\":2536:2601   */\n      tag_88\n      jump\t// in\n    tag_124:\n        /* \"#utility.yul\":2626:2655   */\n      tag_125\n        /* \"#utility.yul\":2648:2654   */\n      dup2\n        /* \"#utility.yul\":2626:2655   */\n      tag_89\n      jump\t// in\n    tag_125:\n        /* \"#utility.yul\":2621:2624   */\n      dup5\n        /* \"#utility.yul\":2617:2656   */\n      add\n        /* \"#utility.yul\":2610:2656   */\n      swap2\n      pop\n        /* \"#utility.yul\":2377:2662   */\n      pop\n        /* \"#utility.yul\":2285:2662   */\n      swap3\n      swap2\n      pop\n      pop\n      jump\t// out\n        /* \"#utility.yul\":2668:3091   */\n    tag_16:\n        /* \"#utility.yul\":2809:2813   */\n      0x00\n        /* \"#utility.yul\":2847:2849   */\n      0x40\n        /* \"#utility.yul\":2836:2845   */\n      dup3\n        /* \"#utility.yul\":2832:2850   */\n      add\n        /* \"#utility.yul\":2824:2850   */\n      swap1\n      pop\n        /* \"#utility.yul\":2860:2931   */\n      tag_127\n        /* \"#utility.yul\":2928:2929   */\n      0x00\n        /* \"#utility.yul\":2917:2926   */\n      dup4\n        /* \"#utility.yul\":2913:2930   */\n      add\n        /* \"#utility.yul\":2904:2910   */\n      dup6\n        /* \"#utility.yul\":2860:2931   */\n      tag_85\n      jump\t// in\n    tag_127:\n        /* \"#utility.yul\":2978:2987   */\n      dup2\n        /* \"#utility.yul\":2972:2976   */\n      dup2\n        /* \"#utility.yul\":2968:2988   */\n      sub\n        /* \"#utility.yul\":2963:2965   */\n      0x20\n        /* \"#utility.yul\":2952:2961   */\n      dup4\n        /* \"#utility.yul\":2948:2966   */\n      add\n        /* \"#utility.yul\":2941:2989   */\n      mstore\n        /* \"#utility.yul\":3006:3084   */\n      tag_128\n        /* \"#utility.yul\":3079:3083   */\n      dup2\n        /* \"#utility.yul\":3070:3076   */\n      dup5\n        /* \"#utility.yul\":3006:3084   */\n      tag_90\n      jump\t// in\n    tag_128:\n        /* \"#utility.yul\":2998:3084   */\n      swap1\n      pop\n        /* \"#utility.yul\":2668:3091   */\n      swap4\n      swap3\n      pop\n      pop\n      pop\n      jump\t// out\n        /* \"#utility.yul\":3097:3426   */\n    tag_19:\n        /* \"#utility.yul\":3156:3162   */\n      0x00\n        /* \"#utility.yul\":3205:3207   */\n      0x20\n        /* \"#utility.yul\":3193:3202   */\n      dup3\n        /* \"#utility.yul\":3184:3191   */\n      dup5\n        /* \"#utility.yul\":3180:3203   */\n      sub\n        /* \"#utility.yul\":3176:3208   */\n      slt\n        /* \"#utility.yul\":3173:3292   */\n      iszero\n      tag_130\n      jumpi\n        /* \"#utility.yul\":3211:3290   */\n      tag_131\n      tag_77\n      jump\t// in\n    tag_131:\n        /* \"#utility.yul\":3173:3292   */\n    tag_130:\n        /* \"#utility.yul\":3331:3332   */\n      0x00\n        /* \"#utility.yul\":3356:3409   */\n      tag_132\n        /* \"#utility.yul\":3401:3408   */\n      dup5\n        /* \"#utility.yul\":3392:3398   */\n      dup3\n        /* \"#utility.yul\":3381:3390   */\n      dup6\n        /* \"#utility.yul\":3377:3399   */\n      add\n        /* \"#utility.yul\":3356:3409   */\n      tag_81\n      jump\t// in\n    tag_132:\n        /* \"#utility.yul\":3346:3409   */\n      swap2\n      pop\n        /* \"#utility.yul\":3302:3419   */\n      pop\n        /* \"#utility.yul\":3097:3426   */\n      swap3\n      swap2\n      pop\n      pop\n      jump\t// out\n        /* \"#utility.yul\":3432:3654   */\n    tag_22:\n        /* \"#utility.yul\":3525:3529   */\n      0x00\n        /* \"#utility.yul\":3563:3565   */\n      0x20\n        /* \"#utility.yul\":3552:3561   */\n      dup3\n        /* \"#utility.yul\":3548:3566   */\n      add\n        /* \"#utility.yul\":3540:3566   */\n      swap1\n      pop\n        /* \"#utility.yul\":3576:3647   */\n      tag_134\n        /* \"#utility.yul\":3644:3645   */\n      0x00\n        /* \"#utility.yul\":3633:3642   */\n      dup4\n        /* \"#utility.yul\":3629:3646   */\n      add\n        /* \"#utility.yul\":3620:3626   */\n      dup5\n        /* \"#utility.yul\":3576:3647   */\n      tag_85\n      jump\t// in\n    tag_134:\n        /* \"#utility.yul\":3432:3654   */\n      swap3\n      swap2\n      pop\n      pop\n      jump\t// out\n\n    auxdata: 0xa26469706673582212202f61693c86ab5fbbfa12331130b05ee45edc2cc068f2cb4f953d820cca6fefe364736f6c63430008120033\n}\n",
				"bytecode": {
					"linkReferences": {},
					"object": "608060405234801561001057600080fd5b506107f0806100206000396000f3fe608060405234801561001057600080fd5b506004361061007d5760003560e01c8063b0349a491161005b578063b0349a4914610113578063c2678c0814610144578063f539aca314610174578063f54d9580146101a55761007d565b80637864d4f214610082578063a4228d68146100b3578063ad275638146100e3575b600080fd5b61009c60048036038101906100979190610663565b6101d6565b6040516100aa929190610742565b60405180910390f35b6100cd60048036038101906100c89190610772565b6102cc565b6040516100da919061079f565b60405180910390f35b6100fd60048036038101906100f89190610772565b6102ea565b60405161010a919061079f565b60405180910390f35b61012d60048036038101906101289190610663565b610308565b60405161013b929190610742565b60405180910390f35b61015e60048036038101906101599190610772565b6103e8565b60405161016b919061079f565b60405180910390f35b61018e60048036038101906101899190610663565b610402565b60405161019c929190610742565b60405180910390f35b6101bf60048036038101906101ba9190610663565b6104d6565b6040516101cd929190610742565b60405180910390f35b6000606060006040518060400160405280600781526020017f4e6f2067696674000000000000000000000000000000000000000000000000008152509050600a8510156102a6578315610260576040518060400160405280600b81526020017f62617262696520646f6c6c0000000000000000000000000000000000000000008152509050610299565b6040518060400160405280600881526020017f626179626c61646500000000000000000000000000000000000000000000000081525090505b60008192509250506102c5565b60468511156102bc57600a8192509250506102c5565b60148192509250505b9250929050565b6000600a8210156102e057600090506102e5565b601490505b919050565b6000600a82106102fb5760146102fe565b60005b60ff169050919050565b6000606060006040518060400160405280600781526020017f4e6f2067696674000000000000000000000000000000000000000000000000008152509050600a8510156103d8578315610392576040518060400160405280600b81526020017f62617262696520646f6c6c00000000000000000000000000000000000000000081525090506103cb565b6040518060400160405280600881526020017f626179626c61646500000000000000000000000000000000000000000000000081525090505b60008192509250506103e1565b60148192509250505b9250929050565b6000600a82106103f95760146103fc565b60005b50919050565b60006060600a841061044b5760146040518060400160405280600781526020017f4e6f2067696674000000000000000000000000000000000000000000000000008152506104c5565b60008361048d576040518060400160405280600881526020017f626179626c6164650000000000000000000000000000000000000000000000008152506104c4565b6040518060400160405280600b81526020017f62617262696520646f6c6c0000000000000000000000000000000000000000008152505b5b8160ff169150915091509250929050565b60006060600a841061056557604684116105275760146040518060400160405280600781526020017f4e6f206769667400000000000000000000000000000000000000000000000000815250610560565b600a6040518060400160405280600781526020017f4e6f2067696674000000000000000000000000000000000000000000000000008152505b6105df565b6000836105a7576040518060400160405280600881526020017f626179626c6164650000000000000000000000000000000000000000000000008152506105de565b6040518060400160405280600b81526020017f62617262696520646f6c6c0000000000000000000000000000000000000000008152505b5b8160ff169150915091509250929050565b600080fd5b6000819050919050565b610608816105f5565b811461061357600080fd5b50565b600081359050610625816105ff565b92915050565b60008115159050919050565b6106408161062b565b811461064b57600080fd5b50565b60008135905061065d81610637565b92915050565b6000806040838503121561067a576106796105f0565b5b600061068885828601610616565b92505060206106998582860161064e565b9150509250929050565b6106ac816105f5565b82525050565b600081519050919050565b600082825260208201905092915050565b60005b838110156106ec5780820151818401526020810190506106d1565b60008484015250505050565b6000601f19601f8301169050919050565b6000610714826106b2565b61071e81856106bd565b935061072e8185602086016106ce565b610737816106f8565b840191505092915050565b600060408201905061075760008301856106a3565b81810360208301526107698184610709565b90509392505050565b600060208284031215610788576107876105f0565b5b600061079684828501610616565b91505092915050565b60006020820190506107b460008301846106a3565b9291505056fea26469706673582212202f61693c86ab5fbbfa12331130b05ee45edc2cc068f2cb4f953d820cca6fefe364736f6c63430008120033",
					"opcodes": "PUSH1 0x80 PUSH1 0x40 MSTORE CALLVALUE DUP1 ISZERO PUSH2 0x10 JUMPI PUSH1 0x0 DUP1 REVERT JUMPDEST POP PUSH2 0x7F0 DUP1 PUSH2 0x20 PUSH1 0x0 CODECOPY PUSH1 0x0 RETURN INVALID PUSH1 0x80 PUSH1 0x40 MSTORE CALLVALUE DUP1 ISZERO PUSH2 0x10 JUMPI PUSH1 0x0 DUP1 REVERT JUMPDEST POP PUSH1 0x4 CALLDATASIZE LT PUSH2 0x7D JUMPI PUSH1 0x0 CALLDATALOAD PUSH1 0xE0 SHR DUP1 PUSH4 0xB0349A49 GT PUSH2 0x5B JUMPI DUP1 PUSH4 0xB0349A49 EQ PUSH2 0x113 JUMPI DUP1 PUSH4 0xC2678C08 EQ PUSH2 0x144 JUMPI DUP1 PUSH4 0xF539ACA3 EQ PUSH2 0x174 JUMPI DUP1 PUSH4 0xF54D9580 EQ PUSH2 0x1A5 JUMPI PUSH2 0x7D JUMP JUMPDEST DUP1 PUSH4 0x7864D4F2 EQ PUSH2 0x82 JUMPI DUP1 PUSH4 0xA4228D68 EQ PUSH2 0xB3 JUMPI DUP1 PUSH4 0xAD275638 EQ PUSH2 0xE3 JUMPI JUMPDEST PUSH1 0x0 DUP1 REVERT JUMPDEST PUSH2 0x9C PUSH1 0x4 DUP1 CALLDATASIZE SUB DUP2 ADD SWAP1 PUSH2 0x97 SWAP2 SWAP1 PUSH2 0x663 JUMP JUMPDEST PUSH2 0x1D6 JUMP JUMPDEST PUSH1 0x40 MLOAD PUSH2 0xAA SWAP3 SWAP2 SWAP1 PUSH2 0x742 JUMP JUMPDEST PUSH1 0x40 MLOAD DUP1 SWAP2 SUB SWAP1 RETURN JUMPDEST PUSH2 0xCD PUSH1 0x4 DUP1 CALLDATASIZE SUB DUP2 ADD SWAP1 PUSH2 0xC8 SWAP2 SWAP1 PUSH2 0x772 JUMP JUMPDEST PUSH2 0x2CC JUMP JUMPDEST PUSH1 0x40 MLOAD PUSH2 0xDA SWAP2 SWAP1 PUSH2 0x79F JUMP JUMPDEST PUSH1 0x40 MLOAD DUP1 SWAP2 SUB SWAP1 RETURN JUMPDEST PUSH2 0xFD PUSH1 0x4 DUP1 CALLDATASIZE SUB DUP2 ADD SWAP1 PUSH2 0xF8 SWAP2 SWAP1 PUSH2 0x772 JUMP JUMPDEST PUSH2 0x2EA JUMP JUMPDEST PUSH1 0x40 MLOAD PUSH2 0x10A SWAP2 SWAP1 PUSH2 0x79F JUMP JUMPDEST PUSH1 0x40 MLOAD DUP1 SWAP2 SUB SWAP1 RETURN JUMPDEST PUSH2 0x12D PUSH1 0x4 DUP1 CALLDATASIZE SUB DUP2 ADD SWAP1 PUSH2 0x128 SWAP2 SWAP1 PUSH2 0x663 JUMP JUMPDEST PUSH2 0x308 JUMP JUMPDEST PUSH1 0x40 MLOAD PUSH2 0x13B SWAP3 SWAP2 SWAP1 PUSH2 0x742 JUMP JUMPDEST PUSH1 0x40 MLOAD DUP1 SWAP2 SUB SWAP1 RETURN JUMPDEST PUSH2 0x15E PUSH1 0x4 DUP1 CALLDATASIZE SUB DUP2 ADD SWAP1 PUSH2 0x159 SWAP2 SWAP1 PUSH2 0x772 JUMP JUMPDEST PUSH2 0x3E8 JUMP JUMPDEST PUSH1 0x40 MLOAD PUSH2 0x16B SWAP2 SWAP1 PUSH2 0x79F JUMP JUMPDEST PUSH1 0x40 MLOAD DUP1 SWAP2 SUB SWAP1 RETURN JUMPDEST PUSH2 0x18E PUSH1 0x4 DUP1 CALLDATASIZE SUB DUP2 ADD SWAP1 PUSH2 0x189 SWAP2 SWAP1 PUSH2 0x663 JUMP JUMPDEST PUSH2 0x402 JUMP JUMPDEST PUSH1 0x40 MLOAD PUSH2 0x19C SWAP3 SWAP2 SWAP1 PUSH2 0x742 JUMP JUMPDEST PUSH1 0x40 MLOAD DUP1 SWAP2 SUB SWAP1 RETURN JUMPDEST PUSH2 0x1BF PUSH1 0x4 DUP1 CALLDATASIZE SUB DUP2 ADD SWAP1 PUSH2 0x1BA SWAP2 SWAP1 PUSH2 0x663 JUMP JUMPDEST PUSH2 0x4D6 JUMP JUMPDEST PUSH1 0x40 MLOAD PUSH2 0x1CD SWAP3 SWAP2 SWAP1 PUSH2 0x742 JUMP JUMPDEST PUSH1 0x40 MLOAD DUP1 SWAP2 SUB SWAP1 RETURN JUMPDEST PUSH1 0x0 PUSH1 0x60 PUSH1 0x0 PUSH1 0x40 MLOAD DUP1 PUSH1 0x40 ADD PUSH1 0x40 MSTORE DUP1 PUSH1 0x7 DUP2 MSTORE PUSH1 0x20 ADD PUSH32 0x4E6F206769667400000000000000000000000000000000000000000000000000 DUP2 MSTORE POP SWAP1 POP PUSH1 0xA DUP6 LT ISZERO PUSH2 0x2A6 JUMPI DUP4 ISZERO PUSH2 0x260 JUMPI PUSH1 0x40 MLOAD DUP1 PUSH1 0x40 ADD PUSH1 0x40 MSTORE DUP1 PUSH1 0xB DUP2 MSTORE PUSH1 0x20 ADD PUSH32 0x62617262696520646F6C6C000000000000000000000000000000000000000000 DUP2 MSTORE POP SWAP1 POP PUSH2 0x299 JUMP JUMPDEST PUSH1 0x40 MLOAD DUP1 PUSH1 0x40 ADD PUSH1 0x40 MSTORE DUP1 PUSH1 0x8 DUP2 MSTORE PUSH1 0x20 ADD PUSH32 0x626179626C616465000000000000000000000000000000000000000000000000 DUP2 MSTORE POP SWAP1 POP JUMPDEST PUSH1 0x0 DUP2 SWAP3 POP SWAP3 POP POP PUSH2 0x2C5 JUMP JUMPDEST PUSH1 0x46 DUP6 GT ISZERO PUSH2 0x2BC JUMPI PUSH1 0xA DUP2 SWAP3 POP SWAP3 POP POP PUSH2 0x2C5 JUMP JUMPDEST PUSH1 0x14 DUP2 SWAP3 POP SWAP3 POP POP JUMPDEST SWAP3 POP SWAP3 SWAP1 POP JUMP JUMPDEST PUSH1 0x0 PUSH1 0xA DUP3 LT ISZERO PUSH2 0x2E0 JUMPI PUSH1 0x0 SWAP1 POP PUSH2 0x2E5 JUMP JUMPDEST PUSH1 0x14 SWAP1 POP JUMPDEST SWAP2 SWAP1 POP JUMP JUMPDEST PUSH1 0x0 PUSH1 0xA DUP3 LT PUSH2 0x2FB JUMPI PUSH1 0x14 PUSH2 0x2FE JUMP JUMPDEST PUSH1 0x0 JUMPDEST PUSH1 0xFF AND SWAP1 POP SWAP2 SWAP1 POP JUMP JUMPDEST PUSH1 0x0 PUSH1 0x60 PUSH1 0x0 PUSH1 0x40 MLOAD DUP1 PUSH1 0x40 ADD PUSH1 0x40 MSTORE DUP1 PUSH1 0x7 DUP2 MSTORE PUSH1 0x20 ADD PUSH32 0x4E6F206769667400000000000000000000000000000000000000000000000000 DUP2 MSTORE POP SWAP1 POP PUSH1 0xA DUP6 LT ISZERO PUSH2 0x3D8 JUMPI DUP4 ISZERO PUSH2 0x392 JUMPI PUSH1 0x40 MLOAD DUP1 PUSH1 0x40 ADD PUSH1 0x40 MSTORE DUP1 PUSH1 0xB DUP2 MSTORE PUSH1 0x20 ADD PUSH32 0x62617262696520646F6C6C000000000000000000000000000000000000000000 DUP2 MSTORE POP SWAP1 POP PUSH2 0x3CB JUMP JUMPDEST PUSH1 0x40 MLOAD DUP1 PUSH1 0x40 ADD PUSH1 0x40 MSTORE DUP1 PUSH1 0x8 DUP2 MSTORE PUSH1 0x20 ADD PUSH32 0x626179626C616465000000000000000000000000000000000000000000000000 DUP2 MSTORE POP SWAP1 POP JUMPDEST PUSH1 0x0 DUP2 SWAP3 POP SWAP3 POP POP PUSH2 0x3E1 JUMP JUMPDEST PUSH1 0x14 DUP2 SWAP3 POP SWAP3 POP POP JUMPDEST SWAP3 POP SWAP3 SWAP1 POP JUMP JUMPDEST PUSH1 0x0 PUSH1 0xA DUP3 LT PUSH2 0x3F9 JUMPI PUSH1 0x14 PUSH2 0x3FC JUMP JUMPDEST PUSH1 0x0 JUMPDEST POP SWAP2 SWAP1 POP JUMP JUMPDEST PUSH1 0x0 PUSH1 0x60 PUSH1 0xA DUP5 LT PUSH2 0x44B JUMPI PUSH1 0x14 PUSH1 0x40 MLOAD DUP1 PUSH1 0x40 ADD PUSH1 0x40 MSTORE DUP1 PUSH1 0x7 DUP2 MSTORE PUSH1 0x20 ADD PUSH32 0x4E6F206769667400000000000000000000000000000000000000000000000000 DUP2 MSTORE POP PUSH2 0x4C5 JUMP JUMPDEST PUSH1 0x0 DUP4 PUSH2 0x48D JUMPI PUSH1 0x40 MLOAD DUP1 PUSH1 0x40 ADD PUSH1 0x40 MSTORE DUP1 PUSH1 0x8 DUP2 MSTORE PUSH1 0x20 ADD PUSH32 0x626179626C616465000000000000000000000000000000000000000000000000 DUP2 MSTORE POP PUSH2 0x4C4 JUMP JUMPDEST PUSH1 0x40 MLOAD DUP1 PUSH1 0x40 ADD PUSH1 0x40 MSTORE DUP1 PUSH1 0xB DUP2 MSTORE PUSH1 0x20 ADD PUSH32 0x62617262696520646F6C6C000000000000000000000000000000000000000000 DUP2 MSTORE POP JUMPDEST JUMPDEST DUP2 PUSH1 0xFF AND SWAP2 POP SWAP2 POP SWAP2 POP SWAP3 POP SWAP3 SWAP1 POP JUMP JUMPDEST PUSH1 0x0 PUSH1 0x60 PUSH1 0xA DUP5 LT PUSH2 0x565 JUMPI PUSH1 0x46 DUP5 GT PUSH2 0x527 JUMPI PUSH1 0x14 PUSH1 0x40 MLOAD DUP1 PUSH1 0x40 ADD PUSH1 0x40 MSTORE DUP1 PUSH1 0x7 DUP2 MSTORE PUSH1 0x20 ADD PUSH32 0x4E6F206769667400000000000000000000000000000000000000000000000000 DUP2 MSTORE POP PUSH2 0x560 JUMP JUMPDEST PUSH1 0xA PUSH1 0x40 MLOAD DUP1 PUSH1 0x40 ADD PUSH1 0x40 MSTORE DUP1 PUSH1 0x7 DUP2 MSTORE PUSH1 0x20 ADD PUSH32 0x4E6F206769667400000000000000000000000000000000000000000000000000 DUP2 MSTORE POP JUMPDEST PUSH2 0x5DF JUMP JUMPDEST PUSH1 0x0 DUP4 PUSH2 0x5A7 JUMPI PUSH1 0x40 MLOAD DUP1 PUSH1 0x40 ADD PUSH1 0x40 MSTORE DUP1 PUSH1 0x8 DUP2 MSTORE PUSH1 0x20 ADD PUSH32 0x626179626C616465000000000000000000000000000000000000000000000000 DUP2 MSTORE POP PUSH2 0x5DE JUMP JUMPDEST PUSH1 0x40 MLOAD DUP1 PUSH1 0x40 ADD PUSH1 0x40 MSTORE DUP1 PUSH1 0xB DUP2 MSTORE PUSH1 0x20 ADD PUSH32 0x62617262696520646F6C6C000000000000000000000000000000000000000000 DUP2 MSTORE POP JUMPDEST JUMPDEST DUP2 PUSH1 0xFF AND SWAP2 POP SWAP2 POP SWAP2 POP SWAP3 POP SWAP3 SWAP1 POP JUMP JUMPDEST PUSH1 0x0 DUP1 REVERT JUMPDEST PUSH1 0x0 DUP2 SWAP1 POP SWAP2 SWAP1 POP JUMP JUMPDEST PUSH2 0x608 DUP2 PUSH2 0x5F5 JUMP JUMPDEST DUP2 EQ PUSH2 0x613 JUMPI PUSH1 0x0 DUP1 REVERT JUMPDEST POP JUMP JUMPDEST PUSH1 0x0 DUP2 CALLDATALOAD SWAP1 POP PUSH2 0x625 DUP2 PUSH2 0x5FF JUMP JUMPDEST SWAP3 SWAP2 POP POP JUMP JUMPDEST PUSH1 0x0 DUP2 ISZERO ISZERO SWAP1 POP SWAP2 SWAP1 POP JUMP JUMPDEST PUSH2 0x640 DUP2 PUSH2 0x62B JUMP JUMPDEST DUP2 EQ PUSH2 0x64B JUMPI PUSH1 0x0 DUP1 REVERT JUMPDEST POP JUMP JUMPDEST PUSH1 0x0 DUP2 CALLDATALOAD SWAP1 POP PUSH2 0x65D DUP2 PUSH2 0x637 JUMP JUMPDEST SWAP3 SWAP2 POP POP JUMP JUMPDEST PUSH1 0x0 DUP1 PUSH1 0x40 DUP4 DUP6 SUB SLT ISZERO PUSH2 0x67A JUMPI PUSH2 0x679 PUSH2 0x5F0 JUMP JUMPDEST JUMPDEST PUSH1 0x0 PUSH2 0x688 DUP6 DUP3 DUP7 ADD PUSH2 0x616 JUMP JUMPDEST SWAP3 POP POP PUSH1 0x20 PUSH2 0x699 DUP6 DUP3 DUP7 ADD PUSH2 0x64E JUMP JUMPDEST SWAP2 POP POP SWAP3 POP SWAP3 SWAP1 POP JUMP JUMPDEST PUSH2 0x6AC DUP2 PUSH2 0x5F5 JUMP JUMPDEST DUP3 MSTORE POP POP JUMP JUMPDEST PUSH1 0x0 DUP2 MLOAD SWAP1 POP SWAP2 SWAP1 POP JUMP JUMPDEST PUSH1 0x0 DUP3 DUP3 MSTORE PUSH1 0x20 DUP3 ADD SWAP1 POP SWAP3 SWAP2 POP POP JUMP JUMPDEST PUSH1 0x0 JUMPDEST DUP4 DUP2 LT ISZERO PUSH2 0x6EC JUMPI DUP1 DUP3 ADD MLOAD DUP2 DUP5 ADD MSTORE PUSH1 0x20 DUP2 ADD SWAP1 POP PUSH2 0x6D1 JUMP JUMPDEST PUSH1 0x0 DUP5 DUP5 ADD MSTORE POP POP POP POP JUMP JUMPDEST PUSH1 0x0 PUSH1 0x1F NOT PUSH1 0x1F DUP4 ADD AND SWAP1 POP SWAP2 SWAP1 POP JUMP JUMPDEST PUSH1 0x0 PUSH2 0x714 DUP3 PUSH2 0x6B2 JUMP JUMPDEST PUSH2 0x71E DUP2 DUP6 PUSH2 0x6BD JUMP JUMPDEST SWAP4 POP PUSH2 0x72E DUP2 DUP6 PUSH1 0x20 DUP7 ADD PUSH2 0x6CE JUMP JUMPDEST PUSH2 0x737 DUP2 PUSH2 0x6F8 JUMP JUMPDEST DUP5 ADD SWAP2 POP POP SWAP3 SWAP2 POP POP JUMP JUMPDEST PUSH1 0x0 PUSH1 0x40 DUP3 ADD SWAP1 POP PUSH2 0x757 PUSH1 0x0 DUP4 ADD DUP6 PUSH2 0x6A3 JUMP JUMPDEST DUP2 DUP2 SUB PUSH1 0x20 DUP4 ADD MSTORE PUSH2 0x769 DUP2 DUP5 PUSH2 0x709 JUMP JUMPDEST SWAP1 POP SWAP4 SWAP3 POP POP POP JUMP JUMPDEST PUSH1 0x0 PUSH1 0x20 DUP3 DUP5 SUB SLT ISZERO PUSH2 0x788 JUMPI PUSH2 0x787 PUSH2 0x5F0 JUMP JUMPDEST JUMPDEST PUSH1 0x0 PUSH2 0x796 DUP5 DUP3 DUP6 ADD PUSH2 0x616 JUMP JUMPDEST SWAP2 POP POP SWAP3 SWAP2 POP POP JUMP JUMPDEST PUSH1 0x0 PUSH1 0x20 DUP3 ADD SWAP1 POP PUSH2 0x7B4 PUSH1 0x0 DUP4 ADD DUP5 PUSH2 0x6A3 JUMP JUMPDEST SWAP3 SWAP2 POP POP JUMP INVALID LOG2 PUSH5 0x6970667358 0x22 SLT KECCAK256 0x2F PUSH2 0x693C DUP7 0xAB 0x5F 0xBB STATICCALL SLT CALLER GT ADDRESS 0xB0 0x5E 0xE4 0x5E 0xDC 0x2C 0xC0 PUSH9 0xF2CB4F953D820CCA6F 0xEF 0xE3 PUSH5 0x736F6C6343 STOP ADDMOD SLT STOP CALLER "
				},
				"gasEstimates": {
					"creation": {
						"codeDepositCost": "406400",
						"executionCost": "443",
						"totalCost": "406843"
					},
					"external": {
						"check_1(uint256)": "infinite",
						"check_2(uint256,bool)": "infinite",
						"check_3(uint256,bool)": "infinite",
						"ternary_check_1(uint256)": "infinite",
						"ternary_check_1_2(uint256)": "infinite",
						"ternary_check_2(uint256,bool)": "infinite",
						"ternary_check_3(uint256,bool)": "infinite"
					}
				},
				"methodIdentifiers": {
					"check_1(uint256)": "a4228d68",
					"check_2(uint256,bool)": "b0349a49",
					"check_3(uint256,bool)": "7864d4f2",
					"ternary_check_1(uint256)": "ad275638",
					"ternary_check_1_2(uint256)": "c2678c08",
					"ternary_check_2(uint256,bool)": "f539aca3",
					"ternary_check_3(uint256,bool)": "f54d9580"
				}
			},
			"storageLayout": {
				"storage": [],
				"types": null
			},
			"userdoc": {
				"kind": "user",
				"methods": {},
				"version": 1
			}
		}
	}
}