{
	"5_Day/3_structs.sol": {
		"Todos": {
			"abi": [
				{
					"inputs": [
						{
							"internalType": "string",
							"name": "_task",
							"type": "string"
						}
					],
					"name": "create",
					"outputs": [],
					"stateMutability": "nonpayable",
					"type": "function"
				},
				{
					"inputs": [],
					"name": "getData",
					"outputs": [
						{
							"components": [
								{
									"internalType": "string",
									"name": "task",
									"type": "string"
								},
								{
									"internalType": "bool",
									"name": "completed",
									"type": "bool"
								}
							],
							"internalType": "struct Todos.Todo[]",
							"name": "",
							"type": "tuple[]"
						}
					],
					"stateMutability": "view",
					"type": "function"
				},
				{
					"inputs": [
						{
							"internalType": "uint256",
							"name": "",
							"type": "uint256"
						}
					],
					"name": "todos",
					"outputs": [
						{
							"internalType": "string",
							"name": "task",
							"type": "string"
						},
						{
							"internalType": "bool",
							"name": "completed",
							"type": "bool"
						}
					],
					"stateMutability": "view",
					"type": "function"
				},
				{
					"inputs": [
						{
							"internalType": "uint256",
							"name": "_index",
							"type": "uint256"
						}
					],
					"name": "toggleCompleted",
					"outputs": [],
					"stateMutability": "nonpayable",
					"type": "function"
				},
				{
					"inputs": [
						{
							"internalType": "uint256",
							"name": "_index",
							"type": "uint256"
						},
						{
							"internalType": "string",
							"name": "_task",
							"type": "string"
						}
					],
					"name": "updatetask",
					"outputs": [],
					"stateMutability": "nonpayable",
					"type": "function"
				}
			],
			"devdoc": {
				"kind": "dev",
				"methods": {},
				"version": 1
			},
			"evm": {
				"assembly": "    /* \"5_Day/3_structs.sol\":58:1017  contract Todos {... */\n  mstore(0x40, 0x80)\n  callvalue\n  dup1\n  iszero\n  tag_1\n  jumpi\n  0x00\n  dup1\n  revert\ntag_1:\n  pop\n  dataSize(sub_0)\n  dup1\n  dataOffset(sub_0)\n  0x00\n  codecopy\n  0x00\n  return\nstop\n\nsub_0: assembly {\n        /* \"5_Day/3_structs.sol\":58:1017  contract Todos {... */\n      mstore(0x40, 0x80)\n      callvalue\n      dup1\n      iszero\n      tag_1\n      jumpi\n      0x00\n      dup1\n      revert\n    tag_1:\n      pop\n      jumpi(tag_2, lt(calldatasize, 0x04))\n      shr(0xe0, calldataload(0x00))\n      dup1\n      0x3bc5de30\n      eq\n      tag_3\n      jumpi\n      dup1\n      0x455f5024\n      eq\n      tag_4\n      jumpi\n      dup1\n      0xb6a46b3b\n      eq\n      tag_5\n      jumpi\n      dup1\n      0xbc8bc2b4\n      eq\n      tag_6\n      jumpi\n      dup1\n      0xc38a09cf\n      eq\n      tag_7\n      jumpi\n    tag_2:\n      0x00\n      dup1\n      revert\n        /* \"5_Day/3_structs.sol\":461:545  function getData() public view returns (Todo[] memory) {... */\n    tag_3:\n      tag_8\n      tag_9\n      jump\t// in\n    tag_8:\n      mload(0x40)\n      tag_10\n      swap2\n      swap1\n      tag_11\n      jump\t// in\n    tag_10:\n      mload(0x40)\n      dup1\n      swap2\n      sub\n      swap1\n      return\n        /* \"5_Day/3_structs.sol\":878:1015  function toggleCompleted(uint _index) public {... */\n    tag_4:\n      tag_12\n      0x04\n      dup1\n      calldatasize\n      sub\n      dup2\n      add\n      swap1\n      tag_13\n      swap2\n      swap1\n      tag_14\n      jump\t// in\n    tag_13:\n      tag_15\n      jump\t// in\n    tag_12:\n      stop\n        /* \"5_Day/3_structs.sol\":209:455  function create(string calldata _task) public {... */\n    tag_5:\n      tag_16\n      0x04\n      dup1\n      calldatasize\n      sub\n      dup2\n      add\n      swap1\n      tag_17\n      swap2\n      swap1\n      tag_18\n      jump\t// in\n    tag_17:\n      tag_19\n      jump\t// in\n    tag_16:\n      stop\n        /* \"5_Day/3_structs.sol\":183:202  Todo[] public todos */\n    tag_6:\n      tag_20\n      0x04\n      dup1\n      calldatasize\n      sub\n      dup2\n      add\n      swap1\n      tag_21\n      swap2\n      swap1\n      tag_14\n      jump\t// in\n    tag_21:\n      tag_22\n      jump\t// in\n    tag_20:\n      mload(0x40)\n      tag_23\n      swap3\n      swap2\n      swap1\n      tag_24\n      jump\t// in\n    tag_23:\n      mload(0x40)\n      dup1\n      swap2\n      sub\n      swap1\n      return\n        /* \"5_Day/3_structs.sol\":708:848  function updatetask(uint _index, string calldata _task) public {... */\n    tag_7:\n      tag_25\n      0x04\n      dup1\n      calldatasize\n      sub\n      dup2\n      add\n      swap1\n      tag_26\n      swap2\n      swap1\n      tag_27\n      jump\t// in\n    tag_26:\n      tag_28\n      jump\t// in\n    tag_25:\n      stop\n        /* \"5_Day/3_structs.sol\":461:545  function getData() public view returns (Todo[] memory) {... */\n    tag_9:\n        /* \"5_Day/3_structs.sol\":501:514  Todo[] memory */\n      0x60\n        /* \"5_Day/3_structs.sol\":533:538  todos */\n      0x00\n        /* \"5_Day/3_structs.sol\":526:538  return todos */\n      dup1\n      sload\n      dup1\n      0x20\n      mul\n      0x20\n      add\n      mload(0x40)\n      swap1\n      dup2\n      add\n      0x40\n      mstore\n      dup1\n      swap3\n      swap2\n      swap1\n      dup2\n      dup2\n      mstore\n      0x20\n      add\n      0x00\n      swap1\n    tag_30:\n      dup3\n      dup3\n      lt\n      iszero\n      tag_31\n      jumpi\n      dup4\n      dup3\n      swap1\n      0x00\n      mstore\n      keccak256(0x00, 0x20)\n      swap1\n      0x02\n      mul\n      add\n      mload(0x40)\n      dup1\n      0x40\n      add\n      0x40\n      mstore\n      swap1\n      dup2\n      0x00\n      dup3\n      add\n      dup1\n      sload\n      tag_33\n      swap1\n      tag_34\n      jump\t// in\n    tag_33:\n      dup1\n      0x1f\n      add\n      0x20\n      dup1\n      swap2\n      div\n      mul\n      0x20\n      add\n      mload(0x40)\n      swap1\n      dup2\n      add\n      0x40\n      mstore\n      dup1\n      swap3\n      swap2\n      swap1\n      dup2\n      dup2\n      mstore\n      0x20\n      add\n      dup3\n      dup1\n      sload\n      tag_35\n      swap1\n      tag_34\n      jump\t// in\n    tag_35:\n      dup1\n      iszero\n      tag_36\n      jumpi\n      dup1\n      0x1f\n      lt\n      tag_37\n      jumpi\n      0x0100\n      dup1\n      dup4\n      sload\n      div\n      mul\n      dup4\n      mstore\n      swap2\n      0x20\n      add\n      swap2\n      jump(tag_36)\n    tag_37:\n      dup3\n      add\n      swap2\n      swap1\n      0x00\n      mstore\n      keccak256(0x00, 0x20)\n      swap1\n    tag_38:\n      dup2\n      sload\n      dup2\n      mstore\n      swap1\n      0x01\n      add\n      swap1\n      0x20\n      add\n      dup1\n      dup4\n      gt\n      tag_38\n      jumpi\n      dup3\n      swap1\n      sub\n      0x1f\n      and\n      dup3\n      add\n      swap2\n    tag_36:\n      pop\n      pop\n      pop\n      pop\n      pop\n      dup2\n      mstore\n      0x20\n      add\n      0x01\n      dup3\n      add\n      0x00\n      swap1\n      sload\n      swap1\n      0x0100\n      exp\n      swap1\n      div\n      0xff\n      and\n      iszero\n      iszero\n      iszero\n      iszero\n      dup2\n      mstore\n      pop\n      pop\n      dup2\n      mstore\n      0x20\n      add\n      swap1\n      0x01\n      add\n      swap1\n      jump(tag_30)\n    tag_31:\n      pop\n      pop\n      pop\n      pop\n      swap1\n      pop\n        /* \"5_Day/3_structs.sol\":461:545  function getData() public view returns (Todo[] memory) {... */\n      swap1\n      jump\t// out\n        /* \"5_Day/3_structs.sol\":878:1015  function toggleCompleted(uint _index) public {... */\n    tag_15:\n        /* \"5_Day/3_structs.sol\":933:950  Todo storage todo */\n      0x00\n        /* \"5_Day/3_structs.sol\":953:958  todos */\n      dup1\n        /* \"5_Day/3_structs.sol\":959:965  _index */\n      dup3\n        /* \"5_Day/3_structs.sol\":953:966  todos[_index] */\n      dup2\n      sload\n      dup2\n      lt\n      tag_40\n      jumpi\n      tag_41\n      tag_42\n      jump\t// in\n    tag_41:\n    tag_40:\n      swap1\n      0x00\n      mstore\n      keccak256(0x00, 0x20)\n      swap1\n      0x02\n      mul\n      add\n        /* \"5_Day/3_structs.sol\":933:966  Todo storage todo = todos[_index] */\n      swap1\n      pop\n        /* \"5_Day/3_structs.sol\":994:998  todo */\n      dup1\n        /* \"5_Day/3_structs.sol\":994:1008  todo.completed */\n      0x01\n      add\n      0x00\n      swap1\n      sload\n      swap1\n      0x0100\n      exp\n      swap1\n      div\n      0xff\n      and\n        /* \"5_Day/3_structs.sol\":993:1008  !todo.completed */\n      iszero\n        /* \"5_Day/3_structs.sol\":976:980  todo */\n      dup2\n        /* \"5_Day/3_structs.sol\":976:990  todo.completed */\n      0x01\n      add\n      0x00\n        /* \"5_Day/3_structs.sol\":976:1008  todo.completed = !todo.completed */\n      0x0100\n      exp\n      dup2\n      sload\n      dup2\n      0xff\n      mul\n      not\n      and\n      swap1\n      dup4\n      iszero\n      iszero\n      mul\n      or\n      swap1\n      sstore\n      pop\n        /* \"5_Day/3_structs.sol\":923:1015  {... */\n      pop\n        /* \"5_Day/3_structs.sol\":878:1015  function toggleCompleted(uint _index) public {... */\n      pop\n      jump\t// out\n        /* \"5_Day/3_structs.sol\":209:455  function create(string calldata _task) public {... */\n    tag_19:\n        /* \"5_Day/3_structs.sol\":310:315  todos */\n      0x00\n        /* \"5_Day/3_structs.sol\":321:358  Todo({task: _task, completed: false}) */\n      mload(0x40)\n      dup1\n      0x40\n      add\n      0x40\n      mstore\n      dup1\n        /* \"5_Day/3_structs.sol\":333:338  _task */\n      dup5\n      dup5\n        /* \"5_Day/3_structs.sol\":321:358  Todo({task: _task, completed: false}) */\n      dup1\n      dup1\n      0x1f\n      add\n      0x20\n      dup1\n      swap2\n      div\n      mul\n      0x20\n      add\n      mload(0x40)\n      swap1\n      dup2\n      add\n      0x40\n      mstore\n      dup1\n      swap4\n      swap3\n      swap2\n      swap1\n      dup2\n      dup2\n      mstore\n      0x20\n      add\n      dup4\n      dup4\n      dup1\n      dup3\n      dup5\n      calldatacopy\n      0x00\n      dup2\n      dup5\n      add\n      mstore\n      not(0x1f)\n      0x1f\n      dup3\n      add\n      and\n      swap1\n      pop\n      dup1\n      dup4\n      add\n      swap3\n      pop\n      pop\n      pop\n      pop\n      pop\n      pop\n      pop\n      dup2\n      mstore\n      0x20\n      add\n        /* \"5_Day/3_structs.sol\":351:356  false */\n      0x00\n        /* \"5_Day/3_structs.sol\":321:358  Todo({task: _task, completed: false}) */\n      iszero\n      iszero\n      dup2\n      mstore\n      pop\n        /* \"5_Day/3_structs.sol\":310:359  todos.push(Todo({task: _task, completed: false})) */\n      swap1\n      dup1\n      0x01\n      dup2\n      sload\n      add\n      dup1\n      dup3\n      sstore\n      dup1\n      swap2\n      pop\n      pop\n      0x01\n      swap1\n      sub\n      swap1\n      0x00\n      mstore\n      keccak256(0x00, 0x20)\n      swap1\n      0x02\n      mul\n      add\n      0x00\n      swap1\n      swap2\n      swap1\n      swap2\n      swap1\n      swap2\n      pop\n      0x00\n      dup3\n      add\n      mload\n      dup2\n      0x00\n      add\n      swap1\n      dup2\n      tag_46\n      swap2\n      swap1\n      tag_47\n      jump\t// in\n    tag_46:\n      pop\n      0x20\n      dup3\n      add\n      mload\n      dup2\n      0x01\n      add\n      exp(0x0100, 0x00)\n      dup2\n      sload\n      dup2\n      0xff\n      mul\n      not\n      and\n      swap1\n      dup4\n      iszero\n      iszero\n      mul\n      or\n      swap1\n      sstore\n      pop\n      pop\n      pop\n        /* \"5_Day/3_structs.sol\":209:455  function create(string calldata _task) public {... */\n      pop\n      pop\n      jump\t// out\n        /* \"5_Day/3_structs.sol\":183:202  Todo[] public todos */\n    tag_22:\n      0x00\n      dup2\n      dup2\n      sload\n      dup2\n      lt\n      tag_48\n      jumpi\n      0x00\n      dup1\n      revert\n    tag_48:\n      swap1\n      0x00\n      mstore\n      keccak256(0x00, 0x20)\n      swap1\n      0x02\n      mul\n      add\n      0x00\n      swap2\n      pop\n      swap1\n      pop\n      dup1\n      0x00\n      add\n      dup1\n      sload\n      tag_50\n      swap1\n      tag_34\n      jump\t// in\n    tag_50:\n      dup1\n      0x1f\n      add\n      0x20\n      dup1\n      swap2\n      div\n      mul\n      0x20\n      add\n      mload(0x40)\n      swap1\n      dup2\n      add\n      0x40\n      mstore\n      dup1\n      swap3\n      swap2\n      swap1\n      dup2\n      dup2\n      mstore\n      0x20\n      add\n      dup3\n      dup1\n      sload\n      tag_51\n      swap1\n      tag_34\n      jump\t// in\n    tag_51:\n      dup1\n      iszero\n      tag_52\n      jumpi\n      dup1\n      0x1f\n      lt\n      tag_53\n      jumpi\n      0x0100\n      dup1\n      dup4\n      sload\n      div\n      mul\n      dup4\n      mstore\n      swap2\n      0x20\n      add\n      swap2\n      jump(tag_52)\n    tag_53:\n      dup3\n      add\n      swap2\n      swap1\n      0x00\n      mstore\n      keccak256(0x00, 0x20)\n      swap1\n    tag_54:\n      dup2\n      sload\n      dup2\n      mstore\n      swap1\n      0x01\n      add\n      swap1\n      0x20\n      add\n      dup1\n      dup4\n      gt\n      tag_54\n      jumpi\n      dup3\n      swap1\n      sub\n      0x1f\n      and\n      dup3\n      add\n      swap2\n    tag_52:\n      pop\n      pop\n      pop\n      pop\n      pop\n      swap1\n      dup1\n      0x01\n      add\n      0x00\n      swap1\n      sload\n      swap1\n      0x0100\n      exp\n      swap1\n      div\n      0xff\n      and\n      swap1\n      pop\n      dup3\n      jump\t// out\n        /* \"5_Day/3_structs.sol\":708:848  function updatetask(uint _index, string calldata _task) public {... */\n    tag_28:\n        /* \"5_Day/3_structs.sol\":781:798  Todo storage todo */\n      0x00\n        /* \"5_Day/3_structs.sol\":801:806  todos */\n      dup1\n        /* \"5_Day/3_structs.sol\":807:813  _index */\n      dup5\n        /* \"5_Day/3_structs.sol\":801:814  todos[_index] */\n      dup2\n      sload\n      dup2\n      lt\n      tag_56\n      jumpi\n      tag_57\n      tag_42\n      jump\t// in\n    tag_57:\n    tag_56:\n      swap1\n      0x00\n      mstore\n      keccak256(0x00, 0x20)\n      swap1\n      0x02\n      mul\n      add\n        /* \"5_Day/3_structs.sol\":781:814  Todo storage todo = todos[_index] */\n      swap1\n      pop\n        /* \"5_Day/3_structs.sol\":836:841  _task */\n      dup3\n      dup3\n        /* \"5_Day/3_structs.sol\":824:828  todo */\n      dup3\n        /* \"5_Day/3_structs.sol\":824:833  todo.task */\n      0x00\n      add\n        /* \"5_Day/3_structs.sol\":824:841  todo.task = _task */\n      swap2\n      dup3\n      tag_59\n      swap3\n      swap2\n      swap1\n      tag_60\n      jump\t// in\n    tag_59:\n      pop\n        /* \"5_Day/3_structs.sol\":771:848  {... */\n      pop\n        /* \"5_Day/3_structs.sol\":708:848  function updatetask(uint _index, string calldata _task) public {... */\n      pop\n      pop\n      pop\n      jump\t// out\n        /* \"#utility.yul\":7:140   */\n    tag_61:\n        /* \"#utility.yul\":93:99   */\n      0x00\n        /* \"#utility.yul\":127:132   */\n      dup2\n        /* \"#utility.yul\":121:133   */\n      mload\n        /* \"#utility.yul\":111:133   */\n      swap1\n      pop\n        /* \"#utility.yul\":7:140   */\n      swap2\n      swap1\n      pop\n      jump\t// out\n        /* \"#utility.yul\":146:349   */\n    tag_62:\n        /* \"#utility.yul\":264:275   */\n      0x00\n        /* \"#utility.yul\":298:304   */\n      dup3\n        /* \"#utility.yul\":293:296   */\n      dup3\n        /* \"#utility.yul\":286:305   */\n      mstore\n        /* \"#utility.yul\":338:342   */\n      0x20\n        /* \"#utility.yul\":333:336   */\n      dup3\n        /* \"#utility.yul\":329:343   */\n      add\n        /* \"#utility.yul\":314:343   */\n      swap1\n      pop\n        /* \"#utility.yul\":146:349   */\n      swap3\n      swap2\n      pop\n      pop\n      jump\t// out\n        /* \"#utility.yul\":355:506   */\n    tag_63:\n        /* \"#utility.yul\":441:445   */\n      0x00\n        /* \"#utility.yul\":464:467   */\n      dup2\n        /* \"#utility.yul\":456:467   */\n      swap1\n      pop\n        /* \"#utility.yul\":494:498   */\n      0x20\n        /* \"#utility.yul\":489:492   */\n      dup3\n        /* \"#utility.yul\":485:499   */\n      add\n        /* \"#utility.yul\":477:499   */\n      swap1\n      pop\n        /* \"#utility.yul\":355:506   */\n      swap2\n      swap1\n      pop\n      jump\t// out\n        /* \"#utility.yul\":512:611   */\n    tag_64:\n        /* \"#utility.yul\":564:570   */\n      0x00\n        /* \"#utility.yul\":598:603   */\n      dup2\n        /* \"#utility.yul\":592:604   */\n      mload\n        /* \"#utility.yul\":582:604   */\n      swap1\n      pop\n        /* \"#utility.yul\":512:611   */\n      swap2\n      swap1\n      pop\n      jump\t// out\n        /* \"#utility.yul\":617:776   */\n    tag_65:\n        /* \"#utility.yul\":691:702   */\n      0x00\n        /* \"#utility.yul\":725:731   */\n      dup3\n        /* \"#utility.yul\":720:723   */\n      dup3\n        /* \"#utility.yul\":713:732   */\n      mstore\n        /* \"#utility.yul\":765:769   */\n      0x20\n        /* \"#utility.yul\":760:763   */\n      dup3\n        /* \"#utility.yul\":756:770   */\n      add\n        /* \"#utility.yul\":741:770   */\n      swap1\n      pop\n        /* \"#utility.yul\":617:776   */\n      swap3\n      swap2\n      pop\n      pop\n      jump\t// out\n        /* \"#utility.yul\":782:1028   */\n    tag_66:\n        /* \"#utility.yul\":863:864   */\n      0x00\n        /* \"#utility.yul\":873:986   */\n    tag_113:\n        /* \"#utility.yul\":887:893   */\n      dup4\n        /* \"#utility.yul\":884:885   */\n      dup2\n        /* \"#utility.yul\":881:894   */\n      lt\n        /* \"#utility.yul\":873:986   */\n      iszero\n      tag_115\n      jumpi\n        /* \"#utility.yul\":972:973   */\n      dup1\n        /* \"#utility.yul\":967:970   */\n      dup3\n        /* \"#utility.yul\":963:974   */\n      add\n        /* \"#utility.yul\":957:975   */\n      mload\n        /* \"#utility.yul\":953:954   */\n      dup2\n        /* \"#utility.yul\":948:951   */\n      dup5\n        /* \"#utility.yul\":944:955   */\n      add\n        /* \"#utility.yul\":937:976   */\n      mstore\n        /* \"#utility.yul\":909:911   */\n      0x20\n        /* \"#utility.yul\":906:907   */\n      dup2\n        /* \"#utility.yul\":902:912   */\n      add\n        /* \"#utility.yul\":897:912   */\n      swap1\n      pop\n        /* \"#utility.yul\":873:986   */\n      jump(tag_113)\n    tag_115:\n        /* \"#utility.yul\":1020:1021   */\n      0x00\n        /* \"#utility.yul\":1011:1017   */\n      dup5\n        /* \"#utility.yul\":1006:1009   */\n      dup5\n        /* \"#utility.yul\":1002:1018   */\n      add\n        /* \"#utility.yul\":995:1022   */\n      mstore\n        /* \"#utility.yul\":844:1028   */\n      pop\n        /* \"#utility.yul\":782:1028   */\n      pop\n      pop\n      pop\n      jump\t// out\n        /* \"#utility.yul\":1034:1136   */\n    tag_67:\n        /* \"#utility.yul\":1075:1081   */\n      0x00\n        /* \"#utility.yul\":1126:1128   */\n      0x1f\n        /* \"#utility.yul\":1122:1129   */\n      not\n        /* \"#utility.yul\":1117:1119   */\n      0x1f\n        /* \"#utility.yul\":1110:1115   */\n      dup4\n        /* \"#utility.yul\":1106:1120   */\n      add\n        /* \"#utility.yul\":1102:1130   */\n      and\n        /* \"#utility.yul\":1092:1130   */\n      swap1\n      pop\n        /* \"#utility.yul\":1034:1136   */\n      swap2\n      swap1\n      pop\n      jump\t// out\n        /* \"#utility.yul\":1142:1499   */\n    tag_68:\n        /* \"#utility.yul\":1220:1223   */\n      0x00\n        /* \"#utility.yul\":1248:1287   */\n      tag_118\n        /* \"#utility.yul\":1281:1286   */\n      dup3\n        /* \"#utility.yul\":1248:1287   */\n      tag_64\n      jump\t// in\n    tag_118:\n        /* \"#utility.yul\":1303:1364   */\n      tag_119\n        /* \"#utility.yul\":1357:1363   */\n      dup2\n        /* \"#utility.yul\":1352:1355   */\n      dup6\n        /* \"#utility.yul\":1303:1364   */\n      tag_65\n      jump\t// in\n    tag_119:\n        /* \"#utility.yul\":1296:1364   */\n      swap4\n      pop\n        /* \"#utility.yul\":1373:1438   */\n      tag_120\n        /* \"#utility.yul\":1431:1437   */\n      dup2\n        /* \"#utility.yul\":1426:1429   */\n      dup6\n        /* \"#utility.yul\":1419:1423   */\n      0x20\n        /* \"#utility.yul\":1412:1417   */\n      dup7\n        /* \"#utility.yul\":1408:1424   */\n      add\n        /* \"#utility.yul\":1373:1438   */\n      tag_66\n      jump\t// in\n    tag_120:\n        /* \"#utility.yul\":1463:1492   */\n      tag_121\n        /* \"#utility.yul\":1485:1491   */\n      dup2\n        /* \"#utility.yul\":1463:1492   */\n      tag_67\n      jump\t// in\n    tag_121:\n        /* \"#utility.yul\":1458:1461   */\n      dup5\n        /* \"#utility.yul\":1454:1493   */\n      add\n        /* \"#utility.yul\":1447:1493   */\n      swap2\n      pop\n        /* \"#utility.yul\":1224:1499   */\n      pop\n        /* \"#utility.yul\":1142:1499   */\n      swap3\n      swap2\n      pop\n      pop\n      jump\t// out\n        /* \"#utility.yul\":1505:1595   */\n    tag_69:\n        /* \"#utility.yul\":1539:1546   */\n      0x00\n        /* \"#utility.yul\":1582:1587   */\n      dup2\n        /* \"#utility.yul\":1575:1588   */\n      iszero\n        /* \"#utility.yul\":1568:1589   */\n      iszero\n        /* \"#utility.yul\":1557:1589   */\n      swap1\n      pop\n        /* \"#utility.yul\":1505:1595   */\n      swap2\n      swap1\n      pop\n      jump\t// out\n        /* \"#utility.yul\":1601:1700   */\n    tag_70:\n        /* \"#utility.yul\":1672:1693   */\n      tag_124\n        /* \"#utility.yul\":1687:1692   */\n      dup2\n        /* \"#utility.yul\":1672:1693   */\n      tag_69\n      jump\t// in\n    tag_124:\n        /* \"#utility.yul\":1667:1670   */\n      dup3\n        /* \"#utility.yul\":1660:1694   */\n      mstore\n        /* \"#utility.yul\":1601:1700   */\n      pop\n      pop\n      jump\t// out\n        /* \"#utility.yul\":1752:2335   */\n    tag_71:\n        /* \"#utility.yul\":1849:1852   */\n      0x00\n        /* \"#utility.yul\":1885:1889   */\n      0x40\n        /* \"#utility.yul\":1880:1883   */\n      dup4\n        /* \"#utility.yul\":1876:1890   */\n      add\n        /* \"#utility.yul\":1972:1976   */\n      0x00\n        /* \"#utility.yul\":1965:1970   */\n      dup4\n        /* \"#utility.yul\":1961:1977   */\n      add\n        /* \"#utility.yul\":1955:1978   */\n      mload\n        /* \"#utility.yul\":2025:2028   */\n      dup5\n        /* \"#utility.yul\":2019:2023   */\n      dup3\n        /* \"#utility.yul\":2015:2029   */\n      sub\n        /* \"#utility.yul\":2008:2012   */\n      0x00\n        /* \"#utility.yul\":2003:2006   */\n      dup7\n        /* \"#utility.yul\":1999:2013   */\n      add\n        /* \"#utility.yul\":1992:2030   */\n      mstore\n        /* \"#utility.yul\":2051:2124   */\n      tag_126\n        /* \"#utility.yul\":2119:2123   */\n      dup3\n        /* \"#utility.yul\":2105:2117   */\n      dup3\n        /* \"#utility.yul\":2051:2124   */\n      tag_68\n      jump\t// in\n    tag_126:\n        /* \"#utility.yul\":2043:2124   */\n      swap2\n      pop\n        /* \"#utility.yul\":1900:2135   */\n      pop\n        /* \"#utility.yul\":2222:2226   */\n      0x20\n        /* \"#utility.yul\":2215:2220   */\n      dup4\n        /* \"#utility.yul\":2211:2227   */\n      add\n        /* \"#utility.yul\":2205:2228   */\n      mload\n        /* \"#utility.yul\":2241:2298   */\n      tag_127\n        /* \"#utility.yul\":2292:2296   */\n      0x20\n        /* \"#utility.yul\":2287:2290   */\n      dup7\n        /* \"#utility.yul\":2283:2297   */\n      add\n        /* \"#utility.yul\":2269:2281   */\n      dup3\n        /* \"#utility.yul\":2241:2298   */\n      tag_70\n      jump\t// in\n    tag_127:\n        /* \"#utility.yul\":2145:2308   */\n      pop\n        /* \"#utility.yul\":2325:2329   */\n      dup1\n        /* \"#utility.yul\":2318:2329   */\n      swap2\n      pop\n        /* \"#utility.yul\":1854:2335   */\n      pop\n        /* \"#utility.yul\":1752:2335   */\n      swap3\n      swap2\n      pop\n      pop\n      jump\t// out\n        /* \"#utility.yul\":2341:2573   */\n    tag_72:\n        /* \"#utility.yul\":2448:2458   */\n      0x00\n        /* \"#utility.yul\":2483:2567   */\n      tag_129\n        /* \"#utility.yul\":2563:2566   */\n      dup4\n        /* \"#utility.yul\":2555:2561   */\n      dup4\n        /* \"#utility.yul\":2483:2567   */\n      tag_71\n      jump\t// in\n    tag_129:\n        /* \"#utility.yul\":2469:2567   */\n      swap1\n      pop\n        /* \"#utility.yul\":2341:2573   */\n      swap3\n      swap2\n      pop\n      pop\n      jump\t// out\n        /* \"#utility.yul\":2579:2711   */\n    tag_73:\n        /* \"#utility.yul\":2668:2672   */\n      0x00\n        /* \"#utility.yul\":2700:2704   */\n      0x20\n        /* \"#utility.yul\":2695:2698   */\n      dup3\n        /* \"#utility.yul\":2691:2705   */\n      add\n        /* \"#utility.yul\":2683:2705   */\n      swap1\n      pop\n        /* \"#utility.yul\":2579:2711   */\n      swap2\n      swap1\n      pop\n      jump\t// out\n        /* \"#utility.yul\":2767:3830   */\n    tag_74:\n        /* \"#utility.yul\":2924:2927   */\n      0x00\n        /* \"#utility.yul\":2953:3026   */\n      tag_132\n        /* \"#utility.yul\":3020:3025   */\n      dup3\n        /* \"#utility.yul\":2953:3026   */\n      tag_61\n      jump\t// in\n    tag_132:\n        /* \"#utility.yul\":3042:3147   */\n      tag_133\n        /* \"#utility.yul\":3140:3146   */\n      dup2\n        /* \"#utility.yul\":3135:3138   */\n      dup6\n        /* \"#utility.yul\":3042:3147   */\n      tag_62\n      jump\t// in\n    tag_133:\n        /* \"#utility.yul\":3035:3147   */\n      swap4\n      pop\n        /* \"#utility.yul\":3173:3176   */\n      dup4\n        /* \"#utility.yul\":3218:3222   */\n      0x20\n        /* \"#utility.yul\":3210:3216   */\n      dup3\n        /* \"#utility.yul\":3206:3223   */\n      mul\n        /* \"#utility.yul\":3201:3204   */\n      dup6\n        /* \"#utility.yul\":3197:3224   */\n      add\n        /* \"#utility.yul\":3248:3323   */\n      tag_134\n        /* \"#utility.yul\":3317:3322   */\n      dup6\n        /* \"#utility.yul\":3248:3323   */\n      tag_63\n      jump\t// in\n    tag_134:\n        /* \"#utility.yul\":3346:3353   */\n      dup1\n        /* \"#utility.yul\":3377:3378   */\n      0x00\n        /* \"#utility.yul\":3362:3785   */\n    tag_135:\n        /* \"#utility.yul\":3387:3393   */\n      dup6\n        /* \"#utility.yul\":3384:3385   */\n      dup2\n        /* \"#utility.yul\":3381:3394   */\n      lt\n        /* \"#utility.yul\":3362:3785   */\n      iszero\n      tag_137\n      jumpi\n        /* \"#utility.yul\":3458:3467   */\n      dup5\n        /* \"#utility.yul\":3452:3456   */\n      dup5\n        /* \"#utility.yul\":3448:3468   */\n      sub\n        /* \"#utility.yul\":3443:3446   */\n      dup10\n        /* \"#utility.yul\":3436:3469   */\n      mstore\n        /* \"#utility.yul\":3509:3515   */\n      dup2\n        /* \"#utility.yul\":3503:3516   */\n      mload\n        /* \"#utility.yul\":3537:3639   */\n      tag_138\n        /* \"#utility.yul\":3634:3638   */\n      dup6\n        /* \"#utility.yul\":3619:3632   */\n      dup3\n        /* \"#utility.yul\":3537:3639   */\n      tag_72\n      jump\t// in\n    tag_138:\n        /* \"#utility.yul\":3529:3639   */\n      swap5\n      pop\n        /* \"#utility.yul\":3662:3741   */\n      tag_139\n        /* \"#utility.yul\":3734:3740   */\n      dup4\n        /* \"#utility.yul\":3662:3741   */\n      tag_73\n      jump\t// in\n    tag_139:\n        /* \"#utility.yul\":3652:3741   */\n      swap3\n      pop\n        /* \"#utility.yul\":3770:3774   */\n      0x20\n        /* \"#utility.yul\":3765:3768   */\n      dup11\n        /* \"#utility.yul\":3761:3775   */\n      add\n        /* \"#utility.yul\":3754:3775   */\n      swap10\n      pop\n        /* \"#utility.yul\":3422:3785   */\n      pop\n        /* \"#utility.yul\":3409:3410   */\n      0x01\n        /* \"#utility.yul\":3406:3407   */\n      dup2\n        /* \"#utility.yul\":3402:3411   */\n      add\n        /* \"#utility.yul\":3397:3411   */\n      swap1\n      pop\n        /* \"#utility.yul\":3362:3785   */\n      jump(tag_135)\n    tag_137:\n        /* \"#utility.yul\":3366:3380   */\n      pop\n        /* \"#utility.yul\":3801:3805   */\n      dup3\n        /* \"#utility.yul\":3794:3805   */\n      swap8\n      pop\n        /* \"#utility.yul\":3821:3824   */\n      dup8\n        /* \"#utility.yul\":3814:3824   */\n      swap6\n      pop\n        /* \"#utility.yul\":2929:3830   */\n      pop\n      pop\n      pop\n      pop\n      pop\n        /* \"#utility.yul\":2767:3830   */\n      swap3\n      swap2\n      pop\n      pop\n      jump\t// out\n        /* \"#utility.yul\":3836:4285   */\n    tag_11:\n        /* \"#utility.yul\":4017:4021   */\n      0x00\n        /* \"#utility.yul\":4055:4057   */\n      0x20\n        /* \"#utility.yul\":4044:4053   */\n      dup3\n        /* \"#utility.yul\":4040:4058   */\n      add\n        /* \"#utility.yul\":4032:4058   */\n      swap1\n      pop\n        /* \"#utility.yul\":4104:4113   */\n      dup2\n        /* \"#utility.yul\":4098:4102   */\n      dup2\n        /* \"#utility.yul\":4094:4114   */\n      sub\n        /* \"#utility.yul\":4090:4091   */\n      0x00\n        /* \"#utility.yul\":4079:4088   */\n      dup4\n        /* \"#utility.yul\":4075:4092   */\n      add\n        /* \"#utility.yul\":4068:4115   */\n      mstore\n        /* \"#utility.yul\":4132:4278   */\n      tag_141\n        /* \"#utility.yul\":4273:4277   */\n      dup2\n        /* \"#utility.yul\":4264:4270   */\n      dup5\n        /* \"#utility.yul\":4132:4278   */\n      tag_74\n      jump\t// in\n    tag_141:\n        /* \"#utility.yul\":4124:4278   */\n      swap1\n      pop\n        /* \"#utility.yul\":3836:4285   */\n      swap3\n      swap2\n      pop\n      pop\n      jump\t// out\n        /* \"#utility.yul\":4372:4489   */\n    tag_76:\n        /* \"#utility.yul\":4481:4482   */\n      0x00\n        /* \"#utility.yul\":4478:4479   */\n      dup1\n        /* \"#utility.yul\":4471:4483   */\n      revert\n        /* \"#utility.yul\":4495:4612   */\n    tag_77:\n        /* \"#utility.yul\":4604:4605   */\n      0x00\n        /* \"#utility.yul\":4601:4602   */\n      dup1\n        /* \"#utility.yul\":4594:4606   */\n      revert\n        /* \"#utility.yul\":4618:4695   */\n    tag_78:\n        /* \"#utility.yul\":4655:4662   */\n      0x00\n        /* \"#utility.yul\":4684:4689   */\n      dup2\n        /* \"#utility.yul\":4673:4689   */\n      swap1\n      pop\n        /* \"#utility.yul\":4618:4695   */\n      swap2\n      swap1\n      pop\n      jump\t// out\n        /* \"#utility.yul\":4701:4823   */\n    tag_79:\n        /* \"#utility.yul\":4774:4798   */\n      tag_147\n        /* \"#utility.yul\":4792:4797   */\n      dup2\n        /* \"#utility.yul\":4774:4798   */\n      tag_78\n      jump\t// in\n    tag_147:\n        /* \"#utility.yul\":4767:4772   */\n      dup2\n        /* \"#utility.yul\":4764:4799   */\n      eq\n        /* \"#utility.yul\":4754:4817   */\n      tag_148\n      jumpi\n        /* \"#utility.yul\":4813:4814   */\n      0x00\n        /* \"#utility.yul\":4810:4811   */\n      dup1\n        /* \"#utility.yul\":4803:4815   */\n      revert\n        /* \"#utility.yul\":4754:4817   */\n    tag_148:\n        /* \"#utility.yul\":4701:4823   */\n      pop\n      jump\t// out\n        /* \"#utility.yul\":4829:4968   */\n    tag_80:\n        /* \"#utility.yul\":4875:4880   */\n      0x00\n        /* \"#utility.yul\":4913:4919   */\n      dup2\n        /* \"#utility.yul\":4900:4920   */\n      calldataload\n        /* \"#utility.yul\":4891:4920   */\n      swap1\n      pop\n        /* \"#utility.yul\":4929:4962   */\n      tag_150\n        /* \"#utility.yul\":4956:4961   */\n      dup2\n        /* \"#utility.yul\":4929:4962   */\n      tag_79\n      jump\t// in\n    tag_150:\n        /* \"#utility.yul\":4829:4968   */\n      swap3\n      swap2\n      pop\n      pop\n      jump\t// out\n        /* \"#utility.yul\":4974:5303   */\n    tag_14:\n        /* \"#utility.yul\":5033:5039   */\n      0x00\n        /* \"#utility.yul\":5082:5084   */\n      0x20\n        /* \"#utility.yul\":5070:5079   */\n      dup3\n        /* \"#utility.yul\":5061:5068   */\n      dup5\n        /* \"#utility.yul\":5057:5080   */\n      sub\n        /* \"#utility.yul\":5053:5085   */\n      slt\n        /* \"#utility.yul\":5050:5169   */\n      iszero\n      tag_152\n      jumpi\n        /* \"#utility.yul\":5088:5167   */\n      tag_153\n      tag_76\n      jump\t// in\n    tag_153:\n        /* \"#utility.yul\":5050:5169   */\n    tag_152:\n        /* \"#utility.yul\":5208:5209   */\n      0x00\n        /* \"#utility.yul\":5233:5286   */\n      tag_154\n        /* \"#utility.yul\":5278:5285   */\n      dup5\n        /* \"#utility.yul\":5269:5275   */\n      dup3\n        /* \"#utility.yul\":5258:5267   */\n      dup6\n        /* \"#utility.yul\":5254:5276   */\n      add\n        /* \"#utility.yul\":5233:5286   */\n      tag_80\n      jump\t// in\n    tag_154:\n        /* \"#utility.yul\":5223:5286   */\n      swap2\n      pop\n        /* \"#utility.yul\":5179:5296   */\n      pop\n        /* \"#utility.yul\":4974:5303   */\n      swap3\n      swap2\n      pop\n      pop\n      jump\t// out\n        /* \"#utility.yul\":5309:5426   */\n    tag_81:\n        /* \"#utility.yul\":5418:5419   */\n      0x00\n        /* \"#utility.yul\":5415:5416   */\n      dup1\n        /* \"#utility.yul\":5408:5420   */\n      revert\n        /* \"#utility.yul\":5432:5549   */\n    tag_82:\n        /* \"#utility.yul\":5541:5542   */\n      0x00\n        /* \"#utility.yul\":5538:5539   */\n      dup1\n        /* \"#utility.yul\":5531:5543   */\n      revert\n        /* \"#utility.yul\":5555:5672   */\n    tag_83:\n        /* \"#utility.yul\":5664:5665   */\n      0x00\n        /* \"#utility.yul\":5661:5662   */\n      dup1\n        /* \"#utility.yul\":5654:5666   */\n      revert\n        /* \"#utility.yul\":5692:6245   */\n    tag_84:\n        /* \"#utility.yul\":5750:5758   */\n      0x00\n        /* \"#utility.yul\":5760:5766   */\n      dup1\n        /* \"#utility.yul\":5810:5813   */\n      dup4\n        /* \"#utility.yul\":5803:5807   */\n      0x1f\n        /* \"#utility.yul\":5795:5801   */\n      dup5\n        /* \"#utility.yul\":5791:5808   */\n      add\n        /* \"#utility.yul\":5787:5814   */\n      slt\n        /* \"#utility.yul\":5777:5899   */\n      tag_159\n      jumpi\n        /* \"#utility.yul\":5818:5897   */\n      tag_160\n      tag_81\n      jump\t// in\n    tag_160:\n        /* \"#utility.yul\":5777:5899   */\n    tag_159:\n        /* \"#utility.yul\":5931:5937   */\n      dup3\n        /* \"#utility.yul\":5918:5938   */\n      calldataload\n        /* \"#utility.yul\":5908:5938   */\n      swap1\n      pop\n        /* \"#utility.yul\":5961:5979   */\n      0xffffffffffffffff\n        /* \"#utility.yul\":5953:5959   */\n      dup2\n        /* \"#utility.yul\":5950:5980   */\n      gt\n        /* \"#utility.yul\":5947:6064   */\n      iszero\n      tag_161\n      jumpi\n        /* \"#utility.yul\":5983:6062   */\n      tag_162\n      tag_82\n      jump\t// in\n    tag_162:\n        /* \"#utility.yul\":5947:6064   */\n    tag_161:\n        /* \"#utility.yul\":6097:6101   */\n      0x20\n        /* \"#utility.yul\":6089:6095   */\n      dup4\n        /* \"#utility.yul\":6085:6102   */\n      add\n        /* \"#utility.yul\":6073:6102   */\n      swap2\n      pop\n        /* \"#utility.yul\":6151:6154   */\n      dup4\n        /* \"#utility.yul\":6143:6147   */\n      0x01\n        /* \"#utility.yul\":6135:6141   */\n      dup3\n        /* \"#utility.yul\":6131:6148   */\n      mul\n        /* \"#utility.yul\":6121:6129   */\n      dup4\n        /* \"#utility.yul\":6117:6149   */\n      add\n        /* \"#utility.yul\":6114:6155   */\n      gt\n        /* \"#utility.yul\":6111:6239   */\n      iszero\n      tag_163\n      jumpi\n        /* \"#utility.yul\":6158:6237   */\n      tag_164\n      tag_83\n      jump\t// in\n    tag_164:\n        /* \"#utility.yul\":6111:6239   */\n    tag_163:\n        /* \"#utility.yul\":5692:6245   */\n      swap3\n      pop\n      swap3\n      swap1\n      pop\n      jump\t// out\n        /* \"#utility.yul\":6251:6780   */\n    tag_18:\n        /* \"#utility.yul\":6322:6328   */\n      0x00\n        /* \"#utility.yul\":6330:6336   */\n      dup1\n        /* \"#utility.yul\":6379:6381   */\n      0x20\n        /* \"#utility.yul\":6367:6376   */\n      dup4\n        /* \"#utility.yul\":6358:6365   */\n      dup6\n        /* \"#utility.yul\":6354:6377   */\n      sub\n        /* \"#utility.yul\":6350:6382   */\n      slt\n        /* \"#utility.yul\":6347:6466   */\n      iszero\n      tag_166\n      jumpi\n        /* \"#utility.yul\":6385:6464   */\n      tag_167\n      tag_76\n      jump\t// in\n    tag_167:\n        /* \"#utility.yul\":6347:6466   */\n    tag_166:\n        /* \"#utility.yul\":6533:6534   */\n      0x00\n        /* \"#utility.yul\":6522:6531   */\n      dup4\n        /* \"#utility.yul\":6518:6535   */\n      add\n        /* \"#utility.yul\":6505:6536   */\n      calldataload\n        /* \"#utility.yul\":6563:6581   */\n      0xffffffffffffffff\n        /* \"#utility.yul\":6555:6561   */\n      dup2\n        /* \"#utility.yul\":6552:6582   */\n      gt\n        /* \"#utility.yul\":6549:6666   */\n      iszero\n      tag_168\n      jumpi\n        /* \"#utility.yul\":6585:6664   */\n      tag_169\n      tag_77\n      jump\t// in\n    tag_169:\n        /* \"#utility.yul\":6549:6666   */\n    tag_168:\n        /* \"#utility.yul\":6698:6763   */\n      tag_170\n        /* \"#utility.yul\":6755:6762   */\n      dup6\n        /* \"#utility.yul\":6746:6752   */\n      dup3\n        /* \"#utility.yul\":6735:6744   */\n      dup7\n        /* \"#utility.yul\":6731:6753   */\n      add\n        /* \"#utility.yul\":6698:6763   */\n      tag_84\n      jump\t// in\n    tag_170:\n        /* \"#utility.yul\":6680:6763   */\n      swap3\n      pop\n      swap3\n      pop\n        /* \"#utility.yul\":6476:6773   */\n      pop\n        /* \"#utility.yul\":6251:6780   */\n      swap3\n      pop\n      swap3\n      swap1\n      pop\n      jump\t// out\n        /* \"#utility.yul\":6786:6955   */\n    tag_85:\n        /* \"#utility.yul\":6870:6881   */\n      0x00\n        /* \"#utility.yul\":6904:6910   */\n      dup3\n        /* \"#utility.yul\":6899:6902   */\n      dup3\n        /* \"#utility.yul\":6892:6911   */\n      mstore\n        /* \"#utility.yul\":6944:6948   */\n      0x20\n        /* \"#utility.yul\":6939:6942   */\n      dup3\n        /* \"#utility.yul\":6935:6949   */\n      add\n        /* \"#utility.yul\":6920:6949   */\n      swap1\n      pop\n        /* \"#utility.yul\":6786:6955   */\n      swap3\n      swap2\n      pop\n      pop\n      jump\t// out\n        /* \"#utility.yul\":6961:7338   */\n    tag_86:\n        /* \"#utility.yul\":7049:7052   */\n      0x00\n        /* \"#utility.yul\":7077:7116   */\n      tag_173\n        /* \"#utility.yul\":7110:7115   */\n      dup3\n        /* \"#utility.yul\":7077:7116   */\n      tag_64\n      jump\t// in\n    tag_173:\n        /* \"#utility.yul\":7132:7203   */\n      tag_174\n        /* \"#utility.yul\":7196:7202   */\n      dup2\n        /* \"#utility.yul\":7191:7194   */\n      dup6\n        /* \"#utility.yul\":7132:7203   */\n      tag_85\n      jump\t// in\n    tag_174:\n        /* \"#utility.yul\":7125:7203   */\n      swap4\n      pop\n        /* \"#utility.yul\":7212:7277   */\n      tag_175\n        /* \"#utility.yul\":7270:7276   */\n      dup2\n        /* \"#utility.yul\":7265:7268   */\n      dup6\n        /* \"#utility.yul\":7258:7262   */\n      0x20\n        /* \"#utility.yul\":7251:7256   */\n      dup7\n        /* \"#utility.yul\":7247:7263   */\n      add\n        /* \"#utility.yul\":7212:7277   */\n      tag_66\n      jump\t// in\n    tag_175:\n        /* \"#utility.yul\":7302:7331   */\n      tag_176\n        /* \"#utility.yul\":7324:7330   */\n      dup2\n        /* \"#utility.yul\":7302:7331   */\n      tag_67\n      jump\t// in\n    tag_176:\n        /* \"#utility.yul\":7297:7300   */\n      dup5\n        /* \"#utility.yul\":7293:7332   */\n      add\n        /* \"#utility.yul\":7286:7332   */\n      swap2\n      pop\n        /* \"#utility.yul\":7053:7338   */\n      pop\n        /* \"#utility.yul\":6961:7338   */\n      swap3\n      swap2\n      pop\n      pop\n      jump\t// out\n        /* \"#utility.yul\":7344:7453   */\n    tag_87:\n        /* \"#utility.yul\":7425:7446   */\n      tag_178\n        /* \"#utility.yul\":7440:7445   */\n      dup2\n        /* \"#utility.yul\":7425:7446   */\n      tag_69\n      jump\t// in\n    tag_178:\n        /* \"#utility.yul\":7420:7423   */\n      dup3\n        /* \"#utility.yul\":7413:7447   */\n      mstore\n        /* \"#utility.yul\":7344:7453   */\n      pop\n      pop\n      jump\t// out\n        /* \"#utility.yul\":7459:7870   */\n    tag_24:\n        /* \"#utility.yul\":7594:7598   */\n      0x00\n        /* \"#utility.yul\":7632:7634   */\n      0x40\n        /* \"#utility.yul\":7621:7630   */\n      dup3\n        /* \"#utility.yul\":7617:7635   */\n      add\n        /* \"#utility.yul\":7609:7635   */\n      swap1\n      pop\n        /* \"#utility.yul\":7681:7690   */\n      dup2\n        /* \"#utility.yul\":7675:7679   */\n      dup2\n        /* \"#utility.yul\":7671:7691   */\n      sub\n        /* \"#utility.yul\":7667:7668   */\n      0x00\n        /* \"#utility.yul\":7656:7665   */\n      dup4\n        /* \"#utility.yul\":7652:7669   */\n      add\n        /* \"#utility.yul\":7645:7692   */\n      mstore\n        /* \"#utility.yul\":7709:7787   */\n      tag_180\n        /* \"#utility.yul\":7782:7786   */\n      dup2\n        /* \"#utility.yul\":7773:7779   */\n      dup6\n        /* \"#utility.yul\":7709:7787   */\n      tag_86\n      jump\t// in\n    tag_180:\n        /* \"#utility.yul\":7701:7787   */\n      swap1\n      pop\n        /* \"#utility.yul\":7797:7863   */\n      tag_181\n        /* \"#utility.yul\":7859:7861   */\n      0x20\n        /* \"#utility.yul\":7848:7857   */\n      dup4\n        /* \"#utility.yul\":7844:7862   */\n      add\n        /* \"#utility.yul\":7835:7841   */\n      dup5\n        /* \"#utility.yul\":7797:7863   */\n      tag_87\n      jump\t// in\n    tag_181:\n        /* \"#utility.yul\":7459:7870   */\n      swap4\n      swap3\n      pop\n      pop\n      pop\n      jump\t// out\n        /* \"#utility.yul\":7876:8550   */\n    tag_27:\n        /* \"#utility.yul\":7956:7962   */\n      0x00\n        /* \"#utility.yul\":7964:7970   */\n      dup1\n        /* \"#utility.yul\":7972:7978   */\n      0x00\n        /* \"#utility.yul\":8021:8023   */\n      0x40\n        /* \"#utility.yul\":8009:8018   */\n      dup5\n        /* \"#utility.yul\":8000:8007   */\n      dup7\n        /* \"#utility.yul\":7996:8019   */\n      sub\n        /* \"#utility.yul\":7992:8024   */\n      slt\n        /* \"#utility.yul\":7989:8108   */\n      iszero\n      tag_183\n      jumpi\n        /* \"#utility.yul\":8027:8106   */\n      tag_184\n      tag_76\n      jump\t// in\n    tag_184:\n        /* \"#utility.yul\":7989:8108   */\n    tag_183:\n        /* \"#utility.yul\":8147:8148   */\n      0x00\n        /* \"#utility.yul\":8172:8225   */\n      tag_185\n        /* \"#utility.yul\":8217:8224   */\n      dup7\n        /* \"#utility.yul\":8208:8214   */\n      dup3\n        /* \"#utility.yul\":8197:8206   */\n      dup8\n        /* \"#utility.yul\":8193:8215   */\n      add\n        /* \"#utility.yul\":8172:8225   */\n      tag_80\n      jump\t// in\n    tag_185:\n        /* \"#utility.yul\":8162:8225   */\n      swap4\n      pop\n        /* \"#utility.yul\":8118:8235   */\n      pop\n        /* \"#utility.yul\":8302:8304   */\n      0x20\n        /* \"#utility.yul\":8291:8300   */\n      dup5\n        /* \"#utility.yul\":8287:8305   */\n      add\n        /* \"#utility.yul\":8274:8306   */\n      calldataload\n        /* \"#utility.yul\":8333:8351   */\n      0xffffffffffffffff\n        /* \"#utility.yul\":8325:8331   */\n      dup2\n        /* \"#utility.yul\":8322:8352   */\n      gt\n        /* \"#utility.yul\":8319:8436   */\n      iszero\n      tag_186\n      jumpi\n        /* \"#utility.yul\":8355:8434   */\n      tag_187\n      tag_77\n      jump\t// in\n    tag_187:\n        /* \"#utility.yul\":8319:8436   */\n    tag_186:\n        /* \"#utility.yul\":8468:8533   */\n      tag_188\n        /* \"#utility.yul\":8525:8532   */\n      dup7\n        /* \"#utility.yul\":8516:8522   */\n      dup3\n        /* \"#utility.yul\":8505:8514   */\n      dup8\n        /* \"#utility.yul\":8501:8523   */\n      add\n        /* \"#utility.yul\":8468:8533   */\n      tag_84\n      jump\t// in\n    tag_188:\n        /* \"#utility.yul\":8450:8533   */\n      swap3\n      pop\n      swap3\n      pop\n        /* \"#utility.yul\":8245:8543   */\n      pop\n        /* \"#utility.yul\":7876:8550   */\n      swap3\n      pop\n      swap3\n      pop\n      swap3\n      jump\t// out\n        /* \"#utility.yul\":8556:8736   */\n    tag_88:\n        /* \"#utility.yul\":8604:8681   */\n      0x4e487b7100000000000000000000000000000000000000000000000000000000\n        /* \"#utility.yul\":8601:8602   */\n      0x00\n        /* \"#utility.yul\":8594:8682   */\n      mstore\n        /* \"#utility.yul\":8701:8705   */\n      0x22\n        /* \"#utility.yul\":8698:8699   */\n      0x04\n        /* \"#utility.yul\":8691:8706   */\n      mstore\n        /* \"#utility.yul\":8725:8729   */\n      0x24\n        /* \"#utility.yul\":8722:8723   */\n      0x00\n        /* \"#utility.yul\":8715:8730   */\n      revert\n        /* \"#utility.yul\":8742:9062   */\n    tag_34:\n        /* \"#utility.yul\":8786:8792   */\n      0x00\n        /* \"#utility.yul\":8823:8824   */\n      0x02\n        /* \"#utility.yul\":8817:8821   */\n      dup3\n        /* \"#utility.yul\":8813:8825   */\n      div\n        /* \"#utility.yul\":8803:8825   */\n      swap1\n      pop\n        /* \"#utility.yul\":8870:8871   */\n      0x01\n        /* \"#utility.yul\":8864:8868   */\n      dup3\n        /* \"#utility.yul\":8860:8872   */\n      and\n        /* \"#utility.yul\":8891:8909   */\n      dup1\n        /* \"#utility.yul\":8881:8962   */\n      tag_191\n      jumpi\n        /* \"#utility.yul\":8947:8951   */\n      0x7f\n        /* \"#utility.yul\":8939:8945   */\n      dup3\n        /* \"#utility.yul\":8935:8952   */\n      and\n        /* \"#utility.yul\":8925:8952   */\n      swap2\n      pop\n        /* \"#utility.yul\":8881:8962   */\n    tag_191:\n        /* \"#utility.yul\":9009:9011   */\n      0x20\n        /* \"#utility.yul\":9001:9007   */\n      dup3\n        /* \"#utility.yul\":8998:9012   */\n      lt\n        /* \"#utility.yul\":8978:8996   */\n      dup2\n        /* \"#utility.yul\":8975:9013   */\n      sub\n        /* \"#utility.yul\":8972:9056   */\n      tag_192\n      jumpi\n        /* \"#utility.yul\":9028:9046   */\n      tag_193\n      tag_88\n      jump\t// in\n    tag_193:\n        /* \"#utility.yul\":8972:9056   */\n    tag_192:\n        /* \"#utility.yul\":8793:9062   */\n      pop\n        /* \"#utility.yul\":8742:9062   */\n      swap2\n      swap1\n      pop\n      jump\t// out\n        /* \"#utility.yul\":9068:9248   */\n    tag_42:\n        /* \"#utility.yul\":9116:9193   */\n      0x4e487b7100000000000000000000000000000000000000000000000000000000\n        /* \"#utility.yul\":9113:9114   */\n      0x00\n        /* \"#utility.yul\":9106:9194   */\n      mstore\n        /* \"#utility.yul\":9213:9217   */\n      0x32\n        /* \"#utility.yul\":9210:9211   */\n      0x04\n        /* \"#utility.yul\":9203:9218   */\n      mstore\n        /* \"#utility.yul\":9237:9241   */\n      0x24\n        /* \"#utility.yul\":9234:9235   */\n      0x00\n        /* \"#utility.yul\":9227:9242   */\n      revert\n        /* \"#utility.yul\":9254:9434   */\n    tag_89:\n        /* \"#utility.yul\":9302:9379   */\n      0x4e487b7100000000000000000000000000000000000000000000000000000000\n        /* \"#utility.yul\":9299:9300   */\n      0x00\n        /* \"#utility.yul\":9292:9380   */\n      mstore\n        /* \"#utility.yul\":9399:9403   */\n      0x41\n        /* \"#utility.yul\":9396:9397   */\n      0x04\n        /* \"#utility.yul\":9389:9404   */\n      mstore\n        /* \"#utility.yul\":9423:9427   */\n      0x24\n        /* \"#utility.yul\":9420:9421   */\n      0x00\n        /* \"#utility.yul\":9413:9428   */\n      revert\n        /* \"#utility.yul\":9440:9581   */\n    tag_90:\n        /* \"#utility.yul\":9489:9493   */\n      0x00\n        /* \"#utility.yul\":9512:9515   */\n      dup2\n        /* \"#utility.yul\":9504:9515   */\n      swap1\n      pop\n        /* \"#utility.yul\":9535:9538   */\n      dup2\n        /* \"#utility.yul\":9532:9533   */\n      0x00\n        /* \"#utility.yul\":9525:9539   */\n      mstore\n        /* \"#utility.yul\":9569:9573   */\n      0x20\n        /* \"#utility.yul\":9566:9567   */\n      0x00\n        /* \"#utility.yul\":9556:9574   */\n      keccak256\n        /* \"#utility.yul\":9548:9574   */\n      swap1\n      pop\n        /* \"#utility.yul\":9440:9581   */\n      swap2\n      swap1\n      pop\n      jump\t// out\n        /* \"#utility.yul\":9587:9680   */\n    tag_91:\n        /* \"#utility.yul\":9624:9630   */\n      0x00\n        /* \"#utility.yul\":9671:9673   */\n      0x20\n        /* \"#utility.yul\":9666:9668   */\n      0x1f\n        /* \"#utility.yul\":9659:9664   */\n      dup4\n        /* \"#utility.yul\":9655:9669   */\n      add\n        /* \"#utility.yul\":9651:9674   */\n      div\n        /* \"#utility.yul\":9641:9674   */\n      swap1\n      pop\n        /* \"#utility.yul\":9587:9680   */\n      swap2\n      swap1\n      pop\n      jump\t// out\n        /* \"#utility.yul\":9686:9793   */\n    tag_92:\n        /* \"#utility.yul\":9730:9738   */\n      0x00\n        /* \"#utility.yul\":9780:9785   */\n      dup3\n        /* \"#utility.yul\":9774:9778   */\n      dup3\n        /* \"#utility.yul\":9770:9786   */\n      shl\n        /* \"#utility.yul\":9749:9786   */\n      swap1\n      pop\n        /* \"#utility.yul\":9686:9793   */\n      swap3\n      swap2\n      pop\n      pop\n      jump\t// out\n        /* \"#utility.yul\":9799:10192   */\n    tag_93:\n        /* \"#utility.yul\":9868:9874   */\n      0x00\n        /* \"#utility.yul\":9918:9919   */\n      0x08\n        /* \"#utility.yul\":9906:9916   */\n      dup4\n        /* \"#utility.yul\":9902:9920   */\n      mul\n        /* \"#utility.yul\":9941:10038   */\n      tag_200\n        /* \"#utility.yul\":9971:10037   */\n      0xffffffffffffffffffffffffffffffffffffffffffffffffffffffffffffffff\n        /* \"#utility.yul\":9960:9969   */\n      dup3\n        /* \"#utility.yul\":9941:10038   */\n      tag_92\n      jump\t// in\n    tag_200:\n        /* \"#utility.yul\":10059:10098   */\n      tag_201\n        /* \"#utility.yul\":10089:10097   */\n      dup7\n        /* \"#utility.yul\":10078:10087   */\n      dup4\n        /* \"#utility.yul\":10059:10098   */\n      tag_92\n      jump\t// in\n    tag_201:\n        /* \"#utility.yul\":10047:10098   */\n      swap6\n      pop\n        /* \"#utility.yul\":10131:10135   */\n      dup1\n        /* \"#utility.yul\":10127:10136   */\n      not\n        /* \"#utility.yul\":10120:10125   */\n      dup5\n        /* \"#utility.yul\":10116:10137   */\n      and\n        /* \"#utility.yul\":10107:10137   */\n      swap4\n      pop\n        /* \"#utility.yul\":10180:10184   */\n      dup1\n        /* \"#utility.yul\":10170:10178   */\n      dup7\n        /* \"#utility.yul\":10166:10185   */\n      and\n        /* \"#utility.yul\":10159:10164   */\n      dup5\n        /* \"#utility.yul\":10156:10186   */\n      or\n        /* \"#utility.yul\":10146:10186   */\n      swap3\n      pop\n        /* \"#utility.yul\":9875:10192   */\n      pop\n      pop\n        /* \"#utility.yul\":9799:10192   */\n      swap4\n      swap3\n      pop\n      pop\n      pop\n      jump\t// out\n        /* \"#utility.yul\":10198:10258   */\n    tag_94:\n        /* \"#utility.yul\":10226:10229   */\n      0x00\n        /* \"#utility.yul\":10247:10252   */\n      dup2\n        /* \"#utility.yul\":10240:10252   */\n      swap1\n      pop\n        /* \"#utility.yul\":10198:10258   */\n      swap2\n      swap1\n      pop\n      jump\t// out\n        /* \"#utility.yul\":10264:10406   */\n    tag_95:\n        /* \"#utility.yul\":10314:10323   */\n      0x00\n        /* \"#utility.yul\":10347:10400   */\n      tag_204\n        /* \"#utility.yul\":10365:10399   */\n      tag_205\n        /* \"#utility.yul\":10374:10398   */\n      tag_206\n        /* \"#utility.yul\":10392:10397   */\n      dup5\n        /* \"#utility.yul\":10374:10398   */\n      tag_78\n      jump\t// in\n    tag_206:\n        /* \"#utility.yul\":10365:10399   */\n      tag_94\n      jump\t// in\n    tag_205:\n        /* \"#utility.yul\":10347:10400   */\n      tag_78\n      jump\t// in\n    tag_204:\n        /* \"#utility.yul\":10334:10400   */\n      swap1\n      pop\n        /* \"#utility.yul\":10264:10406   */\n      swap2\n      swap1\n      pop\n      jump\t// out\n        /* \"#utility.yul\":10412:10487   */\n    tag_96:\n        /* \"#utility.yul\":10455:10458   */\n      0x00\n        /* \"#utility.yul\":10476:10481   */\n      dup2\n        /* \"#utility.yul\":10469:10481   */\n      swap1\n      pop\n        /* \"#utility.yul\":10412:10487   */\n      swap2\n      swap1\n      pop\n      jump\t// out\n        /* \"#utility.yul\":10493:10762   */\n    tag_97:\n        /* \"#utility.yul\":10603:10642   */\n      tag_209\n        /* \"#utility.yul\":10634:10641   */\n      dup4\n        /* \"#utility.yul\":10603:10642   */\n      tag_95\n      jump\t// in\n    tag_209:\n        /* \"#utility.yul\":10664:10755   */\n      tag_210\n        /* \"#utility.yul\":10713:10754   */\n      tag_211\n        /* \"#utility.yul\":10737:10753   */\n      dup3\n        /* \"#utility.yul\":10713:10754   */\n      tag_96\n      jump\t// in\n    tag_211:\n        /* \"#utility.yul\":10705:10711   */\n      dup5\n        /* \"#utility.yul\":10698:10702   */\n      dup5\n        /* \"#utility.yul\":10692:10703   */\n      sload\n        /* \"#utility.yul\":10664:10755   */\n      tag_93\n      jump\t// in\n    tag_210:\n        /* \"#utility.yul\":10658:10662   */\n      dup3\n        /* \"#utility.yul\":10651:10756   */\n      sstore\n        /* \"#utility.yul\":10569:10762   */\n      pop\n        /* \"#utility.yul\":10493:10762   */\n      pop\n      pop\n      pop\n      jump\t// out\n        /* \"#utility.yul\":10768:10841   */\n    tag_98:\n        /* \"#utility.yul\":10813:10816   */\n      0x00\n        /* \"#utility.yul\":10768:10841   */\n      swap1\n      jump\t// out\n        /* \"#utility.yul\":10847:11036   */\n    tag_99:\n        /* \"#utility.yul\":10924:10956   */\n      tag_214\n      tag_98\n      jump\t// in\n    tag_214:\n        /* \"#utility.yul\":10965:11030   */\n      tag_215\n        /* \"#utility.yul\":11023:11029   */\n      dup2\n        /* \"#utility.yul\":11015:11021   */\n      dup5\n        /* \"#utility.yul\":11009:11013   */\n      dup5\n        /* \"#utility.yul\":10965:11030   */\n      tag_97\n      jump\t// in\n    tag_215:\n        /* \"#utility.yul\":10900:11036   */\n      pop\n        /* \"#utility.yul\":10847:11036   */\n      pop\n      pop\n      jump\t// out\n        /* \"#utility.yul\":11042:11228   */\n    tag_100:\n        /* \"#utility.yul\":11102:11222   */\n    tag_217:\n        /* \"#utility.yul\":11119:11122   */\n      dup2\n        /* \"#utility.yul\":11112:11117   */\n      dup2\n        /* \"#utility.yul\":11109:11123   */\n      lt\n        /* \"#utility.yul\":11102:11222   */\n      iszero\n      tag_219\n      jumpi\n        /* \"#utility.yul\":11173:11212   */\n      tag_220\n        /* \"#utility.yul\":11210:11211   */\n      0x00\n        /* \"#utility.yul\":11203:11208   */\n      dup3\n        /* \"#utility.yul\":11173:11212   */\n      tag_99\n      jump\t// in\n    tag_220:\n        /* \"#utility.yul\":11146:11147   */\n      0x01\n        /* \"#utility.yul\":11139:11144   */\n      dup2\n        /* \"#utility.yul\":11135:11148   */\n      add\n        /* \"#utility.yul\":11126:11148   */\n      swap1\n      pop\n        /* \"#utility.yul\":11102:11222   */\n      jump(tag_217)\n    tag_219:\n        /* \"#utility.yul\":11042:11228   */\n      pop\n      pop\n      jump\t// out\n        /* \"#utility.yul\":11234:11777   */\n    tag_101:\n        /* \"#utility.yul\":11335:11337   */\n      0x1f\n        /* \"#utility.yul\":11330:11333   */\n      dup3\n        /* \"#utility.yul\":11327:11338   */\n      gt\n        /* \"#utility.yul\":11324:11770   */\n      iszero\n      tag_222\n      jumpi\n        /* \"#utility.yul\":11369:11407   */\n      tag_223\n        /* \"#utility.yul\":11401:11406   */\n      dup2\n        /* \"#utility.yul\":11369:11407   */\n      tag_90\n      jump\t// in\n    tag_223:\n        /* \"#utility.yul\":11453:11482   */\n      tag_224\n        /* \"#utility.yul\":11471:11481   */\n      dup5\n        /* \"#utility.yul\":11453:11482   */\n      tag_91\n      jump\t// in\n    tag_224:\n        /* \"#utility.yul\":11443:11451   */\n      dup2\n        /* \"#utility.yul\":11439:11483   */\n      add\n        /* \"#utility.yul\":11636:11638   */\n      0x20\n        /* \"#utility.yul\":11624:11634   */\n      dup6\n        /* \"#utility.yul\":11621:11639   */\n      lt\n        /* \"#utility.yul\":11618:11667   */\n      iszero\n      tag_225\n      jumpi\n        /* \"#utility.yul\":11657:11665   */\n      dup2\n        /* \"#utility.yul\":11642:11665   */\n      swap1\n      pop\n        /* \"#utility.yul\":11618:11667   */\n    tag_225:\n        /* \"#utility.yul\":11680:11760   */\n      tag_226\n        /* \"#utility.yul\":11736:11758   */\n      tag_227\n        /* \"#utility.yul\":11754:11757   */\n      dup6\n        /* \"#utility.yul\":11736:11758   */\n      tag_91\n      jump\t// in\n    tag_227:\n        /* \"#utility.yul\":11726:11734   */\n      dup4\n        /* \"#utility.yul\":11722:11759   */\n      add\n        /* \"#utility.yul\":11709:11720   */\n      dup3\n        /* \"#utility.yul\":11680:11760   */\n      tag_100\n      jump\t// in\n    tag_226:\n        /* \"#utility.yul\":11339:11770   */\n      pop\n      pop\n        /* \"#utility.yul\":11324:11770   */\n    tag_222:\n        /* \"#utility.yul\":11234:11777   */\n      pop\n      pop\n      pop\n      jump\t// out\n        /* \"#utility.yul\":11783:11900   */\n    tag_102:\n        /* \"#utility.yul\":11837:11845   */\n      0x00\n        /* \"#utility.yul\":11887:11892   */\n      dup3\n        /* \"#utility.yul\":11881:11885   */\n      dup3\n        /* \"#utility.yul\":11877:11893   */\n      shr\n        /* \"#utility.yul\":11856:11893   */\n      swap1\n      pop\n        /* \"#utility.yul\":11783:11900   */\n      swap3\n      swap2\n      pop\n      pop\n      jump\t// out\n        /* \"#utility.yul\":11906:12075   */\n    tag_103:\n        /* \"#utility.yul\":11950:11956   */\n      0x00\n        /* \"#utility.yul\":11983:12034   */\n      tag_230\n        /* \"#utility.yul\":12031:12032   */\n      0x00\n        /* \"#utility.yul\":12027:12033   */\n      not\n        /* \"#utility.yul\":12019:12024   */\n      dup5\n        /* \"#utility.yul\":12016:12017   */\n      0x08\n        /* \"#utility.yul\":12012:12025   */\n      mul\n        /* \"#utility.yul\":11983:12034   */\n      tag_102\n      jump\t// in\n    tag_230:\n        /* \"#utility.yul\":11979:12035   */\n      not\n        /* \"#utility.yul\":12064:12068   */\n      dup1\n        /* \"#utility.yul\":12058:12062   */\n      dup4\n        /* \"#utility.yul\":12054:12069   */\n      and\n        /* \"#utility.yul\":12044:12069   */\n      swap2\n      pop\n        /* \"#utility.yul\":11957:12075   */\n      pop\n        /* \"#utility.yul\":11906:12075   */\n      swap3\n      swap2\n      pop\n      pop\n      jump\t// out\n        /* \"#utility.yul\":12080:12375   */\n    tag_104:\n        /* \"#utility.yul\":12156:12160   */\n      0x00\n        /* \"#utility.yul\":12302:12331   */\n      tag_232\n        /* \"#utility.yul\":12327:12330   */\n      dup4\n        /* \"#utility.yul\":12321:12325   */\n      dup4\n        /* \"#utility.yul\":12302:12331   */\n      tag_103\n      jump\t// in\n    tag_232:\n        /* \"#utility.yul\":12294:12331   */\n      swap2\n      pop\n        /* \"#utility.yul\":12364:12367   */\n      dup3\n        /* \"#utility.yul\":12361:12362   */\n      0x02\n        /* \"#utility.yul\":12357:12368   */\n      mul\n        /* \"#utility.yul\":12351:12355   */\n      dup3\n        /* \"#utility.yul\":12348:12369   */\n      or\n        /* \"#utility.yul\":12340:12369   */\n      swap1\n      pop\n        /* \"#utility.yul\":12080:12375   */\n      swap3\n      swap2\n      pop\n      pop\n      jump\t// out\n        /* \"#utility.yul\":12380:13775   */\n    tag_47:\n        /* \"#utility.yul\":12497:12534   */\n      tag_234\n        /* \"#utility.yul\":12530:12533   */\n      dup3\n        /* \"#utility.yul\":12497:12534   */\n      tag_64\n      jump\t// in\n    tag_234:\n        /* \"#utility.yul\":12599:12617   */\n      0xffffffffffffffff\n        /* \"#utility.yul\":12591:12597   */\n      dup2\n        /* \"#utility.yul\":12588:12618   */\n      gt\n        /* \"#utility.yul\":12585:12641   */\n      iszero\n      tag_235\n      jumpi\n        /* \"#utility.yul\":12621:12639   */\n      tag_236\n      tag_89\n      jump\t// in\n    tag_236:\n        /* \"#utility.yul\":12585:12641   */\n    tag_235:\n        /* \"#utility.yul\":12665:12703   */\n      tag_237\n        /* \"#utility.yul\":12697:12701   */\n      dup3\n        /* \"#utility.yul\":12691:12702   */\n      sload\n        /* \"#utility.yul\":12665:12703   */\n      tag_34\n      jump\t// in\n    tag_237:\n        /* \"#utility.yul\":12750:12817   */\n      tag_238\n        /* \"#utility.yul\":12810:12816   */\n      dup3\n        /* \"#utility.yul\":12802:12808   */\n      dup3\n        /* \"#utility.yul\":12796:12800   */\n      dup6\n        /* \"#utility.yul\":12750:12817   */\n      tag_101\n      jump\t// in\n    tag_238:\n        /* \"#utility.yul\":12844:12845   */\n      0x00\n        /* \"#utility.yul\":12868:12872   */\n      0x20\n        /* \"#utility.yul\":12855:12872   */\n      swap1\n      pop\n        /* \"#utility.yul\":12900:12902   */\n      0x1f\n        /* \"#utility.yul\":12892:12898   */\n      dup4\n        /* \"#utility.yul\":12889:12903   */\n      gt\n        /* \"#utility.yul\":12917:12918   */\n      0x01\n        /* \"#utility.yul\":12912:13530   */\n      dup2\n      eq\n      tag_240\n      jumpi\n        /* \"#utility.yul\":13574:13575   */\n      0x00\n        /* \"#utility.yul\":13591:13597   */\n      dup5\n        /* \"#utility.yul\":13588:13665   */\n      iszero\n      tag_241\n      jumpi\n        /* \"#utility.yul\":13640:13649   */\n      dup3\n        /* \"#utility.yul\":13635:13638   */\n      dup8\n        /* \"#utility.yul\":13631:13650   */\n      add\n        /* \"#utility.yul\":13625:13651   */\n      mload\n        /* \"#utility.yul\":13616:13651   */\n      swap1\n      pop\n        /* \"#utility.yul\":13588:13665   */\n    tag_241:\n        /* \"#utility.yul\":13691:13758   */\n      tag_242\n        /* \"#utility.yul\":13751:13757   */\n      dup6\n        /* \"#utility.yul\":13744:13749   */\n      dup3\n        /* \"#utility.yul\":13691:13758   */\n      tag_104\n      jump\t// in\n    tag_242:\n        /* \"#utility.yul\":13685:13689   */\n      dup7\n        /* \"#utility.yul\":13678:13759   */\n      sstore\n        /* \"#utility.yul\":13547:13769   */\n      pop\n        /* \"#utility.yul\":12882:13769   */\n      jump(tag_239)\n        /* \"#utility.yul\":12912:13530   */\n    tag_240:\n        /* \"#utility.yul\":12964:12968   */\n      0x1f\n        /* \"#utility.yul\":12960:12969   */\n      not\n        /* \"#utility.yul\":12952:12958   */\n      dup5\n        /* \"#utility.yul\":12948:12970   */\n      and\n        /* \"#utility.yul\":12998:13035   */\n      tag_243\n        /* \"#utility.yul\":13030:13034   */\n      dup7\n        /* \"#utility.yul\":12998:13035   */\n      tag_90\n      jump\t// in\n    tag_243:\n        /* \"#utility.yul\":13057:13058   */\n      0x00\n        /* \"#utility.yul\":13071:13279   */\n    tag_244:\n        /* \"#utility.yul\":13085:13092   */\n      dup3\n        /* \"#utility.yul\":13082:13083   */\n      dup2\n        /* \"#utility.yul\":13079:13093   */\n      lt\n        /* \"#utility.yul\":13071:13279   */\n      iszero\n      tag_246\n      jumpi\n        /* \"#utility.yul\":13164:13173   */\n      dup5\n        /* \"#utility.yul\":13159:13162   */\n      dup10\n        /* \"#utility.yul\":13155:13174   */\n      add\n        /* \"#utility.yul\":13149:13175   */\n      mload\n        /* \"#utility.yul\":13141:13147   */\n      dup3\n        /* \"#utility.yul\":13134:13176   */\n      sstore\n        /* \"#utility.yul\":13215:13216   */\n      0x01\n        /* \"#utility.yul\":13207:13213   */\n      dup3\n        /* \"#utility.yul\":13203:13217   */\n      add\n        /* \"#utility.yul\":13193:13217   */\n      swap2\n      pop\n        /* \"#utility.yul\":13262:13264   */\n      0x20\n        /* \"#utility.yul\":13251:13260   */\n      dup6\n        /* \"#utility.yul\":13247:13265   */\n      add\n        /* \"#utility.yul\":13234:13265   */\n      swap5\n      pop\n        /* \"#utility.yul\":13108:13112   */\n      0x20\n        /* \"#utility.yul\":13105:13106   */\n      dup2\n        /* \"#utility.yul\":13101:13113   */\n      add\n        /* \"#utility.yul\":13096:13113   */\n      swap1\n      pop\n        /* \"#utility.yul\":13071:13279   */\n      jump(tag_244)\n    tag_246:\n        /* \"#utility.yul\":13307:13313   */\n      dup7\n        /* \"#utility.yul\":13298:13305   */\n      dup4\n        /* \"#utility.yul\":13295:13314   */\n      lt\n        /* \"#utility.yul\":13292:13471   */\n      iszero\n      tag_247\n      jumpi\n        /* \"#utility.yul\":13365:13374   */\n      dup5\n        /* \"#utility.yul\":13360:13363   */\n      dup10\n        /* \"#utility.yul\":13356:13375   */\n      add\n        /* \"#utility.yul\":13350:13376   */\n      mload\n        /* \"#utility.yul\":13408:13456   */\n      tag_248\n        /* \"#utility.yul\":13450:13454   */\n      0x1f\n        /* \"#utility.yul\":13442:13448   */\n      dup10\n        /* \"#utility.yul\":13438:13455   */\n      and\n        /* \"#utility.yul\":13427:13436   */\n      dup3\n        /* \"#utility.yul\":13408:13456   */\n      tag_103\n      jump\t// in\n    tag_248:\n        /* \"#utility.yul\":13400:13406   */\n      dup4\n        /* \"#utility.yul\":13393:13457   */\n      sstore\n        /* \"#utility.yul\":13315:13471   */\n      pop\n        /* \"#utility.yul\":13292:13471   */\n    tag_247:\n        /* \"#utility.yul\":13517:13518   */\n      0x01\n        /* \"#utility.yul\":13513:13514   */\n      0x02\n        /* \"#utility.yul\":13505:13511   */\n      dup9\n        /* \"#utility.yul\":13501:13515   */\n      mul\n        /* \"#utility.yul\":13497:13519   */\n      add\n        /* \"#utility.yul\":13491:13495   */\n      dup9\n        /* \"#utility.yul\":13484:13520   */\n      sstore\n        /* \"#utility.yul\":12919:13530   */\n      pop\n      pop\n      pop\n        /* \"#utility.yul\":12882:13769   */\n    tag_239:\n      pop\n        /* \"#utility.yul\":12472:13775   */\n      pop\n      pop\n      pop\n        /* \"#utility.yul\":12380:13775   */\n      pop\n      pop\n      jump\t// out\n        /* \"#utility.yul\":13781:13878   */\n    tag_105:\n        /* \"#utility.yul\":13840:13846   */\n      0x00\n        /* \"#utility.yul\":13868:13871   */\n      dup3\n        /* \"#utility.yul\":13858:13871   */\n      swap1\n      pop\n        /* \"#utility.yul\":13781:13878   */\n      swap3\n      swap2\n      pop\n      pop\n      jump\t// out\n        /* \"#utility.yul\":13884:15287   */\n    tag_60:\n        /* \"#utility.yul\":14008:14052   */\n      tag_251\n        /* \"#utility.yul\":14048:14051   */\n      dup4\n        /* \"#utility.yul\":14043:14046   */\n      dup4\n        /* \"#utility.yul\":14008:14052   */\n      tag_105\n      jump\t// in\n    tag_251:\n        /* \"#utility.yul\":14117:14135   */\n      0xffffffffffffffff\n        /* \"#utility.yul\":14109:14115   */\n      dup2\n        /* \"#utility.yul\":14106:14136   */\n      gt\n        /* \"#utility.yul\":14103:14159   */\n      iszero\n      tag_252\n      jumpi\n        /* \"#utility.yul\":14139:14157   */\n      tag_253\n      tag_89\n      jump\t// in\n    tag_253:\n        /* \"#utility.yul\":14103:14159   */\n    tag_252:\n        /* \"#utility.yul\":14183:14221   */\n      tag_254\n        /* \"#utility.yul\":14215:14219   */\n      dup3\n        /* \"#utility.yul\":14209:14220   */\n      sload\n        /* \"#utility.yul\":14183:14221   */\n      tag_34\n      jump\t// in\n    tag_254:\n        /* \"#utility.yul\":14268:14335   */\n      tag_255\n        /* \"#utility.yul\":14328:14334   */\n      dup3\n        /* \"#utility.yul\":14320:14326   */\n      dup3\n        /* \"#utility.yul\":14314:14318   */\n      dup6\n        /* \"#utility.yul\":14268:14335   */\n      tag_101\n      jump\t// in\n    tag_255:\n        /* \"#utility.yul\":14362:14363   */\n      0x00\n        /* \"#utility.yul\":14391:14393   */\n      0x1f\n        /* \"#utility.yul\":14383:14389   */\n      dup4\n        /* \"#utility.yul\":14380:14394   */\n      gt\n        /* \"#utility.yul\":14408:14409   */\n      0x01\n        /* \"#utility.yul\":14403:15035   */\n      dup2\n      eq\n      tag_257\n      jumpi\n        /* \"#utility.yul\":15079:15080   */\n      0x00\n        /* \"#utility.yul\":15096:15102   */\n      dup5\n        /* \"#utility.yul\":15093:15177   */\n      iszero\n      tag_258\n      jumpi\n        /* \"#utility.yul\":15152:15161   */\n      dup3\n        /* \"#utility.yul\":15147:15150   */\n      dup8\n        /* \"#utility.yul\":15143:15162   */\n      add\n        /* \"#utility.yul\":15130:15163   */\n      calldataload\n        /* \"#utility.yul\":15121:15163   */\n      swap1\n      pop\n        /* \"#utility.yul\":15093:15177   */\n    tag_258:\n        /* \"#utility.yul\":15203:15270   */\n      tag_259\n        /* \"#utility.yul\":15263:15269   */\n      dup6\n        /* \"#utility.yul\":15256:15261   */\n      dup3\n        /* \"#utility.yul\":15203:15270   */\n      tag_104\n      jump\t// in\n    tag_259:\n        /* \"#utility.yul\":15197:15201   */\n      dup7\n        /* \"#utility.yul\":15190:15271   */\n      sstore\n        /* \"#utility.yul\":15052:15281   */\n      pop\n        /* \"#utility.yul\":14373:15281   */\n      jump(tag_256)\n        /* \"#utility.yul\":14403:15035   */\n    tag_257:\n        /* \"#utility.yul\":14455:14459   */\n      0x1f\n        /* \"#utility.yul\":14451:14460   */\n      not\n        /* \"#utility.yul\":14443:14449   */\n      dup5\n        /* \"#utility.yul\":14439:14461   */\n      and\n        /* \"#utility.yul\":14489:14526   */\n      tag_260\n        /* \"#utility.yul\":14521:14525   */\n      dup7\n        /* \"#utility.yul\":14489:14526   */\n      tag_90\n      jump\t// in\n    tag_260:\n        /* \"#utility.yul\":14548:14549   */\n      0x00\n        /* \"#utility.yul\":14562:14777   */\n    tag_261:\n        /* \"#utility.yul\":14576:14583   */\n      dup3\n        /* \"#utility.yul\":14573:14574   */\n      dup2\n        /* \"#utility.yul\":14570:14584   */\n      lt\n        /* \"#utility.yul\":14562:14777   */\n      iszero\n      tag_263\n      jumpi\n        /* \"#utility.yul\":14662:14671   */\n      dup5\n        /* \"#utility.yul\":14657:14660   */\n      dup10\n        /* \"#utility.yul\":14653:14672   */\n      add\n        /* \"#utility.yul\":14640:14673   */\n      calldataload\n        /* \"#utility.yul\":14632:14638   */\n      dup3\n        /* \"#utility.yul\":14625:14674   */\n      sstore\n        /* \"#utility.yul\":14713:14714   */\n      0x01\n        /* \"#utility.yul\":14705:14711   */\n      dup3\n        /* \"#utility.yul\":14701:14715   */\n      add\n        /* \"#utility.yul\":14691:14715   */\n      swap2\n      pop\n        /* \"#utility.yul\":14760:14762   */\n      0x20\n        /* \"#utility.yul\":14749:14758   */\n      dup6\n        /* \"#utility.yul\":14745:14763   */\n      add\n        /* \"#utility.yul\":14732:14763   */\n      swap5\n      pop\n        /* \"#utility.yul\":14599:14603   */\n      0x20\n        /* \"#utility.yul\":14596:14597   */\n      dup2\n        /* \"#utility.yul\":14592:14604   */\n      add\n        /* \"#utility.yul\":14587:14604   */\n      swap1\n      pop\n        /* \"#utility.yul\":14562:14777   */\n      jump(tag_261)\n    tag_263:\n        /* \"#utility.yul\":14805:14811   */\n      dup7\n        /* \"#utility.yul\":14796:14803   */\n      dup4\n        /* \"#utility.yul\":14793:14812   */\n      lt\n        /* \"#utility.yul\":14790:14976   */\n      iszero\n      tag_264\n      jumpi\n        /* \"#utility.yul\":14870:14879   */\n      dup5\n        /* \"#utility.yul\":14865:14868   */\n      dup10\n        /* \"#utility.yul\":14861:14880   */\n      add\n        /* \"#utility.yul\":14848:14881   */\n      calldataload\n        /* \"#utility.yul\":14913:14961   */\n      tag_265\n        /* \"#utility.yul\":14955:14959   */\n      0x1f\n        /* \"#utility.yul\":14947:14953   */\n      dup10\n        /* \"#utility.yul\":14943:14960   */\n      and\n        /* \"#utility.yul\":14932:14941   */\n      dup3\n        /* \"#utility.yul\":14913:14961   */\n      tag_103\n      jump\t// in\n    tag_265:\n        /* \"#utility.yul\":14905:14911   */\n      dup4\n        /* \"#utility.yul\":14898:14962   */\n      sstore\n        /* \"#utility.yul\":14813:14976   */\n      pop\n        /* \"#utility.yul\":14790:14976   */\n    tag_264:\n        /* \"#utility.yul\":15022:15023   */\n      0x01\n        /* \"#utility.yul\":15018:15019   */\n      0x02\n        /* \"#utility.yul\":15010:15016   */\n      dup9\n        /* \"#utility.yul\":15006:15020   */\n      mul\n        /* \"#utility.yul\":15002:15024   */\n      add\n        /* \"#utility.yul\":14996:15000   */\n      dup9\n        /* \"#utility.yul\":14989:15025   */\n      sstore\n        /* \"#utility.yul\":14410:15035   */\n      pop\n      pop\n      pop\n        /* \"#utility.yul\":14373:15281   */\n    tag_256:\n      pop\n        /* \"#utility.yul\":13983:15287   */\n      pop\n      pop\n      pop\n        /* \"#utility.yul\":13884:15287   */\n      pop\n      pop\n      pop\n      jump\t// out\n\n    auxdata: 0xa2646970667358221220ea9de15627673a3d470bf877da668429fbc06a2fa11302cb6849c036f171db9c64736f6c63430008110033\n}\n",
				"bytecode": {
					"linkReferences": {},
					"object": "608060405234801561001057600080fd5b50610c4e806100206000396000f3fe608060405234801561001057600080fd5b50600436106100575760003560e01c80633bc5de301461005c578063455f50241461007a578063b6a46b3b14610096578063bc8bc2b4146100b2578063c38a09cf146100e3575b600080fd5b6100646100ff565b60405161007191906105d7565b60405180910390f35b610094600480360381019061008f9190610639565b61020b565b005b6100b060048036038101906100ab91906106cb565b610262565b005b6100cc60048036038101906100c79190610639565b610325565b6040516100da929190610771565b60405180910390f35b6100fd60048036038101906100f891906107a1565b6103ee565b005b60606000805480602002602001604051908101604052809291908181526020016000905b82821015610202578382906000526020600020906002020160405180604001604052908160008201805461015690610830565b80601f016020809104026020016040519081016040528092919081815260200182805461018290610830565b80156101cf5780601f106101a4576101008083540402835291602001916101cf565b820191906000526020600020905b8154815290600101906020018083116101b257829003601f168201915b505050505081526020016001820160009054906101000a900460ff16151515158152505081526020019060010190610123565b50505050905090565b60008082815481106102205761021f610861565b5b906000526020600020906002020190508060010160009054906101000a900460ff16158160010160006101000a81548160ff0219169083151502179055505050565b6000604051806040016040528084848080601f016020809104026020016040519081016040528093929190818152602001838380828437600081840152601f19601f82011690508083019250505050505050815260200160001515815250908060018154018082558091505060019003906000526020600020906002020160009091909190915060008201518160000190816102fe9190610a6b565b5060208201518160010160006101000a81548160ff02191690831515021790555050505050565b6000818154811061033557600080fd5b906000526020600020906002020160009150905080600001805461035890610830565b80601f016020809104026020016040519081016040528092919081815260200182805461038490610830565b80156103d15780601f106103a6576101008083540402835291602001916103d1565b820191906000526020600020905b8154815290600101906020018083116103b457829003601f168201915b5050505050908060010160009054906101000a900460ff16905082565b600080848154811061040357610402610861565b5b906000526020600020906002020190508282826000019182610426929190610b48565b5050505050565b600081519050919050565b600082825260208201905092915050565b6000819050602082019050919050565b600081519050919050565b600082825260208201905092915050565b60005b83811015610493578082015181840152602081019050610478565b60008484015250505050565b6000601f19601f8301169050919050565b60006104bb82610459565b6104c58185610464565b93506104d5818560208601610475565b6104de8161049f565b840191505092915050565b60008115159050919050565b6104fe816104e9565b82525050565b6000604083016000830151848203600086015261052182826104b0565b915050602083015161053660208601826104f5565b508091505092915050565b600061054d8383610504565b905092915050565b6000602082019050919050565b600061056d8261042d565b6105778185610438565b93508360208202850161058985610449565b8060005b858110156105c557848403895281516105a68582610541565b94506105b183610555565b925060208a0199505060018101905061058d565b50829750879550505050505092915050565b600060208201905081810360008301526105f18184610562565b905092915050565b600080fd5b600080fd5b6000819050919050565b61061681610603565b811461062157600080fd5b50565b6000813590506106338161060d565b92915050565b60006020828403121561064f5761064e6105f9565b5b600061065d84828501610624565b91505092915050565b600080fd5b600080fd5b600080fd5b60008083601f84011261068b5761068a610666565b5b8235905067ffffffffffffffff8111156106a8576106a761066b565b5b6020830191508360018202830111156106c4576106c3610670565b5b9250929050565b600080602083850312156106e2576106e16105f9565b5b600083013567ffffffffffffffff811115610700576106ff6105fe565b5b61070c85828601610675565b92509250509250929050565b600082825260208201905092915050565b600061073482610459565b61073e8185610718565b935061074e818560208601610475565b6107578161049f565b840191505092915050565b61076b816104e9565b82525050565b6000604082019050818103600083015261078b8185610729565b905061079a6020830184610762565b9392505050565b6000806000604084860312156107ba576107b96105f9565b5b60006107c886828701610624565b935050602084013567ffffffffffffffff8111156107e9576107e86105fe565b5b6107f586828701610675565b92509250509250925092565b7f4e487b7100000000000000000000000000000000000000000000000000000000600052602260045260246000fd5b6000600282049050600182168061084857607f821691505b60208210810361085b5761085a610801565b5b50919050565b7f4e487b7100000000000000000000000000000000000000000000000000000000600052603260045260246000fd5b7f4e487b7100000000000000000000000000000000000000000000000000000000600052604160045260246000fd5b60008190508160005260206000209050919050565b60006020601f8301049050919050565b600082821b905092915050565b6000600883026109217fffffffffffffffffffffffffffffffffffffffffffffffffffffffffffffffff826108e4565b61092b86836108e4565b95508019841693508086168417925050509392505050565b6000819050919050565b600061096861096361095e84610603565b610943565b610603565b9050919050565b6000819050919050565b6109828361094d565b61099661098e8261096f565b8484546108f1565b825550505050565b600090565b6109ab61099e565b6109b6818484610979565b505050565b5b818110156109da576109cf6000826109a3565b6001810190506109bc565b5050565b601f821115610a1f576109f0816108bf565b6109f9846108d4565b81016020851015610a08578190505b610a1c610a14856108d4565b8301826109bb565b50505b505050565b600082821c905092915050565b6000610a4260001984600802610a24565b1980831691505092915050565b6000610a5b8383610a31565b9150826002028217905092915050565b610a7482610459565b67ffffffffffffffff811115610a8d57610a8c610890565b5b610a978254610830565b610aa28282856109de565b600060209050601f831160018114610ad55760008415610ac3578287015190505b610acd8582610a4f565b865550610b35565b601f198416610ae3866108bf565b60005b82811015610b0b57848901518255600182019150602085019450602081019050610ae6565b86831015610b285784890151610b24601f891682610a31565b8355505b6001600288020188555050505b505050505050565b600082905092915050565b610b528383610b3d565b67ffffffffffffffff811115610b6b57610b6a610890565b5b610b758254610830565b610b808282856109de565b6000601f831160018114610baf5760008415610b9d578287013590505b610ba78582610a4f565b865550610c0f565b601f198416610bbd866108bf565b60005b82811015610be557848901358255600182019150602085019450602081019050610bc0565b86831015610c025784890135610bfe601f891682610a31565b8355505b6001600288020188555050505b5050505050505056fea2646970667358221220ea9de15627673a3d470bf877da668429fbc06a2fa11302cb6849c036f171db9c64736f6c63430008110033",
					"opcodes": "PUSH1 0x80 PUSH1 0x40 MSTORE CALLVALUE DUP1 ISZERO PUSH2 0x10 JUMPI PUSH1 0x0 DUP1 REVERT JUMPDEST POP PUSH2 0xC4E DUP1 PUSH2 0x20 PUSH1 0x0 CODECOPY PUSH1 0x0 RETURN INVALID PUSH1 0x80 PUSH1 0x40 MSTORE CALLVALUE DUP1 ISZERO PUSH2 0x10 JUMPI PUSH1 0x0 DUP1 REVERT JUMPDEST POP PUSH1 0x4 CALLDATASIZE LT PUSH2 0x57 JUMPI PUSH1 0x0 CALLDATALOAD PUSH1 0xE0 SHR DUP1 PUSH4 0x3BC5DE30 EQ PUSH2 0x5C JUMPI DUP1 PUSH4 0x455F5024 EQ PUSH2 0x7A JUMPI DUP1 PUSH4 0xB6A46B3B EQ PUSH2 0x96 JUMPI DUP1 PUSH4 0xBC8BC2B4 EQ PUSH2 0xB2 JUMPI DUP1 PUSH4 0xC38A09CF EQ PUSH2 0xE3 JUMPI JUMPDEST PUSH1 0x0 DUP1 REVERT JUMPDEST PUSH2 0x64 PUSH2 0xFF JUMP JUMPDEST PUSH1 0x40 MLOAD PUSH2 0x71 SWAP2 SWAP1 PUSH2 0x5D7 JUMP JUMPDEST PUSH1 0x40 MLOAD DUP1 SWAP2 SUB SWAP1 RETURN JUMPDEST PUSH2 0x94 PUSH1 0x4 DUP1 CALLDATASIZE SUB DUP2 ADD SWAP1 PUSH2 0x8F SWAP2 SWAP1 PUSH2 0x639 JUMP JUMPDEST PUSH2 0x20B JUMP JUMPDEST STOP JUMPDEST PUSH2 0xB0 PUSH1 0x4 DUP1 CALLDATASIZE SUB DUP2 ADD SWAP1 PUSH2 0xAB SWAP2 SWAP1 PUSH2 0x6CB JUMP JUMPDEST PUSH2 0x262 JUMP JUMPDEST STOP JUMPDEST PUSH2 0xCC PUSH1 0x4 DUP1 CALLDATASIZE SUB DUP2 ADD SWAP1 PUSH2 0xC7 SWAP2 SWAP1 PUSH2 0x639 JUMP JUMPDEST PUSH2 0x325 JUMP JUMPDEST PUSH1 0x40 MLOAD PUSH2 0xDA SWAP3 SWAP2 SWAP1 PUSH2 0x771 JUMP JUMPDEST PUSH1 0x40 MLOAD DUP1 SWAP2 SUB SWAP1 RETURN JUMPDEST PUSH2 0xFD PUSH1 0x4 DUP1 CALLDATASIZE SUB DUP2 ADD SWAP1 PUSH2 0xF8 SWAP2 SWAP1 PUSH2 0x7A1 JUMP JUMPDEST PUSH2 0x3EE JUMP JUMPDEST STOP JUMPDEST PUSH1 0x60 PUSH1 0x0 DUP1 SLOAD DUP1 PUSH1 0x20 MUL PUSH1 0x20 ADD PUSH1 0x40 MLOAD SWAP1 DUP2 ADD PUSH1 0x40 MSTORE DUP1 SWAP3 SWAP2 SWAP1 DUP2 DUP2 MSTORE PUSH1 0x20 ADD PUSH1 0x0 SWAP1 JUMPDEST DUP3 DUP3 LT ISZERO PUSH2 0x202 JUMPI DUP4 DUP3 SWAP1 PUSH1 0x0 MSTORE PUSH1 0x20 PUSH1 0x0 KECCAK256 SWAP1 PUSH1 0x2 MUL ADD PUSH1 0x40 MLOAD DUP1 PUSH1 0x40 ADD PUSH1 0x40 MSTORE SWAP1 DUP2 PUSH1 0x0 DUP3 ADD DUP1 SLOAD PUSH2 0x156 SWAP1 PUSH2 0x830 JUMP JUMPDEST DUP1 PUSH1 0x1F ADD PUSH1 0x20 DUP1 SWAP2 DIV MUL PUSH1 0x20 ADD PUSH1 0x40 MLOAD SWAP1 DUP2 ADD PUSH1 0x40 MSTORE DUP1 SWAP3 SWAP2 SWAP1 DUP2 DUP2 MSTORE PUSH1 0x20 ADD DUP3 DUP1 SLOAD PUSH2 0x182 SWAP1 PUSH2 0x830 JUMP JUMPDEST DUP1 ISZERO PUSH2 0x1CF JUMPI DUP1 PUSH1 0x1F LT PUSH2 0x1A4 JUMPI PUSH2 0x100 DUP1 DUP4 SLOAD DIV MUL DUP4 MSTORE SWAP2 PUSH1 0x20 ADD SWAP2 PUSH2 0x1CF JUMP JUMPDEST DUP3 ADD SWAP2 SWAP1 PUSH1 0x0 MSTORE PUSH1 0x20 PUSH1 0x0 KECCAK256 SWAP1 JUMPDEST DUP2 SLOAD DUP2 MSTORE SWAP1 PUSH1 0x1 ADD SWAP1 PUSH1 0x20 ADD DUP1 DUP4 GT PUSH2 0x1B2 JUMPI DUP3 SWAP1 SUB PUSH1 0x1F AND DUP3 ADD SWAP2 JUMPDEST POP POP POP POP POP DUP2 MSTORE PUSH1 0x20 ADD PUSH1 0x1 DUP3 ADD PUSH1 0x0 SWAP1 SLOAD SWAP1 PUSH2 0x100 EXP SWAP1 DIV PUSH1 0xFF AND ISZERO ISZERO ISZERO ISZERO DUP2 MSTORE POP POP DUP2 MSTORE PUSH1 0x20 ADD SWAP1 PUSH1 0x1 ADD SWAP1 PUSH2 0x123 JUMP JUMPDEST POP POP POP POP SWAP1 POP SWAP1 JUMP JUMPDEST PUSH1 0x0 DUP1 DUP3 DUP2 SLOAD DUP2 LT PUSH2 0x220 JUMPI PUSH2 0x21F PUSH2 0x861 JUMP JUMPDEST JUMPDEST SWAP1 PUSH1 0x0 MSTORE PUSH1 0x20 PUSH1 0x0 KECCAK256 SWAP1 PUSH1 0x2 MUL ADD SWAP1 POP DUP1 PUSH1 0x1 ADD PUSH1 0x0 SWAP1 SLOAD SWAP1 PUSH2 0x100 EXP SWAP1 DIV PUSH1 0xFF AND ISZERO DUP2 PUSH1 0x1 ADD PUSH1 0x0 PUSH2 0x100 EXP DUP2 SLOAD DUP2 PUSH1 0xFF MUL NOT AND SWAP1 DUP4 ISZERO ISZERO MUL OR SWAP1 SSTORE POP POP POP JUMP JUMPDEST PUSH1 0x0 PUSH1 0x40 MLOAD DUP1 PUSH1 0x40 ADD PUSH1 0x40 MSTORE DUP1 DUP5 DUP5 DUP1 DUP1 PUSH1 0x1F ADD PUSH1 0x20 DUP1 SWAP2 DIV MUL PUSH1 0x20 ADD PUSH1 0x40 MLOAD SWAP1 DUP2 ADD PUSH1 0x40 MSTORE DUP1 SWAP4 SWAP3 SWAP2 SWAP1 DUP2 DUP2 MSTORE PUSH1 0x20 ADD DUP4 DUP4 DUP1 DUP3 DUP5 CALLDATACOPY PUSH1 0x0 DUP2 DUP5 ADD MSTORE PUSH1 0x1F NOT PUSH1 0x1F DUP3 ADD AND SWAP1 POP DUP1 DUP4 ADD SWAP3 POP POP POP POP POP POP POP DUP2 MSTORE PUSH1 0x20 ADD PUSH1 0x0 ISZERO ISZERO DUP2 MSTORE POP SWAP1 DUP1 PUSH1 0x1 DUP2 SLOAD ADD DUP1 DUP3 SSTORE DUP1 SWAP2 POP POP PUSH1 0x1 SWAP1 SUB SWAP1 PUSH1 0x0 MSTORE PUSH1 0x20 PUSH1 0x0 KECCAK256 SWAP1 PUSH1 0x2 MUL ADD PUSH1 0x0 SWAP1 SWAP2 SWAP1 SWAP2 SWAP1 SWAP2 POP PUSH1 0x0 DUP3 ADD MLOAD DUP2 PUSH1 0x0 ADD SWAP1 DUP2 PUSH2 0x2FE SWAP2 SWAP1 PUSH2 0xA6B JUMP JUMPDEST POP PUSH1 0x20 DUP3 ADD MLOAD DUP2 PUSH1 0x1 ADD PUSH1 0x0 PUSH2 0x100 EXP DUP2 SLOAD DUP2 PUSH1 0xFF MUL NOT AND SWAP1 DUP4 ISZERO ISZERO MUL OR SWAP1 SSTORE POP POP POP POP POP JUMP JUMPDEST PUSH1 0x0 DUP2 DUP2 SLOAD DUP2 LT PUSH2 0x335 JUMPI PUSH1 0x0 DUP1 REVERT JUMPDEST SWAP1 PUSH1 0x0 MSTORE PUSH1 0x20 PUSH1 0x0 KECCAK256 SWAP1 PUSH1 0x2 MUL ADD PUSH1 0x0 SWAP2 POP SWAP1 POP DUP1 PUSH1 0x0 ADD DUP1 SLOAD PUSH2 0x358 SWAP1 PUSH2 0x830 JUMP JUMPDEST DUP1 PUSH1 0x1F ADD PUSH1 0x20 DUP1 SWAP2 DIV MUL PUSH1 0x20 ADD PUSH1 0x40 MLOAD SWAP1 DUP2 ADD PUSH1 0x40 MSTORE DUP1 SWAP3 SWAP2 SWAP1 DUP2 DUP2 MSTORE PUSH1 0x20 ADD DUP3 DUP1 SLOAD PUSH2 0x384 SWAP1 PUSH2 0x830 JUMP JUMPDEST DUP1 ISZERO PUSH2 0x3D1 JUMPI DUP1 PUSH1 0x1F LT PUSH2 0x3A6 JUMPI PUSH2 0x100 DUP1 DUP4 SLOAD DIV MUL DUP4 MSTORE SWAP2 PUSH1 0x20 ADD SWAP2 PUSH2 0x3D1 JUMP JUMPDEST DUP3 ADD SWAP2 SWAP1 PUSH1 0x0 MSTORE PUSH1 0x20 PUSH1 0x0 KECCAK256 SWAP1 JUMPDEST DUP2 SLOAD DUP2 MSTORE SWAP1 PUSH1 0x1 ADD SWAP1 PUSH1 0x20 ADD DUP1 DUP4 GT PUSH2 0x3B4 JUMPI DUP3 SWAP1 SUB PUSH1 0x1F AND DUP3 ADD SWAP2 JUMPDEST POP POP POP POP POP SWAP1 DUP1 PUSH1 0x1 ADD PUSH1 0x0 SWAP1 SLOAD SWAP1 PUSH2 0x100 EXP SWAP1 DIV PUSH1 0xFF AND SWAP1 POP DUP3 JUMP JUMPDEST PUSH1 0x0 DUP1 DUP5 DUP2 SLOAD DUP2 LT PUSH2 0x403 JUMPI PUSH2 0x402 PUSH2 0x861 JUMP JUMPDEST JUMPDEST SWAP1 PUSH1 0x0 MSTORE PUSH1 0x20 PUSH1 0x0 KECCAK256 SWAP1 PUSH1 0x2 MUL ADD SWAP1 POP DUP3 DUP3 DUP3 PUSH1 0x0 ADD SWAP2 DUP3 PUSH2 0x426 SWAP3 SWAP2 SWAP1 PUSH2 0xB48 JUMP JUMPDEST POP POP POP POP POP JUMP JUMPDEST PUSH1 0x0 DUP2 MLOAD SWAP1 POP SWAP2 SWAP1 POP JUMP JUMPDEST PUSH1 0x0 DUP3 DUP3 MSTORE PUSH1 0x20 DUP3 ADD SWAP1 POP SWAP3 SWAP2 POP POP JUMP JUMPDEST PUSH1 0x0 DUP2 SWAP1 POP PUSH1 0x20 DUP3 ADD SWAP1 POP SWAP2 SWAP1 POP JUMP JUMPDEST PUSH1 0x0 DUP2 MLOAD SWAP1 POP SWAP2 SWAP1 POP JUMP JUMPDEST PUSH1 0x0 DUP3 DUP3 MSTORE PUSH1 0x20 DUP3 ADD SWAP1 POP SWAP3 SWAP2 POP POP JUMP JUMPDEST PUSH1 0x0 JUMPDEST DUP4 DUP2 LT ISZERO PUSH2 0x493 JUMPI DUP1 DUP3 ADD MLOAD DUP2 DUP5 ADD MSTORE PUSH1 0x20 DUP2 ADD SWAP1 POP PUSH2 0x478 JUMP JUMPDEST PUSH1 0x0 DUP5 DUP5 ADD MSTORE POP POP POP POP JUMP JUMPDEST PUSH1 0x0 PUSH1 0x1F NOT PUSH1 0x1F DUP4 ADD AND SWAP1 POP SWAP2 SWAP1 POP JUMP JUMPDEST PUSH1 0x0 PUSH2 0x4BB DUP3 PUSH2 0x459 JUMP JUMPDEST PUSH2 0x4C5 DUP2 DUP6 PUSH2 0x464 JUMP JUMPDEST SWAP4 POP PUSH2 0x4D5 DUP2 DUP6 PUSH1 0x20 DUP7 ADD PUSH2 0x475 JUMP JUMPDEST PUSH2 0x4DE DUP2 PUSH2 0x49F JUMP JUMPDEST DUP5 ADD SWAP2 POP POP SWAP3 SWAP2 POP POP JUMP JUMPDEST PUSH1 0x0 DUP2 ISZERO ISZERO SWAP1 POP SWAP2 SWAP1 POP JUMP JUMPDEST PUSH2 0x4FE DUP2 PUSH2 0x4E9 JUMP JUMPDEST DUP3 MSTORE POP POP JUMP JUMPDEST PUSH1 0x0 PUSH1 0x40 DUP4 ADD PUSH1 0x0 DUP4 ADD MLOAD DUP5 DUP3 SUB PUSH1 0x0 DUP7 ADD MSTORE PUSH2 0x521 DUP3 DUP3 PUSH2 0x4B0 JUMP JUMPDEST SWAP2 POP POP PUSH1 0x20 DUP4 ADD MLOAD PUSH2 0x536 PUSH1 0x20 DUP7 ADD DUP3 PUSH2 0x4F5 JUMP JUMPDEST POP DUP1 SWAP2 POP POP SWAP3 SWAP2 POP POP JUMP JUMPDEST PUSH1 0x0 PUSH2 0x54D DUP4 DUP4 PUSH2 0x504 JUMP JUMPDEST SWAP1 POP SWAP3 SWAP2 POP POP JUMP JUMPDEST PUSH1 0x0 PUSH1 0x20 DUP3 ADD SWAP1 POP SWAP2 SWAP1 POP JUMP JUMPDEST PUSH1 0x0 PUSH2 0x56D DUP3 PUSH2 0x42D JUMP JUMPDEST PUSH2 0x577 DUP2 DUP6 PUSH2 0x438 JUMP JUMPDEST SWAP4 POP DUP4 PUSH1 0x20 DUP3 MUL DUP6 ADD PUSH2 0x589 DUP6 PUSH2 0x449 JUMP JUMPDEST DUP1 PUSH1 0x0 JUMPDEST DUP6 DUP2 LT ISZERO PUSH2 0x5C5 JUMPI DUP5 DUP5 SUB DUP10 MSTORE DUP2 MLOAD PUSH2 0x5A6 DUP6 DUP3 PUSH2 0x541 JUMP JUMPDEST SWAP5 POP PUSH2 0x5B1 DUP4 PUSH2 0x555 JUMP JUMPDEST SWAP3 POP PUSH1 0x20 DUP11 ADD SWAP10 POP POP PUSH1 0x1 DUP2 ADD SWAP1 POP PUSH2 0x58D JUMP JUMPDEST POP DUP3 SWAP8 POP DUP8 SWAP6 POP POP POP POP POP POP SWAP3 SWAP2 POP POP JUMP JUMPDEST PUSH1 0x0 PUSH1 0x20 DUP3 ADD SWAP1 POP DUP2 DUP2 SUB PUSH1 0x0 DUP4 ADD MSTORE PUSH2 0x5F1 DUP2 DUP5 PUSH2 0x562 JUMP JUMPDEST SWAP1 POP SWAP3 SWAP2 POP POP JUMP JUMPDEST PUSH1 0x0 DUP1 REVERT JUMPDEST PUSH1 0x0 DUP1 REVERT JUMPDEST PUSH1 0x0 DUP2 SWAP1 POP SWAP2 SWAP1 POP JUMP JUMPDEST PUSH2 0x616 DUP2 PUSH2 0x603 JUMP JUMPDEST DUP2 EQ PUSH2 0x621 JUMPI PUSH1 0x0 DUP1 REVERT JUMPDEST POP JUMP JUMPDEST PUSH1 0x0 DUP2 CALLDATALOAD SWAP1 POP PUSH2 0x633 DUP2 PUSH2 0x60D JUMP JUMPDEST SWAP3 SWAP2 POP POP JUMP JUMPDEST PUSH1 0x0 PUSH1 0x20 DUP3 DUP5 SUB SLT ISZERO PUSH2 0x64F JUMPI PUSH2 0x64E PUSH2 0x5F9 JUMP JUMPDEST JUMPDEST PUSH1 0x0 PUSH2 0x65D DUP5 DUP3 DUP6 ADD PUSH2 0x624 JUMP JUMPDEST SWAP2 POP POP SWAP3 SWAP2 POP POP JUMP JUMPDEST PUSH1 0x0 DUP1 REVERT JUMPDEST PUSH1 0x0 DUP1 REVERT JUMPDEST PUSH1 0x0 DUP1 REVERT JUMPDEST PUSH1 0x0 DUP1 DUP4 PUSH1 0x1F DUP5 ADD SLT PUSH2 0x68B JUMPI PUSH2 0x68A PUSH2 0x666 JUMP JUMPDEST JUMPDEST DUP3 CALLDATALOAD SWAP1 POP PUSH8 0xFFFFFFFFFFFFFFFF DUP2 GT ISZERO PUSH2 0x6A8 JUMPI PUSH2 0x6A7 PUSH2 0x66B JUMP JUMPDEST JUMPDEST PUSH1 0x20 DUP4 ADD SWAP2 POP DUP4 PUSH1 0x1 DUP3 MUL DUP4 ADD GT ISZERO PUSH2 0x6C4 JUMPI PUSH2 0x6C3 PUSH2 0x670 JUMP JUMPDEST JUMPDEST SWAP3 POP SWAP3 SWAP1 POP JUMP JUMPDEST PUSH1 0x0 DUP1 PUSH1 0x20 DUP4 DUP6 SUB SLT ISZERO PUSH2 0x6E2 JUMPI PUSH2 0x6E1 PUSH2 0x5F9 JUMP JUMPDEST JUMPDEST PUSH1 0x0 DUP4 ADD CALLDATALOAD PUSH8 0xFFFFFFFFFFFFFFFF DUP2 GT ISZERO PUSH2 0x700 JUMPI PUSH2 0x6FF PUSH2 0x5FE JUMP JUMPDEST JUMPDEST PUSH2 0x70C DUP6 DUP3 DUP7 ADD PUSH2 0x675 JUMP JUMPDEST SWAP3 POP SWAP3 POP POP SWAP3 POP SWAP3 SWAP1 POP JUMP JUMPDEST PUSH1 0x0 DUP3 DUP3 MSTORE PUSH1 0x20 DUP3 ADD SWAP1 POP SWAP3 SWAP2 POP POP JUMP JUMPDEST PUSH1 0x0 PUSH2 0x734 DUP3 PUSH2 0x459 JUMP JUMPDEST PUSH2 0x73E DUP2 DUP6 PUSH2 0x718 JUMP JUMPDEST SWAP4 POP PUSH2 0x74E DUP2 DUP6 PUSH1 0x20 DUP7 ADD PUSH2 0x475 JUMP JUMPDEST PUSH2 0x757 DUP2 PUSH2 0x49F JUMP JUMPDEST DUP5 ADD SWAP2 POP POP SWAP3 SWAP2 POP POP JUMP JUMPDEST PUSH2 0x76B DUP2 PUSH2 0x4E9 JUMP JUMPDEST DUP3 MSTORE POP POP JUMP JUMPDEST PUSH1 0x0 PUSH1 0x40 DUP3 ADD SWAP1 POP DUP2 DUP2 SUB PUSH1 0x0 DUP4 ADD MSTORE PUSH2 0x78B DUP2 DUP6 PUSH2 0x729 JUMP JUMPDEST SWAP1 POP PUSH2 0x79A PUSH1 0x20 DUP4 ADD DUP5 PUSH2 0x762 JUMP JUMPDEST SWAP4 SWAP3 POP POP POP JUMP JUMPDEST PUSH1 0x0 DUP1 PUSH1 0x0 PUSH1 0x40 DUP5 DUP7 SUB SLT ISZERO PUSH2 0x7BA JUMPI PUSH2 0x7B9 PUSH2 0x5F9 JUMP JUMPDEST JUMPDEST PUSH1 0x0 PUSH2 0x7C8 DUP7 DUP3 DUP8 ADD PUSH2 0x624 JUMP JUMPDEST SWAP4 POP POP PUSH1 0x20 DUP5 ADD CALLDATALOAD PUSH8 0xFFFFFFFFFFFFFFFF DUP2 GT ISZERO PUSH2 0x7E9 JUMPI PUSH2 0x7E8 PUSH2 0x5FE JUMP JUMPDEST JUMPDEST PUSH2 0x7F5 DUP7 DUP3 DUP8 ADD PUSH2 0x675 JUMP JUMPDEST SWAP3 POP SWAP3 POP POP SWAP3 POP SWAP3 POP SWAP3 JUMP JUMPDEST PUSH32 0x4E487B7100000000000000000000000000000000000000000000000000000000 PUSH1 0x0 MSTORE PUSH1 0x22 PUSH1 0x4 MSTORE PUSH1 0x24 PUSH1 0x0 REVERT JUMPDEST PUSH1 0x0 PUSH1 0x2 DUP3 DIV SWAP1 POP PUSH1 0x1 DUP3 AND DUP1 PUSH2 0x848 JUMPI PUSH1 0x7F DUP3 AND SWAP2 POP JUMPDEST PUSH1 0x20 DUP3 LT DUP2 SUB PUSH2 0x85B JUMPI PUSH2 0x85A PUSH2 0x801 JUMP JUMPDEST JUMPDEST POP SWAP2 SWAP1 POP JUMP JUMPDEST PUSH32 0x4E487B7100000000000000000000000000000000000000000000000000000000 PUSH1 0x0 MSTORE PUSH1 0x32 PUSH1 0x4 MSTORE PUSH1 0x24 PUSH1 0x0 REVERT JUMPDEST PUSH32 0x4E487B7100000000000000000000000000000000000000000000000000000000 PUSH1 0x0 MSTORE PUSH1 0x41 PUSH1 0x4 MSTORE PUSH1 0x24 PUSH1 0x0 REVERT JUMPDEST PUSH1 0x0 DUP2 SWAP1 POP DUP2 PUSH1 0x0 MSTORE PUSH1 0x20 PUSH1 0x0 KECCAK256 SWAP1 POP SWAP2 SWAP1 POP JUMP JUMPDEST PUSH1 0x0 PUSH1 0x20 PUSH1 0x1F DUP4 ADD DIV SWAP1 POP SWAP2 SWAP1 POP JUMP JUMPDEST PUSH1 0x0 DUP3 DUP3 SHL SWAP1 POP SWAP3 SWAP2 POP POP JUMP JUMPDEST PUSH1 0x0 PUSH1 0x8 DUP4 MUL PUSH2 0x921 PUSH32 0xFFFFFFFFFFFFFFFFFFFFFFFFFFFFFFFFFFFFFFFFFFFFFFFFFFFFFFFFFFFFFFFF DUP3 PUSH2 0x8E4 JUMP JUMPDEST PUSH2 0x92B DUP7 DUP4 PUSH2 0x8E4 JUMP JUMPDEST SWAP6 POP DUP1 NOT DUP5 AND SWAP4 POP DUP1 DUP7 AND DUP5 OR SWAP3 POP POP POP SWAP4 SWAP3 POP POP POP JUMP JUMPDEST PUSH1 0x0 DUP2 SWAP1 POP SWAP2 SWAP1 POP JUMP JUMPDEST PUSH1 0x0 PUSH2 0x968 PUSH2 0x963 PUSH2 0x95E DUP5 PUSH2 0x603 JUMP JUMPDEST PUSH2 0x943 JUMP JUMPDEST PUSH2 0x603 JUMP JUMPDEST SWAP1 POP SWAP2 SWAP1 POP JUMP JUMPDEST PUSH1 0x0 DUP2 SWAP1 POP SWAP2 SWAP1 POP JUMP JUMPDEST PUSH2 0x982 DUP4 PUSH2 0x94D JUMP JUMPDEST PUSH2 0x996 PUSH2 0x98E DUP3 PUSH2 0x96F JUMP JUMPDEST DUP5 DUP5 SLOAD PUSH2 0x8F1 JUMP JUMPDEST DUP3 SSTORE POP POP POP POP JUMP JUMPDEST PUSH1 0x0 SWAP1 JUMP JUMPDEST PUSH2 0x9AB PUSH2 0x99E JUMP JUMPDEST PUSH2 0x9B6 DUP2 DUP5 DUP5 PUSH2 0x979 JUMP JUMPDEST POP POP POP JUMP JUMPDEST JUMPDEST DUP2 DUP2 LT ISZERO PUSH2 0x9DA JUMPI PUSH2 0x9CF PUSH1 0x0 DUP3 PUSH2 0x9A3 JUMP JUMPDEST PUSH1 0x1 DUP2 ADD SWAP1 POP PUSH2 0x9BC JUMP JUMPDEST POP POP JUMP JUMPDEST PUSH1 0x1F DUP3 GT ISZERO PUSH2 0xA1F JUMPI PUSH2 0x9F0 DUP2 PUSH2 0x8BF JUMP JUMPDEST PUSH2 0x9F9 DUP5 PUSH2 0x8D4 JUMP JUMPDEST DUP2 ADD PUSH1 0x20 DUP6 LT ISZERO PUSH2 0xA08 JUMPI DUP2 SWAP1 POP JUMPDEST PUSH2 0xA1C PUSH2 0xA14 DUP6 PUSH2 0x8D4 JUMP JUMPDEST DUP4 ADD DUP3 PUSH2 0x9BB JUMP JUMPDEST POP POP JUMPDEST POP POP POP JUMP JUMPDEST PUSH1 0x0 DUP3 DUP3 SHR SWAP1 POP SWAP3 SWAP2 POP POP JUMP JUMPDEST PUSH1 0x0 PUSH2 0xA42 PUSH1 0x0 NOT DUP5 PUSH1 0x8 MUL PUSH2 0xA24 JUMP JUMPDEST NOT DUP1 DUP4 AND SWAP2 POP POP SWAP3 SWAP2 POP POP JUMP JUMPDEST PUSH1 0x0 PUSH2 0xA5B DUP4 DUP4 PUSH2 0xA31 JUMP JUMPDEST SWAP2 POP DUP3 PUSH1 0x2 MUL DUP3 OR SWAP1 POP SWAP3 SWAP2 POP POP JUMP JUMPDEST PUSH2 0xA74 DUP3 PUSH2 0x459 JUMP JUMPDEST PUSH8 0xFFFFFFFFFFFFFFFF DUP2 GT ISZERO PUSH2 0xA8D JUMPI PUSH2 0xA8C PUSH2 0x890 JUMP JUMPDEST JUMPDEST PUSH2 0xA97 DUP3 SLOAD PUSH2 0x830 JUMP JUMPDEST PUSH2 0xAA2 DUP3 DUP3 DUP6 PUSH2 0x9DE JUMP JUMPDEST PUSH1 0x0 PUSH1 0x20 SWAP1 POP PUSH1 0x1F DUP4 GT PUSH1 0x1 DUP2 EQ PUSH2 0xAD5 JUMPI PUSH1 0x0 DUP5 ISZERO PUSH2 0xAC3 JUMPI DUP3 DUP8 ADD MLOAD SWAP1 POP JUMPDEST PUSH2 0xACD DUP6 DUP3 PUSH2 0xA4F JUMP JUMPDEST DUP7 SSTORE POP PUSH2 0xB35 JUMP JUMPDEST PUSH1 0x1F NOT DUP5 AND PUSH2 0xAE3 DUP7 PUSH2 0x8BF JUMP JUMPDEST PUSH1 0x0 JUMPDEST DUP3 DUP2 LT ISZERO PUSH2 0xB0B JUMPI DUP5 DUP10 ADD MLOAD DUP3 SSTORE PUSH1 0x1 DUP3 ADD SWAP2 POP PUSH1 0x20 DUP6 ADD SWAP5 POP PUSH1 0x20 DUP2 ADD SWAP1 POP PUSH2 0xAE6 JUMP JUMPDEST DUP7 DUP4 LT ISZERO PUSH2 0xB28 JUMPI DUP5 DUP10 ADD MLOAD PUSH2 0xB24 PUSH1 0x1F DUP10 AND DUP3 PUSH2 0xA31 JUMP JUMPDEST DUP4 SSTORE POP JUMPDEST PUSH1 0x1 PUSH1 0x2 DUP9 MUL ADD DUP9 SSTORE POP POP POP JUMPDEST POP POP POP POP POP POP JUMP JUMPDEST PUSH1 0x0 DUP3 SWAP1 POP SWAP3 SWAP2 POP POP JUMP JUMPDEST PUSH2 0xB52 DUP4 DUP4 PUSH2 0xB3D JUMP JUMPDEST PUSH8 0xFFFFFFFFFFFFFFFF DUP2 GT ISZERO PUSH2 0xB6B JUMPI PUSH2 0xB6A PUSH2 0x890 JUMP JUMPDEST JUMPDEST PUSH2 0xB75 DUP3 SLOAD PUSH2 0x830 JUMP JUMPDEST PUSH2 0xB80 DUP3 DUP3 DUP6 PUSH2 0x9DE JUMP JUMPDEST PUSH1 0x0 PUSH1 0x1F DUP4 GT PUSH1 0x1 DUP2 EQ PUSH2 0xBAF JUMPI PUSH1 0x0 DUP5 ISZERO PUSH2 0xB9D JUMPI DUP3 DUP8 ADD CALLDATALOAD SWAP1 POP JUMPDEST PUSH2 0xBA7 DUP6 DUP3 PUSH2 0xA4F JUMP JUMPDEST DUP7 SSTORE POP PUSH2 0xC0F JUMP JUMPDEST PUSH1 0x1F NOT DUP5 AND PUSH2 0xBBD DUP7 PUSH2 0x8BF JUMP JUMPDEST PUSH1 0x0 JUMPDEST DUP3 DUP2 LT ISZERO PUSH2 0xBE5 JUMPI DUP5 DUP10 ADD CALLDATALOAD DUP3 SSTORE PUSH1 0x1 DUP3 ADD SWAP2 POP PUSH1 0x20 DUP6 ADD SWAP5 POP PUSH1 0x20 DUP2 ADD SWAP1 POP PUSH2 0xBC0 JUMP JUMPDEST DUP7 DUP4 LT ISZERO PUSH2 0xC02 JUMPI DUP5 DUP10 ADD CALLDATALOAD PUSH2 0xBFE PUSH1 0x1F DUP10 AND DUP3 PUSH2 0xA31 JUMP JUMPDEST DUP4 SSTORE POP JUMPDEST PUSH1 0x1 PUSH1 0x2 DUP9 MUL ADD DUP9 SSTORE POP POP POP JUMPDEST POP POP POP POP POP POP POP JUMP INVALID LOG2 PUSH5 0x6970667358 0x22 SLT KECCAK256 0xEA SWAP14 0xE1 JUMP 0x27 PUSH8 0x3A3D470BF877DA66 DUP5 0x29 0xFB 0xC0 PUSH11 0x2FA11302CB6849C036F171 0xDB SWAP13 PUSH5 0x736F6C6343 STOP ADDMOD GT STOP CALLER "
				},
				"gasEstimates": {
					"creation": {
						"codeDepositCost": "630000",
						"executionCost": "664",
						"totalCost": "630664"
					},
					"external": {
						"create(string)": "infinite",
						"getData()": "infinite",
						"todos(uint256)": "infinite",
						"toggleCompleted(uint256)": "29028",
						"updatetask(uint256,string)": "infinite"
					}
				},
				"methodIdentifiers": {
					"create(string)": "b6a46b3b",
					"getData()": "3bc5de30",
					"todos(uint256)": "bc8bc2b4",
					"toggleCompleted(uint256)": "455f5024",
					"updatetask(uint256,string)": "c38a09cf"
				}
			},
			"storageLayout": {
				"storage": [
					{
						"astId": 10,
						"contract": "5_Day/3_structs.sol:Todos",
						"label": "todos",
						"offset": 0,
						"slot": "0",
						"type": "t_array(t_struct(Todo)6_storage)dyn_storage"
					}
				],
				"types": {
					"t_array(t_struct(Todo)6_storage)dyn_storage": {
						"base": "t_struct(Todo)6_storage",
						"encoding": "dynamic_array",
						"label": "struct Todos.Todo[]",
						"numberOfBytes": "32"
					},
					"t_bool": {
						"encoding": "inplace",
						"label": "bool",
						"numberOfBytes": "1"
					},
					"t_string_storage": {
						"encoding": "bytes",
						"label": "string",
						"numberOfBytes": "32"
					},
					"t_struct(Todo)6_storage": {
						"encoding": "inplace",
						"label": "struct Todos.Todo",
						"members": [
							{
								"astId": 3,
								"contract": "5_Day/3_structs.sol:Todos",
								"label": "task",
								"offset": 0,
								"slot": "0",
								"type": "t_string_storage"
							},
							{
								"astId": 5,
								"contract": "5_Day/3_structs.sol:Todos",
								"label": "completed",
								"offset": 0,
								"slot": "1",
								"type": "t_bool"
							}
						],
						"numberOfBytes": "64"
					}
				}
			},
			"userdoc": {
				"kind": "user",
				"methods": {},
				"version": 1
			}
		}
	}
}