{
	"5_Day/3_structs_basic.sol": {
		"Student": {
			"abi": [
				{
					"inputs": [
						{
							"internalType": "uint256",
							"name": "age",
							"type": "uint256"
						}
					],
					"name": "setAge",
					"outputs": [],
					"stateMutability": "nonpayable",
					"type": "function"
				},
				{
					"inputs": [
						{
							"internalType": "string",
							"name": "_name",
							"type": "string"
						},
						{
							"internalType": "address",
							"name": "_addr",
							"type": "address"
						}
					],
					"name": "setName",
					"outputs": [],
					"stateMutability": "nonpayable",
					"type": "function"
				},
				{
					"inputs": [],
					"name": "student",
					"outputs": [
						{
							"internalType": "string",
							"name": "name",
							"type": "string"
						},
						{
							"internalType": "uint256",
							"name": "age",
							"type": "uint256"
						}
					],
					"stateMutability": "view",
					"type": "function"
				}
			],
			"devdoc": {
				"kind": "dev",
				"methods": {},
				"version": 1
			},
			"evm": {
				"assembly": "    /* \"5_Day/3_structs_basic.sol\":58:566  contract Student {... */\n  mstore(0x40, 0x80)\n  callvalue\n  dup1\n  iszero\n  tag_1\n  jumpi\n  0x00\n  dup1\n  revert\ntag_1:\n  pop\n  dataSize(sub_0)\n  dup1\n  dataOffset(sub_0)\n  0x00\n  codecopy\n  0x00\n  return\nstop\n\nsub_0: assembly {\n        /* \"5_Day/3_structs_basic.sol\":58:566  contract Student {... */\n      mstore(0x40, 0x80)\n      callvalue\n      dup1\n      iszero\n      tag_1\n      jumpi\n      0x00\n      dup1\n      revert\n    tag_1:\n      pop\n      jumpi(tag_2, lt(calldatasize, 0x04))\n      shr(0xe0, calldataload(0x00))\n      dup1\n      0x699450e8\n      eq\n      tag_3\n      jumpi\n      dup1\n      0xd5dcf127\n      eq\n      tag_4\n      jumpi\n      dup1\n      0xec07c2d1\n      eq\n      tag_5\n      jumpi\n    tag_2:\n      0x00\n      dup1\n      revert\n        /* \"5_Day/3_structs_basic.sol\":344:372  StudentStruct public student */\n    tag_3:\n      tag_6\n      tag_7\n      jump\t// in\n    tag_6:\n      mload(0x40)\n      tag_8\n      swap3\n      swap2\n      swap1\n      tag_9\n      jump\t// in\n    tag_8:\n      mload(0x40)\n      dup1\n      swap2\n      sub\n      swap1\n      return\n        /* \"5_Day/3_structs_basic.sol\":482:549  function setAge(uint age) public {... */\n    tag_4:\n      tag_10\n      0x04\n      dup1\n      calldatasize\n      sub\n      dup2\n      add\n      swap1\n      tag_11\n      swap2\n      swap1\n      tag_12\n      jump\t// in\n    tag_11:\n      tag_13\n      jump\t// in\n    tag_10:\n      stop\n        /* \"5_Day/3_structs_basic.sol\":379:476  function setName(string memory _name, address _addr) public {... */\n    tag_5:\n      tag_14\n      0x04\n      dup1\n      calldatasize\n      sub\n      dup2\n      add\n      swap1\n      tag_15\n      swap2\n      swap1\n      tag_16\n      jump\t// in\n    tag_15:\n      tag_17\n      jump\t// in\n    tag_14:\n      stop\n        /* \"5_Day/3_structs_basic.sol\":344:372  StudentStruct public student */\n    tag_7:\n      0x01\n      dup1\n      0x00\n      add\n      dup1\n      sload\n      tag_18\n      swap1\n      tag_19\n      jump\t// in\n    tag_18:\n      dup1\n      0x1f\n      add\n      0x20\n      dup1\n      swap2\n      div\n      mul\n      0x20\n      add\n      mload(0x40)\n      swap1\n      dup2\n      add\n      0x40\n      mstore\n      dup1\n      swap3\n      swap2\n      swap1\n      dup2\n      dup2\n      mstore\n      0x20\n      add\n      dup3\n      dup1\n      sload\n      tag_20\n      swap1\n      tag_19\n      jump\t// in\n    tag_20:\n      dup1\n      iszero\n      tag_21\n      jumpi\n      dup1\n      0x1f\n      lt\n      tag_22\n      jumpi\n      0x0100\n      dup1\n      dup4\n      sload\n      div\n      mul\n      dup4\n      mstore\n      swap2\n      0x20\n      add\n      swap2\n      jump(tag_21)\n    tag_22:\n      dup3\n      add\n      swap2\n      swap1\n      0x00\n      mstore\n      keccak256(0x00, 0x20)\n      swap1\n    tag_23:\n      dup2\n      sload\n      dup2\n      mstore\n      swap1\n      0x01\n      add\n      swap1\n      0x20\n      add\n      dup1\n      dup4\n      gt\n      tag_23\n      jumpi\n      dup3\n      swap1\n      sub\n      0x1f\n      and\n      dup3\n      add\n      swap2\n    tag_21:\n      pop\n      pop\n      pop\n      pop\n      pop\n      swap1\n      dup1\n      0x01\n      add\n      sload\n      swap1\n      pop\n      dup3\n      jump\t// out\n        /* \"5_Day/3_structs_basic.sol\":482:549  function setAge(uint age) public {... */\n    tag_13:\n        /* \"5_Day/3_structs_basic.sol\":539:542  age */\n      dup1\n        /* \"5_Day/3_structs_basic.sol\":525:532  student */\n      0x01\n        /* \"5_Day/3_structs_basic.sol\":525:536  student.age */\n      dup1\n      add\n        /* \"5_Day/3_structs_basic.sol\":525:542  student.age = age */\n      dup2\n      swap1\n      sstore\n      pop\n        /* \"5_Day/3_structs_basic.sol\":482:549  function setAge(uint age) public {... */\n      pop\n      jump\t// out\n        /* \"5_Day/3_structs_basic.sol\":379:476  function setName(string memory _name, address _addr) public {... */\n    tag_17:\n        /* \"5_Day/3_structs_basic.sol\":464:469  _name */\n      dup2\n        /* \"5_Day/3_structs_basic.sol\":449:456  student */\n      0x01\n        /* \"5_Day/3_structs_basic.sol\":449:461  student.name */\n      0x00\n      add\n        /* \"5_Day/3_structs_basic.sol\":449:469  student.name = _name */\n      swap1\n      dup2\n      tag_26\n      swap2\n      swap1\n      tag_27\n      jump\t// in\n    tag_26:\n      pop\n        /* \"5_Day/3_structs_basic.sol\":379:476  function setName(string memory _name, address _addr) public {... */\n      pop\n      pop\n      jump\t// out\n        /* \"#utility.yul\":7:106   */\n    tag_28:\n        /* \"#utility.yul\":59:65   */\n      0x00\n        /* \"#utility.yul\":93:98   */\n      dup2\n        /* \"#utility.yul\":87:99   */\n      mload\n        /* \"#utility.yul\":77:99   */\n      swap1\n      pop\n        /* \"#utility.yul\":7:106   */\n      swap2\n      swap1\n      pop\n      jump\t// out\n        /* \"#utility.yul\":112:281   */\n    tag_29:\n        /* \"#utility.yul\":196:207   */\n      0x00\n        /* \"#utility.yul\":230:236   */\n      dup3\n        /* \"#utility.yul\":225:228   */\n      dup3\n        /* \"#utility.yul\":218:237   */\n      mstore\n        /* \"#utility.yul\":270:274   */\n      0x20\n        /* \"#utility.yul\":265:268   */\n      dup3\n        /* \"#utility.yul\":261:275   */\n      add\n        /* \"#utility.yul\":246:275   */\n      swap1\n      pop\n        /* \"#utility.yul\":112:281   */\n      swap3\n      swap2\n      pop\n      pop\n      jump\t// out\n        /* \"#utility.yul\":287:533   */\n    tag_30:\n        /* \"#utility.yul\":368:369   */\n      0x00\n        /* \"#utility.yul\":378:491   */\n    tag_73:\n        /* \"#utility.yul\":392:398   */\n      dup4\n        /* \"#utility.yul\":389:390   */\n      dup2\n        /* \"#utility.yul\":386:399   */\n      lt\n        /* \"#utility.yul\":378:491   */\n      iszero\n      tag_75\n      jumpi\n        /* \"#utility.yul\":477:478   */\n      dup1\n        /* \"#utility.yul\":472:475   */\n      dup3\n        /* \"#utility.yul\":468:479   */\n      add\n        /* \"#utility.yul\":462:480   */\n      mload\n        /* \"#utility.yul\":458:459   */\n      dup2\n        /* \"#utility.yul\":453:456   */\n      dup5\n        /* \"#utility.yul\":449:460   */\n      add\n        /* \"#utility.yul\":442:481   */\n      mstore\n        /* \"#utility.yul\":414:416   */\n      0x20\n        /* \"#utility.yul\":411:412   */\n      dup2\n        /* \"#utility.yul\":407:417   */\n      add\n        /* \"#utility.yul\":402:417   */\n      swap1\n      pop\n        /* \"#utility.yul\":378:491   */\n      jump(tag_73)\n    tag_75:\n        /* \"#utility.yul\":525:526   */\n      0x00\n        /* \"#utility.yul\":516:522   */\n      dup5\n        /* \"#utility.yul\":511:514   */\n      dup5\n        /* \"#utility.yul\":507:523   */\n      add\n        /* \"#utility.yul\":500:527   */\n      mstore\n        /* \"#utility.yul\":349:533   */\n      pop\n        /* \"#utility.yul\":287:533   */\n      pop\n      pop\n      pop\n      jump\t// out\n        /* \"#utility.yul\":539:641   */\n    tag_31:\n        /* \"#utility.yul\":580:586   */\n      0x00\n        /* \"#utility.yul\":631:633   */\n      0x1f\n        /* \"#utility.yul\":627:634   */\n      not\n        /* \"#utility.yul\":622:624   */\n      0x1f\n        /* \"#utility.yul\":615:620   */\n      dup4\n        /* \"#utility.yul\":611:625   */\n      add\n        /* \"#utility.yul\":607:635   */\n      and\n        /* \"#utility.yul\":597:635   */\n      swap1\n      pop\n        /* \"#utility.yul\":539:641   */\n      swap2\n      swap1\n      pop\n      jump\t// out\n        /* \"#utility.yul\":647:1024   */\n    tag_32:\n        /* \"#utility.yul\":735:738   */\n      0x00\n        /* \"#utility.yul\":763:802   */\n      tag_78\n        /* \"#utility.yul\":796:801   */\n      dup3\n        /* \"#utility.yul\":763:802   */\n      tag_28\n      jump\t// in\n    tag_78:\n        /* \"#utility.yul\":818:889   */\n      tag_79\n        /* \"#utility.yul\":882:888   */\n      dup2\n        /* \"#utility.yul\":877:880   */\n      dup6\n        /* \"#utility.yul\":818:889   */\n      tag_29\n      jump\t// in\n    tag_79:\n        /* \"#utility.yul\":811:889   */\n      swap4\n      pop\n        /* \"#utility.yul\":898:963   */\n      tag_80\n        /* \"#utility.yul\":956:962   */\n      dup2\n        /* \"#utility.yul\":951:954   */\n      dup6\n        /* \"#utility.yul\":944:948   */\n      0x20\n        /* \"#utility.yul\":937:942   */\n      dup7\n        /* \"#utility.yul\":933:949   */\n      add\n        /* \"#utility.yul\":898:963   */\n      tag_30\n      jump\t// in\n    tag_80:\n        /* \"#utility.yul\":988:1017   */\n      tag_81\n        /* \"#utility.yul\":1010:1016   */\n      dup2\n        /* \"#utility.yul\":988:1017   */\n      tag_31\n      jump\t// in\n    tag_81:\n        /* \"#utility.yul\":983:986   */\n      dup5\n        /* \"#utility.yul\":979:1018   */\n      add\n        /* \"#utility.yul\":972:1018   */\n      swap2\n      pop\n        /* \"#utility.yul\":739:1024   */\n      pop\n        /* \"#utility.yul\":647:1024   */\n      swap3\n      swap2\n      pop\n      pop\n      jump\t// out\n        /* \"#utility.yul\":1030:1107   */\n    tag_33:\n        /* \"#utility.yul\":1067:1074   */\n      0x00\n        /* \"#utility.yul\":1096:1101   */\n      dup2\n        /* \"#utility.yul\":1085:1101   */\n      swap1\n      pop\n        /* \"#utility.yul\":1030:1107   */\n      swap2\n      swap1\n      pop\n      jump\t// out\n        /* \"#utility.yul\":1113:1231   */\n    tag_34:\n        /* \"#utility.yul\":1200:1224   */\n      tag_84\n        /* \"#utility.yul\":1218:1223   */\n      dup2\n        /* \"#utility.yul\":1200:1224   */\n      tag_33\n      jump\t// in\n    tag_84:\n        /* \"#utility.yul\":1195:1198   */\n      dup3\n        /* \"#utility.yul\":1188:1225   */\n      mstore\n        /* \"#utility.yul\":1113:1231   */\n      pop\n      pop\n      jump\t// out\n        /* \"#utility.yul\":1237:1660   */\n    tag_9:\n        /* \"#utility.yul\":1378:1382   */\n      0x00\n        /* \"#utility.yul\":1416:1418   */\n      0x40\n        /* \"#utility.yul\":1405:1414   */\n      dup3\n        /* \"#utility.yul\":1401:1419   */\n      add\n        /* \"#utility.yul\":1393:1419   */\n      swap1\n      pop\n        /* \"#utility.yul\":1465:1474   */\n      dup2\n        /* \"#utility.yul\":1459:1463   */\n      dup2\n        /* \"#utility.yul\":1455:1475   */\n      sub\n        /* \"#utility.yul\":1451:1452   */\n      0x00\n        /* \"#utility.yul\":1440:1449   */\n      dup4\n        /* \"#utility.yul\":1436:1453   */\n      add\n        /* \"#utility.yul\":1429:1476   */\n      mstore\n        /* \"#utility.yul\":1493:1571   */\n      tag_86\n        /* \"#utility.yul\":1566:1570   */\n      dup2\n        /* \"#utility.yul\":1557:1563   */\n      dup6\n        /* \"#utility.yul\":1493:1571   */\n      tag_32\n      jump\t// in\n    tag_86:\n        /* \"#utility.yul\":1485:1571   */\n      swap1\n      pop\n        /* \"#utility.yul\":1581:1653   */\n      tag_87\n        /* \"#utility.yul\":1649:1651   */\n      0x20\n        /* \"#utility.yul\":1638:1647   */\n      dup4\n        /* \"#utility.yul\":1634:1652   */\n      add\n        /* \"#utility.yul\":1625:1631   */\n      dup5\n        /* \"#utility.yul\":1581:1653   */\n      tag_34\n      jump\t// in\n    tag_87:\n        /* \"#utility.yul\":1237:1660   */\n      swap4\n      swap3\n      pop\n      pop\n      pop\n      jump\t// out\n        /* \"#utility.yul\":1666:1741   */\n    tag_35:\n        /* \"#utility.yul\":1699:1705   */\n      0x00\n        /* \"#utility.yul\":1732:1734   */\n      0x40\n        /* \"#utility.yul\":1726:1735   */\n      mload\n        /* \"#utility.yul\":1716:1735   */\n      swap1\n      pop\n        /* \"#utility.yul\":1666:1741   */\n      swap1\n      jump\t// out\n        /* \"#utility.yul\":1747:1864   */\n    tag_36:\n        /* \"#utility.yul\":1856:1857   */\n      0x00\n        /* \"#utility.yul\":1853:1854   */\n      dup1\n        /* \"#utility.yul\":1846:1858   */\n      revert\n        /* \"#utility.yul\":1870:1987   */\n    tag_37:\n        /* \"#utility.yul\":1979:1980   */\n      0x00\n        /* \"#utility.yul\":1976:1977   */\n      dup1\n        /* \"#utility.yul\":1969:1981   */\n      revert\n        /* \"#utility.yul\":1993:2115   */\n    tag_38:\n        /* \"#utility.yul\":2066:2090   */\n      tag_92\n        /* \"#utility.yul\":2084:2089   */\n      dup2\n        /* \"#utility.yul\":2066:2090   */\n      tag_33\n      jump\t// in\n    tag_92:\n        /* \"#utility.yul\":2059:2064   */\n      dup2\n        /* \"#utility.yul\":2056:2091   */\n      eq\n        /* \"#utility.yul\":2046:2109   */\n      tag_93\n      jumpi\n        /* \"#utility.yul\":2105:2106   */\n      0x00\n        /* \"#utility.yul\":2102:2103   */\n      dup1\n        /* \"#utility.yul\":2095:2107   */\n      revert\n        /* \"#utility.yul\":2046:2109   */\n    tag_93:\n        /* \"#utility.yul\":1993:2115   */\n      pop\n      jump\t// out\n        /* \"#utility.yul\":2121:2260   */\n    tag_39:\n        /* \"#utility.yul\":2167:2172   */\n      0x00\n        /* \"#utility.yul\":2205:2211   */\n      dup2\n        /* \"#utility.yul\":2192:2212   */\n      calldataload\n        /* \"#utility.yul\":2183:2212   */\n      swap1\n      pop\n        /* \"#utility.yul\":2221:2254   */\n      tag_95\n        /* \"#utility.yul\":2248:2253   */\n      dup2\n        /* \"#utility.yul\":2221:2254   */\n      tag_38\n      jump\t// in\n    tag_95:\n        /* \"#utility.yul\":2121:2260   */\n      swap3\n      swap2\n      pop\n      pop\n      jump\t// out\n        /* \"#utility.yul\":2266:2595   */\n    tag_12:\n        /* \"#utility.yul\":2325:2331   */\n      0x00\n        /* \"#utility.yul\":2374:2376   */\n      0x20\n        /* \"#utility.yul\":2362:2371   */\n      dup3\n        /* \"#utility.yul\":2353:2360   */\n      dup5\n        /* \"#utility.yul\":2349:2372   */\n      sub\n        /* \"#utility.yul\":2345:2377   */\n      slt\n        /* \"#utility.yul\":2342:2461   */\n      iszero\n      tag_97\n      jumpi\n        /* \"#utility.yul\":2380:2459   */\n      tag_98\n      tag_36\n      jump\t// in\n    tag_98:\n        /* \"#utility.yul\":2342:2461   */\n    tag_97:\n        /* \"#utility.yul\":2500:2501   */\n      0x00\n        /* \"#utility.yul\":2525:2578   */\n      tag_99\n        /* \"#utility.yul\":2570:2577   */\n      dup5\n        /* \"#utility.yul\":2561:2567   */\n      dup3\n        /* \"#utility.yul\":2550:2559   */\n      dup6\n        /* \"#utility.yul\":2546:2568   */\n      add\n        /* \"#utility.yul\":2525:2578   */\n      tag_39\n      jump\t// in\n    tag_99:\n        /* \"#utility.yul\":2515:2578   */\n      swap2\n      pop\n        /* \"#utility.yul\":2471:2588   */\n      pop\n        /* \"#utility.yul\":2266:2595   */\n      swap3\n      swap2\n      pop\n      pop\n      jump\t// out\n        /* \"#utility.yul\":2601:2718   */\n    tag_40:\n        /* \"#utility.yul\":2710:2711   */\n      0x00\n        /* \"#utility.yul\":2707:2708   */\n      dup1\n        /* \"#utility.yul\":2700:2712   */\n      revert\n        /* \"#utility.yul\":2724:2841   */\n    tag_41:\n        /* \"#utility.yul\":2833:2834   */\n      0x00\n        /* \"#utility.yul\":2830:2831   */\n      dup1\n        /* \"#utility.yul\":2823:2835   */\n      revert\n        /* \"#utility.yul\":2847:3027   */\n    tag_42:\n        /* \"#utility.yul\":2895:2972   */\n      0x4e487b7100000000000000000000000000000000000000000000000000000000\n        /* \"#utility.yul\":2892:2893   */\n      0x00\n        /* \"#utility.yul\":2885:2973   */\n      mstore\n        /* \"#utility.yul\":2992:2996   */\n      0x41\n        /* \"#utility.yul\":2989:2990   */\n      0x04\n        /* \"#utility.yul\":2982:2997   */\n      mstore\n        /* \"#utility.yul\":3016:3020   */\n      0x24\n        /* \"#utility.yul\":3013:3014   */\n      0x00\n        /* \"#utility.yul\":3006:3021   */\n      revert\n        /* \"#utility.yul\":3033:3314   */\n    tag_43:\n        /* \"#utility.yul\":3116:3143   */\n      tag_104\n        /* \"#utility.yul\":3138:3142   */\n      dup3\n        /* \"#utility.yul\":3116:3143   */\n      tag_31\n      jump\t// in\n    tag_104:\n        /* \"#utility.yul\":3108:3114   */\n      dup2\n        /* \"#utility.yul\":3104:3144   */\n      add\n        /* \"#utility.yul\":3246:3252   */\n      dup2\n        /* \"#utility.yul\":3234:3244   */\n      dup2\n        /* \"#utility.yul\":3231:3253   */\n      lt\n        /* \"#utility.yul\":3210:3228   */\n      0xffffffffffffffff\n        /* \"#utility.yul\":3198:3208   */\n      dup3\n        /* \"#utility.yul\":3195:3229   */\n      gt\n        /* \"#utility.yul\":3192:3254   */\n      or\n        /* \"#utility.yul\":3189:3277   */\n      iszero\n      tag_105\n      jumpi\n        /* \"#utility.yul\":3257:3275   */\n      tag_106\n      tag_42\n      jump\t// in\n    tag_106:\n        /* \"#utility.yul\":3189:3277   */\n    tag_105:\n        /* \"#utility.yul\":3297:3307   */\n      dup1\n        /* \"#utility.yul\":3293:3295   */\n      0x40\n        /* \"#utility.yul\":3286:3308   */\n      mstore\n        /* \"#utility.yul\":3076:3314   */\n      pop\n        /* \"#utility.yul\":3033:3314   */\n      pop\n      pop\n      jump\t// out\n        /* \"#utility.yul\":3320:3449   */\n    tag_44:\n        /* \"#utility.yul\":3354:3360   */\n      0x00\n        /* \"#utility.yul\":3381:3401   */\n      tag_108\n      tag_35\n      jump\t// in\n    tag_108:\n        /* \"#utility.yul\":3371:3401   */\n      swap1\n      pop\n        /* \"#utility.yul\":3410:3443   */\n      tag_109\n        /* \"#utility.yul\":3438:3442   */\n      dup3\n        /* \"#utility.yul\":3430:3436   */\n      dup3\n        /* \"#utility.yul\":3410:3443   */\n      tag_43\n      jump\t// in\n    tag_109:\n        /* \"#utility.yul\":3320:3449   */\n      swap2\n      swap1\n      pop\n      jump\t// out\n        /* \"#utility.yul\":3455:3763   */\n    tag_45:\n        /* \"#utility.yul\":3517:3521   */\n      0x00\n        /* \"#utility.yul\":3607:3625   */\n      0xffffffffffffffff\n        /* \"#utility.yul\":3599:3605   */\n      dup3\n        /* \"#utility.yul\":3596:3626   */\n      gt\n        /* \"#utility.yul\":3593:3649   */\n      iszero\n      tag_111\n      jumpi\n        /* \"#utility.yul\":3629:3647   */\n      tag_112\n      tag_42\n      jump\t// in\n    tag_112:\n        /* \"#utility.yul\":3593:3649   */\n    tag_111:\n        /* \"#utility.yul\":3667:3696   */\n      tag_113\n        /* \"#utility.yul\":3689:3695   */\n      dup3\n        /* \"#utility.yul\":3667:3696   */\n      tag_31\n      jump\t// in\n    tag_113:\n        /* \"#utility.yul\":3659:3696   */\n      swap1\n      pop\n        /* \"#utility.yul\":3751:3755   */\n      0x20\n        /* \"#utility.yul\":3745:3749   */\n      dup2\n        /* \"#utility.yul\":3741:3756   */\n      add\n        /* \"#utility.yul\":3733:3756   */\n      swap1\n      pop\n        /* \"#utility.yul\":3455:3763   */\n      swap2\n      swap1\n      pop\n      jump\t// out\n        /* \"#utility.yul\":3769:3915   */\n    tag_46:\n        /* \"#utility.yul\":3866:3872   */\n      dup3\n        /* \"#utility.yul\":3861:3864   */\n      dup2\n        /* \"#utility.yul\":3856:3859   */\n      dup4\n        /* \"#utility.yul\":3843:3873   */\n      calldatacopy\n        /* \"#utility.yul\":3907:3908   */\n      0x00\n        /* \"#utility.yul\":3898:3904   */\n      dup4\n        /* \"#utility.yul\":3893:3896   */\n      dup4\n        /* \"#utility.yul\":3889:3905   */\n      add\n        /* \"#utility.yul\":3882:3909   */\n      mstore\n        /* \"#utility.yul\":3769:3915   */\n      pop\n      pop\n      pop\n      jump\t// out\n        /* \"#utility.yul\":3921:4346   */\n    tag_47:\n        /* \"#utility.yul\":3999:4004   */\n      0x00\n        /* \"#utility.yul\":4024:4090   */\n      tag_116\n        /* \"#utility.yul\":4040:4089   */\n      tag_117\n        /* \"#utility.yul\":4082:4088   */\n      dup5\n        /* \"#utility.yul\":4040:4089   */\n      tag_45\n      jump\t// in\n    tag_117:\n        /* \"#utility.yul\":4024:4090   */\n      tag_44\n      jump\t// in\n    tag_116:\n        /* \"#utility.yul\":4015:4090   */\n      swap1\n      pop\n        /* \"#utility.yul\":4113:4119   */\n      dup3\n        /* \"#utility.yul\":4106:4111   */\n      dup2\n        /* \"#utility.yul\":4099:4120   */\n      mstore\n        /* \"#utility.yul\":4151:4155   */\n      0x20\n        /* \"#utility.yul\":4144:4149   */\n      dup2\n        /* \"#utility.yul\":4140:4156   */\n      add\n        /* \"#utility.yul\":4189:4192   */\n      dup5\n        /* \"#utility.yul\":4180:4186   */\n      dup5\n        /* \"#utility.yul\":4175:4178   */\n      dup5\n        /* \"#utility.yul\":4171:4187   */\n      add\n        /* \"#utility.yul\":4168:4193   */\n      gt\n        /* \"#utility.yul\":4165:4277   */\n      iszero\n      tag_118\n      jumpi\n        /* \"#utility.yul\":4196:4275   */\n      tag_119\n      tag_41\n      jump\t// in\n    tag_119:\n        /* \"#utility.yul\":4165:4277   */\n    tag_118:\n        /* \"#utility.yul\":4286:4340   */\n      tag_120\n        /* \"#utility.yul\":4333:4339   */\n      dup5\n        /* \"#utility.yul\":4328:4331   */\n      dup3\n        /* \"#utility.yul\":4323:4326   */\n      dup6\n        /* \"#utility.yul\":4286:4340   */\n      tag_46\n      jump\t// in\n    tag_120:\n        /* \"#utility.yul\":4005:4346   */\n      pop\n        /* \"#utility.yul\":3921:4346   */\n      swap4\n      swap3\n      pop\n      pop\n      pop\n      jump\t// out\n        /* \"#utility.yul\":4366:4706   */\n    tag_48:\n        /* \"#utility.yul\":4422:4427   */\n      0x00\n        /* \"#utility.yul\":4471:4474   */\n      dup3\n        /* \"#utility.yul\":4464:4468   */\n      0x1f\n        /* \"#utility.yul\":4456:4462   */\n      dup4\n        /* \"#utility.yul\":4452:4469   */\n      add\n        /* \"#utility.yul\":4448:4475   */\n      slt\n        /* \"#utility.yul\":4438:4560   */\n      tag_122\n      jumpi\n        /* \"#utility.yul\":4479:4558   */\n      tag_123\n      tag_40\n      jump\t// in\n    tag_123:\n        /* \"#utility.yul\":4438:4560   */\n    tag_122:\n        /* \"#utility.yul\":4596:4602   */\n      dup2\n        /* \"#utility.yul\":4583:4603   */\n      calldataload\n        /* \"#utility.yul\":4621:4700   */\n      tag_124\n        /* \"#utility.yul\":4696:4699   */\n      dup5\n        /* \"#utility.yul\":4688:4694   */\n      dup3\n        /* \"#utility.yul\":4681:4685   */\n      0x20\n        /* \"#utility.yul\":4673:4679   */\n      dup7\n        /* \"#utility.yul\":4669:4686   */\n      add\n        /* \"#utility.yul\":4621:4700   */\n      tag_47\n      jump\t// in\n    tag_124:\n        /* \"#utility.yul\":4612:4700   */\n      swap2\n      pop\n        /* \"#utility.yul\":4428:4706   */\n      pop\n        /* \"#utility.yul\":4366:4706   */\n      swap3\n      swap2\n      pop\n      pop\n      jump\t// out\n        /* \"#utility.yul\":4712:4838   */\n    tag_49:\n        /* \"#utility.yul\":4749:4756   */\n      0x00\n        /* \"#utility.yul\":4789:4831   */\n      0xffffffffffffffffffffffffffffffffffffffff\n        /* \"#utility.yul\":4782:4787   */\n      dup3\n        /* \"#utility.yul\":4778:4832   */\n      and\n        /* \"#utility.yul\":4767:4832   */\n      swap1\n      pop\n        /* \"#utility.yul\":4712:4838   */\n      swap2\n      swap1\n      pop\n      jump\t// out\n        /* \"#utility.yul\":4844:4940   */\n    tag_50:\n        /* \"#utility.yul\":4881:4888   */\n      0x00\n        /* \"#utility.yul\":4910:4934   */\n      tag_127\n        /* \"#utility.yul\":4928:4933   */\n      dup3\n        /* \"#utility.yul\":4910:4934   */\n      tag_49\n      jump\t// in\n    tag_127:\n        /* \"#utility.yul\":4899:4934   */\n      swap1\n      pop\n        /* \"#utility.yul\":4844:4940   */\n      swap2\n      swap1\n      pop\n      jump\t// out\n        /* \"#utility.yul\":4946:5068   */\n    tag_51:\n        /* \"#utility.yul\":5019:5043   */\n      tag_129\n        /* \"#utility.yul\":5037:5042   */\n      dup2\n        /* \"#utility.yul\":5019:5043   */\n      tag_50\n      jump\t// in\n    tag_129:\n        /* \"#utility.yul\":5012:5017   */\n      dup2\n        /* \"#utility.yul\":5009:5044   */\n      eq\n        /* \"#utility.yul\":4999:5062   */\n      tag_130\n      jumpi\n        /* \"#utility.yul\":5058:5059   */\n      0x00\n        /* \"#utility.yul\":5055:5056   */\n      dup1\n        /* \"#utility.yul\":5048:5060   */\n      revert\n        /* \"#utility.yul\":4999:5062   */\n    tag_130:\n        /* \"#utility.yul\":4946:5068   */\n      pop\n      jump\t// out\n        /* \"#utility.yul\":5074:5213   */\n    tag_52:\n        /* \"#utility.yul\":5120:5125   */\n      0x00\n        /* \"#utility.yul\":5158:5164   */\n      dup2\n        /* \"#utility.yul\":5145:5165   */\n      calldataload\n        /* \"#utility.yul\":5136:5165   */\n      swap1\n      pop\n        /* \"#utility.yul\":5174:5207   */\n      tag_132\n        /* \"#utility.yul\":5201:5206   */\n      dup2\n        /* \"#utility.yul\":5174:5207   */\n      tag_51\n      jump\t// in\n    tag_132:\n        /* \"#utility.yul\":5074:5213   */\n      swap3\n      swap2\n      pop\n      pop\n      jump\t// out\n        /* \"#utility.yul\":5219:5873   */\n    tag_16:\n        /* \"#utility.yul\":5297:5303   */\n      0x00\n        /* \"#utility.yul\":5305:5311   */\n      dup1\n        /* \"#utility.yul\":5354:5356   */\n      0x40\n        /* \"#utility.yul\":5342:5351   */\n      dup4\n        /* \"#utility.yul\":5333:5340   */\n      dup6\n        /* \"#utility.yul\":5329:5352   */\n      sub\n        /* \"#utility.yul\":5325:5357   */\n      slt\n        /* \"#utility.yul\":5322:5441   */\n      iszero\n      tag_134\n      jumpi\n        /* \"#utility.yul\":5360:5439   */\n      tag_135\n      tag_36\n      jump\t// in\n    tag_135:\n        /* \"#utility.yul\":5322:5441   */\n    tag_134:\n        /* \"#utility.yul\":5508:5509   */\n      0x00\n        /* \"#utility.yul\":5497:5506   */\n      dup4\n        /* \"#utility.yul\":5493:5510   */\n      add\n        /* \"#utility.yul\":5480:5511   */\n      calldataload\n        /* \"#utility.yul\":5538:5556   */\n      0xffffffffffffffff\n        /* \"#utility.yul\":5530:5536   */\n      dup2\n        /* \"#utility.yul\":5527:5557   */\n      gt\n        /* \"#utility.yul\":5524:5641   */\n      iszero\n      tag_136\n      jumpi\n        /* \"#utility.yul\":5560:5639   */\n      tag_137\n      tag_37\n      jump\t// in\n    tag_137:\n        /* \"#utility.yul\":5524:5641   */\n    tag_136:\n        /* \"#utility.yul\":5665:5728   */\n      tag_138\n        /* \"#utility.yul\":5720:5727   */\n      dup6\n        /* \"#utility.yul\":5711:5717   */\n      dup3\n        /* \"#utility.yul\":5700:5709   */\n      dup7\n        /* \"#utility.yul\":5696:5718   */\n      add\n        /* \"#utility.yul\":5665:5728   */\n      tag_48\n      jump\t// in\n    tag_138:\n        /* \"#utility.yul\":5655:5728   */\n      swap3\n      pop\n        /* \"#utility.yul\":5451:5738   */\n      pop\n        /* \"#utility.yul\":5777:5779   */\n      0x20\n        /* \"#utility.yul\":5803:5856   */\n      tag_139\n        /* \"#utility.yul\":5848:5855   */\n      dup6\n        /* \"#utility.yul\":5839:5845   */\n      dup3\n        /* \"#utility.yul\":5828:5837   */\n      dup7\n        /* \"#utility.yul\":5824:5846   */\n      add\n        /* \"#utility.yul\":5803:5856   */\n      tag_52\n      jump\t// in\n    tag_139:\n        /* \"#utility.yul\":5793:5856   */\n      swap2\n      pop\n        /* \"#utility.yul\":5748:5866   */\n      pop\n        /* \"#utility.yul\":5219:5873   */\n      swap3\n      pop\n      swap3\n      swap1\n      pop\n      jump\t// out\n        /* \"#utility.yul\":5879:6059   */\n    tag_53:\n        /* \"#utility.yul\":5927:6004   */\n      0x4e487b7100000000000000000000000000000000000000000000000000000000\n        /* \"#utility.yul\":5924:5925   */\n      0x00\n        /* \"#utility.yul\":5917:6005   */\n      mstore\n        /* \"#utility.yul\":6024:6028   */\n      0x22\n        /* \"#utility.yul\":6021:6022   */\n      0x04\n        /* \"#utility.yul\":6014:6029   */\n      mstore\n        /* \"#utility.yul\":6048:6052   */\n      0x24\n        /* \"#utility.yul\":6045:6046   */\n      0x00\n        /* \"#utility.yul\":6038:6053   */\n      revert\n        /* \"#utility.yul\":6065:6385   */\n    tag_19:\n        /* \"#utility.yul\":6109:6115   */\n      0x00\n        /* \"#utility.yul\":6146:6147   */\n      0x02\n        /* \"#utility.yul\":6140:6144   */\n      dup3\n        /* \"#utility.yul\":6136:6148   */\n      div\n        /* \"#utility.yul\":6126:6148   */\n      swap1\n      pop\n        /* \"#utility.yul\":6193:6194   */\n      0x01\n        /* \"#utility.yul\":6187:6191   */\n      dup3\n        /* \"#utility.yul\":6183:6195   */\n      and\n        /* \"#utility.yul\":6214:6232   */\n      dup1\n        /* \"#utility.yul\":6204:6285   */\n      tag_142\n      jumpi\n        /* \"#utility.yul\":6270:6274   */\n      0x7f\n        /* \"#utility.yul\":6262:6268   */\n      dup3\n        /* \"#utility.yul\":6258:6275   */\n      and\n        /* \"#utility.yul\":6248:6275   */\n      swap2\n      pop\n        /* \"#utility.yul\":6204:6285   */\n    tag_142:\n        /* \"#utility.yul\":6332:6334   */\n      0x20\n        /* \"#utility.yul\":6324:6330   */\n      dup3\n        /* \"#utility.yul\":6321:6335   */\n      lt\n        /* \"#utility.yul\":6301:6319   */\n      dup2\n        /* \"#utility.yul\":6298:6336   */\n      sub\n        /* \"#utility.yul\":6295:6379   */\n      tag_143\n      jumpi\n        /* \"#utility.yul\":6351:6369   */\n      tag_144\n      tag_53\n      jump\t// in\n    tag_144:\n        /* \"#utility.yul\":6295:6379   */\n    tag_143:\n        /* \"#utility.yul\":6116:6385   */\n      pop\n        /* \"#utility.yul\":6065:6385   */\n      swap2\n      swap1\n      pop\n      jump\t// out\n        /* \"#utility.yul\":6391:6532   */\n    tag_54:\n        /* \"#utility.yul\":6440:6444   */\n      0x00\n        /* \"#utility.yul\":6463:6466   */\n      dup2\n        /* \"#utility.yul\":6455:6466   */\n      swap1\n      pop\n        /* \"#utility.yul\":6486:6489   */\n      dup2\n        /* \"#utility.yul\":6483:6484   */\n      0x00\n        /* \"#utility.yul\":6476:6490   */\n      mstore\n        /* \"#utility.yul\":6520:6524   */\n      0x20\n        /* \"#utility.yul\":6517:6518   */\n      0x00\n        /* \"#utility.yul\":6507:6525   */\n      keccak256\n        /* \"#utility.yul\":6499:6525   */\n      swap1\n      pop\n        /* \"#utility.yul\":6391:6532   */\n      swap2\n      swap1\n      pop\n      jump\t// out\n        /* \"#utility.yul\":6538:6631   */\n    tag_55:\n        /* \"#utility.yul\":6575:6581   */\n      0x00\n        /* \"#utility.yul\":6622:6624   */\n      0x20\n        /* \"#utility.yul\":6617:6619   */\n      0x1f\n        /* \"#utility.yul\":6610:6615   */\n      dup4\n        /* \"#utility.yul\":6606:6620   */\n      add\n        /* \"#utility.yul\":6602:6625   */\n      div\n        /* \"#utility.yul\":6592:6625   */\n      swap1\n      pop\n        /* \"#utility.yul\":6538:6631   */\n      swap2\n      swap1\n      pop\n      jump\t// out\n        /* \"#utility.yul\":6637:6744   */\n    tag_56:\n        /* \"#utility.yul\":6681:6689   */\n      0x00\n        /* \"#utility.yul\":6731:6736   */\n      dup3\n        /* \"#utility.yul\":6725:6729   */\n      dup3\n        /* \"#utility.yul\":6721:6737   */\n      shl\n        /* \"#utility.yul\":6700:6737   */\n      swap1\n      pop\n        /* \"#utility.yul\":6637:6744   */\n      swap3\n      swap2\n      pop\n      pop\n      jump\t// out\n        /* \"#utility.yul\":6750:7143   */\n    tag_57:\n        /* \"#utility.yul\":6819:6825   */\n      0x00\n        /* \"#utility.yul\":6869:6870   */\n      0x08\n        /* \"#utility.yul\":6857:6867   */\n      dup4\n        /* \"#utility.yul\":6853:6871   */\n      mul\n        /* \"#utility.yul\":6892:6989   */\n      tag_149\n        /* \"#utility.yul\":6922:6988   */\n      0xffffffffffffffffffffffffffffffffffffffffffffffffffffffffffffffff\n        /* \"#utility.yul\":6911:6920   */\n      dup3\n        /* \"#utility.yul\":6892:6989   */\n      tag_56\n      jump\t// in\n    tag_149:\n        /* \"#utility.yul\":7010:7049   */\n      tag_150\n        /* \"#utility.yul\":7040:7048   */\n      dup7\n        /* \"#utility.yul\":7029:7038   */\n      dup4\n        /* \"#utility.yul\":7010:7049   */\n      tag_56\n      jump\t// in\n    tag_150:\n        /* \"#utility.yul\":6998:7049   */\n      swap6\n      pop\n        /* \"#utility.yul\":7082:7086   */\n      dup1\n        /* \"#utility.yul\":7078:7087   */\n      not\n        /* \"#utility.yul\":7071:7076   */\n      dup5\n        /* \"#utility.yul\":7067:7088   */\n      and\n        /* \"#utility.yul\":7058:7088   */\n      swap4\n      pop\n        /* \"#utility.yul\":7131:7135   */\n      dup1\n        /* \"#utility.yul\":7121:7129   */\n      dup7\n        /* \"#utility.yul\":7117:7136   */\n      and\n        /* \"#utility.yul\":7110:7115   */\n      dup5\n        /* \"#utility.yul\":7107:7137   */\n      or\n        /* \"#utility.yul\":7097:7137   */\n      swap3\n      pop\n        /* \"#utility.yul\":6826:7143   */\n      pop\n      pop\n        /* \"#utility.yul\":6750:7143   */\n      swap4\n      swap3\n      pop\n      pop\n      pop\n      jump\t// out\n        /* \"#utility.yul\":7149:7209   */\n    tag_58:\n        /* \"#utility.yul\":7177:7180   */\n      0x00\n        /* \"#utility.yul\":7198:7203   */\n      dup2\n        /* \"#utility.yul\":7191:7203   */\n      swap1\n      pop\n        /* \"#utility.yul\":7149:7209   */\n      swap2\n      swap1\n      pop\n      jump\t// out\n        /* \"#utility.yul\":7215:7357   */\n    tag_59:\n        /* \"#utility.yul\":7265:7274   */\n      0x00\n        /* \"#utility.yul\":7298:7351   */\n      tag_153\n        /* \"#utility.yul\":7316:7350   */\n      tag_154\n        /* \"#utility.yul\":7325:7349   */\n      tag_155\n        /* \"#utility.yul\":7343:7348   */\n      dup5\n        /* \"#utility.yul\":7325:7349   */\n      tag_33\n      jump\t// in\n    tag_155:\n        /* \"#utility.yul\":7316:7350   */\n      tag_58\n      jump\t// in\n    tag_154:\n        /* \"#utility.yul\":7298:7351   */\n      tag_33\n      jump\t// in\n    tag_153:\n        /* \"#utility.yul\":7285:7351   */\n      swap1\n      pop\n        /* \"#utility.yul\":7215:7357   */\n      swap2\n      swap1\n      pop\n      jump\t// out\n        /* \"#utility.yul\":7363:7438   */\n    tag_60:\n        /* \"#utility.yul\":7406:7409   */\n      0x00\n        /* \"#utility.yul\":7427:7432   */\n      dup2\n        /* \"#utility.yul\":7420:7432   */\n      swap1\n      pop\n        /* \"#utility.yul\":7363:7438   */\n      swap2\n      swap1\n      pop\n      jump\t// out\n        /* \"#utility.yul\":7444:7713   */\n    tag_61:\n        /* \"#utility.yul\":7554:7593   */\n      tag_158\n        /* \"#utility.yul\":7585:7592   */\n      dup4\n        /* \"#utility.yul\":7554:7593   */\n      tag_59\n      jump\t// in\n    tag_158:\n        /* \"#utility.yul\":7615:7706   */\n      tag_159\n        /* \"#utility.yul\":7664:7705   */\n      tag_160\n        /* \"#utility.yul\":7688:7704   */\n      dup3\n        /* \"#utility.yul\":7664:7705   */\n      tag_60\n      jump\t// in\n    tag_160:\n        /* \"#utility.yul\":7656:7662   */\n      dup5\n        /* \"#utility.yul\":7649:7653   */\n      dup5\n        /* \"#utility.yul\":7643:7654   */\n      sload\n        /* \"#utility.yul\":7615:7706   */\n      tag_57\n      jump\t// in\n    tag_159:\n        /* \"#utility.yul\":7609:7613   */\n      dup3\n        /* \"#utility.yul\":7602:7707   */\n      sstore\n        /* \"#utility.yul\":7520:7713   */\n      pop\n        /* \"#utility.yul\":7444:7713   */\n      pop\n      pop\n      pop\n      jump\t// out\n        /* \"#utility.yul\":7719:7792   */\n    tag_62:\n        /* \"#utility.yul\":7764:7767   */\n      0x00\n        /* \"#utility.yul\":7719:7792   */\n      swap1\n      jump\t// out\n        /* \"#utility.yul\":7798:7987   */\n    tag_63:\n        /* \"#utility.yul\":7875:7907   */\n      tag_163\n      tag_62\n      jump\t// in\n    tag_163:\n        /* \"#utility.yul\":7916:7981   */\n      tag_164\n        /* \"#utility.yul\":7974:7980   */\n      dup2\n        /* \"#utility.yul\":7966:7972   */\n      dup5\n        /* \"#utility.yul\":7960:7964   */\n      dup5\n        /* \"#utility.yul\":7916:7981   */\n      tag_61\n      jump\t// in\n    tag_164:\n        /* \"#utility.yul\":7851:7987   */\n      pop\n        /* \"#utility.yul\":7798:7987   */\n      pop\n      pop\n      jump\t// out\n        /* \"#utility.yul\":7993:8179   */\n    tag_64:\n        /* \"#utility.yul\":8053:8173   */\n    tag_166:\n        /* \"#utility.yul\":8070:8073   */\n      dup2\n        /* \"#utility.yul\":8063:8068   */\n      dup2\n        /* \"#utility.yul\":8060:8074   */\n      lt\n        /* \"#utility.yul\":8053:8173   */\n      iszero\n      tag_168\n      jumpi\n        /* \"#utility.yul\":8124:8163   */\n      tag_169\n        /* \"#utility.yul\":8161:8162   */\n      0x00\n        /* \"#utility.yul\":8154:8159   */\n      dup3\n        /* \"#utility.yul\":8124:8163   */\n      tag_63\n      jump\t// in\n    tag_169:\n        /* \"#utility.yul\":8097:8098   */\n      0x01\n        /* \"#utility.yul\":8090:8095   */\n      dup2\n        /* \"#utility.yul\":8086:8099   */\n      add\n        /* \"#utility.yul\":8077:8099   */\n      swap1\n      pop\n        /* \"#utility.yul\":8053:8173   */\n      jump(tag_166)\n    tag_168:\n        /* \"#utility.yul\":7993:8179   */\n      pop\n      pop\n      jump\t// out\n        /* \"#utility.yul\":8185:8728   */\n    tag_65:\n        /* \"#utility.yul\":8286:8288   */\n      0x1f\n        /* \"#utility.yul\":8281:8284   */\n      dup3\n        /* \"#utility.yul\":8278:8289   */\n      gt\n        /* \"#utility.yul\":8275:8721   */\n      iszero\n      tag_171\n      jumpi\n        /* \"#utility.yul\":8320:8358   */\n      tag_172\n        /* \"#utility.yul\":8352:8357   */\n      dup2\n        /* \"#utility.yul\":8320:8358   */\n      tag_54\n      jump\t// in\n    tag_172:\n        /* \"#utility.yul\":8404:8433   */\n      tag_173\n        /* \"#utility.yul\":8422:8432   */\n      dup5\n        /* \"#utility.yul\":8404:8433   */\n      tag_55\n      jump\t// in\n    tag_173:\n        /* \"#utility.yul\":8394:8402   */\n      dup2\n        /* \"#utility.yul\":8390:8434   */\n      add\n        /* \"#utility.yul\":8587:8589   */\n      0x20\n        /* \"#utility.yul\":8575:8585   */\n      dup6\n        /* \"#utility.yul\":8572:8590   */\n      lt\n        /* \"#utility.yul\":8569:8618   */\n      iszero\n      tag_174\n      jumpi\n        /* \"#utility.yul\":8608:8616   */\n      dup2\n        /* \"#utility.yul\":8593:8616   */\n      swap1\n      pop\n        /* \"#utility.yul\":8569:8618   */\n    tag_174:\n        /* \"#utility.yul\":8631:8711   */\n      tag_175\n        /* \"#utility.yul\":8687:8709   */\n      tag_176\n        /* \"#utility.yul\":8705:8708   */\n      dup6\n        /* \"#utility.yul\":8687:8709   */\n      tag_55\n      jump\t// in\n    tag_176:\n        /* \"#utility.yul\":8677:8685   */\n      dup4\n        /* \"#utility.yul\":8673:8710   */\n      add\n        /* \"#utility.yul\":8660:8671   */\n      dup3\n        /* \"#utility.yul\":8631:8711   */\n      tag_64\n      jump\t// in\n    tag_175:\n        /* \"#utility.yul\":8290:8721   */\n      pop\n      pop\n        /* \"#utility.yul\":8275:8721   */\n    tag_171:\n        /* \"#utility.yul\":8185:8728   */\n      pop\n      pop\n      pop\n      jump\t// out\n        /* \"#utility.yul\":8734:8851   */\n    tag_66:\n        /* \"#utility.yul\":8788:8796   */\n      0x00\n        /* \"#utility.yul\":8838:8843   */\n      dup3\n        /* \"#utility.yul\":8832:8836   */\n      dup3\n        /* \"#utility.yul\":8828:8844   */\n      shr\n        /* \"#utility.yul\":8807:8844   */\n      swap1\n      pop\n        /* \"#utility.yul\":8734:8851   */\n      swap3\n      swap2\n      pop\n      pop\n      jump\t// out\n        /* \"#utility.yul\":8857:9026   */\n    tag_67:\n        /* \"#utility.yul\":8901:8907   */\n      0x00\n        /* \"#utility.yul\":8934:8985   */\n      tag_179\n        /* \"#utility.yul\":8982:8983   */\n      0x00\n        /* \"#utility.yul\":8978:8984   */\n      not\n        /* \"#utility.yul\":8970:8975   */\n      dup5\n        /* \"#utility.yul\":8967:8968   */\n      0x08\n        /* \"#utility.yul\":8963:8976   */\n      mul\n        /* \"#utility.yul\":8934:8985   */\n      tag_66\n      jump\t// in\n    tag_179:\n        /* \"#utility.yul\":8930:8986   */\n      not\n        /* \"#utility.yul\":9015:9019   */\n      dup1\n        /* \"#utility.yul\":9009:9013   */\n      dup4\n        /* \"#utility.yul\":9005:9020   */\n      and\n        /* \"#utility.yul\":8995:9020   */\n      swap2\n      pop\n        /* \"#utility.yul\":8908:9026   */\n      pop\n        /* \"#utility.yul\":8857:9026   */\n      swap3\n      swap2\n      pop\n      pop\n      jump\t// out\n        /* \"#utility.yul\":9031:9326   */\n    tag_68:\n        /* \"#utility.yul\":9107:9111   */\n      0x00\n        /* \"#utility.yul\":9253:9282   */\n      tag_181\n        /* \"#utility.yul\":9278:9281   */\n      dup4\n        /* \"#utility.yul\":9272:9276   */\n      dup4\n        /* \"#utility.yul\":9253:9282   */\n      tag_67\n      jump\t// in\n    tag_181:\n        /* \"#utility.yul\":9245:9282   */\n      swap2\n      pop\n        /* \"#utility.yul\":9315:9318   */\n      dup3\n        /* \"#utility.yul\":9312:9313   */\n      0x02\n        /* \"#utility.yul\":9308:9319   */\n      mul\n        /* \"#utility.yul\":9302:9306   */\n      dup3\n        /* \"#utility.yul\":9299:9320   */\n      or\n        /* \"#utility.yul\":9291:9320   */\n      swap1\n      pop\n        /* \"#utility.yul\":9031:9326   */\n      swap3\n      swap2\n      pop\n      pop\n      jump\t// out\n        /* \"#utility.yul\":9331:10726   */\n    tag_27:\n        /* \"#utility.yul\":9448:9485   */\n      tag_183\n        /* \"#utility.yul\":9481:9484   */\n      dup3\n        /* \"#utility.yul\":9448:9485   */\n      tag_28\n      jump\t// in\n    tag_183:\n        /* \"#utility.yul\":9550:9568   */\n      0xffffffffffffffff\n        /* \"#utility.yul\":9542:9548   */\n      dup2\n        /* \"#utility.yul\":9539:9569   */\n      gt\n        /* \"#utility.yul\":9536:9592   */\n      iszero\n      tag_184\n      jumpi\n        /* \"#utility.yul\":9572:9590   */\n      tag_185\n      tag_42\n      jump\t// in\n    tag_185:\n        /* \"#utility.yul\":9536:9592   */\n    tag_184:\n        /* \"#utility.yul\":9616:9654   */\n      tag_186\n        /* \"#utility.yul\":9648:9652   */\n      dup3\n        /* \"#utility.yul\":9642:9653   */\n      sload\n        /* \"#utility.yul\":9616:9654   */\n      tag_19\n      jump\t// in\n    tag_186:\n        /* \"#utility.yul\":9701:9768   */\n      tag_187\n        /* \"#utility.yul\":9761:9767   */\n      dup3\n        /* \"#utility.yul\":9753:9759   */\n      dup3\n        /* \"#utility.yul\":9747:9751   */\n      dup6\n        /* \"#utility.yul\":9701:9768   */\n      tag_65\n      jump\t// in\n    tag_187:\n        /* \"#utility.yul\":9795:9796   */\n      0x00\n        /* \"#utility.yul\":9819:9823   */\n      0x20\n        /* \"#utility.yul\":9806:9823   */\n      swap1\n      pop\n        /* \"#utility.yul\":9851:9853   */\n      0x1f\n        /* \"#utility.yul\":9843:9849   */\n      dup4\n        /* \"#utility.yul\":9840:9854   */\n      gt\n        /* \"#utility.yul\":9868:9869   */\n      0x01\n        /* \"#utility.yul\":9863:10481   */\n      dup2\n      eq\n      tag_189\n      jumpi\n        /* \"#utility.yul\":10525:10526   */\n      0x00\n        /* \"#utility.yul\":10542:10548   */\n      dup5\n        /* \"#utility.yul\":10539:10616   */\n      iszero\n      tag_190\n      jumpi\n        /* \"#utility.yul\":10591:10600   */\n      dup3\n        /* \"#utility.yul\":10586:10589   */\n      dup8\n        /* \"#utility.yul\":10582:10601   */\n      add\n        /* \"#utility.yul\":10576:10602   */\n      mload\n        /* \"#utility.yul\":10567:10602   */\n      swap1\n      pop\n        /* \"#utility.yul\":10539:10616   */\n    tag_190:\n        /* \"#utility.yul\":10642:10709   */\n      tag_191\n        /* \"#utility.yul\":10702:10708   */\n      dup6\n        /* \"#utility.yul\":10695:10700   */\n      dup3\n        /* \"#utility.yul\":10642:10709   */\n      tag_68\n      jump\t// in\n    tag_191:\n        /* \"#utility.yul\":10636:10640   */\n      dup7\n        /* \"#utility.yul\":10629:10710   */\n      sstore\n        /* \"#utility.yul\":10498:10720   */\n      pop\n        /* \"#utility.yul\":9833:10720   */\n      jump(tag_188)\n        /* \"#utility.yul\":9863:10481   */\n    tag_189:\n        /* \"#utility.yul\":9915:9919   */\n      0x1f\n        /* \"#utility.yul\":9911:9920   */\n      not\n        /* \"#utility.yul\":9903:9909   */\n      dup5\n        /* \"#utility.yul\":9899:9921   */\n      and\n        /* \"#utility.yul\":9949:9986   */\n      tag_192\n        /* \"#utility.yul\":9981:9985   */\n      dup7\n        /* \"#utility.yul\":9949:9986   */\n      tag_54\n      jump\t// in\n    tag_192:\n        /* \"#utility.yul\":10008:10009   */\n      0x00\n        /* \"#utility.yul\":10022:10230   */\n    tag_193:\n        /* \"#utility.yul\":10036:10043   */\n      dup3\n        /* \"#utility.yul\":10033:10034   */\n      dup2\n        /* \"#utility.yul\":10030:10044   */\n      lt\n        /* \"#utility.yul\":10022:10230   */\n      iszero\n      tag_195\n      jumpi\n        /* \"#utility.yul\":10115:10124   */\n      dup5\n        /* \"#utility.yul\":10110:10113   */\n      dup10\n        /* \"#utility.yul\":10106:10125   */\n      add\n        /* \"#utility.yul\":10100:10126   */\n      mload\n        /* \"#utility.yul\":10092:10098   */\n      dup3\n        /* \"#utility.yul\":10085:10127   */\n      sstore\n        /* \"#utility.yul\":10166:10167   */\n      0x01\n        /* \"#utility.yul\":10158:10164   */\n      dup3\n        /* \"#utility.yul\":10154:10168   */\n      add\n        /* \"#utility.yul\":10144:10168   */\n      swap2\n      pop\n        /* \"#utility.yul\":10213:10215   */\n      0x20\n        /* \"#utility.yul\":10202:10211   */\n      dup6\n        /* \"#utility.yul\":10198:10216   */\n      add\n        /* \"#utility.yul\":10185:10216   */\n      swap5\n      pop\n        /* \"#utility.yul\":10059:10063   */\n      0x20\n        /* \"#utility.yul\":10056:10057   */\n      dup2\n        /* \"#utility.yul\":10052:10064   */\n      add\n        /* \"#utility.yul\":10047:10064   */\n      swap1\n      pop\n        /* \"#utility.yul\":10022:10230   */\n      jump(tag_193)\n    tag_195:\n        /* \"#utility.yul\":10258:10264   */\n      dup7\n        /* \"#utility.yul\":10249:10256   */\n      dup4\n        /* \"#utility.yul\":10246:10265   */\n      lt\n        /* \"#utility.yul\":10243:10422   */\n      iszero\n      tag_196\n      jumpi\n        /* \"#utility.yul\":10316:10325   */\n      dup5\n        /* \"#utility.yul\":10311:10314   */\n      dup10\n        /* \"#utility.yul\":10307:10326   */\n      add\n        /* \"#utility.yul\":10301:10327   */\n      mload\n        /* \"#utility.yul\":10359:10407   */\n      tag_197\n        /* \"#utility.yul\":10401:10405   */\n      0x1f\n        /* \"#utility.yul\":10393:10399   */\n      dup10\n        /* \"#utility.yul\":10389:10406   */\n      and\n        /* \"#utility.yul\":10378:10387   */\n      dup3\n        /* \"#utility.yul\":10359:10407   */\n      tag_67\n      jump\t// in\n    tag_197:\n        /* \"#utility.yul\":10351:10357   */\n      dup4\n        /* \"#utility.yul\":10344:10408   */\n      sstore\n        /* \"#utility.yul\":10266:10422   */\n      pop\n        /* \"#utility.yul\":10243:10422   */\n    tag_196:\n        /* \"#utility.yul\":10468:10469   */\n      0x01\n        /* \"#utility.yul\":10464:10465   */\n      0x02\n        /* \"#utility.yul\":10456:10462   */\n      dup9\n        /* \"#utility.yul\":10452:10466   */\n      mul\n        /* \"#utility.yul\":10448:10470   */\n      add\n        /* \"#utility.yul\":10442:10446   */\n      dup9\n        /* \"#utility.yul\":10435:10471   */\n      sstore\n        /* \"#utility.yul\":9870:10481   */\n      pop\n      pop\n      pop\n        /* \"#utility.yul\":9833:10720   */\n    tag_188:\n      pop\n        /* \"#utility.yul\":9423:10726   */\n      pop\n      pop\n      pop\n        /* \"#utility.yul\":9331:10726   */\n      pop\n      pop\n      jump\t// out\n\n    auxdata: 0xa264697066735822122056f3110a2e880078a9d9f7c923448651ed0ecf6e53bcfc1d94da0a8a5e63895664736f6c63430008110033\n}\n",
				"bytecode": {
					"linkReferences": {},
					"object": "608060405234801561001057600080fd5b506107a3806100206000396000f3fe608060405234801561001057600080fd5b50600436106100415760003560e01c8063699450e814610046578063d5dcf12714610065578063ec07c2d114610081575b600080fd5b61004e61009d565b60405161005c929190610203565b60405180910390f35b61007f600480360381019061007a9190610273565b610137565b005b61009b60048036038101906100969190610433565b610143565b005b60018060000180546100ae906104be565b80601f01602080910402602001604051908101604052809291908181526020018280546100da906104be565b80156101275780601f106100fc57610100808354040283529160200191610127565b820191906000526020600020905b81548152906001019060200180831161010a57829003601f168201915b5050505050908060010154905082565b80600180018190555050565b8160016000019081610155919061069b565b505050565b600081519050919050565b600082825260208201905092915050565b60005b83811015610194578082015181840152602081019050610179565b60008484015250505050565b6000601f19601f8301169050919050565b60006101bc8261015a565b6101c68185610165565b93506101d6818560208601610176565b6101df816101a0565b840191505092915050565b6000819050919050565b6101fd816101ea565b82525050565b6000604082019050818103600083015261021d81856101b1565b905061022c60208301846101f4565b9392505050565b6000604051905090565b600080fd5b600080fd5b610250816101ea565b811461025b57600080fd5b50565b60008135905061026d81610247565b92915050565b6000602082840312156102895761028861023d565b5b60006102978482850161025e565b91505092915050565b600080fd5b600080fd5b7f4e487b7100000000000000000000000000000000000000000000000000000000600052604160045260246000fd5b6102e2826101a0565b810181811067ffffffffffffffff82111715610301576103006102aa565b5b80604052505050565b6000610314610233565b905061032082826102d9565b919050565b600067ffffffffffffffff8211156103405761033f6102aa565b5b610349826101a0565b9050602081019050919050565b82818337600083830152505050565b600061037861037384610325565b61030a565b905082815260208101848484011115610394576103936102a5565b5b61039f848285610356565b509392505050565b600082601f8301126103bc576103bb6102a0565b5b81356103cc848260208601610365565b91505092915050565b600073ffffffffffffffffffffffffffffffffffffffff82169050919050565b6000610400826103d5565b9050919050565b610410816103f5565b811461041b57600080fd5b50565b60008135905061042d81610407565b92915050565b6000806040838503121561044a5761044961023d565b5b600083013567ffffffffffffffff81111561046857610467610242565b5b610474858286016103a7565b92505060206104858582860161041e565b9150509250929050565b7f4e487b7100000000000000000000000000000000000000000000000000000000600052602260045260246000fd5b600060028204905060018216806104d657607f821691505b6020821081036104e9576104e861048f565b5b50919050565b60008190508160005260206000209050919050565b60006020601f8301049050919050565b600082821b905092915050565b6000600883026105517fffffffffffffffffffffffffffffffffffffffffffffffffffffffffffffffff82610514565b61055b8683610514565b95508019841693508086168417925050509392505050565b6000819050919050565b600061059861059361058e846101ea565b610573565b6101ea565b9050919050565b6000819050919050565b6105b28361057d565b6105c66105be8261059f565b848454610521565b825550505050565b600090565b6105db6105ce565b6105e68184846105a9565b505050565b5b8181101561060a576105ff6000826105d3565b6001810190506105ec565b5050565b601f82111561064f57610620816104ef565b61062984610504565b81016020851015610638578190505b61064c61064485610504565b8301826105eb565b50505b505050565b600082821c905092915050565b600061067260001984600802610654565b1980831691505092915050565b600061068b8383610661565b9150826002028217905092915050565b6106a48261015a565b67ffffffffffffffff8111156106bd576106bc6102aa565b5b6106c782546104be565b6106d282828561060e565b600060209050601f83116001811461070557600084156106f3578287015190505b6106fd858261067f565b865550610765565b601f198416610713866104ef565b60005b8281101561073b57848901518255600182019150602085019450602081019050610716565b868310156107585784890151610754601f891682610661565b8355505b6001600288020188555050505b50505050505056fea264697066735822122056f3110a2e880078a9d9f7c923448651ed0ecf6e53bcfc1d94da0a8a5e63895664736f6c63430008110033",
					"opcodes": "PUSH1 0x80 PUSH1 0x40 MSTORE CALLVALUE DUP1 ISZERO PUSH2 0x10 JUMPI PUSH1 0x0 DUP1 REVERT JUMPDEST POP PUSH2 0x7A3 DUP1 PUSH2 0x20 PUSH1 0x0 CODECOPY PUSH1 0x0 RETURN INVALID PUSH1 0x80 PUSH1 0x40 MSTORE CALLVALUE DUP1 ISZERO PUSH2 0x10 JUMPI PUSH1 0x0 DUP1 REVERT JUMPDEST POP PUSH1 0x4 CALLDATASIZE LT PUSH2 0x41 JUMPI PUSH1 0x0 CALLDATALOAD PUSH1 0xE0 SHR DUP1 PUSH4 0x699450E8 EQ PUSH2 0x46 JUMPI DUP1 PUSH4 0xD5DCF127 EQ PUSH2 0x65 JUMPI DUP1 PUSH4 0xEC07C2D1 EQ PUSH2 0x81 JUMPI JUMPDEST PUSH1 0x0 DUP1 REVERT JUMPDEST PUSH2 0x4E PUSH2 0x9D JUMP JUMPDEST PUSH1 0x40 MLOAD PUSH2 0x5C SWAP3 SWAP2 SWAP1 PUSH2 0x203 JUMP JUMPDEST PUSH1 0x40 MLOAD DUP1 SWAP2 SUB SWAP1 RETURN JUMPDEST PUSH2 0x7F PUSH1 0x4 DUP1 CALLDATASIZE SUB DUP2 ADD SWAP1 PUSH2 0x7A SWAP2 SWAP1 PUSH2 0x273 JUMP JUMPDEST PUSH2 0x137 JUMP JUMPDEST STOP JUMPDEST PUSH2 0x9B PUSH1 0x4 DUP1 CALLDATASIZE SUB DUP2 ADD SWAP1 PUSH2 0x96 SWAP2 SWAP1 PUSH2 0x433 JUMP JUMPDEST PUSH2 0x143 JUMP JUMPDEST STOP JUMPDEST PUSH1 0x1 DUP1 PUSH1 0x0 ADD DUP1 SLOAD PUSH2 0xAE SWAP1 PUSH2 0x4BE JUMP JUMPDEST DUP1 PUSH1 0x1F ADD PUSH1 0x20 DUP1 SWAP2 DIV MUL PUSH1 0x20 ADD PUSH1 0x40 MLOAD SWAP1 DUP2 ADD PUSH1 0x40 MSTORE DUP1 SWAP3 SWAP2 SWAP1 DUP2 DUP2 MSTORE PUSH1 0x20 ADD DUP3 DUP1 SLOAD PUSH2 0xDA SWAP1 PUSH2 0x4BE JUMP JUMPDEST DUP1 ISZERO PUSH2 0x127 JUMPI DUP1 PUSH1 0x1F LT PUSH2 0xFC JUMPI PUSH2 0x100 DUP1 DUP4 SLOAD DIV MUL DUP4 MSTORE SWAP2 PUSH1 0x20 ADD SWAP2 PUSH2 0x127 JUMP JUMPDEST DUP3 ADD SWAP2 SWAP1 PUSH1 0x0 MSTORE PUSH1 0x20 PUSH1 0x0 KECCAK256 SWAP1 JUMPDEST DUP2 SLOAD DUP2 MSTORE SWAP1 PUSH1 0x1 ADD SWAP1 PUSH1 0x20 ADD DUP1 DUP4 GT PUSH2 0x10A JUMPI DUP3 SWAP1 SUB PUSH1 0x1F AND DUP3 ADD SWAP2 JUMPDEST POP POP POP POP POP SWAP1 DUP1 PUSH1 0x1 ADD SLOAD SWAP1 POP DUP3 JUMP JUMPDEST DUP1 PUSH1 0x1 DUP1 ADD DUP2 SWAP1 SSTORE POP POP JUMP JUMPDEST DUP2 PUSH1 0x1 PUSH1 0x0 ADD SWAP1 DUP2 PUSH2 0x155 SWAP2 SWAP1 PUSH2 0x69B JUMP JUMPDEST POP POP POP JUMP JUMPDEST PUSH1 0x0 DUP2 MLOAD SWAP1 POP SWAP2 SWAP1 POP JUMP JUMPDEST PUSH1 0x0 DUP3 DUP3 MSTORE PUSH1 0x20 DUP3 ADD SWAP1 POP SWAP3 SWAP2 POP POP JUMP JUMPDEST PUSH1 0x0 JUMPDEST DUP4 DUP2 LT ISZERO PUSH2 0x194 JUMPI DUP1 DUP3 ADD MLOAD DUP2 DUP5 ADD MSTORE PUSH1 0x20 DUP2 ADD SWAP1 POP PUSH2 0x179 JUMP JUMPDEST PUSH1 0x0 DUP5 DUP5 ADD MSTORE POP POP POP POP JUMP JUMPDEST PUSH1 0x0 PUSH1 0x1F NOT PUSH1 0x1F DUP4 ADD AND SWAP1 POP SWAP2 SWAP1 POP JUMP JUMPDEST PUSH1 0x0 PUSH2 0x1BC DUP3 PUSH2 0x15A JUMP JUMPDEST PUSH2 0x1C6 DUP2 DUP6 PUSH2 0x165 JUMP JUMPDEST SWAP4 POP PUSH2 0x1D6 DUP2 DUP6 PUSH1 0x20 DUP7 ADD PUSH2 0x176 JUMP JUMPDEST PUSH2 0x1DF DUP2 PUSH2 0x1A0 JUMP JUMPDEST DUP5 ADD SWAP2 POP POP SWAP3 SWAP2 POP POP JUMP JUMPDEST PUSH1 0x0 DUP2 SWAP1 POP SWAP2 SWAP1 POP JUMP JUMPDEST PUSH2 0x1FD DUP2 PUSH2 0x1EA JUMP JUMPDEST DUP3 MSTORE POP POP JUMP JUMPDEST PUSH1 0x0 PUSH1 0x40 DUP3 ADD SWAP1 POP DUP2 DUP2 SUB PUSH1 0x0 DUP4 ADD MSTORE PUSH2 0x21D DUP2 DUP6 PUSH2 0x1B1 JUMP JUMPDEST SWAP1 POP PUSH2 0x22C PUSH1 0x20 DUP4 ADD DUP5 PUSH2 0x1F4 JUMP JUMPDEST SWAP4 SWAP3 POP POP POP JUMP JUMPDEST PUSH1 0x0 PUSH1 0x40 MLOAD SWAP1 POP SWAP1 JUMP JUMPDEST PUSH1 0x0 DUP1 REVERT JUMPDEST PUSH1 0x0 DUP1 REVERT JUMPDEST PUSH2 0x250 DUP2 PUSH2 0x1EA JUMP JUMPDEST DUP2 EQ PUSH2 0x25B JUMPI PUSH1 0x0 DUP1 REVERT JUMPDEST POP JUMP JUMPDEST PUSH1 0x0 DUP2 CALLDATALOAD SWAP1 POP PUSH2 0x26D DUP2 PUSH2 0x247 JUMP JUMPDEST SWAP3 SWAP2 POP POP JUMP JUMPDEST PUSH1 0x0 PUSH1 0x20 DUP3 DUP5 SUB SLT ISZERO PUSH2 0x289 JUMPI PUSH2 0x288 PUSH2 0x23D JUMP JUMPDEST JUMPDEST PUSH1 0x0 PUSH2 0x297 DUP5 DUP3 DUP6 ADD PUSH2 0x25E JUMP JUMPDEST SWAP2 POP POP SWAP3 SWAP2 POP POP JUMP JUMPDEST PUSH1 0x0 DUP1 REVERT JUMPDEST PUSH1 0x0 DUP1 REVERT JUMPDEST PUSH32 0x4E487B7100000000000000000000000000000000000000000000000000000000 PUSH1 0x0 MSTORE PUSH1 0x41 PUSH1 0x4 MSTORE PUSH1 0x24 PUSH1 0x0 REVERT JUMPDEST PUSH2 0x2E2 DUP3 PUSH2 0x1A0 JUMP JUMPDEST DUP2 ADD DUP2 DUP2 LT PUSH8 0xFFFFFFFFFFFFFFFF DUP3 GT OR ISZERO PUSH2 0x301 JUMPI PUSH2 0x300 PUSH2 0x2AA JUMP JUMPDEST JUMPDEST DUP1 PUSH1 0x40 MSTORE POP POP POP JUMP JUMPDEST PUSH1 0x0 PUSH2 0x314 PUSH2 0x233 JUMP JUMPDEST SWAP1 POP PUSH2 0x320 DUP3 DUP3 PUSH2 0x2D9 JUMP JUMPDEST SWAP2 SWAP1 POP JUMP JUMPDEST PUSH1 0x0 PUSH8 0xFFFFFFFFFFFFFFFF DUP3 GT ISZERO PUSH2 0x340 JUMPI PUSH2 0x33F PUSH2 0x2AA JUMP JUMPDEST JUMPDEST PUSH2 0x349 DUP3 PUSH2 0x1A0 JUMP JUMPDEST SWAP1 POP PUSH1 0x20 DUP2 ADD SWAP1 POP SWAP2 SWAP1 POP JUMP JUMPDEST DUP3 DUP2 DUP4 CALLDATACOPY PUSH1 0x0 DUP4 DUP4 ADD MSTORE POP POP POP JUMP JUMPDEST PUSH1 0x0 PUSH2 0x378 PUSH2 0x373 DUP5 PUSH2 0x325 JUMP JUMPDEST PUSH2 0x30A JUMP JUMPDEST SWAP1 POP DUP3 DUP2 MSTORE PUSH1 0x20 DUP2 ADD DUP5 DUP5 DUP5 ADD GT ISZERO PUSH2 0x394 JUMPI PUSH2 0x393 PUSH2 0x2A5 JUMP JUMPDEST JUMPDEST PUSH2 0x39F DUP5 DUP3 DUP6 PUSH2 0x356 JUMP JUMPDEST POP SWAP4 SWAP3 POP POP POP JUMP JUMPDEST PUSH1 0x0 DUP3 PUSH1 0x1F DUP4 ADD SLT PUSH2 0x3BC JUMPI PUSH2 0x3BB PUSH2 0x2A0 JUMP JUMPDEST JUMPDEST DUP2 CALLDATALOAD PUSH2 0x3CC DUP5 DUP3 PUSH1 0x20 DUP7 ADD PUSH2 0x365 JUMP JUMPDEST SWAP2 POP POP SWAP3 SWAP2 POP POP JUMP JUMPDEST PUSH1 0x0 PUSH20 0xFFFFFFFFFFFFFFFFFFFFFFFFFFFFFFFFFFFFFFFF DUP3 AND SWAP1 POP SWAP2 SWAP1 POP JUMP JUMPDEST PUSH1 0x0 PUSH2 0x400 DUP3 PUSH2 0x3D5 JUMP JUMPDEST SWAP1 POP SWAP2 SWAP1 POP JUMP JUMPDEST PUSH2 0x410 DUP2 PUSH2 0x3F5 JUMP JUMPDEST DUP2 EQ PUSH2 0x41B JUMPI PUSH1 0x0 DUP1 REVERT JUMPDEST POP JUMP JUMPDEST PUSH1 0x0 DUP2 CALLDATALOAD SWAP1 POP PUSH2 0x42D DUP2 PUSH2 0x407 JUMP JUMPDEST SWAP3 SWAP2 POP POP JUMP JUMPDEST PUSH1 0x0 DUP1 PUSH1 0x40 DUP4 DUP6 SUB SLT ISZERO PUSH2 0x44A JUMPI PUSH2 0x449 PUSH2 0x23D JUMP JUMPDEST JUMPDEST PUSH1 0x0 DUP4 ADD CALLDATALOAD PUSH8 0xFFFFFFFFFFFFFFFF DUP2 GT ISZERO PUSH2 0x468 JUMPI PUSH2 0x467 PUSH2 0x242 JUMP JUMPDEST JUMPDEST PUSH2 0x474 DUP6 DUP3 DUP7 ADD PUSH2 0x3A7 JUMP JUMPDEST SWAP3 POP POP PUSH1 0x20 PUSH2 0x485 DUP6 DUP3 DUP7 ADD PUSH2 0x41E JUMP JUMPDEST SWAP2 POP POP SWAP3 POP SWAP3 SWAP1 POP JUMP JUMPDEST PUSH32 0x4E487B7100000000000000000000000000000000000000000000000000000000 PUSH1 0x0 MSTORE PUSH1 0x22 PUSH1 0x4 MSTORE PUSH1 0x24 PUSH1 0x0 REVERT JUMPDEST PUSH1 0x0 PUSH1 0x2 DUP3 DIV SWAP1 POP PUSH1 0x1 DUP3 AND DUP1 PUSH2 0x4D6 JUMPI PUSH1 0x7F DUP3 AND SWAP2 POP JUMPDEST PUSH1 0x20 DUP3 LT DUP2 SUB PUSH2 0x4E9 JUMPI PUSH2 0x4E8 PUSH2 0x48F JUMP JUMPDEST JUMPDEST POP SWAP2 SWAP1 POP JUMP JUMPDEST PUSH1 0x0 DUP2 SWAP1 POP DUP2 PUSH1 0x0 MSTORE PUSH1 0x20 PUSH1 0x0 KECCAK256 SWAP1 POP SWAP2 SWAP1 POP JUMP JUMPDEST PUSH1 0x0 PUSH1 0x20 PUSH1 0x1F DUP4 ADD DIV SWAP1 POP SWAP2 SWAP1 POP JUMP JUMPDEST PUSH1 0x0 DUP3 DUP3 SHL SWAP1 POP SWAP3 SWAP2 POP POP JUMP JUMPDEST PUSH1 0x0 PUSH1 0x8 DUP4 MUL PUSH2 0x551 PUSH32 0xFFFFFFFFFFFFFFFFFFFFFFFFFFFFFFFFFFFFFFFFFFFFFFFFFFFFFFFFFFFFFFFF DUP3 PUSH2 0x514 JUMP JUMPDEST PUSH2 0x55B DUP7 DUP4 PUSH2 0x514 JUMP JUMPDEST SWAP6 POP DUP1 NOT DUP5 AND SWAP4 POP DUP1 DUP7 AND DUP5 OR SWAP3 POP POP POP SWAP4 SWAP3 POP POP POP JUMP JUMPDEST PUSH1 0x0 DUP2 SWAP1 POP SWAP2 SWAP1 POP JUMP JUMPDEST PUSH1 0x0 PUSH2 0x598 PUSH2 0x593 PUSH2 0x58E DUP5 PUSH2 0x1EA JUMP JUMPDEST PUSH2 0x573 JUMP JUMPDEST PUSH2 0x1EA JUMP JUMPDEST SWAP1 POP SWAP2 SWAP1 POP JUMP JUMPDEST PUSH1 0x0 DUP2 SWAP1 POP SWAP2 SWAP1 POP JUMP JUMPDEST PUSH2 0x5B2 DUP4 PUSH2 0x57D JUMP JUMPDEST PUSH2 0x5C6 PUSH2 0x5BE DUP3 PUSH2 0x59F JUMP JUMPDEST DUP5 DUP5 SLOAD PUSH2 0x521 JUMP JUMPDEST DUP3 SSTORE POP POP POP POP JUMP JUMPDEST PUSH1 0x0 SWAP1 JUMP JUMPDEST PUSH2 0x5DB PUSH2 0x5CE JUMP JUMPDEST PUSH2 0x5E6 DUP2 DUP5 DUP5 PUSH2 0x5A9 JUMP JUMPDEST POP POP POP JUMP JUMPDEST JUMPDEST DUP2 DUP2 LT ISZERO PUSH2 0x60A JUMPI PUSH2 0x5FF PUSH1 0x0 DUP3 PUSH2 0x5D3 JUMP JUMPDEST PUSH1 0x1 DUP2 ADD SWAP1 POP PUSH2 0x5EC JUMP JUMPDEST POP POP JUMP JUMPDEST PUSH1 0x1F DUP3 GT ISZERO PUSH2 0x64F JUMPI PUSH2 0x620 DUP2 PUSH2 0x4EF JUMP JUMPDEST PUSH2 0x629 DUP5 PUSH2 0x504 JUMP JUMPDEST DUP2 ADD PUSH1 0x20 DUP6 LT ISZERO PUSH2 0x638 JUMPI DUP2 SWAP1 POP JUMPDEST PUSH2 0x64C PUSH2 0x644 DUP6 PUSH2 0x504 JUMP JUMPDEST DUP4 ADD DUP3 PUSH2 0x5EB JUMP JUMPDEST POP POP JUMPDEST POP POP POP JUMP JUMPDEST PUSH1 0x0 DUP3 DUP3 SHR SWAP1 POP SWAP3 SWAP2 POP POP JUMP JUMPDEST PUSH1 0x0 PUSH2 0x672 PUSH1 0x0 NOT DUP5 PUSH1 0x8 MUL PUSH2 0x654 JUMP JUMPDEST NOT DUP1 DUP4 AND SWAP2 POP POP SWAP3 SWAP2 POP POP JUMP JUMPDEST PUSH1 0x0 PUSH2 0x68B DUP4 DUP4 PUSH2 0x661 JUMP JUMPDEST SWAP2 POP DUP3 PUSH1 0x2 MUL DUP3 OR SWAP1 POP SWAP3 SWAP2 POP POP JUMP JUMPDEST PUSH2 0x6A4 DUP3 PUSH2 0x15A JUMP JUMPDEST PUSH8 0xFFFFFFFFFFFFFFFF DUP2 GT ISZERO PUSH2 0x6BD JUMPI PUSH2 0x6BC PUSH2 0x2AA JUMP JUMPDEST JUMPDEST PUSH2 0x6C7 DUP3 SLOAD PUSH2 0x4BE JUMP JUMPDEST PUSH2 0x6D2 DUP3 DUP3 DUP6 PUSH2 0x60E JUMP JUMPDEST PUSH1 0x0 PUSH1 0x20 SWAP1 POP PUSH1 0x1F DUP4 GT PUSH1 0x1 DUP2 EQ PUSH2 0x705 JUMPI PUSH1 0x0 DUP5 ISZERO PUSH2 0x6F3 JUMPI DUP3 DUP8 ADD MLOAD SWAP1 POP JUMPDEST PUSH2 0x6FD DUP6 DUP3 PUSH2 0x67F JUMP JUMPDEST DUP7 SSTORE POP PUSH2 0x765 JUMP JUMPDEST PUSH1 0x1F NOT DUP5 AND PUSH2 0x713 DUP7 PUSH2 0x4EF JUMP JUMPDEST PUSH1 0x0 JUMPDEST DUP3 DUP2 LT ISZERO PUSH2 0x73B JUMPI DUP5 DUP10 ADD MLOAD DUP3 SSTORE PUSH1 0x1 DUP3 ADD SWAP2 POP PUSH1 0x20 DUP6 ADD SWAP5 POP PUSH1 0x20 DUP2 ADD SWAP1 POP PUSH2 0x716 JUMP JUMPDEST DUP7 DUP4 LT ISZERO PUSH2 0x758 JUMPI DUP5 DUP10 ADD MLOAD PUSH2 0x754 PUSH1 0x1F DUP10 AND DUP3 PUSH2 0x661 JUMP JUMPDEST DUP4 SSTORE POP JUMPDEST PUSH1 0x1 PUSH1 0x2 DUP9 MUL ADD DUP9 SSTORE POP POP POP JUMPDEST POP POP POP POP POP POP JUMP INVALID LOG2 PUSH5 0x6970667358 0x22 SLT KECCAK256 JUMP RETURN GT EXP 0x2E DUP9 STOP PUSH25 0xA9D9F7C923448651ED0ECF6E53BCFC1D94DA0A8A5E63895664 PUSH20 0x6F6C634300081100330000000000000000000000 "
				},
				"gasEstimates": {
					"creation": {
						"codeDepositCost": "391000",
						"executionCost": "430",
						"totalCost": "391430"
					},
					"external": {
						"setAge(uint256)": "22526",
						"setName(string,address)": "infinite",
						"student()": "infinite"
					}
				},
				"methodIdentifiers": {
					"setAge(uint256)": "d5dcf127",
					"setName(string,address)": "ec07c2d1",
					"student()": "699450e8"
				}
			},
			"storageLayout": {
				"storage": [
					{
						"astId": 17,
						"contract": "5_Day/3_structs_basic.sol:Student",
						"label": "students",
						"offset": 0,
						"slot": "0",
						"type": "t_mapping(t_address,t_struct(StudentStruct)12_storage)"
					},
					{
						"astId": 20,
						"contract": "5_Day/3_structs_basic.sol:Student",
						"label": "student",
						"offset": 0,
						"slot": "1",
						"type": "t_struct(StudentStruct)12_storage"
					}
				],
				"types": {
					"t_address": {
						"encoding": "inplace",
						"label": "address",
						"numberOfBytes": "20"
					},
					"t_mapping(t_address,t_struct(StudentStruct)12_storage)": {
						"encoding": "mapping",
						"key": "t_address",
						"label": "mapping(address => struct Student.StudentStruct)",
						"numberOfBytes": "32",
						"value": "t_struct(StudentStruct)12_storage"
					},
					"t_string_storage": {
						"encoding": "bytes",
						"label": "string",
						"numberOfBytes": "32"
					},
					"t_struct(StudentStruct)12_storage": {
						"encoding": "inplace",
						"label": "struct Student.StudentStruct",
						"members": [
							{
								"astId": 9,
								"contract": "5_Day/3_structs_basic.sol:Student",
								"label": "name",
								"offset": 0,
								"slot": "0",
								"type": "t_string_storage"
							},
							{
								"astId": 11,
								"contract": "5_Day/3_structs_basic.sol:Student",
								"label": "age",
								"offset": 0,
								"slot": "1",
								"type": "t_uint256"
							}
						],
						"numberOfBytes": "64"
					},
					"t_uint256": {
						"encoding": "inplace",
						"label": "uint256",
						"numberOfBytes": "32"
					}
				}
			},
			"userdoc": {
				"kind": "user",
				"methods": {},
				"version": 1
			}
		}
	}
}