{
	"5_Day/6_functions.sol": {
		"Function": {
			"abi": [
				{
					"inputs": [],
					"name": "F",
					"outputs": [
						{
							"components": [
								{
									"internalType": "uint256",
									"name": "age",
									"type": "uint256"
								},
								{
									"internalType": "bool",
									"name": "isMale",
									"type": "bool"
								},
								{
									"internalType": "uint256",
									"name": "balance",
									"type": "uint256"
								}
							],
							"internalType": "struct Function.IDK",
							"name": "",
							"type": "tuple"
						}
					],
					"stateMutability": "pure",
					"type": "function"
				}
			],
			"devdoc": {
				"kind": "dev",
				"methods": {},
				"version": 1
			},
			"evm": {
				"assembly": "    /* \"5_Day/6_functions.sol\":58:369  contract Function {... */\n  mstore(0x40, 0x80)\n  callvalue\n  dup1\n  iszero\n  tag_1\n  jumpi\n  0x00\n  dup1\n  revert\ntag_1:\n  pop\n  dataSize(sub_0)\n  dup1\n  dataOffset(sub_0)\n  0x00\n  codecopy\n  0x00\n  return\nstop\n\nsub_0: assembly {\n        /* \"5_Day/6_functions.sol\":58:369  contract Function {... */\n      mstore(0x40, 0x80)\n      callvalue\n      dup1\n      iszero\n      tag_1\n      jumpi\n      0x00\n      dup1\n      revert\n    tag_1:\n      pop\n      jumpi(tag_2, lt(calldatasize, 0x04))\n      shr(0xe0, calldataload(0x00))\n      dup1\n      0x28811f59\n      eq\n      tag_3\n      jumpi\n    tag_2:\n      0x00\n      dup1\n      revert\n        /* \"5_Day/6_functions.sol\":211:318  function F() public pure returns (IDK memory) {... */\n    tag_3:\n      tag_4\n      tag_5\n      jump\t// in\n    tag_4:\n      mload(0x40)\n      tag_6\n      swap2\n      swap1\n      tag_7\n      jump\t// in\n    tag_6:\n      mload(0x40)\n      dup1\n      swap2\n      sub\n      swap1\n      return\n    tag_5:\n        /* \"5_Day/6_functions.sol\":245:255  IDK memory */\n      tag_8\n      tag_9\n      jump\t// in\n    tag_8:\n        /* \"5_Day/6_functions.sol\":274:311  IDK({age:1,isMale:true, balance:100}) */\n      mload(0x40)\n      dup1\n      0x60\n      add\n      0x40\n      mstore\n      dup1\n        /* \"5_Day/6_functions.sol\":283:284  1 */\n      0x01\n        /* \"5_Day/6_functions.sol\":274:311  IDK({age:1,isMale:true, balance:100}) */\n      dup2\n      mstore\n      0x20\n      add\n        /* \"5_Day/6_functions.sol\":292:296  true */\n      0x01\n        /* \"5_Day/6_functions.sol\":274:311  IDK({age:1,isMale:true, balance:100}) */\n      iszero\n      iszero\n      dup2\n      mstore\n      0x20\n      add\n        /* \"5_Day/6_functions.sol\":306:309  100 */\n      0x64\n        /* \"5_Day/6_functions.sol\":274:311  IDK({age:1,isMale:true, balance:100}) */\n      dup2\n      mstore\n      pop\n        /* \"5_Day/6_functions.sol\":267:311  return IDK({age:1,isMale:true, balance:100}) */\n      swap1\n      pop\n        /* \"5_Day/6_functions.sol\":211:318  function F() public pure returns (IDK memory) {... */\n      swap1\n      jump\t// out\n    tag_9:\n      mload(0x40)\n      dup1\n      0x60\n      add\n      0x40\n      mstore\n      dup1\n      0x00\n      dup2\n      mstore\n      0x20\n      add\n      iszero(iszero(0x00))\n      dup2\n      mstore\n      0x20\n      add\n      0x00\n      dup2\n      mstore\n      pop\n      swap1\n      jump\t// out\n        /* \"#utility.yul\":7:84   */\n    tag_11:\n        /* \"#utility.yul\":44:51   */\n      0x00\n        /* \"#utility.yul\":73:78   */\n      dup2\n        /* \"#utility.yul\":62:78   */\n      swap1\n      pop\n        /* \"#utility.yul\":7:84   */\n      swap2\n      swap1\n      pop\n      jump\t// out\n        /* \"#utility.yul\":90:198   */\n    tag_12:\n        /* \"#utility.yul\":167:191   */\n      tag_19\n        /* \"#utility.yul\":185:190   */\n      dup2\n        /* \"#utility.yul\":167:191   */\n      tag_11\n      jump\t// in\n    tag_19:\n        /* \"#utility.yul\":162:165   */\n      dup3\n        /* \"#utility.yul\":155:192   */\n      mstore\n        /* \"#utility.yul\":90:198   */\n      pop\n      pop\n      jump\t// out\n        /* \"#utility.yul\":204:294   */\n    tag_13:\n        /* \"#utility.yul\":238:245   */\n      0x00\n        /* \"#utility.yul\":281:286   */\n      dup2\n        /* \"#utility.yul\":274:287   */\n      iszero\n        /* \"#utility.yul\":267:288   */\n      iszero\n        /* \"#utility.yul\":256:288   */\n      swap1\n      pop\n        /* \"#utility.yul\":204:294   */\n      swap2\n      swap1\n      pop\n      jump\t// out\n        /* \"#utility.yul\":300:399   */\n    tag_14:\n        /* \"#utility.yul\":371:392   */\n      tag_22\n        /* \"#utility.yul\":386:391   */\n      dup2\n        /* \"#utility.yul\":371:392   */\n      tag_13\n      jump\t// in\n    tag_22:\n        /* \"#utility.yul\":366:369   */\n      dup3\n        /* \"#utility.yul\":359:393   */\n      mstore\n        /* \"#utility.yul\":300:399   */\n      pop\n      pop\n      jump\t// out\n        /* \"#utility.yul\":455:1120   */\n    tag_15:\n        /* \"#utility.yul\":588:592   */\n      0x60\n        /* \"#utility.yul\":583:586   */\n      dup3\n        /* \"#utility.yul\":579:593   */\n      add\n        /* \"#utility.yul\":674:678   */\n      0x00\n        /* \"#utility.yul\":667:672   */\n      dup3\n        /* \"#utility.yul\":663:679   */\n      add\n        /* \"#utility.yul\":657:680   */\n      mload\n        /* \"#utility.yul\":693:756   */\n      tag_24\n        /* \"#utility.yul\":750:754   */\n      0x00\n        /* \"#utility.yul\":745:748   */\n      dup6\n        /* \"#utility.yul\":741:755   */\n      add\n        /* \"#utility.yul\":727:739   */\n      dup3\n        /* \"#utility.yul\":693:756   */\n      tag_12\n      jump\t// in\n    tag_24:\n        /* \"#utility.yul\":603:766   */\n      pop\n        /* \"#utility.yul\":850:854   */\n      0x20\n        /* \"#utility.yul\":843:848   */\n      dup3\n        /* \"#utility.yul\":839:855   */\n      add\n        /* \"#utility.yul\":833:856   */\n      mload\n        /* \"#utility.yul\":869:926   */\n      tag_25\n        /* \"#utility.yul\":920:924   */\n      0x20\n        /* \"#utility.yul\":915:918   */\n      dup6\n        /* \"#utility.yul\":911:925   */\n      add\n        /* \"#utility.yul\":897:909   */\n      dup3\n        /* \"#utility.yul\":869:926   */\n      tag_14\n      jump\t// in\n    tag_25:\n        /* \"#utility.yul\":776:936   */\n      pop\n        /* \"#utility.yul\":1021:1025   */\n      0x40\n        /* \"#utility.yul\":1014:1019   */\n      dup3\n        /* \"#utility.yul\":1010:1026   */\n      add\n        /* \"#utility.yul\":1004:1027   */\n      mload\n        /* \"#utility.yul\":1040:1103   */\n      tag_26\n        /* \"#utility.yul\":1097:1101   */\n      0x40\n        /* \"#utility.yul\":1092:1095   */\n      dup6\n        /* \"#utility.yul\":1088:1102   */\n      add\n        /* \"#utility.yul\":1074:1086   */\n      dup3\n        /* \"#utility.yul\":1040:1103   */\n      tag_12\n      jump\t// in\n    tag_26:\n        /* \"#utility.yul\":946:1113   */\n      pop\n        /* \"#utility.yul\":557:1120   */\n      pop\n        /* \"#utility.yul\":455:1120   */\n      pop\n      pop\n      jump\t// out\n        /* \"#utility.yul\":1126:1420   */\n    tag_7:\n        /* \"#utility.yul\":1255:1259   */\n      0x00\n        /* \"#utility.yul\":1293:1295   */\n      0x60\n        /* \"#utility.yul\":1282:1291   */\n      dup3\n        /* \"#utility.yul\":1278:1296   */\n      add\n        /* \"#utility.yul\":1270:1296   */\n      swap1\n      pop\n        /* \"#utility.yul\":1306:1413   */\n      tag_28\n        /* \"#utility.yul\":1410:1411   */\n      0x00\n        /* \"#utility.yul\":1399:1408   */\n      dup4\n        /* \"#utility.yul\":1395:1412   */\n      add\n        /* \"#utility.yul\":1386:1392   */\n      dup5\n        /* \"#utility.yul\":1306:1413   */\n      tag_15\n      jump\t// in\n    tag_28:\n        /* \"#utility.yul\":1126:1420   */\n      swap3\n      swap2\n      pop\n      pop\n      jump\t// out\n\n    auxdata: 0xa26469706673582212205acd2d36fa95fd6274f92d48784f0e34b3370b0c6742f7472842759f1402d43764736f6c63430008110033\n}\n",
				"bytecode": {
					"linkReferences": {},
					"object": "608060405234801561001057600080fd5b50610165806100206000396000f3fe608060405234801561001057600080fd5b506004361061002b5760003560e01c806328811f5914610030575b600080fd5b61003861004e565b6040516100459190610114565b60405180910390f35b61005661007b565b6040518060600160405280600181526020016001151581526020016064815250905090565b604051806060016040528060008152602001600015158152602001600081525090565b6000819050919050565b6100b18161009e565b82525050565b60008115159050919050565b6100cc816100b7565b82525050565b6060820160008201516100e860008501826100a8565b5060208201516100fb60208501826100c3565b50604082015161010e60408501826100a8565b50505050565b600060608201905061012960008301846100d2565b9291505056fea26469706673582212205acd2d36fa95fd6274f92d48784f0e34b3370b0c6742f7472842759f1402d43764736f6c63430008110033",
					"opcodes": "PUSH1 0x80 PUSH1 0x40 MSTORE CALLVALUE DUP1 ISZERO PUSH2 0x10 JUMPI PUSH1 0x0 DUP1 REVERT JUMPDEST POP PUSH2 0x165 DUP1 PUSH2 0x20 PUSH1 0x0 CODECOPY PUSH1 0x0 RETURN INVALID PUSH1 0x80 PUSH1 0x40 MSTORE CALLVALUE DUP1 ISZERO PUSH2 0x10 JUMPI PUSH1 0x0 DUP1 REVERT JUMPDEST POP PUSH1 0x4 CALLDATASIZE LT PUSH2 0x2B JUMPI PUSH1 0x0 CALLDATALOAD PUSH1 0xE0 SHR DUP1 PUSH4 0x28811F59 EQ PUSH2 0x30 JUMPI JUMPDEST PUSH1 0x0 DUP1 REVERT JUMPDEST PUSH2 0x38 PUSH2 0x4E JUMP JUMPDEST PUSH1 0x40 MLOAD PUSH2 0x45 SWAP2 SWAP1 PUSH2 0x114 JUMP JUMPDEST PUSH1 0x40 MLOAD DUP1 SWAP2 SUB SWAP1 RETURN JUMPDEST PUSH2 0x56 PUSH2 0x7B JUMP JUMPDEST PUSH1 0x40 MLOAD DUP1 PUSH1 0x60 ADD PUSH1 0x40 MSTORE DUP1 PUSH1 0x1 DUP2 MSTORE PUSH1 0x20 ADD PUSH1 0x1 ISZERO ISZERO DUP2 MSTORE PUSH1 0x20 ADD PUSH1 0x64 DUP2 MSTORE POP SWAP1 POP SWAP1 JUMP JUMPDEST PUSH1 0x40 MLOAD DUP1 PUSH1 0x60 ADD PUSH1 0x40 MSTORE DUP1 PUSH1 0x0 DUP2 MSTORE PUSH1 0x20 ADD PUSH1 0x0 ISZERO ISZERO DUP2 MSTORE PUSH1 0x20 ADD PUSH1 0x0 DUP2 MSTORE POP SWAP1 JUMP JUMPDEST PUSH1 0x0 DUP2 SWAP1 POP SWAP2 SWAP1 POP JUMP JUMPDEST PUSH2 0xB1 DUP2 PUSH2 0x9E JUMP JUMPDEST DUP3 MSTORE POP POP JUMP JUMPDEST PUSH1 0x0 DUP2 ISZERO ISZERO SWAP1 POP SWAP2 SWAP1 POP JUMP JUMPDEST PUSH2 0xCC DUP2 PUSH2 0xB7 JUMP JUMPDEST DUP3 MSTORE POP POP JUMP JUMPDEST PUSH1 0x60 DUP3 ADD PUSH1 0x0 DUP3 ADD MLOAD PUSH2 0xE8 PUSH1 0x0 DUP6 ADD DUP3 PUSH2 0xA8 JUMP JUMPDEST POP PUSH1 0x20 DUP3 ADD MLOAD PUSH2 0xFB PUSH1 0x20 DUP6 ADD DUP3 PUSH2 0xC3 JUMP JUMPDEST POP PUSH1 0x40 DUP3 ADD MLOAD PUSH2 0x10E PUSH1 0x40 DUP6 ADD DUP3 PUSH2 0xA8 JUMP JUMPDEST POP POP POP POP JUMP JUMPDEST PUSH1 0x0 PUSH1 0x60 DUP3 ADD SWAP1 POP PUSH2 0x129 PUSH1 0x0 DUP4 ADD DUP5 PUSH2 0xD2 JUMP JUMPDEST SWAP3 SWAP2 POP POP JUMP INVALID LOG2 PUSH5 0x6970667358 0x22 SLT KECCAK256 GAS 0xCD 0x2D CALLDATASIZE STATICCALL SWAP6 REVERT PUSH3 0x74F92D BASEFEE PUSH25 0x4F0E34B3370B0C6742F7472842759F1402D43764736F6C6343 STOP ADDMOD GT STOP CALLER "
				},
				"gasEstimates": {
					"creation": {
						"codeDepositCost": "71400",
						"executionCost": "123",
						"totalCost": "71523"
					},
					"external": {
						"F()": "infinite"
					},
					"internal": {
						"_f()": "infinite"
					}
				},
				"methodIdentifiers": {
					"F()": "28811f59"
				}
			},
			"storageLayout": {
				"storage": [],
				"types": null
			},
			"userdoc": {
				"kind": "user",
				"methods": {},
				"version": 1
			}
		}
	}
}