{
	"5_Day/2_enum_example.sol": {
		"Enum": {
			"abi": [
				{
					"inputs": [
						{
							"internalType": "address",
							"name": "_addr",
							"type": "address"
						}
					],
					"name": "SetAdmin",
					"outputs": [],
					"stateMutability": "nonpayable",
					"type": "function"
				},
				{
					"inputs": [
						{
							"internalType": "address",
							"name": "_addr",
							"type": "address"
						}
					],
					"name": "SetStudent",
					"outputs": [],
					"stateMutability": "nonpayable",
					"type": "function"
				},
				{
					"inputs": [
						{
							"internalType": "address",
							"name": "_addr",
							"type": "address"
						}
					],
					"name": "SetTeacher",
					"outputs": [],
					"stateMutability": "nonpayable",
					"type": "function"
				},
				{
					"inputs": [
						{
							"internalType": "address",
							"name": "addr",
							"type": "address"
						}
					],
					"name": "get",
					"outputs": [
						{
							"internalType": "enum Enum.Role",
							"name": "",
							"type": "uint8"
						}
					],
					"stateMutability": "view",
					"type": "function"
				},
				{
					"inputs": [
						{
							"internalType": "address",
							"name": "_addr",
							"type": "address"
						}
					],
					"name": "remove",
					"outputs": [],
					"stateMutability": "nonpayable",
					"type": "function"
				},
				{
					"inputs": [
						{
							"internalType": "enum Enum.Role",
							"name": "_role",
							"type": "uint8"
						},
						{
							"internalType": "address",
							"name": "_addr",
							"type": "address"
						}
					],
					"name": "set",
					"outputs": [],
					"stateMutability": "nonpayable",
					"type": "function"
				}
			],
			"devdoc": {
				"kind": "dev",
				"methods": {},
				"version": 1
			},
			"evm": {
				"assembly": "    /* \"5_Day/2_enum_example.sol\":58:972  contract Enum {... */\n  mstore(0x40, 0x80)\n  callvalue\n  dup1\n  iszero\n  tag_1\n  jumpi\n  0x00\n  dup1\n  revert\ntag_1:\n  pop\n  dataSize(sub_0)\n  dup1\n  dataOffset(sub_0)\n  0x00\n  codecopy\n  0x00\n  return\nstop\n\nsub_0: assembly {\n        /* \"5_Day/2_enum_example.sol\":58:972  contract Enum {... */\n      mstore(0x40, 0x80)\n      callvalue\n      dup1\n      iszero\n      tag_1\n      jumpi\n      0x00\n      dup1\n      revert\n    tag_1:\n      pop\n      jumpi(tag_2, lt(calldatasize, 0x04))\n      shr(0xe0, calldataload(0x00))\n      dup1\n      0x29092d0e\n      eq\n      tag_3\n      jumpi\n      dup1\n      0x50a7f675\n      eq\n      tag_4\n      jumpi\n      dup1\n      0x5a272403\n      eq\n      tag_5\n      jumpi\n      dup1\n      0xad8b5cfd\n      eq\n      tag_6\n      jumpi\n      dup1\n      0xc2bc2efc\n      eq\n      tag_7\n      jumpi\n      dup1\n      0xd9343e82\n      eq\n      tag_8\n      jumpi\n    tag_2:\n      0x00\n      dup1\n      revert\n        /* \"5_Day/2_enum_example.sol\":894:968  function remove(address _addr) public {... */\n    tag_3:\n      tag_9\n      0x04\n      dup1\n      calldatasize\n      sub\n      dup2\n      add\n      swap1\n      tag_10\n      swap2\n      swap1\n      tag_11\n      jump\t// in\n    tag_10:\n      tag_12\n      jump\t// in\n    tag_9:\n      stop\n        /* \"5_Day/2_enum_example.sol\":526:610  function set(Role _role,address _addr) public {... */\n    tag_4:\n      tag_13\n      0x04\n      dup1\n      calldatasize\n      sub\n      dup2\n      add\n      swap1\n      tag_14\n      swap2\n      swap1\n      tag_15\n      jump\t// in\n    tag_14:\n      tag_16\n      jump\t// in\n    tag_13:\n      stop\n        /* \"5_Day/2_enum_example.sol\":800:885  function SetAdmin(address _addr) public {... */\n    tag_5:\n      tag_17\n      0x04\n      dup1\n      calldatasize\n      sub\n      dup2\n      add\n      swap1\n      tag_18\n      swap2\n      swap1\n      tag_11\n      jump\t// in\n    tag_18:\n      tag_19\n      jump\t// in\n    tag_17:\n      stop\n        /* \"5_Day/2_enum_example.sol\":616:703  function SetTeacher(address _addr) public {... */\n    tag_6:\n      tag_20\n      0x04\n      dup1\n      calldatasize\n      sub\n      dup2\n      add\n      swap1\n      tag_21\n      swap2\n      swap1\n      tag_11\n      jump\t// in\n    tag_21:\n      tag_22\n      jump\t// in\n    tag_20:\n      stop\n        /* \"5_Day/2_enum_example.sol\":384:474  function get(address addr) public view returns (Role) {... */\n    tag_7:\n      tag_23\n      0x04\n      dup1\n      calldatasize\n      sub\n      dup2\n      add\n      swap1\n      tag_24\n      swap2\n      swap1\n      tag_11\n      jump\t// in\n    tag_24:\n      tag_25\n      jump\t// in\n    tag_23:\n      mload(0x40)\n      tag_26\n      swap2\n      swap1\n      tag_27\n      jump\t// in\n    tag_26:\n      mload(0x40)\n      dup1\n      swap2\n      sub\n      swap1\n      return\n        /* \"5_Day/2_enum_example.sol\":708:795  function SetStudent(address _addr) public {... */\n    tag_8:\n      tag_28\n      0x04\n      dup1\n      calldatasize\n      sub\n      dup2\n      add\n      swap1\n      tag_29\n      swap2\n      swap1\n      tag_11\n      jump\t// in\n    tag_29:\n      tag_30\n      jump\t// in\n    tag_28:\n      stop\n        /* \"5_Day/2_enum_example.sol\":894:968  function remove(address _addr) public {... */\n    tag_12:\n        /* \"5_Day/2_enum_example.sol\":948:954  person */\n      0x00\n        /* \"5_Day/2_enum_example.sol\":948:961  person[_addr] */\n      dup1\n        /* \"5_Day/2_enum_example.sol\":955:960  _addr */\n      dup3\n        /* \"5_Day/2_enum_example.sol\":948:961  person[_addr] */\n      0xffffffffffffffffffffffffffffffffffffffff\n      and\n      0xffffffffffffffffffffffffffffffffffffffff\n      and\n      dup2\n      mstore\n      0x20\n      add\n      swap1\n      dup2\n      mstore\n      0x20\n      add\n      0x00\n      keccak256\n      0x00\n        /* \"5_Day/2_enum_example.sol\":941:961  delete person[_addr] */\n      0x0100\n      exp\n      dup2\n      sload\n      swap1\n      0xff\n      mul\n      not\n      and\n      swap1\n      sstore\n        /* \"5_Day/2_enum_example.sol\":894:968  function remove(address _addr) public {... */\n      pop\n      jump\t// out\n        /* \"5_Day/2_enum_example.sol\":526:610  function set(Role _role,address _addr) public {... */\n    tag_16:\n        /* \"5_Day/2_enum_example.sol\":598:603  _role */\n      dup2\n        /* \"5_Day/2_enum_example.sol\":582:588  person */\n      0x00\n        /* \"5_Day/2_enum_example.sol\":582:595  person[_addr] */\n      dup1\n        /* \"5_Day/2_enum_example.sol\":589:594  _addr */\n      dup4\n        /* \"5_Day/2_enum_example.sol\":582:595  person[_addr] */\n      0xffffffffffffffffffffffffffffffffffffffff\n      and\n      0xffffffffffffffffffffffffffffffffffffffff\n      and\n      dup2\n      mstore\n      0x20\n      add\n      swap1\n      dup2\n      mstore\n      0x20\n      add\n      0x00\n      keccak256\n      0x00\n        /* \"5_Day/2_enum_example.sol\":582:603  person[_addr] = _role */\n      0x0100\n      exp\n      dup2\n      sload\n      dup2\n      0xff\n      mul\n      not\n      and\n      swap1\n      dup4\n      0x03\n      dup2\n      gt\n      iszero\n      tag_33\n      jumpi\n      tag_34\n      tag_35\n      jump\t// in\n    tag_34:\n    tag_33:\n      mul\n      or\n      swap1\n      sstore\n      pop\n        /* \"5_Day/2_enum_example.sol\":526:610  function set(Role _role,address _addr) public {... */\n      pop\n      pop\n      jump\t// out\n        /* \"5_Day/2_enum_example.sol\":800:885  function SetAdmin(address _addr) public {... */\n    tag_19:\n        /* \"5_Day/2_enum_example.sol\":866:878  Role.Student */\n      0x02\n        /* \"5_Day/2_enum_example.sol\":850:856  person */\n      0x00\n        /* \"5_Day/2_enum_example.sol\":850:863  person[_addr] */\n      dup1\n        /* \"5_Day/2_enum_example.sol\":857:862  _addr */\n      dup4\n        /* \"5_Day/2_enum_example.sol\":850:863  person[_addr] */\n      0xffffffffffffffffffffffffffffffffffffffff\n      and\n      0xffffffffffffffffffffffffffffffffffffffff\n      and\n      dup2\n      mstore\n      0x20\n      add\n      swap1\n      dup2\n      mstore\n      0x20\n      add\n      0x00\n      keccak256\n      0x00\n        /* \"5_Day/2_enum_example.sol\":850:878  person[_addr] = Role.Student */\n      0x0100\n      exp\n      dup2\n      sload\n      dup2\n      0xff\n      mul\n      not\n      and\n      swap1\n      dup4\n      0x03\n      dup2\n      gt\n      iszero\n      tag_37\n      jumpi\n      tag_38\n      tag_35\n      jump\t// in\n    tag_38:\n    tag_37:\n      mul\n      or\n      swap1\n      sstore\n      pop\n        /* \"5_Day/2_enum_example.sol\":800:885  function SetAdmin(address _addr) public {... */\n      pop\n      jump\t// out\n        /* \"5_Day/2_enum_example.sol\":616:703  function SetTeacher(address _addr) public {... */\n    tag_22:\n        /* \"5_Day/2_enum_example.sol\":684:696  Role.Teacher */\n      0x01\n        /* \"5_Day/2_enum_example.sol\":668:674  person */\n      0x00\n        /* \"5_Day/2_enum_example.sol\":668:681  person[_addr] */\n      dup1\n        /* \"5_Day/2_enum_example.sol\":675:680  _addr */\n      dup4\n        /* \"5_Day/2_enum_example.sol\":668:681  person[_addr] */\n      0xffffffffffffffffffffffffffffffffffffffff\n      and\n      0xffffffffffffffffffffffffffffffffffffffff\n      and\n      dup2\n      mstore\n      0x20\n      add\n      swap1\n      dup2\n      mstore\n      0x20\n      add\n      0x00\n      keccak256\n      0x00\n        /* \"5_Day/2_enum_example.sol\":668:696  person[_addr] = Role.Teacher */\n      0x0100\n      exp\n      dup2\n      sload\n      dup2\n      0xff\n      mul\n      not\n      and\n      swap1\n      dup4\n      0x03\n      dup2\n      gt\n      iszero\n      tag_40\n      jumpi\n      tag_41\n      tag_35\n      jump\t// in\n    tag_41:\n    tag_40:\n      mul\n      or\n      swap1\n      sstore\n      pop\n        /* \"5_Day/2_enum_example.sol\":616:703  function SetTeacher(address _addr) public {... */\n      pop\n      jump\t// out\n        /* \"5_Day/2_enum_example.sol\":384:474  function get(address addr) public view returns (Role) {... */\n    tag_25:\n        /* \"5_Day/2_enum_example.sol\":432:436  Role */\n      0x00\n        /* \"5_Day/2_enum_example.sol\":455:461  person */\n      dup1\n        /* \"5_Day/2_enum_example.sol\":455:467  person[addr] */\n      0x00\n        /* \"5_Day/2_enum_example.sol\":462:466  addr */\n      dup4\n        /* \"5_Day/2_enum_example.sol\":455:467  person[addr] */\n      0xffffffffffffffffffffffffffffffffffffffff\n      and\n      0xffffffffffffffffffffffffffffffffffffffff\n      and\n      dup2\n      mstore\n      0x20\n      add\n      swap1\n      dup2\n      mstore\n      0x20\n      add\n      0x00\n      keccak256\n      0x00\n      swap1\n      sload\n      swap1\n      0x0100\n      exp\n      swap1\n      div\n      0xff\n      and\n        /* \"5_Day/2_enum_example.sol\":448:467  return person[addr] */\n      swap1\n      pop\n        /* \"5_Day/2_enum_example.sol\":384:474  function get(address addr) public view returns (Role) {... */\n      swap2\n      swap1\n      pop\n      jump\t// out\n        /* \"5_Day/2_enum_example.sol\":708:795  function SetStudent(address _addr) public {... */\n    tag_30:\n        /* \"5_Day/2_enum_example.sol\":776:788  Role.Student */\n      0x02\n        /* \"5_Day/2_enum_example.sol\":760:766  person */\n      0x00\n        /* \"5_Day/2_enum_example.sol\":760:773  person[_addr] */\n      dup1\n        /* \"5_Day/2_enum_example.sol\":767:772  _addr */\n      dup4\n        /* \"5_Day/2_enum_example.sol\":760:773  person[_addr] */\n      0xffffffffffffffffffffffffffffffffffffffff\n      and\n      0xffffffffffffffffffffffffffffffffffffffff\n      and\n      dup2\n      mstore\n      0x20\n      add\n      swap1\n      dup2\n      mstore\n      0x20\n      add\n      0x00\n      keccak256\n      0x00\n        /* \"5_Day/2_enum_example.sol\":760:788  person[_addr] = Role.Student */\n      0x0100\n      exp\n      dup2\n      sload\n      dup2\n      0xff\n      mul\n      not\n      and\n      swap1\n      dup4\n      0x03\n      dup2\n      gt\n      iszero\n      tag_44\n      jumpi\n      tag_45\n      tag_35\n      jump\t// in\n    tag_45:\n    tag_44:\n      mul\n      or\n      swap1\n      sstore\n      pop\n        /* \"5_Day/2_enum_example.sol\":708:795  function SetStudent(address _addr) public {... */\n      pop\n      jump\t// out\n        /* \"#utility.yul\":88:205   */\n    tag_47:\n        /* \"#utility.yul\":197:198   */\n      0x00\n        /* \"#utility.yul\":194:195   */\n      dup1\n        /* \"#utility.yul\":187:199   */\n      revert\n        /* \"#utility.yul\":334:460   */\n    tag_49:\n        /* \"#utility.yul\":371:378   */\n      0x00\n        /* \"#utility.yul\":411:453   */\n      0xffffffffffffffffffffffffffffffffffffffff\n        /* \"#utility.yul\":404:409   */\n      dup3\n        /* \"#utility.yul\":400:454   */\n      and\n        /* \"#utility.yul\":389:454   */\n      swap1\n      pop\n        /* \"#utility.yul\":334:460   */\n      swap2\n      swap1\n      pop\n      jump\t// out\n        /* \"#utility.yul\":466:562   */\n    tag_50:\n        /* \"#utility.yul\":503:510   */\n      0x00\n        /* \"#utility.yul\":532:556   */\n      tag_65\n        /* \"#utility.yul\":550:555   */\n      dup3\n        /* \"#utility.yul\":532:556   */\n      tag_49\n      jump\t// in\n    tag_65:\n        /* \"#utility.yul\":521:556   */\n      swap1\n      pop\n        /* \"#utility.yul\":466:562   */\n      swap2\n      swap1\n      pop\n      jump\t// out\n        /* \"#utility.yul\":568:690   */\n    tag_51:\n        /* \"#utility.yul\":641:665   */\n      tag_67\n        /* \"#utility.yul\":659:664   */\n      dup2\n        /* \"#utility.yul\":641:665   */\n      tag_50\n      jump\t// in\n    tag_67:\n        /* \"#utility.yul\":634:639   */\n      dup2\n        /* \"#utility.yul\":631:666   */\n      eq\n        /* \"#utility.yul\":621:684   */\n      tag_68\n      jumpi\n        /* \"#utility.yul\":680:681   */\n      0x00\n        /* \"#utility.yul\":677:678   */\n      dup1\n        /* \"#utility.yul\":670:682   */\n      revert\n        /* \"#utility.yul\":621:684   */\n    tag_68:\n        /* \"#utility.yul\":568:690   */\n      pop\n      jump\t// out\n        /* \"#utility.yul\":696:835   */\n    tag_52:\n        /* \"#utility.yul\":742:747   */\n      0x00\n        /* \"#utility.yul\":780:786   */\n      dup2\n        /* \"#utility.yul\":767:787   */\n      calldataload\n        /* \"#utility.yul\":758:787   */\n      swap1\n      pop\n        /* \"#utility.yul\":796:829   */\n      tag_70\n        /* \"#utility.yul\":823:828   */\n      dup2\n        /* \"#utility.yul\":796:829   */\n      tag_51\n      jump\t// in\n    tag_70:\n        /* \"#utility.yul\":696:835   */\n      swap3\n      swap2\n      pop\n      pop\n      jump\t// out\n        /* \"#utility.yul\":841:1170   */\n    tag_11:\n        /* \"#utility.yul\":900:906   */\n      0x00\n        /* \"#utility.yul\":949:951   */\n      0x20\n        /* \"#utility.yul\":937:946   */\n      dup3\n        /* \"#utility.yul\":928:935   */\n      dup5\n        /* \"#utility.yul\":924:947   */\n      sub\n        /* \"#utility.yul\":920:952   */\n      slt\n        /* \"#utility.yul\":917:1036   */\n      iszero\n      tag_72\n      jumpi\n        /* \"#utility.yul\":955:1034   */\n      tag_73\n      tag_47\n      jump\t// in\n    tag_73:\n        /* \"#utility.yul\":917:1036   */\n    tag_72:\n        /* \"#utility.yul\":1075:1076   */\n      0x00\n        /* \"#utility.yul\":1100:1153   */\n      tag_74\n        /* \"#utility.yul\":1145:1152   */\n      dup5\n        /* \"#utility.yul\":1136:1142   */\n      dup3\n        /* \"#utility.yul\":1125:1134   */\n      dup6\n        /* \"#utility.yul\":1121:1143   */\n      add\n        /* \"#utility.yul\":1100:1153   */\n      tag_52\n      jump\t// in\n    tag_74:\n        /* \"#utility.yul\":1090:1153   */\n      swap2\n      pop\n        /* \"#utility.yul\":1046:1163   */\n      pop\n        /* \"#utility.yul\":841:1170   */\n      swap3\n      swap2\n      pop\n      pop\n      jump\t// out\n        /* \"#utility.yul\":1176:1281   */\n    tag_53:\n        /* \"#utility.yul\":1255:1256   */\n      0x04\n        /* \"#utility.yul\":1248:1253   */\n      dup2\n        /* \"#utility.yul\":1245:1257   */\n      lt\n        /* \"#utility.yul\":1235:1275   */\n      tag_76\n      jumpi\n        /* \"#utility.yul\":1271:1272   */\n      0x00\n        /* \"#utility.yul\":1268:1269   */\n      dup1\n        /* \"#utility.yul\":1261:1273   */\n      revert\n        /* \"#utility.yul\":1235:1275   */\n    tag_76:\n        /* \"#utility.yul\":1176:1281   */\n      pop\n      jump\t// out\n        /* \"#utility.yul\":1287:1438   */\n    tag_54:\n        /* \"#utility.yul\":1339:1344   */\n      0x00\n        /* \"#utility.yul\":1377:1383   */\n      dup2\n        /* \"#utility.yul\":1364:1384   */\n      calldataload\n        /* \"#utility.yul\":1355:1384   */\n      swap1\n      pop\n        /* \"#utility.yul\":1393:1432   */\n      tag_78\n        /* \"#utility.yul\":1426:1431   */\n      dup2\n        /* \"#utility.yul\":1393:1432   */\n      tag_53\n      jump\t// in\n    tag_78:\n        /* \"#utility.yul\":1287:1438   */\n      swap3\n      swap2\n      pop\n      pop\n      jump\t// out\n        /* \"#utility.yul\":1444:1930   */\n    tag_15:\n        /* \"#utility.yul\":1518:1524   */\n      0x00\n        /* \"#utility.yul\":1526:1532   */\n      dup1\n        /* \"#utility.yul\":1575:1577   */\n      0x40\n        /* \"#utility.yul\":1563:1572   */\n      dup4\n        /* \"#utility.yul\":1554:1561   */\n      dup6\n        /* \"#utility.yul\":1550:1573   */\n      sub\n        /* \"#utility.yul\":1546:1578   */\n      slt\n        /* \"#utility.yul\":1543:1662   */\n      iszero\n      tag_80\n      jumpi\n        /* \"#utility.yul\":1581:1660   */\n      tag_81\n      tag_47\n      jump\t// in\n    tag_81:\n        /* \"#utility.yul\":1543:1662   */\n    tag_80:\n        /* \"#utility.yul\":1701:1702   */\n      0x00\n        /* \"#utility.yul\":1726:1785   */\n      tag_82\n        /* \"#utility.yul\":1777:1784   */\n      dup6\n        /* \"#utility.yul\":1768:1774   */\n      dup3\n        /* \"#utility.yul\":1757:1766   */\n      dup7\n        /* \"#utility.yul\":1753:1775   */\n      add\n        /* \"#utility.yul\":1726:1785   */\n      tag_54\n      jump\t// in\n    tag_82:\n        /* \"#utility.yul\":1716:1785   */\n      swap3\n      pop\n        /* \"#utility.yul\":1672:1795   */\n      pop\n        /* \"#utility.yul\":1834:1836   */\n      0x20\n        /* \"#utility.yul\":1860:1913   */\n      tag_83\n        /* \"#utility.yul\":1905:1912   */\n      dup6\n        /* \"#utility.yul\":1896:1902   */\n      dup3\n        /* \"#utility.yul\":1885:1894   */\n      dup7\n        /* \"#utility.yul\":1881:1903   */\n      add\n        /* \"#utility.yul\":1860:1913   */\n      tag_52\n      jump\t// in\n    tag_83:\n        /* \"#utility.yul\":1850:1913   */\n      swap2\n      pop\n        /* \"#utility.yul\":1805:1923   */\n      pop\n        /* \"#utility.yul\":1444:1930   */\n      swap3\n      pop\n      swap3\n      swap1\n      pop\n      jump\t// out\n        /* \"#utility.yul\":1936:2116   */\n    tag_35:\n        /* \"#utility.yul\":1984:2061   */\n      0x4e487b7100000000000000000000000000000000000000000000000000000000\n        /* \"#utility.yul\":1981:1982   */\n      0x00\n        /* \"#utility.yul\":1974:2062   */\n      mstore\n        /* \"#utility.yul\":2081:2085   */\n      0x21\n        /* \"#utility.yul\":2078:2079   */\n      0x04\n        /* \"#utility.yul\":2071:2086   */\n      mstore\n        /* \"#utility.yul\":2105:2109   */\n      0x24\n        /* \"#utility.yul\":2102:2103   */\n      0x00\n        /* \"#utility.yul\":2095:2110   */\n      revert\n        /* \"#utility.yul\":2122:2233   */\n    tag_55:\n        /* \"#utility.yul\":2201:2202   */\n      0x04\n        /* \"#utility.yul\":2194:2199   */\n      dup2\n        /* \"#utility.yul\":2191:2203   */\n      lt\n        /* \"#utility.yul\":2181:2227   */\n      tag_86\n      jumpi\n        /* \"#utility.yul\":2207:2225   */\n      tag_87\n      tag_35\n      jump\t// in\n    tag_87:\n        /* \"#utility.yul\":2181:2227   */\n    tag_86:\n        /* \"#utility.yul\":2122:2233   */\n      pop\n      jump\t// out\n        /* \"#utility.yul\":2239:2362   */\n    tag_56:\n        /* \"#utility.yul\":2282:2289   */\n      0x00\n        /* \"#utility.yul\":2311:2316   */\n      dup2\n        /* \"#utility.yul\":2300:2316   */\n      swap1\n      pop\n        /* \"#utility.yul\":2317:2356   */\n      tag_89\n        /* \"#utility.yul\":2350:2355   */\n      dup3\n        /* \"#utility.yul\":2317:2356   */\n      tag_55\n      jump\t// in\n    tag_89:\n        /* \"#utility.yul\":2239:2362   */\n      swap2\n      swap1\n      pop\n      jump\t// out\n        /* \"#utility.yul\":2368:2491   */\n    tag_57:\n        /* \"#utility.yul\":2422:2431   */\n      0x00\n        /* \"#utility.yul\":2455:2485   */\n      tag_91\n        /* \"#utility.yul\":2479:2484   */\n      dup3\n        /* \"#utility.yul\":2455:2485   */\n      tag_56\n      jump\t// in\n    tag_91:\n        /* \"#utility.yul\":2442:2485   */\n      swap1\n      pop\n        /* \"#utility.yul\":2368:2491   */\n      swap2\n      swap1\n      pop\n      jump\t// out\n        /* \"#utility.yul\":2497:2636   */\n    tag_58:\n        /* \"#utility.yul\":2588:2629   */\n      tag_93\n        /* \"#utility.yul\":2623:2628   */\n      dup2\n        /* \"#utility.yul\":2588:2629   */\n      tag_57\n      jump\t// in\n    tag_93:\n        /* \"#utility.yul\":2583:2586   */\n      dup3\n        /* \"#utility.yul\":2576:2630   */\n      mstore\n        /* \"#utility.yul\":2497:2636   */\n      pop\n      pop\n      jump\t// out\n        /* \"#utility.yul\":2642:2872   */\n    tag_27:\n        /* \"#utility.yul\":2739:2743   */\n      0x00\n        /* \"#utility.yul\":2777:2779   */\n      0x20\n        /* \"#utility.yul\":2766:2775   */\n      dup3\n        /* \"#utility.yul\":2762:2780   */\n      add\n        /* \"#utility.yul\":2754:2780   */\n      swap1\n      pop\n        /* \"#utility.yul\":2790:2865   */\n      tag_95\n        /* \"#utility.yul\":2862:2863   */\n      0x00\n        /* \"#utility.yul\":2851:2860   */\n      dup4\n        /* \"#utility.yul\":2847:2864   */\n      add\n        /* \"#utility.yul\":2838:2844   */\n      dup5\n        /* \"#utility.yul\":2790:2865   */\n      tag_58\n      jump\t// in\n    tag_95:\n        /* \"#utility.yul\":2642:2872   */\n      swap3\n      swap2\n      pop\n      pop\n      jump\t// out\n\n    auxdata: 0xa2646970667358221220302a3c6952637dbb41b81399dad77e056907a541e58a4441ff3b857fcef9429764736f6c63430008110033\n}\n",
				"bytecode": {
					"linkReferences": {},
					"object": "608060405234801561001057600080fd5b5061052e806100206000396000f3fe608060405234801561001057600080fd5b50600436106100625760003560e01c806329092d0e1461006757806350a7f675146100835780635a2724031461009f578063ad8b5cfd146100bb578063c2bc2efc146100d7578063d9343e8214610107575b600080fd5b610081600480360381019061007c91906103d4565b610123565b005b61009d60048036038101906100989190610426565b610174565b005b6100b960048036038101906100b491906103d4565b6101de565b005b6100d560048036038101906100d091906103d4565b610248565b005b6100f160048036038101906100ec91906103d4565b6102b2565b6040516100fe91906104dd565b60405180910390f35b610121600480360381019061011c91906103d4565b610307565b005b6000808273ffffffffffffffffffffffffffffffffffffffff1673ffffffffffffffffffffffffffffffffffffffff16815260200190815260200160002060006101000a81549060ff021916905550565b816000808373ffffffffffffffffffffffffffffffffffffffff1673ffffffffffffffffffffffffffffffffffffffff16815260200190815260200160002060006101000a81548160ff021916908360038111156101d5576101d4610466565b5b02179055505050565b60026000808373ffffffffffffffffffffffffffffffffffffffff1673ffffffffffffffffffffffffffffffffffffffff16815260200190815260200160002060006101000a81548160ff021916908360038111156102405761023f610466565b5b021790555050565b60016000808373ffffffffffffffffffffffffffffffffffffffff1673ffffffffffffffffffffffffffffffffffffffff16815260200190815260200160002060006101000a81548160ff021916908360038111156102aa576102a9610466565b5b021790555050565b60008060008373ffffffffffffffffffffffffffffffffffffffff1673ffffffffffffffffffffffffffffffffffffffff16815260200190815260200160002060009054906101000a900460ff169050919050565b60026000808373ffffffffffffffffffffffffffffffffffffffff1673ffffffffffffffffffffffffffffffffffffffff16815260200190815260200160002060006101000a81548160ff0219169083600381111561036957610368610466565b5b021790555050565b600080fd5b600073ffffffffffffffffffffffffffffffffffffffff82169050919050565b60006103a182610376565b9050919050565b6103b181610396565b81146103bc57600080fd5b50565b6000813590506103ce816103a8565b92915050565b6000602082840312156103ea576103e9610371565b5b60006103f8848285016103bf565b91505092915050565b6004811061040e57600080fd5b50565b60008135905061042081610401565b92915050565b6000806040838503121561043d5761043c610371565b5b600061044b85828601610411565b925050602061045c858286016103bf565b9150509250929050565b7f4e487b7100000000000000000000000000000000000000000000000000000000600052602160045260246000fd5b600481106104a6576104a5610466565b5b50565b60008190506104b782610495565b919050565b60006104c7826104a9565b9050919050565b6104d7816104bc565b82525050565b60006020820190506104f260008301846104ce565b9291505056fea2646970667358221220302a3c6952637dbb41b81399dad77e056907a541e58a4441ff3b857fcef9429764736f6c63430008110033",
					"opcodes": "PUSH1 0x80 PUSH1 0x40 MSTORE CALLVALUE DUP1 ISZERO PUSH2 0x10 JUMPI PUSH1 0x0 DUP1 REVERT JUMPDEST POP PUSH2 0x52E DUP1 PUSH2 0x20 PUSH1 0x0 CODECOPY PUSH1 0x0 RETURN INVALID PUSH1 0x80 PUSH1 0x40 MSTORE CALLVALUE DUP1 ISZERO PUSH2 0x10 JUMPI PUSH1 0x0 DUP1 REVERT JUMPDEST POP PUSH1 0x4 CALLDATASIZE LT PUSH2 0x62 JUMPI PUSH1 0x0 CALLDATALOAD PUSH1 0xE0 SHR DUP1 PUSH4 0x29092D0E EQ PUSH2 0x67 JUMPI DUP1 PUSH4 0x50A7F675 EQ PUSH2 0x83 JUMPI DUP1 PUSH4 0x5A272403 EQ PUSH2 0x9F JUMPI DUP1 PUSH4 0xAD8B5CFD EQ PUSH2 0xBB JUMPI DUP1 PUSH4 0xC2BC2EFC EQ PUSH2 0xD7 JUMPI DUP1 PUSH4 0xD9343E82 EQ PUSH2 0x107 JUMPI JUMPDEST PUSH1 0x0 DUP1 REVERT JUMPDEST PUSH2 0x81 PUSH1 0x4 DUP1 CALLDATASIZE SUB DUP2 ADD SWAP1 PUSH2 0x7C SWAP2 SWAP1 PUSH2 0x3D4 JUMP JUMPDEST PUSH2 0x123 JUMP JUMPDEST STOP JUMPDEST PUSH2 0x9D PUSH1 0x4 DUP1 CALLDATASIZE SUB DUP2 ADD SWAP1 PUSH2 0x98 SWAP2 SWAP1 PUSH2 0x426 JUMP JUMPDEST PUSH2 0x174 JUMP JUMPDEST STOP JUMPDEST PUSH2 0xB9 PUSH1 0x4 DUP1 CALLDATASIZE SUB DUP2 ADD SWAP1 PUSH2 0xB4 SWAP2 SWAP1 PUSH2 0x3D4 JUMP JUMPDEST PUSH2 0x1DE JUMP JUMPDEST STOP JUMPDEST PUSH2 0xD5 PUSH1 0x4 DUP1 CALLDATASIZE SUB DUP2 ADD SWAP1 PUSH2 0xD0 SWAP2 SWAP1 PUSH2 0x3D4 JUMP JUMPDEST PUSH2 0x248 JUMP JUMPDEST STOP JUMPDEST PUSH2 0xF1 PUSH1 0x4 DUP1 CALLDATASIZE SUB DUP2 ADD SWAP1 PUSH2 0xEC SWAP2 SWAP1 PUSH2 0x3D4 JUMP JUMPDEST PUSH2 0x2B2 JUMP JUMPDEST PUSH1 0x40 MLOAD PUSH2 0xFE SWAP2 SWAP1 PUSH2 0x4DD JUMP JUMPDEST PUSH1 0x40 MLOAD DUP1 SWAP2 SUB SWAP1 RETURN JUMPDEST PUSH2 0x121 PUSH1 0x4 DUP1 CALLDATASIZE SUB DUP2 ADD SWAP1 PUSH2 0x11C SWAP2 SWAP1 PUSH2 0x3D4 JUMP JUMPDEST PUSH2 0x307 JUMP JUMPDEST STOP JUMPDEST PUSH1 0x0 DUP1 DUP3 PUSH20 0xFFFFFFFFFFFFFFFFFFFFFFFFFFFFFFFFFFFFFFFF AND PUSH20 0xFFFFFFFFFFFFFFFFFFFFFFFFFFFFFFFFFFFFFFFF AND DUP2 MSTORE PUSH1 0x20 ADD SWAP1 DUP2 MSTORE PUSH1 0x20 ADD PUSH1 0x0 KECCAK256 PUSH1 0x0 PUSH2 0x100 EXP DUP2 SLOAD SWAP1 PUSH1 0xFF MUL NOT AND SWAP1 SSTORE POP JUMP JUMPDEST DUP2 PUSH1 0x0 DUP1 DUP4 PUSH20 0xFFFFFFFFFFFFFFFFFFFFFFFFFFFFFFFFFFFFFFFF AND PUSH20 0xFFFFFFFFFFFFFFFFFFFFFFFFFFFFFFFFFFFFFFFF AND DUP2 MSTORE PUSH1 0x20 ADD SWAP1 DUP2 MSTORE PUSH1 0x20 ADD PUSH1 0x0 KECCAK256 PUSH1 0x0 PUSH2 0x100 EXP DUP2 SLOAD DUP2 PUSH1 0xFF MUL NOT AND SWAP1 DUP4 PUSH1 0x3 DUP2 GT ISZERO PUSH2 0x1D5 JUMPI PUSH2 0x1D4 PUSH2 0x466 JUMP JUMPDEST JUMPDEST MUL OR SWAP1 SSTORE POP POP POP JUMP JUMPDEST PUSH1 0x2 PUSH1 0x0 DUP1 DUP4 PUSH20 0xFFFFFFFFFFFFFFFFFFFFFFFFFFFFFFFFFFFFFFFF AND PUSH20 0xFFFFFFFFFFFFFFFFFFFFFFFFFFFFFFFFFFFFFFFF AND DUP2 MSTORE PUSH1 0x20 ADD SWAP1 DUP2 MSTORE PUSH1 0x20 ADD PUSH1 0x0 KECCAK256 PUSH1 0x0 PUSH2 0x100 EXP DUP2 SLOAD DUP2 PUSH1 0xFF MUL NOT AND SWAP1 DUP4 PUSH1 0x3 DUP2 GT ISZERO PUSH2 0x240 JUMPI PUSH2 0x23F PUSH2 0x466 JUMP JUMPDEST JUMPDEST MUL OR SWAP1 SSTORE POP POP JUMP JUMPDEST PUSH1 0x1 PUSH1 0x0 DUP1 DUP4 PUSH20 0xFFFFFFFFFFFFFFFFFFFFFFFFFFFFFFFFFFFFFFFF AND PUSH20 0xFFFFFFFFFFFFFFFFFFFFFFFFFFFFFFFFFFFFFFFF AND DUP2 MSTORE PUSH1 0x20 ADD SWAP1 DUP2 MSTORE PUSH1 0x20 ADD PUSH1 0x0 KECCAK256 PUSH1 0x0 PUSH2 0x100 EXP DUP2 SLOAD DUP2 PUSH1 0xFF MUL NOT AND SWAP1 DUP4 PUSH1 0x3 DUP2 GT ISZERO PUSH2 0x2AA JUMPI PUSH2 0x2A9 PUSH2 0x466 JUMP JUMPDEST JUMPDEST MUL OR SWAP1 SSTORE POP POP JUMP JUMPDEST PUSH1 0x0 DUP1 PUSH1 0x0 DUP4 PUSH20 0xFFFFFFFFFFFFFFFFFFFFFFFFFFFFFFFFFFFFFFFF AND PUSH20 0xFFFFFFFFFFFFFFFFFFFFFFFFFFFFFFFFFFFFFFFF AND DUP2 MSTORE PUSH1 0x20 ADD SWAP1 DUP2 MSTORE PUSH1 0x20 ADD PUSH1 0x0 KECCAK256 PUSH1 0x0 SWAP1 SLOAD SWAP1 PUSH2 0x100 EXP SWAP1 DIV PUSH1 0xFF AND SWAP1 POP SWAP2 SWAP1 POP JUMP JUMPDEST PUSH1 0x2 PUSH1 0x0 DUP1 DUP4 PUSH20 0xFFFFFFFFFFFFFFFFFFFFFFFFFFFFFFFFFFFFFFFF AND PUSH20 0xFFFFFFFFFFFFFFFFFFFFFFFFFFFFFFFFFFFFFFFF AND DUP2 MSTORE PUSH1 0x20 ADD SWAP1 DUP2 MSTORE PUSH1 0x20 ADD PUSH1 0x0 KECCAK256 PUSH1 0x0 PUSH2 0x100 EXP DUP2 SLOAD DUP2 PUSH1 0xFF MUL NOT AND SWAP1 DUP4 PUSH1 0x3 DUP2 GT ISZERO PUSH2 0x369 JUMPI PUSH2 0x368 PUSH2 0x466 JUMP JUMPDEST JUMPDEST MUL OR SWAP1 SSTORE POP POP JUMP JUMPDEST PUSH1 0x0 DUP1 REVERT JUMPDEST PUSH1 0x0 PUSH20 0xFFFFFFFFFFFFFFFFFFFFFFFFFFFFFFFFFFFFFFFF DUP3 AND SWAP1 POP SWAP2 SWAP1 POP JUMP JUMPDEST PUSH1 0x0 PUSH2 0x3A1 DUP3 PUSH2 0x376 JUMP JUMPDEST SWAP1 POP SWAP2 SWAP1 POP JUMP JUMPDEST PUSH2 0x3B1 DUP2 PUSH2 0x396 JUMP JUMPDEST DUP2 EQ PUSH2 0x3BC JUMPI PUSH1 0x0 DUP1 REVERT JUMPDEST POP JUMP JUMPDEST PUSH1 0x0 DUP2 CALLDATALOAD SWAP1 POP PUSH2 0x3CE DUP2 PUSH2 0x3A8 JUMP JUMPDEST SWAP3 SWAP2 POP POP JUMP JUMPDEST PUSH1 0x0 PUSH1 0x20 DUP3 DUP5 SUB SLT ISZERO PUSH2 0x3EA JUMPI PUSH2 0x3E9 PUSH2 0x371 JUMP JUMPDEST JUMPDEST PUSH1 0x0 PUSH2 0x3F8 DUP5 DUP3 DUP6 ADD PUSH2 0x3BF JUMP JUMPDEST SWAP2 POP POP SWAP3 SWAP2 POP POP JUMP JUMPDEST PUSH1 0x4 DUP2 LT PUSH2 0x40E JUMPI PUSH1 0x0 DUP1 REVERT JUMPDEST POP JUMP JUMPDEST PUSH1 0x0 DUP2 CALLDATALOAD SWAP1 POP PUSH2 0x420 DUP2 PUSH2 0x401 JUMP JUMPDEST SWAP3 SWAP2 POP POP JUMP JUMPDEST PUSH1 0x0 DUP1 PUSH1 0x40 DUP4 DUP6 SUB SLT ISZERO PUSH2 0x43D JUMPI PUSH2 0x43C PUSH2 0x371 JUMP JUMPDEST JUMPDEST PUSH1 0x0 PUSH2 0x44B DUP6 DUP3 DUP7 ADD PUSH2 0x411 JUMP JUMPDEST SWAP3 POP POP PUSH1 0x20 PUSH2 0x45C DUP6 DUP3 DUP7 ADD PUSH2 0x3BF JUMP JUMPDEST SWAP2 POP POP SWAP3 POP SWAP3 SWAP1 POP JUMP JUMPDEST PUSH32 0x4E487B7100000000000000000000000000000000000000000000000000000000 PUSH1 0x0 MSTORE PUSH1 0x21 PUSH1 0x4 MSTORE PUSH1 0x24 PUSH1 0x0 REVERT JUMPDEST PUSH1 0x4 DUP2 LT PUSH2 0x4A6 JUMPI PUSH2 0x4A5 PUSH2 0x466 JUMP JUMPDEST JUMPDEST POP JUMP JUMPDEST PUSH1 0x0 DUP2 SWAP1 POP PUSH2 0x4B7 DUP3 PUSH2 0x495 JUMP JUMPDEST SWAP2 SWAP1 POP JUMP JUMPDEST PUSH1 0x0 PUSH2 0x4C7 DUP3 PUSH2 0x4A9 JUMP JUMPDEST SWAP1 POP SWAP2 SWAP1 POP JUMP JUMPDEST PUSH2 0x4D7 DUP2 PUSH2 0x4BC JUMP JUMPDEST DUP3 MSTORE POP POP JUMP JUMPDEST PUSH1 0x0 PUSH1 0x20 DUP3 ADD SWAP1 POP PUSH2 0x4F2 PUSH1 0x0 DUP4 ADD DUP5 PUSH2 0x4CE JUMP JUMPDEST SWAP3 SWAP2 POP POP JUMP INVALID LOG2 PUSH5 0x6970667358 0x22 SLT KECCAK256 ADDRESS 0x2A EXTCODECOPY PUSH10 0x52637DBB41B81399DAD7 PUSH31 0x56907A541E58A4441FF3B857FCEF9429764736F6C63430008110033000000 "
				},
				"gasEstimates": {
					"creation": {
						"codeDepositCost": "265200",
						"executionCost": "306",
						"totalCost": "265506"
					},
					"external": {
						"SetAdmin(address)": "24854",
						"SetStudent(address)": "24920",
						"SetTeacher(address)": "24876",
						"get(address)": "3038",
						"remove(address)": "24765",
						"set(uint8,address)": "24962"
					}
				},
				"methodIdentifiers": {
					"SetAdmin(address)": "5a272403",
					"SetStudent(address)": "d9343e82",
					"SetTeacher(address)": "ad8b5cfd",
					"get(address)": "c2bc2efc",
					"remove(address)": "29092d0e",
					"set(uint8,address)": "50a7f675"
				}
			},
			"storageLayout": {
				"storage": [
					{
						"astId": 11,
						"contract": "5_Day/2_enum_example.sol:Enum",
						"label": "person",
						"offset": 0,
						"slot": "0",
						"type": "t_mapping(t_address,t_enum(Role)6)"
					}
				],
				"types": {
					"t_address": {
						"encoding": "inplace",
						"label": "address",
						"numberOfBytes": "20"
					},
					"t_enum(Role)6": {
						"encoding": "inplace",
						"label": "enum Enum.Role",
						"numberOfBytes": "1"
					},
					"t_mapping(t_address,t_enum(Role)6)": {
						"encoding": "mapping",
						"key": "t_address",
						"label": "mapping(address => enum Enum.Role)",
						"numberOfBytes": "32",
						"value": "t_enum(Role)6"
					}
				}
			},
			"userdoc": {
				"kind": "user",
				"methods": {},
				"version": 1
			}
		}
	}
}