{
	"data": {
		"bytecode": {
			"linkReferences": {},
			"object": "608060405234801561001057600080fd5b5061070e806100206000396000f3fe608060405234801561001057600080fd5b506004361061009e5760003560e01c80634106d7f8116100665780634106d7f8146101835780638a9f7f93146101a15780639db5a37b146101d2578063a39414a2146101f0578063d4e541e31461020e5761009e565b80630f7bb123146100a3578063149411d2146100d3578063161294ce14610104578063251ff1641461012257806339b37ab014610153575b600080fd5b6100bd60048036038101906100b89190610549565b61022c565b6040516100ca9190610585565b60405180910390f35b6100ed60048036038101906100e891906105d8565b610247565b6040516100fb9291906106a8565b60405180910390f35b61010c610301565b6040516101199190610585565b60405180910390f35b61013c600480360381019061013791906105d8565b610306565b60405161014a9291906106a8565b60405180910390f35b61016d60048036038101906101689190610549565b61040e565b60405161017a9190610585565b60405180910390f35b61018b61042c565b6040516101989190610585565b60405180910390f35b6101bb60048036038101906101b691906105d8565b610431565b6040516101c99291906106a8565b60405180910390f35b6101da6104ff565b6040516101e79190610585565b60405180910390f35b6101f8610504565b6040516102059190610585565b60405180910390f35b610216610509565b6040516102239190610585565b60405180910390f35b6000600a821061023d576014610240565b60005b9050919050565b600060606000604051806020016040528060008152509050600a8510156102f15783156102ab576040518060400160405280600b81526020017f62617262696520646f6c6c00000000000000000000000000000000000000000081525090506102e4565b6040518060400160405280600881526020017f626179626c61646500000000000000000000000000000000000000000000000081525090505b60008192509250506102fa565b60148192509250505b9250929050565b600081565b600060606000604051806020016040528060008152509050600a8510156103b057831561036a576040518060400160405280600b81526020017f62617262696520646f6c6c00000000000000000000000000000000000000000081525090506103a3565b6040518060400160405280600881526020017f626179626c61646500000000000000000000000000000000000000000000000081525090505b6000819250925050610407565b60468511156103fe576040518060400160405280601081526020017f24353020666f6f6420766f7563686572000000000000000000000000000000008152509050600a819250925050610407565b60148192509250505b9250929050565b6000600a8210156104225760009050610427565b601490505b919050565b600a81565b60006060600a841061047a5760146040518060400160405280600781526020017f4e6f2067696674000000000000000000000000000000000000000000000000008152506104f4565b6000836104bc576040518060400160405280600881526020017f626179626c6164650000000000000000000000000000000000000000000000008152506104f3565b6040518060400160405280600b81526020017f62617262696520646f6c6c0000000000000000000000000000000000000000008152505b5b915091509250929050565b600a81565b601481565b604681565b600080fd5b6000819050919050565b61052681610513565b811461053157600080fd5b50565b6000813590506105438161051d565b92915050565b60006020828403121561055f5761055e61050e565b5b600061056d84828501610534565b91505092915050565b61057f81610513565b82525050565b600060208201905061059a6000830184610576565b92915050565b60008115159050919050565b6105b5816105a0565b81146105c057600080fd5b50565b6000813590506105d2816105ac565b92915050565b600080604083850312156105ef576105ee61050e565b5b60006105fd85828601610534565b925050602061060e858286016105c3565b9150509250929050565b600081519050919050565b600082825260208201905092915050565b60005b83811015610652578082015181840152602081019050610637565b60008484015250505050565b6000601f19601f8301169050919050565b600061067a82610618565b6106848185610623565b9350610694818560208601610634565b61069d8161065e565b840191505092915050565b60006040820190506106bd6000830185610576565b81810360208301526106cf818461066f565b9050939250505056fea2646970667358221220094b3c9c08121d1ddfcd76fbdebf64be556a06e41728d52f39b7075568ad03aa64736f6c63430008120033",
			"opcodes": "PUSH1 0x80 PUSH1 0x40 MSTORE CALLVALUE DUP1 ISZERO PUSH2 0x10 JUMPI PUSH1 0x0 DUP1 REVERT JUMPDEST POP PUSH2 0x70E DUP1 PUSH2 0x20 PUSH1 0x0 CODECOPY PUSH1 0x0 RETURN INVALID PUSH1 0x80 PUSH1 0x40 MSTORE CALLVALUE DUP1 ISZERO PUSH2 0x10 JUMPI PUSH1 0x0 DUP1 REVERT JUMPDEST POP PUSH1 0x4 CALLDATASIZE LT PUSH2 0x9E JUMPI PUSH1 0x0 CALLDATALOAD PUSH1 0xE0 SHR DUP1 PUSH4 0x4106D7F8 GT PUSH2 0x66 JUMPI DUP1 PUSH4 0x4106D7F8 EQ PUSH2 0x183 JUMPI DUP1 PUSH4 0x8A9F7F93 EQ PUSH2 0x1A1 JUMPI DUP1 PUSH4 0x9DB5A37B EQ PUSH2 0x1D2 JUMPI DUP1 PUSH4 0xA39414A2 EQ PUSH2 0x1F0 JUMPI DUP1 PUSH4 0xD4E541E3 EQ PUSH2 0x20E JUMPI PUSH2 0x9E JUMP JUMPDEST DUP1 PUSH4 0xF7BB123 EQ PUSH2 0xA3 JUMPI DUP1 PUSH4 0x149411D2 EQ PUSH2 0xD3 JUMPI DUP1 PUSH4 0x161294CE EQ PUSH2 0x104 JUMPI DUP1 PUSH4 0x251FF164 EQ PUSH2 0x122 JUMPI DUP1 PUSH4 0x39B37AB0 EQ PUSH2 0x153 JUMPI JUMPDEST PUSH1 0x0 DUP1 REVERT JUMPDEST PUSH2 0xBD PUSH1 0x4 DUP1 CALLDATASIZE SUB DUP2 ADD SWAP1 PUSH2 0xB8 SWAP2 SWAP1 PUSH2 0x549 JUMP JUMPDEST PUSH2 0x22C JUMP JUMPDEST PUSH1 0x40 MLOAD PUSH2 0xCA SWAP2 SWAP1 PUSH2 0x585 JUMP JUMPDEST PUSH1 0x40 MLOAD DUP1 SWAP2 SUB SWAP1 RETURN JUMPDEST PUSH2 0xED PUSH1 0x4 DUP1 CALLDATASIZE SUB DUP2 ADD SWAP1 PUSH2 0xE8 SWAP2 SWAP1 PUSH2 0x5D8 JUMP JUMPDEST PUSH2 0x247 JUMP JUMPDEST PUSH1 0x40 MLOAD PUSH2 0xFB SWAP3 SWAP2 SWAP1 PUSH2 0x6A8 JUMP JUMPDEST PUSH1 0x40 MLOAD DUP1 SWAP2 SUB SWAP1 RETURN JUMPDEST PUSH2 0x10C PUSH2 0x301 JUMP JUMPDEST PUSH1 0x40 MLOAD PUSH2 0x119 SWAP2 SWAP1 PUSH2 0x585 JUMP JUMPDEST PUSH1 0x40 MLOAD DUP1 SWAP2 SUB SWAP1 RETURN JUMPDEST PUSH2 0x13C PUSH1 0x4 DUP1 CALLDATASIZE SUB DUP2 ADD SWAP1 PUSH2 0x137 SWAP2 SWAP1 PUSH2 0x5D8 JUMP JUMPDEST PUSH2 0x306 JUMP JUMPDEST PUSH1 0x40 MLOAD PUSH2 0x14A SWAP3 SWAP2 SWAP1 PUSH2 0x6A8 JUMP JUMPDEST PUSH1 0x40 MLOAD DUP1 SWAP2 SUB SWAP1 RETURN JUMPDEST PUSH2 0x16D PUSH1 0x4 DUP1 CALLDATASIZE SUB DUP2 ADD SWAP1 PUSH2 0x168 SWAP2 SWAP1 PUSH2 0x549 JUMP JUMPDEST PUSH2 0x40E JUMP JUMPDEST PUSH1 0x40 MLOAD PUSH2 0x17A SWAP2 SWAP1 PUSH2 0x585 JUMP JUMPDEST PUSH1 0x40 MLOAD DUP1 SWAP2 SUB SWAP1 RETURN JUMPDEST PUSH2 0x18B PUSH2 0x42C JUMP JUMPDEST PUSH1 0x40 MLOAD PUSH2 0x198 SWAP2 SWAP1 PUSH2 0x585 JUMP JUMPDEST PUSH1 0x40 MLOAD DUP1 SWAP2 SUB SWAP1 RETURN JUMPDEST PUSH2 0x1BB PUSH1 0x4 DUP1 CALLDATASIZE SUB DUP2 ADD SWAP1 PUSH2 0x1B6 SWAP2 SWAP1 PUSH2 0x5D8 JUMP JUMPDEST PUSH2 0x431 JUMP JUMPDEST PUSH1 0x40 MLOAD PUSH2 0x1C9 SWAP3 SWAP2 SWAP1 PUSH2 0x6A8 JUMP JUMPDEST PUSH1 0x40 MLOAD DUP1 SWAP2 SUB SWAP1 RETURN JUMPDEST PUSH2 0x1DA PUSH2 0x4FF JUMP JUMPDEST PUSH1 0x40 MLOAD PUSH2 0x1E7 SWAP2 SWAP1 PUSH2 0x585 JUMP JUMPDEST PUSH1 0x40 MLOAD DUP1 SWAP2 SUB SWAP1 RETURN JUMPDEST PUSH2 0x1F8 PUSH2 0x504 JUMP JUMPDEST PUSH1 0x40 MLOAD PUSH2 0x205 SWAP2 SWAP1 PUSH2 0x585 JUMP JUMPDEST PUSH1 0x40 MLOAD DUP1 SWAP2 SUB SWAP1 RETURN JUMPDEST PUSH2 0x216 PUSH2 0x509 JUMP JUMPDEST PUSH1 0x40 MLOAD PUSH2 0x223 SWAP2 SWAP1 PUSH2 0x585 JUMP JUMPDEST PUSH1 0x40 MLOAD DUP1 SWAP2 SUB SWAP1 RETURN JUMPDEST PUSH1 0x0 PUSH1 0xA DUP3 LT PUSH2 0x23D JUMPI PUSH1 0x14 PUSH2 0x240 JUMP JUMPDEST PUSH1 0x0 JUMPDEST SWAP1 POP SWAP2 SWAP1 POP JUMP JUMPDEST PUSH1 0x0 PUSH1 0x60 PUSH1 0x0 PUSH1 0x40 MLOAD DUP1 PUSH1 0x20 ADD PUSH1 0x40 MSTORE DUP1 PUSH1 0x0 DUP2 MSTORE POP SWAP1 POP PUSH1 0xA DUP6 LT ISZERO PUSH2 0x2F1 JUMPI DUP4 ISZERO PUSH2 0x2AB JUMPI PUSH1 0x40 MLOAD DUP1 PUSH1 0x40 ADD PUSH1 0x40 MSTORE DUP1 PUSH1 0xB DUP2 MSTORE PUSH1 0x20 ADD PUSH32 0x62617262696520646F6C6C000000000000000000000000000000000000000000 DUP2 MSTORE POP SWAP1 POP PUSH2 0x2E4 JUMP JUMPDEST PUSH1 0x40 MLOAD DUP1 PUSH1 0x40 ADD PUSH1 0x40 MSTORE DUP1 PUSH1 0x8 DUP2 MSTORE PUSH1 0x20 ADD PUSH32 0x626179626C616465000000000000000000000000000000000000000000000000 DUP2 MSTORE POP SWAP1 POP JUMPDEST PUSH1 0x0 DUP2 SWAP3 POP SWAP3 POP POP PUSH2 0x2FA JUMP JUMPDEST PUSH1 0x14 DUP2 SWAP3 POP SWAP3 POP POP JUMPDEST SWAP3 POP SWAP3 SWAP1 POP JUMP JUMPDEST PUSH1 0x0 DUP2 JUMP JUMPDEST PUSH1 0x0 PUSH1 0x60 PUSH1 0x0 PUSH1 0x40 MLOAD DUP1 PUSH1 0x20 ADD PUSH1 0x40 MSTORE DUP1 PUSH1 0x0 DUP2 MSTORE POP SWAP1 POP PUSH1 0xA DUP6 LT ISZERO PUSH2 0x3B0 JUMPI DUP4 ISZERO PUSH2 0x36A JUMPI PUSH1 0x40 MLOAD DUP1 PUSH1 0x40 ADD PUSH1 0x40 MSTORE DUP1 PUSH1 0xB DUP2 MSTORE PUSH1 0x20 ADD PUSH32 0x62617262696520646F6C6C000000000000000000000000000000000000000000 DUP2 MSTORE POP SWAP1 POP PUSH2 0x3A3 JUMP JUMPDEST PUSH1 0x40 MLOAD DUP1 PUSH1 0x40 ADD PUSH1 0x40 MSTORE DUP1 PUSH1 0x8 DUP2 MSTORE PUSH1 0x20 ADD PUSH32 0x626179626C616465000000000000000000000000000000000000000000000000 DUP2 MSTORE POP SWAP1 POP JUMPDEST PUSH1 0x0 DUP2 SWAP3 POP SWAP3 POP POP PUSH2 0x407 JUMP JUMPDEST PUSH1 0x46 DUP6 GT ISZERO PUSH2 0x3FE JUMPI PUSH1 0x40 MLOAD DUP1 PUSH1 0x40 ADD PUSH1 0x40 MSTORE DUP1 PUSH1 0x10 DUP2 MSTORE PUSH1 0x20 ADD PUSH32 0x24353020666F6F6420766F756368657200000000000000000000000000000000 DUP2 MSTORE POP SWAP1 POP PUSH1 0xA DUP2 SWAP3 POP SWAP3 POP POP PUSH2 0x407 JUMP JUMPDEST PUSH1 0x14 DUP2 SWAP3 POP SWAP3 POP POP JUMPDEST SWAP3 POP SWAP3 SWAP1 POP JUMP JUMPDEST PUSH1 0x0 PUSH1 0xA DUP3 LT ISZERO PUSH2 0x422 JUMPI PUSH1 0x0 SWAP1 POP PUSH2 0x427 JUMP JUMPDEST PUSH1 0x14 SWAP1 POP JUMPDEST SWAP2 SWAP1 POP JUMP JUMPDEST PUSH1 0xA DUP2 JUMP JUMPDEST PUSH1 0x0 PUSH1 0x60 PUSH1 0xA DUP5 LT PUSH2 0x47A JUMPI PUSH1 0x14 PUSH1 0x40 MLOAD DUP1 PUSH1 0x40 ADD PUSH1 0x40 MSTORE DUP1 PUSH1 0x7 DUP2 MSTORE PUSH1 0x20 ADD PUSH32 0x4E6F206769667400000000000000000000000000000000000000000000000000 DUP2 MSTORE POP PUSH2 0x4F4 JUMP JUMPDEST PUSH1 0x0 DUP4 PUSH2 0x4BC JUMPI PUSH1 0x40 MLOAD DUP1 PUSH1 0x40 ADD PUSH1 0x40 MSTORE DUP1 PUSH1 0x8 DUP2 MSTORE PUSH1 0x20 ADD PUSH32 0x626179626C616465000000000000000000000000000000000000000000000000 DUP2 MSTORE POP PUSH2 0x4F3 JUMP JUMPDEST PUSH1 0x40 MLOAD DUP1 PUSH1 0x40 ADD PUSH1 0x40 MSTORE DUP1 PUSH1 0xB DUP2 MSTORE PUSH1 0x20 ADD PUSH32 0x62617262696520646F6C6C000000000000000000000000000000000000000000 DUP2 MSTORE POP JUMPDEST JUMPDEST SWAP2 POP SWAP2 POP SWAP3 POP SWAP3 SWAP1 POP JUMP JUMPDEST PUSH1 0xA DUP2 JUMP JUMPDEST PUSH1 0x14 DUP2 JUMP JUMPDEST PUSH1 0x46 DUP2 JUMP JUMPDEST PUSH1 0x0 DUP1 REVERT JUMPDEST PUSH1 0x0 DUP2 SWAP1 POP SWAP2 SWAP1 POP JUMP JUMPDEST PUSH2 0x526 DUP2 PUSH2 0x513 JUMP JUMPDEST DUP2 EQ PUSH2 0x531 JUMPI PUSH1 0x0 DUP1 REVERT JUMPDEST POP JUMP JUMPDEST PUSH1 0x0 DUP2 CALLDATALOAD SWAP1 POP PUSH2 0x543 DUP2 PUSH2 0x51D JUMP JUMPDEST SWAP3 SWAP2 POP POP JUMP JUMPDEST PUSH1 0x0 PUSH1 0x20 DUP3 DUP5 SUB SLT ISZERO PUSH2 0x55F JUMPI PUSH2 0x55E PUSH2 0x50E JUMP JUMPDEST JUMPDEST PUSH1 0x0 PUSH2 0x56D DUP5 DUP3 DUP6 ADD PUSH2 0x534 JUMP JUMPDEST SWAP2 POP POP SWAP3 SWAP2 POP POP JUMP JUMPDEST PUSH2 0x57F DUP2 PUSH2 0x513 JUMP JUMPDEST DUP3 MSTORE POP POP JUMP JUMPDEST PUSH1 0x0 PUSH1 0x20 DUP3 ADD SWAP1 POP PUSH2 0x59A PUSH1 0x0 DUP4 ADD DUP5 PUSH2 0x576 JUMP JUMPDEST SWAP3 SWAP2 POP POP JUMP JUMPDEST PUSH1 0x0 DUP2 ISZERO ISZERO SWAP1 POP SWAP2 SWAP1 POP JUMP JUMPDEST PUSH2 0x5B5 DUP2 PUSH2 0x5A0 JUMP JUMPDEST DUP2 EQ PUSH2 0x5C0 JUMPI PUSH1 0x0 DUP1 REVERT JUMPDEST POP JUMP JUMPDEST PUSH1 0x0 DUP2 CALLDATALOAD SWAP1 POP PUSH2 0x5D2 DUP2 PUSH2 0x5AC JUMP JUMPDEST SWAP3 SWAP2 POP POP JUMP JUMPDEST PUSH1 0x0 DUP1 PUSH1 0x40 DUP4 DUP6 SUB SLT ISZERO PUSH2 0x5EF JUMPI PUSH2 0x5EE PUSH2 0x50E JUMP JUMPDEST JUMPDEST PUSH1 0x0 PUSH2 0x5FD DUP6 DUP3 DUP7 ADD PUSH2 0x534 JUMP JUMPDEST SWAP3 POP POP PUSH1 0x20 PUSH2 0x60E DUP6 DUP3 DUP7 ADD PUSH2 0x5C3 JUMP JUMPDEST SWAP2 POP POP SWAP3 POP SWAP3 SWAP1 POP JUMP JUMPDEST PUSH1 0x0 DUP2 MLOAD SWAP1 POP SWAP2 SWAP1 POP JUMP JUMPDEST PUSH1 0x0 DUP3 DUP3 MSTORE PUSH1 0x20 DUP3 ADD SWAP1 POP SWAP3 SWAP2 POP POP JUMP JUMPDEST PUSH1 0x0 JUMPDEST DUP4 DUP2 LT ISZERO PUSH2 0x652 JUMPI DUP1 DUP3 ADD MLOAD DUP2 DUP5 ADD MSTORE PUSH1 0x20 DUP2 ADD SWAP1 POP PUSH2 0x637 JUMP JUMPDEST PUSH1 0x0 DUP5 DUP5 ADD MSTORE POP POP POP POP JUMP JUMPDEST PUSH1 0x0 PUSH1 0x1F NOT PUSH1 0x1F DUP4 ADD AND SWAP1 POP SWAP2 SWAP1 POP JUMP JUMPDEST PUSH1 0x0 PUSH2 0x67A DUP3 PUSH2 0x618 JUMP JUMPDEST PUSH2 0x684 DUP2 DUP6 PUSH2 0x623 JUMP JUMPDEST SWAP4 POP PUSH2 0x694 DUP2 DUP6 PUSH1 0x20 DUP7 ADD PUSH2 0x634 JUMP JUMPDEST PUSH2 0x69D DUP2 PUSH2 0x65E JUMP JUMPDEST DUP5 ADD SWAP2 POP POP SWAP3 SWAP2 POP POP JUMP JUMPDEST PUSH1 0x0 PUSH1 0x40 DUP3 ADD SWAP1 POP PUSH2 0x6BD PUSH1 0x0 DUP4 ADD DUP6 PUSH2 0x576 JUMP JUMPDEST DUP2 DUP2 SUB PUSH1 0x20 DUP4 ADD MSTORE PUSH2 0x6CF DUP2 DUP5 PUSH2 0x66F JUMP JUMPDEST SWAP1 POP SWAP4 SWAP3 POP POP POP JUMP INVALID LOG2 PUSH5 0x6970667358 0x22 SLT KECCAK256 MULMOD 0x4B EXTCODECOPY SWAP13 ADDMOD SLT SAR SAR 0xDF 0xCD PUSH23 0xFBDEBF64BE556A06E41728D52F39B7075568AD03AA6473 PUSH16 0x6C634300081200330000000000000000 "
		},
		"gasEstimates": {
			"creation": {
				"codeDepositCost": "361200",
				"executionCost": "399",
				"totalCost": "361599"
			},
			"external": {
				"adult_fee()": "395",
				"child_fee()": "374",
				"cut_off_age()": "373",
				"fee(uint256)": "infinite",
				"fee_2(uint256,bool)": "infinite",
				"fee_2_ternary(uint256,bool)": "infinite",
				"fee_3(uint256,bool)": "infinite",
				"fee_ternary(uint256)": "infinite",
				"old_age_cut_off_age()": "417",
				"old_age_fee()": "329"
			}
		},
		"methodIdentifiers": {
			"adult_fee()": "a39414a2",
			"child_fee()": "161294ce",
			"cut_off_age()": "9db5a37b",
			"fee(uint256)": "39b37ab0",
			"fee_2(uint256,bool)": "149411d2",
			"fee_2_ternary(uint256,bool)": "8a9f7f93",
			"fee_3(uint256,bool)": "251ff164",
			"fee_ternary(uint256)": "0f7bb123",
			"old_age_cut_off_age()": "d4e541e3",
			"old_age_fee()": "4106d7f8"
		}
	},
	"abi": [
		{
			"inputs": [],
			"name": "adult_fee",
			"outputs": [
				{
					"internalType": "uint256",
					"name": "",
					"type": "uint256"
				}
			],
			"stateMutability": "view",
			"type": "function"
		},
		{
			"inputs": [],
			"name": "child_fee",
			"outputs": [
				{
					"internalType": "uint256",
					"name": "",
					"type": "uint256"
				}
			],
			"stateMutability": "view",
			"type": "function"
		},
		{
			"inputs": [],
			"name": "cut_off_age",
			"outputs": [
				{
					"internalType": "uint256",
					"name": "",
					"type": "uint256"
				}
			],
			"stateMutability": "view",
			"type": "function"
		},
		{
			"inputs": [
				{
					"internalType": "uint256",
					"name": "age",
					"type": "uint256"
				}
			],
			"name": "fee",
			"outputs": [
				{
					"internalType": "uint256",
					"name": "",
					"type": "uint256"
				}
			],
			"stateMutability": "pure",
			"type": "function"
		},
		{
			"inputs": [
				{
					"internalType": "uint256",
					"name": "age",
					"type": "uint256"
				},
				{
					"internalType": "bool",
					"name": "isGirl",
					"type": "bool"
				}
			],
			"name": "fee_2",
			"outputs": [
				{
					"internalType": "uint256",
					"name": "",
					"type": "uint256"
				},
				{
					"internalType": "string",
					"name": "",
					"type": "string"
				}
			],
			"stateMutability": "pure",
			"type": "function"
		},
		{
			"inputs": [
				{
					"internalType": "uint256",
					"name": "age",
					"type": "uint256"
				},
				{
					"internalType": "bool",
					"name": "isGirl",
					"type": "bool"
				}
			],
			"name": "fee_2_ternary",
			"outputs": [
				{
					"internalType": "uint256",
					"name": "",
					"type": "uint256"
				},
				{
					"internalType": "string",
					"name": "",
					"type": "string"
				}
			],
			"stateMutability": "pure",
			"type": "function"
		},
		{
			"inputs": [
				{
					"internalType": "uint256",
					"name": "age",
					"type": "uint256"
				},
				{
					"internalType": "bool",
					"name": "isGirl",
					"type": "bool"
				}
			],
			"name": "fee_3",
			"outputs": [
				{
					"internalType": "uint256",
					"name": "",
					"type": "uint256"
				},
				{
					"internalType": "string",
					"name": "",
					"type": "string"
				}
			],
			"stateMutability": "pure",
			"type": "function"
		},
		{
			"inputs": [
				{
					"internalType": "uint256",
					"name": "age",
					"type": "uint256"
				}
			],
			"name": "fee_ternary",
			"outputs": [
				{
					"internalType": "uint256",
					"name": "",
					"type": "uint256"
				}
			],
			"stateMutability": "pure",
			"type": "function"
		},
		{
			"inputs": [],
			"name": "old_age_cut_off_age",
			"outputs": [
				{
					"internalType": "uint256",
					"name": "",
					"type": "uint256"
				}
			],
			"stateMutability": "view",
			"type": "function"
		},
		{
			"inputs": [],
			"name": "old_age_fee",
			"outputs": [
				{
					"internalType": "uint256",
					"name": "",
					"type": "uint256"
				}
			],
			"stateMutability": "view",
			"type": "function"
		}
	]
}