{
	"data": {
		"bytecode": {
			"linkReferences": {},
			"object": "608060405234801561001057600080fd5b506103a2806100206000396000f3fe608060405234801561001057600080fd5b50600436106100415760003560e01c8063149411d21461004657806339b37ab014610077578063bb00ed44146100a7575b600080fd5b610060600480360381019061005b9190610215565b6100c5565b60405161006e9291906102f4565b60405180910390f35b610091600480360381019061008c9190610324565b61017f565b60405161009e9190610351565b60405180910390f35b6100af61019d565b6040516100bc9190610351565b60405180910390f35b600060606000604051806020016040528060008152509050600a85101561016f578315610129576040518060400160405280600b81526020017f62617262696520646f6c6c0000000000000000000000000000000000000000008152509050610162565b6040518060400160405280600881526020017f626179626c61646500000000000000000000000000000000000000000000000081525090505b6000819250925050610178565b60148192509250505b9250929050565b6000600a8210156101935760009050610198565b601490505b919050565b601481565b600080fd5b6000819050919050565b6101ba816101a7565b81146101c557600080fd5b50565b6000813590506101d7816101b1565b92915050565b60008115159050919050565b6101f2816101dd565b81146101fd57600080fd5b50565b60008135905061020f816101e9565b92915050565b6000806040838503121561022c5761022b6101a2565b5b600061023a858286016101c8565b925050602061024b85828601610200565b9150509250929050565b61025e816101a7565b82525050565b600081519050919050565b600082825260208201905092915050565b60005b8381101561029e578082015181840152602081019050610283565b60008484015250505050565b6000601f19601f8301169050919050565b60006102c682610264565b6102d0818561026f565b93506102e0818560208601610280565b6102e9816102aa565b840191505092915050565b60006040820190506103096000830185610255565b818103602083015261031b81846102bb565b90509392505050565b60006020828403121561033a576103396101a2565b5b6000610348848285016101c8565b91505092915050565b60006020820190506103666000830184610255565b9291505056fea2646970667358221220c6a070e3c590e6a7459923e79e7ebeaca65df414bc5c8f162d7120ac2b4c931b64736f6c63430008120033",
			"opcodes": "PUSH1 0x80 PUSH1 0x40 MSTORE CALLVALUE DUP1 ISZERO PUSH2 0x10 JUMPI PUSH1 0x0 DUP1 REVERT JUMPDEST POP PUSH2 0x3A2 DUP1 PUSH2 0x20 PUSH1 0x0 CODECOPY PUSH1 0x0 RETURN INVALID PUSH1 0x80 PUSH1 0x40 MSTORE CALLVALUE DUP1 ISZERO PUSH2 0x10 JUMPI PUSH1 0x0 DUP1 REVERT JUMPDEST POP PUSH1 0x4 CALLDATASIZE LT PUSH2 0x41 JUMPI PUSH1 0x0 CALLDATALOAD PUSH1 0xE0 SHR DUP1 PUSH4 0x149411D2 EQ PUSH2 0x46 JUMPI DUP1 PUSH4 0x39B37AB0 EQ PUSH2 0x77 JUMPI DUP1 PUSH4 0xBB00ED44 EQ PUSH2 0xA7 JUMPI JUMPDEST PUSH1 0x0 DUP1 REVERT JUMPDEST PUSH2 0x60 PUSH1 0x4 DUP1 CALLDATASIZE SUB DUP2 ADD SWAP1 PUSH2 0x5B SWAP2 SWAP1 PUSH2 0x215 JUMP JUMPDEST PUSH2 0xC5 JUMP JUMPDEST PUSH1 0x40 MLOAD PUSH2 0x6E SWAP3 SWAP2 SWAP1 PUSH2 0x2F4 JUMP JUMPDEST PUSH1 0x40 MLOAD DUP1 SWAP2 SUB SWAP1 RETURN JUMPDEST PUSH2 0x91 PUSH1 0x4 DUP1 CALLDATASIZE SUB DUP2 ADD SWAP1 PUSH2 0x8C SWAP2 SWAP1 PUSH2 0x324 JUMP JUMPDEST PUSH2 0x17F JUMP JUMPDEST PUSH1 0x40 MLOAD PUSH2 0x9E SWAP2 SWAP1 PUSH2 0x351 JUMP JUMPDEST PUSH1 0x40 MLOAD DUP1 SWAP2 SUB SWAP1 RETURN JUMPDEST PUSH2 0xAF PUSH2 0x19D JUMP JUMPDEST PUSH1 0x40 MLOAD PUSH2 0xBC SWAP2 SWAP1 PUSH2 0x351 JUMP JUMPDEST PUSH1 0x40 MLOAD DUP1 SWAP2 SUB SWAP1 RETURN JUMPDEST PUSH1 0x0 PUSH1 0x60 PUSH1 0x0 PUSH1 0x40 MLOAD DUP1 PUSH1 0x20 ADD PUSH1 0x40 MSTORE DUP1 PUSH1 0x0 DUP2 MSTORE POP SWAP1 POP PUSH1 0xA DUP6 LT ISZERO PUSH2 0x16F JUMPI DUP4 ISZERO PUSH2 0x129 JUMPI PUSH1 0x40 MLOAD DUP1 PUSH1 0x40 ADD PUSH1 0x40 MSTORE DUP1 PUSH1 0xB DUP2 MSTORE PUSH1 0x20 ADD PUSH32 0x62617262696520646F6C6C000000000000000000000000000000000000000000 DUP2 MSTORE POP SWAP1 POP PUSH2 0x162 JUMP JUMPDEST PUSH1 0x40 MLOAD DUP1 PUSH1 0x40 ADD PUSH1 0x40 MSTORE DUP1 PUSH1 0x8 DUP2 MSTORE PUSH1 0x20 ADD PUSH32 0x626179626C616465000000000000000000000000000000000000000000000000 DUP2 MSTORE POP SWAP1 POP JUMPDEST PUSH1 0x0 DUP2 SWAP3 POP SWAP3 POP POP PUSH2 0x178 JUMP JUMPDEST PUSH1 0x14 DUP2 SWAP3 POP SWAP3 POP POP JUMPDEST SWAP3 POP SWAP3 SWAP1 POP JUMP JUMPDEST PUSH1 0x0 PUSH1 0xA DUP3 LT ISZERO PUSH2 0x193 JUMPI PUSH1 0x0 SWAP1 POP PUSH2 0x198 JUMP JUMPDEST PUSH1 0x14 SWAP1 POP JUMPDEST SWAP2 SWAP1 POP JUMP JUMPDEST PUSH1 0x14 DUP2 JUMP JUMPDEST PUSH1 0x0 DUP1 REVERT JUMPDEST PUSH1 0x0 DUP2 SWAP1 POP SWAP2 SWAP1 POP JUMP JUMPDEST PUSH2 0x1BA DUP2 PUSH2 0x1A7 JUMP JUMPDEST DUP2 EQ PUSH2 0x1C5 JUMPI PUSH1 0x0 DUP1 REVERT JUMPDEST POP JUMP JUMPDEST PUSH1 0x0 DUP2 CALLDATALOAD SWAP1 POP PUSH2 0x1D7 DUP2 PUSH2 0x1B1 JUMP JUMPDEST SWAP3 SWAP2 POP POP JUMP JUMPDEST PUSH1 0x0 DUP2 ISZERO ISZERO SWAP1 POP SWAP2 SWAP1 POP JUMP JUMPDEST PUSH2 0x1F2 DUP2 PUSH2 0x1DD JUMP JUMPDEST DUP2 EQ PUSH2 0x1FD JUMPI PUSH1 0x0 DUP1 REVERT JUMPDEST POP JUMP JUMPDEST PUSH1 0x0 DUP2 CALLDATALOAD SWAP1 POP PUSH2 0x20F DUP2 PUSH2 0x1E9 JUMP JUMPDEST SWAP3 SWAP2 POP POP JUMP JUMPDEST PUSH1 0x0 DUP1 PUSH1 0x40 DUP4 DUP6 SUB SLT ISZERO PUSH2 0x22C JUMPI PUSH2 0x22B PUSH2 0x1A2 JUMP JUMPDEST JUMPDEST PUSH1 0x0 PUSH2 0x23A DUP6 DUP3 DUP7 ADD PUSH2 0x1C8 JUMP JUMPDEST SWAP3 POP POP PUSH1 0x20 PUSH2 0x24B DUP6 DUP3 DUP7 ADD PUSH2 0x200 JUMP JUMPDEST SWAP2 POP POP SWAP3 POP SWAP3 SWAP1 POP JUMP JUMPDEST PUSH2 0x25E DUP2 PUSH2 0x1A7 JUMP JUMPDEST DUP3 MSTORE POP POP JUMP JUMPDEST PUSH1 0x0 DUP2 MLOAD SWAP1 POP SWAP2 SWAP1 POP JUMP JUMPDEST PUSH1 0x0 DUP3 DUP3 MSTORE PUSH1 0x20 DUP3 ADD SWAP1 POP SWAP3 SWAP2 POP POP JUMP JUMPDEST PUSH1 0x0 JUMPDEST DUP4 DUP2 LT ISZERO PUSH2 0x29E JUMPI DUP1 DUP3 ADD MLOAD DUP2 DUP5 ADD MSTORE PUSH1 0x20 DUP2 ADD SWAP1 POP PUSH2 0x283 JUMP JUMPDEST PUSH1 0x0 DUP5 DUP5 ADD MSTORE POP POP POP POP JUMP JUMPDEST PUSH1 0x0 PUSH1 0x1F NOT PUSH1 0x1F DUP4 ADD AND SWAP1 POP SWAP2 SWAP1 POP JUMP JUMPDEST PUSH1 0x0 PUSH2 0x2C6 DUP3 PUSH2 0x264 JUMP JUMPDEST PUSH2 0x2D0 DUP2 DUP6 PUSH2 0x26F JUMP JUMPDEST SWAP4 POP PUSH2 0x2E0 DUP2 DUP6 PUSH1 0x20 DUP7 ADD PUSH2 0x280 JUMP JUMPDEST PUSH2 0x2E9 DUP2 PUSH2 0x2AA JUMP JUMPDEST DUP5 ADD SWAP2 POP POP SWAP3 SWAP2 POP POP JUMP JUMPDEST PUSH1 0x0 PUSH1 0x40 DUP3 ADD SWAP1 POP PUSH2 0x309 PUSH1 0x0 DUP4 ADD DUP6 PUSH2 0x255 JUMP JUMPDEST DUP2 DUP2 SUB PUSH1 0x20 DUP4 ADD MSTORE PUSH2 0x31B DUP2 DUP5 PUSH2 0x2BB JUMP JUMPDEST SWAP1 POP SWAP4 SWAP3 POP POP POP JUMP JUMPDEST PUSH1 0x0 PUSH1 0x20 DUP3 DUP5 SUB SLT ISZERO PUSH2 0x33A JUMPI PUSH2 0x339 PUSH2 0x1A2 JUMP JUMPDEST JUMPDEST PUSH1 0x0 PUSH2 0x348 DUP5 DUP3 DUP6 ADD PUSH2 0x1C8 JUMP JUMPDEST SWAP2 POP POP SWAP3 SWAP2 POP POP JUMP JUMPDEST PUSH1 0x0 PUSH1 0x20 DUP3 ADD SWAP1 POP PUSH2 0x366 PUSH1 0x0 DUP4 ADD DUP5 PUSH2 0x255 JUMP JUMPDEST SWAP3 SWAP2 POP POP JUMP INVALID LOG2 PUSH5 0x6970667358 0x22 SLT KECCAK256 0xC6 LOG0 PUSH17 0xE3C590E6A7459923E79E7EBEACA65DF414 0xBC 0x5C DUP16 AND 0x2D PUSH18 0x20AC2B4C931B64736F6C6343000812003300 "
		},
		"gasEstimates": {
			"creation": {
				"codeDepositCost": "186000",
				"executionCost": "232",
				"totalCost": "186232"
			},
			"external": {
				"fee(uint256)": "infinite",
				"fee_2(uint256,bool)": "infinite",
				"normal_fee()": "351"
			}
		},
		"methodIdentifiers": {
			"fee(uint256)": "39b37ab0",
			"fee_2(uint256,bool)": "149411d2",
			"normal_fee()": "bb00ed44"
		}
	},
	"abi": [
		{
			"inputs": [
				{
					"internalType": "uint256",
					"name": "age",
					"type": "uint256"
				}
			],
			"name": "fee",
			"outputs": [
				{
					"internalType": "uint256",
					"name": "",
					"type": "uint256"
				}
			],
			"stateMutability": "pure",
			"type": "function"
		},
		{
			"inputs": [
				{
					"internalType": "uint256",
					"name": "age",
					"type": "uint256"
				},
				{
					"internalType": "bool",
					"name": "isGirl",
					"type": "bool"
				}
			],
			"name": "fee_2",
			"outputs": [
				{
					"internalType": "uint256",
					"name": "",
					"type": "uint256"
				},
				{
					"internalType": "string",
					"name": "",
					"type": "string"
				}
			],
			"stateMutability": "pure",
			"type": "function"
		},
		{
			"inputs": [],
			"name": "normal_fee",
			"outputs": [
				{
					"internalType": "uint256",
					"name": "",
					"type": "uint256"
				}
			],
			"stateMutability": "view",
			"type": "function"
		}
	]
}